{
  "contractName": "States",
  "abi": [
    {
      "anonymous": false,
      "inputs": [
        {
          "indexed": true,
          "internalType": "address",
          "name": "newLogicContract",
          "type": "address"
        }
      ],
      "name": "LogicContractUpdated",
      "type": "event"
    },
    {
      "anonymous": false,
      "inputs": [
        {
          "indexed": false,
          "internalType": "address",
          "name": "owner",
          "type": "address"
        }
      ],
      "name": "OwnerSet",
      "type": "event"
    },
    {
      "inputs": [],
      "name": "FUNGIBLE",
      "outputs": [
        {
          "internalType": "uint32",
          "name": "",
          "type": "uint32"
        }
      ],
      "stateMutability": "view",
      "type": "function"
    },
    {
      "inputs": [],
      "name": "HBAR",
      "outputs": [
        {
          "internalType": "uint32",
          "name": "",
          "type": "uint32"
        }
      ],
      "stateMutability": "view",
      "type": "function"
    },
    {
      "inputs": [],
      "name": "NFT",
      "outputs": [
        {
          "internalType": "uint32",
          "name": "",
          "type": "uint32"
        }
      ],
      "stateMutability": "view",
      "type": "function"
    },
    {
      "inputs": [],
      "name": "owner",
      "outputs": [
        {
          "internalType": "address",
          "name": "",
          "type": "address"
        }
      ],
      "stateMutability": "view",
      "type": "function"
    }
  ],
  "bytecode": "0x6080604052600d805463ffffffff1916600117905534801561002057600080fd5b5060d98061002f6000396000f3fe6080604052348015600f57600080fd5b506004361060465760003560e01c80634377e3ff14604b578063774256c714606c5780637c0b8de21460735780638da5cb5b14607a575b600080fd5b6052600181565b60405163ffffffff90911681526020015b60405180910390f35b6052600081565b6052600281565b600054608c906001600160a01b031681565b6040516001600160a01b039091168152602001606356fea26469706673582212200857ba847a24529e734ecab20f1b3b6aa9c880d997198ad62c36fd2b68d8a24264736f6c63430008110033",
  "immutableReferences": {},
  "source": "// SPDX-License-Identifier: Apache-2.0\r\npragma solidity ^0.8.17;\r\n\r\n/**\r\n * @title HashbuzzStates\r\n * @dev This contract is used to store the state of the Hashbuzz contract\r\n */\r\n\r\ncontract States {\r\n    address public owner;\r\n    address internal logicContract;\r\n\r\n    uint32 public constant HBAR = 0;\r\n    uint32 public constant FUNGIBLE = 1;\r\n    uint32 public constant NFT = 2;\r\n\r\n    mapping(address => bool) internal campaigners;\r\n    mapping(address => uint256) internal balances;\r\n    mapping(address => uint256) internal rewardBalances;\r\n    mapping(address => mapping(address => mapping(uint256 => uint64)))\r\n        internal tokenBalances;\r\n    mapping(address => mapping(address => mapping(uint256 => uint64)))\r\n        internal rewardTokenBalances;\r\n    mapping(string => uint256) internal campaignBalances;\r\n    mapping(string => mapping(address => mapping(uint256 => uint64)))\r\n        internal tokenCampaignBalances;\r\n    mapping(address => mapping(address => mapping(uint256 => bool)))\r\n        internal associateCampainer;\r\n    mapping(string => mapping(uint256 => uint256)) internal campaignEndTime;\r\n    mapping(address => uint32) internal nftCampaigner;\r\n    mapping(string => mapping(uint256 => bool)) internal isCampaignClosed;\r\n    uint32 internal id = 1;\r\n    mapping(string => uint32) internal campaignRandomNumber;\r\n\r\n    event OwnerSet(address owner);\r\n    event LogicContractUpdated(address indexed newLogicContract);\r\n}\r\n",
  "sourcePath": "D:\\rajatk\\hashbuzz-staging\\smv201\\contracts\\HashbuzzProxyModules\\_States.sol",
  "compiler": {
    "name": "solc",
    "version": "0.8.17+commit.8df45f5f.Emscripten.clang"
  },
  "schemaVersion": "3.4.16",
  "updatedAt": "2024-10-27T16:41:45.471Z",
  "devdoc": {
    "details": "This contract is used to store the state of the Hashbuzz contract",
    "kind": "dev",
    "methods": {},
    "title": "HashbuzzStates",
    "version": 1
  },
  "userdoc": {
    "kind": "user",
    "methods": {},
    "version": 1
  }
}