{
  "contractName": "HashbuzzV201",
  "abi": [
    {
      "inputs": [],
      "stateMutability": "nonpayable",
      "type": "constructor"
    },
    {
      "anonymous": false,
      "inputs": [
        {
          "indexed": false,
          "internalType": "address",
          "name": "campaigner",
          "type": "address"
        },
        {
          "indexed": false,
          "internalType": "uint256",
          "name": "updatedBalance",
          "type": "uint256"
        }
      ],
      "name": "BalanceUpdated",
      "type": "event"
    },
    {
      "anonymous": false,
      "inputs": [
        {
          "indexed": false,
          "internalType": "address",
          "name": "campaigner",
          "type": "address"
        }
      ],
      "name": "CampaignerAdded",
      "type": "event"
    },
    {
      "anonymous": false,
      "inputs": [
        {
          "indexed": false,
          "internalType": "address",
          "name": "campaigner",
          "type": "address"
        }
      ],
      "name": "CampaignerDeleted",
      "type": "event"
    },
    {
      "anonymous": false,
      "inputs": [
        {
          "indexed": false,
          "internalType": "address",
          "name": "tokenAddress",
          "type": "address"
        }
      ],
      "name": "CreatedToken",
      "type": "event"
    },
    {
      "anonymous": false,
      "inputs": [
        {
          "indexed": false,
          "internalType": "address",
          "name": "campaigner",
          "type": "address"
        },
        {
          "indexed": false,
          "internalType": "uint256",
          "name": "amount",
          "type": "uint256"
        }
      ],
      "name": "FundsDeposited",
      "type": "event"
    },
    {
      "anonymous": false,
      "inputs": [
        {
          "indexed": false,
          "internalType": "address",
          "name": "campaigner",
          "type": "address"
        },
        {
          "indexed": false,
          "internalType": "uint256",
          "name": "amount",
          "type": "uint256"
        }
      ],
      "name": "FundsWithdrawn",
      "type": "event"
    },
    {
      "anonymous": false,
      "inputs": [
        {
          "indexed": false,
          "internalType": "address",
          "name": "campaigner",
          "type": "address"
        },
        {
          "indexed": false,
          "internalType": "address",
          "name": "tokenId",
          "type": "address"
        },
        {
          "indexed": false,
          "internalType": "uint64",
          "name": "updatedBalance",
          "type": "uint64"
        }
      ],
      "name": "FungibleTokenBalanceUpdated",
      "type": "event"
    },
    {
      "anonymous": false,
      "inputs": [
        {
          "indexed": false,
          "internalType": "address",
          "name": "campaigner",
          "type": "address"
        },
        {
          "indexed": false,
          "internalType": "uint64",
          "name": "amount",
          "type": "uint64"
        }
      ],
      "name": "FungibleTokenDeposited",
      "type": "event"
    },
    {
      "anonymous": false,
      "inputs": [
        {
          "indexed": false,
          "internalType": "address",
          "name": "interactor",
          "type": "address"
        },
        {
          "indexed": false,
          "internalType": "address",
          "name": "campaigner",
          "type": "address"
        },
        {
          "indexed": false,
          "internalType": "uint256",
          "name": "amount",
          "type": "uint256"
        }
      ],
      "name": "InteractorPaid",
      "type": "event"
    },
    {
      "anonymous": false,
      "inputs": [
        {
          "indexed": false,
          "internalType": "string",
          "name": "campaignAddress",
          "type": "string"
        },
        {
          "indexed": false,
          "internalType": "uint256",
          "name": "amount",
          "type": "uint256"
        }
      ],
      "name": "InteractorPaidDeferred",
      "type": "event"
    },
    {
      "anonymous": false,
      "inputs": [
        {
          "indexed": false,
          "internalType": "string",
          "name": "campaignAdddress",
          "type": "string"
        },
        {
          "indexed": false,
          "internalType": "uint256",
          "name": "amount",
          "type": "uint256"
        },
        {
          "indexed": false,
          "internalType": "uint32",
          "name": "campaignType",
          "type": "uint32"
        }
      ],
      "name": "NewCampaignIsAdded",
      "type": "event"
    },
    {
      "anonymous": false,
      "inputs": [
        {
          "indexed": false,
          "internalType": "address",
          "name": "owner",
          "type": "address"
        }
      ],
      "name": "OwnerSet",
      "type": "event"
    },
    {
      "anonymous": false,
      "inputs": [
        {
          "indexed": false,
          "internalType": "int256",
          "name": "responseCode",
          "type": "int256"
        }
      ],
      "name": "ResponseCode",
      "type": "event"
    },
    {
      "anonymous": false,
      "inputs": [
        {
          "indexed": false,
          "internalType": "string",
          "name": "campaignAddress",
          "type": "string"
        },
        {
          "indexed": false,
          "internalType": "uint256",
          "name": "totalAmount",
          "type": "uint256"
        },
        {
          "indexed": false,
          "internalType": "uint256",
          "name": "remainingBalance",
          "type": "uint256"
        }
      ],
      "name": "RewardsDistributed",
      "type": "event"
    },
    {
      "anonymous": false,
      "inputs": [
        {
          "indexed": false,
          "internalType": "string",
          "name": "campaignAddress",
          "type": "string"
        },
        {
          "indexed": false,
          "internalType": "uint32",
          "name": "campaignType",
          "type": "uint32"
        }
      ],
      "name": "campaignClosed",
      "type": "event"
    },
    {
      "anonymous": false,
      "inputs": [
        {
          "indexed": false,
          "internalType": "string",
          "name": "campaignAddress",
          "type": "string"
        },
        {
          "indexed": false,
          "internalType": "uint32",
          "name": "campaignType",
          "type": "uint32"
        }
      ],
      "name": "campaignExpired",
      "type": "event"
    },
    {
      "stateMutability": "payable",
      "type": "fallback"
    },
    {
      "inputs": [],
      "name": "FUNGIBLE",
      "outputs": [
        {
          "internalType": "uint32",
          "name": "",
          "type": "uint32"
        }
      ],
      "stateMutability": "view",
      "type": "function"
    },
    {
      "inputs": [],
      "name": "HBAR",
      "outputs": [
        {
          "internalType": "uint32",
          "name": "",
          "type": "uint32"
        }
      ],
      "stateMutability": "view",
      "type": "function"
    },
    {
      "inputs": [],
      "name": "NFT",
      "outputs": [
        {
          "internalType": "uint32",
          "name": "",
          "type": "uint32"
        }
      ],
      "stateMutability": "view",
      "type": "function"
    },
    {
      "inputs": [
        {
          "internalType": "string",
          "name": "campaignAddress",
          "type": "string"
        },
        {
          "internalType": "address",
          "name": "campaigner",
          "type": "address"
        },
        {
          "internalType": "uint256",
          "name": "amount",
          "type": "uint256"
        }
      ],
      "name": "addCampaign",
      "outputs": [
        {
          "internalType": "uint256",
          "name": "",
          "type": "uint256"
        }
      ],
      "stateMutability": "nonpayable",
      "type": "function"
    },
    {
      "inputs": [
        {
          "internalType": "address",
          "name": "newCampaigner",
          "type": "address"
        }
      ],
      "name": "addCampaigner",
      "outputs": [],
      "stateMutability": "nonpayable",
      "type": "function"
    },
    {
      "inputs": [
        {
          "internalType": "address",
          "name": "campaigner",
          "type": "address"
        },
        {
          "internalType": "address",
          "name": "tokenId",
          "type": "address"
        },
        {
          "internalType": "int64",
          "name": "tokenAmount",
          "type": "int64"
        }
      ],
      "name": "addFungibleAmount",
      "outputs": [
        {
          "internalType": "int64",
          "name": "",
          "type": "int64"
        }
      ],
      "stateMutability": "nonpayable",
      "type": "function"
    },
    {
      "inputs": [
        {
          "internalType": "address",
          "name": "tokenId",
          "type": "address"
        },
        {
          "internalType": "string",
          "name": "campaignAddress",
          "type": "string"
        },
        {
          "internalType": "address",
          "name": "campaigner",
          "type": "address"
        },
        {
          "internalType": "int64",
          "name": "tokenAmount",
          "type": "int64"
        }
      ],
      "name": "addFungibleCampaign",
      "outputs": [
        {
          "internalType": "int64",
          "name": "",
          "type": "int64"
        }
      ],
      "stateMutability": "nonpayable",
      "type": "function"
    },
    {
      "inputs": [
        {
          "internalType": "address",
          "name": "tokenId",
          "type": "address"
        },
        {
          "internalType": "string",
          "name": "campaignAddress",
          "type": "string"
        },
        {
          "internalType": "address",
          "name": "campaigner",
          "type": "address"
        },
        {
          "internalType": "int64",
          "name": "tokenAmount",
          "type": "int64"
        }
      ],
      "name": "addNFTCampaign",
      "outputs": [
        {
          "internalType": "int64",
          "name": "",
          "type": "int64"
        }
      ],
      "stateMutability": "nonpayable",
      "type": "function"
    },
    {
      "inputs": [
        {
          "internalType": "address",
          "name": "tokenAddress",
          "type": "address"
        },
        {
          "internalType": "uint32",
          "name": "tokenType",
          "type": "uint32"
        },
        {
          "internalType": "bool",
          "name": "isWhitelisted",
          "type": "bool"
        }
      ],
      "name": "associateToken",
      "outputs": [],
      "stateMutability": "nonpayable",
      "type": "function"
    },
    {
      "inputs": [
        {
          "internalType": "address",
          "name": "",
          "type": "address"
        }
      ],
      "name": "balances",
      "outputs": [
        {
          "internalType": "uint256",
          "name": "",
          "type": "uint256"
        }
      ],
      "stateMutability": "view",
      "type": "function"
    },
    {
      "inputs": [
        {
          "internalType": "string",
          "name": "",
          "type": "string"
        }
      ],
      "name": "campaignBalances",
      "outputs": [
        {
          "internalType": "uint256",
          "name": "",
          "type": "uint256"
        }
      ],
      "stateMutability": "view",
      "type": "function"
    },
    {
      "inputs": [
        {
          "internalType": "string",
          "name": "",
          "type": "string"
        }
      ],
      "name": "campaignRandomNumber",
      "outputs": [
        {
          "internalType": "uint32",
          "name": "",
          "type": "uint32"
        }
      ],
      "stateMutability": "view",
      "type": "function"
    },
    {
      "inputs": [
        {
          "internalType": "string",
          "name": "campaignAddress",
          "type": "string"
        },
        {
          "internalType": "uint256",
          "name": "campaignExpiryTime",
          "type": "uint256"
        }
      ],
      "name": "closeCampaign",
      "outputs": [],
      "stateMutability": "nonpayable",
      "type": "function"
    },
    {
      "inputs": [
        {
          "internalType": "string",
          "name": "campaignAddress",
          "type": "string"
        },
        {
          "internalType": "uint256",
          "name": "campaignExpiryTime",
          "type": "uint256"
        }
      ],
      "name": "closeFungibleCampaign",
      "outputs": [],
      "stateMutability": "nonpayable",
      "type": "function"
    },
    {
      "inputs": [
        {
          "internalType": "string",
          "name": "campaignAddress",
          "type": "string"
        },
        {
          "internalType": "uint256",
          "name": "campaignExpiryTime",
          "type": "uint256"
        }
      ],
      "name": "closeNFTCampaign",
      "outputs": [],
      "stateMutability": "nonpayable",
      "type": "function"
    },
    {
      "inputs": [
        {
          "internalType": "string",
          "name": "campaignAddress",
          "type": "string"
        },
        {
          "internalType": "address",
          "name": "campaigner",
          "type": "address"
        }
      ],
      "name": "expiryCampaign",
      "outputs": [
        {
          "internalType": "uint256",
          "name": "",
          "type": "uint256"
        }
      ],
      "stateMutability": "nonpayable",
      "type": "function"
    },
    {
      "inputs": [
        {
          "internalType": "address",
          "name": "tokenId",
          "type": "address"
        },
        {
          "internalType": "string",
          "name": "campaignAddress",
          "type": "string"
        },
        {
          "internalType": "address",
          "name": "campaigner",
          "type": "address"
        },
        {
          "internalType": "uint32",
          "name": "tokenType",
          "type": "uint32"
        }
      ],
      "name": "expiryFungibleCampaign",
      "outputs": [
        {
          "internalType": "uint64",
          "name": "",
          "type": "uint64"
        }
      ],
      "stateMutability": "nonpayable",
      "type": "function"
    },
    {
      "inputs": [
        {
          "internalType": "uint32",
          "name": "tokenType",
          "type": "uint32"
        }
      ],
      "name": "getAllWhitelistedTokens",
      "outputs": [
        {
          "internalType": "address[]",
          "name": "",
          "type": "address[]"
        }
      ],
      "stateMutability": "view",
      "type": "function"
    },
    {
      "inputs": [
        {
          "internalType": "string",
          "name": "campaignAddress",
          "type": "string"
        }
      ],
      "name": "getCampaignBalance",
      "outputs": [
        {
          "internalType": "uint256",
          "name": "",
          "type": "uint256"
        }
      ],
      "stateMutability": "view",
      "type": "function"
    },
    {
      "inputs": [
        {
          "internalType": "address",
          "name": "campaigner",
          "type": "address"
        },
        {
          "internalType": "address",
          "name": "tokenId",
          "type": "address"
        },
        {
          "internalType": "uint32",
          "name": "tokenType",
          "type": "uint32"
        }
      ],
      "name": "getFungibleTokenBalance",
      "outputs": [
        {
          "internalType": "uint64",
          "name": "res",
          "type": "uint64"
        }
      ],
      "stateMutability": "view",
      "type": "function"
    },
    {
      "inputs": [
        {
          "internalType": "address",
          "name": "campaigner",
          "type": "address"
        },
        {
          "internalType": "address",
          "name": "tokenId",
          "type": "address"
        },
        {
          "internalType": "uint32",
          "name": "tokenType",
          "type": "uint32"
        }
      ],
      "name": "getNFTTokenBalance",
      "outputs": [
        {
          "internalType": "uint64",
          "name": "res",
          "type": "uint64"
        }
      ],
      "stateMutability": "view",
      "type": "function"
    },
    {
      "inputs": [],
      "name": "id",
      "outputs": [
        {
          "internalType": "uint32",
          "name": "",
          "type": "uint32"
        }
      ],
      "stateMutability": "view",
      "type": "function"
    },
    {
      "inputs": [
        {
          "internalType": "uint32",
          "name": "tokenType",
          "type": "uint32"
        },
        {
          "internalType": "address",
          "name": "tokenAddress",
          "type": "address"
        }
      ],
      "name": "isTokenWhitelisted",
      "outputs": [
        {
          "internalType": "bool",
          "name": "",
          "type": "bool"
        }
      ],
      "stateMutability": "view",
      "type": "function"
    },
    {
      "inputs": [
        {
          "internalType": "address",
          "name": "",
          "type": "address"
        }
      ],
      "name": "nftCampaigner",
      "outputs": [
        {
          "internalType": "uint32",
          "name": "",
          "type": "uint32"
        }
      ],
      "stateMutability": "view",
      "type": "function"
    },
    {
      "inputs": [
        {
          "internalType": "address",
          "name": "tokenId",
          "type": "address"
        },
        {
          "internalType": "address",
          "name": "campaigner",
          "type": "address"
        },
        {
          "internalType": "int64",
          "name": "amount",
          "type": "int64"
        },
        {
          "internalType": "uint32",
          "name": "tokenType",
          "type": "uint32"
        }
      ],
      "name": "reimburseBalanceForFungible",
      "outputs": [
        {
          "internalType": "int64",
          "name": "",
          "type": "int64"
        }
      ],
      "stateMutability": "nonpayable",
      "type": "function"
    },
    {
      "inputs": [
        {
          "internalType": "address",
          "name": "",
          "type": "address"
        }
      ],
      "name": "rewardBalances",
      "outputs": [
        {
          "internalType": "uint256",
          "name": "",
          "type": "uint256"
        }
      ],
      "stateMutability": "view",
      "type": "function"
    },
    {
      "inputs": [
        {
          "internalType": "address",
          "name": "campaigner",
          "type": "address"
        },
        {
          "internalType": "string",
          "name": "campaignAddress",
          "type": "string"
        },
        {
          "internalType": "uint256",
          "name": "totalAmount",
          "type": "uint256"
        },
        {
          "internalType": "address[]",
          "name": "receiversAddresses",
          "type": "address[]"
        },
        {
          "internalType": "uint256[]",
          "name": "amounts",
          "type": "uint256[]"
        }
      ],
      "name": "rewardIntractors",
      "outputs": [
        {
          "internalType": "uint256",
          "name": "",
          "type": "uint256"
        }
      ],
      "stateMutability": "nonpayable",
      "type": "function"
    },
    {
      "inputs": [
        {
          "internalType": "address",
          "name": "tokenId",
          "type": "address"
        },
        {
          "internalType": "address",
          "name": "campaigner",
          "type": "address"
        },
        {
          "internalType": "string",
          "name": "campaignAddress",
          "type": "string"
        },
        {
          "internalType": "int64",
          "name": "tokenTotalAmount",
          "type": "int64"
        },
        {
          "internalType": "uint32",
          "name": "tokenType",
          "type": "uint32"
        },
        {
          "internalType": "address[]",
          "name": "receiversAddresses",
          "type": "address[]"
        },
        {
          "internalType": "uint256[]",
          "name": "amounts",
          "type": "uint256[]"
        }
      ],
      "name": "rewardIntractorsWithFungible",
      "outputs": [
        {
          "internalType": "uint256",
          "name": "",
          "type": "uint256"
        }
      ],
      "stateMutability": "nonpayable",
      "type": "function"
    },
    {
      "inputs": [
        {
          "internalType": "address",
          "name": "",
          "type": "address"
        },
        {
          "internalType": "address",
          "name": "",
          "type": "address"
        },
        {
          "internalType": "uint256",
          "name": "",
          "type": "uint256"
        }
      ],
      "name": "rewardTokenBalances",
      "outputs": [
        {
          "internalType": "uint64",
          "name": "",
          "type": "uint64"
        }
      ],
      "stateMutability": "view",
      "type": "function"
    },
    {
      "inputs": [
        {
          "internalType": "address",
          "name": "",
          "type": "address"
        },
        {
          "internalType": "address",
          "name": "",
          "type": "address"
        },
        {
          "internalType": "uint256",
          "name": "",
          "type": "uint256"
        }
      ],
      "name": "tokenBalances",
      "outputs": [
        {
          "internalType": "uint64",
          "name": "",
          "type": "uint64"
        }
      ],
      "stateMutability": "view",
      "type": "function"
    },
    {
      "inputs": [
        {
          "internalType": "string",
          "name": "",
          "type": "string"
        },
        {
          "internalType": "address",
          "name": "",
          "type": "address"
        },
        {
          "internalType": "uint256",
          "name": "",
          "type": "uint256"
        }
      ],
      "name": "tokenCampaignBalances",
      "outputs": [
        {
          "internalType": "uint64",
          "name": "",
          "type": "uint64"
        }
      ],
      "stateMutability": "view",
      "type": "function"
    },
    {
      "inputs": [
        {
          "internalType": "address",
          "name": "campaigner",
          "type": "address"
        },
        {
          "internalType": "uint256",
          "name": "amount",
          "type": "uint256"
        },
        {
          "internalType": "bool",
          "name": "deposit",
          "type": "bool"
        }
      ],
      "name": "updateBalance",
      "outputs": [
        {
          "internalType": "uint256",
          "name": "",
          "type": "uint256"
        }
      ],
      "stateMutability": "nonpayable",
      "type": "function"
    },
    {
      "inputs": [
        {
          "internalType": "uint32",
          "name": "",
          "type": "uint32"
        },
        {
          "internalType": "address",
          "name": "",
          "type": "address"
        }
      ],
      "name": "whitelistedToken",
      "outputs": [
        {
          "internalType": "bool",
          "name": "",
          "type": "bool"
        }
      ],
      "stateMutability": "view",
      "type": "function"
    },
    {
      "stateMutability": "payable",
      "type": "receive"
    }
  ],
  "bytecode": "0x6080604052600d805463ffffffff1916600117905534801561002057600080fd5b50600080546001600160a01b031916339081179091556040519081527f50146d0e3c60aa1d17a70635b05494f864e86144a2201275021014fbf08bafe29060200160405180910390a16138f3806100786000396000f3fe6080604052600436106101d95760003560e01c8063774256c711610101578063bc4627001161009a578063cdde46c81161006c578063cdde46c814610693578063cfe3f9a8146106b3578063d84c0e27146106f1578063e9de133e14610711578063f4ff52ae1461073157005b8063bc46270014610606578063bde81c0b14610626578063bff3199614610646578063c1cde80c1461066657005b8063af640d0f116100d3578063af640d0f14610576578063b0959c3114610593578063b4666130146105b3578063bc3ef1e9146105d357005b8063774256c7146104ff5780637c0b8de21461051457806393c8dc6d14610529578063a7c7b1821461055657005b80634377e3ff116101735780636124ec26116101455780636124ec261461047f578063715d83181461049f578063734247e4146104bf5780637422ce61146104df57005b80634377e3ff146103dd57806349b03340146104075780634a3b1152146104275780634f18230d1461044757005b806331c83d3f116101ac57806331c83d3f146102f85780633262af541461032b578063362e34b91461037257806341228803146103bd57005b8062540521146101e257806305346ac51461025657806327e235e314610276578063307869dd146102b157005b366101e057005b005b3480156101ee57600080fd5b506102396101fd366004612f7b565b8251602081850181018051600982529282019582019590952091909452835260009182526040808320909352815220546001600160401b031681565b6040516001600160401b0390911681526020015b60405180910390f35b34801561026257600080fd5b50610239610271366004612fe5565b610751565b34801561028257600080fd5b506102a3610291366004613028565b60026020526000908152604090205481565b60405190815260200161024d565b3480156102bd57600080fd5b506102396102cc36600461304a565b60066020908152600093845260408085208252928452828420905282529020546001600160401b031681565b34801561030457600080fd5b50610318610313366004613088565b610816565b60405160079190910b815260200161024d565b34801561033757600080fd5b5061023961034636600461304a565b60076020908152600093845260408085208252928452828420905282529020546001600160401b031681565b34801561037e57600080fd5b506103ad61038d3660046130f6565b600460209081526000928352604080842090915290825290205460ff1681565b604051901515815260200161024d565b3480156103c957600080fd5b506102a36103d8366004613139565b610b7c565b3480156103e957600080fd5b506103f2600181565b60405163ffffffff909116815260200161024d565b34801561041357600080fd5b506102a361042236600461325c565b610cab565b34801561043357600080fd5b506102a3610442366004613326565b61117c565b34801561045357600080fd5b506102a3610462366004613326565b805160208183018101805160088252928201919093012091525481565b34801561048b57600080fd5b5061031861049a366004613362565b6111dd565b3480156104ab57600080fd5b506102a36104ba366004612f7b565b6113b0565b3480156104cb57600080fd5b506103186104da3660046133ab565b611521565b3480156104eb57600080fd5b506101e06104fa3660046133e5565b6116ce565b34801561050b57600080fd5b506103f2600081565b34801561052057600080fd5b506103f2600281565b34801561053557600080fd5b506102a3610544366004613028565b60036020526000908152604090205481565b34801561056257600080fd5b506102a3610571366004613429565b61189a565b34801561058257600080fd5b50600d546103f29063ffffffff1681565b34801561059f57600080fd5b506102a36105ae36600461346d565b611aec565b3480156105bf57600080fd5b506101e06105ce3660046133e5565b611e59565b3480156105df57600080fd5b506103f26105ee366004613028565b600b6020526000908152604090205463ffffffff1681565b34801561061257600080fd5b506101e06106213660046133e5565b612005565b34801561063257600080fd5b506101e061064136600461350f565b6121c5565b34801561065257600080fd5b506101e0610661366004613028565b6124b2565b34801561067257600080fd5b50610686610681366004613549565b6125c9565b60405161024d9190613564565b34801561069f57600080fd5b506103186106ae366004613088565b612693565b3480156106bf57600080fd5b506103f26106ce366004613326565b8051602081830181018051600e8252928201919093012091525463ffffffff1681565b3480156106fd57600080fd5b5061023961070c366004612fe5565b6128f8565b34801561071d57600080fd5b5061023961072c3660046135b1565b6129fb565b34801561073d57600080fd5b506103ad61074c3660046130f6565b612d21565b600080546001600160a01b031633148061076f575061076f33612d54565b6107945760405162461bcd60e51b815260040161078b90613606565b60405180910390fd5b6040805180820190915260048152632298189b60e11b602082015263ffffffff83166002146107d65760405162461bcd60e51b815260040161078b91906136bd565b5050506001600160a01b0391821660009081526006602090815260408083209390941682529182528281206002825290915220546001600160401b031690565b600080546001600160a01b031633146108415760405162461bcd60e51b815260040161078b906136d0565b61084c600186612d21565b604051806040016040528060048152602001634530303560e01b815250906108875760405162461bcd60e51b815260040161078b91906136bd565b506000845111604051806040016040528060048152602001632298181960e11b815250906108c85760405162461bcd60e51b815260040161078b91906136bd565b506108d283612d54565b604051806040016040528060048152602001634530303360e01b8152509061090d5760405162461bcd60e51b815260040161078b91906136bd565b5060008260070b13604051806040016040528060048152602001634530313160e01b815250906109505760405162461bcd60e51b815260040161078b91906136bd565b506001600160a01b038084166000908152600660209081526040808320938916835292815282822060018352815290829020548251808401909352600483526308a6060760e31b918301919091528391906001600160401b03808416911610156109cd5760405162461bcd60e51b815260040161078b91906136bd565b506009856040516109de9190613725565b9081526040805191829003602090810183206001600160a01b038a1660009081529082528281206001825282528290205483830190925260048352634530303760e01b908301526001600160401b031615610a4c5760405162461bcd60e51b815260040161078b91906136bd565b506001600160a01b038085166000908152600660209081526040808320938a1683529281528282206001835290529081208054839290610a969084906001600160401b0316613757565b92506101000a8154816001600160401b0302191690836001600160401b0316021790555080600986604051610acb9190613725565b90815260408051602092819003830181206001600160a01b038b811660008181529286528483206001808552908752858420805467ffffffffffffffff19166001600160401b03998a16179055918b1683526006865284832090835285528382208183529094529190912054909216917f0674090a69c67762650abcd64d1bc896d06756b85c925a9f28e97a30487db3ae91610b6a918991869161377e565b60405180910390a19695505050505050565b600080546001600160a01b03163314610ba75760405162461bcd60e51b815260040161078b906136d0565b6040805180820190915260048152632298181960e11b60208201526001600160a01b038516610be95760405162461bcd60e51b815260040161078b91906136bd565b50610bf384612d54565b604051806040016040528060048152602001634530303360e01b81525090610c2e5760405162461bcd60e51b815260040161078b91906136bd565b508115610c4457610c3f8484612d72565b610c4e565b610c4e8484612dde565b6001600160a01b038416600081815260026020908152604091829020548251938452908301819052917f8ad64a0ac7700dd8425ab0499f107cb6e2cd1581d803c5b8c1c79dcb8190b1af91015b60405180910390a1949350505050565b600080546001600160a01b03163314610cd65760405162461bcd60e51b815260040161078b906136d0565b610ce08489612d21565b604051806040016040528060048152602001634530303560e01b81525090610d1b5760405162461bcd60e51b815260040161078b91906136bd565b50610d2587612d54565b604051806040016040528060048152602001634530303360e01b81525090610d605760405162461bcd60e51b815260040161078b91906136bd565b506000865111604051806040016040528060048152602001632298181960e11b81525090610da15760405162461bcd60e51b815260040161078b91906136bd565b5060008560070b13604051806040016040528060048152602001634530313160e01b81525090610de45760405162461bcd60e51b815260040161078b91906136bd565b50600c86604051610df59190613725565b90815260408051918290036020908101832063ffffffff88166000908152908252829020548383019092526004835263114c0c0d60e21b9083015260ff16610e505760405162461bcd60e51b815260040161078b91906136bd565b508151835114604051806040016040528060048152602001632298189960e11b81525090610e915760405162461bcd60e51b815260040161078b91906136bd565b506000805b8351811015610ed857838181518110610eb157610eb16137b6565b602002602001015182610ec491906137cc565b915080610ed0816137df565b915050610e96565b50600987604051610ee99190613725565b9081526040805191829003602090810183206001600160a01b038d16600090815290825282812063ffffffff8a16825282528290205483830190925260048352634530313360e01b908301526001600160401b0316821115610f5e5760405162461bcd60e51b815260040161078b91906136bd565b5080600988604051610f709190613725565b90815260408051602092819003830190206001600160a01b038d16600090815290835281812063ffffffff8a16825290925281208054909190610fbd9084906001600160401b0316613757565b92506101000a8154816001600160401b0302191690836001600160401b0316021790555060005b84518110156110e3576000858281518110611001576110016137b6565b60200260200101519050600085838151811061101f5761101f6137b6565b602002602001015190508060076000846001600160a01b03166001600160a01b0316815260200190815260200160002060008e6001600160a01b03166001600160a01b0316815260200190815260200160002060008a63ffffffff16815260200190815260200160002060008282829054906101000a90046001600160401b03166110aa91906137f8565b92506101000a8154816001600160401b0302191690836001600160401b03160217905550505080806110db906137df565b915050610fe4565b5060006009886040516110f69190613725565b9081526040805191829003602090810183206001600160a01b038e16600090815290825282812063ffffffff8b16825290915220546001600160401b031691507f037378c439105dd07d1db6d59a47347ea8f734a0835509a3820255c8be11cea090611167908a9085908590613818565b60405180910390a19998505050505050505050565b600080546001600160a01b031633148061119a575061119a33612d54565b6111b65760405162461bcd60e51b815260040161078b90613606565b6008826040516111c69190613725565b90815260200160405180910390205490505b919050565b600080546001600160a01b031633146112085760405162461bcd60e51b815260040161078b906136d0565b6040805180820190915260048152634530313560e01b602082015263ffffffff831660011461124a5760405162461bcd60e51b815260040161078b91906136bd565b506001600160a01b038085166000908152600660209081526040808320938916835292815282822060018352815290829020548251808401909352600483526308a6060760e31b918301919091526001600160401b03808616911610156112c45760405162461bcd60e51b815260040161078b91906136bd565b506001600160a01b0380851660009081526006602090815260408083209389168352928152828220600183529052908120805485929061130e9084906001600160401b0316613757565b82546101009290920a6001600160401b038181021990931691831602179091556001600160a01b038681166000818152600660209081526040808320948c1680845294825280832060018452825291829020548251938452908301939093529190921690820181905291507f2fa1a54f364a5a61a29da95bf0632455b2fb41ab6434ad448e6432058203bffc906060015b60405180910390a195945050505050565b600080546001600160a01b031633146113db5760405162461bcd60e51b815260040161078b906136d0565b6113e483612d54565b604051806040016040528060048152602001634530303360e01b8152509061141f5760405162461bcd60e51b815260040161078b91906136bd565b508160026000856001600160a01b03166001600160a01b031681526020019081526020016000205410156040518060400160405280600481526020016308a6060760e31b815250906114845760405162461bcd60e51b815260040161078b91906136bd565b506001600160a01b038316600090815260026020526040812080548492906114ad90849061383d565b92505081905550816008856040516114c59190613725565b9081526040805160209281900383018120939093556001600160a01b03861660009081526002909252812054917f0674090a69c67762650abcd64d1bc896d06756b85c925a9f28e97a30487db3ae91610c9b9188918791613850565b600080546001600160a01b0316331461154c5760405162461bcd60e51b815260040161078b906136d0565b61155584612d54565b604051806040016040528060048152602001634530303360e01b815250906115905760405162461bcd60e51b815260040161078b91906136bd565b506001600160a01b038085166000908152600660209081526040808320938716835292815282822060018352905290812080548492906115da9084906001600160401b03166137f8565b92506101000a8154816001600160401b0302191690836001600160401b031602179055507fc7a2e037ca848c5f8478afbc374474f095ffe9245e2b0e5deccc07b623e4eb73848360405161164c9291906001600160a01b039290921682526001600160401b0316602082015260400190565b60405180910390a16001600160a01b03848116600081815260066020908152604080832094881680845294825280832060018452825291829020548251938452908301939093526001600160401b039092169181018290527f2fa1a54f364a5a61a29da95bf0632455b2fb41ab6434ad448e6432058203bffc90606001610c9b565b6000546001600160a01b031633146116f85760405162461bcd60e51b815260040161078b906136d0565b6000825111604051806040016040528060048152602001632298181960e11b815250906117385760405162461bcd60e51b815260040161078b91906136bd565b506040805180820190915260048152630453031360e41b6020820152816117725760405162461bcd60e51b815260040161078b91906136bd565b50600c826040516117839190613725565b90815260408051918290036020908101832060026000908152908252829020548383019092526004835263114c0c4d60e21b9083015260ff16156117da5760405162461bcd60e51b815260040161078b91906136bd565b506001600c836040516117ed9190613725565b90815260408051602092819003830190206002600090815292529020805460ff191691151591909117905561182281426137cc565b600a836040516118329190613725565b90815260200160405180910390206000600263ffffffff168152602001908152602001600020819055507ffda0e6502dae3d85195083e39efa0c8bdccc7d5741b53cf5c57de0c33dc9aaa482600260405161188e92919061387f565b60405180910390a15050565b600080546001600160a01b031633146118c55760405162461bcd60e51b815260040161078b906136d0565b6000835111604051806040016040528060048152602001632298181960e11b815250906119055760405162461bcd60e51b815260040161078b91906136bd565b5061190f82612d54565b604051806040016040528060048152602001634530303360e01b8152509061194a5760405162461bcd60e51b815260040161078b91906136bd565b50600a8360405161195b9190613725565b9081526040805191829003602090810183206000808052908252829020548383019092526004835263114c0c0d60e21b9083015242116119ae5760405162461bcd60e51b815260040161078b91906136bd565b50600c836040516119bf9190613725565b9081526040805191829003602090810183206000808052908252829020548383019092526004835263114c0c0d60e21b9083015260ff16611a135760405162461bcd60e51b815260040161078b91906136bd565b50600883604051611a249190613725565b90815260200160405180910390205460026000846001600160a01b03166001600160a01b031681526020019081526020016000206000828254611a6791906137cc565b925050819055506000600884604051611a809190613725565b908152604080519182900360209081018320939093556001600160a01b03851660009081526002909352822054917f2a4a396795b36662ffe9a398a57fd654cf6ea95e79cf6d96d6f0267685687c3991611adb91879161387f565b60405180910390a190505b92915050565b600080546001600160a01b03163314611b175760405162461bcd60e51b815260040161078b906136d0565b611b2086612d54565b604051806040016040528060048152602001634530303360e01b81525090611b5b5760405162461bcd60e51b815260040161078b91906136bd565b506000855111604051806040016040528060048152602001632298181960e11b81525090611b9c5760405162461bcd60e51b815260040161078b91906136bd565b506040805180820190915260048152634530313160e01b602082015284611bd65760405162461bcd60e51b815260040161078b91906136bd565b50600c85604051611be79190613725565b9081526040805191829003602090810183206000808052908252829020548383019092526004835263114c0c0d60e21b9083015260ff16611c3b5760405162461bcd60e51b815260040161078b91906136bd565b508151835114604051806040016040528060048152602001632298189960e11b81525090611c7c5760405162461bcd60e51b815260040161078b91906136bd565b506000805b8351811015611cc357838181518110611c9c57611c9c6137b6565b602002602001015182611caf91906137cc565b915080611cbb816137df565b915050611c81565b50600886604051611cd49190613725565b908152602001604051809103902054811115604051806040016040528060048152602001634530313360e01b81525090611d215760405162461bcd60e51b815260040161078b91906136bd565b5080600887604051611d339190613725565b90815260200160405180910390206000828254611d50919061383d565b90915550600090505b8451811015611def576000858281518110611d7657611d766137b6565b602002602001015190506000858381518110611d9457611d946137b6565b602002602001015190508060036000846001600160a01b03166001600160a01b031681526020019081526020016000206000828254611dd391906137cc565b9250508190555050508080611de7906137df565b915050611d59565b506000600887604051611e029190613725565b90815260200160405180910390205490507f037378c439105dd07d1db6d59a47347ea8f734a0835509a3820255c8be11cea0878383604051611e4693929190613818565b60405180910390a1979650505050505050565b6000546001600160a01b03163314611e835760405162461bcd60e51b815260040161078b906136d0565b6000825111604051806040016040528060048152602001632298181960e11b81525090611ec35760405162461bcd60e51b815260040161078b91906136bd565b506040805180820190915260048152630453031360e41b602082015281611efd5760405162461bcd60e51b815260040161078b91906136bd565b50600c82604051611f0e9190613725565b9081526040805191829003602090810183206000808052908252829020548383019092526004835263114c0c4d60e21b9083015260ff1615611f635760405162461bcd60e51b815260040161078b91906136bd565b506001600c83604051611f769190613725565b9081526040805160209281900383019020600080805292529020805460ff1916911515919091179055611fa981426137cc565b600a83604051611fb99190613725565b908152604080516020928190038301812060008080529352908220929092557ffda0e6502dae3d85195083e39efa0c8bdccc7d5741b53cf5c57de0c33dc9aaa49161188e91859161387f565b6000546001600160a01b0316331461202f5760405162461bcd60e51b815260040161078b906136d0565b6000825111604051806040016040528060048152602001632298181960e11b8152509061206f5760405162461bcd60e51b815260040161078b91906136bd565b506040805180820190915260048152630453031360e41b6020820152816120a95760405162461bcd60e51b815260040161078b91906136bd565b50600c826040516120ba9190613725565b90815260408051918290036020908101832060016000908152908252829020548383019092526004835263114c0c4d60e21b9083015260ff16156121115760405162461bcd60e51b815260040161078b91906136bd565b506001600c836040516121249190613725565b90815260408051602092819003830190206001600090815292529020805460ff191691151591909117905561215981426137cc565b600a836040516121699190613725565b90815260200160405180910390206000600163ffffffff168152602001908152602001600020819055507ffda0e6502dae3d85195083e39efa0c8bdccc7d5741b53cf5c57de0c33dc9aaa482600160405161188e92919061387f565b6000546001600160a01b031633146121ef5760405162461bcd60e51b815260040161078b906136d0565b63ffffffff82166001148061220a575063ffffffff82166002145b604051806040016040528060048152602001632298189b60e11b815250906122455760405162461bcd60e51b815260040161078b91906136bd565b5080801561227d575063ffffffff821660009081526004602090815260408083206001600160a01b038716845290915290205460ff16155b156122e5575063ffffffff1660008181526004602090815260408083206001600160a01b0395909516808452948252808320805460ff1916600190811790915593835260058252822080549384018155825290200180546001600160a01b0319169091179055565b8015801561231c575063ffffffff821660009081526004602090815260408083206001600160a01b038716845290915290205460ff165b156124ad5763ffffffff821660008181526004602090815260408083206001600160a01b03881684528252808320805460ff191690559282526005905290812054905b818110156124aa5763ffffffff8416600090815260056020526040902080546001600160a01b03871691908390811061239a5761239a6137b6565b6000918252602090912001546001600160a01b0316036124985763ffffffff841660009081526005602052604090206123d460018461383d565b815481106123e4576123e46137b6565b600091825260208083209091015463ffffffff871683526005909152604090912080546001600160a01b039092169183908110612423576124236137b6565b600091825260208083209190910180546001600160a01b0319166001600160a01b03949094169390931790925563ffffffff86168152600590915260409020805480612471576124716138a7565b600082815260209020810160001990810180546001600160a01b03191690550190556124aa565b806124a2816137df565b91505061235f565b50505b505050565b6000546001600160a01b031633146124dc5760405162461bcd60e51b815260040161078b906136d0565b6040805180820190915260048152632298181960e11b60208201526001600160a01b03821661251e5760405162461bcd60e51b815260040161078b91906136bd565b5061252881612d54565b15604051806040016040528060048152602001632298181b60e11b815250906125645760405162461bcd60e51b815260040161078b91906136bd565b506001600160a01b0381166000818152600160208181526040808420805460ff19169093179092556002815281832092909255519182527f3d04fb94919fdfa7708320cdebdf093992d88d792b3d5f4144c364cda00129c6910160405180910390a150565b606063ffffffff8216600114806125e6575063ffffffff82166002145b604051806040016040528060048152602001632298189b60e11b815250906126215760405162461bcd60e51b815260040161078b91906136bd565b5063ffffffff82166000908152600560209081526040918290208054835181840281018401909452808452909183018282801561268757602002820191906000526020600020905b81546001600160a01b03168152600190910190602001808311612669575b50505050509050919050565b600080546001600160a01b031633146126be5760405162461bcd60e51b815260040161078b906136d0565b6126c9600286612d21565b604051806040016040528060048152602001634530303560e01b815250906127045760405162461bcd60e51b815260040161078b91906136bd565b506000845111604051806040016040528060048152602001632298181960e11b815250906127455760405162461bcd60e51b815260040161078b91906136bd565b5061274f83612d54565b604051806040016040528060048152602001634530303360e01b8152509061278a5760405162461bcd60e51b815260040161078b91906136bd565b5060008260070b13604051806040016040528060048152602001634530313160e01b815250906127cd5760405162461bcd60e51b815260040161078b91906136bd565b506001600160a01b038084166000908152600660209081526040808320938916835292815282822060028352815290829020548251808401909352600483526308a6060760e31b918301919091526001600160401b03808516911610156128475760405162461bcd60e51b815260040161078b91906136bd565b50816009856040516128599190613725565b90815260408051602092819003830181206001600160a01b038a811660008181529286528483206002808552908752858420805467ffffffffffffffff19166001600160401b03998a16179055918a1683526006865284832090835285528382208183529094529190912054909216917f0674090a69c67762650abcd64d1bc896d06756b85c925a9f28e97a30487db3ae9161139f918891879161377e565b600080546001600160a01b0316331480612916575061291633612d54565b6129325760405162461bcd60e51b815260040161078b90613606565b6040805180820190915260048152634530313560e01b602082015263ffffffff83166001146129745760405162461bcd60e51b815260040161078b91906136bd565b50612980600184612d21565b604051806040016040528060048152602001634530303560e01b815250906129bb5760405162461bcd60e51b815260040161078b91906136bd565b5050506001600160a01b0391821660009081526006602090815260408083209390941682529182528281206001825290915220546001600160401b031690565b600080546001600160a01b03163314612a265760405162461bcd60e51b815260040161078b906136d0565b6040805180820190915260048152634530303160e01b60208201526001600160a01b038616612a685760405162461bcd60e51b815260040161078b91906136bd565b506000845111604051806040016040528060048152602001632298181960e11b81525090612aa95760405162461bcd60e51b815260040161078b91906136bd565b50612ab383612d54565b604051806040016040528060048152602001634530303360e01b81525090612aee5760405162461bcd60e51b815260040161078b91906136bd565b50600c84604051612aff9190613725565b90815260408051918290036020908101832063ffffffff86166000908152908252829020548383019092526004835263114c0c0d60e21b9083015260ff16612b5a5760405162461bcd60e51b815260040161078b91906136bd565b50600a84604051612b6b9190613725565b90815260408051918290036020908101832063ffffffff86166000908152908252829020548383019092526004835263114c0c0d60e21b908301524211612bc55760405162461bcd60e51b815260040161078b91906136bd565b50600984604051612bd69190613725565b90815260408051602092819003830190206001600160a01b03888116600081815292855283832063ffffffff88168085529086528484205492891684526006865284842091845290855283832090835290935290812080546001600160401b0393841693919291612c49918591166137f8565b92506101000a8154816001600160401b0302191690836001600160401b031602179055506000600985604051612c7f9190613725565b90815260408051602092819003830181206001600160a01b038a8116600081815292865284832063ffffffff8a16808552908752858420805467ffffffffffffffff19166001600160401b03998a16179055918a168352600686528483209083528552838220908252909352912054909116907f2a4a396795b36662ffe9a398a57fd654cf6ea95e79cf6d96d6f0267685687c399061139f908790869061387f565b63ffffffff821660009081526004602090815260408083206001600160a01b038516845290915290205460ff1692915050565b6001600160a01b031660009081526001602052604090205460ff1690565b6001600160a01b03821660009081526002602052604081208054839290612d9a9084906137cc565b9091555050604080516001600160a01b0384168152602081018390527f543ba50a5eec5e6178218e364b1d0f396157b3c8fa278522c2cb7fd99407d474910161188e565b8060026000846001600160a01b03166001600160a01b031681526020019081526020016000205410156040518060400160405280600481526020016308a6060760e31b81525090612e425760405162461bcd60e51b815260040161078b91906136bd565b506001600160a01b03821660009081526002602052604081208054839290612e6b90849061383d565b9091555050604080516001600160a01b0384168152602081018390527feaff4b37086828766ad3268786972c0cd24259d4c87a80f9d3963a3c3d999b0d910161188e565b634e487b7160e01b600052604160045260246000fd5b604051601f8201601f191681016001600160401b0381118282101715612eed57612eed612eaf565b604052919050565b600082601f830112612f0657600080fd5b81356001600160401b03811115612f1f57612f1f612eaf565b612f32601f8201601f1916602001612ec5565b818152846020838601011115612f4757600080fd5b816020850160208301376000918101602001919091529392505050565b80356001600160a01b03811681146111d857600080fd5b600080600060608486031215612f9057600080fd5b83356001600160401b03811115612fa657600080fd5b612fb286828701612ef5565b935050612fc160208501612f64565b9150604084013590509250925092565b803563ffffffff811681146111d857600080fd5b600080600060608486031215612ffa57600080fd5b61300384612f64565b925061301160208501612f64565b915061301f60408501612fd1565b90509250925092565b60006020828403121561303a57600080fd5b61304382612f64565b9392505050565b60008060006060848603121561305f57600080fd5b61306884612f64565b9250612fc160208501612f64565b8035600781900b81146111d857600080fd5b6000806000806080858703121561309e57600080fd5b6130a785612f64565b935060208501356001600160401b038111156130c257600080fd5b6130ce87828801612ef5565b9350506130dd60408601612f64565b91506130eb60608601613076565b905092959194509250565b6000806040838503121561310957600080fd5b61311283612fd1565b915061312060208401612f64565b90509250929050565b803580151581146111d857600080fd5b60008060006060848603121561314e57600080fd5b61315784612f64565b92506020840135915061301f60408501613129565b60006001600160401b0382111561318557613185612eaf565b5060051b60200190565b600082601f8301126131a057600080fd5b813560206131b56131b08361316c565b612ec5565b82815260059290921b840181019181810190868411156131d457600080fd5b8286015b848110156131f6576131e981612f64565b83529183019183016131d8565b509695505050505050565b600082601f83011261321257600080fd5b813560206132226131b08361316c565b82815260059290921b8401810191818101908684111561324157600080fd5b8286015b848110156131f65780358352918301918301613245565b600080600080600080600060e0888a03121561327757600080fd5b61328088612f64565b965061328e60208901612f64565b955060408801356001600160401b03808211156132aa57600080fd5b6132b68b838c01612ef5565b96506132c460608b01613076565b95506132d260808b01612fd1565b945060a08a01359150808211156132e857600080fd5b6132f48b838c0161318f565b935060c08a013591508082111561330a57600080fd5b506133178a828b01613201565b91505092959891949750929550565b60006020828403121561333857600080fd5b81356001600160401b0381111561334e57600080fd5b61335a84828501612ef5565b949350505050565b6000806000806080858703121561337857600080fd5b61338185612f64565b935061338f60208601612f64565b925061339d60408601613076565b91506130eb60608601612fd1565b6000806000606084860312156133c057600080fd5b6133c984612f64565b92506133d760208501612f64565b915061301f60408501613076565b600080604083850312156133f857600080fd5b82356001600160401b0381111561340e57600080fd5b61341a85828601612ef5565b95602094909401359450505050565b6000806040838503121561343c57600080fd5b82356001600160401b0381111561345257600080fd5b61345e85828601612ef5565b92505061312060208401612f64565b600080600080600060a0868803121561348557600080fd5b61348e86612f64565b945060208601356001600160401b03808211156134aa57600080fd5b6134b689838a01612ef5565b95506040880135945060608801359150808211156134d357600080fd5b6134df89838a0161318f565b935060808801359150808211156134f557600080fd5b5061350288828901613201565b9150509295509295909350565b60008060006060848603121561352457600080fd5b61352d84612f64565b925061353b60208501612fd1565b915061301f60408501613129565b60006020828403121561355b57600080fd5b61304382612fd1565b6020808252825182820181905260009190848201906040850190845b818110156135a55783516001600160a01b031683529284019291840191600101613580565b50909695505050505050565b600080600080608085870312156135c757600080fd5b6135d085612f64565b935060208501356001600160401b038111156135eb57600080fd5b6135f787828801612ef5565b93505061339d60408601612f64565b60208082526041908201527f556e617574686f72697a6520416363657373207265717565737465642c20436160408201527f6c6c6572206d757374206265206f776e6572206f722063616d706169676e65726060820152601760f91b608082015260a00190565b60005b83811015613688578181015183820152602001613670565b50506000910152565b600081518084526136a981602086016020860161366d565b601f01601f19169290920160200192915050565b6020815260006130436020830184613691565b60208082526035908201527f556e617574686f72697a6520416363657373207265717565737465642c204361604082015274363632b91034b9903737ba103a34329037bbb732b960591b606082015260800190565b6000825161373781846020870161366d565b9190910192915050565b634e487b7160e01b600052601160045260246000fd5b6001600160401b0382811682821603908082111561377757613777613741565b5092915050565b6060815260006137916060830186613691565b90506001600160401b038416602083015263ffffffff83166040830152949350505050565b634e487b7160e01b600052603260045260246000fd5b80820180821115611ae657611ae6613741565b6000600182016137f1576137f1613741565b5060010190565b6001600160401b0381811683821601908082111561377757613777613741565b60608152600061382b6060830186613691565b60208301949094525060400152919050565b81810381811115611ae657611ae6613741565b6060815260006138636060830186613691565b905083602083015263ffffffff83166040830152949350505050565b6040815260006138926040830185613691565b905063ffffffff831660208301529392505050565b634e487b7160e01b600052603160045260246000fdfea26469706673582212207cc43c709536f1abf72e447e7078cca8a5a4b038356b396f1f865995e7cbbd8364736f6c63430008110033",
  "immutableReferences": {},
  "source": "// SPDX-License-Identifier: Apache-2.0\r\npragma solidity ^0.8.17;\r\n\r\nimport \"./HashbuzzModules/HashbuzzStates.sol\";\r\nimport \"./HashbuzzModules/Utils.sol\";\r\nimport \"./HashbuzzModules/CampaignLifecycle.sol\";\r\nimport \"./HashbuzzModules/Transactions.sol\";\r\n\r\ncontract HashbuzzV201 is HashbuzzStates, Utils, Lifecycle, Transactions {\r\n    constructor() {\r\n        owner = msg.sender;\r\n        emit OwnerSet(owner);\r\n    }\r\n\r\n    receive() external payable {}\r\n    fallback() external payable {}\r\n}\r\n",
  "sourcePath": "D:\\rajatk\\hashbuzz-staging\\smv201\\contracts\\HashbuzzV201.sol",
  "compiler": {
    "name": "solc",
    "version": "0.8.17+commit.8df45f5f.Emscripten.clang"
  },
  "schemaVersion": "3.4.16",
  "updatedAt": "2024-10-30T16:12:23.952Z",
  "devdoc": {
    "kind": "dev",
    "methods": {
      "addCampaign(string,address,uint256)": {
        "details": "Add a new campaign",
        "params": {
          "amount": "The amount to be allocated to the campaign from the campaigner's balance.",
          "campaignAddress": "The db address of the campaign",
          "campaigner": "The solidity address of the campaigner or wallet address"
        }
      },
      "addCampaigner(address)": {
        "details": "Whitelist cmapigner to the user.",
        "params": {
          "newCampaigner": "Address of the user having campaigner role to be used here"
        }
      },
      "addFungibleAmount(address,address,int64)": {
        "details": "Fungible token added to the campaigner account.",
        "params": {
          "campaigner": "Address soliduty address",
          "tokenAmount": "amount added to the cmapaigner account",
          "tokenId": "Address tokenId solidity address"
        }
      },
      "addFungibleCampaign(address,string,address,int64)": {
        "details": "Add a new campaign for fungible tokens",
        "params": {
          "campaignAddress": "The db address of the campaign [string]",
          "campaigner": "The solidity address of the campaigner or wallet address",
          "tokenAmount": "The amount of tokens to be allocated to the campaign",
          "tokenId": "The address of the token in solidity format"
        }
      },
      "addNFTCampaign(address,string,address,int64)": {
        "details": "Add a new campaign for NFT tokens",
        "params": {
          "campaignAddress": "The db address of the campaign [string]",
          "campaigner": "The solidity address of the campaigner or wallet address",
          "tokenAmount": "The amount of tokens to be allocated to the campaign",
          "tokenId": "The address of the token in solidity format"
        }
      },
      "associateToken(address,uint32,bool)": {
        "details": "Adds or removes a token from the whitelist.",
        "params": {
          "isWhitelisted": "Boolean flag to mark the token as whitelisted or not.",
          "tokenAddress": "The address of the token.",
          "tokenType": "The type of the token (1 for FUNGIBLE, 2 for NFT)."
        }
      },
      "closeCampaign(string,uint256)": {
        "details": "Close a campaign with HBAR",
        "params": {
          "campaignAddress": "The db address of the campaign",
          "campaignExpiryTime": "The expiry time of the campaign in seconds"
        }
      },
      "closeFungibleCampaign(string,uint256)": {
        "details": "Close a campaign with fungible tokens",
        "params": {
          "campaignAddress": "The db address of the campaign",
          "campaignExpiryTime": "The expiry time of the campaign in seconds"
        }
      },
      "closeNFTCampaign(string,uint256)": {
        "details": "Close a campaign with NFT tokens",
        "params": {
          "campaignAddress": "The db address of the campaign",
          "campaignExpiryTime": "The expiry time of the campaign in seconds"
        }
      },
      "expiryCampaign(string,address)": {
        "details": "Expiry a campaign with HBAR",
        "params": {
          "campaignAddress": "The db address of the campaign",
          "campaigner": "The solidity address of the campaigner or wallet address"
        }
      },
      "expiryFungibleCampaign(address,string,address,uint32)": {
        "details": "Expiry a campaign with fungible and NFT tokens",
        "params": {
          "campaignAddress": "The db address of the campaign",
          "campaigner": "The solidity address of the campaigner or wallet address",
          "tokenId": "The address of the token in solidity format",
          "tokenType": "The type of the token (FUNGIBLE or NFT) [uint32] (1 for FUNGIBLE & 2 for NFT)"
        }
      },
      "getAllWhitelistedTokens(uint32)": {
        "details": "Retrieves all whitelisted addresses for a given token type.",
        "params": {
          "tokenType": "The type of the token (1 for FUNGIBLE, 2 for NFT)."
        },
        "returns": {
          "_0": "An array of addresses that are whitelisted for the given token type."
        }
      },
      "getCampaignBalance(string)": {
        "details": "Balance holded by the user to see.",
        "params": {
          "campaignAddress": "Solidity address of the campaigner."
        }
      },
      "getFungibleTokenBalance(address,address,uint32)": {
        "params": {
          "campaigner": "Address of the campaigner'solidity address",
          "tokenId": "Solidity address used for the account",
          "tokenType": "The type of the token (FUNGIBLE or NFT) [uint32] (1 for FUNGIBLE & 2 for NFT)"
        }
      },
      "getNFTTokenBalance(address,address,uint32)": {
        "details": "Balance holded by the user to see.",
        "params": {
          "campaigner": "Solidity address of the campaigner.",
          "tokenId": "Solidity address of the token.",
          "tokenType": "The type of the token (FUNGIBLE or NFT) [uint32] (1 for FUNGIBLE & 2 for NFT)                  1 for FUNGIBLE and 2 for NFT."
        }
      },
      "isTokenWhitelisted(uint32,address)": {
        "details": "Checks if a specific token address is whitelisted for a given token type.",
        "params": {
          "tokenAddress": "The address of the token to check.",
          "tokenType": "The type of the token (1 for FUNGIBLE, 2 for NFT)."
        },
        "returns": {
          "_0": "Boolean flag indicating if the token is whitelisted."
        }
      },
      "reimburseBalanceForFungible(address,address,int64,uint32)": {
        "details": "This is function used for the  Reimbersing the cmapaigner balance",
        "params": {
          "amount": "Total amount campaigner wanted to reinverse",
          "campaigner": "Campainer Address",
          "tokenId": "Token solidity address",
          "tokenType": "The type of the token (FUNGIBLE or NFT) [uint32] (1 for FUNGIBLE & 2 for NFT)"
        }
      },
      "rewardIntractors(address,string,uint256,address[],uint256[])": {
        "details": "Distribute HBAR tokens to the campaigner",
        "params": {
          "amounts": "The amounts to be distributed to each receiver",
          "campaignAddress": "The db address of the campaign",
          "campaigner": "The solidity address of the campaigner or wallet address",
          "receiversAddresses": "The addresses of the receivers take max 50 addresses in one call",
          "totalAmount": "The total amount of tokens to be distributed"
        }
      },
      "rewardIntractorsWithFungible(address,address,string,int64,uint32,address[],uint256[])": {
        "details": "Distribute fungible tokens to the campaigner",
        "params": {
          "amounts": "The amounts to be distributed to each receiver",
          "campaignAddress": "The db address of the campaign",
          "campaigner": "The solidity address of the campaigner or wallet address",
          "receiversAddresses": "The addresses of the receivers take max 50 addresses in one call",
          "tokenId": "The address of the token in solidity format",
          "tokenTotalAmount": "The total amount of tokens to be distributed",
          "tokenType": "The type of the token (FUNGIBLE or NFT)"
        }
      },
      "updateBalance(address,uint256,bool)": {
        "details": "Topup and reimbersement cases",
        "params": {
          "amount": "Amount being topuped",
          "campaigner": "campaigner solidity address",
          "deposit": "Boolean is here"
        }
      }
    },
    "version": 1
  },
  "userdoc": {
    "kind": "user",
    "methods": {},
    "version": 1
  }
}