{
  "contractName": "HashbuzzV201",
  "abi": [
    {
      "inputs": [],
      "stateMutability": "nonpayable",
      "type": "constructor"
    },
    {
      "anonymous": false,
      "inputs": [
        {
          "indexed": false,
          "internalType": "address",
          "name": "campaigner",
          "type": "address"
        },
        {
          "indexed": false,
          "internalType": "uint256",
          "name": "updatedBalance",
          "type": "uint256"
        }
      ],
      "name": "BalanceUpdated",
      "type": "event"
    },
    {
      "anonymous": false,
      "inputs": [
        {
          "indexed": false,
          "internalType": "address",
          "name": "campaigner",
          "type": "address"
        }
      ],
      "name": "CampaignerAdded",
      "type": "event"
    },
    {
      "anonymous": false,
      "inputs": [
        {
          "indexed": false,
          "internalType": "address",
          "name": "campaigner",
          "type": "address"
        }
      ],
      "name": "CampaignerDeleted",
      "type": "event"
    },
    {
      "anonymous": false,
      "inputs": [
        {
          "indexed": false,
          "internalType": "address",
          "name": "tokenAddress",
          "type": "address"
        }
      ],
      "name": "CreatedToken",
      "type": "event"
    },
    {
      "anonymous": false,
      "inputs": [
        {
          "indexed": false,
          "internalType": "address",
          "name": "campaigner",
          "type": "address"
        },
        {
          "indexed": false,
          "internalType": "uint256",
          "name": "amount",
          "type": "uint256"
        }
      ],
      "name": "FundsDeposited",
      "type": "event"
    },
    {
      "anonymous": false,
      "inputs": [
        {
          "indexed": false,
          "internalType": "address",
          "name": "campaigner",
          "type": "address"
        },
        {
          "indexed": false,
          "internalType": "uint256",
          "name": "amount",
          "type": "uint256"
        }
      ],
      "name": "FundsWithdrawn",
      "type": "event"
    },
    {
      "anonymous": false,
      "inputs": [
        {
          "indexed": false,
          "internalType": "address",
          "name": "campaigner",
          "type": "address"
        },
        {
          "indexed": false,
          "internalType": "address",
          "name": "tokenId",
          "type": "address"
        },
        {
          "indexed": false,
          "internalType": "uint64",
          "name": "updatedBalance",
          "type": "uint64"
        }
      ],
      "name": "FungibleTokenBalanceUpdated",
      "type": "event"
    },
    {
      "anonymous": false,
      "inputs": [
        {
          "indexed": false,
          "internalType": "address",
          "name": "campaigner",
          "type": "address"
        },
        {
          "indexed": false,
          "internalType": "uint64",
          "name": "amount",
          "type": "uint64"
        }
      ],
      "name": "FungibleTokenDeposited",
      "type": "event"
    },
    {
      "anonymous": false,
      "inputs": [
        {
          "indexed": false,
          "internalType": "address",
          "name": "interactor",
          "type": "address"
        },
        {
          "indexed": false,
          "internalType": "address",
          "name": "campaigner",
          "type": "address"
        },
        {
          "indexed": false,
          "internalType": "uint256",
          "name": "amount",
          "type": "uint256"
        }
      ],
      "name": "InteractorPaid",
      "type": "event"
    },
    {
      "anonymous": false,
      "inputs": [
        {
          "indexed": false,
          "internalType": "string",
          "name": "campaignAddress",
          "type": "string"
        },
        {
          "indexed": false,
          "internalType": "uint256",
          "name": "amount",
          "type": "uint256"
        }
      ],
      "name": "InteractorPaidDeferred",
      "type": "event"
    },
    {
      "anonymous": false,
      "inputs": [
        {
          "indexed": false,
          "internalType": "string",
          "name": "campaignAdddress",
          "type": "string"
        },
        {
          "indexed": false,
          "internalType": "uint256",
          "name": "amount",
          "type": "uint256"
        },
        {
          "indexed": false,
          "internalType": "uint32",
          "name": "campaignType",
          "type": "uint32"
        }
      ],
      "name": "NewCampaignIsAdded",
      "type": "event"
    },
    {
      "anonymous": false,
      "inputs": [
        {
          "indexed": false,
          "internalType": "address",
          "name": "owner",
          "type": "address"
        }
      ],
      "name": "OwnerSet",
      "type": "event"
    },
    {
      "anonymous": false,
      "inputs": [
        {
          "indexed": false,
          "internalType": "int256",
          "name": "responseCode",
          "type": "int256"
        }
      ],
      "name": "ResponseCode",
      "type": "event"
    },
    {
      "anonymous": false,
      "inputs": [
        {
          "indexed": false,
          "internalType": "string",
          "name": "campaignAddress",
          "type": "string"
        },
        {
          "indexed": false,
          "internalType": "uint32",
          "name": "campaignType",
          "type": "uint32"
        }
      ],
      "name": "campaignClosed",
      "type": "event"
    },
    {
      "anonymous": false,
      "inputs": [
        {
          "indexed": false,
          "internalType": "string",
          "name": "campaignAddress",
          "type": "string"
        },
        {
          "indexed": false,
          "internalType": "uint32",
          "name": "campaignType",
          "type": "uint32"
        }
      ],
      "name": "campaignExpired",
      "type": "event"
    },
    {
      "stateMutability": "payable",
      "type": "fallback"
    },
    {
      "inputs": [],
      "name": "FUNGIBLE",
      "outputs": [
        {
          "internalType": "uint32",
          "name": "",
          "type": "uint32"
        }
      ],
      "stateMutability": "view",
      "type": "function"
    },
    {
      "inputs": [],
      "name": "HBAR",
      "outputs": [
        {
          "internalType": "uint32",
          "name": "",
          "type": "uint32"
        }
      ],
      "stateMutability": "view",
      "type": "function"
    },
    {
      "inputs": [],
      "name": "NFT",
      "outputs": [
        {
          "internalType": "uint32",
          "name": "",
          "type": "uint32"
        }
      ],
      "stateMutability": "view",
      "type": "function"
    },
    {
      "inputs": [
        {
          "internalType": "string",
          "name": "campaignAddress",
          "type": "string"
        },
        {
          "internalType": "address",
          "name": "campaigner",
          "type": "address"
        },
        {
          "internalType": "uint256",
          "name": "amount",
          "type": "uint256"
        }
      ],
      "name": "addCampaign",
      "outputs": [],
      "stateMutability": "nonpayable",
      "type": "function"
    },
    {
      "inputs": [
        {
          "internalType": "address",
          "name": "newCampaigner",
          "type": "address"
        }
      ],
      "name": "addCampaigner",
      "outputs": [],
      "stateMutability": "nonpayable",
      "type": "function"
    },
    {
      "inputs": [
        {
          "internalType": "address",
          "name": "campaigner",
          "type": "address"
        },
        {
          "internalType": "address",
          "name": "tokenId",
          "type": "address"
        },
        {
          "internalType": "int64",
          "name": "tokenAmount",
          "type": "int64"
        }
      ],
      "name": "addFungibleAmount",
      "outputs": [
        {
          "internalType": "int64",
          "name": "",
          "type": "int64"
        }
      ],
      "stateMutability": "nonpayable",
      "type": "function"
    },
    {
      "inputs": [
        {
          "internalType": "address",
          "name": "tokenId",
          "type": "address"
        },
        {
          "internalType": "string",
          "name": "campaignAddress",
          "type": "string"
        },
        {
          "internalType": "address",
          "name": "campaigner",
          "type": "address"
        },
        {
          "internalType": "int64",
          "name": "tokenAmount",
          "type": "int64"
        },
        {
          "internalType": "uint32",
          "name": "tokenType",
          "type": "uint32"
        }
      ],
      "name": "addFungibleAndNFTCampaign",
      "outputs": [],
      "stateMutability": "nonpayable",
      "type": "function"
    },
    {
      "inputs": [
        {
          "internalType": "address",
          "name": "tokenAddress",
          "type": "address"
        },
        {
          "internalType": "uint32",
          "name": "tokenType",
          "type": "uint32"
        },
        {
          "internalType": "bool",
          "name": "isWhitelisted",
          "type": "bool"
        }
      ],
      "name": "associateToken",
      "outputs": [],
      "stateMutability": "nonpayable",
      "type": "function"
    },
    {
      "inputs": [
        {
          "internalType": "address",
          "name": "",
          "type": "address"
        }
      ],
      "name": "balances",
      "outputs": [
        {
          "internalType": "uint256",
          "name": "",
          "type": "uint256"
        }
      ],
      "stateMutability": "view",
      "type": "function"
    },
    {
      "inputs": [
        {
          "internalType": "string",
          "name": "",
          "type": "string"
        }
      ],
      "name": "campaignBalances",
      "outputs": [
        {
          "internalType": "uint256",
          "name": "",
          "type": "uint256"
        }
      ],
      "stateMutability": "view",
      "type": "function"
    },
    {
      "inputs": [
        {
          "internalType": "string",
          "name": "",
          "type": "string"
        }
      ],
      "name": "campaignRandomNumber",
      "outputs": [
        {
          "internalType": "uint32",
          "name": "",
          "type": "uint32"
        }
      ],
      "stateMutability": "view",
      "type": "function"
    },
    {
      "inputs": [
        {
          "internalType": "string",
          "name": "campaignAddress",
          "type": "string"
        },
        {
          "internalType": "uint256",
          "name": "campaignExpiryTime",
          "type": "uint256"
        }
      ],
      "name": "closeCampaign",
      "outputs": [],
      "stateMutability": "nonpayable",
      "type": "function"
    },
    {
      "inputs": [
        {
          "internalType": "string",
          "name": "campaignAddress",
          "type": "string"
        },
        {
          "internalType": "uint256",
          "name": "campaignExpiryTime",
          "type": "uint256"
        },
        {
          "internalType": "uint32",
          "name": "tokenType",
          "type": "uint32"
        }
      ],
      "name": "closeFungibleAndNFTCampaign",
      "outputs": [],
      "stateMutability": "nonpayable",
      "type": "function"
    },
    {
      "inputs": [
        {
          "internalType": "address",
          "name": "campaigner",
          "type": "address"
        },
        {
          "internalType": "string",
          "name": "campaignAddress",
          "type": "string"
        },
        {
          "internalType": "uint256",
          "name": "totalAmount",
          "type": "uint256"
        },
        {
          "internalType": "address[]",
          "name": "receiversAddresses",
          "type": "address[]"
        },
        {
          "internalType": "uint256[]",
          "name": "amounts",
          "type": "uint256[]"
        }
      ],
      "name": "distributeBalance",
      "outputs": [],
      "stateMutability": "nonpayable",
      "type": "function"
    },
    {
      "inputs": [
        {
          "internalType": "address",
          "name": "tokenId",
          "type": "address"
        },
        {
          "internalType": "address",
          "name": "campaigner",
          "type": "address"
        },
        {
          "internalType": "string",
          "name": "campaignAddress",
          "type": "string"
        },
        {
          "internalType": "int64",
          "name": "tokenTotalAmount",
          "type": "int64"
        },
        {
          "internalType": "uint32",
          "name": "tokenType",
          "type": "uint32"
        },
        {
          "internalType": "address[]",
          "name": "receiversAddresses",
          "type": "address[]"
        },
        {
          "internalType": "uint256[]",
          "name": "amounts",
          "type": "uint256[]"
        }
      ],
      "name": "distributeFungible",
      "outputs": [],
      "stateMutability": "nonpayable",
      "type": "function"
    },
    {
      "inputs": [
        {
          "internalType": "string",
          "name": "campaignAddress",
          "type": "string"
        },
        {
          "internalType": "address",
          "name": "campaigner",
          "type": "address"
        }
      ],
      "name": "expiryCampaign",
      "outputs": [],
      "stateMutability": "nonpayable",
      "type": "function"
    },
    {
      "inputs": [
        {
          "internalType": "address",
          "name": "tokenId",
          "type": "address"
        },
        {
          "internalType": "string",
          "name": "campaignAddress",
          "type": "string"
        },
        {
          "internalType": "address",
          "name": "campaigner",
          "type": "address"
        },
        {
          "internalType": "uint32",
          "name": "tokenType",
          "type": "uint32"
        }
      ],
      "name": "expiryFungibleCampaign",
      "outputs": [],
      "stateMutability": "nonpayable",
      "type": "function"
    },
    {
      "inputs": [
        {
          "internalType": "uint32",
          "name": "tokenType",
          "type": "uint32"
        }
      ],
      "name": "getAllWhitelistedTokens",
      "outputs": [
        {
          "internalType": "address[]",
          "name": "",
          "type": "address[]"
        }
      ],
      "stateMutability": "view",
      "type": "function"
    },
    {
      "inputs": [
        {
          "internalType": "string",
          "name": "campaignAddress",
          "type": "string"
        }
      ],
      "name": "getCampaignBalance",
      "outputs": [
        {
          "internalType": "uint256",
          "name": "",
          "type": "uint256"
        }
      ],
      "stateMutability": "view",
      "type": "function"
    },
    {
      "inputs": [
        {
          "internalType": "address",
          "name": "campaigner",
          "type": "address"
        },
        {
          "internalType": "address",
          "name": "tokenId",
          "type": "address"
        },
        {
          "internalType": "uint32",
          "name": "tokenType",
          "type": "uint32"
        }
      ],
      "name": "getFungibleTokenBalance",
      "outputs": [
        {
          "internalType": "uint64",
          "name": "res",
          "type": "uint64"
        }
      ],
      "stateMutability": "view",
      "type": "function"
    },
    {
      "inputs": [
        {
          "internalType": "address",
          "name": "campaigner",
          "type": "address"
        },
        {
          "internalType": "address",
          "name": "tokenId",
          "type": "address"
        },
        {
          "internalType": "uint32",
          "name": "tokenType",
          "type": "uint32"
        }
      ],
      "name": "getNFTTokenBalance",
      "outputs": [
        {
          "internalType": "uint64",
          "name": "res",
          "type": "uint64"
        }
      ],
      "stateMutability": "view",
      "type": "function"
    },
    {
      "inputs": [],
      "name": "id",
      "outputs": [
        {
          "internalType": "uint32",
          "name": "",
          "type": "uint32"
        }
      ],
      "stateMutability": "view",
      "type": "function"
    },
    {
      "inputs": [
        {
          "internalType": "uint32",
          "name": "tokenType",
          "type": "uint32"
        },
        {
          "internalType": "address",
          "name": "tokenAddress",
          "type": "address"
        }
      ],
      "name": "isTokenWhitelisted",
      "outputs": [
        {
          "internalType": "bool",
          "name": "",
          "type": "bool"
        }
      ],
      "stateMutability": "view",
      "type": "function"
    },
    {
      "inputs": [
        {
          "internalType": "address",
          "name": "",
          "type": "address"
        }
      ],
      "name": "nftCampaigner",
      "outputs": [
        {
          "internalType": "uint32",
          "name": "",
          "type": "uint32"
        }
      ],
      "stateMutability": "view",
      "type": "function"
    },
    {
      "inputs": [
        {
          "internalType": "address",
          "name": "tokenId",
          "type": "address"
        },
        {
          "internalType": "address",
          "name": "campaigner",
          "type": "address"
        },
        {
          "internalType": "int64",
          "name": "amount",
          "type": "int64"
        },
        {
          "internalType": "uint32",
          "name": "tokenType",
          "type": "uint32"
        }
      ],
      "name": "reimburseBalanceForFungible",
      "outputs": [
        {
          "internalType": "int64",
          "name": "",
          "type": "int64"
        }
      ],
      "stateMutability": "nonpayable",
      "type": "function"
    },
    {
      "inputs": [
        {
          "internalType": "address",
          "name": "",
          "type": "address"
        }
      ],
      "name": "rewardBalances",
      "outputs": [
        {
          "internalType": "uint256",
          "name": "",
          "type": "uint256"
        }
      ],
      "stateMutability": "view",
      "type": "function"
    },
    {
      "inputs": [
        {
          "internalType": "address",
          "name": "",
          "type": "address"
        },
        {
          "internalType": "address",
          "name": "",
          "type": "address"
        },
        {
          "internalType": "uint256",
          "name": "",
          "type": "uint256"
        }
      ],
      "name": "rewardTokenBalances",
      "outputs": [
        {
          "internalType": "uint64",
          "name": "",
          "type": "uint64"
        }
      ],
      "stateMutability": "view",
      "type": "function"
    },
    {
      "inputs": [
        {
          "internalType": "address",
          "name": "",
          "type": "address"
        },
        {
          "internalType": "address",
          "name": "",
          "type": "address"
        },
        {
          "internalType": "uint256",
          "name": "",
          "type": "uint256"
        }
      ],
      "name": "tokenBalances",
      "outputs": [
        {
          "internalType": "uint64",
          "name": "",
          "type": "uint64"
        }
      ],
      "stateMutability": "view",
      "type": "function"
    },
    {
      "inputs": [
        {
          "internalType": "string",
          "name": "",
          "type": "string"
        },
        {
          "internalType": "address",
          "name": "",
          "type": "address"
        },
        {
          "internalType": "uint256",
          "name": "",
          "type": "uint256"
        }
      ],
      "name": "tokenCampaignBalances",
      "outputs": [
        {
          "internalType": "uint64",
          "name": "",
          "type": "uint64"
        }
      ],
      "stateMutability": "view",
      "type": "function"
    },
    {
      "inputs": [
        {
          "internalType": "address",
          "name": "campaigner",
          "type": "address"
        },
        {
          "internalType": "uint256",
          "name": "amount",
          "type": "uint256"
        },
        {
          "internalType": "bool",
          "name": "deposit",
          "type": "bool"
        }
      ],
      "name": "updateBalance",
      "outputs": [
        {
          "internalType": "uint256",
          "name": "",
          "type": "uint256"
        }
      ],
      "stateMutability": "nonpayable",
      "type": "function"
    },
    {
      "inputs": [
        {
          "internalType": "uint32",
          "name": "",
          "type": "uint32"
        },
        {
          "internalType": "address",
          "name": "",
          "type": "address"
        }
      ],
      "name": "whitelistedToken",
      "outputs": [
        {
          "internalType": "bool",
          "name": "",
          "type": "bool"
        }
      ],
      "stateMutability": "view",
      "type": "function"
    },
    {
      "stateMutability": "payable",
      "type": "receive"
    }
  ],
  "bytecode": "0x6080604052600d805463ffffffff1916600117905534801561002057600080fd5b50600080546001600160a01b031916339081179091556040519081527f50146d0e3c60aa1d17a70635b05494f864e86144a2201275021014fbf08bafe29060200160405180910390a16134b8806100786000396000f3fe6080604052600436106101c35760003560e01c8063734247e4116100f6578063bc3ef1e91161008f578063cfe3f9a811610061578063cfe3f9a81461065d578063d84c0e271461069b578063e9de133e146106bb578063f4ff52ae146106db57005b8063bc3ef1e9146105bd578063bde81c0b146105f0578063bff3199614610610578063c1cde80c1461063057005b806393c8dc6d116100c857806393c8dc6d14610533578063a7c7b18214610560578063af640d0f14610580578063b46661301461059d57005b8063734247e4146104c9578063774256c7146104e95780637c0b8de2146104fe57806387ac3ee71461051357005b806341228803116101685780636124ec261161013a5780636124ec261461043657806365f775631461046957806370f13b7c14610489578063715d8318146104a957005b806341228803146103945780634377e3ff146103b45780634a3b1152146103de5780634f18230d146103fe57005b8063307869dd116101a1578063307869dd1461029b5780633262af54146102e25780633468160314610329578063362e34b91461034957005b8062540521146101cc57806305346ac51461024057806327e235e31461026057005b366101ca57005b005b3480156101d857600080fd5b506102236101e7366004612963565b8251602081850181018051600982529282019582019590952091909452835260009182526040808320909352815220546001600160401b031681565b6040516001600160401b0390911681526020015b60405180910390f35b34801561024c57600080fd5b5061022361025b3660046129cd565b6106fb565b34801561026c57600080fd5b5061028d61027b366004612a10565b60026020526000908152604090205481565b604051908152602001610237565b3480156102a757600080fd5b506102236102b6366004612a32565b60066020908152600093845260408085208252928452828420905282529020546001600160401b031681565b3480156102ee57600080fd5b506102236102fd366004612a32565b60076020908152600093845260408085208252928452828420905282529020546001600160401b031681565b34801561033557600080fd5b506101ca610344366004612b60565b6107c6565b34801561035557600080fd5b50610384610364366004612c2a565b600460209081526000928352604080842090915290825290205460ff1681565b6040519015158152602001610237565b3480156103a057600080fd5b5061028d6103af366004612c6d565b610add565b3480156103c057600080fd5b506103c9600181565b60405163ffffffff9091168152602001610237565b3480156103ea57600080fd5b5061028d6103f9366004612ca0565b610bff565b34801561040a57600080fd5b5061028d610419366004612ca0565b805160208183018101805160088252928201919093012091525481565b34801561044257600080fd5b50610456610451366004612cdc565b610c60565b60405160079190910b8152602001610237565b34801561047557600080fd5b506101ca610484366004612d30565b610e5f565b34801561049557600080fd5b506101ca6104a4366004612d7d565b611142565b3480156104b557600080fd5b506101ca6104c4366004612963565b611444565b3480156104d557600080fd5b506104566104e4366004612e1f565b611551565b3480156104f557600080fd5b506103c9600081565b34801561050a57600080fd5b506103c9600281565b34801561051f57600080fd5b506101ca61052e366004612e59565b61170e565b34801561053f57600080fd5b5061028d61054e366004612a10565b60036020526000908152604090205481565b34801561056c57600080fd5b506101ca61057b366004612ed8565b611b10565b34801561058c57600080fd5b50600d546103c99063ffffffff1681565b3480156105a957600080fd5b506101ca6105b8366004612f1c565b611cf5565b3480156105c957600080fd5b506103c96105d8366004612a10565b600b6020526000908152604090205463ffffffff1681565b3480156105fc57600080fd5b506101ca61060b366004612f60565b611e7c565b34801561061c57600080fd5b506101ca61062b366004612a10565b612141565b34801561063c57600080fd5b5061065061064b366004612f9a565b61224b565b6040516102379190612fb5565b34801561066957600080fd5b506103c9610678366004612ca0565b8051602081830181018051600e8252928201919093012091525463ffffffff1681565b3480156106a757600080fd5b506102236106b63660046129cd565b6122f5565b3480156106c757600080fd5b506101ca6106d6366004613002565b61241e565b3480156106e757600080fd5b506103846106f6366004612c2a565b6126f1565b600080546001600160a01b0316331480610719575061071933612725565b61073e5760405162461bcd60e51b815260040161073590613057565b60405180910390fd5b63ffffffff82166002146107875760405162461bcd60e51b815260206004820152601060248201526f151bdad95b881a5cc81b9bdd0813919560821b6044820152606401610735565b50506001600160a01b0391821660009081526006602090815260408083209390941682529182528281206002825290915220546001600160401b031690565b6000546001600160a01b031633146107f05760405162461bcd60e51b8152600401610735906130be565b6107fa83886126f1565b61083e5760405162461bcd60e51b8152602060048201526015602482015274151bdad95b881b9bdd081dda1a5d195b1a5cdd1959605a1b6044820152606401610735565b61084786612725565b6108635760405162461bcd60e51b815260040161073590613113565b60008551116108845760405162461bcd60e51b81526004016107359061314a565b60008460070b136108a75760405162461bcd60e51b815260040161073590613181565b600c856040516108b791906131eb565b908152604080516020928190038301902063ffffffff86166000908152925290205460ff166108f85760405162461bcd60e51b815260040161073590613207565b8360098660405161090991906131eb565b90815260408051602092819003830190206001600160a01b038b16600090815290835281812063ffffffff88168252909252812080549091906109569084906001600160401b031661324d565b92506101000a8154816001600160401b0302191690836001600160401b0316021790555060005b8251811015610ad357600083828151811061099a5761099a613274565b6020026020010151905060008383815181106109b8576109b8613274565b6020908102919091018101516001600160a01b038085166000908152600784526040808220928f16825291845281812063ffffffff8b1682529093528220549092506001600160401b03169003610a4c576001600160a01b038083166000908152600760209081526040808320938e16835292815282822063ffffffff8a168352905220805467ffffffffffffffff191690555b6001600160a01b038083166000908152600760209081526040808320938e16835292815282822063ffffffff8a16835290529081208054839290610a9a9084906001600160401b031661328a565b92506101000a8154816001600160401b0302191690836001600160401b0316021790555050508080610acb906132aa565b91505061097d565b5050505050505050565b600080546001600160a01b03163314610b085760405162461bcd60e51b8152600401610735906130be565b6001600160a01b038416610b2e5760405162461bcd60e51b8152600401610735906132c3565b610b3784612725565b610b835760405162461bcd60e51b815260206004820152601860248201527f43616d706169676e6572206973206e6f74206c697374656400000000000000006044820152606401610735565b8115610b9857610b938484612743565b610ba2565b610ba284846127af565b6001600160a01b038416600081815260026020908152604091829020548251938452908301819052917f8ad64a0ac7700dd8425ab0499f107cb6e2cd1581d803c5b8c1c79dcb8190b1af91015b60405180910390a1949350505050565b600080546001600160a01b0316331480610c1d5750610c1d33612725565b610c395760405162461bcd60e51b815260040161073590613057565b600882604051610c4991906131eb565b90815260200160405180910390205490505b919050565b600080546001600160a01b03163314610c8b5760405162461bcd60e51b8152600401610735906130be565b63ffffffff8216600114610cd95760405162461bcd60e51b8152602060048201526015602482015274546f6b656e206973206e6f742066756e6769626c6560581b6044820152606401610735565b6001600160a01b038085166000908152600660209081526040808320938916835292815282822060018352905220546001600160401b0380851691161015610d755760405162461bcd60e51b815260206004820152602960248201527f496e73756666696369656e742066756e642072657175657374656420666f72206044820152687265696d627572736560b81b6064820152608401610735565b6001600160a01b03808516600090815260066020908152604080832093891683529281528282206001835290529081208054859290610dbe9084906001600160401b031661324d565b82546101009290920a6001600160401b038181021990931691831602179091556001600160a01b038681166000818152600660209081526040808320948c1680845294825280832060018452825291829020548251938452908301939093529190921690820181905291507f2fa1a54f364a5a61a29da95bf0632455b2fb41ab6434ad448e6432058203bffc9060600160405180910390a195945050505050565b6000546001600160a01b03163314610e895760405162461bcd60e51b8152600401610735906130be565b6000835111610eaa5760405162461bcd60e51b81526004016107359061314a565b60008211610efa5760405162461bcd60e51b815260206004820152601c60248201527f496e76616c69642063616d706169676e206578706972792074696d65000000006044820152606401610735565b60001963ffffffff82160161101657600c83604051610f1991906131eb565b908152604080516020928190038301902060016000908152925290205460ff1615610f565760405162461bcd60e51b8152600401610735906132fa565b6001600c84604051610f6891906131eb565b90815260408051602092819003830190206001600090815292529020805460ff1916911515919091179055610f9d8242613331565b600a84604051610fad91906131eb565b90815260200160405180910390206000600163ffffffff168152602001908152602001600020819055507ffda0e6502dae3d85195083e39efa0c8bdccc7d5741b53cf5c57de0c33dc9aaa4836001604051611009929190613370565b60405180910390a1505050565b60011963ffffffff82160161112557600c8360405161103591906131eb565b908152604080516020928190038301902060026000908152925290205460ff16156110725760405162461bcd60e51b8152600401610735906132fa565b6001600c8460405161108491906131eb565b90815260408051602092819003830190206002600090815292529020805460ff19169115159190911790556110b98242613331565b600a846040516110c991906131eb565b90815260200160405180910390206000600263ffffffff168152602001908152602001600020819055507ffda0e6502dae3d85195083e39efa0c8bdccc7d5741b53cf5c57de0c33dc9aaa4836002604051611009929190613370565b60405162461bcd60e51b815260040161073590613398565b505050565b6000546001600160a01b0316331461116c5760405162461bcd60e51b8152600401610735906130be565b61117585612725565b6111915760405162461bcd60e51b815260040161073590613113565b60008451116111b25760405162461bcd60e51b81526004016107359061314a565b600083116112115760405162461bcd60e51b815260206004820152602660248201527f546f74616c20616d6f756e74206d7573742062652067726561746572207468616044820152656e207a65726f60d01b6064820152608401610735565b600c8460405161122191906131eb565b90815260408051602092819003830190206000808052925290205460ff1661125b5760405162461bcd60e51b815260040161073590613207565b80518251146112ac5760405162461bcd60e51b815260206004820152601760248201527f4d69736d61746368656420696e707574206172726179730000000000000000006044820152606401610735565b826008856040516112bd91906131eb565b90815260200160405180910390205410156113355760405162461bcd60e51b815260206004820152603260248201527f496e73756666696369656e742063616d706169676e2062616c616e636520746f60448201527108191a5cdd1c9a589d5d1948185b5bdd5b9d60721b6064820152608401610735565b8260088560405161134691906131eb565b9081526020016040518091039020600082825461136391906133c4565b90915550600090505b825181101561143c57600083828151811061138957611389613274565b6020026020010151905060008383815181106113a7576113a7613274565b6020026020010151905060036000836001600160a01b03166001600160a01b03168152602001908152602001600020546000036113f8576001600160a01b0382166000908152600360205260408120555b6001600160a01b03821660009081526003602052604081208054839290611420908490613331565b9250508190555050508080611434906132aa565b91505061136c565b505050505050565b6000546001600160a01b0316331461146e5760405162461bcd60e51b8152600401610735906130be565b61147782612725565b6114935760405162461bcd60e51b815260040161073590613113565b6001600160a01b0382166000908152600260205260409020548111156114cb5760405162461bcd60e51b8152600401610735906133d7565b6001600160a01b038216600090815260026020526040812080548392906114f39084906133c4565b925050819055508060088460405161150b91906131eb565b9081526020016040518091039020819055507f0674090a69c67762650abcd64d1bc896d06756b85c925a9f28e97a30487db3ae8382600060405161100993929190613405565b600080546001600160a01b0316331461157c5760405162461bcd60e51b8152600401610735906130be565b61158584612725565b6115d15760405162461bcd60e51b815260206004820152601960248201527f43616d706169676e6572206973206e6f74206c69737465642e000000000000006044820152606401610735565b6001600160a01b0380851660009081526006602090815260408083209387168352928152828220600183529052908120805484929061161a9084906001600160401b031661328a565b92506101000a8154816001600160401b0302191690836001600160401b031602179055507fc7a2e037ca848c5f8478afbc374474f095ffe9245e2b0e5deccc07b623e4eb73848360405161168c9291906001600160a01b039290921682526001600160401b0316602082015260400190565b60405180910390a16001600160a01b03848116600081815260066020908152604080832094881680845294825280832060018452825291829020548251938452908301939093526001600160401b039092169181018290527f2fa1a54f364a5a61a29da95bf0632455b2fb41ab6434ad448e6432058203bffc90606001610bef565b6000546001600160a01b031633146117385760405162461bcd60e51b8152600401610735906130be565b61174281866126f1565b61178e5760405162461bcd60e51b815260206004820152601f60248201527f4861736862757a7a3a20546f6b656e206e6f742077686974656c6973746564006044820152606401610735565b60008451116117af5760405162461bcd60e51b81526004016107359061314a565b6117b883612725565b6117d45760405162461bcd60e51b815260040161073590613113565b60008260070b136117f75760405162461bcd60e51b815260040161073590613181565b60001963ffffffff821601611a05576001600160a01b0380841660009081526006602090815260408083209389168352928152828220600183529052205482906001600160401b03808316911610156118625760405162461bcd60e51b8152600401610735906133d7565b60098560405161187291906131eb565b90815260408051602092819003830190206001600160a01b0389166000908152908352818120600182529092529020546001600160401b0316156118f85760405162461bcd60e51b815260206004820152601b60248201527f43757272656e742062616c616e6365206973206e6f6e2d7a65726f00000000006044820152606401610735565b6001600160a01b038085166000908152600660209081526040808320938a16835292815282822060018352905290812080548392906119419084906001600160401b031661324d565b92506101000a8154816001600160401b0302191690836001600160401b031602179055508060098660405161197691906131eb565b90815260408051602092819003830181206001600160a01b038b1660009081529084528281206001808352945291909120805467ffffffffffffffff19166001600160401b0394909416939093179092557f0674090a69c67762650abcd64d1bc896d06756b85c925a9f28e97a30487db3ae916119f7918891859190613434565b60405180910390a150611b09565b60011963ffffffff821601611125576001600160a01b038084166000908152600660209081526040808320938916835292815282822060028352905220546001600160401b0380841691161015611a6e5760405162461bcd60e51b8152600401610735906133d7565b81600985604051611a7f91906131eb565b90815260408051602092819003830181206001600160a01b038a1660009081529084528281206002808352945291909120805467ffffffffffffffff19166001600160401b0394909416939093179092557f0674090a69c67762650abcd64d1bc896d06756b85c925a9f28e97a30487db3ae91611b00918791869190613434565b60405180910390a15b5050505050565b6000546001600160a01b03163314611b3a5760405162461bcd60e51b8152600401610735906130be565b6000825111611b5b5760405162461bcd60e51b81526004016107359061314a565b6001600160a01b038116611b815760405162461bcd60e51b8152600401610735906132c3565b600a82604051611b9191906131eb565b9081526040805160209281900383019020600080805292529020544211611bef5760405162461bcd60e51b815260206004820152601260248201527110d85b5c185a59db881b9bdd08195b99195960721b6044820152606401610735565b600c82604051611bff91906131eb565b90815260408051602092819003830190206000808052925290205460ff16611c395760405162461bcd60e51b815260040161073590613207565b600882604051611c4991906131eb565b90815260200160405180910390205460026000836001600160a01b03166001600160a01b031681526020019081526020016000206000828254611c8c9190613331565b925050819055506000600883604051611ca591906131eb565b9081526020016040518091039020819055507f2a4a396795b36662ffe9a398a57fd654cf6ea95e79cf6d96d6f0267685687c39826000604051611ce9929190613370565b60405180910390a15050565b6000546001600160a01b03163314611d1f5760405162461bcd60e51b8152600401610735906130be565b6000825111611d405760405162461bcd60e51b81526004016107359061314a565b60008111611d905760405162461bcd60e51b815260206004820152601c60248201527f496e76616c69642063616d706169676e206578706972792074696d65000000006044820152606401610735565b600c82604051611da091906131eb565b90815260408051602092819003830190206000808052925290205460ff1615611ddb5760405162461bcd60e51b8152600401610735906132fa565b6001600c83604051611ded91906131eb565b9081526040805160209281900383019020600080805292529020805460ff1916911515919091179055611e208142613331565b600a83604051611e3091906131eb565b908152604080516020928190038301812060008080529352908220929092557ffda0e6502dae3d85195083e39efa0c8bdccc7d5741b53cf5c57de0c33dc9aaa491611ce9918591613370565b6000546001600160a01b03163314611ea65760405162461bcd60e51b8152600401610735906130be565b63ffffffff821660011480611ec1575063ffffffff82166002145b611edd5760405162461bcd60e51b815260040161073590613398565b808015611f14575063ffffffff821660009081526004602090815260408083206001600160a01b038716845290915290205460ff16155b15611f7c575063ffffffff1660008181526004602090815260408083206001600160a01b0395909516808452948252808320805460ff1916600190811790915593835260058252822080549384018155825290200180546001600160a01b0319169091179055565b80158015611fb3575063ffffffff821660009081526004602090815260408083206001600160a01b038716845290915290205460ff165b1561113d5763ffffffff821660008181526004602090815260408083206001600160a01b03881684528252808320805460ff191690559282526005905290812054905b81811015611b095763ffffffff8416600090815260056020526040902080546001600160a01b03871691908390811061203157612031613274565b6000918252602090912001546001600160a01b03160361212f5763ffffffff8416600090815260056020526040902061206b6001846133c4565b8154811061207b5761207b613274565b600091825260208083209091015463ffffffff871683526005909152604090912080546001600160a01b0390921691839081106120ba576120ba613274565b600091825260208083209190910180546001600160a01b0319166001600160a01b03949094169390931790925563ffffffff861681526005909152604090208054806121085761210861346c565b600082815260209020810160001990810180546001600160a01b0319169055019055611b09565b80612139816132aa565b915050611ff6565b6000546001600160a01b0316331461216b5760405162461bcd60e51b8152600401610735906130be565b6001600160a01b0381166121915760405162461bcd60e51b8152600401610735906132c3565b61219a81612725565b156121e75760405162461bcd60e51b815260206004820152601960248201527f43616d706169676e657220616c726561647920657869737473000000000000006044820152606401610735565b6001600160a01b0381166000818152600160208181526040808420805460ff19169093179092556002815281832092909255519182527f3d04fb94919fdfa7708320cdebdf093992d88d792b3d5f4144c364cda00129c6910160405180910390a150565b606063ffffffff821660011480612268575063ffffffff82166002145b6122845760405162461bcd60e51b815260040161073590613398565b63ffffffff8216600090815260056020908152604091829020805483518184028101840190945280845290918301828280156122e957602002820191906000526020600020905b81546001600160a01b031681526001909101906020018083116122cb575b50505050509050919050565b600080546001600160a01b0316331480612313575061231333612725565b61232f5760405162461bcd60e51b815260040161073590613057565b63ffffffff821660011461237d5760405162461bcd60e51b8152602060048201526015602482015274546f6b656e206973206e6f742066756e6769626c6560581b6044820152606401610735565b6123886001846126f1565b6123df5760405162461bcd60e51b815260206004820152602260248201527f52657175657374656420746f6b656e206973206e6f742077686974656c697374604482015261195960f21b6064820152608401610735565b50506001600160a01b0391821660009081526006602090815260408083209390941682529182528281206001825290915220546001600160401b031690565b6000546001600160a01b031633146124485760405162461bcd60e51b8152600401610735906130be565b6001600160a01b0384166124965760405162461bcd60e51b8152602060048201526015602482015274496e76616c696420746f6b656e206164647265737360581b6044820152606401610735565b60008351116124b75760405162461bcd60e51b81526004016107359061314a565b6001600160a01b0382166124dd5760405162461bcd60e51b8152600401610735906132c3565b600c836040516124ed91906131eb565b908152604080516020928190038301902063ffffffff84166000908152925290205460ff1661252e5760405162461bcd60e51b815260040161073590613207565b600a8360405161253e91906131eb565b908152602001604051809103902060008263ffffffff1681526020019081526020016000205442116125a75760405162461bcd60e51b815260206004820152601260248201527110d85b5c185a59db881b9bdd08195b99195960721b6044820152606401610735565b6009836040516125b791906131eb565b90815260408051602092819003830190206001600160a01b03878116600081815292855283832063ffffffff87168085529086528484205492881684526006865284842091845290855283832090835290935290812080546001600160401b039384169391929161262a9185911661328a565b92506101000a8154816001600160401b0302191690836001600160401b03160217905550600060098460405161266091906131eb565b90815260408051602092819003830181206001600160a01b038916600090815290845282812063ffffffff871682529093529120805467ffffffffffffffff19166001600160401b0393909316929092179091557f2a4a396795b36662ffe9a398a57fd654cf6ea95e79cf6d96d6f0267685687c39906126e39085908490613370565b60405180910390a150505050565b63ffffffff821660009081526004602090815260408083206001600160a01b038516845290915290205460ff165b92915050565b6001600160a01b031660009081526001602052604090205460ff1690565b6001600160a01b0382166000908152600260205260408120805483929061276b908490613331565b9091555050604080516001600160a01b0384168152602081018390527f543ba50a5eec5e6178218e364b1d0f396157b3c8fa278522c2cb7fd99407d4749101611ce9565b6001600160a01b03821660009081526002602052604090205481111561282b5760405162461bcd60e51b815260206004820152602b60248201527f496e73756666696369656e742062616c616e636520726571756573746564206660448201526a6f7220776974686472617760a81b6064820152608401610735565b6001600160a01b038216600090815260026020526040812080548392906128539084906133c4565b9091555050604080516001600160a01b0384168152602081018390527feaff4b37086828766ad3268786972c0cd24259d4c87a80f9d3963a3c3d999b0d9101611ce9565b634e487b7160e01b600052604160045260246000fd5b604051601f8201601f191681016001600160401b03811182821017156128d5576128d5612897565b604052919050565b600082601f8301126128ee57600080fd5b81356001600160401b0381111561290757612907612897565b61291a601f8201601f19166020016128ad565b81815284602083860101111561292f57600080fd5b816020850160208301376000918101602001919091529392505050565b80356001600160a01b0381168114610c5b57600080fd5b60008060006060848603121561297857600080fd5b83356001600160401b0381111561298e57600080fd5b61299a868287016128dd565b9350506129a96020850161294c565b9150604084013590509250925092565b803563ffffffff81168114610c5b57600080fd5b6000806000606084860312156129e257600080fd5b6129eb8461294c565b92506129f96020850161294c565b9150612a07604085016129b9565b90509250925092565b600060208284031215612a2257600080fd5b612a2b8261294c565b9392505050565b600080600060608486031215612a4757600080fd5b612a508461294c565b92506129a96020850161294c565b8035600781900b8114610c5b57600080fd5b60006001600160401b03821115612a8957612a89612897565b5060051b60200190565b600082601f830112612aa457600080fd5b81356020612ab9612ab483612a70565b6128ad565b82815260059290921b84018101918181019086841115612ad857600080fd5b8286015b84811015612afa57612aed8161294c565b8352918301918301612adc565b509695505050505050565b600082601f830112612b1657600080fd5b81356020612b26612ab483612a70565b82815260059290921b84018101918181019086841115612b4557600080fd5b8286015b84811015612afa5780358352918301918301612b49565b600080600080600080600060e0888a031215612b7b57600080fd5b612b848861294c565b9650612b926020890161294c565b955060408801356001600160401b0380821115612bae57600080fd5b612bba8b838c016128dd565b9650612bc860608b01612a5e565b9550612bd660808b016129b9565b945060a08a0135915080821115612bec57600080fd5b612bf88b838c01612a93565b935060c08a0135915080821115612c0e57600080fd5b50612c1b8a828b01612b05565b91505092959891949750929550565b60008060408385031215612c3d57600080fd5b612c46836129b9565b9150612c546020840161294c565b90509250929050565b80358015158114610c5b57600080fd5b600080600060608486031215612c8257600080fd5b612c8b8461294c565b925060208401359150612a0760408501612c5d565b600060208284031215612cb257600080fd5b81356001600160401b03811115612cc857600080fd5b612cd4848285016128dd565b949350505050565b60008060008060808587031215612cf257600080fd5b612cfb8561294c565b9350612d096020860161294c565b9250612d1760408601612a5e565b9150612d25606086016129b9565b905092959194509250565b600080600060608486031215612d4557600080fd5b83356001600160401b03811115612d5b57600080fd5b612d67868287016128dd565b93505060208401359150612a07604085016129b9565b600080600080600060a08688031215612d9557600080fd5b612d9e8661294c565b945060208601356001600160401b0380821115612dba57600080fd5b612dc689838a016128dd565b9550604088013594506060880135915080821115612de357600080fd5b612def89838a01612a93565b93506080880135915080821115612e0557600080fd5b50612e1288828901612b05565b9150509295509295909350565b600080600060608486031215612e3457600080fd5b612e3d8461294c565b9250612e4b6020850161294c565b9150612a0760408501612a5e565b600080600080600060a08688031215612e7157600080fd5b612e7a8661294c565b945060208601356001600160401b03811115612e9557600080fd5b612ea1888289016128dd565b945050612eb06040870161294c565b9250612ebe60608701612a5e565b9150612ecc608087016129b9565b90509295509295909350565b60008060408385031215612eeb57600080fd5b82356001600160401b03811115612f0157600080fd5b612f0d858286016128dd565b925050612c546020840161294c565b60008060408385031215612f2f57600080fd5b82356001600160401b03811115612f4557600080fd5b612f51858286016128dd565b95602094909401359450505050565b600080600060608486031215612f7557600080fd5b612f7e8461294c565b9250612f8c602085016129b9565b9150612a0760408501612c5d565b600060208284031215612fac57600080fd5b612a2b826129b9565b6020808252825182820181905260009190848201906040850190845b81811015612ff65783516001600160a01b031683529284019291840191600101612fd1565b50909695505050505050565b6000806000806080858703121561301857600080fd5b6130218561294c565b935060208501356001600160401b0381111561303c57600080fd5b613048878288016128dd565b935050612d176040860161294c565b60208082526041908201527f556e617574686f72697a6520416363657373207265717565737465642c20436160408201527f6c6c6572206d757374206265206f776e6572206f722063616d706169676e65726060820152601760f91b608082015260a00190565b60208082526035908201527f556e617574686f72697a6520416363657373207265717565737465642c204361604082015274363632b91034b9903737ba103a34329037bbb732b960591b606082015260800190565b60208082526017908201527f43616d706169676e20616c726561647920657869737473000000000000000000604082015260600190565b60208082526018908201527f496e76616c69642063616d706169676e20616464726573730000000000000000604082015260600190565b60208082526026908201527f546f6b656e20616d6f756e74206d7573742062652067726561746572207468616040820152656e207a65726f60d01b606082015260800190565b60005b838110156131e25781810151838201526020016131ca565b50506000910152565b600082516131fd8184602087016131c7565b9190910192915050565b60208082526016908201527510d85b5c185a59db881a5cc81b9bdd0818db1bdcd95960521b604082015260600190565b634e487b7160e01b600052601160045260246000fd5b6001600160401b0382811682821603908082111561326d5761326d613237565b5092915050565b634e487b7160e01b600052603260045260246000fd5b6001600160401b0381811683821601908082111561326d5761326d613237565b6000600182016132bc576132bc613237565b5060010190565b6020808252601a908201527f496e76616c69642063616d706169676e65722061646472657373000000000000604082015260600190565b60208082526017908201527f43616d706169676e20616c726561647920636c6f736564000000000000000000604082015260600190565b8082018082111561271f5761271f613237565b6000815180845261335c8160208601602086016131c7565b601f01601f19169290920160200192915050565b6040815260006133836040830185613344565b905063ffffffff831660208301529392505050565b602080825260129082015271496e76616c696420746f6b656e207479706560701b604082015260600190565b8181038181111561271f5761271f613237565b602080825260149082015273496e73756666696369656e742062616c616e636560601b604082015260600190565b6060815260006134186060830186613344565b905083602083015263ffffffff83166040830152949350505050565b6060815260006134476060830186613344565b90506001600160401b038416602083015263ffffffff83166040830152949350505050565b634e487b7160e01b600052603160045260246000fdfea264697066735822122011908f38e5e50dd1bb105a5485c88a5c2c9f6be9f419c9f347d3203c51ab1a7064736f6c63430008110033",
  "immutableReferences": {},
  "source": "// SPDX-License-Identifier: Apache-2.0\r\npragma solidity ^0.8.17;\r\n\r\nimport \"./HashbuzzModules/HashbuzzStates.sol\";\r\nimport \"./HashbuzzModules/Utils.sol\";\r\nimport \"./HashbuzzModules/CampaignLifecycle.sol\";\r\nimport \"./HashbuzzModules/Transactions.sol\";\r\n\r\ncontract HashbuzzV201 is HashbuzzStates, Utils, Lifecycle, Transactions {\r\n    constructor() {\r\n        owner = msg.sender;\r\n        emit OwnerSet(owner);\r\n    }\r\n\r\n    receive() external payable {}\r\n    fallback() external payable {}\r\n}\r\n",
  "sourcePath": "D:\\rajatk\\hashbuzz-staging\\smv201\\contracts\\HashbuzzV201.sol",
  "compiler": {
    "name": "solc",
    "version": "0.8.17+commit.8df45f5f.Emscripten.clang"
  },
  "schemaVersion": "3.4.16",
  "updatedAt": "2024-10-29T17:37:32.219Z",
  "devdoc": {
    "kind": "dev",
    "methods": {
      "addCampaign(string,address,uint256)": {
        "details": "Add a new campaign",
        "params": {
          "amount": "The amount to be allocated to the campaign from the campaigner's balance.",
          "campaignAddress": "The db address of the campaign",
          "campaigner": "The solidity address of the campaigner or wallet address"
        }
      },
      "addCampaigner(address)": {
        "details": "Whitelist cmapigner to the user.",
        "params": {
          "newCampaigner": "Address of the user having campaigner role to be used here"
        }
      },
      "addFungibleAmount(address,address,int64)": {
        "details": "Fungible token added to the campaigner account.",
        "params": {
          "campaigner": "Address soliduty address",
          "tokenAmount": "amount added to the cmapaigner account",
          "tokenId": "Address tokenId solidity address"
        }
      },
      "addFungibleAndNFTCampaign(address,string,address,int64,uint32)": {
        "details": "Add a new campaign for fungible and NFT tokens",
        "params": {
          "campaignAddress": "The db address of the campaign [string]",
          "campaigner": "The solidity address of the campaigner or wallet address",
          "tokenAmount": "The amount of tokens to be allocated to the campaign",
          "tokenId": "The address of the token in solidity format",
          "tokenType": "The type of the token (FUNGIBLE or NFT) [uint32] (1 for FUNGIBLE & 2 for NFT)"
        }
      },
      "associateToken(address,uint32,bool)": {
        "details": "Adds or removes a token from the whitelist.",
        "params": {
          "isWhitelisted": "Boolean flag to mark the token as whitelisted or not.",
          "tokenAddress": "The address of the token.",
          "tokenType": "The type of the token (1 for FUNGIBLE, 2 for NFT)."
        }
      },
      "closeCampaign(string,uint256)": {
        "details": "Close a campaign with HBAR",
        "params": {
          "campaignAddress": "The db address of the campaign",
          "campaignExpiryTime": "The expiry time of the campaign in seconds"
        }
      },
      "closeFungibleAndNFTCampaign(string,uint256,uint32)": {
        "details": "Close a campaign with fungible and NFT tokens",
        "params": {
          "campaignAddress": "The db address of the campaign",
          "campaignExpiryTime": "The expiry time of the campaign in seconds",
          "tokenType": "The type of the token (FUNGIBLE = 1 OR  NFT = 2)"
        }
      },
      "distributeBalance(address,string,uint256,address[],uint256[])": {
        "details": "Distribute HBAR tokens to the campaigner",
        "params": {
          "amounts": "The amounts to be distributed to each receiver",
          "campaignAddress": "The db address of the campaign",
          "campaigner": "The solidity address of the campaigner or wallet address",
          "receiversAddresses": "The addresses of the receivers take max 50 addresses in one call",
          "totalAmount": "The total amount of tokens to be distributed"
        }
      },
      "distributeFungible(address,address,string,int64,uint32,address[],uint256[])": {
        "details": "Distribute HBAR tokens to the campaigner",
        "params": {
          "amounts": "The amounts to be distributed to each receiver",
          "campaignAddress": "The db address of the campaign",
          "campaigner": "The solidity address of the campaigner or wallet address",
          "receiversAddresses": "The addresses of the receivers take max 50 addresses in one call",
          "tokenId": "The address of the token in solidity format",
          "tokenTotalAmount": "The total amount of tokens to be distributed",
          "tokenType": "The type of the token (FUNGIBLE or NFT)"
        }
      },
      "expiryCampaign(string,address)": {
        "details": "Expiry a campaign with HBAR",
        "params": {
          "campaignAddress": "The db address of the campaign",
          "campaigner": "The solidity address of the campaigner or wallet address"
        }
      },
      "expiryFungibleCampaign(address,string,address,uint32)": {
        "details": "Expiry a campaign with fungible and NFT tokens",
        "params": {
          "campaignAddress": "The db address of the campaign",
          "campaigner": "The solidity address of the campaigner or wallet address",
          "tokenId": "The address of the token in solidity format",
          "tokenType": "The type of the token (FUNGIBLE or NFT) [uint32] (1 for FUNGIBLE & 2 for NFT)"
        }
      },
      "getAllWhitelistedTokens(uint32)": {
        "details": "Retrieves all whitelisted addresses for a given token type.",
        "params": {
          "tokenType": "The type of the token (1 for FUNGIBLE, 2 for NFT)."
        },
        "returns": {
          "_0": "An array of addresses that are whitelisted for the given token type."
        }
      },
      "getCampaignBalance(string)": {
        "details": "Balance holded by the user to see.",
        "params": {
          "campaignAddress": "Solidity address of the campaigner."
        }
      },
      "getFungibleTokenBalance(address,address,uint32)": {
        "params": {
          "campaigner": "Address of the campaigner'solidity address",
          "tokenId": "Solidity address used for the account",
          "tokenType": "The type of the token (FUNGIBLE or NFT) [uint32] (1 for FUNGIBLE & 2 for NFT)"
        }
      },
      "getNFTTokenBalance(address,address,uint32)": {
        "details": "Balance holded by the user to see.",
        "params": {
          "campaigner": "Solidity address of the campaigner.",
          "tokenId": "Solidity address of the token.",
          "tokenType": "The type of the token (FUNGIBLE or NFT) [uint32] (1 for FUNGIBLE & 2 for NFT)                  1 for FUNGIBLE and 2 for NFT."
        }
      },
      "isTokenWhitelisted(uint32,address)": {
        "details": "Checks if a specific token address is whitelisted for a given token type.",
        "params": {
          "tokenAddress": "The address of the token to check.",
          "tokenType": "The type of the token (1 for FUNGIBLE, 2 for NFT)."
        },
        "returns": {
          "_0": "Boolean flag indicating if the token is whitelisted."
        }
      },
      "reimburseBalanceForFungible(address,address,int64,uint32)": {
        "details": "This is function used for the  Reimbersing the cmapaigner balance",
        "params": {
          "amount": "Total amount campaigner wanted to reinverse",
          "campaigner": "Campainer Address",
          "tokenId": "Token solidity address",
          "tokenType": "The type of the token (FUNGIBLE or NFT) [uint32] (1 for FUNGIBLE & 2 for NFT)"
        }
      },
      "updateBalance(address,uint256,bool)": {
        "details": "Topup and reimbersement cases",
        "params": {
          "amount": "Amount being topuped",
          "campaigner": "campaigner solidity address",
          "deposit": "Boolean is here"
        }
      }
    },
    "version": 1
  },
  "userdoc": {
    "kind": "user",
    "methods": {},
    "version": 1
  }
}