{
  "contractName": "HashbuzzStates",
  "abi": [
    {
      "anonymous": false,
      "inputs": [
        {
          "indexed": false,
          "internalType": "address",
          "name": "campaigner",
          "type": "address"
        },
        {
          "indexed": false,
          "internalType": "uint256",
          "name": "updatedBalance",
          "type": "uint256"
        }
      ],
      "name": "BalanceUpdated",
      "type": "event"
    },
    {
      "anonymous": false,
      "inputs": [
        {
          "indexed": false,
          "internalType": "address",
          "name": "campaigner",
          "type": "address"
        }
      ],
      "name": "CampaignerAdded",
      "type": "event"
    },
    {
      "anonymous": false,
      "inputs": [
        {
          "indexed": false,
          "internalType": "address",
          "name": "campaigner",
          "type": "address"
        }
      ],
      "name": "CampaignerDeleted",
      "type": "event"
    },
    {
      "anonymous": false,
      "inputs": [
        {
          "indexed": false,
          "internalType": "address",
          "name": "tokenAddress",
          "type": "address"
        }
      ],
      "name": "CreatedToken",
      "type": "event"
    },
    {
      "anonymous": false,
      "inputs": [
        {
          "indexed": false,
          "internalType": "address",
          "name": "campaigner",
          "type": "address"
        },
        {
          "indexed": false,
          "internalType": "uint256",
          "name": "amount",
          "type": "uint256"
        }
      ],
      "name": "FundsDeposited",
      "type": "event"
    },
    {
      "anonymous": false,
      "inputs": [
        {
          "indexed": false,
          "internalType": "address",
          "name": "campaigner",
          "type": "address"
        },
        {
          "indexed": false,
          "internalType": "uint256",
          "name": "amount",
          "type": "uint256"
        }
      ],
      "name": "FundsWithdrawn",
      "type": "event"
    },
    {
      "anonymous": false,
      "inputs": [
        {
          "indexed": false,
          "internalType": "address",
          "name": "campaigner",
          "type": "address"
        },
        {
          "indexed": false,
          "internalType": "address",
          "name": "tokenId",
          "type": "address"
        },
        {
          "indexed": false,
          "internalType": "uint64",
          "name": "updatedBalance",
          "type": "uint64"
        }
      ],
      "name": "FungibleTokenBalanceUpdated",
      "type": "event"
    },
    {
      "anonymous": false,
      "inputs": [
        {
          "indexed": false,
          "internalType": "address",
          "name": "campaigner",
          "type": "address"
        },
        {
          "indexed": false,
          "internalType": "uint64",
          "name": "amount",
          "type": "uint64"
        }
      ],
      "name": "FungibleTokenDeposited",
      "type": "event"
    },
    {
      "anonymous": false,
      "inputs": [
        {
          "indexed": false,
          "internalType": "address",
          "name": "interactor",
          "type": "address"
        },
        {
          "indexed": false,
          "internalType": "address",
          "name": "campaigner",
          "type": "address"
        },
        {
          "indexed": false,
          "internalType": "uint256",
          "name": "amount",
          "type": "uint256"
        }
      ],
      "name": "InteractorPaid",
      "type": "event"
    },
    {
      "anonymous": false,
      "inputs": [
        {
          "indexed": false,
          "internalType": "string",
          "name": "campaignAddress",
          "type": "string"
        },
        {
          "indexed": false,
          "internalType": "uint256",
          "name": "amount",
          "type": "uint256"
        }
      ],
      "name": "InteractorPaidDeferred",
      "type": "event"
    },
    {
      "anonymous": false,
      "inputs": [
        {
          "indexed": false,
          "internalType": "string",
          "name": "campaignAdddress",
          "type": "string"
        },
        {
          "indexed": false,
          "internalType": "uint256",
          "name": "amount",
          "type": "uint256"
        },
        {
          "indexed": false,
          "internalType": "uint32",
          "name": "campaignType",
          "type": "uint32"
        }
      ],
      "name": "NewCampaignIsAdded",
      "type": "event"
    },
    {
      "anonymous": false,
      "inputs": [
        {
          "indexed": false,
          "internalType": "address",
          "name": "owner",
          "type": "address"
        }
      ],
      "name": "OwnerSet",
      "type": "event"
    },
    {
      "anonymous": false,
      "inputs": [
        {
          "indexed": false,
          "internalType": "int256",
          "name": "responseCode",
          "type": "int256"
        }
      ],
      "name": "ResponseCode",
      "type": "event"
    },
    {
      "anonymous": false,
      "inputs": [
        {
          "indexed": false,
          "internalType": "string",
          "name": "campaignAddress",
          "type": "string"
        },
        {
          "indexed": false,
          "internalType": "uint32",
          "name": "campaignType",
          "type": "uint32"
        }
      ],
      "name": "campaignClosed",
      "type": "event"
    },
    {
      "anonymous": false,
      "inputs": [
        {
          "indexed": false,
          "internalType": "string",
          "name": "campaignAddress",
          "type": "string"
        },
        {
          "indexed": false,
          "internalType": "uint32",
          "name": "campaignType",
          "type": "uint32"
        }
      ],
      "name": "campaignExpired",
      "type": "event"
    },
    {
      "inputs": [],
      "name": "FUNGIBLE",
      "outputs": [
        {
          "internalType": "uint32",
          "name": "",
          "type": "uint32"
        }
      ],
      "stateMutability": "view",
      "type": "function"
    },
    {
      "inputs": [],
      "name": "HBAR",
      "outputs": [
        {
          "internalType": "uint32",
          "name": "",
          "type": "uint32"
        }
      ],
      "stateMutability": "view",
      "type": "function"
    },
    {
      "inputs": [],
      "name": "NFT",
      "outputs": [
        {
          "internalType": "uint32",
          "name": "",
          "type": "uint32"
        }
      ],
      "stateMutability": "view",
      "type": "function"
    },
    {
      "inputs": [
        {
          "internalType": "address",
          "name": "",
          "type": "address"
        }
      ],
      "name": "balances",
      "outputs": [
        {
          "internalType": "uint256",
          "name": "",
          "type": "uint256"
        }
      ],
      "stateMutability": "view",
      "type": "function"
    },
    {
      "inputs": [
        {
          "internalType": "string",
          "name": "",
          "type": "string"
        }
      ],
      "name": "campaignBalances",
      "outputs": [
        {
          "internalType": "uint256",
          "name": "",
          "type": "uint256"
        }
      ],
      "stateMutability": "view",
      "type": "function"
    },
    {
      "inputs": [
        {
          "internalType": "string",
          "name": "",
          "type": "string"
        }
      ],
      "name": "campaignRandomNumber",
      "outputs": [
        {
          "internalType": "uint32",
          "name": "",
          "type": "uint32"
        }
      ],
      "stateMutability": "view",
      "type": "function"
    },
    {
      "inputs": [],
      "name": "id",
      "outputs": [
        {
          "internalType": "uint32",
          "name": "",
          "type": "uint32"
        }
      ],
      "stateMutability": "view",
      "type": "function"
    },
    {
      "inputs": [
        {
          "internalType": "address",
          "name": "",
          "type": "address"
        }
      ],
      "name": "nftCampaigner",
      "outputs": [
        {
          "internalType": "uint32",
          "name": "",
          "type": "uint32"
        }
      ],
      "stateMutability": "view",
      "type": "function"
    },
    {
      "inputs": [
        {
          "internalType": "address",
          "name": "",
          "type": "address"
        }
      ],
      "name": "rewardBalances",
      "outputs": [
        {
          "internalType": "uint256",
          "name": "",
          "type": "uint256"
        }
      ],
      "stateMutability": "view",
      "type": "function"
    },
    {
      "inputs": [
        {
          "internalType": "address",
          "name": "",
          "type": "address"
        },
        {
          "internalType": "address",
          "name": "",
          "type": "address"
        },
        {
          "internalType": "uint256",
          "name": "",
          "type": "uint256"
        }
      ],
      "name": "rewardTokenBalances",
      "outputs": [
        {
          "internalType": "uint64",
          "name": "",
          "type": "uint64"
        }
      ],
      "stateMutability": "view",
      "type": "function"
    },
    {
      "inputs": [
        {
          "internalType": "address",
          "name": "",
          "type": "address"
        },
        {
          "internalType": "address",
          "name": "",
          "type": "address"
        },
        {
          "internalType": "uint256",
          "name": "",
          "type": "uint256"
        }
      ],
      "name": "tokenBalances",
      "outputs": [
        {
          "internalType": "uint64",
          "name": "",
          "type": "uint64"
        }
      ],
      "stateMutability": "view",
      "type": "function"
    },
    {
      "inputs": [
        {
          "internalType": "string",
          "name": "",
          "type": "string"
        },
        {
          "internalType": "address",
          "name": "",
          "type": "address"
        },
        {
          "internalType": "uint256",
          "name": "",
          "type": "uint256"
        }
      ],
      "name": "tokenCampaignBalances",
      "outputs": [
        {
          "internalType": "uint64",
          "name": "",
          "type": "uint64"
        }
      ],
      "stateMutability": "view",
      "type": "function"
    },
    {
      "inputs": [
        {
          "internalType": "uint32",
          "name": "",
          "type": "uint32"
        },
        {
          "internalType": "address",
          "name": "",
          "type": "address"
        }
      ],
      "name": "whitelistedToken",
      "outputs": [
        {
          "internalType": "bool",
          "name": "",
          "type": "bool"
        }
      ],
      "stateMutability": "view",
      "type": "function"
    }
  ],
  "bytecode": "0x6080604052600d805463ffffffff1916600117905534801561002057600080fd5b50610512806100306000396000f3fe608060405234801561001057600080fd5b50600436106100ce5760003560e01c80634f18230d1161008c57806393c8dc6d1161006657806393c8dc6d14610276578063af640d0f14610296578063bc3ef1e9146102a6578063cfe3f9a8146102cc57600080fd5b80634f18230d1461023b578063774256c7146102665780637c0b8de21461026e57600080fd5b8062540521146100d357806327e235e31461013c578063307869dd1461016a5780633262af54146101a5578063362e34b9146101e05780634377e3ff1461021e575b600080fd5b61011e6100e13660046103bc565b82516020818501810180516009825292820195820195909520919094528352600091825260408083209093528152205467ffffffffffffffff1681565b60405167ffffffffffffffff90911681526020015b60405180910390f35b61015c61014a366004610413565b60026020526000908152604090205481565b604051908152602001610133565b61011e610178366004610435565b600660209081526000938452604080852082529284528284209052825290205467ffffffffffffffff1681565b61011e6101b3366004610435565b600760209081526000938452604080852082529284528284209052825290205467ffffffffffffffff1681565b61020e6101ee366004610461565b600460209081526000928352604080842090915290825290205460ff1681565b6040519015158152602001610133565b610226600181565b60405163ffffffff9091168152602001610133565b61015c61024936600461049f565b805160208183018101805160088252928201919093012091525481565b610226600081565b610226600281565b61015c610284366004610413565b60036020526000908152604090205481565b600d546102269063ffffffff1681565b6102266102b4366004610413565b600b6020526000908152604090205463ffffffff1681565b6102266102da36600461049f565b8051602081830181018051600e8252928201919093012091525463ffffffff1681565b634e487b7160e01b600052604160045260246000fd5b600082601f83011261032457600080fd5b813567ffffffffffffffff8082111561033f5761033f6102fd565b604051601f8301601f19908116603f01168101908282118183101715610367576103676102fd565b8160405283815286602085880101111561038057600080fd5b836020870160208301376000602085830101528094505050505092915050565b80356001600160a01b03811681146103b757600080fd5b919050565b6000806000606084860312156103d157600080fd5b833567ffffffffffffffff8111156103e857600080fd5b6103f486828701610313565b935050610403602085016103a0565b9150604084013590509250925092565b60006020828403121561042557600080fd5b61042e826103a0565b9392505050565b60008060006060848603121561044a57600080fd5b610453846103a0565b9250610403602085016103a0565b6000806040838503121561047457600080fd5b823563ffffffff8116811461048857600080fd5b9150610496602084016103a0565b90509250929050565b6000602082840312156104b157600080fd5b813567ffffffffffffffff8111156104c857600080fd5b6104d484828501610313565b94935050505056fea2646970667358221220a2111256569abcb0426f9b86861620578c5e8b247a42c49bb385063cd744bc2b64736f6c63430008110033",
  "immutableReferences": {},
  "source": "// SPDX-License-Identifier: Apache-2.0\r\npragma solidity ^0.8.17;\r\n\r\n/**\r\n * @title HashbuzzStates\r\n * @dev This contract is used to store the state of the Hashbuzz contract\r\n */\r\ncontract HashbuzzStates {\r\n    address internal owner;\r\n\r\n    uint32 public constant HBAR = 0;\r\n    uint32 public constant FUNGIBLE = 1;\r\n    uint32 public constant NFT = 2;\r\n\r\n    mapping(address => bool) internal campaigners;\r\n    mapping(address => uint256) public balances;\r\n    mapping(address => uint256) public rewardBalances;\r\n\r\n    mapping(uint32 => mapping(address => bool)) public whitelistedToken;\r\n    mapping(uint32 => address[]) internal whitelistedAddresses;\r\n\r\n    mapping(address => mapping(address => mapping(uint256 => uint64)))\r\n        public tokenBalances;\r\n    mapping(address => mapping(address => mapping(uint256 => uint64)))\r\n        public rewardTokenBalances;\r\n    mapping(string => uint256) public campaignBalances;\r\n    mapping(string => mapping(address => mapping(uint256 => uint64)))\r\n        public tokenCampaignBalances;\r\n\r\n    mapping(string => mapping(uint256 => uint256)) campaignEndTime;\r\n    mapping(address => uint32) public nftCampaigner;\r\n    mapping(string => mapping(uint256 => bool)) isCampaignClosed;\r\n    uint32 public id = 1;\r\n    mapping(string => uint32) public campaignRandomNumber;\r\n\r\n    event OwnerSet(address owner);\r\n    event CampaignerDeleted(address campaigner);\r\n    event CampaignerAdded(address campaigner);\r\n    event FundsDeposited(address campaigner, uint256 amount);\r\n    event FundsWithdrawn(address campaigner, uint256 amount);\r\n    event campaignClosed(string campaignAddress, uint32 campaignType);\r\n    event campaignExpired(string campaignAddress, uint32 campaignType);\r\n    event InteractorPaid(\r\n        address interactor,\r\n        address campaigner,\r\n        uint256 amount\r\n    );\r\n    event InteractorPaidDeferred(string campaignAddress, uint256 amount);\r\n    event NewCampaignIsAdded(\r\n        string campaignAdddress,\r\n        uint256 amount,\r\n        uint32 campaignType\r\n    );\r\n    event ResponseCode(int responseCode);\r\n    event CreatedToken(address tokenAddress);\r\n    event FungibleTokenDeposited(address campaigner, uint64 amount);\r\n    event BalanceUpdated(address campaigner, uint256 updatedBalance);\r\n    event FungibleTokenBalanceUpdated(\r\n        address campaigner,\r\n        address tokenId,\r\n        uint64 updatedBalance\r\n    );\r\n\r\n    modifier onlyOwner() {\r\n        require(\r\n            msg.sender == owner,\r\n            \"Unauthorize Access requested, Caller is not the owner\"\r\n        );\r\n        _;\r\n    }\r\n\r\n    modifier onlyOwnerOrCampaigner() {\r\n        require(\r\n            msg.sender == owner || isCampaigner(msg.sender),\r\n            \"Unauthorize Access requested, Caller must be owner or campaigner.\"\r\n        );\r\n        _;\r\n    }\r\n\r\n    /**\r\n     * @dev check capaigner is permiited\r\n     * @param _address  address of the campaigner\r\n     */\r\n    function isCampaigner(address _address) internal view returns (bool) {\r\n        return campaigners[_address];\r\n    }\r\n}\r\n",
  "sourcePath": "D:\\rajatk\\hashbuzz-staging\\smv201\\contracts\\HashbuzzModules\\HashbuzzStates.sol",
  "compiler": {
    "name": "solc",
    "version": "0.8.17+commit.8df45f5f.Emscripten.clang"
  },
  "schemaVersion": "3.4.16",
  "updatedAt": "2024-10-29T17:07:38.515Z",
  "devdoc": {
    "details": "This contract is used to store the state of the Hashbuzz contract",
    "kind": "dev",
    "methods": {},
    "title": "HashbuzzStates",
    "version": 1
  },
  "userdoc": {
    "kind": "user",
    "methods": {},
    "version": 1
  }
}