{
  "contractName": "HashbuzzV201",
  "abi": [
    {
      "inputs": [],
      "stateMutability": "nonpayable",
      "type": "constructor"
    },
    {
      "anonymous": false,
      "inputs": [
        {
          "indexed": false,
          "internalType": "address",
          "name": "campaigner",
          "type": "address"
        },
        {
          "indexed": false,
          "internalType": "uint256",
          "name": "updatedBalance",
          "type": "uint256"
        }
      ],
      "name": "BalanceUpdated",
      "type": "event"
    },
    {
      "anonymous": false,
      "inputs": [
        {
          "indexed": false,
          "internalType": "string",
          "name": "campaignAddress",
          "type": "string"
        },
        {
          "indexed": false,
          "internalType": "uint256",
          "name": "amount",
          "type": "uint256"
        },
        {
          "indexed": false,
          "internalType": "uint32",
          "name": "tokenType",
          "type": "uint32"
        }
      ],
      "name": "CampaignToppedUp",
      "type": "event"
    },
    {
      "anonymous": false,
      "inputs": [
        {
          "indexed": false,
          "internalType": "address",
          "name": "campaigner",
          "type": "address"
        }
      ],
      "name": "CampaignerAdded",
      "type": "event"
    },
    {
      "anonymous": false,
      "inputs": [
        {
          "indexed": false,
          "internalType": "address",
          "name": "campaigner",
          "type": "address"
        }
      ],
      "name": "CampaignerDeleted",
      "type": "event"
    },
    {
      "anonymous": false,
      "inputs": [
        {
          "indexed": false,
          "internalType": "address",
          "name": "tokenAddress",
          "type": "address"
        }
      ],
      "name": "CreatedToken",
      "type": "event"
    },
    {
      "anonymous": false,
      "inputs": [
        {
          "indexed": false,
          "internalType": "address",
          "name": "campaigner",
          "type": "address"
        },
        {
          "indexed": false,
          "internalType": "uint256",
          "name": "amount",
          "type": "uint256"
        }
      ],
      "name": "FundsDeposited",
      "type": "event"
    },
    {
      "anonymous": false,
      "inputs": [
        {
          "indexed": false,
          "internalType": "address",
          "name": "campaigner",
          "type": "address"
        },
        {
          "indexed": false,
          "internalType": "uint256",
          "name": "amount",
          "type": "uint256"
        }
      ],
      "name": "FundsWithdrawn",
      "type": "event"
    },
    {
      "anonymous": false,
      "inputs": [
        {
          "indexed": false,
          "internalType": "address",
          "name": "campaigner",
          "type": "address"
        },
        {
          "indexed": false,
          "internalType": "address",
          "name": "tokenId",
          "type": "address"
        },
        {
          "indexed": false,
          "internalType": "uint64",
          "name": "updatedBalance",
          "type": "uint64"
        }
      ],
      "name": "FungibleTokenBalanceUpdated",
      "type": "event"
    },
    {
      "anonymous": false,
      "inputs": [
        {
          "indexed": false,
          "internalType": "address",
          "name": "campaigner",
          "type": "address"
        },
        {
          "indexed": false,
          "internalType": "uint64",
          "name": "amount",
          "type": "uint64"
        }
      ],
      "name": "FungibleTokenDeposited",
      "type": "event"
    },
    {
      "anonymous": false,
      "inputs": [
        {
          "indexed": false,
          "internalType": "address",
          "name": "interactor",
          "type": "address"
        },
        {
          "indexed": false,
          "internalType": "address",
          "name": "campaigner",
          "type": "address"
        },
        {
          "indexed": false,
          "internalType": "uint256",
          "name": "amount",
          "type": "uint256"
        }
      ],
      "name": "InteractorPaid",
      "type": "event"
    },
    {
      "anonymous": false,
      "inputs": [
        {
          "indexed": false,
          "internalType": "string",
          "name": "campaignAddress",
          "type": "string"
        },
        {
          "indexed": false,
          "internalType": "uint256",
          "name": "amount",
          "type": "uint256"
        }
      ],
      "name": "InteractorPaidDeferred",
      "type": "event"
    },
    {
      "anonymous": false,
      "inputs": [
        {
          "indexed": false,
          "internalType": "string",
          "name": "campaignAdddress",
          "type": "string"
        },
        {
          "indexed": false,
          "internalType": "uint256",
          "name": "amount",
          "type": "uint256"
        },
        {
          "indexed": false,
          "internalType": "uint32",
          "name": "campaignType",
          "type": "uint32"
        }
      ],
      "name": "NewCampaignIsAdded",
      "type": "event"
    },
    {
      "anonymous": false,
      "inputs": [
        {
          "indexed": false,
          "internalType": "address",
          "name": "owner",
          "type": "address"
        }
      ],
      "name": "OwnerSet",
      "type": "event"
    },
    {
      "anonymous": false,
      "inputs": [
        {
          "indexed": false,
          "internalType": "int256",
          "name": "responseCode",
          "type": "int256"
        }
      ],
      "name": "ResponseCode",
      "type": "event"
    },
    {
      "anonymous": false,
      "inputs": [
        {
          "indexed": false,
          "internalType": "string",
          "name": "campaignAddress",
          "type": "string"
        },
        {
          "indexed": false,
          "internalType": "uint256",
          "name": "totalAmount",
          "type": "uint256"
        },
        {
          "indexed": false,
          "internalType": "uint256",
          "name": "remainingBalance",
          "type": "uint256"
        }
      ],
      "name": "RewardsDistributed",
      "type": "event"
    },
    {
      "anonymous": false,
      "inputs": [
        {
          "indexed": false,
          "internalType": "string",
          "name": "campaignAddress",
          "type": "string"
        },
        {
          "indexed": false,
          "internalType": "uint32",
          "name": "campaignType",
          "type": "uint32"
        }
      ],
      "name": "campaignClosed",
      "type": "event"
    },
    {
      "anonymous": false,
      "inputs": [
        {
          "indexed": false,
          "internalType": "string",
          "name": "campaignAddress",
          "type": "string"
        },
        {
          "indexed": false,
          "internalType": "uint32",
          "name": "campaignType",
          "type": "uint32"
        }
      ],
      "name": "campaignExpired",
      "type": "event"
    },
    {
      "inputs": [],
      "name": "FUNGIBLE",
      "outputs": [
        {
          "internalType": "uint32",
          "name": "",
          "type": "uint32"
        }
      ],
      "stateMutability": "view",
      "type": "function"
    },
    {
      "inputs": [],
      "name": "HBAR",
      "outputs": [
        {
          "internalType": "uint32",
          "name": "",
          "type": "uint32"
        }
      ],
      "stateMutability": "view",
      "type": "function"
    },
    {
      "inputs": [],
      "name": "NFT",
      "outputs": [
        {
          "internalType": "uint32",
          "name": "",
          "type": "uint32"
        }
      ],
      "stateMutability": "view",
      "type": "function"
    },
    {
      "inputs": [
        {
          "internalType": "string",
          "name": "campaignAddress",
          "type": "string"
        },
        {
          "internalType": "address",
          "name": "campaigner",
          "type": "address"
        },
        {
          "internalType": "uint256",
          "name": "amount",
          "type": "uint256"
        }
      ],
      "name": "addCampaignOrTopUp",
      "outputs": [
        {
          "internalType": "uint256",
          "name": "",
          "type": "uint256"
        }
      ],
      "stateMutability": "nonpayable",
      "type": "function"
    },
    {
      "inputs": [
        {
          "internalType": "address",
          "name": "newCampaigner",
          "type": "address"
        }
      ],
      "name": "addCampaigner",
      "outputs": [],
      "stateMutability": "nonpayable",
      "type": "function"
    },
    {
      "inputs": [
        {
          "internalType": "address",
          "name": "campaigner",
          "type": "address"
        },
        {
          "internalType": "address",
          "name": "tokenId",
          "type": "address"
        },
        {
          "internalType": "uint64",
          "name": "tokenAmount",
          "type": "uint64"
        }
      ],
      "name": "addFungibleAmount",
      "outputs": [
        {
          "internalType": "uint64",
          "name": "",
          "type": "uint64"
        }
      ],
      "stateMutability": "nonpayable",
      "type": "function"
    },
    {
      "inputs": [
        {
          "internalType": "address",
          "name": "tokenId",
          "type": "address"
        },
        {
          "internalType": "string",
          "name": "campaignAddress",
          "type": "string"
        },
        {
          "internalType": "address",
          "name": "campaigner",
          "type": "address"
        },
        {
          "internalType": "uint64",
          "name": "tokenAmount",
          "type": "uint64"
        }
      ],
      "name": "addFungibleCampaign",
      "outputs": [
        {
          "internalType": "uint64",
          "name": "",
          "type": "uint64"
        }
      ],
      "stateMutability": "nonpayable",
      "type": "function"
    },
    {
      "inputs": [
        {
          "internalType": "address",
          "name": "tokenId",
          "type": "address"
        },
        {
          "internalType": "address",
          "name": "campaigner",
          "type": "address"
        },
        {
          "internalType": "string",
          "name": "campaignAddress",
          "type": "string"
        },
        {
          "internalType": "uint64",
          "name": "tokenTotalAmount",
          "type": "uint64"
        }
      ],
      "name": "adjustTotalFungibleReward",
      "outputs": [
        {
          "internalType": "uint256",
          "name": "",
          "type": "uint256"
        }
      ],
      "stateMutability": "nonpayable",
      "type": "function"
    },
    {
      "inputs": [
        {
          "internalType": "address",
          "name": "campaigner",
          "type": "address"
        },
        {
          "internalType": "string",
          "name": "campaignAddress",
          "type": "string"
        },
        {
          "internalType": "uint256",
          "name": "totalAmount",
          "type": "uint256"
        }
      ],
      "name": "adjustTotalReward",
      "outputs": [
        {
          "internalType": "uint256",
          "name": "",
          "type": "uint256"
        }
      ],
      "stateMutability": "nonpayable",
      "type": "function"
    },
    {
      "inputs": [
        {
          "internalType": "address",
          "name": "tokenAddress",
          "type": "address"
        },
        {
          "internalType": "bool",
          "name": "isWhitelisted",
          "type": "bool"
        }
      ],
      "name": "associateToken",
      "outputs": [],
      "stateMutability": "nonpayable",
      "type": "function"
    },
    {
      "inputs": [
        {
          "internalType": "address",
          "name": "",
          "type": "address"
        }
      ],
      "name": "balances",
      "outputs": [
        {
          "internalType": "uint256",
          "name": "",
          "type": "uint256"
        }
      ],
      "stateMutability": "view",
      "type": "function"
    },
    {
      "inputs": [
        {
          "internalType": "string",
          "name": "",
          "type": "string"
        }
      ],
      "name": "campaignBalances",
      "outputs": [
        {
          "internalType": "uint256",
          "name": "",
          "type": "uint256"
        }
      ],
      "stateMutability": "view",
      "type": "function"
    },
    {
      "inputs": [
        {
          "internalType": "string",
          "name": "",
          "type": "string"
        }
      ],
      "name": "campaignRandomNumber",
      "outputs": [
        {
          "internalType": "uint32",
          "name": "",
          "type": "uint32"
        }
      ],
      "stateMutability": "view",
      "type": "function"
    },
    {
      "inputs": [
        {
          "internalType": "string",
          "name": "campaignAddress",
          "type": "string"
        },
        {
          "internalType": "uint256",
          "name": "campaignExpiryTime",
          "type": "uint256"
        }
      ],
      "name": "closeCampaign",
      "outputs": [],
      "stateMutability": "nonpayable",
      "type": "function"
    },
    {
      "inputs": [
        {
          "internalType": "string",
          "name": "campaignAddress",
          "type": "string"
        },
        {
          "internalType": "uint256",
          "name": "campaignExpiryTime",
          "type": "uint256"
        }
      ],
      "name": "closeFungibleCampaign",
      "outputs": [],
      "stateMutability": "nonpayable",
      "type": "function"
    },
    {
      "inputs": [
        {
          "internalType": "string",
          "name": "campaignAddress",
          "type": "string"
        },
        {
          "internalType": "address",
          "name": "campaigner",
          "type": "address"
        }
      ],
      "name": "expiryCampaign",
      "outputs": [
        {
          "internalType": "uint256",
          "name": "",
          "type": "uint256"
        }
      ],
      "stateMutability": "nonpayable",
      "type": "function"
    },
    {
      "inputs": [
        {
          "internalType": "address",
          "name": "tokenId",
          "type": "address"
        },
        {
          "internalType": "string",
          "name": "campaignAddress",
          "type": "string"
        },
        {
          "internalType": "address",
          "name": "campaigner",
          "type": "address"
        }
      ],
      "name": "expiryFungibleCampaign",
      "outputs": [
        {
          "internalType": "uint64",
          "name": "",
          "type": "uint64"
        }
      ],
      "stateMutability": "nonpayable",
      "type": "function"
    },
    {
      "inputs": [],
      "name": "getAllWhitelistedTokens",
      "outputs": [
        {
          "internalType": "address[]",
          "name": "",
          "type": "address[]"
        }
      ],
      "stateMutability": "view",
      "type": "function"
    },
    {
      "inputs": [
        {
          "internalType": "string",
          "name": "campaignAddress",
          "type": "string"
        }
      ],
      "name": "getCampaignBalance",
      "outputs": [
        {
          "internalType": "uint256",
          "name": "",
          "type": "uint256"
        }
      ],
      "stateMutability": "view",
      "type": "function"
    },
    {
      "inputs": [
        {
          "internalType": "address",
          "name": "campaigner",
          "type": "address"
        },
        {
          "internalType": "address",
          "name": "tokenId",
          "type": "address"
        }
      ],
      "name": "getFungibleTokenBalance",
      "outputs": [
        {
          "internalType": "uint64",
          "name": "res",
          "type": "uint64"
        }
      ],
      "stateMutability": "view",
      "type": "function"
    },
    {
      "inputs": [
        {
          "internalType": "address",
          "name": "campaigner",
          "type": "address"
        }
      ],
      "name": "getHbarBalance",
      "outputs": [
        {
          "internalType": "uint256",
          "name": "res",
          "type": "uint256"
        }
      ],
      "stateMutability": "view",
      "type": "function"
    },
    {
      "inputs": [
        {
          "internalType": "address",
          "name": "tokenAddress",
          "type": "address"
        }
      ],
      "name": "isTokenWhitelisted",
      "outputs": [
        {
          "internalType": "bool",
          "name": "",
          "type": "bool"
        }
      ],
      "stateMutability": "view",
      "type": "function"
    },
    {
      "inputs": [
        {
          "internalType": "address",
          "name": "",
          "type": "address"
        }
      ],
      "name": "nftCampaigner",
      "outputs": [
        {
          "internalType": "uint32",
          "name": "",
          "type": "uint32"
        }
      ],
      "stateMutability": "view",
      "type": "function"
    },
    {
      "inputs": [
        {
          "internalType": "address",
          "name": "tokenId",
          "type": "address"
        },
        {
          "internalType": "address",
          "name": "campaigner",
          "type": "address"
        },
        {
          "internalType": "uint64",
          "name": "amount",
          "type": "uint64"
        }
      ],
      "name": "reimburseBalanceForFungible",
      "outputs": [
        {
          "internalType": "uint64",
          "name": "",
          "type": "uint64"
        }
      ],
      "stateMutability": "nonpayable",
      "type": "function"
    },
    {
      "inputs": [
        {
          "internalType": "address",
          "name": "",
          "type": "address"
        },
        {
          "internalType": "address",
          "name": "",
          "type": "address"
        },
        {
          "internalType": "uint256",
          "name": "",
          "type": "uint256"
        }
      ],
      "name": "tokenBalances",
      "outputs": [
        {
          "internalType": "uint64",
          "name": "",
          "type": "uint64"
        }
      ],
      "stateMutability": "view",
      "type": "function"
    },
    {
      "inputs": [
        {
          "internalType": "string",
          "name": "",
          "type": "string"
        },
        {
          "internalType": "address",
          "name": "",
          "type": "address"
        },
        {
          "internalType": "uint256",
          "name": "",
          "type": "uint256"
        }
      ],
      "name": "tokenCampaignBalances",
      "outputs": [
        {
          "internalType": "uint64",
          "name": "",
          "type": "uint64"
        }
      ],
      "stateMutability": "view",
      "type": "function"
    },
    {
      "inputs": [
        {
          "internalType": "address",
          "name": "campaigner",
          "type": "address"
        },
        {
          "internalType": "uint256",
          "name": "amount",
          "type": "uint256"
        },
        {
          "internalType": "bool",
          "name": "deposit",
          "type": "bool"
        }
      ],
      "name": "updateBalance",
      "outputs": [
        {
          "internalType": "uint256",
          "name": "",
          "type": "uint256"
        }
      ],
      "stateMutability": "nonpayable",
      "type": "function"
    },
    {
      "inputs": [
        {
          "internalType": "uint32",
          "name": "",
          "type": "uint32"
        },
        {
          "internalType": "address",
          "name": "",
          "type": "address"
        }
      ],
      "name": "whitelistedToken",
      "outputs": [
        {
          "internalType": "bool",
          "name": "",
          "type": "bool"
        }
      ],
      "stateMutability": "view",
      "type": "function"
    }
  ],
  "bytecode": "0x608060405234801561001057600080fd5b50600080546001600160a01b031916339081179091556040519081527f50146d0e3c60aa1d17a70635b05494f864e86144a2201275021014fbf08bafe29060200160405180910390a1612cd5806100686000396000f3fe608060405234801561001057600080fd5b50600436106101c35760003560e01c8063774256c7116100f9578063b466613011610097578063bc3ef1e911610071578063bc3ef1e914610461578063bc46270014610487578063bff319961461049a578063cfe3f9a8146104ad57600080fd5b8063b466613014610428578063b5af090f1461043b578063b99425241461044e57600080fd5b80639991033c116100d35780639991033c146103da5780639a00f42a146103ef5780639de3d8ba14610402578063a7c7b1821461041557600080fd5b8063774256c7146103b75780637b7fc677146103bf5780637c0b8de2146103d257600080fd5b8063362e34b9116101665780634a3b1152116101405780634a3b1152146103535780634f18230d146103665780635025ae841461039157806371042cfd146103a457600080fd5b8063362e34b9146102e557806341228803146103235780634377e3ff1461033657600080fd5b80631b0f32a3116101a25780631b0f32a314610263578063257204bf1461027857806327e235e31461028b578063307869dd146102ab57600080fd5b8062540521146101c8578063160f9c881461022f57806316d343e014610242575b600080fd5b6102126101d6366004612501565b8251602081850181018051600782529282019582019590952091909452835260009182526040808320909352815220546001600160401b031681565b6040516001600160401b0390911681526020015b60405180910390f35b61021261023d366004612557565b6104de565b61025561025036600461258a565b6105a4565b604051908152602001610226565b6102766102713660046125bc565b6105fa565b005b6102126102863660046125fd565b6108cb565b61025561029936600461258a565b60026020526000908152604090205481565b6102126102b9366004612640565b60056020908152600093845260408085208252928452828420905282529020546001600160401b031681565b6103136102f336600461266c565b600360209081526000928352604080842090915290825290205460ff1681565b6040519015158152602001610226565b610255610331366004612693565b610a51565b61033e600181565b60405163ffffffff9091168152602001610226565b6102556103613660046126c6565b610b74565b6102556103743660046126c6565b805160208183018101805160068252928201919093012091525481565b61025561039f3660046126fa565b610bd5565b6102126103b23660046125fd565b610e8e565b61033e600081565b6102556103cd366004612768565b611031565b61033e600281565b6103e261127a565b60405161022691906127be565b6102126103fd36600461280b565b6112f2565b61021261041036600461286e565b6116d9565b6102556104233660046128c2565b6119ec565b610276610436366004612906565b611c3e565b61031361044936600461258a565b611df6565b61025561045c366004612501565b611e21565b61033e61046f36600461258a565b60096020526000908152604090205463ffffffff1681565b610276610495366004612906565b612016565b6102766104a836600461258a565b6121d6565b61033e6104bb3660046126c6565b8051602081830181018051600b8252928201919093012091525463ffffffff1681565b600080546001600160a01b03163314806104fc57506104fc336122ed565b6105215760405162461bcd60e51b81526004016105189061294a565b60405180910390fd5b61052a82611df6565b604051806040016040528060048152602001634530303560e01b815250906105655760405162461bcd60e51b81526004016105189190612a01565b50506001600160a01b0391821660009081526005602090815260408083209390941682529182528281206001825290915220546001600160401b031690565b600080546001600160a01b03163314806105c257506105c2336122ed565b6105de5760405162461bcd60e51b81526004016105189061294a565b506001600160a01b031660009081526002602052604090205490565b6000546001600160a01b031633146106245760405162461bcd60e51b815260040161051890612a14565b80801561065757506001600160a01b0382166000908152600080516020612c80833981519152602052604090205460ff16155b156106e457506001600160a01b03166000818152600080516020612c80833981519152602090815260408220805460ff191660019081179091556004909152600080516020612c60833981519152805491820181559091527f210afe6ebef982fa193bb4e17f9f236cdf09af7788627b5d54d9e3e4b100021b0180546001600160a01b0319169091179055565b8015801561071757506001600160a01b0382166000908152600080516020612c80833981519152602052604090205460ff165b156108c7576001600160a01b0382166000908152600080516020612c80833981519152602090815260408220805460ff191690556001825260049052600080516020612c6083398151915254905b818110156108c45760016000526004602052600080516020612c6083398151915280546001600160a01b0386169190839081106107a4576107a4612a69565b6000918252602090912001546001600160a01b0316036108b257600160008190526004602052600080516020612c60833981519152906107e49084612a95565b815481106107f4576107f4612a69565b6000918252602080832090910154600190925260049052600080516020612c6083398151915280546001600160a01b03909216918390811061083857610838612a69565b600091825260208083209190910180546001600160a01b0319166001600160a01b0394909416939093179092556001905260049052600080516020612c6083398151915280548061088b5761088b612aa8565b600082815260209020810160001990810180546001600160a01b03191690550190556108c4565b806108bc81612abe565b915050610765565b50505b5050565b600080546001600160a01b031633146108f65760405162461bcd60e51b815260040161051890612a14565b6001600160a01b038084166000908152600560209081526040808320938816835292815282822060018352815290829020548251808401909352600483526308a6060760e31b918301919091526001600160401b038085169116101561096f5760405162461bcd60e51b81526004016105189190612a01565b506001600160a01b038084166000908152600560209081526040808320938816835292815282822060018352905290812080548492906109b99084906001600160401b0316612ad7565b82546101009290920a6001600160401b038181021990931691831602179091556001600160a01b038581166000908152600560209081526040808320938a168352928152828220600183529052819020549051911691507f2fa1a54f364a5a61a29da95bf0632455b2fb41ab6434ad448e6432058203bffc90610a4190869088908590612afe565b60405180910390a1949350505050565b600080546001600160a01b03163314610a7c5760405162461bcd60e51b815260040161051890612a14565b6040805180820190915260048152632298181960e11b60208201526001600160a01b038516610abe5760405162461bcd60e51b81526004016105189190612a01565b50610ac8846122ed565b604051806040016040528060048152602001634530303360e01b81525090610b035760405162461bcd60e51b81526004016105189190612a01565b508115610b1957610b14848461230b565b610b23565b610b238484612377565b6001600160a01b038416600081815260026020908152604091829020548251938452908301819052917f8ad64a0ac7700dd8425ab0499f107cb6e2cd1581d803c5b8c1c79dcb8190b1af9101610a41565b600080546001600160a01b0316331480610b925750610b92336122ed565b610bae5760405162461bcd60e51b81526004016105189061294a565b600682604051610bbe9190612b2a565b90815260200160405180910390205490505b919050565b600080546001600160a01b03163314610c005760405162461bcd60e51b815260040161051890612a14565b610c0985611df6565b604051806040016040528060048152602001634530303560e01b81525090610c445760405162461bcd60e51b81526004016105189190612a01565b50610c4e846122ed565b604051806040016040528060048152602001634530303360e01b81525090610c895760405162461bcd60e51b81526004016105189190612a01565b506000835111604051806040016040528060048152602001632298181960e11b81525090610cca5760405162461bcd60e51b81526004016105189190612a01565b506040805180820190915260048152634530313160e01b60208201526001600160401b038316610d0d5760405162461bcd60e51b81526004016105189190612a01565b50600a83604051610d1e9190612b2a565b90815260408051918290036020908101832060016000908152908252829020548383019092526004835263114c0c0d60e21b9083015260ff16610d745760405162461bcd60e51b81526004016105189190612a01565b5081600784604051610d869190612b2a565b90815260408051602092819003830190206001600160a01b03891660009081529083528181206001825290925281208054909190610dce9084906001600160401b0316612ad7565b92506101000a8154816001600160401b0302191690836001600160401b031602179055506000600784604051610e049190612b2a565b9081526040805191829003602090810183206001600160a01b038a1660009081529082528281206001825290915220546001600160401b0390811692507f037378c439105dd07d1db6d59a47347ea8f734a0835509a3820255c8be11cea091610e74918791908716908590612b46565b60405180910390a16001600160401b031695945050505050565b600080546001600160a01b03163314610eb95760405162461bcd60e51b815260040161051890612a14565b610ec2846122ed565b604051806040016040528060048152602001634530303360e01b81525090610efd5760405162461bcd60e51b81526004016105189190612a01565b506001600160a01b03808516600090815260056020908152604080832093871683529281528282206001835290529081208054849290610f479084906001600160401b0316612b78565b92506101000a8154816001600160401b0302191690836001600160401b031602179055507fc7a2e037ca848c5f8478afbc374474f095ffe9245e2b0e5deccc07b623e4eb738483604051610fb99291906001600160a01b039290921682526001600160401b0316602082015260400190565b60405180910390a16001600160a01b03808516600090815260056020908152604080832093871683529281528282206001835290528190205490516001600160401b03909116907f2fa1a54f364a5a61a29da95bf0632455b2fb41ab6434ad448e6432058203bffc90610a4190879087908590612afe565b600080546001600160a01b0316331461105c5760405162461bcd60e51b815260040161051890612a14565b611065846122ed565b604051806040016040528060048152602001634530303360e01b815250906110a05760405162461bcd60e51b81526004016105189190612a01565b506000835111604051806040016040528060048152602001632298181960e11b815250906110e15760405162461bcd60e51b81526004016105189190612a01565b506040805180820190915260048152634530313160e01b60208201528261111b5760405162461bcd60e51b81526004016105189190612a01565b50600a8360405161112c9190612b2a565b9081526040805191829003602090810183206000808052908252829020548383019092526004835263114c0c0d60e21b9083015260ff166111805760405162461bcd60e51b81526004016105189190612a01565b50816006846040516111929190612b2a565b90815260200160405180910390205410156111ef5760405162461bcd60e51b815260206004820152601d60248201527f496e73756666696369656e742063616d706169676e2062616c616e63650000006044820152606401610518565b816006846040516112009190612b2a565b9081526020016040518091039020600082825461121d9190612a95565b9250508190555060006006846040516112369190612b2a565b90815260200160405180910390205490507f037378c439105dd07d1db6d59a47347ea8f734a0835509a3820255c8be11cea0848483604051610a4193929190612b98565b600160005260046020908152600080516020612c6083398151915280546040805182850281018501909152818152606093909291908301828280156112e857602002820191906000526020600020905b81546001600160a01b031681526001909101906020018083116112ca575b5050505050905090565b600080546001600160a01b0316331461131d5760405162461bcd60e51b815260040161051890612a14565b61132685611df6565b604051806040016040528060048152602001634530303560e01b815250906113615760405162461bcd60e51b81526004016105189190612a01565b506000845111604051806040016040528060048152602001632298181960e11b815250906113a25760405162461bcd60e51b81526004016105189190612a01565b506113ac836122ed565b604051806040016040528060048152602001634530303360e01b815250906113e75760405162461bcd60e51b81526004016105189190612a01565b506040805180820190915260048152634530313160e01b60208201526001600160401b03831661142a5760405162461bcd60e51b81526004016105189190612a01565b506001600160a01b038084166000908152600560209081526040808320938916835292815282822060018352815290829020548251808401909352600483526308a6060760e31b918301919091528391906001600160401b03808416911610156114a75760405162461bcd60e51b81526004016105189190612a01565b506001600160a01b038085166000908152600560209081526040808320938a16835292815282822060018352905290812080548392906114f19084906001600160401b0316612ad7565b92506101000a8154816001600160401b0302191690836001600160401b03160217905550806007866040516115269190612b2a565b90815260408051602092819003830190206001600160a01b038a166000908152908352818120600182529092528120805490919061156e9084906001600160401b0316612b78565b82546101009290920a6001600160401b038181021990931691831602179091556001600160a01b038681166000908152600560209081526040808320938c1683529281528282206001835290528190205490519082169250908316906007906115d8908990612b2a565b90815260408051602092819003830190206001600160a01b038b166000908152908352818120600182529092529020546001600160401b031603611657577f0674090a69c67762650abcd64d1bc896d06756b85c925a9f28e97a30487db3ae8683600160405161164a93929190612bbd565b60405180910390a1611694565b7f64ef3840fadd155a2d8cb45b5f007ed1273c96ca6026ee12008d0809aa77eef78683600160405161168b93929190612bbd565b60405180910390a15b7f2fa1a54f364a5a61a29da95bf0632455b2fb41ab6434ad448e6432058203bffc8588836040516116c793929190612afe565b60405180910390a19695505050505050565b600080546001600160a01b031633146117045760405162461bcd60e51b815260040161051890612a14565b6040805180820190915260048152634530303160e01b60208201526001600160a01b0385166117465760405162461bcd60e51b81526004016105189190612a01565b506000835111604051806040016040528060048152602001632298181960e11b815250906117875760405162461bcd60e51b81526004016105189190612a01565b50611791826122ed565b604051806040016040528060048152602001634530303360e01b815250906117cc5760405162461bcd60e51b81526004016105189190612a01565b50600a836040516117dd9190612b2a565b90815260408051918290036020908101832060016000908152908252829020548383019092526004835263114c0c0d60e21b9083015260ff166118335760405162461bcd60e51b81526004016105189190612a01565b506008836040516118449190612b2a565b90815260408051918290036020908101832060016000908152908252829020548383019092526004835263114c0c0d60e21b9083015242116118995760405162461bcd60e51b81526004016105189190612a01565b506007836040516118aa9190612b2a565b90815260408051602092819003830190206001600160a01b03878116600081815292855283832060018085529086528484205492881684526005865284842091845290855283832090835290935290812080546001600160401b039384169391929161191891859116612b78565b92506101000a8154816001600160401b0302191690836001600160401b03160217905550600060078460405161194e9190612b2a565b90815260408051602092819003830181206001600160a01b0389811660008181529286528483206001808552908752858420805467ffffffffffffffff19166001600160401b03998a1617905591891683526005865284832090835285528382208183529094529190912054909216917f2a4a396795b36662ffe9a398a57fd654cf6ea95e79cf6d96d6f0267685687c3991610a4191879190612bf5565b600080546001600160a01b03163314611a175760405162461bcd60e51b815260040161051890612a14565b6000835111604051806040016040528060048152602001632298181960e11b81525090611a575760405162461bcd60e51b81526004016105189190612a01565b50611a61826122ed565b604051806040016040528060048152602001634530303360e01b81525090611a9c5760405162461bcd60e51b81526004016105189190612a01565b50600883604051611aad9190612b2a565b9081526040805191829003602090810183206000808052908252829020548383019092526004835263114c0c0d60e21b908301524211611b005760405162461bcd60e51b81526004016105189190612a01565b50600a83604051611b119190612b2a565b9081526040805191829003602090810183206000808052908252829020548383019092526004835263114c0c0d60e21b9083015260ff16611b655760405162461bcd60e51b81526004016105189190612a01565b50600683604051611b769190612b2a565b90815260200160405180910390205460026000846001600160a01b03166001600160a01b031681526020019081526020016000206000828254611bb99190612c1d565b925050819055506000600684604051611bd29190612b2a565b908152604080519182900360209081018320939093556001600160a01b03851660009081526002909352822054917f2a4a396795b36662ffe9a398a57fd654cf6ea95e79cf6d96d6f0267685687c3991611c2d918791612bf5565b60405180910390a190505b92915050565b6000546001600160a01b03163314611c685760405162461bcd60e51b815260040161051890612a14565b6000825111604051806040016040528060048152602001632298181960e11b81525090611ca85760405162461bcd60e51b81526004016105189190612a01565b506040805180820190915260048152630453031360e41b602082015281611ce25760405162461bcd60e51b81526004016105189190612a01565b50600a82604051611cf39190612b2a565b9081526040805191829003602090810183206000808052908252829020548383019092526004835263114c0c4d60e21b9083015260ff1615611d485760405162461bcd60e51b81526004016105189190612a01565b506001600a83604051611d5b9190612b2a565b9081526040805160209281900383019020600080805292529020805460ff1916911515919091179055611d8e8142612c1d565b600883604051611d9e9190612b2a565b908152604080516020928190038301812060008080529352908220929092557ffda0e6502dae3d85195083e39efa0c8bdccc7d5741b53cf5c57de0c33dc9aaa491611dea918591612bf5565b60405180910390a15050565b6001600160a01b03166000908152600080516020612c80833981519152602052604090205460ff1690565b600080546001600160a01b03163314611e4c5760405162461bcd60e51b815260040161051890612a14565b611e55836122ed565b604051806040016040528060048152602001634530303360e01b81525090611e905760405162461bcd60e51b81526004016105189190612a01565b508160026000856001600160a01b03166001600160a01b031681526020019081526020016000205410156040518060400160405280600481526020016308a6060760e31b81525090611ef55760405162461bcd60e51b81526004016105189190612a01565b506001600160a01b03831660009081526002602052604081208054849290611f1e908490612a95565b9250508190555081600685604051611f369190612b2a565b90815260200160405180910390206000828254611f539190612c1d565b90915550506001600160a01b038316600090815260026020526040908190205490518390600690611f85908890612b2a565b90815260200160405180910390205403611fda577f0674090a69c67762650abcd64d1bc896d06756b85c925a9f28e97a30487db3ae85846000604051611fcd93929190612c30565b60405180910390a161200e565b7f64ef3840fadd155a2d8cb45b5f007ed1273c96ca6026ee12008d0809aa77eef785846000604051610a4193929190612c30565b949350505050565b6000546001600160a01b031633146120405760405162461bcd60e51b815260040161051890612a14565b6000825111604051806040016040528060048152602001632298181960e11b815250906120805760405162461bcd60e51b81526004016105189190612a01565b506040805180820190915260048152630453031360e41b6020820152816120ba5760405162461bcd60e51b81526004016105189190612a01565b50600a826040516120cb9190612b2a565b90815260408051918290036020908101832060016000908152908252829020548383019092526004835263114c0c4d60e21b9083015260ff16156121225760405162461bcd60e51b81526004016105189190612a01565b506001600a836040516121359190612b2a565b90815260408051602092819003830190206001600090815292529020805460ff191691151591909117905561216a8142612c1d565b60088360405161217a9190612b2a565b90815260200160405180910390206000600163ffffffff168152602001908152602001600020819055507ffda0e6502dae3d85195083e39efa0c8bdccc7d5741b53cf5c57de0c33dc9aaa4826001604051611dea929190612bf5565b6000546001600160a01b031633146122005760405162461bcd60e51b815260040161051890612a14565b6040805180820190915260048152632298181960e11b60208201526001600160a01b0382166122425760405162461bcd60e51b81526004016105189190612a01565b5061224c816122ed565b15604051806040016040528060048152602001632298181b60e11b815250906122885760405162461bcd60e51b81526004016105189190612a01565b506001600160a01b0381166000818152600160208181526040808420805460ff19169093179092556002815281832092909255519182527f3d04fb94919fdfa7708320cdebdf093992d88d792b3d5f4144c364cda00129c6910160405180910390a150565b6001600160a01b031660009081526001602052604090205460ff1690565b6001600160a01b03821660009081526002602052604081208054839290612333908490612c1d565b9091555050604080516001600160a01b0384168152602081018390527f543ba50a5eec5e6178218e364b1d0f396157b3c8fa278522c2cb7fd99407d4749101611dea565b8060026000846001600160a01b03166001600160a01b031681526020019081526020016000205410156040518060400160405280600481526020016308a6060760e31b815250906123db5760405162461bcd60e51b81526004016105189190612a01565b506001600160a01b03821660009081526002602052604081208054839290612404908490612a95565b9091555050604080516001600160a01b0384168152602081018390527feaff4b37086828766ad3268786972c0cd24259d4c87a80f9d3963a3c3d999b0d9101611dea565b634e487b7160e01b600052604160045260246000fd5b600082601f83011261246f57600080fd5b81356001600160401b038082111561248957612489612448565b604051601f8301601f19908116603f011681019082821181831017156124b1576124b1612448565b816040528381528660208588010111156124ca57600080fd5b836020870160208301376000602085830101528094505050505092915050565b80356001600160a01b0381168114610bd057600080fd5b60008060006060848603121561251657600080fd5b83356001600160401b0381111561252c57600080fd5b6125388682870161245e565b935050612547602085016124ea565b9150604084013590509250925092565b6000806040838503121561256a57600080fd5b612573836124ea565b9150612581602084016124ea565b90509250929050565b60006020828403121561259c57600080fd5b6125a5826124ea565b9392505050565b80358015158114610bd057600080fd5b600080604083850312156125cf57600080fd5b6125d8836124ea565b9150612581602084016125ac565b80356001600160401b0381168114610bd057600080fd5b60008060006060848603121561261257600080fd5b61261b846124ea565b9250612629602085016124ea565b9150612637604085016125e6565b90509250925092565b60008060006060848603121561265557600080fd5b61265e846124ea565b9250612547602085016124ea565b6000806040838503121561267f57600080fd5b823563ffffffff8116811461257357600080fd5b6000806000606084860312156126a857600080fd5b6126b1846124ea565b925060208401359150612637604085016125ac565b6000602082840312156126d857600080fd5b81356001600160401b038111156126ee57600080fd5b61200e8482850161245e565b6000806000806080858703121561271057600080fd5b612719856124ea565b9350612727602086016124ea565b925060408501356001600160401b0381111561274257600080fd5b61274e8782880161245e565b92505061275d606086016125e6565b905092959194509250565b60008060006060848603121561277d57600080fd5b612786846124ea565b925060208401356001600160401b038111156127a157600080fd5b6127ad8682870161245e565b925050604084013590509250925092565b6020808252825182820181905260009190848201906040850190845b818110156127ff5783516001600160a01b0316835292840192918401916001016127da565b50909695505050505050565b6000806000806080858703121561282157600080fd5b61282a856124ea565b935060208501356001600160401b0381111561284557600080fd5b6128518782880161245e565b935050612860604086016124ea565b915061275d606086016125e6565b60008060006060848603121561288357600080fd5b61288c846124ea565b925060208401356001600160401b038111156128a757600080fd5b6128b38682870161245e565b925050612637604085016124ea565b600080604083850312156128d557600080fd5b82356001600160401b038111156128eb57600080fd5b6128f78582860161245e565b925050612581602084016124ea565b6000806040838503121561291957600080fd5b82356001600160401b0381111561292f57600080fd5b61293b8582860161245e565b95602094909401359450505050565b60208082526041908201527f556e617574686f72697a6520416363657373207265717565737465642c20436160408201527f6c6c6572206d757374206265206f776e6572206f722063616d706169676e65726060820152601760f91b608082015260a00190565b60005b838110156129cc5781810151838201526020016129b4565b50506000910152565b600081518084526129ed8160208601602086016129b1565b601f01601f19169290920160200192915050565b6020815260006125a560208301846129d5565b60208082526035908201527f556e617574686f72697a6520416363657373207265717565737465642c204361604082015274363632b91034b9903737ba103a34329037bbb732b960591b606082015260800190565b634e487b7160e01b600052603260045260246000fd5b634e487b7160e01b600052601160045260246000fd5b81810381811115611c3857611c38612a7f565b634e487b7160e01b600052603160045260246000fd5b600060018201612ad057612ad0612a7f565b5060010190565b6001600160401b03828116828216039080821115612af757612af7612a7f565b5092915050565b6001600160a01b0393841681529190921660208201526001600160401b03909116604082015260600190565b60008251612b3c8184602087016129b1565b9190910192915050565b606081526000612b5960608301866129d5565b90508360208301526001600160401b0383166040830152949350505050565b6001600160401b03818116838216019080821115612af757612af7612a7f565b606081526000612bab60608301866129d5565b60208301949094525060400152919050565b606081526000612bd060608301866129d5565b90506001600160401b038416602083015263ffffffff83166040830152949350505050565b604081526000612c0860408301856129d5565b905063ffffffff831660208301529392505050565b80820180821115611c3857611c38612a7f565b606081526000612c4360608301866129d5565b905083602083015263ffffffff8316604083015294935050505056feabd6e7cb50984ff9c2f3e18a2660c3353dadf4e3291deeb275dae2cd1e44fe05a15bc60c955c405d20d9149c709e2460f1c2d9a497496a7f46004d1772c3054ca2646970667358221220eb9e1e10175c56547dd5fdcc9b61face5fcdb082a4d90bec79eb6d618323614d64736f6c63430008110033",
  "immutableReferences": {},
  "source": "// SPDX-License-Identifier: Apache-2.0\r\npragma solidity ^0.8.17;\r\n\r\nimport \"./HashbuzzModules/HashbuzzStates.sol\";\r\nimport \"./HashbuzzModules/Utils.sol\";\r\nimport \"./HashbuzzModules/CampaignLifecycle.sol\";\r\nimport \"./HashbuzzModules/Transactions.sol\";\r\n\r\ncontract HashbuzzV201 is HashbuzzStates, Utils, Lifecycle, Transactions {\r\n    constructor() {\r\n        owner = msg.sender;\r\n        emit OwnerSet(owner);\r\n    }\r\n}\r\n",
  "sourcePath": "D:\\rajatk\\hashbuzz-staging\\smv201\\contracts\\HashbuzzV201.sol",
  "compiler": {
    "name": "solc",
    "version": "0.8.17+commit.8df45f5f.Emscripten.clang"
  },
  "schemaVersion": "3.4.16",
  "updatedAt": "2024-11-12T16:03:02.741Z",
  "devdoc": {
    "kind": "dev",
    "methods": {
      "addCampaignOrTopUp(string,address,uint256)": {
        "details": "Add a new campaign or top up an existing campaign",
        "params": {
          "amount": "The amount to be allocated to the campaign from the campaigner's balance.",
          "campaignAddress": "The db address of the campaign",
          "campaigner": "The solidity address of the campaigner or wallet address"
        }
      },
      "addCampaigner(address)": {
        "details": "Whitelist cmapigner to the user.",
        "params": {
          "newCampaigner": "Address of the user having campaigner role to be used here"
        }
      },
      "addFungibleAmount(address,address,uint64)": {
        "details": "Fungible token added to the campaigner account.",
        "params": {
          "campaigner": "Address soliduty address",
          "tokenAmount": "amount added to the cmapaigner account",
          "tokenId": "Address tokenId solidity address"
        }
      },
      "addFungibleCampaign(address,string,address,uint64)": {
        "details": "Add a new campaign for fungible tokens or top up an existing campaign",
        "params": {
          "campaignAddress": "The db address of the campaign",
          "campaigner": "The solidity address of the campaigner or wallet address",
          "tokenAmount": "The amount of tokens to be allocated to the campaign",
          "tokenId": "The address of the token in solidity format"
        }
      },
      "adjustTotalFungibleReward(address,address,string,uint64)": {
        "details": "Distribute fungible tokens to the campaigner",
        "params": {
          "campaignAddress": "The db address of the campaign",
          "campaigner": "The solidity address of the campaigner or wallet address",
          "tokenId": "The address of the token in solidity format",
          "tokenTotalAmount": "The total amount of tokens to be distributed"
        }
      },
      "adjustTotalReward(address,string,uint256)": {
        "details": "Distribute HBAR tokens to the campaigner",
        "params": {
          "campaignAddress": "The db address of the campaign",
          "campaigner": "The solidity address of the campaigner or wallet address",
          "totalAmount": "The total amount of tokens to be distributed"
        }
      },
      "associateToken(address,bool)": {
        "details": "Adds or removes a token from the whitelist.",
        "params": {
          "isWhitelisted": "Boolean flag to mark the token as whitelisted or not.",
          "tokenAddress": "The address of the token."
        }
      },
      "closeCampaign(string,uint256)": {
        "details": "Close a campaign with HBAR",
        "params": {
          "campaignAddress": "The db address of the campaign",
          "campaignExpiryTime": "The expiry time of the campaign in seconds"
        }
      },
      "closeFungibleCampaign(string,uint256)": {
        "details": "Close a campaign with fungible tokens",
        "params": {
          "campaignAddress": "The db address of the campaign",
          "campaignExpiryTime": "The expiry time of the campaign in seconds"
        }
      },
      "expiryCampaign(string,address)": {
        "details": "Expiry a campaign with HBAR",
        "params": {
          "campaignAddress": "The db address of the campaign",
          "campaigner": "The solidity address of the campaigner or wallet address"
        }
      },
      "expiryFungibleCampaign(address,string,address)": {
        "details": "Expiry a campaign with fungible tokens campaigners only",
        "params": {
          "campaignAddress": "The db address of the campaign",
          "campaigner": "The solidity address of the campaigner or wallet address",
          "tokenId": "The address of the token in solidity format"
        }
      },
      "getAllWhitelistedTokens()": {
        "details": "Retrieves all whitelisted addresses for a given token type.",
        "returns": {
          "_0": "An array of addresses that are whitelisted for the given token type."
        }
      },
      "getCampaignBalance(string)": {
        "details": "Balance holded by the user to see.",
        "params": {
          "campaignAddress": "Solidity address of the campaigner."
        }
      },
      "getFungibleTokenBalance(address,address)": {
        "params": {
          "campaigner": "Address of the campaigner'solidity address",
          "tokenId": "Solidity address used for the account"
        }
      },
      "getHbarBalance(address)": {
        "details": "Balance holded by the user to see.",
        "params": {
          "campaigner": "Solidity address of the campaigner."
        }
      },
      "isTokenWhitelisted(address)": {
        "details": "Checks if a specific token address is whitelisted for a given token type.",
        "params": {
          "tokenAddress": "The address of the token to check."
        },
        "returns": {
          "_0": "Boolean flag indicating if the token is whitelisted."
        }
      },
      "reimburseBalanceForFungible(address,address,uint64)": {
        "details": "This is function used for the  Reimbersing the cmapaigner balance",
        "params": {
          "amount": "Total amount campaigner wanted to reinverse",
          "campaigner": "Campainer Address",
          "tokenId": "Token solidity address"
        }
      },
      "updateBalance(address,uint256,bool)": {
        "details": "Topup and reimbersement cases",
        "params": {
          "amount": "Amount being topuped",
          "campaigner": "campaigner solidity address",
          "deposit": "Boolean is here"
        }
      }
    },
    "version": 1
  },
  "userdoc": {
    "kind": "user",
    "methods": {},
    "version": 1
  }
}