{
  "contractName": "HashbuzzV201",
  "abi": [
    {
      "inputs": [],
      "stateMutability": "nonpayable",
      "type": "constructor"
    },
    {
      "anonymous": false,
      "inputs": [
        {
          "indexed": false,
          "internalType": "address",
          "name": "campaigner",
          "type": "address"
        },
        {
          "indexed": false,
          "internalType": "uint256",
          "name": "updatedBalance",
          "type": "uint256"
        }
      ],
      "name": "BalanceUpdated",
      "type": "event"
    },
    {
      "anonymous": false,
      "inputs": [
        {
          "indexed": false,
          "internalType": "address",
          "name": "campaigner",
          "type": "address"
        }
      ],
      "name": "CampaignerAdded",
      "type": "event"
    },
    {
      "anonymous": false,
      "inputs": [
        {
          "indexed": false,
          "internalType": "address",
          "name": "campaigner",
          "type": "address"
        }
      ],
      "name": "CampaignerDeleted",
      "type": "event"
    },
    {
      "anonymous": false,
      "inputs": [
        {
          "indexed": false,
          "internalType": "address",
          "name": "tokenAddress",
          "type": "address"
        }
      ],
      "name": "CreatedToken",
      "type": "event"
    },
    {
      "anonymous": false,
      "inputs": [
        {
          "indexed": false,
          "internalType": "address",
          "name": "campaigner",
          "type": "address"
        },
        {
          "indexed": false,
          "internalType": "uint256",
          "name": "amount",
          "type": "uint256"
        }
      ],
      "name": "FundsDeposited",
      "type": "event"
    },
    {
      "anonymous": false,
      "inputs": [
        {
          "indexed": false,
          "internalType": "address",
          "name": "campaigner",
          "type": "address"
        },
        {
          "indexed": false,
          "internalType": "uint256",
          "name": "amount",
          "type": "uint256"
        }
      ],
      "name": "FundsWithdrawn",
      "type": "event"
    },
    {
      "anonymous": false,
      "inputs": [
        {
          "indexed": false,
          "internalType": "address",
          "name": "campaigner",
          "type": "address"
        },
        {
          "indexed": false,
          "internalType": "address",
          "name": "tokenId",
          "type": "address"
        },
        {
          "indexed": false,
          "internalType": "uint64",
          "name": "updatedBalance",
          "type": "uint64"
        }
      ],
      "name": "FungibleTokenBalanceUpdated",
      "type": "event"
    },
    {
      "anonymous": false,
      "inputs": [
        {
          "indexed": false,
          "internalType": "address",
          "name": "campaigner",
          "type": "address"
        },
        {
          "indexed": false,
          "internalType": "uint64",
          "name": "amount",
          "type": "uint64"
        }
      ],
      "name": "FungibleTokenDeposited",
      "type": "event"
    },
    {
      "anonymous": false,
      "inputs": [
        {
          "indexed": false,
          "internalType": "address",
          "name": "interactor",
          "type": "address"
        },
        {
          "indexed": false,
          "internalType": "address",
          "name": "campaigner",
          "type": "address"
        },
        {
          "indexed": false,
          "internalType": "uint256",
          "name": "amount",
          "type": "uint256"
        }
      ],
      "name": "InteractorPaid",
      "type": "event"
    },
    {
      "anonymous": false,
      "inputs": [
        {
          "indexed": false,
          "internalType": "string",
          "name": "campaignAddress",
          "type": "string"
        },
        {
          "indexed": false,
          "internalType": "uint256",
          "name": "amount",
          "type": "uint256"
        }
      ],
      "name": "InteractorPaidDeferred",
      "type": "event"
    },
    {
      "anonymous": false,
      "inputs": [
        {
          "indexed": false,
          "internalType": "string",
          "name": "campaignAdddress",
          "type": "string"
        },
        {
          "indexed": false,
          "internalType": "uint256",
          "name": "amount",
          "type": "uint256"
        },
        {
          "indexed": false,
          "internalType": "uint32",
          "name": "campaignType",
          "type": "uint32"
        }
      ],
      "name": "NewCampaignIsAdded",
      "type": "event"
    },
    {
      "anonymous": false,
      "inputs": [
        {
          "indexed": false,
          "internalType": "address",
          "name": "owner",
          "type": "address"
        }
      ],
      "name": "OwnerSet",
      "type": "event"
    },
    {
      "anonymous": false,
      "inputs": [
        {
          "indexed": false,
          "internalType": "int256",
          "name": "responseCode",
          "type": "int256"
        }
      ],
      "name": "ResponseCode",
      "type": "event"
    },
    {
      "anonymous": false,
      "inputs": [
        {
          "indexed": false,
          "internalType": "string",
          "name": "campaignAddress",
          "type": "string"
        },
        {
          "indexed": false,
          "internalType": "uint32",
          "name": "campaignType",
          "type": "uint32"
        }
      ],
      "name": "campaignClosed",
      "type": "event"
    },
    {
      "anonymous": false,
      "inputs": [
        {
          "indexed": false,
          "internalType": "string",
          "name": "campaignAddress",
          "type": "string"
        },
        {
          "indexed": false,
          "internalType": "uint32",
          "name": "campaignType",
          "type": "uint32"
        }
      ],
      "name": "campaignExpired",
      "type": "event"
    },
    {
      "stateMutability": "payable",
      "type": "fallback"
    },
    {
      "inputs": [],
      "name": "FUNGIBLE",
      "outputs": [
        {
          "internalType": "uint32",
          "name": "",
          "type": "uint32"
        }
      ],
      "stateMutability": "view",
      "type": "function"
    },
    {
      "inputs": [],
      "name": "HBAR",
      "outputs": [
        {
          "internalType": "uint32",
          "name": "",
          "type": "uint32"
        }
      ],
      "stateMutability": "view",
      "type": "function"
    },
    {
      "inputs": [],
      "name": "NFT",
      "outputs": [
        {
          "internalType": "uint32",
          "name": "",
          "type": "uint32"
        }
      ],
      "stateMutability": "view",
      "type": "function"
    },
    {
      "inputs": [
        {
          "internalType": "string",
          "name": "campaignAddress",
          "type": "string"
        },
        {
          "internalType": "address",
          "name": "campaigner",
          "type": "address"
        },
        {
          "internalType": "uint256",
          "name": "amount",
          "type": "uint256"
        }
      ],
      "name": "addCampaign",
      "outputs": [],
      "stateMutability": "nonpayable",
      "type": "function"
    },
    {
      "inputs": [
        {
          "internalType": "address",
          "name": "newCampaigner",
          "type": "address"
        }
      ],
      "name": "addCampaigner",
      "outputs": [],
      "stateMutability": "nonpayable",
      "type": "function"
    },
    {
      "inputs": [
        {
          "internalType": "address",
          "name": "campaigner",
          "type": "address"
        },
        {
          "internalType": "address",
          "name": "tokenId",
          "type": "address"
        },
        {
          "internalType": "int64",
          "name": "tokenAmount",
          "type": "int64"
        }
      ],
      "name": "addFungibleAmount",
      "outputs": [
        {
          "internalType": "int64",
          "name": "",
          "type": "int64"
        }
      ],
      "stateMutability": "nonpayable",
      "type": "function"
    },
    {
      "inputs": [
        {
          "internalType": "address",
          "name": "tokenId",
          "type": "address"
        },
        {
          "internalType": "string",
          "name": "campaignAddress",
          "type": "string"
        },
        {
          "internalType": "address",
          "name": "campaigner",
          "type": "address"
        },
        {
          "internalType": "int64",
          "name": "tokenAmount",
          "type": "int64"
        },
        {
          "internalType": "uint32",
          "name": "tokenType",
          "type": "uint32"
        }
      ],
      "name": "addFungibleAndNFTCampaign",
      "outputs": [],
      "stateMutability": "nonpayable",
      "type": "function"
    },
    {
      "inputs": [
        {
          "internalType": "address",
          "name": "sender",
          "type": "address"
        },
        {
          "internalType": "address",
          "name": "tokenAddress",
          "type": "address"
        },
        {
          "internalType": "uint32",
          "name": "tokenType",
          "type": "uint32"
        }
      ],
      "name": "associateToken",
      "outputs": [],
      "stateMutability": "nonpayable",
      "type": "function"
    },
    {
      "inputs": [
        {
          "internalType": "address",
          "name": "",
          "type": "address"
        }
      ],
      "name": "balances",
      "outputs": [
        {
          "internalType": "uint256",
          "name": "",
          "type": "uint256"
        }
      ],
      "stateMutability": "view",
      "type": "function"
    },
    {
      "inputs": [
        {
          "internalType": "string",
          "name": "",
          "type": "string"
        }
      ],
      "name": "campaignBalances",
      "outputs": [
        {
          "internalType": "uint256",
          "name": "",
          "type": "uint256"
        }
      ],
      "stateMutability": "view",
      "type": "function"
    },
    {
      "inputs": [
        {
          "internalType": "string",
          "name": "",
          "type": "string"
        }
      ],
      "name": "campaignRandomNumber",
      "outputs": [
        {
          "internalType": "uint32",
          "name": "",
          "type": "uint32"
        }
      ],
      "stateMutability": "view",
      "type": "function"
    },
    {
      "inputs": [
        {
          "internalType": "string",
          "name": "campaignAddress",
          "type": "string"
        },
        {
          "internalType": "uint256",
          "name": "campaignExpiryTime",
          "type": "uint256"
        }
      ],
      "name": "closeCampaign",
      "outputs": [],
      "stateMutability": "nonpayable",
      "type": "function"
    },
    {
      "inputs": [
        {
          "internalType": "string",
          "name": "campaignAddress",
          "type": "string"
        },
        {
          "internalType": "uint256",
          "name": "campaignExpiryTime",
          "type": "uint256"
        },
        {
          "internalType": "uint32",
          "name": "tokenType",
          "type": "uint32"
        }
      ],
      "name": "closeFungibleAndNFTCampaign",
      "outputs": [],
      "stateMutability": "nonpayable",
      "type": "function"
    },
    {
      "inputs": [
        {
          "internalType": "address",
          "name": "campaigner",
          "type": "address"
        },
        {
          "internalType": "string",
          "name": "campaignAddress",
          "type": "string"
        },
        {
          "internalType": "uint256",
          "name": "totalAmount",
          "type": "uint256"
        },
        {
          "internalType": "address[]",
          "name": "receiversAddresses",
          "type": "address[]"
        },
        {
          "internalType": "uint256[]",
          "name": "amounts",
          "type": "uint256[]"
        }
      ],
      "name": "distributeBalance",
      "outputs": [],
      "stateMutability": "nonpayable",
      "type": "function"
    },
    {
      "inputs": [
        {
          "internalType": "address",
          "name": "tokenId",
          "type": "address"
        },
        {
          "internalType": "address",
          "name": "campaigner",
          "type": "address"
        },
        {
          "internalType": "string",
          "name": "campaignAddress",
          "type": "string"
        },
        {
          "internalType": "int64",
          "name": "tokenTotalAmount",
          "type": "int64"
        },
        {
          "internalType": "uint32",
          "name": "tokenType",
          "type": "uint32"
        },
        {
          "internalType": "address[]",
          "name": "receiversAddresses",
          "type": "address[]"
        },
        {
          "internalType": "uint256[]",
          "name": "amounts",
          "type": "uint256[]"
        }
      ],
      "name": "distributeFungible",
      "outputs": [],
      "stateMutability": "nonpayable",
      "type": "function"
    },
    {
      "inputs": [
        {
          "internalType": "string",
          "name": "campaignAddress",
          "type": "string"
        },
        {
          "internalType": "address",
          "name": "campaigner",
          "type": "address"
        }
      ],
      "name": "expiryCampaign",
      "outputs": [],
      "stateMutability": "nonpayable",
      "type": "function"
    },
    {
      "inputs": [
        {
          "internalType": "address",
          "name": "tokenId",
          "type": "address"
        },
        {
          "internalType": "string",
          "name": "campaignAddress",
          "type": "string"
        },
        {
          "internalType": "address",
          "name": "campaigner",
          "type": "address"
        },
        {
          "internalType": "uint32",
          "name": "tokenType",
          "type": "uint32"
        }
      ],
      "name": "expiryFungibleCampaign",
      "outputs": [],
      "stateMutability": "nonpayable",
      "type": "function"
    },
    {
      "inputs": [
        {
          "internalType": "string",
          "name": "campaignAddress",
          "type": "string"
        }
      ],
      "name": "getCampaignBalance",
      "outputs": [
        {
          "internalType": "uint256",
          "name": "",
          "type": "uint256"
        }
      ],
      "stateMutability": "view",
      "type": "function"
    },
    {
      "inputs": [
        {
          "internalType": "address",
          "name": "campaigner",
          "type": "address"
        },
        {
          "internalType": "address",
          "name": "tokenId",
          "type": "address"
        },
        {
          "internalType": "uint32",
          "name": "tokenType",
          "type": "uint32"
        }
      ],
      "name": "getFungibleTokenBalance",
      "outputs": [
        {
          "internalType": "uint64",
          "name": "res",
          "type": "uint64"
        }
      ],
      "stateMutability": "view",
      "type": "function"
    },
    {
      "inputs": [
        {
          "internalType": "address",
          "name": "campaigner",
          "type": "address"
        },
        {
          "internalType": "address",
          "name": "tokenId",
          "type": "address"
        },
        {
          "internalType": "uint32",
          "name": "tokenType",
          "type": "uint32"
        }
      ],
      "name": "getNFTTokenBalance",
      "outputs": [
        {
          "internalType": "uint64",
          "name": "res",
          "type": "uint64"
        }
      ],
      "stateMutability": "view",
      "type": "function"
    },
    {
      "inputs": [],
      "name": "id",
      "outputs": [
        {
          "internalType": "uint32",
          "name": "",
          "type": "uint32"
        }
      ],
      "stateMutability": "view",
      "type": "function"
    },
    {
      "inputs": [
        {
          "internalType": "address",
          "name": "",
          "type": "address"
        }
      ],
      "name": "nftCampaigner",
      "outputs": [
        {
          "internalType": "uint32",
          "name": "",
          "type": "uint32"
        }
      ],
      "stateMutability": "view",
      "type": "function"
    },
    {
      "inputs": [
        {
          "internalType": "address",
          "name": "tokenId",
          "type": "address"
        },
        {
          "internalType": "address",
          "name": "campaigner",
          "type": "address"
        },
        {
          "internalType": "int64",
          "name": "amount",
          "type": "int64"
        },
        {
          "internalType": "uint32",
          "name": "tokenType",
          "type": "uint32"
        }
      ],
      "name": "reimburseBalanceForFungible",
      "outputs": [
        {
          "internalType": "int64",
          "name": "",
          "type": "int64"
        }
      ],
      "stateMutability": "nonpayable",
      "type": "function"
    },
    {
      "inputs": [
        {
          "internalType": "address",
          "name": "",
          "type": "address"
        }
      ],
      "name": "rewardBalances",
      "outputs": [
        {
          "internalType": "uint256",
          "name": "",
          "type": "uint256"
        }
      ],
      "stateMutability": "view",
      "type": "function"
    },
    {
      "inputs": [
        {
          "internalType": "address",
          "name": "",
          "type": "address"
        },
        {
          "internalType": "address",
          "name": "",
          "type": "address"
        },
        {
          "internalType": "uint256",
          "name": "",
          "type": "uint256"
        }
      ],
      "name": "rewardTokenBalances",
      "outputs": [
        {
          "internalType": "uint64",
          "name": "",
          "type": "uint64"
        }
      ],
      "stateMutability": "view",
      "type": "function"
    },
    {
      "inputs": [
        {
          "internalType": "address",
          "name": "",
          "type": "address"
        },
        {
          "internalType": "address",
          "name": "",
          "type": "address"
        },
        {
          "internalType": "uint256",
          "name": "",
          "type": "uint256"
        }
      ],
      "name": "tokenBalances",
      "outputs": [
        {
          "internalType": "uint64",
          "name": "",
          "type": "uint64"
        }
      ],
      "stateMutability": "view",
      "type": "function"
    },
    {
      "inputs": [
        {
          "internalType": "string",
          "name": "",
          "type": "string"
        },
        {
          "internalType": "address",
          "name": "",
          "type": "address"
        },
        {
          "internalType": "uint256",
          "name": "",
          "type": "uint256"
        }
      ],
      "name": "tokenCampaignBalances",
      "outputs": [
        {
          "internalType": "uint64",
          "name": "",
          "type": "uint64"
        }
      ],
      "stateMutability": "view",
      "type": "function"
    },
    {
      "inputs": [
        {
          "internalType": "address",
          "name": "campaigner",
          "type": "address"
        },
        {
          "internalType": "uint256",
          "name": "amount",
          "type": "uint256"
        },
        {
          "internalType": "bool",
          "name": "deposit",
          "type": "bool"
        }
      ],
      "name": "updateBalance",
      "outputs": [
        {
          "internalType": "uint256",
          "name": "",
          "type": "uint256"
        }
      ],
      "stateMutability": "nonpayable",
      "type": "function"
    },
    {
      "stateMutability": "payable",
      "type": "receive"
    }
  ],
  "bytecode": "0x6080604052600c805463ffffffff1916600117905534801561002057600080fd5b50600080546001600160a01b031916339081179091556040519081527f50146d0e3c60aa1d17a70635b05494f864e86144a2201275021014fbf08bafe29060200160405180910390a161303a806100786000396000f3fe6080604052600436106101a25760003560e01c8063715d8318116100e0578063af640d0f11610084578063bff3199611610061578063bff31996146105a4578063cfe3f9a8146105c4578063d84c0e2714610602578063e9de133e1461062257005b8063af640d0f14610534578063b466613014610551578063bc3ef1e91461057157005b80637c0b8de2116100bd5780637c0b8de2146104b257806387ac3ee7146104c757806393c8dc6d146104e7578063a7c7b1821461051457005b8063715d83181461045d578063734247e41461047d578063774256c71461049d57005b80634377e3ff116101475780635158d25d116101245780635158d25d146103ca5780636124ec26146103ea57806365f775631461041d57806370f13b7c1461043d57005b80634377e3ff146103485780634a3b1152146103725780634f18230d1461039257005b8063307869dd11610180578063307869dd1461027a5780633262af54146102c15780633468160314610308578063412288031461032857005b8062540521146101ab57806305346ac51461021f57806327e235e31461023f57005b366101a957005b005b3480156101b757600080fd5b506102026101c63660046125bc565b8251602081850181018051600782529282019582019590952091909452835260009182526040808320909352815220546001600160401b031681565b6040516001600160401b0390911681526020015b60405180910390f35b34801561022b57600080fd5b5061020261023a366004612626565b610642565b34801561024b57600080fd5b5061026c61025a366004612669565b60026020526000908152604090205481565b604051908152602001610216565b34801561028657600080fd5b5061020261029536600461268b565b60046020908152600093845260408085208252928452828420905282529020546001600160401b031681565b3480156102cd57600080fd5b506102026102dc36600461268b565b60056020908152600093845260408085208252928452828420905282529020546001600160401b031681565b34801561031457600080fd5b506101a96103233660046127b9565b61070d565b34801561033457600080fd5b5061026c610343366004612883565b6109fc565b34801561035457600080fd5b5061035d600181565b60405163ffffffff9091168152602001610216565b34801561037e57600080fd5b5061026c61038d3660046128c8565b610b1e565b34801561039e57600080fd5b5061026c6103ad3660046128c8565b805160208183018101805160068252928201919093012091525481565b3480156103d657600080fd5b506101a96103e5366004612626565b610b7f565b3480156103f657600080fd5b5061040a610405366004612904565b610c83565b60405160079190910b8152602001610216565b34801561042957600080fd5b506101a9610438366004612958565b610e82565b34801561044957600080fd5b506101a96104583660046129a5565b611148565b34801561046957600080fd5b506101a96104783660046125bc565b61144a565b34801561048957600080fd5b5061040a610498366004612a47565b611557565b3480156104a957600080fd5b5061035d600081565b3480156104be57600080fd5b5061035d600281565b3480156104d357600080fd5b506101a96104e2366004612a81565b611714565b3480156104f357600080fd5b5061026c610502366004612669565b60036020526000908152604090205481565b34801561052057600080fd5b506101a961052f366004612b00565b611ae6565b34801561054057600080fd5b50600c5461035d9063ffffffff1681565b34801561055d57600080fd5b506101a961056c366004612b4d565b611ccb565b34801561057d57600080fd5b5061035d61058c366004612669565b600a6020526000908152604090205463ffffffff1681565b3480156105b057600080fd5b506101a96105bf366004612669565b611e52565b3480156105d057600080fd5b5061035d6105df3660046128c8565b8051602081830181018051600d8252928201919093012091525463ffffffff1681565b34801561060e57600080fd5b5061020261061d366004612626565b611f5b565b34801561062e57600080fd5b506101a961063d366004612b91565b6120ab565b600080546001600160a01b0316331480610660575061066033612356565b6106855760405162461bcd60e51b815260040161067c90612be6565b60405180910390fd5b63ffffffff82166002146106ce5760405162461bcd60e51b815260206004820152601060248201526f151bdad95b881a5cc81b9bdd0813919560821b604482015260640161067c565b50506001600160a01b0391821660009081526004602090815260408083209390941682529182528281206002825290915220546001600160401b031690565b6000546001600160a01b031633146107375760405162461bcd60e51b815260040161067c90612c4d565b6001600160a01b03871661075d5760405162461bcd60e51b815260040161067c90612ca2565b61076686612356565b6107825760405162461bcd60e51b815260040161067c90612cd1565b60008551116107a35760405162461bcd60e51b815260040161067c90612d08565b60008460070b136107c65760405162461bcd60e51b815260040161067c90612d3f565b600b856040516107d69190612da9565b908152604080516020928190038301902063ffffffff86166000908152925290205460ff166108175760405162461bcd60e51b815260040161067c90612dc5565b836007866040516108289190612da9565b90815260408051602092819003830190206001600160a01b038b16600090815290835281812063ffffffff88168252909252812080549091906108759084906001600160401b0316612e0b565b92506101000a8154816001600160401b0302191690836001600160401b0316021790555060005b82518110156109f25760008382815181106108b9576108b9612e32565b6020026020010151905060008383815181106108d7576108d7612e32565b6020908102919091018101516001600160a01b038085166000908152600584526040808220928f16825291845281812063ffffffff8b1682529093528220549092506001600160401b0316900361096b576001600160a01b038083166000908152600560209081526040808320938e16835292815282822063ffffffff8a168352905220805467ffffffffffffffff191690555b6001600160a01b038083166000908152600560209081526040808320938e16835292815282822063ffffffff8a168352905290812080548392906109b99084906001600160401b0316612e48565b92506101000a8154816001600160401b0302191690836001600160401b03160217905550505080806109ea90612e68565b91505061089c565b5050505050505050565b600080546001600160a01b03163314610a275760405162461bcd60e51b815260040161067c90612c4d565b6001600160a01b038416610a4d5760405162461bcd60e51b815260040161067c90612e81565b610a5684612356565b610aa25760405162461bcd60e51b815260206004820152601860248201527f43616d706169676e6572206973206e6f74206c69737465640000000000000000604482015260640161067c565b8115610ab757610ab28484612374565b610ac1565b610ac18484612408565b6001600160a01b038416600081815260026020908152604091829020548251938452908301819052917f8ad64a0ac7700dd8425ab0499f107cb6e2cd1581d803c5b8c1c79dcb8190b1af91015b60405180910390a1949350505050565b600080546001600160a01b0316331480610b3c5750610b3c33612356565b610b585760405162461bcd60e51b815260040161067c90612be6565b600682604051610b689190612da9565b90815260200160405180910390205490505b919050565b6000546001600160a01b03163314610ba95760405162461bcd60e51b815260040161067c90612c4d565b60001963ffffffff821601610bf9576001600160a01b038084166000908152600860209081526040808320938616835292815282822060018084529152919020805460ff19169091179055505050565b60011963ffffffff821601610c46576001600160a01b038084166000908152600860209081526040808320938616835292815282822060028352905220805460ff19166001179055505050565b60405162461bcd60e51b8152602060048201526012602482015271496e76616c696420746f6b656e207479706560701b604482015260640161067c565b600080546001600160a01b03163314610cae5760405162461bcd60e51b815260040161067c90612c4d565b63ffffffff8216600114610cfc5760405162461bcd60e51b8152602060048201526015602482015274546f6b656e206973206e6f742066756e6769626c6560581b604482015260640161067c565b6001600160a01b038085166000908152600460209081526040808320938916835292815282822060018352905220546001600160401b0380851691161015610d985760405162461bcd60e51b815260206004820152602960248201527f496e73756666696369656e742066756e642072657175657374656420666f72206044820152687265696d627572736560b81b606482015260840161067c565b6001600160a01b03808516600090815260046020908152604080832093891683529281528282206001835290529081208054859290610de19084906001600160401b0316612e0b565b82546101009290920a6001600160401b038181021990931691831602179091556001600160a01b038681166000818152600460209081526040808320948c1680845294825280832060018452825291829020548251938452908301939093529190921690820181905291507f2fa1a54f364a5a61a29da95bf0632455b2fb41ab6434ad448e6432058203bffc9060600160405180910390a195945050505050565b6000546001600160a01b03163314610eac5760405162461bcd60e51b815260040161067c90612c4d565b6000835111610ecd5760405162461bcd60e51b815260040161067c90612d08565b60008211610f1d5760405162461bcd60e51b815260206004820152601c60248201527f496e76616c69642063616d706169676e206578706972792074696d6500000000604482015260640161067c565b60001963ffffffff82160161103957600b83604051610f3c9190612da9565b908152604080516020928190038301902060016000908152925290205460ff1615610f795760405162461bcd60e51b815260040161067c90612eb8565b6001600b84604051610f8b9190612da9565b90815260408051602092819003830190206001600090815292529020805460ff1916911515919091179055610fc08242612eef565b600984604051610fd09190612da9565b90815260200160405180910390206000600163ffffffff168152602001908152602001600020819055507ffda0e6502dae3d85195083e39efa0c8bdccc7d5741b53cf5c57de0c33dc9aaa483600160405161102c929190612f34565b60405180910390a1505050565b60011963ffffffff821601610c4657600b836040516110589190612da9565b908152604080516020928190038301902060026000908152925290205460ff16156110955760405162461bcd60e51b815260040161067c90612eb8565b6001600b846040516110a79190612da9565b90815260408051602092819003830190206002600090815292529020805460ff19169115159190911790556110dc8242612eef565b6009846040516110ec9190612da9565b90815260200160405180910390206000600263ffffffff168152602001908152602001600020819055507ffda0e6502dae3d85195083e39efa0c8bdccc7d5741b53cf5c57de0c33dc9aaa483600260405161102c929190612f34565b6000546001600160a01b031633146111725760405162461bcd60e51b815260040161067c90612c4d565b61117b85612356565b6111975760405162461bcd60e51b815260040161067c90612cd1565b60008451116111b85760405162461bcd60e51b815260040161067c90612d08565b600083116112175760405162461bcd60e51b815260206004820152602660248201527f546f74616c20616d6f756e74206d7573742062652067726561746572207468616044820152656e207a65726f60d01b606482015260840161067c565b600b846040516112279190612da9565b90815260408051602092819003830190206000808052925290205460ff166112615760405162461bcd60e51b815260040161067c90612dc5565b80518251146112b25760405162461bcd60e51b815260206004820152601760248201527f4d69736d61746368656420696e70757420617272617973000000000000000000604482015260640161067c565b826006856040516112c39190612da9565b908152602001604051809103902054101561133b5760405162461bcd60e51b815260206004820152603260248201527f496e73756666696369656e742063616d706169676e2062616c616e636520746f60448201527108191a5cdd1c9a589d5d1948185b5bdd5b9d60721b606482015260840161067c565b8260068560405161134c9190612da9565b908152602001604051809103902060008282546113699190612f5c565b90915550600090505b825181101561144257600083828151811061138f5761138f612e32565b6020026020010151905060008383815181106113ad576113ad612e32565b6020026020010151905060036000836001600160a01b03166001600160a01b03168152602001908152602001600020546000036113fe576001600160a01b0382166000908152600360205260408120555b6001600160a01b03821660009081526003602052604081208054839290611426908490612eef565b925050819055505050808061143a90612e68565b915050611372565b505050505050565b6000546001600160a01b031633146114745760405162461bcd60e51b815260040161067c90612c4d565b61147d82612356565b6114995760405162461bcd60e51b815260040161067c90612cd1565b6001600160a01b0382166000908152600260205260409020548111156114d15760405162461bcd60e51b815260040161067c90612f6f565b6001600160a01b038216600090815260026020526040812080548392906114f9908490612f5c565b92505081905550806006846040516115119190612da9565b9081526020016040518091039020819055507f0674090a69c67762650abcd64d1bc896d06756b85c925a9f28e97a30487db3ae8382600060405161102c93929190612f9d565b600080546001600160a01b031633146115825760405162461bcd60e51b815260040161067c90612c4d565b61158b84612356565b6115d75760405162461bcd60e51b815260206004820152601960248201527f43616d706169676e6572206973206e6f74206c69737465642e00000000000000604482015260640161067c565b6001600160a01b038085166000908152600460209081526040808320938716835292815282822060018352905290812080548492906116209084906001600160401b0316612e48565b92506101000a8154816001600160401b0302191690836001600160401b031602179055507fc7a2e037ca848c5f8478afbc374474f095ffe9245e2b0e5deccc07b623e4eb7384836040516116929291906001600160a01b039290921682526001600160401b0316602082015260400190565b60405180910390a16001600160a01b03848116600081815260046020908152604080832094881680845294825280832060018452825291829020548251938452908301939093526001600160401b039092169181018290527f2fa1a54f364a5a61a29da95bf0632455b2fb41ab6434ad448e6432058203bffc90606001610b0e565b6000546001600160a01b0316331461173e5760405162461bcd60e51b815260040161067c90612c4d565b6001600160a01b0385166117645760405162461bcd60e51b815260040161067c90612ca2565b60008451116117855760405162461bcd60e51b815260040161067c90612d08565b61178e83612356565b6117aa5760405162461bcd60e51b815260040161067c90612cd1565b60008260070b136117cd5760405162461bcd60e51b815260040161067c90612d3f565b60001963ffffffff8216016119db576001600160a01b0380841660009081526004602090815260408083209389168352928152828220600183529052205482906001600160401b03808316911610156118385760405162461bcd60e51b815260040161067c90612f6f565b6007856040516118489190612da9565b90815260408051602092819003830190206001600160a01b0389166000908152908352818120600182529092529020546001600160401b0316156118ce5760405162461bcd60e51b815260206004820152601b60248201527f43757272656e742062616c616e6365206973206e6f6e2d7a65726f0000000000604482015260640161067c565b6001600160a01b038085166000908152600460209081526040808320938a16835292815282822060018352905290812080548392906119179084906001600160401b0316612e0b565b92506101000a8154816001600160401b0302191690836001600160401b031602179055508060078660405161194c9190612da9565b90815260408051602092819003830181206001600160a01b038b1660009081529084528281206001808352945291909120805467ffffffffffffffff19166001600160401b0394909416939093179092557f0674090a69c67762650abcd64d1bc896d06756b85c925a9f28e97a30487db3ae916119cd918891859190612fcc565b60405180910390a150611adf565b60011963ffffffff821601610c46576001600160a01b038084166000908152600460209081526040808320938916835292815282822060028352905220546001600160401b0380841691161015611a445760405162461bcd60e51b815260040161067c90612f6f565b81600785604051611a559190612da9565b90815260408051602092819003830181206001600160a01b038a1660009081529084528281206002808352945291909120805467ffffffffffffffff19166001600160401b0394909416939093179092557f0674090a69c67762650abcd64d1bc896d06756b85c925a9f28e97a30487db3ae91611ad6918791869190612fcc565b60405180910390a15b5050505050565b6000546001600160a01b03163314611b105760405162461bcd60e51b815260040161067c90612c4d565b6000825111611b315760405162461bcd60e51b815260040161067c90612d08565b6001600160a01b038116611b575760405162461bcd60e51b815260040161067c90612e81565b600982604051611b679190612da9565b9081526040805160209281900383019020600080805292529020544211611bc55760405162461bcd60e51b815260206004820152601260248201527110d85b5c185a59db881b9bdd08195b99195960721b604482015260640161067c565b600b82604051611bd59190612da9565b90815260408051602092819003830190206000808052925290205460ff16611c0f5760405162461bcd60e51b815260040161067c90612dc5565b600682604051611c1f9190612da9565b90815260200160405180910390205460026000836001600160a01b03166001600160a01b031681526020019081526020016000206000828254611c629190612eef565b925050819055506000600683604051611c7b9190612da9565b9081526020016040518091039020819055507f2a4a396795b36662ffe9a398a57fd654cf6ea95e79cf6d96d6f0267685687c39826000604051611cbf929190612f34565b60405180910390a15050565b6000546001600160a01b03163314611cf55760405162461bcd60e51b815260040161067c90612c4d565b6000825111611d165760405162461bcd60e51b815260040161067c90612d08565b60008111611d665760405162461bcd60e51b815260206004820152601c60248201527f496e76616c69642063616d706169676e206578706972792074696d6500000000604482015260640161067c565b600b82604051611d769190612da9565b90815260408051602092819003830190206000808052925290205460ff1615611db15760405162461bcd60e51b815260040161067c90612eb8565b6001600b83604051611dc39190612da9565b9081526040805160209281900383019020600080805292529020805460ff1916911515919091179055611df68142612eef565b600983604051611e069190612da9565b908152604080516020928190038301812060008080529352908220929092557ffda0e6502dae3d85195083e39efa0c8bdccc7d5741b53cf5c57de0c33dc9aaa491611cbf918591612f34565b6000546001600160a01b03163314611e7c5760405162461bcd60e51b815260040161067c90612c4d565b6001600160a01b038116611ea25760405162461bcd60e51b815260040161067c90612e81565b611eab81612356565b611ef75760405162461bcd60e51b815260206004820152601960248201527f43616d706169676e657220616c72656164792065786973747300000000000000604482015260640161067c565b6001600160a01b0381166000818152600160208181526040808420805460ff19169093179092556002815281832092909255519182527f3d04fb94919fdfa7708320cdebdf093992d88d792b3d5f4144c364cda00129c6910160405180910390a150565b600080546001600160a01b0316331480611f795750611f7933612356565b611f955760405162461bcd60e51b815260040161067c90612be6565b63ffffffff8216600114611fe35760405162461bcd60e51b8152602060048201526015602482015274546f6b656e206973206e6f742066756e6769626c6560581b604482015260640161067c565b6001600160a01b0380851660009081526008602090815260408083209387168352928152828220600183529052205460ff1661206c5760405162461bcd60e51b815260206004820152602260248201527f52657175657374656420746f6b656e206973206e6f742077686974656c697374604482015261195960f21b606482015260840161067c565b50506001600160a01b0391821660009081526004602090815260408083209390941682529182528281206001825290915220546001600160401b031690565b6000546001600160a01b031633146120d55760405162461bcd60e51b815260040161067c90612c4d565b6001600160a01b0384166120fb5760405162461bcd60e51b815260040161067c90612ca2565b600083511161211c5760405162461bcd60e51b815260040161067c90612d08565b6001600160a01b0382166121425760405162461bcd60e51b815260040161067c90612e81565b600b836040516121529190612da9565b908152604080516020928190038301902063ffffffff84166000908152925290205460ff166121935760405162461bcd60e51b815260040161067c90612dc5565b6009836040516121a39190612da9565b908152602001604051809103902060008263ffffffff16815260200190815260200160002054421161220c5760405162461bcd60e51b815260206004820152601260248201527110d85b5c185a59db881b9bdd08195b99195960721b604482015260640161067c565b60078360405161221c9190612da9565b90815260408051602092819003830190206001600160a01b03878116600081815292855283832063ffffffff87168085529086528484205492881684526004865284842091845290855283832090835290935290812080546001600160401b039384169391929161228f91859116612e48565b92506101000a8154816001600160401b0302191690836001600160401b0316021790555060006007846040516122c59190612da9565b90815260408051602092819003830181206001600160a01b038916600090815290845282812063ffffffff871682529093529120805467ffffffffffffffff19166001600160401b0393909316929092179091557f2a4a396795b36662ffe9a398a57fd654cf6ea95e79cf6d96d6f0267685687c39906123489085908490612f34565b60405180910390a150505050565b6001600160a01b031660009081526001602052604090205460ff1690565b6001600160a01b038216600090815260026020526040812054900361239c5761239c82611e52565b6001600160a01b038216600090815260026020526040812080548392906123c4908490612eef565b9091555050604080516001600160a01b0384168152602081018390527f543ba50a5eec5e6178218e364b1d0f396157b3c8fa278522c2cb7fd99407d4749101611cbf565b6001600160a01b0382166000908152600260205260409020548111156124845760405162461bcd60e51b815260206004820152602b60248201527f496e73756666696369656e742062616c616e636520726571756573746564206660448201526a6f7220776974686472617760a81b606482015260840161067c565b6001600160a01b038216600090815260026020526040812080548392906124ac908490612f5c565b9091555050604080516001600160a01b0384168152602081018390527feaff4b37086828766ad3268786972c0cd24259d4c87a80f9d3963a3c3d999b0d9101611cbf565b634e487b7160e01b600052604160045260246000fd5b604051601f8201601f191681016001600160401b038111828210171561252e5761252e6124f0565b604052919050565b600082601f83011261254757600080fd5b81356001600160401b03811115612560576125606124f0565b612573601f8201601f1916602001612506565b81815284602083860101111561258857600080fd5b816020850160208301376000918101602001919091529392505050565b80356001600160a01b0381168114610b7a57600080fd5b6000806000606084860312156125d157600080fd5b83356001600160401b038111156125e757600080fd5b6125f386828701612536565b935050612602602085016125a5565b9150604084013590509250925092565b803563ffffffff81168114610b7a57600080fd5b60008060006060848603121561263b57600080fd5b612644846125a5565b9250612652602085016125a5565b915061266060408501612612565b90509250925092565b60006020828403121561267b57600080fd5b612684826125a5565b9392505050565b6000806000606084860312156126a057600080fd5b6126a9846125a5565b9250612602602085016125a5565b8035600781900b8114610b7a57600080fd5b60006001600160401b038211156126e2576126e26124f0565b5060051b60200190565b600082601f8301126126fd57600080fd5b8135602061271261270d836126c9565b612506565b82815260059290921b8401810191818101908684111561273157600080fd5b8286015b8481101561275357612746816125a5565b8352918301918301612735565b509695505050505050565b600082601f83011261276f57600080fd5b8135602061277f61270d836126c9565b82815260059290921b8401810191818101908684111561279e57600080fd5b8286015b8481101561275357803583529183019183016127a2565b600080600080600080600060e0888a0312156127d457600080fd5b6127dd886125a5565b96506127eb602089016125a5565b955060408801356001600160401b038082111561280757600080fd5b6128138b838c01612536565b965061282160608b016126b7565b955061282f60808b01612612565b945060a08a013591508082111561284557600080fd5b6128518b838c016126ec565b935060c08a013591508082111561286757600080fd5b506128748a828b0161275e565b91505092959891949750929550565b60008060006060848603121561289857600080fd5b6128a1846125a5565b925060208401359150604084013580151581146128bd57600080fd5b809150509250925092565b6000602082840312156128da57600080fd5b81356001600160401b038111156128f057600080fd5b6128fc84828501612536565b949350505050565b6000806000806080858703121561291a57600080fd5b612923856125a5565b9350612931602086016125a5565b925061293f604086016126b7565b915061294d60608601612612565b905092959194509250565b60008060006060848603121561296d57600080fd5b83356001600160401b0381111561298357600080fd5b61298f86828701612536565b9350506020840135915061266060408501612612565b600080600080600060a086880312156129bd57600080fd5b6129c6866125a5565b945060208601356001600160401b03808211156129e257600080fd5b6129ee89838a01612536565b9550604088013594506060880135915080821115612a0b57600080fd5b612a1789838a016126ec565b93506080880135915080821115612a2d57600080fd5b50612a3a8882890161275e565b9150509295509295909350565b600080600060608486031215612a5c57600080fd5b612a65846125a5565b9250612a73602085016125a5565b9150612660604085016126b7565b600080600080600060a08688031215612a9957600080fd5b612aa2866125a5565b945060208601356001600160401b03811115612abd57600080fd5b612ac988828901612536565b945050612ad8604087016125a5565b9250612ae6606087016126b7565b9150612af460808701612612565b90509295509295909350565b60008060408385031215612b1357600080fd5b82356001600160401b03811115612b2957600080fd5b612b3585828601612536565b925050612b44602084016125a5565b90509250929050565b60008060408385031215612b6057600080fd5b82356001600160401b03811115612b7657600080fd5b612b8285828601612536565b95602094909401359450505050565b60008060008060808587031215612ba757600080fd5b612bb0856125a5565b935060208501356001600160401b03811115612bcb57600080fd5b612bd787828801612536565b93505061293f604086016125a5565b60208082526041908201527f556e617574686f72697a6520416363657373207265717565737465642c20436160408201527f6c6c6572206d757374206265206f776e6572206f722063616d706169676e65726060820152601760f91b608082015260a00190565b60208082526035908201527f556e617574686f72697a6520416363657373207265717565737465642c204361604082015274363632b91034b9903737ba103a34329037bbb732b960591b606082015260800190565b602080825260159082015274496e76616c696420746f6b656e206164647265737360581b604082015260600190565b60208082526017908201527f43616d706169676e20616c726561647920657869737473000000000000000000604082015260600190565b60208082526018908201527f496e76616c69642063616d706169676e20616464726573730000000000000000604082015260600190565b60208082526026908201527f546f6b656e20616d6f756e74206d7573742062652067726561746572207468616040820152656e207a65726f60d01b606082015260800190565b60005b83811015612da0578181015183820152602001612d88565b50506000910152565b60008251612dbb818460208701612d85565b9190910192915050565b60208082526016908201527510d85b5c185a59db881a5cc81b9bdd0818db1bdcd95960521b604082015260600190565b634e487b7160e01b600052601160045260246000fd5b6001600160401b03828116828216039080821115612e2b57612e2b612df5565b5092915050565b634e487b7160e01b600052603260045260246000fd5b6001600160401b03818116838216019080821115612e2b57612e2b612df5565b600060018201612e7a57612e7a612df5565b5060010190565b6020808252601a908201527f496e76616c69642063616d706169676e65722061646472657373000000000000604082015260600190565b60208082526017908201527f43616d706169676e20616c726561647920636c6f736564000000000000000000604082015260600190565b80820180821115612f0257612f02612df5565b92915050565b60008151808452612f20816020860160208601612d85565b601f01601f19169290920160200192915050565b604081526000612f476040830185612f08565b905063ffffffff831660208301529392505050565b81810381811115612f0257612f02612df5565b602080825260149082015273496e73756666696369656e742062616c616e636560601b604082015260600190565b606081526000612fb06060830186612f08565b905083602083015263ffffffff83166040830152949350505050565b606081526000612fdf6060830186612f08565b90506001600160401b038416602083015263ffffffff8316604083015294935050505056fea2646970667358221220fb26b9d253bac9ec77a51dd999d13c9d3a2c88a2b7138e16675f2e20e14b36e764736f6c63430008110033",
  "immutableReferences": {},
  "source": "// SPDX-License-Identifier: Apache-2.0\r\npragma solidity ^0.8.17;\r\n\r\nimport \"./HashbuzzModules/HashbuzzStates.sol\";\r\nimport \"./HashbuzzModules/Utils.sol\";\r\nimport \"./HashbuzzModules/CampaignLifecycle.sol\";\r\nimport \"./HashbuzzModules/Transactions.sol\";\r\n\r\ncontract HashbuzzV201 is HashbuzzStates, Utils, Lifecycle, Transactions {\r\n    constructor() {\r\n        owner = msg.sender;\r\n        emit OwnerSet(owner);\r\n    }\r\n\r\n    receive() external payable {}\r\n    fallback() external payable {}\r\n}\r\n",
  "sourcePath": "D:\\rajatk\\hashbuzz-staging\\smv201\\contracts\\HashbuzzV201.sol",
  "compiler": {
    "name": "solc",
    "version": "0.8.17+commit.8df45f5f.Emscripten.clang"
  },
  "schemaVersion": "3.4.16",
  "updatedAt": "2024-10-27T11:04:29.936Z",
  "devdoc": {
    "kind": "dev",
    "methods": {
      "addCampaign(string,address,uint256)": {
        "details": "Add a new campaign",
        "params": {
          "amount": "The amount to be allocated to the campaign from the campaigner's balance.",
          "campaignAddress": "The db address of the campaign",
          "campaigner": "The solidity address of the campaigner or wallet address"
        }
      },
      "addCampaigner(address)": {
        "details": "Whitelist cmapigner to the user.",
        "params": {
          "newCampaigner": "Address of the user having campaigner role to be used here"
        }
      },
      "addFungibleAmount(address,address,int64)": {
        "details": "Fungible token added to the campaigner account.",
        "params": {
          "campaigner": "Address soliduty address",
          "tokenAmount": "amount added to the cmapaigner account",
          "tokenId": "Address tokenId solidity address"
        }
      },
      "addFungibleAndNFTCampaign(address,string,address,int64,uint32)": {
        "details": "Add a new campaign for fungible and NFT tokens",
        "params": {
          "campaignAddress": "The db address of the campaign [string]",
          "campaigner": "The solidity address of the campaigner or wallet address",
          "tokenAmount": "The amount of tokens to be allocated to the campaign",
          "tokenId": "The address of the token in solidity format",
          "tokenType": "The type of the token (FUNGIBLE or NFT) [uint32] (1 for FUNGIBLE & 2 for NFT)"
        }
      },
      "associateToken(address,address,uint32)": {
        "params": {
          "sender": "Oly owner will be sender of this function.",
          "tokenAddress": "Solidty address of the campaigner.",
          "tokenType": "The type of the token (FUNGIBLE or NFT) [uint32] (1 for FUNGIBLE & 2 for NFT)"
        }
      },
      "closeCampaign(string,uint256)": {
        "details": "Close a campaign with HBAR",
        "params": {
          "campaignAddress": "The db address of the campaign",
          "campaignExpiryTime": "The expiry time of the campaign in seconds"
        }
      },
      "closeFungibleAndNFTCampaign(string,uint256,uint32)": {
        "details": "Close a campaign with fungible and NFT tokens",
        "params": {
          "campaignAddress": "The db address of the campaign",
          "campaignExpiryTime": "The expiry time of the campaign in seconds",
          "tokenType": "The type of the token (FUNGIBLE = 1 OR  NFT = 2)"
        }
      },
      "distributeBalance(address,string,uint256,address[],uint256[])": {
        "details": "Distribute HBAR tokens to the campaigner",
        "params": {
          "amounts": "The amounts to be distributed to each receiver",
          "campaignAddress": "The db address of the campaign",
          "campaigner": "The solidity address of the campaigner or wallet address",
          "receiversAddresses": "The addresses of the receivers take max 50 addresses in one call",
          "totalAmount": "The total amount of tokens to be distributed"
        }
      },
      "distributeFungible(address,address,string,int64,uint32,address[],uint256[])": {
        "details": "Distribute HBAR tokens to the campaigner",
        "params": {
          "amounts": "The amounts to be distributed to each receiver",
          "campaignAddress": "The db address of the campaign",
          "campaigner": "The solidity address of the campaigner or wallet address",
          "receiversAddresses": "The addresses of the receivers take max 50 addresses in one call",
          "tokenId": "The address of the token in solidity format",
          "tokenTotalAmount": "The total amount of tokens to be distributed",
          "tokenType": "The type of the token (FUNGIBLE or NFT)"
        }
      },
      "expiryCampaign(string,address)": {
        "details": "Expiry a campaign with HBAR",
        "params": {
          "campaignAddress": "The db address of the campaign",
          "campaigner": "The solidity address of the campaigner or wallet address"
        }
      },
      "expiryFungibleCampaign(address,string,address,uint32)": {
        "details": "Expiry a campaign with fungible and NFT tokens",
        "params": {
          "campaignAddress": "The db address of the campaign",
          "campaigner": "The solidity address of the campaigner or wallet address",
          "tokenId": "The address of the token in solidity format",
          "tokenType": "The type of the token (FUNGIBLE or NFT) [uint32] (1 for FUNGIBLE & 2 for NFT)"
        }
      },
      "getCampaignBalance(string)": {
        "details": "Balance holded by the user to see.",
        "params": {
          "campaignAddress": "Solidity address of the campaigner."
        }
      },
      "getFungibleTokenBalance(address,address,uint32)": {
        "params": {
          "campaigner": "Address of the campaigner'solidity address",
          "tokenId": "Solidity address used for the account",
          "tokenType": "The type of the token (FUNGIBLE or NFT) [uint32] (1 for FUNGIBLE & 2 for NFT)"
        }
      },
      "getNFTTokenBalance(address,address,uint32)": {
        "details": "Balance holded by the user to see.",
        "params": {
          "campaigner": "Solidity address of the campaigner.",
          "tokenId": "Solidity address of the token.",
          "tokenType": "The type of the token (FUNGIBLE or NFT) [uint32] (1 for FUNGIBLE & 2 for NFT)                  1 for FUNGIBLE and 2 for NFT."
        }
      },
      "reimburseBalanceForFungible(address,address,int64,uint32)": {
        "details": "This is function used for the  Reimbersing the cmapaigner balance",
        "params": {
          "amount": "Total amount campaigner wanted to reinverse",
          "campaigner": "Campainer Address",
          "tokenId": "Token solidity address",
          "tokenType": "The type of the token (FUNGIBLE or NFT) [uint32] (1 for FUNGIBLE & 2 for NFT)"
        }
      },
      "updateBalance(address,uint256,bool)": {
        "details": "Topup and reimbersement cases",
        "params": {
          "amount": "Amount being topuped",
          "campaigner": "campaigner solidity address",
          "deposit": "Boolean is here"
        }
      }
    },
    "version": 1
  },
  "userdoc": {
    "kind": "user",
    "methods": {},
    "version": 1
  }
}