{
  "contractName": "HashbuzzV201",
  "abi": [
    {
      "inputs": [],
      "stateMutability": "nonpayable",
      "type": "constructor"
    },
    {
      "anonymous": false,
      "inputs": [
        {
          "indexed": false,
          "internalType": "address",
          "name": "campaigner",
          "type": "address"
        },
        {
          "indexed": false,
          "internalType": "uint256",
          "name": "updatedBalance",
          "type": "uint256"
        }
      ],
      "name": "BalanceUpdated",
      "type": "event"
    },
    {
      "anonymous": false,
      "inputs": [
        {
          "indexed": false,
          "internalType": "string",
          "name": "campaignAddress",
          "type": "string"
        },
        {
          "indexed": false,
          "internalType": "uint256",
          "name": "amount",
          "type": "uint256"
        },
        {
          "indexed": false,
          "internalType": "uint32",
          "name": "tokenType",
          "type": "uint32"
        }
      ],
      "name": "CampaignToppedUp",
      "type": "event"
    },
    {
      "anonymous": false,
      "inputs": [
        {
          "indexed": false,
          "internalType": "address",
          "name": "campaigner",
          "type": "address"
        }
      ],
      "name": "CampaignerAdded",
      "type": "event"
    },
    {
      "anonymous": false,
      "inputs": [
        {
          "indexed": false,
          "internalType": "address",
          "name": "campaigner",
          "type": "address"
        }
      ],
      "name": "CampaignerDeleted",
      "type": "event"
    },
    {
      "anonymous": false,
      "inputs": [
        {
          "indexed": false,
          "internalType": "address",
          "name": "tokenAddress",
          "type": "address"
        }
      ],
      "name": "CreatedToken",
      "type": "event"
    },
    {
      "anonymous": false,
      "inputs": [
        {
          "indexed": false,
          "internalType": "address",
          "name": "campaigner",
          "type": "address"
        },
        {
          "indexed": false,
          "internalType": "uint256",
          "name": "amount",
          "type": "uint256"
        }
      ],
      "name": "FundsDeposited",
      "type": "event"
    },
    {
      "anonymous": false,
      "inputs": [
        {
          "indexed": false,
          "internalType": "address",
          "name": "campaigner",
          "type": "address"
        },
        {
          "indexed": false,
          "internalType": "uint256",
          "name": "amount",
          "type": "uint256"
        }
      ],
      "name": "FundsWithdrawn",
      "type": "event"
    },
    {
      "anonymous": false,
      "inputs": [
        {
          "indexed": false,
          "internalType": "address",
          "name": "campaigner",
          "type": "address"
        },
        {
          "indexed": false,
          "internalType": "address",
          "name": "tokenId",
          "type": "address"
        },
        {
          "indexed": false,
          "internalType": "uint64",
          "name": "updatedBalance",
          "type": "uint64"
        }
      ],
      "name": "FungibleTokenBalanceUpdated",
      "type": "event"
    },
    {
      "anonymous": false,
      "inputs": [
        {
          "indexed": false,
          "internalType": "address",
          "name": "campaigner",
          "type": "address"
        },
        {
          "indexed": false,
          "internalType": "uint64",
          "name": "amount",
          "type": "uint64"
        }
      ],
      "name": "FungibleTokenDeposited",
      "type": "event"
    },
    {
      "anonymous": false,
      "inputs": [
        {
          "indexed": false,
          "internalType": "address",
          "name": "interactor",
          "type": "address"
        },
        {
          "indexed": false,
          "internalType": "address",
          "name": "campaigner",
          "type": "address"
        },
        {
          "indexed": false,
          "internalType": "uint256",
          "name": "amount",
          "type": "uint256"
        }
      ],
      "name": "InteractorPaid",
      "type": "event"
    },
    {
      "anonymous": false,
      "inputs": [
        {
          "indexed": false,
          "internalType": "string",
          "name": "campaignAddress",
          "type": "string"
        },
        {
          "indexed": false,
          "internalType": "uint256",
          "name": "amount",
          "type": "uint256"
        }
      ],
      "name": "InteractorPaidDeferred",
      "type": "event"
    },
    {
      "anonymous": false,
      "inputs": [
        {
          "indexed": false,
          "internalType": "string",
          "name": "campaignAdddress",
          "type": "string"
        },
        {
          "indexed": false,
          "internalType": "uint256",
          "name": "amount",
          "type": "uint256"
        },
        {
          "indexed": false,
          "internalType": "uint32",
          "name": "campaignType",
          "type": "uint32"
        }
      ],
      "name": "NewCampaignIsAdded",
      "type": "event"
    },
    {
      "anonymous": false,
      "inputs": [
        {
          "indexed": false,
          "internalType": "address",
          "name": "owner",
          "type": "address"
        }
      ],
      "name": "OwnerSet",
      "type": "event"
    },
    {
      "anonymous": false,
      "inputs": [
        {
          "indexed": false,
          "internalType": "int256",
          "name": "responseCode",
          "type": "int256"
        }
      ],
      "name": "ResponseCode",
      "type": "event"
    },
    {
      "anonymous": false,
      "inputs": [
        {
          "indexed": false,
          "internalType": "string",
          "name": "campaignAddress",
          "type": "string"
        },
        {
          "indexed": false,
          "internalType": "uint256",
          "name": "totalAmount",
          "type": "uint256"
        },
        {
          "indexed": false,
          "internalType": "uint256",
          "name": "remainingBalance",
          "type": "uint256"
        }
      ],
      "name": "RewardsDistributed",
      "type": "event"
    },
    {
      "anonymous": false,
      "inputs": [
        {
          "indexed": false,
          "internalType": "string",
          "name": "campaignAddress",
          "type": "string"
        },
        {
          "indexed": false,
          "internalType": "uint32",
          "name": "campaignType",
          "type": "uint32"
        }
      ],
      "name": "campaignClosed",
      "type": "event"
    },
    {
      "anonymous": false,
      "inputs": [
        {
          "indexed": false,
          "internalType": "string",
          "name": "campaignAddress",
          "type": "string"
        },
        {
          "indexed": false,
          "internalType": "uint32",
          "name": "campaignType",
          "type": "uint32"
        }
      ],
      "name": "campaignExpired",
      "type": "event"
    },
    {
      "stateMutability": "payable",
      "type": "fallback"
    },
    {
      "inputs": [],
      "name": "FUNGIBLE",
      "outputs": [
        {
          "internalType": "uint32",
          "name": "",
          "type": "uint32"
        }
      ],
      "stateMutability": "view",
      "type": "function"
    },
    {
      "inputs": [],
      "name": "HBAR",
      "outputs": [
        {
          "internalType": "uint32",
          "name": "",
          "type": "uint32"
        }
      ],
      "stateMutability": "view",
      "type": "function"
    },
    {
      "inputs": [],
      "name": "NFT",
      "outputs": [
        {
          "internalType": "uint32",
          "name": "",
          "type": "uint32"
        }
      ],
      "stateMutability": "view",
      "type": "function"
    },
    {
      "inputs": [
        {
          "internalType": "string",
          "name": "campaignAddress",
          "type": "string"
        },
        {
          "internalType": "address",
          "name": "campaigner",
          "type": "address"
        },
        {
          "internalType": "uint256",
          "name": "amount",
          "type": "uint256"
        }
      ],
      "name": "addCampaignOrTopUp",
      "outputs": [
        {
          "internalType": "uint256",
          "name": "",
          "type": "uint256"
        }
      ],
      "stateMutability": "nonpayable",
      "type": "function"
    },
    {
      "inputs": [
        {
          "internalType": "address",
          "name": "newCampaigner",
          "type": "address"
        }
      ],
      "name": "addCampaigner",
      "outputs": [],
      "stateMutability": "nonpayable",
      "type": "function"
    },
    {
      "inputs": [
        {
          "internalType": "address",
          "name": "campaigner",
          "type": "address"
        },
        {
          "internalType": "address",
          "name": "tokenId",
          "type": "address"
        },
        {
          "internalType": "int64",
          "name": "tokenAmount",
          "type": "int64"
        }
      ],
      "name": "addFungibleAmount",
      "outputs": [
        {
          "internalType": "int64",
          "name": "",
          "type": "int64"
        }
      ],
      "stateMutability": "nonpayable",
      "type": "function"
    },
    {
      "inputs": [
        {
          "internalType": "address",
          "name": "tokenId",
          "type": "address"
        },
        {
          "internalType": "string",
          "name": "campaignAddress",
          "type": "string"
        },
        {
          "internalType": "address",
          "name": "campaigner",
          "type": "address"
        },
        {
          "internalType": "int64",
          "name": "tokenAmount",
          "type": "int64"
        }
      ],
      "name": "addFungibleCampaign",
      "outputs": [
        {
          "internalType": "int64",
          "name": "",
          "type": "int64"
        }
      ],
      "stateMutability": "nonpayable",
      "type": "function"
    },
    {
      "inputs": [
        {
          "internalType": "address",
          "name": "tokenId",
          "type": "address"
        },
        {
          "internalType": "string",
          "name": "campaignAddress",
          "type": "string"
        },
        {
          "internalType": "address",
          "name": "campaigner",
          "type": "address"
        },
        {
          "internalType": "int64",
          "name": "tokenAmount",
          "type": "int64"
        }
      ],
      "name": "addNFTCampaign",
      "outputs": [
        {
          "internalType": "int64",
          "name": "",
          "type": "int64"
        }
      ],
      "stateMutability": "nonpayable",
      "type": "function"
    },
    {
      "inputs": [
        {
          "internalType": "address",
          "name": "tokenId",
          "type": "address"
        },
        {
          "internalType": "address",
          "name": "campaigner",
          "type": "address"
        },
        {
          "internalType": "string",
          "name": "campaignAddress",
          "type": "string"
        },
        {
          "internalType": "uint64",
          "name": "tokenTotalAmount",
          "type": "uint64"
        }
      ],
      "name": "adjustTotalFungibleReward",
      "outputs": [
        {
          "internalType": "uint256",
          "name": "",
          "type": "uint256"
        }
      ],
      "stateMutability": "nonpayable",
      "type": "function"
    },
    {
      "inputs": [
        {
          "internalType": "address",
          "name": "campaigner",
          "type": "address"
        },
        {
          "internalType": "string",
          "name": "campaignAddress",
          "type": "string"
        },
        {
          "internalType": "uint256",
          "name": "totalAmount",
          "type": "uint256"
        }
      ],
      "name": "adjustTotalReward",
      "outputs": [
        {
          "internalType": "uint256",
          "name": "",
          "type": "uint256"
        }
      ],
      "stateMutability": "nonpayable",
      "type": "function"
    },
    {
      "inputs": [
        {
          "internalType": "address",
          "name": "tokenAddress",
          "type": "address"
        },
        {
          "internalType": "uint32",
          "name": "tokenType",
          "type": "uint32"
        },
        {
          "internalType": "bool",
          "name": "isWhitelisted",
          "type": "bool"
        }
      ],
      "name": "associateToken",
      "outputs": [],
      "stateMutability": "nonpayable",
      "type": "function"
    },
    {
      "inputs": [
        {
          "internalType": "address",
          "name": "",
          "type": "address"
        }
      ],
      "name": "balances",
      "outputs": [
        {
          "internalType": "uint256",
          "name": "",
          "type": "uint256"
        }
      ],
      "stateMutability": "view",
      "type": "function"
    },
    {
      "inputs": [
        {
          "internalType": "string",
          "name": "",
          "type": "string"
        }
      ],
      "name": "campaignBalances",
      "outputs": [
        {
          "internalType": "uint256",
          "name": "",
          "type": "uint256"
        }
      ],
      "stateMutability": "view",
      "type": "function"
    },
    {
      "inputs": [
        {
          "internalType": "string",
          "name": "",
          "type": "string"
        }
      ],
      "name": "campaignRandomNumber",
      "outputs": [
        {
          "internalType": "uint32",
          "name": "",
          "type": "uint32"
        }
      ],
      "stateMutability": "view",
      "type": "function"
    },
    {
      "inputs": [
        {
          "internalType": "string",
          "name": "campaignAddress",
          "type": "string"
        },
        {
          "internalType": "uint256",
          "name": "campaignExpiryTime",
          "type": "uint256"
        }
      ],
      "name": "closeCampaign",
      "outputs": [],
      "stateMutability": "nonpayable",
      "type": "function"
    },
    {
      "inputs": [
        {
          "internalType": "string",
          "name": "campaignAddress",
          "type": "string"
        },
        {
          "internalType": "uint256",
          "name": "campaignExpiryTime",
          "type": "uint256"
        }
      ],
      "name": "closeFungibleCampaign",
      "outputs": [],
      "stateMutability": "nonpayable",
      "type": "function"
    },
    {
      "inputs": [
        {
          "internalType": "string",
          "name": "campaignAddress",
          "type": "string"
        },
        {
          "internalType": "uint256",
          "name": "campaignExpiryTime",
          "type": "uint256"
        }
      ],
      "name": "closeNFTCampaign",
      "outputs": [],
      "stateMutability": "nonpayable",
      "type": "function"
    },
    {
      "inputs": [
        {
          "internalType": "string",
          "name": "campaignAddress",
          "type": "string"
        },
        {
          "internalType": "address",
          "name": "campaigner",
          "type": "address"
        }
      ],
      "name": "expiryCampaign",
      "outputs": [
        {
          "internalType": "uint256",
          "name": "",
          "type": "uint256"
        }
      ],
      "stateMutability": "nonpayable",
      "type": "function"
    },
    {
      "inputs": [
        {
          "internalType": "address",
          "name": "tokenId",
          "type": "address"
        },
        {
          "internalType": "string",
          "name": "campaignAddress",
          "type": "string"
        },
        {
          "internalType": "address",
          "name": "campaigner",
          "type": "address"
        },
        {
          "internalType": "uint32",
          "name": "tokenType",
          "type": "uint32"
        }
      ],
      "name": "expiryFungibleCampaign",
      "outputs": [
        {
          "internalType": "uint64",
          "name": "",
          "type": "uint64"
        }
      ],
      "stateMutability": "nonpayable",
      "type": "function"
    },
    {
      "inputs": [
        {
          "internalType": "uint32",
          "name": "tokenType",
          "type": "uint32"
        }
      ],
      "name": "getAllWhitelistedTokens",
      "outputs": [
        {
          "internalType": "address[]",
          "name": "",
          "type": "address[]"
        }
      ],
      "stateMutability": "view",
      "type": "function"
    },
    {
      "inputs": [
        {
          "internalType": "string",
          "name": "campaignAddress",
          "type": "string"
        }
      ],
      "name": "getCampaignBalance",
      "outputs": [
        {
          "internalType": "uint256",
          "name": "",
          "type": "uint256"
        }
      ],
      "stateMutability": "view",
      "type": "function"
    },
    {
      "inputs": [
        {
          "internalType": "address",
          "name": "campaigner",
          "type": "address"
        },
        {
          "internalType": "address",
          "name": "tokenId",
          "type": "address"
        },
        {
          "internalType": "uint32",
          "name": "tokenType",
          "type": "uint32"
        }
      ],
      "name": "getFungibleTokenBalance",
      "outputs": [
        {
          "internalType": "uint64",
          "name": "res",
          "type": "uint64"
        }
      ],
      "stateMutability": "view",
      "type": "function"
    },
    {
      "inputs": [
        {
          "internalType": "address",
          "name": "campaigner",
          "type": "address"
        }
      ],
      "name": "getHbarBalance",
      "outputs": [
        {
          "internalType": "uint256",
          "name": "res",
          "type": "uint256"
        }
      ],
      "stateMutability": "view",
      "type": "function"
    },
    {
      "inputs": [
        {
          "internalType": "address",
          "name": "campaigner",
          "type": "address"
        },
        {
          "internalType": "address",
          "name": "tokenId",
          "type": "address"
        },
        {
          "internalType": "uint32",
          "name": "tokenType",
          "type": "uint32"
        }
      ],
      "name": "getNFTTokenBalance",
      "outputs": [
        {
          "internalType": "uint64",
          "name": "res",
          "type": "uint64"
        }
      ],
      "stateMutability": "view",
      "type": "function"
    },
    {
      "inputs": [
        {
          "internalType": "uint32",
          "name": "tokenType",
          "type": "uint32"
        },
        {
          "internalType": "address",
          "name": "tokenAddress",
          "type": "address"
        }
      ],
      "name": "isTokenWhitelisted",
      "outputs": [
        {
          "internalType": "bool",
          "name": "",
          "type": "bool"
        }
      ],
      "stateMutability": "view",
      "type": "function"
    },
    {
      "inputs": [
        {
          "internalType": "address",
          "name": "",
          "type": "address"
        }
      ],
      "name": "nftCampaigner",
      "outputs": [
        {
          "internalType": "uint32",
          "name": "",
          "type": "uint32"
        }
      ],
      "stateMutability": "view",
      "type": "function"
    },
    {
      "inputs": [
        {
          "internalType": "address",
          "name": "tokenId",
          "type": "address"
        },
        {
          "internalType": "address",
          "name": "campaigner",
          "type": "address"
        },
        {
          "internalType": "int64",
          "name": "amount",
          "type": "int64"
        },
        {
          "internalType": "uint32",
          "name": "tokenType",
          "type": "uint32"
        }
      ],
      "name": "reimburseBalanceForFungible",
      "outputs": [
        {
          "internalType": "int64",
          "name": "",
          "type": "int64"
        }
      ],
      "stateMutability": "nonpayable",
      "type": "function"
    },
    {
      "inputs": [
        {
          "internalType": "address",
          "name": "",
          "type": "address"
        },
        {
          "internalType": "address",
          "name": "",
          "type": "address"
        },
        {
          "internalType": "uint256",
          "name": "",
          "type": "uint256"
        }
      ],
      "name": "tokenBalances",
      "outputs": [
        {
          "internalType": "uint64",
          "name": "",
          "type": "uint64"
        }
      ],
      "stateMutability": "view",
      "type": "function"
    },
    {
      "inputs": [
        {
          "internalType": "string",
          "name": "",
          "type": "string"
        },
        {
          "internalType": "address",
          "name": "",
          "type": "address"
        },
        {
          "internalType": "uint256",
          "name": "",
          "type": "uint256"
        }
      ],
      "name": "tokenCampaignBalances",
      "outputs": [
        {
          "internalType": "uint64",
          "name": "",
          "type": "uint64"
        }
      ],
      "stateMutability": "view",
      "type": "function"
    },
    {
      "inputs": [
        {
          "internalType": "address",
          "name": "campaigner",
          "type": "address"
        },
        {
          "internalType": "uint256",
          "name": "amount",
          "type": "uint256"
        },
        {
          "internalType": "bool",
          "name": "deposit",
          "type": "bool"
        }
      ],
      "name": "updateBalance",
      "outputs": [
        {
          "internalType": "uint256",
          "name": "",
          "type": "uint256"
        }
      ],
      "stateMutability": "nonpayable",
      "type": "function"
    },
    {
      "inputs": [
        {
          "internalType": "uint32",
          "name": "",
          "type": "uint32"
        },
        {
          "internalType": "address",
          "name": "",
          "type": "address"
        }
      ],
      "name": "whitelistedToken",
      "outputs": [
        {
          "internalType": "bool",
          "name": "",
          "type": "bool"
        }
      ],
      "stateMutability": "view",
      "type": "function"
    },
    {
      "stateMutability": "payable",
      "type": "receive"
    }
  ],
  "bytecode": "0x608060405234801561001057600080fd5b50600080546001600160a01b031916339081179091556040519081527f50146d0e3c60aa1d17a70635b05494f864e86144a2201275021014fbf08bafe29060200160405180910390a16134c3806100686000396000f3fe6080604052600436106101c35760003560e01c8063774256c7116100f6578063bde81c0b1161008f578063cfe3f9a811610061578063cfe3f9a81461062c578063d84c0e271461066a578063e9de133e1461068a578063f4ff52ae146106aa57005b8063bde81c0b1461059f578063bff31996146105bf578063c1cde80c146105df578063cdde46c81461060c57005b8063b4666130116100c8578063b46661301461050c578063b99425241461052c578063bc3ef1e91461054c578063bc4627001461057f57005b8063774256c7146104a25780637b7fc677146104b75780637c0b8de2146104d7578063a7c7b182146104ec57005b806341228803116101685780635025ae841161013a5780635025ae84146104225780636124ec2614610442578063734247e4146104625780637422ce611461048257005b806341228803146103805780634377e3ff146103a05780634a3b1152146103ca5780634f18230d146103ea57005b806327e235e3116101a157806327e235e31461028e578063307869dd146102bb57806331c83d3f14610302578063362e34b91461033557005b8062540521146101cc57806305346ac51461024057806316d343e01461026057005b366101ca57005b005b3480156101d857600080fd5b506102236101e7366004612c83565b8251602081850181018051600782529282019582019590952091909452835260009182526040808320909352815220546001600160401b031681565b6040516001600160401b0390911681526020015b60405180910390f35b34801561024c57600080fd5b5061022361025b366004612ced565b6106ca565b34801561026c57600080fd5b5061028061027b366004612d30565b61078f565b604051908152602001610237565b34801561029a57600080fd5b506102806102a9366004612d30565b60026020526000908152604090205481565b3480156102c757600080fd5b506102236102d6366004612d52565b60056020908152600093845260408085208252928452828420905282529020546001600160401b031681565b34801561030e57600080fd5b5061032261031d366004612d90565b6107e5565b60405160079190910b8152602001610237565b34801561034157600080fd5b50610370610350366004612dfe565b600360209081526000928352604080842090915290825290205460ff1681565b6040519015158152602001610237565b34801561038c57600080fd5b5061028061039b366004612e41565b610bce565b3480156103ac57600080fd5b506103b5600181565b60405163ffffffff9091168152602001610237565b3480156103d657600080fd5b506102806103e5366004612e74565b610cfd565b3480156103f657600080fd5b50610280610405366004612e74565b805160208183018101805160068252928201919093012091525481565b34801561042e57600080fd5b5061028061043d366004612ea8565b610d5e565b34801561044e57600080fd5b5061032261045d366004612f20565b611019565b34801561046e57600080fd5b5061032261047d366004612f69565b6111e3565b34801561048e57600080fd5b506101ca61049d366004612fa3565b611386565b3480156104ae57600080fd5b506103b5600081565b3480156104c357600080fd5b506102806104d2366004612fe7565b611552565b3480156104e357600080fd5b506103b5600281565b3480156104f857600080fd5b5061028061050736600461303d565b61172d565b34801561051857600080fd5b506101ca610527366004612fa3565b61197f565b34801561053857600080fd5b50610280610547366004612c83565b611b2b565b34801561055857600080fd5b506103b5610567366004612d30565b60096020526000908152604090205463ffffffff1681565b34801561058b57600080fd5b506101ca61059a366004612fa3565b611d20565b3480156105ab57600080fd5b506101ca6105ba366004613081565b611ee0565b3480156105cb57600080fd5b506101ca6105da366004612d30565b6121cd565b3480156105eb57600080fd5b506105ff6105fa3660046130bb565b6122e4565b60405161023791906130d6565b34801561061857600080fd5b50610322610627366004612d90565b6123ae565b34801561063857600080fd5b506103b5610647366004612e74565b8051602081830181018051600b8252928201919093012091525463ffffffff1681565b34801561067657600080fd5b50610223610685366004612ced565b612613565b34801561069657600080fd5b506102236106a5366004613123565b612716565b3480156106b657600080fd5b506103706106c5366004612dfe565b612a3c565b600080546001600160a01b03163314806106e857506106e833612a6f565b61070d5760405162461bcd60e51b815260040161070490613178565b60405180910390fd5b6040805180820190915260048152632298189b60e11b602082015263ffffffff831660021461074f5760405162461bcd60e51b8152600401610704919061322f565b5050506001600160a01b0391821660009081526005602090815260408083209390941682529182528281206002825290915220546001600160401b031690565b600080546001600160a01b03163314806107ad57506107ad33612a6f565b6107c95760405162461bcd60e51b815260040161070490613178565b506001600160a01b031660009081526002602052604090205490565b600080546001600160a01b031633146108105760405162461bcd60e51b815260040161070490613242565b61081b600186612a3c565b604051806040016040528060048152602001634530303560e01b815250906108565760405162461bcd60e51b8152600401610704919061322f565b506000845111604051806040016040528060048152602001632298181960e11b815250906108975760405162461bcd60e51b8152600401610704919061322f565b506108a183612a6f565b604051806040016040528060048152602001634530303360e01b815250906108dc5760405162461bcd60e51b8152600401610704919061322f565b5060008260070b13604051806040016040528060048152602001634530313160e01b8152509061091f5760405162461bcd60e51b8152600401610704919061322f565b506001600160a01b038084166000908152600560209081526040808320938916835292815282822060018352815290829020548251808401909352600483526308a6060760e31b918301919091528391906001600160401b038084169116101561099c5760405162461bcd60e51b8152600401610704919061322f565b506001600160a01b038085166000908152600560209081526040808320938a16835292815282822060018352905290812080548392906109e69084906001600160401b03166132ad565b92506101000a8154816001600160401b0302191690836001600160401b0316021790555080600786604051610a1b91906132d4565b90815260408051602092819003830190206001600160a01b038a1660009081529083528181206001825290925281208054909190610a639084906001600160401b03166132f0565b82546101009290920a6001600160401b038181021990931691831602179091556001600160a01b038681166000908152600560209081526040808320938c168352928152828220600183529052819020549051908216925090831690600790610acd9089906132d4565b90815260408051602092819003830190206001600160a01b038b166000908152908352818120600182529092529020546001600160401b031603610b4c577f0674090a69c67762650abcd64d1bc896d06756b85c925a9f28e97a30487db3ae86836001604051610b3f93929190613310565b60405180910390a1610b89565b7f64ef3840fadd155a2d8cb45b5f007ed1273c96ca6026ee12008d0809aa77eef786836001604051610b8093929190613310565b60405180910390a15b7f2fa1a54f364a5a61a29da95bf0632455b2fb41ab6434ad448e6432058203bffc858883604051610bbc93929190613348565b60405180910390a19695505050505050565b600080546001600160a01b03163314610bf95760405162461bcd60e51b815260040161070490613242565b6040805180820190915260048152632298181960e11b60208201526001600160a01b038516610c3b5760405162461bcd60e51b8152600401610704919061322f565b50610c4584612a6f565b604051806040016040528060048152602001634530303360e01b81525090610c805760405162461bcd60e51b8152600401610704919061322f565b508115610c9657610c918484612a8d565b610ca0565b610ca08484612af9565b6001600160a01b038416600081815260026020908152604091829020548251938452908301819052917f8ad64a0ac7700dd8425ab0499f107cb6e2cd1581d803c5b8c1c79dcb8190b1af91015b60405180910390a1949350505050565b600080546001600160a01b0316331480610d1b5750610d1b33612a6f565b610d375760405162461bcd60e51b815260040161070490613178565b600682604051610d4791906132d4565b90815260200160405180910390205490505b919050565b600080546001600160a01b03163314610d895760405162461bcd60e51b815260040161070490613242565b610d94600186612a3c565b604051806040016040528060048152602001634530303560e01b81525090610dcf5760405162461bcd60e51b8152600401610704919061322f565b50610dd984612a6f565b604051806040016040528060048152602001634530303360e01b81525090610e145760405162461bcd60e51b8152600401610704919061322f565b506000835111604051806040016040528060048152602001632298181960e11b81525090610e555760405162461bcd60e51b8152600401610704919061322f565b506040805180820190915260048152634530313160e01b60208201526001600160401b038316610e985760405162461bcd60e51b8152600401610704919061322f565b50600a83604051610ea991906132d4565b90815260408051918290036020908101832060016000908152908252829020548383019092526004835263114c0c0d60e21b9083015260ff16610eff5760405162461bcd60e51b8152600401610704919061322f565b5081600784604051610f1191906132d4565b90815260408051602092819003830190206001600160a01b03891660009081529083528181206001825290925281208054909190610f599084906001600160401b03166132ad565b92506101000a8154816001600160401b0302191690836001600160401b031602179055506000600784604051610f8f91906132d4565b9081526040805191829003602090810183206001600160a01b038a1660009081529082528281206001825290915220546001600160401b0390811692507f037378c439105dd07d1db6d59a47347ea8f734a0835509a3820255c8be11cea091610fff918791908716908590613374565b60405180910390a16001600160401b031695945050505050565b600080546001600160a01b031633146110445760405162461bcd60e51b815260040161070490613242565b6040805180820190915260048152634530313560e01b602082015263ffffffff83166001146110865760405162461bcd60e51b8152600401610704919061322f565b506001600160a01b038085166000908152600560209081526040808320938916835292815282822060018352815290829020548251808401909352600483526308a6060760e31b918301919091526001600160401b03808616911610156111005760405162461bcd60e51b8152600401610704919061322f565b506001600160a01b0380851660009081526005602090815260408083209389168352928152828220600183529052908120805485929061114a9084906001600160401b03166132ad565b82546101009290920a6001600160401b038181021990931691831602179091556001600160a01b038681166000908152600560209081526040808320938b168352928152828220600183529052819020549051911691507f2fa1a54f364a5a61a29da95bf0632455b2fb41ab6434ad448e6432058203bffc906111d290879089908590613348565b60405180910390a195945050505050565b600080546001600160a01b0316331461120e5760405162461bcd60e51b815260040161070490613242565b61121784612a6f565b604051806040016040528060048152602001634530303360e01b815250906112525760405162461bcd60e51b8152600401610704919061322f565b506001600160a01b0380851660009081526005602090815260408083209387168352928152828220600183529052908120805484929061129c9084906001600160401b03166132f0565b92506101000a8154816001600160401b0302191690836001600160401b031602179055507fc7a2e037ca848c5f8478afbc374474f095ffe9245e2b0e5deccc07b623e4eb73848360405161130e9291906001600160a01b039290921682526001600160401b0316602082015260400190565b60405180910390a16001600160a01b03808516600090815260056020908152604080832093871683529281528282206001835290528190205490516001600160401b03909116907f2fa1a54f364a5a61a29da95bf0632455b2fb41ab6434ad448e6432058203bffc90610ced90879087908590613348565b6000546001600160a01b031633146113b05760405162461bcd60e51b815260040161070490613242565b6000825111604051806040016040528060048152602001632298181960e11b815250906113f05760405162461bcd60e51b8152600401610704919061322f565b506040805180820190915260048152630453031360e41b60208201528161142a5760405162461bcd60e51b8152600401610704919061322f565b50600a8260405161143b91906132d4565b90815260408051918290036020908101832060026000908152908252829020548383019092526004835263114c0c4d60e21b9083015260ff16156114925760405162461bcd60e51b8152600401610704919061322f565b506001600a836040516114a591906132d4565b90815260408051602092819003830190206002600090815292529020805460ff19169115159190911790556114da81426133a6565b6008836040516114ea91906132d4565b90815260200160405180910390206000600263ffffffff168152602001908152602001600020819055507ffda0e6502dae3d85195083e39efa0c8bdccc7d5741b53cf5c57de0c33dc9aaa48260026040516115469291906133b9565b60405180910390a15050565b600080546001600160a01b0316331461157d5760405162461bcd60e51b815260040161070490613242565b61158684612a6f565b604051806040016040528060048152602001634530303360e01b815250906115c15760405162461bcd60e51b8152600401610704919061322f565b506000835111604051806040016040528060048152602001632298181960e11b815250906116025760405162461bcd60e51b8152600401610704919061322f565b506040805180820190915260048152634530313160e01b60208201528261163c5760405162461bcd60e51b8152600401610704919061322f565b50600a8360405161164d91906132d4565b9081526040805191829003602090810183206000808052908252829020548383019092526004835263114c0c0d60e21b9083015260ff166116a15760405162461bcd60e51b8152600401610704919061322f565b50816006846040516116b391906132d4565b908152602001604051809103902060008282546116d091906133e1565b9250508190555060006006846040516116e991906132d4565b90815260200160405180910390205490507f037378c439105dd07d1db6d59a47347ea8f734a0835509a3820255c8be11cea0848483604051610ced939291906133f4565b600080546001600160a01b031633146117585760405162461bcd60e51b815260040161070490613242565b6000835111604051806040016040528060048152602001632298181960e11b815250906117985760405162461bcd60e51b8152600401610704919061322f565b506117a282612a6f565b604051806040016040528060048152602001634530303360e01b815250906117dd5760405162461bcd60e51b8152600401610704919061322f565b506008836040516117ee91906132d4565b9081526040805191829003602090810183206000808052908252829020548383019092526004835263114c0c0d60e21b9083015242116118415760405162461bcd60e51b8152600401610704919061322f565b50600a8360405161185291906132d4565b9081526040805191829003602090810183206000808052908252829020548383019092526004835263114c0c0d60e21b9083015260ff166118a65760405162461bcd60e51b8152600401610704919061322f565b506006836040516118b791906132d4565b90815260200160405180910390205460026000846001600160a01b03166001600160a01b0316815260200190815260200160002060008282546118fa91906133a6565b92505081905550600060068460405161191391906132d4565b908152604080519182900360209081018320939093556001600160a01b03851660009081526002909352822054917f2a4a396795b36662ffe9a398a57fd654cf6ea95e79cf6d96d6f0267685687c399161196e9187916133b9565b60405180910390a190505b92915050565b6000546001600160a01b031633146119a95760405162461bcd60e51b815260040161070490613242565b6000825111604051806040016040528060048152602001632298181960e11b815250906119e95760405162461bcd60e51b8152600401610704919061322f565b506040805180820190915260048152630453031360e41b602082015281611a235760405162461bcd60e51b8152600401610704919061322f565b50600a82604051611a3491906132d4565b9081526040805191829003602090810183206000808052908252829020548383019092526004835263114c0c4d60e21b9083015260ff1615611a895760405162461bcd60e51b8152600401610704919061322f565b506001600a83604051611a9c91906132d4565b9081526040805160209281900383019020600080805292529020805460ff1916911515919091179055611acf81426133a6565b600883604051611adf91906132d4565b908152604080516020928190038301812060008080529352908220929092557ffda0e6502dae3d85195083e39efa0c8bdccc7d5741b53cf5c57de0c33dc9aaa4916115469185916133b9565b600080546001600160a01b03163314611b565760405162461bcd60e51b815260040161070490613242565b611b5f83612a6f565b604051806040016040528060048152602001634530303360e01b81525090611b9a5760405162461bcd60e51b8152600401610704919061322f565b508160026000856001600160a01b03166001600160a01b031681526020019081526020016000205410156040518060400160405280600481526020016308a6060760e31b81525090611bff5760405162461bcd60e51b8152600401610704919061322f565b506001600160a01b03831660009081526002602052604081208054849290611c289084906133e1565b9250508190555081600685604051611c4091906132d4565b90815260200160405180910390206000828254611c5d91906133a6565b90915550506001600160a01b038316600090815260026020526040908190205490518390600690611c8f9088906132d4565b90815260200160405180910390205403611ce4577f0674090a69c67762650abcd64d1bc896d06756b85c925a9f28e97a30487db3ae85846000604051611cd793929190613419565b60405180910390a1611d18565b7f64ef3840fadd155a2d8cb45b5f007ed1273c96ca6026ee12008d0809aa77eef785846000604051610ced93929190613419565b949350505050565b6000546001600160a01b03163314611d4a5760405162461bcd60e51b815260040161070490613242565b6000825111604051806040016040528060048152602001632298181960e11b81525090611d8a5760405162461bcd60e51b8152600401610704919061322f565b506040805180820190915260048152630453031360e41b602082015281611dc45760405162461bcd60e51b8152600401610704919061322f565b50600a82604051611dd591906132d4565b90815260408051918290036020908101832060016000908152908252829020548383019092526004835263114c0c4d60e21b9083015260ff1615611e2c5760405162461bcd60e51b8152600401610704919061322f565b506001600a83604051611e3f91906132d4565b90815260408051602092819003830190206001600090815292529020805460ff1916911515919091179055611e7481426133a6565b600883604051611e8491906132d4565b90815260200160405180910390206000600163ffffffff168152602001908152602001600020819055507ffda0e6502dae3d85195083e39efa0c8bdccc7d5741b53cf5c57de0c33dc9aaa48260016040516115469291906133b9565b6000546001600160a01b03163314611f0a5760405162461bcd60e51b815260040161070490613242565b63ffffffff821660011480611f25575063ffffffff82166002145b604051806040016040528060048152602001632298189b60e11b81525090611f605760405162461bcd60e51b8152600401610704919061322f565b50808015611f98575063ffffffff821660009081526003602090815260408083206001600160a01b038716845290915290205460ff16155b15612000575063ffffffff1660008181526003602090815260408083206001600160a01b0395909516808452948252808320805460ff1916600190811790915593835260048252822080549384018155825290200180546001600160a01b0319169091179055565b80158015612037575063ffffffff821660009081526003602090815260408083206001600160a01b038716845290915290205460ff165b156121c85763ffffffff821660008181526003602090815260408083206001600160a01b03881684528252808320805460ff191690559282526004905290812054905b818110156121c55763ffffffff8416600090815260046020526040902080546001600160a01b0387169190839081106120b5576120b5613448565b6000918252602090912001546001600160a01b0316036121b35763ffffffff841660009081526004602052604090206120ef6001846133e1565b815481106120ff576120ff613448565b600091825260208083209091015463ffffffff871683526004909152604090912080546001600160a01b03909216918390811061213e5761213e613448565b600091825260208083209190910180546001600160a01b0319166001600160a01b03949094169390931790925563ffffffff8616815260049091526040902080548061218c5761218c61345e565b600082815260209020810160001990810180546001600160a01b03191690550190556121c5565b806121bd81613474565b91505061207a565b50505b505050565b6000546001600160a01b031633146121f75760405162461bcd60e51b815260040161070490613242565b6040805180820190915260048152632298181960e11b60208201526001600160a01b0382166122395760405162461bcd60e51b8152600401610704919061322f565b5061224381612a6f565b15604051806040016040528060048152602001632298181b60e11b8152509061227f5760405162461bcd60e51b8152600401610704919061322f565b506001600160a01b0381166000818152600160208181526040808420805460ff19169093179092556002815281832092909255519182527f3d04fb94919fdfa7708320cdebdf093992d88d792b3d5f4144c364cda00129c6910160405180910390a150565b606063ffffffff821660011480612301575063ffffffff82166002145b604051806040016040528060048152602001632298189b60e11b8152509061233c5760405162461bcd60e51b8152600401610704919061322f565b5063ffffffff8216600090815260046020908152604091829020805483518184028101840190945280845290918301828280156123a257602002820191906000526020600020905b81546001600160a01b03168152600190910190602001808311612384575b50505050509050919050565b600080546001600160a01b031633146123d95760405162461bcd60e51b815260040161070490613242565b6123e4600286612a3c565b604051806040016040528060048152602001634530303560e01b8152509061241f5760405162461bcd60e51b8152600401610704919061322f565b506000845111604051806040016040528060048152602001632298181960e11b815250906124605760405162461bcd60e51b8152600401610704919061322f565b5061246a83612a6f565b604051806040016040528060048152602001634530303360e01b815250906124a55760405162461bcd60e51b8152600401610704919061322f565b5060008260070b13604051806040016040528060048152602001634530313160e01b815250906124e85760405162461bcd60e51b8152600401610704919061322f565b506001600160a01b038084166000908152600560209081526040808320938916835292815282822060028352815290829020548251808401909352600483526308a6060760e31b918301919091526001600160401b03808516911610156125625760405162461bcd60e51b8152600401610704919061322f565b508160078560405161257491906132d4565b90815260408051602092819003830181206001600160a01b038a811660008181529286528483206002808552908752858420805467ffffffffffffffff19166001600160401b03998a16179055918a1683526005865284832090835285528382208183529094529190912054909216917f0674090a69c67762650abcd64d1bc896d06756b85c925a9f28e97a30487db3ae916111d29188918791613310565b600080546001600160a01b0316331480612631575061263133612a6f565b61264d5760405162461bcd60e51b815260040161070490613178565b6040805180820190915260048152634530313560e01b602082015263ffffffff831660011461268f5760405162461bcd60e51b8152600401610704919061322f565b5061269b600184612a3c565b604051806040016040528060048152602001634530303560e01b815250906126d65760405162461bcd60e51b8152600401610704919061322f565b5050506001600160a01b0391821660009081526005602090815260408083209390941682529182528281206001825290915220546001600160401b031690565b600080546001600160a01b031633146127415760405162461bcd60e51b815260040161070490613242565b6040805180820190915260048152634530303160e01b60208201526001600160a01b0386166127835760405162461bcd60e51b8152600401610704919061322f565b506000845111604051806040016040528060048152602001632298181960e11b815250906127c45760405162461bcd60e51b8152600401610704919061322f565b506127ce83612a6f565b604051806040016040528060048152602001634530303360e01b815250906128095760405162461bcd60e51b8152600401610704919061322f565b50600a8460405161281a91906132d4565b90815260408051918290036020908101832063ffffffff86166000908152908252829020548383019092526004835263114c0c0d60e21b9083015260ff166128755760405162461bcd60e51b8152600401610704919061322f565b5060088460405161288691906132d4565b90815260408051918290036020908101832063ffffffff86166000908152908252829020548383019092526004835263114c0c0d60e21b9083015242116128e05760405162461bcd60e51b8152600401610704919061322f565b506007846040516128f191906132d4565b90815260408051602092819003830190206001600160a01b03888116600081815292855283832063ffffffff88168085529086528484205492891684526005865284842091845290855283832090835290935290812080546001600160401b0393841693919291612964918591166132f0565b92506101000a8154816001600160401b0302191690836001600160401b03160217905550600060078560405161299a91906132d4565b90815260408051602092819003830181206001600160a01b038a8116600081815292865284832063ffffffff8a16808552908752858420805467ffffffffffffffff19166001600160401b03998a16179055918a168352600586528483209083528552838220908252909352912054909116907f2a4a396795b36662ffe9a398a57fd654cf6ea95e79cf6d96d6f0267685687c39906111d290879086906133b9565b63ffffffff821660009081526003602090815260408083206001600160a01b038516845290915290205460ff1692915050565b6001600160a01b031660009081526001602052604090205460ff1690565b6001600160a01b03821660009081526002602052604081208054839290612ab59084906133a6565b9091555050604080516001600160a01b0384168152602081018390527f543ba50a5eec5e6178218e364b1d0f396157b3c8fa278522c2cb7fd99407d4749101611546565b8060026000846001600160a01b03166001600160a01b031681526020019081526020016000205410156040518060400160405280600481526020016308a6060760e31b81525090612b5d5760405162461bcd60e51b8152600401610704919061322f565b506001600160a01b03821660009081526002602052604081208054839290612b869084906133e1565b9091555050604080516001600160a01b0384168152602081018390527feaff4b37086828766ad3268786972c0cd24259d4c87a80f9d3963a3c3d999b0d9101611546565b634e487b7160e01b600052604160045260246000fd5b600082601f830112612bf157600080fd5b81356001600160401b0380821115612c0b57612c0b612bca565b604051601f8301601f19908116603f01168101908282118183101715612c3357612c33612bca565b81604052838152866020858801011115612c4c57600080fd5b836020870160208301376000602085830101528094505050505092915050565b80356001600160a01b0381168114610d5957600080fd5b600080600060608486031215612c9857600080fd5b83356001600160401b03811115612cae57600080fd5b612cba86828701612be0565b935050612cc960208501612c6c565b9150604084013590509250925092565b803563ffffffff81168114610d5957600080fd5b600080600060608486031215612d0257600080fd5b612d0b84612c6c565b9250612d1960208501612c6c565b9150612d2760408501612cd9565b90509250925092565b600060208284031215612d4257600080fd5b612d4b82612c6c565b9392505050565b600080600060608486031215612d6757600080fd5b612d7084612c6c565b9250612cc960208501612c6c565b8035600781900b8114610d5957600080fd5b60008060008060808587031215612da657600080fd5b612daf85612c6c565b935060208501356001600160401b03811115612dca57600080fd5b612dd687828801612be0565b935050612de560408601612c6c565b9150612df360608601612d7e565b905092959194509250565b60008060408385031215612e1157600080fd5b612e1a83612cd9565b9150612e2860208401612c6c565b90509250929050565b80358015158114610d5957600080fd5b600080600060608486031215612e5657600080fd5b612e5f84612c6c565b925060208401359150612d2760408501612e31565b600060208284031215612e8657600080fd5b81356001600160401b03811115612e9c57600080fd5b611d1884828501612be0565b60008060008060808587031215612ebe57600080fd5b612ec785612c6c565b9350612ed560208601612c6c565b925060408501356001600160401b0380821115612ef157600080fd5b612efd88838901612be0565b9350606087013591508082168214612f1457600080fd5b50939692955090935050565b60008060008060808587031215612f3657600080fd5b612f3f85612c6c565b9350612f4d60208601612c6c565b9250612f5b60408601612d7e565b9150612df360608601612cd9565b600080600060608486031215612f7e57600080fd5b612f8784612c6c565b9250612f9560208501612c6c565b9150612d2760408501612d7e565b60008060408385031215612fb657600080fd5b82356001600160401b03811115612fcc57600080fd5b612fd885828601612be0565b95602094909401359450505050565b600080600060608486031215612ffc57600080fd5b61300584612c6c565b925060208401356001600160401b0381111561302057600080fd5b61302c86828701612be0565b925050604084013590509250925092565b6000806040838503121561305057600080fd5b82356001600160401b0381111561306657600080fd5b61307285828601612be0565b925050612e2860208401612c6c565b60008060006060848603121561309657600080fd5b61309f84612c6c565b92506130ad60208501612cd9565b9150612d2760408501612e31565b6000602082840312156130cd57600080fd5b612d4b82612cd9565b6020808252825182820181905260009190848201906040850190845b818110156131175783516001600160a01b0316835292840192918401916001016130f2565b50909695505050505050565b6000806000806080858703121561313957600080fd5b61314285612c6c565b935060208501356001600160401b0381111561315d57600080fd5b61316987828801612be0565b935050612f5b60408601612c6c565b60208082526041908201527f556e617574686f72697a6520416363657373207265717565737465642c20436160408201527f6c6c6572206d757374206265206f776e6572206f722063616d706169676e65726060820152601760f91b608082015260a00190565b60005b838110156131fa5781810151838201526020016131e2565b50506000910152565b6000815180845261321b8160208601602086016131df565b601f01601f19169290920160200192915050565b602081526000612d4b6020830184613203565b60208082526035908201527f556e617574686f72697a6520416363657373207265717565737465642c204361604082015274363632b91034b9903737ba103a34329037bbb732b960591b606082015260800190565b634e487b7160e01b600052601160045260246000fd5b6001600160401b038281168282160390808211156132cd576132cd613297565b5092915050565b600082516132e68184602087016131df565b9190910192915050565b6001600160401b038181168382160190808211156132cd576132cd613297565b6060815260006133236060830186613203565b90506001600160401b038416602083015263ffffffff83166040830152949350505050565b6001600160a01b0393841681529190921660208201526001600160401b03909116604082015260600190565b6060815260006133876060830186613203565b90508360208301526001600160401b0383166040830152949350505050565b8082018082111561197957611979613297565b6040815260006133cc6040830185613203565b905063ffffffff831660208301529392505050565b8181038181111561197957611979613297565b6060815260006134076060830186613203565b60208301949094525060400152919050565b60608152600061342c6060830186613203565b905083602083015263ffffffff83166040830152949350505050565b634e487b7160e01b600052603260045260246000fd5b634e487b7160e01b600052603160045260246000fd5b60006001820161348657613486613297565b506001019056fea26469706673582212204cefd2451b713310f6979ba6e54ea29f5dbc83b815dbf4c4ca5e4e3c3fdfc39864736f6c63430008110033",
  "immutableReferences": {},
  "source": "// SPDX-License-Identifier: Apache-2.0\r\npragma solidity ^0.8.17;\r\n\r\nimport \"./HashbuzzModules/HashbuzzStates.sol\";\r\nimport \"./HashbuzzModules/Utils.sol\";\r\nimport \"./HashbuzzModules/CampaignLifecycle.sol\";\r\nimport \"./HashbuzzModules/Transactions.sol\";\r\n\r\ncontract HashbuzzV201 is HashbuzzStates, Utils, Lifecycle, Transactions {\r\n    constructor() {\r\n        owner = msg.sender;\r\n        emit OwnerSet(owner);\r\n    }\r\n\r\n    receive() external payable {}\r\n    fallback() external payable {}\r\n}\r\n",
  "sourcePath": "D:\\rajatk\\hashbuzz-staging\\smv201\\contracts\\HashbuzzV201.sol",
  "compiler": {
    "name": "solc",
    "version": "0.8.17+commit.8df45f5f.Emscripten.clang"
  },
  "schemaVersion": "3.4.16",
  "updatedAt": "2024-11-03T18:02:35.467Z",
  "devdoc": {
    "kind": "dev",
    "methods": {
      "addCampaignOrTopUp(string,address,uint256)": {
        "details": "Add a new campaign or top up an existing campaign",
        "params": {
          "amount": "The amount to be allocated to the campaign from the campaigner's balance.",
          "campaignAddress": "The db address of the campaign",
          "campaigner": "The solidity address of the campaigner or wallet address"
        }
      },
      "addCampaigner(address)": {
        "details": "Whitelist cmapigner to the user.",
        "params": {
          "newCampaigner": "Address of the user having campaigner role to be used here"
        }
      },
      "addFungibleAmount(address,address,int64)": {
        "details": "Fungible token added to the campaigner account.",
        "params": {
          "campaigner": "Address soliduty address",
          "tokenAmount": "amount added to the cmapaigner account",
          "tokenId": "Address tokenId solidity address"
        }
      },
      "addFungibleCampaign(address,string,address,int64)": {
        "details": "Add a new campaign for fungible tokens or top up an existing campaign",
        "params": {
          "campaignAddress": "The db address of the campaign",
          "campaigner": "The solidity address of the campaigner or wallet address",
          "tokenAmount": "The amount of tokens to be allocated to the campaign",
          "tokenId": "The address of the token in solidity format"
        }
      },
      "addNFTCampaign(address,string,address,int64)": {
        "details": "Add a new campaign for NFT tokens",
        "params": {
          "campaignAddress": "The db address of the campaign [string]",
          "campaigner": "The solidity address of the campaigner or wallet address",
          "tokenAmount": "The amount of tokens to be allocated to the campaign",
          "tokenId": "The address of the token in solidity format"
        }
      },
      "adjustTotalFungibleReward(address,address,string,uint64)": {
        "details": "Distribute fungible tokens to the campaigner",
        "params": {
          "campaignAddress": "The db address of the campaign",
          "campaigner": "The solidity address of the campaigner or wallet address",
          "tokenId": "The address of the token in solidity format",
          "tokenTotalAmount": "The total amount of tokens to be distributed"
        }
      },
      "adjustTotalReward(address,string,uint256)": {
        "details": "Distribute HBAR tokens to the campaigner",
        "params": {
          "campaignAddress": "The db address of the campaign",
          "campaigner": "The solidity address of the campaigner or wallet address",
          "totalAmount": "The total amount of tokens to be distributed"
        }
      },
      "associateToken(address,uint32,bool)": {
        "details": "Adds or removes a token from the whitelist.",
        "params": {
          "isWhitelisted": "Boolean flag to mark the token as whitelisted or not.",
          "tokenAddress": "The address of the token.",
          "tokenType": "The type of the token (1 for FUNGIBLE, 2 for NFT)."
        }
      },
      "closeCampaign(string,uint256)": {
        "details": "Close a campaign with HBAR",
        "params": {
          "campaignAddress": "The db address of the campaign",
          "campaignExpiryTime": "The expiry time of the campaign in seconds"
        }
      },
      "closeFungibleCampaign(string,uint256)": {
        "details": "Close a campaign with fungible tokens",
        "params": {
          "campaignAddress": "The db address of the campaign",
          "campaignExpiryTime": "The expiry time of the campaign in seconds"
        }
      },
      "closeNFTCampaign(string,uint256)": {
        "details": "Close a campaign with NFT tokens",
        "params": {
          "campaignAddress": "The db address of the campaign",
          "campaignExpiryTime": "The expiry time of the campaign in seconds"
        }
      },
      "expiryCampaign(string,address)": {
        "details": "Expiry a campaign with HBAR",
        "params": {
          "campaignAddress": "The db address of the campaign",
          "campaigner": "The solidity address of the campaigner or wallet address"
        }
      },
      "expiryFungibleCampaign(address,string,address,uint32)": {
        "details": "Expiry a campaign with fungible and NFT tokens",
        "params": {
          "campaignAddress": "The db address of the campaign",
          "campaigner": "The solidity address of the campaigner or wallet address",
          "tokenId": "The address of the token in solidity format",
          "tokenType": "The type of the token (FUNGIBLE or NFT) [uint32] (1 for FUNGIBLE & 2 for NFT)"
        }
      },
      "getAllWhitelistedTokens(uint32)": {
        "details": "Retrieves all whitelisted addresses for a given token type.",
        "params": {
          "tokenType": "The type of the token (1 for FUNGIBLE, 2 for NFT)."
        },
        "returns": {
          "_0": "An array of addresses that are whitelisted for the given token type."
        }
      },
      "getCampaignBalance(string)": {
        "details": "Balance holded by the user to see.",
        "params": {
          "campaignAddress": "Solidity address of the campaigner."
        }
      },
      "getFungibleTokenBalance(address,address,uint32)": {
        "params": {
          "campaigner": "Address of the campaigner'solidity address",
          "tokenId": "Solidity address used for the account",
          "tokenType": "The type of the token (FUNGIBLE or NFT) [uint32] (1 for FUNGIBLE & 2 for NFT)"
        }
      },
      "getHbarBalance(address)": {
        "details": "Balance holded by the user to see.",
        "params": {
          "campaigner": "Solidity address of the campaigner."
        }
      },
      "getNFTTokenBalance(address,address,uint32)": {
        "details": "Balance holded by the user to see.",
        "params": {
          "campaigner": "Solidity address of the campaigner.",
          "tokenId": "Solidity address of the token.",
          "tokenType": "The type of the token (FUNGIBLE or NFT) [uint32] (1 for FUNGIBLE & 2 for NFT)                  1 for FUNGIBLE and 2 for NFT."
        }
      },
      "isTokenWhitelisted(uint32,address)": {
        "details": "Checks if a specific token address is whitelisted for a given token type.",
        "params": {
          "tokenAddress": "The address of the token to check.",
          "tokenType": "The type of the token (1 for FUNGIBLE, 2 for NFT)."
        },
        "returns": {
          "_0": "Boolean flag indicating if the token is whitelisted."
        }
      },
      "reimburseBalanceForFungible(address,address,int64,uint32)": {
        "details": "This is function used for the  Reimbersing the cmapaigner balance",
        "params": {
          "amount": "Total amount campaigner wanted to reinverse",
          "campaigner": "Campainer Address",
          "tokenId": "Token solidity address",
          "tokenType": "The type of the token (FUNGIBLE or NFT) [uint32] (1 for FUNGIBLE & 2 for NFT)"
        }
      },
      "updateBalance(address,uint256,bool)": {
        "details": "Topup and reimbersement cases",
        "params": {
          "amount": "Amount being topuped",
          "campaigner": "campaigner solidity address",
          "deposit": "Boolean is here"
        }
      }
    },
    "version": 1
  },
  "userdoc": {
    "kind": "user",
    "methods": {},
    "version": 1
  }
}