{
  "contractName": "Lifecycle",
  "abi": [
    {
      "anonymous": false,
      "inputs": [
        {
          "indexed": false,
          "internalType": "address",
          "name": "campaigner",
          "type": "address"
        },
        {
          "indexed": false,
          "internalType": "uint256",
          "name": "updatedBalance",
          "type": "uint256"
        }
      ],
      "name": "BalanceUpdated",
      "type": "event"
    },
    {
      "anonymous": false,
      "inputs": [
        {
          "indexed": false,
          "internalType": "string",
          "name": "campaignAddress",
          "type": "string"
        },
        {
          "indexed": false,
          "internalType": "uint256",
          "name": "amount",
          "type": "uint256"
        },
        {
          "indexed": false,
          "internalType": "uint32",
          "name": "tokenType",
          "type": "uint32"
        }
      ],
      "name": "CampaignToppedUp",
      "type": "event"
    },
    {
      "anonymous": false,
      "inputs": [
        {
          "indexed": false,
          "internalType": "address",
          "name": "campaigner",
          "type": "address"
        }
      ],
      "name": "CampaignerAdded",
      "type": "event"
    },
    {
      "anonymous": false,
      "inputs": [
        {
          "indexed": false,
          "internalType": "address",
          "name": "campaigner",
          "type": "address"
        }
      ],
      "name": "CampaignerDeleted",
      "type": "event"
    },
    {
      "anonymous": false,
      "inputs": [
        {
          "indexed": false,
          "internalType": "address",
          "name": "tokenAddress",
          "type": "address"
        }
      ],
      "name": "CreatedToken",
      "type": "event"
    },
    {
      "anonymous": false,
      "inputs": [
        {
          "indexed": false,
          "internalType": "address",
          "name": "campaigner",
          "type": "address"
        },
        {
          "indexed": false,
          "internalType": "uint256",
          "name": "amount",
          "type": "uint256"
        }
      ],
      "name": "FundsDeposited",
      "type": "event"
    },
    {
      "anonymous": false,
      "inputs": [
        {
          "indexed": false,
          "internalType": "address",
          "name": "campaigner",
          "type": "address"
        },
        {
          "indexed": false,
          "internalType": "uint256",
          "name": "amount",
          "type": "uint256"
        }
      ],
      "name": "FundsWithdrawn",
      "type": "event"
    },
    {
      "anonymous": false,
      "inputs": [
        {
          "indexed": false,
          "internalType": "address",
          "name": "campaigner",
          "type": "address"
        },
        {
          "indexed": false,
          "internalType": "address",
          "name": "tokenId",
          "type": "address"
        },
        {
          "indexed": false,
          "internalType": "uint64",
          "name": "updatedBalance",
          "type": "uint64"
        }
      ],
      "name": "FungibleTokenBalanceUpdated",
      "type": "event"
    },
    {
      "anonymous": false,
      "inputs": [
        {
          "indexed": false,
          "internalType": "address",
          "name": "campaigner",
          "type": "address"
        },
        {
          "indexed": false,
          "internalType": "uint64",
          "name": "amount",
          "type": "uint64"
        }
      ],
      "name": "FungibleTokenDeposited",
      "type": "event"
    },
    {
      "anonymous": false,
      "inputs": [
        {
          "indexed": false,
          "internalType": "address",
          "name": "interactor",
          "type": "address"
        },
        {
          "indexed": false,
          "internalType": "address",
          "name": "campaigner",
          "type": "address"
        },
        {
          "indexed": false,
          "internalType": "uint256",
          "name": "amount",
          "type": "uint256"
        }
      ],
      "name": "InteractorPaid",
      "type": "event"
    },
    {
      "anonymous": false,
      "inputs": [
        {
          "indexed": false,
          "internalType": "string",
          "name": "campaignAddress",
          "type": "string"
        },
        {
          "indexed": false,
          "internalType": "uint256",
          "name": "amount",
          "type": "uint256"
        }
      ],
      "name": "InteractorPaidDeferred",
      "type": "event"
    },
    {
      "anonymous": false,
      "inputs": [
        {
          "indexed": false,
          "internalType": "string",
          "name": "campaignAdddress",
          "type": "string"
        },
        {
          "indexed": false,
          "internalType": "uint256",
          "name": "amount",
          "type": "uint256"
        },
        {
          "indexed": false,
          "internalType": "uint32",
          "name": "campaignType",
          "type": "uint32"
        }
      ],
      "name": "NewCampaignIsAdded",
      "type": "event"
    },
    {
      "anonymous": false,
      "inputs": [
        {
          "indexed": false,
          "internalType": "address",
          "name": "owner",
          "type": "address"
        }
      ],
      "name": "OwnerSet",
      "type": "event"
    },
    {
      "anonymous": false,
      "inputs": [
        {
          "indexed": false,
          "internalType": "int256",
          "name": "responseCode",
          "type": "int256"
        }
      ],
      "name": "ResponseCode",
      "type": "event"
    },
    {
      "anonymous": false,
      "inputs": [
        {
          "indexed": false,
          "internalType": "string",
          "name": "campaignAddress",
          "type": "string"
        },
        {
          "indexed": false,
          "internalType": "uint256",
          "name": "totalAmount",
          "type": "uint256"
        },
        {
          "indexed": false,
          "internalType": "uint256",
          "name": "remainingBalance",
          "type": "uint256"
        }
      ],
      "name": "RewardsDistributed",
      "type": "event"
    },
    {
      "anonymous": false,
      "inputs": [
        {
          "indexed": false,
          "internalType": "string",
          "name": "campaignAddress",
          "type": "string"
        },
        {
          "indexed": false,
          "internalType": "uint32",
          "name": "campaignType",
          "type": "uint32"
        }
      ],
      "name": "campaignClosed",
      "type": "event"
    },
    {
      "anonymous": false,
      "inputs": [
        {
          "indexed": false,
          "internalType": "string",
          "name": "campaignAddress",
          "type": "string"
        },
        {
          "indexed": false,
          "internalType": "uint32",
          "name": "campaignType",
          "type": "uint32"
        }
      ],
      "name": "campaignExpired",
      "type": "event"
    },
    {
      "inputs": [],
      "name": "FUNGIBLE",
      "outputs": [
        {
          "internalType": "uint32",
          "name": "",
          "type": "uint32"
        }
      ],
      "stateMutability": "view",
      "type": "function"
    },
    {
      "inputs": [],
      "name": "HBAR",
      "outputs": [
        {
          "internalType": "uint32",
          "name": "",
          "type": "uint32"
        }
      ],
      "stateMutability": "view",
      "type": "function"
    },
    {
      "inputs": [],
      "name": "NFT",
      "outputs": [
        {
          "internalType": "uint32",
          "name": "",
          "type": "uint32"
        }
      ],
      "stateMutability": "view",
      "type": "function"
    },
    {
      "inputs": [
        {
          "internalType": "address",
          "name": "newCampaigner",
          "type": "address"
        }
      ],
      "name": "addCampaigner",
      "outputs": [],
      "stateMutability": "nonpayable",
      "type": "function"
    },
    {
      "inputs": [
        {
          "internalType": "address",
          "name": "tokenAddress",
          "type": "address"
        },
        {
          "internalType": "uint32",
          "name": "tokenType",
          "type": "uint32"
        },
        {
          "internalType": "bool",
          "name": "isWhitelisted",
          "type": "bool"
        }
      ],
      "name": "associateToken",
      "outputs": [],
      "stateMutability": "nonpayable",
      "type": "function"
    },
    {
      "inputs": [
        {
          "internalType": "address",
          "name": "",
          "type": "address"
        }
      ],
      "name": "balances",
      "outputs": [
        {
          "internalType": "uint256",
          "name": "",
          "type": "uint256"
        }
      ],
      "stateMutability": "view",
      "type": "function"
    },
    {
      "inputs": [
        {
          "internalType": "string",
          "name": "",
          "type": "string"
        }
      ],
      "name": "campaignBalances",
      "outputs": [
        {
          "internalType": "uint256",
          "name": "",
          "type": "uint256"
        }
      ],
      "stateMutability": "view",
      "type": "function"
    },
    {
      "inputs": [
        {
          "internalType": "string",
          "name": "",
          "type": "string"
        }
      ],
      "name": "campaignRandomNumber",
      "outputs": [
        {
          "internalType": "uint32",
          "name": "",
          "type": "uint32"
        }
      ],
      "stateMutability": "view",
      "type": "function"
    },
    {
      "inputs": [
        {
          "internalType": "uint32",
          "name": "tokenType",
          "type": "uint32"
        }
      ],
      "name": "getAllWhitelistedTokens",
      "outputs": [
        {
          "internalType": "address[]",
          "name": "",
          "type": "address[]"
        }
      ],
      "stateMutability": "view",
      "type": "function"
    },
    {
      "inputs": [
        {
          "internalType": "string",
          "name": "campaignAddress",
          "type": "string"
        }
      ],
      "name": "getCampaignBalance",
      "outputs": [
        {
          "internalType": "uint256",
          "name": "",
          "type": "uint256"
        }
      ],
      "stateMutability": "view",
      "type": "function"
    },
    {
      "inputs": [
        {
          "internalType": "address",
          "name": "campaigner",
          "type": "address"
        },
        {
          "internalType": "address",
          "name": "tokenId",
          "type": "address"
        },
        {
          "internalType": "uint32",
          "name": "tokenType",
          "type": "uint32"
        }
      ],
      "name": "getFungibleTokenBalance",
      "outputs": [
        {
          "internalType": "uint64",
          "name": "res",
          "type": "uint64"
        }
      ],
      "stateMutability": "view",
      "type": "function"
    },
    {
      "inputs": [
        {
          "internalType": "address",
          "name": "campaigner",
          "type": "address"
        }
      ],
      "name": "getHbarBalance",
      "outputs": [
        {
          "internalType": "uint256",
          "name": "res",
          "type": "uint256"
        }
      ],
      "stateMutability": "view",
      "type": "function"
    },
    {
      "inputs": [
        {
          "internalType": "address",
          "name": "campaigner",
          "type": "address"
        },
        {
          "internalType": "address",
          "name": "tokenId",
          "type": "address"
        },
        {
          "internalType": "uint32",
          "name": "tokenType",
          "type": "uint32"
        }
      ],
      "name": "getNFTTokenBalance",
      "outputs": [
        {
          "internalType": "uint64",
          "name": "res",
          "type": "uint64"
        }
      ],
      "stateMutability": "view",
      "type": "function"
    },
    {
      "inputs": [
        {
          "internalType": "uint32",
          "name": "tokenType",
          "type": "uint32"
        },
        {
          "internalType": "address",
          "name": "tokenAddress",
          "type": "address"
        }
      ],
      "name": "isTokenWhitelisted",
      "outputs": [
        {
          "internalType": "bool",
          "name": "",
          "type": "bool"
        }
      ],
      "stateMutability": "view",
      "type": "function"
    },
    {
      "inputs": [
        {
          "internalType": "address",
          "name": "",
          "type": "address"
        }
      ],
      "name": "nftCampaigner",
      "outputs": [
        {
          "internalType": "uint32",
          "name": "",
          "type": "uint32"
        }
      ],
      "stateMutability": "view",
      "type": "function"
    },
    {
      "inputs": [
        {
          "internalType": "address",
          "name": "",
          "type": "address"
        },
        {
          "internalType": "address",
          "name": "",
          "type": "address"
        },
        {
          "internalType": "uint256",
          "name": "",
          "type": "uint256"
        }
      ],
      "name": "tokenBalances",
      "outputs": [
        {
          "internalType": "uint64",
          "name": "",
          "type": "uint64"
        }
      ],
      "stateMutability": "view",
      "type": "function"
    },
    {
      "inputs": [
        {
          "internalType": "string",
          "name": "",
          "type": "string"
        },
        {
          "internalType": "address",
          "name": "",
          "type": "address"
        },
        {
          "internalType": "uint256",
          "name": "",
          "type": "uint256"
        }
      ],
      "name": "tokenCampaignBalances",
      "outputs": [
        {
          "internalType": "uint64",
          "name": "",
          "type": "uint64"
        }
      ],
      "stateMutability": "view",
      "type": "function"
    },
    {
      "inputs": [
        {
          "internalType": "uint32",
          "name": "",
          "type": "uint32"
        },
        {
          "internalType": "address",
          "name": "",
          "type": "address"
        }
      ],
      "name": "whitelistedToken",
      "outputs": [
        {
          "internalType": "bool",
          "name": "",
          "type": "bool"
        }
      ],
      "stateMutability": "view",
      "type": "function"
    },
    {
      "inputs": [
        {
          "internalType": "string",
          "name": "campaignAddress",
          "type": "string"
        },
        {
          "internalType": "address",
          "name": "campaigner",
          "type": "address"
        },
        {
          "internalType": "uint256",
          "name": "amount",
          "type": "uint256"
        }
      ],
      "name": "addCampaignOrTopUp",
      "outputs": [
        {
          "internalType": "uint256",
          "name": "",
          "type": "uint256"
        }
      ],
      "stateMutability": "nonpayable",
      "type": "function"
    },
    {
      "inputs": [
        {
          "internalType": "address",
          "name": "tokenId",
          "type": "address"
        },
        {
          "internalType": "string",
          "name": "campaignAddress",
          "type": "string"
        },
        {
          "internalType": "address",
          "name": "campaigner",
          "type": "address"
        },
        {
          "internalType": "int64",
          "name": "tokenAmount",
          "type": "int64"
        }
      ],
      "name": "addFungibleCampaign",
      "outputs": [
        {
          "internalType": "int64",
          "name": "",
          "type": "int64"
        }
      ],
      "stateMutability": "nonpayable",
      "type": "function"
    },
    {
      "inputs": [
        {
          "internalType": "address",
          "name": "tokenId",
          "type": "address"
        },
        {
          "internalType": "string",
          "name": "campaignAddress",
          "type": "string"
        },
        {
          "internalType": "address",
          "name": "campaigner",
          "type": "address"
        },
        {
          "internalType": "int64",
          "name": "tokenAmount",
          "type": "int64"
        }
      ],
      "name": "addNFTCampaign",
      "outputs": [
        {
          "internalType": "int64",
          "name": "",
          "type": "int64"
        }
      ],
      "stateMutability": "nonpayable",
      "type": "function"
    },
    {
      "inputs": [
        {
          "internalType": "string",
          "name": "campaignAddress",
          "type": "string"
        },
        {
          "internalType": "uint256",
          "name": "campaignExpiryTime",
          "type": "uint256"
        }
      ],
      "name": "closeCampaign",
      "outputs": [],
      "stateMutability": "nonpayable",
      "type": "function"
    },
    {
      "inputs": [
        {
          "internalType": "string",
          "name": "campaignAddress",
          "type": "string"
        },
        {
          "internalType": "uint256",
          "name": "campaignExpiryTime",
          "type": "uint256"
        }
      ],
      "name": "closeFungibleCampaign",
      "outputs": [],
      "stateMutability": "nonpayable",
      "type": "function"
    },
    {
      "inputs": [
        {
          "internalType": "string",
          "name": "campaignAddress",
          "type": "string"
        },
        {
          "internalType": "uint256",
          "name": "campaignExpiryTime",
          "type": "uint256"
        }
      ],
      "name": "closeNFTCampaign",
      "outputs": [],
      "stateMutability": "nonpayable",
      "type": "function"
    },
    {
      "inputs": [
        {
          "internalType": "address",
          "name": "campaigner",
          "type": "address"
        },
        {
          "internalType": "string",
          "name": "campaignAddress",
          "type": "string"
        },
        {
          "internalType": "uint256",
          "name": "totalAmount",
          "type": "uint256"
        }
      ],
      "name": "adjustTotalReward",
      "outputs": [
        {
          "internalType": "uint256",
          "name": "",
          "type": "uint256"
        }
      ],
      "stateMutability": "nonpayable",
      "type": "function"
    },
    {
      "inputs": [
        {
          "internalType": "address",
          "name": "tokenId",
          "type": "address"
        },
        {
          "internalType": "address",
          "name": "campaigner",
          "type": "address"
        },
        {
          "internalType": "string",
          "name": "campaignAddress",
          "type": "string"
        },
        {
          "internalType": "uint64",
          "name": "tokenTotalAmount",
          "type": "uint64"
        }
      ],
      "name": "adjustTotalFungibleReward",
      "outputs": [
        {
          "internalType": "uint256",
          "name": "",
          "type": "uint256"
        }
      ],
      "stateMutability": "nonpayable",
      "type": "function"
    },
    {
      "inputs": [
        {
          "internalType": "address",
          "name": "tokenId",
          "type": "address"
        },
        {
          "internalType": "string",
          "name": "campaignAddress",
          "type": "string"
        },
        {
          "internalType": "address",
          "name": "campaigner",
          "type": "address"
        },
        {
          "internalType": "uint32",
          "name": "tokenType",
          "type": "uint32"
        }
      ],
      "name": "expiryFungibleCampaign",
      "outputs": [
        {
          "internalType": "uint64",
          "name": "",
          "type": "uint64"
        }
      ],
      "stateMutability": "nonpayable",
      "type": "function"
    },
    {
      "inputs": [
        {
          "internalType": "string",
          "name": "campaignAddress",
          "type": "string"
        },
        {
          "internalType": "address",
          "name": "campaigner",
          "type": "address"
        }
      ],
      "name": "expiryCampaign",
      "outputs": [
        {
          "internalType": "uint256",
          "name": "",
          "type": "uint256"
        }
      ],
      "stateMutability": "nonpayable",
      "type": "function"
    }
  ],
  "bytecode": "0x608060405234801561001057600080fd5b50612c83806100206000396000f3fe608060405234801561001057600080fd5b50600436106101c35760003560e01c80637c0b8de2116100f9578063bff3199611610097578063cfe3f9a811610071578063cfe3f9a814610492578063d84c0e27146104c3578063e9de133e146104d6578063f4ff52ae146104e957600080fd5b8063bff319961461044c578063c1cde80c1461045f578063cdde46c81461047f57600080fd5b8063b9942524116100d3578063b9942524146103ed578063bc3ef1e914610400578063bc46270014610426578063bde81c0b1461043957600080fd5b80637c0b8de2146103bf578063a7c7b182146103c7578063b4666130146103da57600080fd5b80634377e3ff116101665780635025ae84116101405780635025ae841461037c5780637422ce611461038f578063774256c7146103a45780637b7fc677146103ac57600080fd5b80634377e3ff146103215780634a3b11521461033e5780634f18230d1461035157600080fd5b806327e235e3116101a257806327e235e314610263578063307869dd1461028357806331c83d3f146102bd578063362e34b9146102e357600080fd5b8062540521146101c857806305346ac51461022f57806316d343e014610242575b600080fd5b6102126101d6366004612514565b8251602081850181018051600782529282019582019590952091909452835260009182526040808320909352815220546001600160401b031681565b6040516001600160401b0390911681526020015b60405180910390f35b61021261023d36600461257e565b6104fc565b6102556102503660046125c1565b6105c1565b604051908152602001610226565b6102556102713660046125c1565b60026020526000908152604090205481565b6102126102913660046125e3565b60056020908152600093845260408085208252928452828420905282529020546001600160401b031681565b6102d06102cb36600461260f565b610617565b60405160079190910b8152602001610226565b6103116102f1366004612685565b600360209081526000928352604080842090915290825290205460ff1681565b6040519015158152602001610226565b610329600181565b60405163ffffffff9091168152602001610226565b61025561034c3660046126b8565b610a17565b61025561035f3660046126b8565b805160208183018101805160068252928201919093012091525481565b61025561038a3660046126ec565b610a78565b6103a261039d366004612764565b610d33565b005b610329600081565b6102556103ba3660046127a8565b610eff565b610329600281565b6102556103d53660046127fe565b6110ea565b6103a26103e8366004612764565b61133c565b6102556103fb366004612514565b6114e8565b61032961040e3660046125c1565b60096020526000908152604090205463ffffffff1681565b6103a2610434366004612764565b6116dd565b6103a2610447366004612842565b61189d565b6103a261045a3660046125c1565b611b8a565b61047261046d36600461288e565b611ca1565b60405161022691906128a9565b6102d061048d36600461260f565b611d6b565b6103296104a03660046126b8565b8051602081830181018051600b8252928201919093012091525463ffffffff1681565b6102126104d136600461257e565b611fe1565b6102126104e43660046128f6565b6120e4565b6103116104f7366004612685565b61240a565b600080546001600160a01b031633148061051a575061051a3361243d565b61053f5760405162461bcd60e51b815260040161053690612964565b60405180910390fd5b6040805180820190915260048152632298189b60e11b602082015263ffffffff83166002146105815760405162461bcd60e51b81526004016105369190612a1b565b5050506001600160a01b0391821660009081526005602090815260408083209390941682529182528281206002825290915220546001600160401b031690565b600080546001600160a01b03163314806105df57506105df3361243d565b6105fb5760405162461bcd60e51b815260040161053690612964565b506001600160a01b031660009081526002602052604090205490565b600080546001600160a01b031633146106425760405162461bcd60e51b815260040161053690612a2e565b61064d60018661240a565b604051806040016040528060048152602001634530303560e01b815250906106885760405162461bcd60e51b81526004016105369190612a1b565b506000845111604051806040016040528060048152602001632298181960e11b815250906106c95760405162461bcd60e51b81526004016105369190612a1b565b506106d38361243d565b604051806040016040528060048152602001634530303360e01b8152509061070e5760405162461bcd60e51b81526004016105369190612a1b565b5060008260070b13604051806040016040528060048152602001634530313160e01b815250906107515760405162461bcd60e51b81526004016105369190612a1b565b506001600160a01b038084166000908152600560209081526040808320938916835292815282822060018352815290829020548251808401909352600483526308a6060760e31b918301919091528391906001600160401b03808416911610156107ce5760405162461bcd60e51b81526004016105369190612a1b565b506001600160a01b038085166000908152600560209081526040808320938a16835292815282822060018352905290812080548392906108189084906001600160401b0316612a99565b92506101000a8154816001600160401b0302191690836001600160401b031602179055508060078660405161084d9190612ac0565b90815260408051602092819003830190206001600160a01b038a16600090815290835281812060018252909252812080549091906108959084906001600160401b0316612adc565b82546101009290920a6001600160401b038181021990931691831602179091556001600160a01b038681166000908152600560209081526040808320938c1683529281528282206001835290528190205490519082169250908316906007906108ff908990612ac0565b90815260408051602092819003830190206001600160a01b038b166000908152908352818120600182529092529020546001600160401b03160361097e577f0674090a69c67762650abcd64d1bc896d06756b85c925a9f28e97a30487db3ae8683600160405161097193929190612afc565b60405180910390a16109bb565b7f64ef3840fadd155a2d8cb45b5f007ed1273c96ca6026ee12008d0809aa77eef7868360016040516109b293929190612afc565b60405180910390a15b604080516001600160a01b038781168252891660208201526001600160401b0383168183015290517f2fa1a54f364a5a61a29da95bf0632455b2fb41ab6434ad448e6432058203bffc9181900360600190a19695505050505050565b600080546001600160a01b0316331480610a355750610a353361243d565b610a515760405162461bcd60e51b815260040161053690612964565b600682604051610a619190612ac0565b90815260200160405180910390205490505b919050565b600080546001600160a01b03163314610aa35760405162461bcd60e51b815260040161053690612a2e565b610aae60018661240a565b604051806040016040528060048152602001634530303560e01b81525090610ae95760405162461bcd60e51b81526004016105369190612a1b565b50610af38461243d565b604051806040016040528060048152602001634530303360e01b81525090610b2e5760405162461bcd60e51b81526004016105369190612a1b565b506000835111604051806040016040528060048152602001632298181960e11b81525090610b6f5760405162461bcd60e51b81526004016105369190612a1b565b506040805180820190915260048152634530313160e01b60208201526001600160401b038316610bb25760405162461bcd60e51b81526004016105369190612a1b565b50600a83604051610bc39190612ac0565b90815260408051918290036020908101832060016000908152908252829020548383019092526004835263114c0c0d60e21b9083015260ff16610c195760405162461bcd60e51b81526004016105369190612a1b565b5081600784604051610c2b9190612ac0565b90815260408051602092819003830190206001600160a01b03891660009081529083528181206001825290925281208054909190610c739084906001600160401b0316612a99565b92506101000a8154816001600160401b0302191690836001600160401b031602179055506000600784604051610ca99190612ac0565b9081526040805191829003602090810183206001600160a01b038a1660009081529082528281206001825290915220546001600160401b0390811692507f037378c439105dd07d1db6d59a47347ea8f734a0835509a3820255c8be11cea091610d19918791908716908590612b34565b60405180910390a16001600160401b031695945050505050565b6000546001600160a01b03163314610d5d5760405162461bcd60e51b815260040161053690612a2e565b6000825111604051806040016040528060048152602001632298181960e11b81525090610d9d5760405162461bcd60e51b81526004016105369190612a1b565b506040805180820190915260048152630453031360e41b602082015281610dd75760405162461bcd60e51b81526004016105369190612a1b565b50600a82604051610de89190612ac0565b90815260408051918290036020908101832060026000908152908252829020548383019092526004835263114c0c4d60e21b9083015260ff1615610e3f5760405162461bcd60e51b81526004016105369190612a1b565b506001600a83604051610e529190612ac0565b90815260408051602092819003830190206002600090815292529020805460ff1916911515919091179055610e878142612b66565b600883604051610e979190612ac0565b90815260200160405180910390206000600263ffffffff168152602001908152602001600020819055507ffda0e6502dae3d85195083e39efa0c8bdccc7d5741b53cf5c57de0c33dc9aaa4826002604051610ef3929190612b79565b60405180910390a15050565b600080546001600160a01b03163314610f2a5760405162461bcd60e51b815260040161053690612a2e565b610f338461243d565b604051806040016040528060048152602001634530303360e01b81525090610f6e5760405162461bcd60e51b81526004016105369190612a1b565b506000835111604051806040016040528060048152602001632298181960e11b81525090610faf5760405162461bcd60e51b81526004016105369190612a1b565b506040805180820190915260048152634530313160e01b602082015282610fe95760405162461bcd60e51b81526004016105369190612a1b565b50600a83604051610ffa9190612ac0565b9081526040805191829003602090810183206000808052908252829020548383019092526004835263114c0c0d60e21b9083015260ff1661104e5760405162461bcd60e51b81526004016105369190612a1b565b50816006846040516110609190612ac0565b9081526020016040518091039020600082825461107d9190612ba1565b9250508190555060006006846040516110969190612ac0565b90815260200160405180910390205490507f037378c439105dd07d1db6d59a47347ea8f734a0835509a3820255c8be11cea08484836040516110da93929190612bb4565b60405180910390a1949350505050565b600080546001600160a01b031633146111155760405162461bcd60e51b815260040161053690612a2e565b6000835111604051806040016040528060048152602001632298181960e11b815250906111555760405162461bcd60e51b81526004016105369190612a1b565b5061115f8261243d565b604051806040016040528060048152602001634530303360e01b8152509061119a5760405162461bcd60e51b81526004016105369190612a1b565b506008836040516111ab9190612ac0565b9081526040805191829003602090810183206000808052908252829020548383019092526004835263114c0c0d60e21b9083015242116111fe5760405162461bcd60e51b81526004016105369190612a1b565b50600a8360405161120f9190612ac0565b9081526040805191829003602090810183206000808052908252829020548383019092526004835263114c0c0d60e21b9083015260ff166112635760405162461bcd60e51b81526004016105369190612a1b565b506006836040516112749190612ac0565b90815260200160405180910390205460026000846001600160a01b03166001600160a01b0316815260200190815260200160002060008282546112b79190612b66565b9250508190555060006006846040516112d09190612ac0565b908152604080519182900360209081018320939093556001600160a01b03851660009081526002909352822054917f2a4a396795b36662ffe9a398a57fd654cf6ea95e79cf6d96d6f0267685687c399161132b918791612b79565b60405180910390a190505b92915050565b6000546001600160a01b031633146113665760405162461bcd60e51b815260040161053690612a2e565b6000825111604051806040016040528060048152602001632298181960e11b815250906113a65760405162461bcd60e51b81526004016105369190612a1b565b506040805180820190915260048152630453031360e41b6020820152816113e05760405162461bcd60e51b81526004016105369190612a1b565b50600a826040516113f19190612ac0565b9081526040805191829003602090810183206000808052908252829020548383019092526004835263114c0c4d60e21b9083015260ff16156114465760405162461bcd60e51b81526004016105369190612a1b565b506001600a836040516114599190612ac0565b9081526040805160209281900383019020600080805292529020805460ff191691151591909117905561148c8142612b66565b60088360405161149c9190612ac0565b908152604080516020928190038301812060008080529352908220929092557ffda0e6502dae3d85195083e39efa0c8bdccc7d5741b53cf5c57de0c33dc9aaa491610ef3918591612b79565b600080546001600160a01b031633146115135760405162461bcd60e51b815260040161053690612a2e565b61151c8361243d565b604051806040016040528060048152602001634530303360e01b815250906115575760405162461bcd60e51b81526004016105369190612a1b565b508160026000856001600160a01b03166001600160a01b031681526020019081526020016000205410156040518060400160405280600481526020016308a6060760e31b815250906115bc5760405162461bcd60e51b81526004016105369190612a1b565b506001600160a01b038316600090815260026020526040812080548492906115e5908490612ba1565b92505081905550816006856040516115fd9190612ac0565b9081526020016040518091039020600082825461161a9190612b66565b90915550506001600160a01b03831660009081526002602052604090819020549051839060069061164c908890612ac0565b908152602001604051809103902054036116a1577f0674090a69c67762650abcd64d1bc896d06756b85c925a9f28e97a30487db3ae8584600060405161169493929190612bd9565b60405180910390a16116d5565b7f64ef3840fadd155a2d8cb45b5f007ed1273c96ca6026ee12008d0809aa77eef7858460006040516110da93929190612bd9565b949350505050565b6000546001600160a01b031633146117075760405162461bcd60e51b815260040161053690612a2e565b6000825111604051806040016040528060048152602001632298181960e11b815250906117475760405162461bcd60e51b81526004016105369190612a1b565b506040805180820190915260048152630453031360e41b6020820152816117815760405162461bcd60e51b81526004016105369190612a1b565b50600a826040516117929190612ac0565b90815260408051918290036020908101832060016000908152908252829020548383019092526004835263114c0c4d60e21b9083015260ff16156117e95760405162461bcd60e51b81526004016105369190612a1b565b506001600a836040516117fc9190612ac0565b90815260408051602092819003830190206001600090815292529020805460ff19169115159190911790556118318142612b66565b6008836040516118419190612ac0565b90815260200160405180910390206000600163ffffffff168152602001908152602001600020819055507ffda0e6502dae3d85195083e39efa0c8bdccc7d5741b53cf5c57de0c33dc9aaa4826001604051610ef3929190612b79565b6000546001600160a01b031633146118c75760405162461bcd60e51b815260040161053690612a2e565b63ffffffff8216600114806118e2575063ffffffff82166002145b604051806040016040528060048152602001632298189b60e11b8152509061191d5760405162461bcd60e51b81526004016105369190612a1b565b50808015611955575063ffffffff821660009081526003602090815260408083206001600160a01b038716845290915290205460ff16155b156119bd575063ffffffff1660008181526003602090815260408083206001600160a01b0395909516808452948252808320805460ff1916600190811790915593835260048252822080549384018155825290200180546001600160a01b0319169091179055565b801580156119f4575063ffffffff821660009081526003602090815260408083206001600160a01b038716845290915290205460ff165b15611b855763ffffffff821660008181526003602090815260408083206001600160a01b03881684528252808320805460ff191690559282526004905290812054905b81811015611b825763ffffffff8416600090815260046020526040902080546001600160a01b038716919083908110611a7257611a72612c08565b6000918252602090912001546001600160a01b031603611b705763ffffffff84166000908152600460205260409020611aac600184612ba1565b81548110611abc57611abc612c08565b600091825260208083209091015463ffffffff871683526004909152604090912080546001600160a01b039092169183908110611afb57611afb612c08565b600091825260208083209190910180546001600160a01b0319166001600160a01b03949094169390931790925563ffffffff86168152600490915260409020805480611b4957611b49612c1e565b600082815260209020810160001990810180546001600160a01b0319169055019055611b82565b80611b7a81612c34565b915050611a37565b50505b505050565b6000546001600160a01b03163314611bb45760405162461bcd60e51b815260040161053690612a2e565b6040805180820190915260048152632298181960e11b60208201526001600160a01b038216611bf65760405162461bcd60e51b81526004016105369190612a1b565b50611c008161243d565b15604051806040016040528060048152602001632298181b60e11b81525090611c3c5760405162461bcd60e51b81526004016105369190612a1b565b506001600160a01b0381166000818152600160208181526040808420805460ff19169093179092556002815281832092909255519182527f3d04fb94919fdfa7708320cdebdf093992d88d792b3d5f4144c364cda00129c6910160405180910390a150565b606063ffffffff821660011480611cbe575063ffffffff82166002145b604051806040016040528060048152602001632298189b60e11b81525090611cf95760405162461bcd60e51b81526004016105369190612a1b565b5063ffffffff821660009081526004602090815260409182902080548351818402810184019094528084529091830182828015611d5f57602002820191906000526020600020905b81546001600160a01b03168152600190910190602001808311611d41575b50505050509050919050565b600080546001600160a01b03163314611d965760405162461bcd60e51b815260040161053690612a2e565b611da160028661240a565b604051806040016040528060048152602001634530303560e01b81525090611ddc5760405162461bcd60e51b81526004016105369190612a1b565b506000845111604051806040016040528060048152602001632298181960e11b81525090611e1d5760405162461bcd60e51b81526004016105369190612a1b565b50611e278361243d565b604051806040016040528060048152602001634530303360e01b81525090611e625760405162461bcd60e51b81526004016105369190612a1b565b5060008260070b13604051806040016040528060048152602001634530313160e01b81525090611ea55760405162461bcd60e51b81526004016105369190612a1b565b506001600160a01b038084166000908152600560209081526040808320938916835292815282822060028352815290829020548251808401909352600483526308a6060760e31b918301919091526001600160401b0380851691161015611f1f5760405162461bcd60e51b81526004016105369190612a1b565b5081600785604051611f319190612ac0565b90815260408051602092819003830181206001600160a01b038a811660008181529286528483206002808552908752858420805467ffffffffffffffff19166001600160401b03998a16179055918a1683526005865284832090835285528382208183529094529190912054909216917f0674090a69c67762650abcd64d1bc896d06756b85c925a9f28e97a30487db3ae91611fd09188918791612afc565b60405180910390a195945050505050565b600080546001600160a01b0316331480611fff5750611fff3361243d565b61201b5760405162461bcd60e51b815260040161053690612964565b6040805180820190915260048152634530313560e01b602082015263ffffffff831660011461205d5760405162461bcd60e51b81526004016105369190612a1b565b5061206960018461240a565b604051806040016040528060048152602001634530303560e01b815250906120a45760405162461bcd60e51b81526004016105369190612a1b565b5050506001600160a01b0391821660009081526005602090815260408083209390941682529182528281206001825290915220546001600160401b031690565b600080546001600160a01b0316331461210f5760405162461bcd60e51b815260040161053690612a2e565b6040805180820190915260048152634530303160e01b60208201526001600160a01b0386166121515760405162461bcd60e51b81526004016105369190612a1b565b506000845111604051806040016040528060048152602001632298181960e11b815250906121925760405162461bcd60e51b81526004016105369190612a1b565b5061219c8361243d565b604051806040016040528060048152602001634530303360e01b815250906121d75760405162461bcd60e51b81526004016105369190612a1b565b50600a846040516121e89190612ac0565b90815260408051918290036020908101832063ffffffff86166000908152908252829020548383019092526004835263114c0c0d60e21b9083015260ff166122435760405162461bcd60e51b81526004016105369190612a1b565b506008846040516122549190612ac0565b90815260408051918290036020908101832063ffffffff86166000908152908252829020548383019092526004835263114c0c0d60e21b9083015242116122ae5760405162461bcd60e51b81526004016105369190612a1b565b506007846040516122bf9190612ac0565b90815260408051602092819003830190206001600160a01b03888116600081815292855283832063ffffffff88168085529086528484205492891684526005865284842091845290855283832090835290935290812080546001600160401b039384169391929161233291859116612adc565b92506101000a8154816001600160401b0302191690836001600160401b0316021790555060006007856040516123689190612ac0565b90815260408051602092819003830181206001600160a01b038a8116600081815292865284832063ffffffff8a16808552908752858420805467ffffffffffffffff19166001600160401b03998a16179055918a168352600586528483209083528552838220908252909352912054909116907f2a4a396795b36662ffe9a398a57fd654cf6ea95e79cf6d96d6f0267685687c3990611fd09087908690612b79565b63ffffffff821660009081526003602090815260408083206001600160a01b038516845290915290205460ff1692915050565b6001600160a01b031660009081526001602052604090205460ff1690565b634e487b7160e01b600052604160045260246000fd5b600082601f83011261248257600080fd5b81356001600160401b038082111561249c5761249c61245b565b604051601f8301601f19908116603f011681019082821181831017156124c4576124c461245b565b816040528381528660208588010111156124dd57600080fd5b836020870160208301376000602085830101528094505050505092915050565b80356001600160a01b0381168114610a7357600080fd5b60008060006060848603121561252957600080fd5b83356001600160401b0381111561253f57600080fd5b61254b86828701612471565b93505061255a602085016124fd565b9150604084013590509250925092565b803563ffffffff81168114610a7357600080fd5b60008060006060848603121561259357600080fd5b61259c846124fd565b92506125aa602085016124fd565b91506125b86040850161256a565b90509250925092565b6000602082840312156125d357600080fd5b6125dc826124fd565b9392505050565b6000806000606084860312156125f857600080fd5b612601846124fd565b925061255a602085016124fd565b6000806000806080858703121561262557600080fd5b61262e856124fd565b935060208501356001600160401b0381111561264957600080fd5b61265587828801612471565b935050612664604086016124fd565b915060608501358060070b811461267a57600080fd5b939692955090935050565b6000806040838503121561269857600080fd5b6126a18361256a565b91506126af602084016124fd565b90509250929050565b6000602082840312156126ca57600080fd5b81356001600160401b038111156126e057600080fd5b6116d584828501612471565b6000806000806080858703121561270257600080fd5b61270b856124fd565b9350612719602086016124fd565b925060408501356001600160401b038082111561273557600080fd5b61274188838901612471565b935060608701359150808216821461275857600080fd5b50939692955090935050565b6000806040838503121561277757600080fd5b82356001600160401b0381111561278d57600080fd5b61279985828601612471565b95602094909401359450505050565b6000806000606084860312156127bd57600080fd5b6127c6846124fd565b925060208401356001600160401b038111156127e157600080fd5b6127ed86828701612471565b925050604084013590509250925092565b6000806040838503121561281157600080fd5b82356001600160401b0381111561282757600080fd5b61283385828601612471565b9250506126af602084016124fd565b60008060006060848603121561285757600080fd5b612860846124fd565b925061286e6020850161256a565b91506040840135801515811461288357600080fd5b809150509250925092565b6000602082840312156128a057600080fd5b6125dc8261256a565b6020808252825182820181905260009190848201906040850190845b818110156128ea5783516001600160a01b0316835292840192918401916001016128c5565b50909695505050505050565b6000806000806080858703121561290c57600080fd5b612915856124fd565b935060208501356001600160401b0381111561293057600080fd5b61293c87828801612471565b93505061294b604086016124fd565b91506129596060860161256a565b905092959194509250565b60208082526041908201527f556e617574686f72697a6520416363657373207265717565737465642c20436160408201527f6c6c6572206d757374206265206f776e6572206f722063616d706169676e65726060820152601760f91b608082015260a00190565b60005b838110156129e65781810151838201526020016129ce565b50506000910152565b60008151808452612a078160208601602086016129cb565b601f01601f19169290920160200192915050565b6020815260006125dc60208301846129ef565b60208082526035908201527f556e617574686f72697a6520416363657373207265717565737465642c204361604082015274363632b91034b9903737ba103a34329037bbb732b960591b606082015260800190565b634e487b7160e01b600052601160045260246000fd5b6001600160401b03828116828216039080821115612ab957612ab9612a83565b5092915050565b60008251612ad28184602087016129cb565b9190910192915050565b6001600160401b03818116838216019080821115612ab957612ab9612a83565b606081526000612b0f60608301866129ef565b90506001600160401b038416602083015263ffffffff83166040830152949350505050565b606081526000612b4760608301866129ef565b90508360208301526001600160401b0383166040830152949350505050565b8082018082111561133657611336612a83565b604081526000612b8c60408301856129ef565b905063ffffffff831660208301529392505050565b8181038181111561133657611336612a83565b606081526000612bc760608301866129ef565b60208301949094525060400152919050565b606081526000612bec60608301866129ef565b905083602083015263ffffffff83166040830152949350505050565b634e487b7160e01b600052603260045260246000fd5b634e487b7160e01b600052603160045260246000fd5b600060018201612c4657612c46612a83565b506001019056fea264697066735822122053d3d5860ef3d077799a9ee8a8be82a0caf9e9d0d3631fda416cd895d8ca316164736f6c63430008110033",
  "immutableReferences": {},
  "source": "// SPDX-License-Identifier: Apache-2.0\r\npragma solidity ^0.8.17;\r\n\r\nimport \"./HashbuzzStates.sol\";\r\nimport \"./Utils.sol\";\r\n\r\n/**\r\n * @title CampaignLifecycle\r\n * @dev This contract manages the campaign's lifecycle calls and state changes.\r\n */\r\ncontract Lifecycle is HashbuzzStates, Utils {\r\n    /**\r\n     * @dev Add a new campaign or top up an existing campaign\r\n     * @param campaignAddress The db address of the campaign\r\n     * @param campaigner The solidity address of the campaigner or wallet address\r\n     * @param amount The amount to be allocated to the campaign from the campaigner's balance.\r\n     */\r\n    function addCampaignOrTopUp(\r\n        string memory campaignAddress,\r\n        address campaigner,\r\n        uint256 amount\r\n    ) public onlyOwner returns (uint256) {\r\n        require(isCampaigner(campaigner), ERR_CAMPAIGNER_NOT_ALLOWED);\r\n        require(balances[campaigner] >= amount, ERR_INSUFFICIENT_BALANCE);\r\n\r\n        balances[campaigner] -= amount;\r\n        campaignBalances[campaignAddress] += amount;\r\n\r\n        uint256 updatedBalance = balances[campaigner];\r\n\r\n        if (campaignBalances[campaignAddress] == amount) {\r\n            emit NewCampaignIsAdded(campaignAddress, amount, HBAR);\r\n        } else {\r\n            emit CampaignToppedUp(campaignAddress, amount, HBAR);\r\n        }\r\n\r\n        return updatedBalance;\r\n    }\r\n\r\n    /**\r\n     * @dev Add a new campaign for fungible tokens or top up an existing campaign\r\n     * @param tokenId The address of the token in solidity format\r\n     * @param campaignAddress The db address of the campaign\r\n     * @param campaigner The solidity address of the campaigner or wallet address\r\n     * @param tokenAmount The amount of tokens to be allocated to the campaign\r\n     */\r\n    function addFungibleCampaign(\r\n        address tokenId,\r\n        string memory campaignAddress,\r\n        address campaigner,\r\n        int64 tokenAmount\r\n    ) public onlyOwner returns (int64) {\r\n        require(\r\n            isTokenWhitelisted(FUNGIBLE, tokenId),\r\n            ERR_TOKEN_NOT_WHITELISTED\r\n        );\r\n        require(\r\n            bytes(campaignAddress).length > 0,\r\n            ERR_INVALID_CAMPAIGN_ADDRESS\r\n        );\r\n        require(isCampaigner(campaigner), ERR_CAMPAIGNER_NOT_ALLOWED);\r\n        require(tokenAmount > 0, ERR_TOTAL_AMOUNT_MUST_BE_GREATER_THAN_ZERO);\r\n\r\n        uint64 amount = uint64(tokenAmount);\r\n        require(\r\n            tokenBalances[campaigner][tokenId][FUNGIBLE] >= amount,\r\n            ERR_INSUFFICIENT_BALANCE\r\n        );\r\n\r\n        tokenBalances[campaigner][tokenId][FUNGIBLE] -= amount;\r\n        tokenCampaignBalances[campaignAddress][tokenId][FUNGIBLE] += amount;\r\n\r\n        uint64 updatedBalance = tokenBalances[campaigner][tokenId][FUNGIBLE];\r\n\r\n        if (\r\n            tokenCampaignBalances[campaignAddress][tokenId][FUNGIBLE] == amount\r\n        ) {\r\n            emit NewCampaignIsAdded(campaignAddress, amount, FUNGIBLE);\r\n        } else {\r\n            emit CampaignToppedUp(campaignAddress, amount, FUNGIBLE);\r\n        }\r\n\r\n        emit FungibleTokenBalanceUpdated(campaigner, tokenId, updatedBalance);\r\n        return int64(updatedBalance);\r\n    }\r\n\r\n    /**\r\n     * @dev Add a new campaign for NFT tokens\r\n     * @param tokenId The address of the token in solidity format\r\n     * @param campaignAddress The db address of the campaign [string]\r\n     * @param campaigner The solidity address of the campaigner or wallet address\r\n     * @param tokenAmount The amount of tokens to be allocated to the campaign\r\n     */\r\n    function addNFTCampaign(\r\n        address tokenId,\r\n        string memory campaignAddress,\r\n        address campaigner,\r\n        int64 tokenAmount\r\n    ) public onlyOwner returns (int64) {\r\n        require(isTokenWhitelisted(NFT, tokenId), ERR_TOKEN_NOT_WHITELISTED);\r\n        require(\r\n            bytes(campaignAddress).length > 0,\r\n            ERR_INVALID_CAMPAIGN_ADDRESS\r\n        );\r\n        require(isCampaigner(campaigner), ERR_CAMPAIGNER_NOT_ALLOWED);\r\n        require(tokenAmount > 0, ERR_TOTAL_AMOUNT_MUST_BE_GREATER_THAN_ZERO);\r\n\r\n        require(\r\n            tokenBalances[campaigner][tokenId][NFT] >= uint64(tokenAmount),\r\n            ERR_INSUFFICIENT_BALANCE\r\n        );\r\n        tokenCampaignBalances[campaignAddress][tokenId][NFT] = uint64(\r\n            tokenAmount\r\n        );\r\n\r\n        uint64 updatedBalance = tokenBalances[campaigner][tokenId][NFT];\r\n\r\n        emit NewCampaignIsAdded(campaignAddress, uint64(tokenAmount), NFT);\r\n        return int64(updatedBalance);\r\n    }\r\n\r\n    /**\r\n     * @dev Close a campaign with HBAR\r\n     * @param campaignAddress The db address of the campaign\r\n     * @param campaignExpiryTime The expiry time of the campaign in seconds\r\n     */\r\n    function closeCampaign(\r\n        string memory campaignAddress,\r\n        uint256 campaignExpiryTime\r\n    ) public onlyOwner {\r\n        require(\r\n            bytes(campaignAddress).length > 0,\r\n            ERR_INVALID_CAMPAIGN_ADDRESS\r\n        );\r\n        require(campaignExpiryTime > 0, ERR_INVALID_EXPIRY_TIME);\r\n        require(\r\n            !isCampaignClosed[campaignAddress][HBAR],\r\n            ERR_TCAMPAIGN_ALREADY_CLOSED\r\n        );\r\n\r\n        isCampaignClosed[campaignAddress][HBAR] = true;\r\n        campaignEndTime[campaignAddress][HBAR] =\r\n            block.timestamp +\r\n            campaignExpiryTime;\r\n        emit campaignClosed(campaignAddress, HBAR);\r\n    }\r\n\r\n    /**\r\n     * @dev Close a campaign with fungible tokens\r\n     * @param campaignAddress The db address of the campaign\r\n     * @param campaignExpiryTime The expiry time of the campaign in seconds\r\n     */\r\n    function closeFungibleCampaign(\r\n        string memory campaignAddress,\r\n        uint256 campaignExpiryTime\r\n    ) public onlyOwner {\r\n        require(\r\n            bytes(campaignAddress).length > 0,\r\n            ERR_INVALID_CAMPAIGN_ADDRESS\r\n        );\r\n        require(campaignExpiryTime > 0, ERR_INVALID_EXPIRY_TIME);\r\n        require(\r\n            !isCampaignClosed[campaignAddress][FUNGIBLE],\r\n            ERR_TCAMPAIGN_ALREADY_CLOSED\r\n        );\r\n\r\n        isCampaignClosed[campaignAddress][FUNGIBLE] = true;\r\n        campaignEndTime[campaignAddress][FUNGIBLE] =\r\n            block.timestamp +\r\n            campaignExpiryTime;\r\n\r\n        emit campaignClosed(campaignAddress, FUNGIBLE);\r\n    }\r\n\r\n    /**\r\n     * @dev Close a campaign with NFT tokens\r\n     * @param campaignAddress The db address of the campaign\r\n     * @param campaignExpiryTime The expiry time of the campaign in seconds\r\n     */\r\n    function closeNFTCampaign(\r\n        string memory campaignAddress,\r\n        uint256 campaignExpiryTime\r\n    ) public onlyOwner {\r\n        require(\r\n            bytes(campaignAddress).length > 0,\r\n            ERR_INVALID_CAMPAIGN_ADDRESS\r\n        );\r\n        require(campaignExpiryTime > 0, ERR_INVALID_EXPIRY_TIME);\r\n        require(\r\n            !isCampaignClosed[campaignAddress][NFT],\r\n            ERR_TCAMPAIGN_ALREADY_CLOSED\r\n        );\r\n\r\n        isCampaignClosed[campaignAddress][NFT] = true;\r\n        campaignEndTime[campaignAddress][NFT] =\r\n            block.timestamp +\r\n            campaignExpiryTime;\r\n\r\n        emit campaignClosed(campaignAddress, NFT);\r\n    }\r\n\r\n    /**\r\n     * @dev Distribute HBAR tokens to the campaigner\r\n     * @param campaigner The solidity address of the campaigner or wallet address\r\n     * @param campaignAddress The db address of the campaign\r\n     * @param totalAmount The total amount of tokens to be distributed\r\n     */\r\n    function adjustTotalReward(\r\n        address campaigner,\r\n        string memory campaignAddress,\r\n        uint256 totalAmount\r\n    ) external onlyOwner returns (uint256) {\r\n        require(isCampaigner(campaigner), ERR_CAMPAIGNER_NOT_ALLOWED);\r\n        require(\r\n            bytes(campaignAddress).length > 0,\r\n            ERR_INVALID_CAMPAIGN_ADDRESS\r\n        );\r\n        require(totalAmount > 0, ERR_TOTAL_AMOUNT_MUST_BE_GREATER_THAN_ZERO);\r\n        require(\r\n            isCampaignClosed[campaignAddress][HBAR],\r\n            ERR_CAMPAIGN_NOT_CLOSED\r\n        );\r\n        // Deduct the distributed amount from the campaign's balance\r\n        campaignBalances[campaignAddress] -= totalAmount;\r\n        uint256 remainingBalance = campaignBalances[campaignAddress];\r\n\r\n        emit RewardsDistributed(campaignAddress, totalAmount, remainingBalance);\r\n        return remainingBalance;\r\n    }\r\n\r\n    /**\r\n     * @dev Distribute fungible tokens to the campaigner\r\n     * @param tokenId The address of the token in solidity format\r\n     * @param campaigner The solidity address of the campaigner or wallet address\r\n     * @param campaignAddress The db address of the campaign\r\n     * @param tokenTotalAmount The total amount of tokens to be distributed\r\n     */\r\n    function adjustTotalFungibleReward(\r\n        address tokenId,\r\n        address campaigner,\r\n        string memory campaignAddress,\r\n        uint64 tokenTotalAmount\r\n    ) external onlyOwner returns (uint256) {\r\n        require(\r\n            isTokenWhitelisted(FUNGIBLE, tokenId),\r\n            ERR_TOKEN_NOT_WHITELISTED\r\n        );\r\n        require(isCampaigner(campaigner), ERR_CAMPAIGNER_NOT_ALLOWED);\r\n        require(\r\n            bytes(campaignAddress).length > 0,\r\n            ERR_INVALID_CAMPAIGN_ADDRESS\r\n        );\r\n        require(\r\n            tokenTotalAmount > 0,\r\n            ERR_TOTAL_AMOUNT_MUST_BE_GREATER_THAN_ZERO\r\n        );\r\n        require(\r\n            isCampaignClosed[campaignAddress][FUNGIBLE],\r\n            ERR_CAMPAIGN_NOT_CLOSED\r\n        );\r\n\r\n        // Deduct the distributed amount from the campaign's balance\r\n        tokenCampaignBalances[campaignAddress][tokenId][\r\n            FUNGIBLE\r\n        ] -= tokenTotalAmount;\r\n        uint64 remainingBalance = tokenCampaignBalances[campaignAddress][\r\n            tokenId\r\n        ][FUNGIBLE];\r\n\r\n        emit RewardsDistributed(\r\n            campaignAddress,\r\n            uint256(tokenTotalAmount),\r\n            remainingBalance\r\n        );\r\n\r\n        return uint256(remainingBalance);\r\n    }\r\n\r\n    /**\r\n     * @dev Expiry a campaign with fungible and NFT tokens\r\n     * @param campaignAddress The db address of the campaign\r\n     * @param tokenId The address of the token in solidity format\r\n     * @param campaigner The solidity address of the campaigner or wallet address\r\n     * @param tokenType The type of the token (FUNGIBLE or NFT) [uint32] (1 for FUNGIBLE & 2 for NFT)\r\n     */\r\n    function expiryFungibleCampaign(\r\n        address tokenId,\r\n        string memory campaignAddress,\r\n        address campaigner,\r\n        uint32 tokenType\r\n    ) public onlyOwner returns (uint64) {\r\n        require(tokenId != address(0), ERR_INVALID_TOKEN_ADDRESS);\r\n        require(\r\n            bytes(campaignAddress).length > 0,\r\n            ERR_INVALID_CAMPAIGN_ADDRESS\r\n        );\r\n        require(isCampaigner(campaigner), ERR_CAMPAIGNER_NOT_ALLOWED);\r\n        require(\r\n            isCampaignClosed[campaignAddress][tokenType],\r\n            ERR_CAMPAIGN_NOT_CLOSED\r\n        );\r\n        require(\r\n            block.timestamp > campaignEndTime[campaignAddress][tokenType],\r\n            ERR_CAMPAIGN_NOT_CLOSED\r\n        );\r\n\r\n        tokenBalances[campaigner][tokenId][tokenType] += tokenCampaignBalances[\r\n            campaignAddress\r\n        ][tokenId][tokenType];\r\n        tokenCampaignBalances[campaignAddress][tokenId][tokenType] = 0;\r\n\r\n        uint64 updatedBalance = tokenBalances[campaigner][tokenId][tokenType];\r\n        emit campaignExpired(campaignAddress, tokenType);\r\n\r\n        return updatedBalance;\r\n    }\r\n\r\n    /**\r\n     * @dev Expiry a campaign with HBAR\r\n     * @param campaignAddress The db address of the campaign\r\n     * @param campaigner The solidity address of the campaigner or wallet address\r\n     */\r\n    function expiryCampaign(\r\n        string memory campaignAddress,\r\n        address campaigner\r\n    ) public onlyOwner returns (uint256) {\r\n        require(\r\n            bytes(campaignAddress).length > 0,\r\n            ERR_INVALID_CAMPAIGN_ADDRESS\r\n        );\r\n        require(isCampaigner(campaigner), ERR_CAMPAIGNER_NOT_ALLOWED);\r\n        require(\r\n            block.timestamp > campaignEndTime[campaignAddress][HBAR],\r\n            ERR_CAMPAIGN_NOT_CLOSED\r\n        );\r\n        require(\r\n            isCampaignClosed[campaignAddress][HBAR],\r\n            ERR_CAMPAIGN_NOT_CLOSED\r\n        );\r\n\r\n        balances[campaigner] += campaignBalances[campaignAddress];\r\n        campaignBalances[campaignAddress] = 0;\r\n        uint256 updatedBalance = balances[campaigner];\r\n\r\n        emit campaignExpired(campaignAddress, HBAR);\r\n\r\n        return updatedBalance;\r\n    }\r\n}\r\n",
  "sourcePath": "D:\\rajatk\\hashbuzz-staging\\smv201\\contracts\\HashbuzzModules\\CampaignLifecycle.sol",
  "compiler": {
    "name": "solc",
    "version": "0.8.17+commit.8df45f5f.Emscripten.clang"
  },
  "schemaVersion": "3.4.16",
  "updatedAt": "2024-11-03T18:02:35.376Z",
  "devdoc": {
    "details": "This contract manages the campaign's lifecycle calls and state changes.",
    "kind": "dev",
    "methods": {
      "addCampaignOrTopUp(string,address,uint256)": {
        "details": "Add a new campaign or top up an existing campaign",
        "params": {
          "amount": "The amount to be allocated to the campaign from the campaigner's balance.",
          "campaignAddress": "The db address of the campaign",
          "campaigner": "The solidity address of the campaigner or wallet address"
        }
      },
      "addCampaigner(address)": {
        "details": "Whitelist cmapigner to the user.",
        "params": {
          "newCampaigner": "Address of the user having campaigner role to be used here"
        }
      },
      "addFungibleCampaign(address,string,address,int64)": {
        "details": "Add a new campaign for fungible tokens or top up an existing campaign",
        "params": {
          "campaignAddress": "The db address of the campaign",
          "campaigner": "The solidity address of the campaigner or wallet address",
          "tokenAmount": "The amount of tokens to be allocated to the campaign",
          "tokenId": "The address of the token in solidity format"
        }
      },
      "addNFTCampaign(address,string,address,int64)": {
        "details": "Add a new campaign for NFT tokens",
        "params": {
          "campaignAddress": "The db address of the campaign [string]",
          "campaigner": "The solidity address of the campaigner or wallet address",
          "tokenAmount": "The amount of tokens to be allocated to the campaign",
          "tokenId": "The address of the token in solidity format"
        }
      },
      "adjustTotalFungibleReward(address,address,string,uint64)": {
        "details": "Distribute fungible tokens to the campaigner",
        "params": {
          "campaignAddress": "The db address of the campaign",
          "campaigner": "The solidity address of the campaigner or wallet address",
          "tokenId": "The address of the token in solidity format",
          "tokenTotalAmount": "The total amount of tokens to be distributed"
        }
      },
      "adjustTotalReward(address,string,uint256)": {
        "details": "Distribute HBAR tokens to the campaigner",
        "params": {
          "campaignAddress": "The db address of the campaign",
          "campaigner": "The solidity address of the campaigner or wallet address",
          "totalAmount": "The total amount of tokens to be distributed"
        }
      },
      "associateToken(address,uint32,bool)": {
        "details": "Adds or removes a token from the whitelist.",
        "params": {
          "isWhitelisted": "Boolean flag to mark the token as whitelisted or not.",
          "tokenAddress": "The address of the token.",
          "tokenType": "The type of the token (1 for FUNGIBLE, 2 for NFT)."
        }
      },
      "closeCampaign(string,uint256)": {
        "details": "Close a campaign with HBAR",
        "params": {
          "campaignAddress": "The db address of the campaign",
          "campaignExpiryTime": "The expiry time of the campaign in seconds"
        }
      },
      "closeFungibleCampaign(string,uint256)": {
        "details": "Close a campaign with fungible tokens",
        "params": {
          "campaignAddress": "The db address of the campaign",
          "campaignExpiryTime": "The expiry time of the campaign in seconds"
        }
      },
      "closeNFTCampaign(string,uint256)": {
        "details": "Close a campaign with NFT tokens",
        "params": {
          "campaignAddress": "The db address of the campaign",
          "campaignExpiryTime": "The expiry time of the campaign in seconds"
        }
      },
      "expiryCampaign(string,address)": {
        "details": "Expiry a campaign with HBAR",
        "params": {
          "campaignAddress": "The db address of the campaign",
          "campaigner": "The solidity address of the campaigner or wallet address"
        }
      },
      "expiryFungibleCampaign(address,string,address,uint32)": {
        "details": "Expiry a campaign with fungible and NFT tokens",
        "params": {
          "campaignAddress": "The db address of the campaign",
          "campaigner": "The solidity address of the campaigner or wallet address",
          "tokenId": "The address of the token in solidity format",
          "tokenType": "The type of the token (FUNGIBLE or NFT) [uint32] (1 for FUNGIBLE & 2 for NFT)"
        }
      },
      "getAllWhitelistedTokens(uint32)": {
        "details": "Retrieves all whitelisted addresses for a given token type.",
        "params": {
          "tokenType": "The type of the token (1 for FUNGIBLE, 2 for NFT)."
        },
        "returns": {
          "_0": "An array of addresses that are whitelisted for the given token type."
        }
      },
      "getCampaignBalance(string)": {
        "details": "Balance holded by the user to see.",
        "params": {
          "campaignAddress": "Solidity address of the campaigner."
        }
      },
      "getFungibleTokenBalance(address,address,uint32)": {
        "params": {
          "campaigner": "Address of the campaigner'solidity address",
          "tokenId": "Solidity address used for the account",
          "tokenType": "The type of the token (FUNGIBLE or NFT) [uint32] (1 for FUNGIBLE & 2 for NFT)"
        }
      },
      "getHbarBalance(address)": {
        "details": "Balance holded by the user to see.",
        "params": {
          "campaigner": "Solidity address of the campaigner."
        }
      },
      "getNFTTokenBalance(address,address,uint32)": {
        "details": "Balance holded by the user to see.",
        "params": {
          "campaigner": "Solidity address of the campaigner.",
          "tokenId": "Solidity address of the token.",
          "tokenType": "The type of the token (FUNGIBLE or NFT) [uint32] (1 for FUNGIBLE & 2 for NFT)                  1 for FUNGIBLE and 2 for NFT."
        }
      },
      "isTokenWhitelisted(uint32,address)": {
        "details": "Checks if a specific token address is whitelisted for a given token type.",
        "params": {
          "tokenAddress": "The address of the token to check.",
          "tokenType": "The type of the token (1 for FUNGIBLE, 2 for NFT)."
        },
        "returns": {
          "_0": "Boolean flag indicating if the token is whitelisted."
        }
      }
    },
    "title": "CampaignLifecycle",
    "version": 1
  },
  "userdoc": {
    "kind": "user",
    "methods": {},
    "version": 1
  }
}