{
  "contractName": "Lifecycle",
  "abi": [
    {
      "anonymous": false,
      "inputs": [
        {
          "indexed": false,
          "internalType": "address",
          "name": "campaigner",
          "type": "address"
        },
        {
          "indexed": false,
          "internalType": "uint256",
          "name": "updatedBalance",
          "type": "uint256"
        }
      ],
      "name": "BalanceUpdated",
      "type": "event"
    },
    {
      "anonymous": false,
      "inputs": [
        {
          "indexed": false,
          "internalType": "address",
          "name": "campaigner",
          "type": "address"
        }
      ],
      "name": "CampaignerAdded",
      "type": "event"
    },
    {
      "anonymous": false,
      "inputs": [
        {
          "indexed": false,
          "internalType": "address",
          "name": "campaigner",
          "type": "address"
        }
      ],
      "name": "CampaignerDeleted",
      "type": "event"
    },
    {
      "anonymous": false,
      "inputs": [
        {
          "indexed": false,
          "internalType": "address",
          "name": "tokenAddress",
          "type": "address"
        }
      ],
      "name": "CreatedToken",
      "type": "event"
    },
    {
      "anonymous": false,
      "inputs": [
        {
          "indexed": false,
          "internalType": "address",
          "name": "campaigner",
          "type": "address"
        },
        {
          "indexed": false,
          "internalType": "uint256",
          "name": "amount",
          "type": "uint256"
        }
      ],
      "name": "FundsDeposited",
      "type": "event"
    },
    {
      "anonymous": false,
      "inputs": [
        {
          "indexed": false,
          "internalType": "address",
          "name": "campaigner",
          "type": "address"
        },
        {
          "indexed": false,
          "internalType": "uint256",
          "name": "amount",
          "type": "uint256"
        }
      ],
      "name": "FundsWithdrawn",
      "type": "event"
    },
    {
      "anonymous": false,
      "inputs": [
        {
          "indexed": false,
          "internalType": "address",
          "name": "campaigner",
          "type": "address"
        },
        {
          "indexed": false,
          "internalType": "address",
          "name": "tokenId",
          "type": "address"
        },
        {
          "indexed": false,
          "internalType": "uint64",
          "name": "updatedBalance",
          "type": "uint64"
        }
      ],
      "name": "FungibleTokenBalanceUpdated",
      "type": "event"
    },
    {
      "anonymous": false,
      "inputs": [
        {
          "indexed": false,
          "internalType": "address",
          "name": "campaigner",
          "type": "address"
        },
        {
          "indexed": false,
          "internalType": "uint64",
          "name": "amount",
          "type": "uint64"
        }
      ],
      "name": "FungibleTokenDeposited",
      "type": "event"
    },
    {
      "anonymous": false,
      "inputs": [
        {
          "indexed": false,
          "internalType": "address",
          "name": "interactor",
          "type": "address"
        },
        {
          "indexed": false,
          "internalType": "address",
          "name": "campaigner",
          "type": "address"
        },
        {
          "indexed": false,
          "internalType": "uint256",
          "name": "amount",
          "type": "uint256"
        }
      ],
      "name": "InteractorPaid",
      "type": "event"
    },
    {
      "anonymous": false,
      "inputs": [
        {
          "indexed": false,
          "internalType": "string",
          "name": "campaignAddress",
          "type": "string"
        },
        {
          "indexed": false,
          "internalType": "uint256",
          "name": "amount",
          "type": "uint256"
        }
      ],
      "name": "InteractorPaidDeferred",
      "type": "event"
    },
    {
      "anonymous": false,
      "inputs": [
        {
          "indexed": false,
          "internalType": "string",
          "name": "campaignAdddress",
          "type": "string"
        },
        {
          "indexed": false,
          "internalType": "uint256",
          "name": "amount",
          "type": "uint256"
        },
        {
          "indexed": false,
          "internalType": "uint32",
          "name": "campaignType",
          "type": "uint32"
        }
      ],
      "name": "NewCampaignIsAdded",
      "type": "event"
    },
    {
      "anonymous": false,
      "inputs": [
        {
          "indexed": false,
          "internalType": "address",
          "name": "owner",
          "type": "address"
        }
      ],
      "name": "OwnerSet",
      "type": "event"
    },
    {
      "anonymous": false,
      "inputs": [
        {
          "indexed": false,
          "internalType": "int256",
          "name": "responseCode",
          "type": "int256"
        }
      ],
      "name": "ResponseCode",
      "type": "event"
    },
    {
      "anonymous": false,
      "inputs": [
        {
          "indexed": false,
          "internalType": "string",
          "name": "campaignAddress",
          "type": "string"
        },
        {
          "indexed": false,
          "internalType": "uint32",
          "name": "campaignType",
          "type": "uint32"
        }
      ],
      "name": "campaignClosed",
      "type": "event"
    },
    {
      "anonymous": false,
      "inputs": [
        {
          "indexed": false,
          "internalType": "string",
          "name": "campaignAddress",
          "type": "string"
        },
        {
          "indexed": false,
          "internalType": "uint32",
          "name": "campaignType",
          "type": "uint32"
        }
      ],
      "name": "campaignExpired",
      "type": "event"
    },
    {
      "inputs": [],
      "name": "FUNGIBLE",
      "outputs": [
        {
          "internalType": "uint32",
          "name": "",
          "type": "uint32"
        }
      ],
      "stateMutability": "view",
      "type": "function"
    },
    {
      "inputs": [],
      "name": "HBAR",
      "outputs": [
        {
          "internalType": "uint32",
          "name": "",
          "type": "uint32"
        }
      ],
      "stateMutability": "view",
      "type": "function"
    },
    {
      "inputs": [],
      "name": "NFT",
      "outputs": [
        {
          "internalType": "uint32",
          "name": "",
          "type": "uint32"
        }
      ],
      "stateMutability": "view",
      "type": "function"
    },
    {
      "inputs": [
        {
          "internalType": "address",
          "name": "newCampaigner",
          "type": "address"
        }
      ],
      "name": "addCampaigner",
      "outputs": [],
      "stateMutability": "nonpayable",
      "type": "function"
    },
    {
      "inputs": [
        {
          "internalType": "address",
          "name": "tokenAddress",
          "type": "address"
        },
        {
          "internalType": "uint32",
          "name": "tokenType",
          "type": "uint32"
        },
        {
          "internalType": "bool",
          "name": "isWhitelisted",
          "type": "bool"
        }
      ],
      "name": "associateToken",
      "outputs": [],
      "stateMutability": "nonpayable",
      "type": "function"
    },
    {
      "inputs": [
        {
          "internalType": "address",
          "name": "",
          "type": "address"
        }
      ],
      "name": "balances",
      "outputs": [
        {
          "internalType": "uint256",
          "name": "",
          "type": "uint256"
        }
      ],
      "stateMutability": "view",
      "type": "function"
    },
    {
      "inputs": [
        {
          "internalType": "string",
          "name": "",
          "type": "string"
        }
      ],
      "name": "campaignBalances",
      "outputs": [
        {
          "internalType": "uint256",
          "name": "",
          "type": "uint256"
        }
      ],
      "stateMutability": "view",
      "type": "function"
    },
    {
      "inputs": [
        {
          "internalType": "string",
          "name": "",
          "type": "string"
        }
      ],
      "name": "campaignRandomNumber",
      "outputs": [
        {
          "internalType": "uint32",
          "name": "",
          "type": "uint32"
        }
      ],
      "stateMutability": "view",
      "type": "function"
    },
    {
      "inputs": [
        {
          "internalType": "uint32",
          "name": "tokenType",
          "type": "uint32"
        }
      ],
      "name": "getAllWhitelistedTokens",
      "outputs": [
        {
          "internalType": "address[]",
          "name": "",
          "type": "address[]"
        }
      ],
      "stateMutability": "view",
      "type": "function"
    },
    {
      "inputs": [
        {
          "internalType": "string",
          "name": "campaignAddress",
          "type": "string"
        }
      ],
      "name": "getCampaignBalance",
      "outputs": [
        {
          "internalType": "uint256",
          "name": "",
          "type": "uint256"
        }
      ],
      "stateMutability": "view",
      "type": "function"
    },
    {
      "inputs": [
        {
          "internalType": "address",
          "name": "campaigner",
          "type": "address"
        },
        {
          "internalType": "address",
          "name": "tokenId",
          "type": "address"
        },
        {
          "internalType": "uint32",
          "name": "tokenType",
          "type": "uint32"
        }
      ],
      "name": "getFungibleTokenBalance",
      "outputs": [
        {
          "internalType": "uint64",
          "name": "res",
          "type": "uint64"
        }
      ],
      "stateMutability": "view",
      "type": "function"
    },
    {
      "inputs": [
        {
          "internalType": "address",
          "name": "campaigner",
          "type": "address"
        },
        {
          "internalType": "address",
          "name": "tokenId",
          "type": "address"
        },
        {
          "internalType": "uint32",
          "name": "tokenType",
          "type": "uint32"
        }
      ],
      "name": "getNFTTokenBalance",
      "outputs": [
        {
          "internalType": "uint64",
          "name": "res",
          "type": "uint64"
        }
      ],
      "stateMutability": "view",
      "type": "function"
    },
    {
      "inputs": [],
      "name": "id",
      "outputs": [
        {
          "internalType": "uint32",
          "name": "",
          "type": "uint32"
        }
      ],
      "stateMutability": "view",
      "type": "function"
    },
    {
      "inputs": [
        {
          "internalType": "uint32",
          "name": "tokenType",
          "type": "uint32"
        },
        {
          "internalType": "address",
          "name": "tokenAddress",
          "type": "address"
        }
      ],
      "name": "isTokenWhitelisted",
      "outputs": [
        {
          "internalType": "bool",
          "name": "",
          "type": "bool"
        }
      ],
      "stateMutability": "view",
      "type": "function"
    },
    {
      "inputs": [
        {
          "internalType": "address",
          "name": "",
          "type": "address"
        }
      ],
      "name": "nftCampaigner",
      "outputs": [
        {
          "internalType": "uint32",
          "name": "",
          "type": "uint32"
        }
      ],
      "stateMutability": "view",
      "type": "function"
    },
    {
      "inputs": [
        {
          "internalType": "address",
          "name": "",
          "type": "address"
        }
      ],
      "name": "rewardBalances",
      "outputs": [
        {
          "internalType": "uint256",
          "name": "",
          "type": "uint256"
        }
      ],
      "stateMutability": "view",
      "type": "function"
    },
    {
      "inputs": [
        {
          "internalType": "address",
          "name": "",
          "type": "address"
        },
        {
          "internalType": "address",
          "name": "",
          "type": "address"
        },
        {
          "internalType": "uint256",
          "name": "",
          "type": "uint256"
        }
      ],
      "name": "rewardTokenBalances",
      "outputs": [
        {
          "internalType": "uint64",
          "name": "",
          "type": "uint64"
        }
      ],
      "stateMutability": "view",
      "type": "function"
    },
    {
      "inputs": [
        {
          "internalType": "address",
          "name": "",
          "type": "address"
        },
        {
          "internalType": "address",
          "name": "",
          "type": "address"
        },
        {
          "internalType": "uint256",
          "name": "",
          "type": "uint256"
        }
      ],
      "name": "tokenBalances",
      "outputs": [
        {
          "internalType": "uint64",
          "name": "",
          "type": "uint64"
        }
      ],
      "stateMutability": "view",
      "type": "function"
    },
    {
      "inputs": [
        {
          "internalType": "string",
          "name": "",
          "type": "string"
        },
        {
          "internalType": "address",
          "name": "",
          "type": "address"
        },
        {
          "internalType": "uint256",
          "name": "",
          "type": "uint256"
        }
      ],
      "name": "tokenCampaignBalances",
      "outputs": [
        {
          "internalType": "uint64",
          "name": "",
          "type": "uint64"
        }
      ],
      "stateMutability": "view",
      "type": "function"
    },
    {
      "inputs": [
        {
          "internalType": "uint32",
          "name": "",
          "type": "uint32"
        },
        {
          "internalType": "address",
          "name": "",
          "type": "address"
        }
      ],
      "name": "whitelistedToken",
      "outputs": [
        {
          "internalType": "bool",
          "name": "",
          "type": "bool"
        }
      ],
      "stateMutability": "view",
      "type": "function"
    },
    {
      "inputs": [
        {
          "internalType": "string",
          "name": "campaignAddress",
          "type": "string"
        },
        {
          "internalType": "address",
          "name": "campaigner",
          "type": "address"
        },
        {
          "internalType": "uint256",
          "name": "amount",
          "type": "uint256"
        }
      ],
      "name": "addCampaign",
      "outputs": [],
      "stateMutability": "nonpayable",
      "type": "function"
    },
    {
      "inputs": [
        {
          "internalType": "address",
          "name": "tokenId",
          "type": "address"
        },
        {
          "internalType": "string",
          "name": "campaignAddress",
          "type": "string"
        },
        {
          "internalType": "address",
          "name": "campaigner",
          "type": "address"
        },
        {
          "internalType": "int64",
          "name": "tokenAmount",
          "type": "int64"
        },
        {
          "internalType": "uint32",
          "name": "tokenType",
          "type": "uint32"
        }
      ],
      "name": "addFungibleAndNFTCampaign",
      "outputs": [],
      "stateMutability": "nonpayable",
      "type": "function"
    },
    {
      "inputs": [
        {
          "internalType": "string",
          "name": "campaignAddress",
          "type": "string"
        },
        {
          "internalType": "uint256",
          "name": "campaignExpiryTime",
          "type": "uint256"
        }
      ],
      "name": "closeCampaign",
      "outputs": [],
      "stateMutability": "nonpayable",
      "type": "function"
    },
    {
      "inputs": [
        {
          "internalType": "string",
          "name": "campaignAddress",
          "type": "string"
        },
        {
          "internalType": "uint256",
          "name": "campaignExpiryTime",
          "type": "uint256"
        },
        {
          "internalType": "uint32",
          "name": "tokenType",
          "type": "uint32"
        }
      ],
      "name": "closeFungibleAndNFTCampaign",
      "outputs": [],
      "stateMutability": "nonpayable",
      "type": "function"
    },
    {
      "inputs": [
        {
          "internalType": "address",
          "name": "tokenId",
          "type": "address"
        },
        {
          "internalType": "address",
          "name": "campaigner",
          "type": "address"
        },
        {
          "internalType": "string",
          "name": "campaignAddress",
          "type": "string"
        },
        {
          "internalType": "int64",
          "name": "tokenTotalAmount",
          "type": "int64"
        },
        {
          "internalType": "uint32",
          "name": "tokenType",
          "type": "uint32"
        },
        {
          "internalType": "address[]",
          "name": "receiversAddresses",
          "type": "address[]"
        },
        {
          "internalType": "uint256[]",
          "name": "amounts",
          "type": "uint256[]"
        }
      ],
      "name": "distributeFungible",
      "outputs": [],
      "stateMutability": "nonpayable",
      "type": "function"
    },
    {
      "inputs": [
        {
          "internalType": "address",
          "name": "campaigner",
          "type": "address"
        },
        {
          "internalType": "string",
          "name": "campaignAddress",
          "type": "string"
        },
        {
          "internalType": "uint256",
          "name": "totalAmount",
          "type": "uint256"
        },
        {
          "internalType": "address[]",
          "name": "receiversAddresses",
          "type": "address[]"
        },
        {
          "internalType": "uint256[]",
          "name": "amounts",
          "type": "uint256[]"
        }
      ],
      "name": "distributeBalance",
      "outputs": [],
      "stateMutability": "nonpayable",
      "type": "function"
    },
    {
      "inputs": [
        {
          "internalType": "address",
          "name": "tokenId",
          "type": "address"
        },
        {
          "internalType": "string",
          "name": "campaignAddress",
          "type": "string"
        },
        {
          "internalType": "address",
          "name": "campaigner",
          "type": "address"
        },
        {
          "internalType": "uint32",
          "name": "tokenType",
          "type": "uint32"
        }
      ],
      "name": "expiryFungibleCampaign",
      "outputs": [],
      "stateMutability": "nonpayable",
      "type": "function"
    },
    {
      "inputs": [
        {
          "internalType": "string",
          "name": "campaignAddress",
          "type": "string"
        },
        {
          "internalType": "address",
          "name": "campaigner",
          "type": "address"
        }
      ],
      "name": "expiryCampaign",
      "outputs": [],
      "stateMutability": "nonpayable",
      "type": "function"
    }
  ],
  "bytecode": "0x6080604052600d805463ffffffff1916600117905534801561002057600080fd5b50612bfe806100306000396000f3fe608060405234801561001057600080fd5b50600436106101c35760003560e01c80637c0b8de2116100f9578063bde81c0b11610097578063cfe3f9a811610071578063cfe3f9a8146104b0578063d84c0e27146104e1578063e9de133e146104f4578063f4ff52ae1461050757600080fd5b8063bde81c0b1461046a578063bff319961461047d578063c1cde80c1461049057600080fd5b8063a7c7b182116100d3578063a7c7b1821461040e578063af640d0f14610421578063b466613014610431578063bc3ef1e91461044457600080fd5b80637c0b8de2146103d357806387ac3ee7146103db57806393c8dc6d146103ee57600080fd5b80634377e3ff1161016657806365f775631161014057806365f775631461039257806370f13b7c146103a5578063715d8318146103b8578063774256c7146103cb57600080fd5b80634377e3ff146103375780634a3b1152146103545780634f18230d1461036757600080fd5b8063307869dd116101a2578063307869dd146102705780633262af54146102aa57806334681603146102e4578063362e34b9146102f957600080fd5b8062540521146101c857806305346ac51461022f57806327e235e314610242575b600080fd5b6102126101d636600461214f565b8251602081850181018051600982529282019582019590952091909452835260009182526040808320909352815220546001600160401b031681565b6040516001600160401b0390911681526020015b60405180910390f35b61021261023d3660046121b9565b61051a565b6102626102503660046121fc565b60026020526000908152604090205481565b604051908152602001610226565b61021261027e36600461221e565b60066020908152600093845260408085208252928452828420905282529020546001600160401b031681565b6102126102b836600461221e565b60076020908152600093845260408085208252928452828420905282529020546001600160401b031681565b6102f76102f236600461234c565b6105e5565b005b610327610307366004612416565b600460209081526000928352604080842090915290825290205460ff1681565b6040519015158152602001610226565b61033f600181565b60405163ffffffff9091168152602001610226565b610262610362366004612449565b6108fc565b610262610375366004612449565b805160208183018101805160088252928201919093012091525481565b6102f76103a0366004612485565b61095d565b6102f76103b33660046124d2565b610c40565b6102f76103c636600461214f565b610f42565b61033f600081565b61033f600281565b6102f76103e9366004612574565b61104f565b6102626103fc3660046121fc565b60036020526000908152604090205481565b6102f761041c3660046125f3565b611451565b600d5461033f9063ffffffff1681565b6102f761043f366004612637565b611636565b61033f6104523660046121fc565b600b6020526000908152604090205463ffffffff1681565b6102f761047836600461267b565b6117bd565b6102f761048b3660046121fc565b611a82565b6104a361049e3660046126c7565b611b8b565b60405161022691906126e2565b61033f6104be366004612449565b8051602081830181018051600e8252928201919093012091525463ffffffff1681565b6102126104ef3660046121b9565b611c35565b6102f761050236600461272f565b611d5e565b610327610515366004612416565b612031565b600080546001600160a01b0316331480610538575061053833612065565b61055d5760405162461bcd60e51b81526004016105549061279d565b60405180910390fd5b63ffffffff82166002146105a65760405162461bcd60e51b815260206004820152601060248201526f151bdad95b881a5cc81b9bdd0813919560821b6044820152606401610554565b50506001600160a01b0391821660009081526006602090815260408083209390941682529182528281206002825290915220546001600160401b031690565b6000546001600160a01b0316331461060f5760405162461bcd60e51b815260040161055490612804565b6106198388612031565b61065d5760405162461bcd60e51b8152602060048201526015602482015274151bdad95b881b9bdd081dda1a5d195b1a5cdd1959605a1b6044820152606401610554565b61066686612065565b6106825760405162461bcd60e51b815260040161055490612859565b60008551116106a35760405162461bcd60e51b815260040161055490612890565b60008460070b136106c65760405162461bcd60e51b8152600401610554906128c7565b600c856040516106d69190612931565b908152604080516020928190038301902063ffffffff86166000908152925290205460ff166107175760405162461bcd60e51b81526004016105549061294d565b836009866040516107289190612931565b90815260408051602092819003830190206001600160a01b038b16600090815290835281812063ffffffff88168252909252812080549091906107759084906001600160401b0316612993565b92506101000a8154816001600160401b0302191690836001600160401b0316021790555060005b82518110156108f25760008382815181106107b9576107b96129ba565b6020026020010151905060008383815181106107d7576107d76129ba565b6020908102919091018101516001600160a01b038085166000908152600784526040808220928f16825291845281812063ffffffff8b1682529093528220549092506001600160401b0316900361086b576001600160a01b038083166000908152600760209081526040808320938e16835292815282822063ffffffff8a168352905220805467ffffffffffffffff191690555b6001600160a01b038083166000908152600760209081526040808320938e16835292815282822063ffffffff8a168352905290812080548392906108b99084906001600160401b03166129d0565b92506101000a8154816001600160401b0302191690836001600160401b03160217905550505080806108ea906129f0565b91505061079c565b5050505050505050565b600080546001600160a01b031633148061091a575061091a33612065565b6109365760405162461bcd60e51b81526004016105549061279d565b6008826040516109469190612931565b90815260200160405180910390205490505b919050565b6000546001600160a01b031633146109875760405162461bcd60e51b815260040161055490612804565b60008351116109a85760405162461bcd60e51b815260040161055490612890565b600082116109f85760405162461bcd60e51b815260206004820152601c60248201527f496e76616c69642063616d706169676e206578706972792074696d65000000006044820152606401610554565b60001963ffffffff821601610b1457600c83604051610a179190612931565b908152604080516020928190038301902060016000908152925290205460ff1615610a545760405162461bcd60e51b815260040161055490612a09565b6001600c84604051610a669190612931565b90815260408051602092819003830190206001600090815292529020805460ff1916911515919091179055610a9b8242612a40565b600a84604051610aab9190612931565b90815260200160405180910390206000600163ffffffff168152602001908152602001600020819055507ffda0e6502dae3d85195083e39efa0c8bdccc7d5741b53cf5c57de0c33dc9aaa4836001604051610b07929190612a7f565b60405180910390a1505050565b60011963ffffffff821601610c2357600c83604051610b339190612931565b908152604080516020928190038301902060026000908152925290205460ff1615610b705760405162461bcd60e51b815260040161055490612a09565b6001600c84604051610b829190612931565b90815260408051602092819003830190206002600090815292529020805460ff1916911515919091179055610bb78242612a40565b600a84604051610bc79190612931565b90815260200160405180910390206000600263ffffffff168152602001908152602001600020819055507ffda0e6502dae3d85195083e39efa0c8bdccc7d5741b53cf5c57de0c33dc9aaa4836002604051610b07929190612a7f565b60405162461bcd60e51b815260040161055490612aa7565b505050565b6000546001600160a01b03163314610c6a5760405162461bcd60e51b815260040161055490612804565b610c7385612065565b610c8f5760405162461bcd60e51b815260040161055490612859565b6000845111610cb05760405162461bcd60e51b815260040161055490612890565b60008311610d0f5760405162461bcd60e51b815260206004820152602660248201527f546f74616c20616d6f756e74206d7573742062652067726561746572207468616044820152656e207a65726f60d01b6064820152608401610554565b600c84604051610d1f9190612931565b90815260408051602092819003830190206000808052925290205460ff16610d595760405162461bcd60e51b81526004016105549061294d565b8051825114610daa5760405162461bcd60e51b815260206004820152601760248201527f4d69736d61746368656420696e707574206172726179730000000000000000006044820152606401610554565b82600885604051610dbb9190612931565b9081526020016040518091039020541015610e335760405162461bcd60e51b815260206004820152603260248201527f496e73756666696369656e742063616d706169676e2062616c616e636520746f60448201527108191a5cdd1c9a589d5d1948185b5bdd5b9d60721b6064820152608401610554565b82600885604051610e449190612931565b90815260200160405180910390206000828254610e619190612ad3565b90915550600090505b8251811015610f3a576000838281518110610e8757610e876129ba565b602002602001015190506000838381518110610ea557610ea56129ba565b6020026020010151905060036000836001600160a01b03166001600160a01b0316815260200190815260200160002054600003610ef6576001600160a01b0382166000908152600360205260408120555b6001600160a01b03821660009081526003602052604081208054839290610f1e908490612a40565b9250508190555050508080610f32906129f0565b915050610e6a565b505050505050565b6000546001600160a01b03163314610f6c5760405162461bcd60e51b815260040161055490612804565b610f7582612065565b610f915760405162461bcd60e51b815260040161055490612859565b6001600160a01b038216600090815260026020526040902054811115610fc95760405162461bcd60e51b815260040161055490612ae6565b6001600160a01b03821660009081526002602052604081208054839290610ff1908490612ad3565b92505081905550806008846040516110099190612931565b9081526020016040518091039020819055507f0674090a69c67762650abcd64d1bc896d06756b85c925a9f28e97a30487db3ae83826000604051610b0793929190612b14565b6000546001600160a01b031633146110795760405162461bcd60e51b815260040161055490612804565b6110838186612031565b6110cf5760405162461bcd60e51b815260206004820152601f60248201527f4861736862757a7a3a20546f6b656e206e6f742077686974656c6973746564006044820152606401610554565b60008451116110f05760405162461bcd60e51b815260040161055490612890565b6110f983612065565b6111155760405162461bcd60e51b815260040161055490612859565b60008260070b136111385760405162461bcd60e51b8152600401610554906128c7565b60001963ffffffff821601611346576001600160a01b0380841660009081526006602090815260408083209389168352928152828220600183529052205482906001600160401b03808316911610156111a35760405162461bcd60e51b815260040161055490612ae6565b6009856040516111b39190612931565b90815260408051602092819003830190206001600160a01b0389166000908152908352818120600182529092529020546001600160401b0316156112395760405162461bcd60e51b815260206004820152601b60248201527f43757272656e742062616c616e6365206973206e6f6e2d7a65726f00000000006044820152606401610554565b6001600160a01b038085166000908152600660209081526040808320938a16835292815282822060018352905290812080548392906112829084906001600160401b0316612993565b92506101000a8154816001600160401b0302191690836001600160401b03160217905550806009866040516112b79190612931565b90815260408051602092819003830181206001600160a01b038b1660009081529084528281206001808352945291909120805467ffffffffffffffff19166001600160401b0394909416939093179092557f0674090a69c67762650abcd64d1bc896d06756b85c925a9f28e97a30487db3ae91611338918891859190612b43565b60405180910390a15061144a565b60011963ffffffff821601610c23576001600160a01b038084166000908152600660209081526040808320938916835292815282822060028352905220546001600160401b03808416911610156113af5760405162461bcd60e51b815260040161055490612ae6565b816009856040516113c09190612931565b90815260408051602092819003830181206001600160a01b038a1660009081529084528281206002808352945291909120805467ffffffffffffffff19166001600160401b0394909416939093179092557f0674090a69c67762650abcd64d1bc896d06756b85c925a9f28e97a30487db3ae91611441918791869190612b43565b60405180910390a15b5050505050565b6000546001600160a01b0316331461147b5760405162461bcd60e51b815260040161055490612804565b600082511161149c5760405162461bcd60e51b815260040161055490612890565b6001600160a01b0381166114c25760405162461bcd60e51b815260040161055490612b7b565b600a826040516114d29190612931565b90815260408051602092819003830190206000808052925290205442116115305760405162461bcd60e51b815260206004820152601260248201527110d85b5c185a59db881b9bdd08195b99195960721b6044820152606401610554565b600c826040516115409190612931565b90815260408051602092819003830190206000808052925290205460ff1661157a5760405162461bcd60e51b81526004016105549061294d565b60088260405161158a9190612931565b90815260200160405180910390205460026000836001600160a01b03166001600160a01b0316815260200190815260200160002060008282546115cd9190612a40565b9250508190555060006008836040516115e69190612931565b9081526020016040518091039020819055507f2a4a396795b36662ffe9a398a57fd654cf6ea95e79cf6d96d6f0267685687c3982600060405161162a929190612a7f565b60405180910390a15050565b6000546001600160a01b031633146116605760405162461bcd60e51b815260040161055490612804565b60008251116116815760405162461bcd60e51b815260040161055490612890565b600081116116d15760405162461bcd60e51b815260206004820152601c60248201527f496e76616c69642063616d706169676e206578706972792074696d65000000006044820152606401610554565b600c826040516116e19190612931565b90815260408051602092819003830190206000808052925290205460ff161561171c5760405162461bcd60e51b815260040161055490612a09565b6001600c8360405161172e9190612931565b9081526040805160209281900383019020600080805292529020805460ff19169115159190911790556117618142612a40565b600a836040516117719190612931565b908152604080516020928190038301812060008080529352908220929092557ffda0e6502dae3d85195083e39efa0c8bdccc7d5741b53cf5c57de0c33dc9aaa49161162a918591612a7f565b6000546001600160a01b031633146117e75760405162461bcd60e51b815260040161055490612804565b63ffffffff821660011480611802575063ffffffff82166002145b61181e5760405162461bcd60e51b815260040161055490612aa7565b808015611855575063ffffffff821660009081526004602090815260408083206001600160a01b038716845290915290205460ff16155b156118bd575063ffffffff1660008181526004602090815260408083206001600160a01b0395909516808452948252808320805460ff1916600190811790915593835260058252822080549384018155825290200180546001600160a01b0319169091179055565b801580156118f4575063ffffffff821660009081526004602090815260408083206001600160a01b038716845290915290205460ff165b15610c3b5763ffffffff821660008181526004602090815260408083206001600160a01b03881684528252808320805460ff191690559282526005905290812054905b8181101561144a5763ffffffff8416600090815260056020526040902080546001600160a01b038716919083908110611972576119726129ba565b6000918252602090912001546001600160a01b031603611a705763ffffffff841660009081526005602052604090206119ac600184612ad3565b815481106119bc576119bc6129ba565b600091825260208083209091015463ffffffff871683526005909152604090912080546001600160a01b0390921691839081106119fb576119fb6129ba565b600091825260208083209190910180546001600160a01b0319166001600160a01b03949094169390931790925563ffffffff86168152600590915260409020805480611a4957611a49612bb2565b600082815260209020810160001990810180546001600160a01b031916905501905561144a565b80611a7a816129f0565b915050611937565b6000546001600160a01b03163314611aac5760405162461bcd60e51b815260040161055490612804565b6001600160a01b038116611ad25760405162461bcd60e51b815260040161055490612b7b565b611adb81612065565b611b275760405162461bcd60e51b815260206004820152601960248201527f43616d706169676e657220616c726561647920657869737473000000000000006044820152606401610554565b6001600160a01b0381166000818152600160208181526040808420805460ff19169093179092556002815281832092909255519182527f3d04fb94919fdfa7708320cdebdf093992d88d792b3d5f4144c364cda00129c6910160405180910390a150565b606063ffffffff821660011480611ba8575063ffffffff82166002145b611bc45760405162461bcd60e51b815260040161055490612aa7565b63ffffffff821660009081526005602090815260409182902080548351818402810184019094528084529091830182828015611c2957602002820191906000526020600020905b81546001600160a01b03168152600190910190602001808311611c0b575b50505050509050919050565b600080546001600160a01b0316331480611c535750611c5333612065565b611c6f5760405162461bcd60e51b81526004016105549061279d565b63ffffffff8216600114611cbd5760405162461bcd60e51b8152602060048201526015602482015274546f6b656e206973206e6f742066756e6769626c6560581b6044820152606401610554565b611cc8600184612031565b611d1f5760405162461bcd60e51b815260206004820152602260248201527f52657175657374656420746f6b656e206973206e6f742077686974656c697374604482015261195960f21b6064820152608401610554565b50506001600160a01b0391821660009081526006602090815260408083209390941682529182528281206001825290915220546001600160401b031690565b6000546001600160a01b03163314611d885760405162461bcd60e51b815260040161055490612804565b6001600160a01b038416611dd65760405162461bcd60e51b8152602060048201526015602482015274496e76616c696420746f6b656e206164647265737360581b6044820152606401610554565b6000835111611df75760405162461bcd60e51b815260040161055490612890565b6001600160a01b038216611e1d5760405162461bcd60e51b815260040161055490612b7b565b600c83604051611e2d9190612931565b908152604080516020928190038301902063ffffffff84166000908152925290205460ff16611e6e5760405162461bcd60e51b81526004016105549061294d565b600a83604051611e7e9190612931565b908152602001604051809103902060008263ffffffff168152602001908152602001600020544211611ee75760405162461bcd60e51b815260206004820152601260248201527110d85b5c185a59db881b9bdd08195b99195960721b6044820152606401610554565b600983604051611ef79190612931565b90815260408051602092819003830190206001600160a01b03878116600081815292855283832063ffffffff87168085529086528484205492881684526006865284842091845290855283832090835290935290812080546001600160401b0393841693919291611f6a918591166129d0565b92506101000a8154816001600160401b0302191690836001600160401b031602179055506000600984604051611fa09190612931565b90815260408051602092819003830181206001600160a01b038916600090815290845282812063ffffffff871682529093529120805467ffffffffffffffff19166001600160401b0393909316929092179091557f2a4a396795b36662ffe9a398a57fd654cf6ea95e79cf6d96d6f0267685687c39906120239085908490612a7f565b60405180910390a150505050565b63ffffffff821660009081526004602090815260408083206001600160a01b038516845290915290205460ff165b92915050565b6001600160a01b031660009081526001602052604090205460ff1690565b634e487b7160e01b600052604160045260246000fd5b604051601f8201601f191681016001600160401b03811182821017156120c1576120c1612083565b604052919050565b600082601f8301126120da57600080fd5b81356001600160401b038111156120f3576120f3612083565b612106601f8201601f1916602001612099565b81815284602083860101111561211b57600080fd5b816020850160208301376000918101602001919091529392505050565b80356001600160a01b038116811461095857600080fd5b60008060006060848603121561216457600080fd5b83356001600160401b0381111561217a57600080fd5b612186868287016120c9565b93505061219560208501612138565b9150604084013590509250925092565b803563ffffffff8116811461095857600080fd5b6000806000606084860312156121ce57600080fd5b6121d784612138565b92506121e560208501612138565b91506121f3604085016121a5565b90509250925092565b60006020828403121561220e57600080fd5b61221782612138565b9392505050565b60008060006060848603121561223357600080fd5b61223c84612138565b925061219560208501612138565b8035600781900b811461095857600080fd5b60006001600160401b0382111561227557612275612083565b5060051b60200190565b600082601f83011261229057600080fd5b813560206122a56122a08361225c565b612099565b82815260059290921b840181019181810190868411156122c457600080fd5b8286015b848110156122e6576122d981612138565b83529183019183016122c8565b509695505050505050565b600082601f83011261230257600080fd5b813560206123126122a08361225c565b82815260059290921b8401810191818101908684111561233157600080fd5b8286015b848110156122e65780358352918301918301612335565b600080600080600080600060e0888a03121561236757600080fd5b61237088612138565b965061237e60208901612138565b955060408801356001600160401b038082111561239a57600080fd5b6123a68b838c016120c9565b96506123b460608b0161224a565b95506123c260808b016121a5565b945060a08a01359150808211156123d857600080fd5b6123e48b838c0161227f565b935060c08a01359150808211156123fa57600080fd5b506124078a828b016122f1565b91505092959891949750929550565b6000806040838503121561242957600080fd5b612432836121a5565b915061244060208401612138565b90509250929050565b60006020828403121561245b57600080fd5b81356001600160401b0381111561247157600080fd5b61247d848285016120c9565b949350505050565b60008060006060848603121561249a57600080fd5b83356001600160401b038111156124b057600080fd5b6124bc868287016120c9565b935050602084013591506121f3604085016121a5565b600080600080600060a086880312156124ea57600080fd5b6124f386612138565b945060208601356001600160401b038082111561250f57600080fd5b61251b89838a016120c9565b955060408801359450606088013591508082111561253857600080fd5b61254489838a0161227f565b9350608088013591508082111561255a57600080fd5b50612567888289016122f1565b9150509295509295909350565b600080600080600060a0868803121561258c57600080fd5b61259586612138565b945060208601356001600160401b038111156125b057600080fd5b6125bc888289016120c9565b9450506125cb60408701612138565b92506125d96060870161224a565b91506125e7608087016121a5565b90509295509295909350565b6000806040838503121561260657600080fd5b82356001600160401b0381111561261c57600080fd5b612628858286016120c9565b92505061244060208401612138565b6000806040838503121561264a57600080fd5b82356001600160401b0381111561266057600080fd5b61266c858286016120c9565b95602094909401359450505050565b60008060006060848603121561269057600080fd5b61269984612138565b92506126a7602085016121a5565b9150604084013580151581146126bc57600080fd5b809150509250925092565b6000602082840312156126d957600080fd5b612217826121a5565b6020808252825182820181905260009190848201906040850190845b818110156127235783516001600160a01b0316835292840192918401916001016126fe565b50909695505050505050565b6000806000806080858703121561274557600080fd5b61274e85612138565b935060208501356001600160401b0381111561276957600080fd5b612775878288016120c9565b93505061278460408601612138565b9150612792606086016121a5565b905092959194509250565b60208082526041908201527f556e617574686f72697a6520416363657373207265717565737465642c20436160408201527f6c6c6572206d757374206265206f776e6572206f722063616d706169676e65726060820152601760f91b608082015260a00190565b60208082526035908201527f556e617574686f72697a6520416363657373207265717565737465642c204361604082015274363632b91034b9903737ba103a34329037bbb732b960591b606082015260800190565b60208082526017908201527f43616d706169676e20616c726561647920657869737473000000000000000000604082015260600190565b60208082526018908201527f496e76616c69642063616d706169676e20616464726573730000000000000000604082015260600190565b60208082526026908201527f546f6b656e20616d6f756e74206d7573742062652067726561746572207468616040820152656e207a65726f60d01b606082015260800190565b60005b83811015612928578181015183820152602001612910565b50506000910152565b6000825161294381846020870161290d565b9190910192915050565b60208082526016908201527510d85b5c185a59db881a5cc81b9bdd0818db1bdcd95960521b604082015260600190565b634e487b7160e01b600052601160045260246000fd5b6001600160401b038281168282160390808211156129b3576129b361297d565b5092915050565b634e487b7160e01b600052603260045260246000fd5b6001600160401b038181168382160190808211156129b3576129b361297d565b600060018201612a0257612a0261297d565b5060010190565b60208082526017908201527f43616d706169676e20616c726561647920636c6f736564000000000000000000604082015260600190565b8082018082111561205f5761205f61297d565b60008151808452612a6b81602086016020860161290d565b601f01601f19169290920160200192915050565b604081526000612a926040830185612a53565b905063ffffffff831660208301529392505050565b602080825260129082015271496e76616c696420746f6b656e207479706560701b604082015260600190565b8181038181111561205f5761205f61297d565b602080825260149082015273496e73756666696369656e742062616c616e636560601b604082015260600190565b606081526000612b276060830186612a53565b905083602083015263ffffffff83166040830152949350505050565b606081526000612b566060830186612a53565b90506001600160401b038416602083015263ffffffff83166040830152949350505050565b6020808252601a908201527f496e76616c69642063616d706169676e65722061646472657373000000000000604082015260600190565b634e487b7160e01b600052603160045260246000fdfea264697066735822122087dcc6f9297179b0e0470cbda7e9261c3fc7edaf5cf18697055124ca8fca01bd64736f6c63430008110033",
  "immutableReferences": {},
  "source": "// SPDX-License-Identifier: Apache-2.0\r\npragma solidity ^0.8.17;\r\n\r\nimport \"./HashbuzzStates.sol\";\r\nimport \"./Utils.sol\";\r\n\r\n/**\r\n * @title CampaignLifecycle\r\n * @dev This contract manages the campaign's lifecycle calls and state changes.\r\n */\r\ncontract Lifecycle is HashbuzzStates, Utils {\r\n    /**\r\n     * @dev Add a new campaign\r\n     * @param campaignAddress The db address of the campaign\r\n     * @param campaigner The solidity address of the campaigner or wallet address\r\n     * @param amount The amount to be allocated to the campaign from the campaigner's balance.\r\n     */\r\n    function addCampaign(\r\n        string memory campaignAddress,\r\n        address campaigner,\r\n        uint256 amount\r\n    ) public onlyOwner {\r\n        require(isCampaigner(campaigner), \"Campaign already exists\");\r\n        require(balances[campaigner] >= amount, \"Insufficient balance\");\r\n\r\n        balances[campaigner] -= amount;\r\n        campaignBalances[campaignAddress] = amount;\r\n        emit NewCampaignIsAdded(campaignAddress, amount, HBAR);\r\n    }\r\n\r\n    /**\r\n     * @dev Add a new campaign for fungible and NFT tokens\r\n     * @param tokenId The address of the token in solidity format\r\n     * @param campaignAddress The db address of the campaign [string]\r\n     * @param campaigner The solidity address of the campaigner or wallet address\r\n     * @param tokenAmount The amount of tokens to be allocated to the campaign\r\n     * @param tokenType The type of the token (FUNGIBLE or NFT) [uint32] (1 for FUNGIBLE & 2 for NFT)\r\n     */\r\n\r\n    function addFungibleAndNFTCampaign(\r\n        address tokenId,\r\n        string memory campaignAddress,\r\n        address campaigner,\r\n        int64 tokenAmount,\r\n        uint32 tokenType\r\n    ) public onlyOwner {\r\n        require(\r\n            isTokenWhitelisted(tokenType, tokenId),\r\n            \"Hashbuzz: Token not whitelisted\"\r\n        );\r\n        require(bytes(campaignAddress).length > 0, \"Invalid campaign address\");\r\n        require(isCampaigner(campaigner), \"Campaign already exists\");\r\n        require(tokenAmount > 0, \"Token amount must be greater than zero\");\r\n\r\n        if (tokenType == FUNGIBLE) {\r\n            uint64 amount = uint64(tokenAmount);\r\n            require(\r\n                tokenBalances[campaigner][tokenId][FUNGIBLE] >= amount,\r\n                \"Insufficient balance\"\r\n            );\r\n            require(\r\n                tokenCampaignBalances[campaignAddress][tokenId][FUNGIBLE] == 0,\r\n                \"Current balance is non-zero\"\r\n            );\r\n\r\n            tokenBalances[campaigner][tokenId][FUNGIBLE] -= amount;\r\n            tokenCampaignBalances[campaignAddress][tokenId][FUNGIBLE] = amount;\r\n\r\n            emit NewCampaignIsAdded(campaignAddress, amount, FUNGIBLE);\r\n        } else if (tokenType == NFT) {\r\n            require(\r\n                tokenBalances[campaigner][tokenId][NFT] >= uint64(tokenAmount),\r\n                \"Insufficient balance\"\r\n            );\r\n            tokenCampaignBalances[campaignAddress][tokenId][NFT] = uint64(\r\n                tokenAmount\r\n            );\r\n            emit NewCampaignIsAdded(campaignAddress, uint64(tokenAmount), NFT);\r\n        } else {\r\n            revert(\"Invalid token type\");\r\n        }\r\n    }\r\n\r\n    /**\r\n     * @dev Close a campaign with HBAR\r\n     * @param campaignAddress The db address of the campaign\r\n     * @param campaignExpiryTime The expiry time of the campaign in seconds\r\n     */\r\n    function closeCampaign(\r\n        string memory campaignAddress,\r\n        uint256 campaignExpiryTime\r\n    ) public onlyOwner {\r\n        require(bytes(campaignAddress).length > 0, \"Invalid campaign address\");\r\n        require(campaignExpiryTime > 0, \"Invalid campaign expiry time\");\r\n        require(\r\n            !isCampaignClosed[campaignAddress][HBAR],\r\n            \"Campaign already closed\"\r\n        );\r\n\r\n        isCampaignClosed[campaignAddress][HBAR] = true;\r\n        campaignEndTime[campaignAddress][HBAR] =\r\n            block.timestamp +\r\n            campaignExpiryTime;\r\n        emit campaignClosed(campaignAddress, HBAR);\r\n    }\r\n\r\n    /**\r\n     * @dev Close a campaign with fungible and NFT tokens\r\n     * @param campaignAddress The db address of the campaign\r\n     * @param campaignExpiryTime The expiry time of the campaign in seconds\r\n     * @param tokenType The type of the token (FUNGIBLE = 1 OR  NFT = 2)\r\n     */\r\n    function closeFungibleAndNFTCampaign(\r\n        string memory campaignAddress,\r\n        uint256 campaignExpiryTime,\r\n        uint32 tokenType\r\n    ) public onlyOwner {\r\n        require(bytes(campaignAddress).length > 0, \"Invalid campaign address\");\r\n        require(campaignExpiryTime > 0, \"Invalid campaign expiry time\");\r\n\r\n        if (tokenType == FUNGIBLE) {\r\n            require(\r\n                !isCampaignClosed[campaignAddress][FUNGIBLE],\r\n                \"Campaign already closed\"\r\n            );\r\n            isCampaignClosed[campaignAddress][FUNGIBLE] = true;\r\n            campaignEndTime[campaignAddress][FUNGIBLE] =\r\n                block.timestamp +\r\n                campaignExpiryTime;\r\n            emit campaignClosed(campaignAddress, FUNGIBLE);\r\n        } else if (tokenType == NFT) {\r\n            require(\r\n                !isCampaignClosed[campaignAddress][NFT],\r\n                \"Campaign already closed\"\r\n            );\r\n            isCampaignClosed[campaignAddress][NFT] = true;\r\n            campaignEndTime[campaignAddress][NFT] =\r\n                block.timestamp +\r\n                campaignExpiryTime;\r\n            emit campaignClosed(campaignAddress, NFT);\r\n        } else {\r\n            revert(\"Invalid token type\");\r\n        }\r\n    }\r\n\r\n    /**\r\n     * @dev Distribute HBAR tokens to the campaigner\r\n     * @param tokenId The address of the token in solidity format\r\n     * @param campaigner The solidity address of the campaigner or wallet address\r\n     * @param campaignAddress The db address of the campaign\r\n     * @param tokenTotalAmount The total amount of tokens to be distributed\r\n     * @param tokenType The type of the token (FUNGIBLE or NFT)\r\n     * @param receiversAddresses The addresses of the receivers take max 50 addresses in one call\r\n     * @param amounts The amounts to be distributed to each receiver\r\n     */\r\n    function distributeFungible(\r\n        address tokenId,\r\n        address campaigner,\r\n        string memory campaignAddress,\r\n        int64 tokenTotalAmount,\r\n        uint32 tokenType,\r\n        address[] memory receiversAddresses,\r\n        uint256[] memory amounts\r\n    ) external onlyOwner {\r\n        require(\r\n            isTokenWhitelisted(tokenType, tokenId),\r\n            \"Token not whitelisted\"\r\n        );\r\n        require(isCampaigner(campaigner), \"Campaign already exists\");\r\n        require(bytes(campaignAddress).length > 0, \"Invalid campaign address\");\r\n        require(tokenTotalAmount > 0, \"Token amount must be greater than zero\");\r\n        require(\r\n            isCampaignClosed[campaignAddress][tokenType],\r\n            \"Campaign is not closed\"\r\n        );\r\n\r\n        tokenCampaignBalances[campaignAddress][tokenId][tokenType] -= uint64(\r\n            tokenTotalAmount\r\n        );\r\n        for (uint i = 0; i < receiversAddresses.length; i++) {\r\n            address recipient = receiversAddresses[i];\r\n            uint256 amount = amounts[i];\r\n            if (rewardTokenBalances[recipient][tokenId][tokenType] == 0) {\r\n                rewardTokenBalances[recipient][tokenId][tokenType] = 0;\r\n            }\r\n\r\n            rewardTokenBalances[recipient][tokenId][tokenType] += uint64(\r\n                amount\r\n            );\r\n        }\r\n    }\r\n\r\n    /**\r\n     * @dev Distribute HBAR tokens to the campaigner\r\n     * @param campaigner The solidity address of the campaigner or wallet address\r\n     * @param campaignAddress The db address of the campaign\r\n     * @param totalAmount The total amount of tokens to be distributed\r\n     * @param receiversAddresses The addresses of the receivers take max 50 addresses in one call\r\n     * @param amounts The amounts to be distributed to each receiver\r\n     */\r\n    function distributeBalance(\r\n        address campaigner,\r\n        string memory campaignAddress,\r\n        uint256 totalAmount,\r\n        address[] memory receiversAddresses,\r\n        uint256[] memory amounts\r\n    ) external onlyOwner {\r\n        require(isCampaigner(campaigner), \"Campaign already exists\");\r\n        require(bytes(campaignAddress).length > 0, \"Invalid campaign address\");\r\n        require(totalAmount > 0, \"Total amount must be greater than zero\");\r\n        require(\r\n            isCampaignClosed[campaignAddress][HBAR],\r\n            \"Campaign is not closed\"\r\n        );\r\n        require(\r\n            receiversAddresses.length == amounts.length,\r\n            \"Mismatched input arrays\"\r\n        );\r\n\r\n        // Ensure the campaign has enough balance to distribute\r\n        require(\r\n            campaignBalances[campaignAddress] >= totalAmount,\r\n            \"Insufficient campaign balance to distribute amount\"\r\n        );\r\n\r\n        // Deduct the distributed amount from the campaign's balance\r\n        campaignBalances[campaignAddress] -= totalAmount;\r\n\r\n        for (uint i = 0; i < receiversAddresses.length; i++) {\r\n            address recipient = receiversAddresses[i];\r\n            uint256 amount = amounts[i];\r\n            if (rewardBalances[recipient] == 0) {\r\n                rewardBalances[recipient] = 0;\r\n            }\r\n\r\n            rewardBalances[recipient] += amount;\r\n        }\r\n    }\r\n\r\n    /**\r\n     * @dev Expiry a campaign with fungible and NFT tokens\r\n     * @param campaignAddress The db address of the campaign\r\n     * @param tokenId The address of the token in solidity format\r\n     * @param campaigner The solidity address of the campaigner or wallet address\r\n     * @param tokenType The type of the token (FUNGIBLE or NFT) [uint32] (1 for FUNGIBLE & 2 for NFT)\r\n     */\r\n    function expiryFungibleCampaign(\r\n        address tokenId,\r\n        string memory campaignAddress,\r\n        address campaigner,\r\n        uint32 tokenType\r\n    ) public onlyOwner {\r\n        require(tokenId != address(0), \"Invalid token address\");\r\n        require(bytes(campaignAddress).length > 0, \"Invalid campaign address\");\r\n        require(campaigner != address(0), \"Invalid campaigner address\");\r\n        require(\r\n            isCampaignClosed[campaignAddress][tokenType],\r\n            \"Campaign is not closed\"\r\n        );\r\n        require(\r\n            block.timestamp > campaignEndTime[campaignAddress][tokenType],\r\n            \"Campaign not ended\"\r\n        );\r\n\r\n        tokenBalances[campaigner][tokenId][tokenType] += tokenCampaignBalances[\r\n            campaignAddress\r\n        ][tokenId][tokenType];\r\n        tokenCampaignBalances[campaignAddress][tokenId][tokenType] = 0;\r\n        emit campaignExpired(campaignAddress, tokenType);\r\n    }\r\n\r\n    /**\r\n     * @dev Expiry a campaign with HBAR\r\n     * @param campaignAddress The db address of the campaign\r\n     * @param campaigner The solidity address of the campaigner or wallet address\r\n     */\r\n    function expiryCampaign(\r\n        string memory campaignAddress,\r\n        address campaigner\r\n    ) public onlyOwner {\r\n        require(bytes(campaignAddress).length > 0, \"Invalid campaign address\");\r\n        require(campaigner != address(0), \"Invalid campaigner address\");\r\n        require(\r\n            block.timestamp > campaignEndTime[campaignAddress][HBAR],\r\n            \"Campaign not ended\"\r\n        );\r\n        require(\r\n            isCampaignClosed[campaignAddress][HBAR],\r\n            \"Campaign is not closed\"\r\n        );\r\n\r\n        balances[campaigner] += campaignBalances[campaignAddress];\r\n        campaignBalances[campaignAddress] = 0;\r\n        emit campaignExpired(campaignAddress, HBAR);\r\n    }\r\n}\r\n",
  "sourcePath": "D:\\rajatk\\hashbuzz-staging\\smv201\\contracts\\HashbuzzModules\\CampaignLifecycle.sol",
  "compiler": {
    "name": "solc",
    "version": "0.8.17+commit.8df45f5f.Emscripten.clang"
  },
  "schemaVersion": "3.4.16",
  "updatedAt": "2024-10-27T16:41:45.349Z",
  "devdoc": {
    "details": "This contract manages the campaign's lifecycle calls and state changes.",
    "kind": "dev",
    "methods": {
      "addCampaign(string,address,uint256)": {
        "details": "Add a new campaign",
        "params": {
          "amount": "The amount to be allocated to the campaign from the campaigner's balance.",
          "campaignAddress": "The db address of the campaign",
          "campaigner": "The solidity address of the campaigner or wallet address"
        }
      },
      "addCampaigner(address)": {
        "details": "Whitelist cmapigner to the user.",
        "params": {
          "newCampaigner": "Address of the user having campaigner role to be used here"
        }
      },
      "addFungibleAndNFTCampaign(address,string,address,int64,uint32)": {
        "details": "Add a new campaign for fungible and NFT tokens",
        "params": {
          "campaignAddress": "The db address of the campaign [string]",
          "campaigner": "The solidity address of the campaigner or wallet address",
          "tokenAmount": "The amount of tokens to be allocated to the campaign",
          "tokenId": "The address of the token in solidity format",
          "tokenType": "The type of the token (FUNGIBLE or NFT) [uint32] (1 for FUNGIBLE & 2 for NFT)"
        }
      },
      "associateToken(address,uint32,bool)": {
        "details": "Adds or removes a token from the whitelist.",
        "params": {
          "isWhitelisted": "Boolean flag to mark the token as whitelisted or not.",
          "tokenAddress": "The address of the token.",
          "tokenType": "The type of the token (1 for FUNGIBLE, 2 for NFT)."
        }
      },
      "closeCampaign(string,uint256)": {
        "details": "Close a campaign with HBAR",
        "params": {
          "campaignAddress": "The db address of the campaign",
          "campaignExpiryTime": "The expiry time of the campaign in seconds"
        }
      },
      "closeFungibleAndNFTCampaign(string,uint256,uint32)": {
        "details": "Close a campaign with fungible and NFT tokens",
        "params": {
          "campaignAddress": "The db address of the campaign",
          "campaignExpiryTime": "The expiry time of the campaign in seconds",
          "tokenType": "The type of the token (FUNGIBLE = 1 OR  NFT = 2)"
        }
      },
      "distributeBalance(address,string,uint256,address[],uint256[])": {
        "details": "Distribute HBAR tokens to the campaigner",
        "params": {
          "amounts": "The amounts to be distributed to each receiver",
          "campaignAddress": "The db address of the campaign",
          "campaigner": "The solidity address of the campaigner or wallet address",
          "receiversAddresses": "The addresses of the receivers take max 50 addresses in one call",
          "totalAmount": "The total amount of tokens to be distributed"
        }
      },
      "distributeFungible(address,address,string,int64,uint32,address[],uint256[])": {
        "details": "Distribute HBAR tokens to the campaigner",
        "params": {
          "amounts": "The amounts to be distributed to each receiver",
          "campaignAddress": "The db address of the campaign",
          "campaigner": "The solidity address of the campaigner or wallet address",
          "receiversAddresses": "The addresses of the receivers take max 50 addresses in one call",
          "tokenId": "The address of the token in solidity format",
          "tokenTotalAmount": "The total amount of tokens to be distributed",
          "tokenType": "The type of the token (FUNGIBLE or NFT)"
        }
      },
      "expiryCampaign(string,address)": {
        "details": "Expiry a campaign with HBAR",
        "params": {
          "campaignAddress": "The db address of the campaign",
          "campaigner": "The solidity address of the campaigner or wallet address"
        }
      },
      "expiryFungibleCampaign(address,string,address,uint32)": {
        "details": "Expiry a campaign with fungible and NFT tokens",
        "params": {
          "campaignAddress": "The db address of the campaign",
          "campaigner": "The solidity address of the campaigner or wallet address",
          "tokenId": "The address of the token in solidity format",
          "tokenType": "The type of the token (FUNGIBLE or NFT) [uint32] (1 for FUNGIBLE & 2 for NFT)"
        }
      },
      "getAllWhitelistedTokens(uint32)": {
        "details": "Retrieves all whitelisted addresses for a given token type.",
        "params": {
          "tokenType": "The type of the token (1 for FUNGIBLE, 2 for NFT)."
        },
        "returns": {
          "_0": "An array of addresses that are whitelisted for the given token type."
        }
      },
      "getCampaignBalance(string)": {
        "details": "Balance holded by the user to see.",
        "params": {
          "campaignAddress": "Solidity address of the campaigner."
        }
      },
      "getFungibleTokenBalance(address,address,uint32)": {
        "params": {
          "campaigner": "Address of the campaigner'solidity address",
          "tokenId": "Solidity address used for the account",
          "tokenType": "The type of the token (FUNGIBLE or NFT) [uint32] (1 for FUNGIBLE & 2 for NFT)"
        }
      },
      "getNFTTokenBalance(address,address,uint32)": {
        "details": "Balance holded by the user to see.",
        "params": {
          "campaigner": "Solidity address of the campaigner.",
          "tokenId": "Solidity address of the token.",
          "tokenType": "The type of the token (FUNGIBLE or NFT) [uint32] (1 for FUNGIBLE & 2 for NFT)                  1 for FUNGIBLE and 2 for NFT."
        }
      },
      "isTokenWhitelisted(uint32,address)": {
        "details": "Checks if a specific token address is whitelisted for a given token type.",
        "params": {
          "tokenAddress": "The address of the token to check.",
          "tokenType": "The type of the token (1 for FUNGIBLE, 2 for NFT)."
        },
        "returns": {
          "_0": "Boolean flag indicating if the token is whitelisted."
        }
      }
    },
    "title": "CampaignLifecycle",
    "version": 1
  },
  "userdoc": {
    "kind": "user",
    "methods": {},
    "version": 1
  }
}