{
  "contractName": "Lifecycle",
  "abi": [
    {
      "anonymous": false,
      "inputs": [
        {
          "indexed": false,
          "internalType": "address",
          "name": "campaigner",
          "type": "address"
        },
        {
          "indexed": false,
          "internalType": "uint256",
          "name": "updatedBalance",
          "type": "uint256"
        }
      ],
      "name": "BalanceUpdated",
      "type": "event"
    },
    {
      "anonymous": false,
      "inputs": [
        {
          "indexed": false,
          "internalType": "address",
          "name": "campaigner",
          "type": "address"
        }
      ],
      "name": "CampaignerAdded",
      "type": "event"
    },
    {
      "anonymous": false,
      "inputs": [
        {
          "indexed": false,
          "internalType": "address",
          "name": "campaigner",
          "type": "address"
        }
      ],
      "name": "CampaignerDeleted",
      "type": "event"
    },
    {
      "anonymous": false,
      "inputs": [
        {
          "indexed": false,
          "internalType": "address",
          "name": "tokenAddress",
          "type": "address"
        }
      ],
      "name": "CreatedToken",
      "type": "event"
    },
    {
      "anonymous": false,
      "inputs": [
        {
          "indexed": false,
          "internalType": "address",
          "name": "campaigner",
          "type": "address"
        },
        {
          "indexed": false,
          "internalType": "uint256",
          "name": "amount",
          "type": "uint256"
        }
      ],
      "name": "FundsDeposited",
      "type": "event"
    },
    {
      "anonymous": false,
      "inputs": [
        {
          "indexed": false,
          "internalType": "address",
          "name": "campaigner",
          "type": "address"
        },
        {
          "indexed": false,
          "internalType": "uint256",
          "name": "amount",
          "type": "uint256"
        }
      ],
      "name": "FundsWithdrawn",
      "type": "event"
    },
    {
      "anonymous": false,
      "inputs": [
        {
          "indexed": false,
          "internalType": "address",
          "name": "campaigner",
          "type": "address"
        },
        {
          "indexed": false,
          "internalType": "address",
          "name": "tokenId",
          "type": "address"
        },
        {
          "indexed": false,
          "internalType": "uint64",
          "name": "updatedBalance",
          "type": "uint64"
        }
      ],
      "name": "FungibleTokenBalanceUpdated",
      "type": "event"
    },
    {
      "anonymous": false,
      "inputs": [
        {
          "indexed": false,
          "internalType": "address",
          "name": "campaigner",
          "type": "address"
        },
        {
          "indexed": false,
          "internalType": "uint64",
          "name": "amount",
          "type": "uint64"
        }
      ],
      "name": "FungibleTokenDeposited",
      "type": "event"
    },
    {
      "anonymous": false,
      "inputs": [
        {
          "indexed": false,
          "internalType": "address",
          "name": "interactor",
          "type": "address"
        },
        {
          "indexed": false,
          "internalType": "address",
          "name": "campaigner",
          "type": "address"
        },
        {
          "indexed": false,
          "internalType": "uint256",
          "name": "amount",
          "type": "uint256"
        }
      ],
      "name": "InteractorPaid",
      "type": "event"
    },
    {
      "anonymous": false,
      "inputs": [
        {
          "indexed": false,
          "internalType": "string",
          "name": "campaignAddress",
          "type": "string"
        },
        {
          "indexed": false,
          "internalType": "uint256",
          "name": "amount",
          "type": "uint256"
        }
      ],
      "name": "InteractorPaidDeferred",
      "type": "event"
    },
    {
      "anonymous": false,
      "inputs": [
        {
          "indexed": false,
          "internalType": "string",
          "name": "campaignAdddress",
          "type": "string"
        },
        {
          "indexed": false,
          "internalType": "uint256",
          "name": "amount",
          "type": "uint256"
        },
        {
          "indexed": false,
          "internalType": "uint32",
          "name": "campaignType",
          "type": "uint32"
        }
      ],
      "name": "NewCampaignIsAdded",
      "type": "event"
    },
    {
      "anonymous": false,
      "inputs": [
        {
          "indexed": false,
          "internalType": "address",
          "name": "owner",
          "type": "address"
        }
      ],
      "name": "OwnerSet",
      "type": "event"
    },
    {
      "anonymous": false,
      "inputs": [
        {
          "indexed": false,
          "internalType": "int256",
          "name": "responseCode",
          "type": "int256"
        }
      ],
      "name": "ResponseCode",
      "type": "event"
    },
    {
      "anonymous": false,
      "inputs": [
        {
          "indexed": false,
          "internalType": "string",
          "name": "campaignAddress",
          "type": "string"
        },
        {
          "indexed": false,
          "internalType": "uint256",
          "name": "totalAmount",
          "type": "uint256"
        },
        {
          "indexed": false,
          "internalType": "uint256",
          "name": "remainingBalance",
          "type": "uint256"
        }
      ],
      "name": "RewardsDistributed",
      "type": "event"
    },
    {
      "anonymous": false,
      "inputs": [
        {
          "indexed": false,
          "internalType": "string",
          "name": "campaignAddress",
          "type": "string"
        },
        {
          "indexed": false,
          "internalType": "uint32",
          "name": "campaignType",
          "type": "uint32"
        }
      ],
      "name": "campaignClosed",
      "type": "event"
    },
    {
      "anonymous": false,
      "inputs": [
        {
          "indexed": false,
          "internalType": "string",
          "name": "campaignAddress",
          "type": "string"
        },
        {
          "indexed": false,
          "internalType": "uint32",
          "name": "campaignType",
          "type": "uint32"
        }
      ],
      "name": "campaignExpired",
      "type": "event"
    },
    {
      "inputs": [],
      "name": "FUNGIBLE",
      "outputs": [
        {
          "internalType": "uint32",
          "name": "",
          "type": "uint32"
        }
      ],
      "stateMutability": "view",
      "type": "function"
    },
    {
      "inputs": [],
      "name": "HBAR",
      "outputs": [
        {
          "internalType": "uint32",
          "name": "",
          "type": "uint32"
        }
      ],
      "stateMutability": "view",
      "type": "function"
    },
    {
      "inputs": [],
      "name": "NFT",
      "outputs": [
        {
          "internalType": "uint32",
          "name": "",
          "type": "uint32"
        }
      ],
      "stateMutability": "view",
      "type": "function"
    },
    {
      "inputs": [
        {
          "internalType": "address",
          "name": "newCampaigner",
          "type": "address"
        }
      ],
      "name": "addCampaigner",
      "outputs": [],
      "stateMutability": "nonpayable",
      "type": "function"
    },
    {
      "inputs": [
        {
          "internalType": "address",
          "name": "tokenAddress",
          "type": "address"
        },
        {
          "internalType": "uint32",
          "name": "tokenType",
          "type": "uint32"
        },
        {
          "internalType": "bool",
          "name": "isWhitelisted",
          "type": "bool"
        }
      ],
      "name": "associateToken",
      "outputs": [],
      "stateMutability": "nonpayable",
      "type": "function"
    },
    {
      "inputs": [
        {
          "internalType": "address",
          "name": "",
          "type": "address"
        }
      ],
      "name": "balances",
      "outputs": [
        {
          "internalType": "uint256",
          "name": "",
          "type": "uint256"
        }
      ],
      "stateMutability": "view",
      "type": "function"
    },
    {
      "inputs": [
        {
          "internalType": "string",
          "name": "",
          "type": "string"
        }
      ],
      "name": "campaignBalances",
      "outputs": [
        {
          "internalType": "uint256",
          "name": "",
          "type": "uint256"
        }
      ],
      "stateMutability": "view",
      "type": "function"
    },
    {
      "inputs": [
        {
          "internalType": "string",
          "name": "",
          "type": "string"
        }
      ],
      "name": "campaignRandomNumber",
      "outputs": [
        {
          "internalType": "uint32",
          "name": "",
          "type": "uint32"
        }
      ],
      "stateMutability": "view",
      "type": "function"
    },
    {
      "inputs": [
        {
          "internalType": "uint32",
          "name": "tokenType",
          "type": "uint32"
        }
      ],
      "name": "getAllWhitelistedTokens",
      "outputs": [
        {
          "internalType": "address[]",
          "name": "",
          "type": "address[]"
        }
      ],
      "stateMutability": "view",
      "type": "function"
    },
    {
      "inputs": [
        {
          "internalType": "string",
          "name": "campaignAddress",
          "type": "string"
        }
      ],
      "name": "getCampaignBalance",
      "outputs": [
        {
          "internalType": "uint256",
          "name": "",
          "type": "uint256"
        }
      ],
      "stateMutability": "view",
      "type": "function"
    },
    {
      "inputs": [
        {
          "internalType": "address",
          "name": "campaigner",
          "type": "address"
        },
        {
          "internalType": "address",
          "name": "tokenId",
          "type": "address"
        },
        {
          "internalType": "uint32",
          "name": "tokenType",
          "type": "uint32"
        }
      ],
      "name": "getFungibleTokenBalance",
      "outputs": [
        {
          "internalType": "uint64",
          "name": "res",
          "type": "uint64"
        }
      ],
      "stateMutability": "view",
      "type": "function"
    },
    {
      "inputs": [
        {
          "internalType": "address",
          "name": "campaigner",
          "type": "address"
        },
        {
          "internalType": "address",
          "name": "tokenId",
          "type": "address"
        },
        {
          "internalType": "uint32",
          "name": "tokenType",
          "type": "uint32"
        }
      ],
      "name": "getNFTTokenBalance",
      "outputs": [
        {
          "internalType": "uint64",
          "name": "res",
          "type": "uint64"
        }
      ],
      "stateMutability": "view",
      "type": "function"
    },
    {
      "inputs": [],
      "name": "id",
      "outputs": [
        {
          "internalType": "uint32",
          "name": "",
          "type": "uint32"
        }
      ],
      "stateMutability": "view",
      "type": "function"
    },
    {
      "inputs": [
        {
          "internalType": "uint32",
          "name": "tokenType",
          "type": "uint32"
        },
        {
          "internalType": "address",
          "name": "tokenAddress",
          "type": "address"
        }
      ],
      "name": "isTokenWhitelisted",
      "outputs": [
        {
          "internalType": "bool",
          "name": "",
          "type": "bool"
        }
      ],
      "stateMutability": "view",
      "type": "function"
    },
    {
      "inputs": [
        {
          "internalType": "address",
          "name": "",
          "type": "address"
        }
      ],
      "name": "nftCampaigner",
      "outputs": [
        {
          "internalType": "uint32",
          "name": "",
          "type": "uint32"
        }
      ],
      "stateMutability": "view",
      "type": "function"
    },
    {
      "inputs": [
        {
          "internalType": "address",
          "name": "",
          "type": "address"
        }
      ],
      "name": "rewardBalances",
      "outputs": [
        {
          "internalType": "uint256",
          "name": "",
          "type": "uint256"
        }
      ],
      "stateMutability": "view",
      "type": "function"
    },
    {
      "inputs": [
        {
          "internalType": "address",
          "name": "",
          "type": "address"
        },
        {
          "internalType": "address",
          "name": "",
          "type": "address"
        },
        {
          "internalType": "uint256",
          "name": "",
          "type": "uint256"
        }
      ],
      "name": "rewardTokenBalances",
      "outputs": [
        {
          "internalType": "uint64",
          "name": "",
          "type": "uint64"
        }
      ],
      "stateMutability": "view",
      "type": "function"
    },
    {
      "inputs": [
        {
          "internalType": "address",
          "name": "",
          "type": "address"
        },
        {
          "internalType": "address",
          "name": "",
          "type": "address"
        },
        {
          "internalType": "uint256",
          "name": "",
          "type": "uint256"
        }
      ],
      "name": "tokenBalances",
      "outputs": [
        {
          "internalType": "uint64",
          "name": "",
          "type": "uint64"
        }
      ],
      "stateMutability": "view",
      "type": "function"
    },
    {
      "inputs": [
        {
          "internalType": "string",
          "name": "",
          "type": "string"
        },
        {
          "internalType": "address",
          "name": "",
          "type": "address"
        },
        {
          "internalType": "uint256",
          "name": "",
          "type": "uint256"
        }
      ],
      "name": "tokenCampaignBalances",
      "outputs": [
        {
          "internalType": "uint64",
          "name": "",
          "type": "uint64"
        }
      ],
      "stateMutability": "view",
      "type": "function"
    },
    {
      "inputs": [
        {
          "internalType": "uint32",
          "name": "",
          "type": "uint32"
        },
        {
          "internalType": "address",
          "name": "",
          "type": "address"
        }
      ],
      "name": "whitelistedToken",
      "outputs": [
        {
          "internalType": "bool",
          "name": "",
          "type": "bool"
        }
      ],
      "stateMutability": "view",
      "type": "function"
    },
    {
      "inputs": [
        {
          "internalType": "string",
          "name": "campaignAddress",
          "type": "string"
        },
        {
          "internalType": "address",
          "name": "campaigner",
          "type": "address"
        },
        {
          "internalType": "uint256",
          "name": "amount",
          "type": "uint256"
        }
      ],
      "name": "addCampaign",
      "outputs": [
        {
          "internalType": "uint256",
          "name": "",
          "type": "uint256"
        }
      ],
      "stateMutability": "nonpayable",
      "type": "function"
    },
    {
      "inputs": [
        {
          "internalType": "address",
          "name": "tokenId",
          "type": "address"
        },
        {
          "internalType": "string",
          "name": "campaignAddress",
          "type": "string"
        },
        {
          "internalType": "address",
          "name": "campaigner",
          "type": "address"
        },
        {
          "internalType": "int64",
          "name": "tokenAmount",
          "type": "int64"
        }
      ],
      "name": "addFungibleCampaign",
      "outputs": [
        {
          "internalType": "int64",
          "name": "",
          "type": "int64"
        }
      ],
      "stateMutability": "nonpayable",
      "type": "function"
    },
    {
      "inputs": [
        {
          "internalType": "address",
          "name": "tokenId",
          "type": "address"
        },
        {
          "internalType": "string",
          "name": "campaignAddress",
          "type": "string"
        },
        {
          "internalType": "address",
          "name": "campaigner",
          "type": "address"
        },
        {
          "internalType": "int64",
          "name": "tokenAmount",
          "type": "int64"
        }
      ],
      "name": "addNFTCampaign",
      "outputs": [
        {
          "internalType": "int64",
          "name": "",
          "type": "int64"
        }
      ],
      "stateMutability": "nonpayable",
      "type": "function"
    },
    {
      "inputs": [
        {
          "internalType": "string",
          "name": "campaignAddress",
          "type": "string"
        },
        {
          "internalType": "uint256",
          "name": "campaignExpiryTime",
          "type": "uint256"
        }
      ],
      "name": "closeCampaign",
      "outputs": [],
      "stateMutability": "nonpayable",
      "type": "function"
    },
    {
      "inputs": [
        {
          "internalType": "string",
          "name": "campaignAddress",
          "type": "string"
        },
        {
          "internalType": "uint256",
          "name": "campaignExpiryTime",
          "type": "uint256"
        }
      ],
      "name": "closeFungibleCampaign",
      "outputs": [],
      "stateMutability": "nonpayable",
      "type": "function"
    },
    {
      "inputs": [
        {
          "internalType": "string",
          "name": "campaignAddress",
          "type": "string"
        },
        {
          "internalType": "uint256",
          "name": "campaignExpiryTime",
          "type": "uint256"
        }
      ],
      "name": "closeNFTCampaign",
      "outputs": [],
      "stateMutability": "nonpayable",
      "type": "function"
    },
    {
      "inputs": [
        {
          "internalType": "address",
          "name": "campaigner",
          "type": "address"
        },
        {
          "internalType": "string",
          "name": "campaignAddress",
          "type": "string"
        },
        {
          "internalType": "uint256",
          "name": "totalAmount",
          "type": "uint256"
        },
        {
          "internalType": "address[]",
          "name": "receiversAddresses",
          "type": "address[]"
        },
        {
          "internalType": "uint256[]",
          "name": "amounts",
          "type": "uint256[]"
        }
      ],
      "name": "rewardIntractors",
      "outputs": [
        {
          "internalType": "uint256",
          "name": "",
          "type": "uint256"
        }
      ],
      "stateMutability": "nonpayable",
      "type": "function"
    },
    {
      "inputs": [
        {
          "internalType": "address",
          "name": "tokenId",
          "type": "address"
        },
        {
          "internalType": "address",
          "name": "campaigner",
          "type": "address"
        },
        {
          "internalType": "string",
          "name": "campaignAddress",
          "type": "string"
        },
        {
          "internalType": "int64",
          "name": "tokenTotalAmount",
          "type": "int64"
        },
        {
          "internalType": "uint32",
          "name": "tokenType",
          "type": "uint32"
        },
        {
          "internalType": "address[]",
          "name": "receiversAddresses",
          "type": "address[]"
        },
        {
          "internalType": "uint256[]",
          "name": "amounts",
          "type": "uint256[]"
        }
      ],
      "name": "rewardIntractorsWithFungible",
      "outputs": [
        {
          "internalType": "uint256",
          "name": "",
          "type": "uint256"
        }
      ],
      "stateMutability": "nonpayable",
      "type": "function"
    },
    {
      "inputs": [
        {
          "internalType": "address",
          "name": "tokenId",
          "type": "address"
        },
        {
          "internalType": "string",
          "name": "campaignAddress",
          "type": "string"
        },
        {
          "internalType": "address",
          "name": "campaigner",
          "type": "address"
        },
        {
          "internalType": "uint32",
          "name": "tokenType",
          "type": "uint32"
        }
      ],
      "name": "expiryFungibleCampaign",
      "outputs": [
        {
          "internalType": "uint64",
          "name": "",
          "type": "uint64"
        }
      ],
      "stateMutability": "nonpayable",
      "type": "function"
    },
    {
      "inputs": [
        {
          "internalType": "string",
          "name": "campaignAddress",
          "type": "string"
        },
        {
          "internalType": "address",
          "name": "campaigner",
          "type": "address"
        }
      ],
      "name": "expiryCampaign",
      "outputs": [
        {
          "internalType": "uint256",
          "name": "",
          "type": "uint256"
        }
      ],
      "stateMutability": "nonpayable",
      "type": "function"
    }
  ],
  "bytecode": "0x6080604052600d805463ffffffff1916600117905534801561002057600080fd5b5061309a806100306000396000f3fe608060405234801561001057600080fd5b50600436106101d95760003560e01c806393c8dc6d11610104578063bde81c0b116100a2578063cfe3f9a811610071578063cfe3f9a8146104ff578063d84c0e2714610530578063e9de133e14610543578063f4ff52ae1461055657600080fd5b8063bde81c0b146104a6578063bff31996146104b9578063c1cde80c146104cc578063cdde46c8146104ec57600080fd5b8063b0959c31116100de578063b0959c3114610447578063b46661301461045a578063bc3ef1e91461046d578063bc4627001461049357600080fd5b806393c8dc6d14610404578063a7c7b18214610424578063af640d0f1461043757600080fd5b80634377e3ff1161017c578063715d83181161014b578063715d8318146103cc5780637422ce61146103df578063774256c7146103f45780637c0b8de2146103fc57600080fd5b80634377e3ff1461035e57806349b033401461037b5780634a3b11521461038e5780634f18230d146103a157600080fd5b8063307869dd116101b8578063307869dd1461028657806331c83d3f146102c05780633262af54146102e6578063362e34b91461032057600080fd5b8062540521146101de57806305346ac51461024557806327e235e314610258575b600080fd5b6102286101ec3660046127c8565b8251602081850181018051600982529282019582019590952091909452835260009182526040808320909352815220546001600160401b031681565b6040516001600160401b0390911681526020015b60405180910390f35b610228610253366004612832565b610569565b610278610266366004612875565b60026020526000908152604090205481565b60405190815260200161023c565b610228610294366004612897565b60066020908152600093845260408085208252928452828420905282529020546001600160401b031681565b6102d36102ce3660046128d5565b61062e565b60405160079190910b815260200161023c565b6102286102f4366004612897565b60076020908152600093845260408085208252928452828420905282529020546001600160401b031681565b61034e61032e366004612943565b600460209081526000928352604080842090915290825290205460ff1681565b604051901515815260200161023c565b610366600181565b60405163ffffffff909116815260200161023c565b610278610389366004612a66565b610994565b61027861039c366004612b30565b610e65565b6102786103af366004612b30565b805160208183018101805160088252928201919093012091525481565b6102786103da3660046127c8565b610ec6565b6103f26103ed366004612b6c565b611047565b005b610366600081565b610366600281565b610278610412366004612875565b60036020526000908152604090205481565b610278610432366004612bb0565b611213565b600d546103669063ffffffff1681565b610278610455366004612bf4565b611465565b6103f2610468366004612b6c565b6117d2565b61036661047b366004612875565b600b6020526000908152604090205463ffffffff1681565b6103f26104a1366004612b6c565b61197e565b6103f26104b4366004612c96565b611b3e565b6103f26104c7366004612875565b611e2b565b6104df6104da366004612ce2565b611f42565b60405161023c9190612cfd565b6102d36104fa3660046128d5565b61200c565b61036661050d366004612b30565b8051602081830181018051600e8252928201919093012091525463ffffffff1681565b61022861053e366004612832565b612282565b610228610551366004612d4a565b612385565b61034e610564366004612943565b6126ab565b600080546001600160a01b03163314806105875750610587336126de565b6105ac5760405162461bcd60e51b81526004016105a390612dad565b60405180910390fd5b6040805180820190915260048152632298189b60e11b602082015263ffffffff83166002146105ee5760405162461bcd60e51b81526004016105a39190612e64565b5050506001600160a01b0391821660009081526006602090815260408083209390941682529182528281206002825290915220546001600160401b031690565b600080546001600160a01b031633146106595760405162461bcd60e51b81526004016105a390612e77565b6106646001866126ab565b604051806040016040528060048152602001634530303560e01b8152509061069f5760405162461bcd60e51b81526004016105a39190612e64565b506000845111604051806040016040528060048152602001632298181960e11b815250906106e05760405162461bcd60e51b81526004016105a39190612e64565b506106ea836126de565b604051806040016040528060048152602001634530303360e01b815250906107255760405162461bcd60e51b81526004016105a39190612e64565b5060008260070b13604051806040016040528060048152602001634530313160e01b815250906107685760405162461bcd60e51b81526004016105a39190612e64565b506001600160a01b038084166000908152600660209081526040808320938916835292815282822060018352815290829020548251808401909352600483526308a6060760e31b918301919091528391906001600160401b03808416911610156107e55760405162461bcd60e51b81526004016105a39190612e64565b506009856040516107f69190612ecc565b9081526040805191829003602090810183206001600160a01b038a1660009081529082528281206001825282528290205483830190925260048352634530303760e01b908301526001600160401b0316156108645760405162461bcd60e51b81526004016105a39190612e64565b506001600160a01b038085166000908152600660209081526040808320938a16835292815282822060018352905290812080548392906108ae9084906001600160401b0316612efe565b92506101000a8154816001600160401b0302191690836001600160401b03160217905550806009866040516108e39190612ecc565b90815260408051602092819003830181206001600160a01b038b811660008181529286528483206001808552908752858420805467ffffffffffffffff19166001600160401b03998a16179055918b1683526006865284832090835285528382208183529094529190912054909216917f0674090a69c67762650abcd64d1bc896d06756b85c925a9f28e97a30487db3ae916109829189918691612f25565b60405180910390a19695505050505050565b600080546001600160a01b031633146109bf5760405162461bcd60e51b81526004016105a390612e77565b6109c984896126ab565b604051806040016040528060048152602001634530303560e01b81525090610a045760405162461bcd60e51b81526004016105a39190612e64565b50610a0e876126de565b604051806040016040528060048152602001634530303360e01b81525090610a495760405162461bcd60e51b81526004016105a39190612e64565b506000865111604051806040016040528060048152602001632298181960e11b81525090610a8a5760405162461bcd60e51b81526004016105a39190612e64565b5060008560070b13604051806040016040528060048152602001634530313160e01b81525090610acd5760405162461bcd60e51b81526004016105a39190612e64565b50600c86604051610ade9190612ecc565b90815260408051918290036020908101832063ffffffff88166000908152908252829020548383019092526004835263114c0c0d60e21b9083015260ff16610b395760405162461bcd60e51b81526004016105a39190612e64565b508151835114604051806040016040528060048152602001632298189960e11b81525090610b7a5760405162461bcd60e51b81526004016105a39190612e64565b506000805b8351811015610bc157838181518110610b9a57610b9a612f5d565b602002602001015182610bad9190612f73565b915080610bb981612f86565b915050610b7f565b50600987604051610bd29190612ecc565b9081526040805191829003602090810183206001600160a01b038d16600090815290825282812063ffffffff8a16825282528290205483830190925260048352634530313360e01b908301526001600160401b0316821115610c475760405162461bcd60e51b81526004016105a39190612e64565b5080600988604051610c599190612ecc565b90815260408051602092819003830190206001600160a01b038d16600090815290835281812063ffffffff8a16825290925281208054909190610ca69084906001600160401b0316612efe565b92506101000a8154816001600160401b0302191690836001600160401b0316021790555060005b8451811015610dcc576000858281518110610cea57610cea612f5d565b602002602001015190506000858381518110610d0857610d08612f5d565b602002602001015190508060076000846001600160a01b03166001600160a01b0316815260200190815260200160002060008e6001600160a01b03166001600160a01b0316815260200190815260200160002060008a63ffffffff16815260200190815260200160002060008282829054906101000a90046001600160401b0316610d939190612f9f565b92506101000a8154816001600160401b0302191690836001600160401b0316021790555050508080610dc490612f86565b915050610ccd565b506000600988604051610ddf9190612ecc565b9081526040805191829003602090810183206001600160a01b038e16600090815290825282812063ffffffff8b16825290915220546001600160401b031691507f037378c439105dd07d1db6d59a47347ea8f734a0835509a3820255c8be11cea090610e50908a9085908590612fbf565b60405180910390a19998505050505050505050565b600080546001600160a01b0316331480610e835750610e83336126de565b610e9f5760405162461bcd60e51b81526004016105a390612dad565b600882604051610eaf9190612ecc565b90815260200160405180910390205490505b919050565b600080546001600160a01b03163314610ef15760405162461bcd60e51b81526004016105a390612e77565b610efa836126de565b604051806040016040528060048152602001634530303360e01b81525090610f355760405162461bcd60e51b81526004016105a39190612e64565b508160026000856001600160a01b03166001600160a01b031681526020019081526020016000205410156040518060400160405280600481526020016308a6060760e31b81525090610f9a5760405162461bcd60e51b81526004016105a39190612e64565b506001600160a01b03831660009081526002602052604081208054849290610fc3908490612fe4565b9250508190555081600885604051610fdb9190612ecc565b9081526040805160209281900383018120939093556001600160a01b03861660009081526002909252812054917f0674090a69c67762650abcd64d1bc896d06756b85c925a9f28e97a30487db3ae916110379188918791612ff7565b60405180910390a1949350505050565b6000546001600160a01b031633146110715760405162461bcd60e51b81526004016105a390612e77565b6000825111604051806040016040528060048152602001632298181960e11b815250906110b15760405162461bcd60e51b81526004016105a39190612e64565b506040805180820190915260048152630453031360e41b6020820152816110eb5760405162461bcd60e51b81526004016105a39190612e64565b50600c826040516110fc9190612ecc565b90815260408051918290036020908101832060026000908152908252829020548383019092526004835263114c0c4d60e21b9083015260ff16156111535760405162461bcd60e51b81526004016105a39190612e64565b506001600c836040516111669190612ecc565b90815260408051602092819003830190206002600090815292529020805460ff191691151591909117905561119b8142612f73565b600a836040516111ab9190612ecc565b90815260200160405180910390206000600263ffffffff168152602001908152602001600020819055507ffda0e6502dae3d85195083e39efa0c8bdccc7d5741b53cf5c57de0c33dc9aaa4826002604051611207929190613026565b60405180910390a15050565b600080546001600160a01b0316331461123e5760405162461bcd60e51b81526004016105a390612e77565b6000835111604051806040016040528060048152602001632298181960e11b8152509061127e5760405162461bcd60e51b81526004016105a39190612e64565b50611288826126de565b604051806040016040528060048152602001634530303360e01b815250906112c35760405162461bcd60e51b81526004016105a39190612e64565b50600a836040516112d49190612ecc565b9081526040805191829003602090810183206000808052908252829020548383019092526004835263114c0c0d60e21b9083015242116113275760405162461bcd60e51b81526004016105a39190612e64565b50600c836040516113389190612ecc565b9081526040805191829003602090810183206000808052908252829020548383019092526004835263114c0c0d60e21b9083015260ff1661138c5760405162461bcd60e51b81526004016105a39190612e64565b5060088360405161139d9190612ecc565b90815260200160405180910390205460026000846001600160a01b03166001600160a01b0316815260200190815260200160002060008282546113e09190612f73565b9250508190555060006008846040516113f99190612ecc565b908152604080519182900360209081018320939093556001600160a01b03851660009081526002909352822054917f2a4a396795b36662ffe9a398a57fd654cf6ea95e79cf6d96d6f0267685687c3991611454918791613026565b60405180910390a190505b92915050565b600080546001600160a01b031633146114905760405162461bcd60e51b81526004016105a390612e77565b611499866126de565b604051806040016040528060048152602001634530303360e01b815250906114d45760405162461bcd60e51b81526004016105a39190612e64565b506000855111604051806040016040528060048152602001632298181960e11b815250906115155760405162461bcd60e51b81526004016105a39190612e64565b506040805180820190915260048152634530313160e01b60208201528461154f5760405162461bcd60e51b81526004016105a39190612e64565b50600c856040516115609190612ecc565b9081526040805191829003602090810183206000808052908252829020548383019092526004835263114c0c0d60e21b9083015260ff166115b45760405162461bcd60e51b81526004016105a39190612e64565b508151835114604051806040016040528060048152602001632298189960e11b815250906115f55760405162461bcd60e51b81526004016105a39190612e64565b506000805b835181101561163c5783818151811061161557611615612f5d565b6020026020010151826116289190612f73565b91508061163481612f86565b9150506115fa565b5060088660405161164d9190612ecc565b908152602001604051809103902054811115604051806040016040528060048152602001634530313360e01b8152509061169a5760405162461bcd60e51b81526004016105a39190612e64565b50806008876040516116ac9190612ecc565b908152602001604051809103902060008282546116c99190612fe4565b90915550600090505b84518110156117685760008582815181106116ef576116ef612f5d565b60200260200101519050600085838151811061170d5761170d612f5d565b602002602001015190508060036000846001600160a01b03166001600160a01b03168152602001908152602001600020600082825461174c9190612f73565b925050819055505050808061176090612f86565b9150506116d2565b50600060088760405161177b9190612ecc565b90815260200160405180910390205490507f037378c439105dd07d1db6d59a47347ea8f734a0835509a3820255c8be11cea08783836040516117bf93929190612fbf565b60405180910390a1979650505050505050565b6000546001600160a01b031633146117fc5760405162461bcd60e51b81526004016105a390612e77565b6000825111604051806040016040528060048152602001632298181960e11b8152509061183c5760405162461bcd60e51b81526004016105a39190612e64565b506040805180820190915260048152630453031360e41b6020820152816118765760405162461bcd60e51b81526004016105a39190612e64565b50600c826040516118879190612ecc565b9081526040805191829003602090810183206000808052908252829020548383019092526004835263114c0c4d60e21b9083015260ff16156118dc5760405162461bcd60e51b81526004016105a39190612e64565b506001600c836040516118ef9190612ecc565b9081526040805160209281900383019020600080805292529020805460ff19169115159190911790556119228142612f73565b600a836040516119329190612ecc565b908152604080516020928190038301812060008080529352908220929092557ffda0e6502dae3d85195083e39efa0c8bdccc7d5741b53cf5c57de0c33dc9aaa491611207918591613026565b6000546001600160a01b031633146119a85760405162461bcd60e51b81526004016105a390612e77565b6000825111604051806040016040528060048152602001632298181960e11b815250906119e85760405162461bcd60e51b81526004016105a39190612e64565b506040805180820190915260048152630453031360e41b602082015281611a225760405162461bcd60e51b81526004016105a39190612e64565b50600c82604051611a339190612ecc565b90815260408051918290036020908101832060016000908152908252829020548383019092526004835263114c0c4d60e21b9083015260ff1615611a8a5760405162461bcd60e51b81526004016105a39190612e64565b506001600c83604051611a9d9190612ecc565b90815260408051602092819003830190206001600090815292529020805460ff1916911515919091179055611ad28142612f73565b600a83604051611ae29190612ecc565b90815260200160405180910390206000600163ffffffff168152602001908152602001600020819055507ffda0e6502dae3d85195083e39efa0c8bdccc7d5741b53cf5c57de0c33dc9aaa4826001604051611207929190613026565b6000546001600160a01b03163314611b685760405162461bcd60e51b81526004016105a390612e77565b63ffffffff821660011480611b83575063ffffffff82166002145b604051806040016040528060048152602001632298189b60e11b81525090611bbe5760405162461bcd60e51b81526004016105a39190612e64565b50808015611bf6575063ffffffff821660009081526004602090815260408083206001600160a01b038716845290915290205460ff16155b15611c5e575063ffffffff1660008181526004602090815260408083206001600160a01b0395909516808452948252808320805460ff1916600190811790915593835260058252822080549384018155825290200180546001600160a01b0319169091179055565b80158015611c95575063ffffffff821660009081526004602090815260408083206001600160a01b038716845290915290205460ff165b15611e265763ffffffff821660008181526004602090815260408083206001600160a01b03881684528252808320805460ff191690559282526005905290812054905b81811015611e235763ffffffff8416600090815260056020526040902080546001600160a01b038716919083908110611d1357611d13612f5d565b6000918252602090912001546001600160a01b031603611e115763ffffffff84166000908152600560205260409020611d4d600184612fe4565b81548110611d5d57611d5d612f5d565b600091825260208083209091015463ffffffff871683526005909152604090912080546001600160a01b039092169183908110611d9c57611d9c612f5d565b600091825260208083209190910180546001600160a01b0319166001600160a01b03949094169390931790925563ffffffff86168152600590915260409020805480611dea57611dea61304e565b600082815260209020810160001990810180546001600160a01b0319169055019055611e23565b80611e1b81612f86565b915050611cd8565b50505b505050565b6000546001600160a01b03163314611e555760405162461bcd60e51b81526004016105a390612e77565b6040805180820190915260048152632298181960e11b60208201526001600160a01b038216611e975760405162461bcd60e51b81526004016105a39190612e64565b50611ea1816126de565b15604051806040016040528060048152602001632298181b60e11b81525090611edd5760405162461bcd60e51b81526004016105a39190612e64565b506001600160a01b0381166000818152600160208181526040808420805460ff19169093179092556002815281832092909255519182527f3d04fb94919fdfa7708320cdebdf093992d88d792b3d5f4144c364cda00129c6910160405180910390a150565b606063ffffffff821660011480611f5f575063ffffffff82166002145b604051806040016040528060048152602001632298189b60e11b81525090611f9a5760405162461bcd60e51b81526004016105a39190612e64565b5063ffffffff82166000908152600560209081526040918290208054835181840281018401909452808452909183018282801561200057602002820191906000526020600020905b81546001600160a01b03168152600190910190602001808311611fe2575b50505050509050919050565b600080546001600160a01b031633146120375760405162461bcd60e51b81526004016105a390612e77565b6120426002866126ab565b604051806040016040528060048152602001634530303560e01b8152509061207d5760405162461bcd60e51b81526004016105a39190612e64565b506000845111604051806040016040528060048152602001632298181960e11b815250906120be5760405162461bcd60e51b81526004016105a39190612e64565b506120c8836126de565b604051806040016040528060048152602001634530303360e01b815250906121035760405162461bcd60e51b81526004016105a39190612e64565b5060008260070b13604051806040016040528060048152602001634530313160e01b815250906121465760405162461bcd60e51b81526004016105a39190612e64565b506001600160a01b038084166000908152600660209081526040808320938916835292815282822060028352815290829020548251808401909352600483526308a6060760e31b918301919091526001600160401b03808516911610156121c05760405162461bcd60e51b81526004016105a39190612e64565b50816009856040516121d29190612ecc565b90815260408051602092819003830181206001600160a01b038a811660008181529286528483206002808552908752858420805467ffffffffffffffff19166001600160401b03998a16179055918a1683526006865284832090835285528382208183529094529190912054909216917f0674090a69c67762650abcd64d1bc896d06756b85c925a9f28e97a30487db3ae916122719188918791612f25565b60405180910390a195945050505050565b600080546001600160a01b03163314806122a057506122a0336126de565b6122bc5760405162461bcd60e51b81526004016105a390612dad565b6040805180820190915260048152634530313560e01b602082015263ffffffff83166001146122fe5760405162461bcd60e51b81526004016105a39190612e64565b5061230a6001846126ab565b604051806040016040528060048152602001634530303560e01b815250906123455760405162461bcd60e51b81526004016105a39190612e64565b5050506001600160a01b0391821660009081526006602090815260408083209390941682529182528281206001825290915220546001600160401b031690565b600080546001600160a01b031633146123b05760405162461bcd60e51b81526004016105a390612e77565b6040805180820190915260048152634530303160e01b60208201526001600160a01b0386166123f25760405162461bcd60e51b81526004016105a39190612e64565b506000845111604051806040016040528060048152602001632298181960e11b815250906124335760405162461bcd60e51b81526004016105a39190612e64565b5061243d836126de565b604051806040016040528060048152602001634530303360e01b815250906124785760405162461bcd60e51b81526004016105a39190612e64565b50600c846040516124899190612ecc565b90815260408051918290036020908101832063ffffffff86166000908152908252829020548383019092526004835263114c0c0d60e21b9083015260ff166124e45760405162461bcd60e51b81526004016105a39190612e64565b50600a846040516124f59190612ecc565b90815260408051918290036020908101832063ffffffff86166000908152908252829020548383019092526004835263114c0c0d60e21b90830152421161254f5760405162461bcd60e51b81526004016105a39190612e64565b506009846040516125609190612ecc565b90815260408051602092819003830190206001600160a01b03888116600081815292855283832063ffffffff88168085529086528484205492891684526006865284842091845290855283832090835290935290812080546001600160401b03938416939192916125d391859116612f9f565b92506101000a8154816001600160401b0302191690836001600160401b0316021790555060006009856040516126099190612ecc565b90815260408051602092819003830181206001600160a01b038a8116600081815292865284832063ffffffff8a16808552908752858420805467ffffffffffffffff19166001600160401b03998a16179055918a168352600686528483209083528552838220908252909352912054909116907f2a4a396795b36662ffe9a398a57fd654cf6ea95e79cf6d96d6f0267685687c39906122719087908690613026565b63ffffffff821660009081526004602090815260408083206001600160a01b038516845290915290205460ff1692915050565b6001600160a01b031660009081526001602052604090205460ff1690565b634e487b7160e01b600052604160045260246000fd5b604051601f8201601f191681016001600160401b038111828210171561273a5761273a6126fc565b604052919050565b600082601f83011261275357600080fd5b81356001600160401b0381111561276c5761276c6126fc565b61277f601f8201601f1916602001612712565b81815284602083860101111561279457600080fd5b816020850160208301376000918101602001919091529392505050565b80356001600160a01b0381168114610ec157600080fd5b6000806000606084860312156127dd57600080fd5b83356001600160401b038111156127f357600080fd5b6127ff86828701612742565b93505061280e602085016127b1565b9150604084013590509250925092565b803563ffffffff81168114610ec157600080fd5b60008060006060848603121561284757600080fd5b612850846127b1565b925061285e602085016127b1565b915061286c6040850161281e565b90509250925092565b60006020828403121561288757600080fd5b612890826127b1565b9392505050565b6000806000606084860312156128ac57600080fd5b6128b5846127b1565b925061280e602085016127b1565b8035600781900b8114610ec157600080fd5b600080600080608085870312156128eb57600080fd5b6128f4856127b1565b935060208501356001600160401b0381111561290f57600080fd5b61291b87828801612742565b93505061292a604086016127b1565b9150612938606086016128c3565b905092959194509250565b6000806040838503121561295657600080fd5b61295f8361281e565b915061296d602084016127b1565b90509250929050565b60006001600160401b0382111561298f5761298f6126fc565b5060051b60200190565b600082601f8301126129aa57600080fd5b813560206129bf6129ba83612976565b612712565b82815260059290921b840181019181810190868411156129de57600080fd5b8286015b84811015612a00576129f3816127b1565b83529183019183016129e2565b509695505050505050565b600082601f830112612a1c57600080fd5b81356020612a2c6129ba83612976565b82815260059290921b84018101918181019086841115612a4b57600080fd5b8286015b84811015612a005780358352918301918301612a4f565b600080600080600080600060e0888a031215612a8157600080fd5b612a8a886127b1565b9650612a98602089016127b1565b955060408801356001600160401b0380821115612ab457600080fd5b612ac08b838c01612742565b9650612ace60608b016128c3565b9550612adc60808b0161281e565b945060a08a0135915080821115612af257600080fd5b612afe8b838c01612999565b935060c08a0135915080821115612b1457600080fd5b50612b218a828b01612a0b565b91505092959891949750929550565b600060208284031215612b4257600080fd5b81356001600160401b03811115612b5857600080fd5b612b6484828501612742565b949350505050565b60008060408385031215612b7f57600080fd5b82356001600160401b03811115612b9557600080fd5b612ba185828601612742565b95602094909401359450505050565b60008060408385031215612bc357600080fd5b82356001600160401b03811115612bd957600080fd5b612be585828601612742565b92505061296d602084016127b1565b600080600080600060a08688031215612c0c57600080fd5b612c15866127b1565b945060208601356001600160401b0380821115612c3157600080fd5b612c3d89838a01612742565b9550604088013594506060880135915080821115612c5a57600080fd5b612c6689838a01612999565b93506080880135915080821115612c7c57600080fd5b50612c8988828901612a0b565b9150509295509295909350565b600080600060608486031215612cab57600080fd5b612cb4846127b1565b9250612cc26020850161281e565b915060408401358015158114612cd757600080fd5b809150509250925092565b600060208284031215612cf457600080fd5b6128908261281e565b6020808252825182820181905260009190848201906040850190845b81811015612d3e5783516001600160a01b031683529284019291840191600101612d19565b50909695505050505050565b60008060008060808587031215612d6057600080fd5b612d69856127b1565b935060208501356001600160401b03811115612d8457600080fd5b612d9087828801612742565b935050612d9f604086016127b1565b91506129386060860161281e565b60208082526041908201527f556e617574686f72697a6520416363657373207265717565737465642c20436160408201527f6c6c6572206d757374206265206f776e6572206f722063616d706169676e65726060820152601760f91b608082015260a00190565b60005b83811015612e2f578181015183820152602001612e17565b50506000910152565b60008151808452612e50816020860160208601612e14565b601f01601f19169290920160200192915050565b6020815260006128906020830184612e38565b60208082526035908201527f556e617574686f72697a6520416363657373207265717565737465642c204361604082015274363632b91034b9903737ba103a34329037bbb732b960591b606082015260800190565b60008251612ede818460208701612e14565b9190910192915050565b634e487b7160e01b600052601160045260246000fd5b6001600160401b03828116828216039080821115612f1e57612f1e612ee8565b5092915050565b606081526000612f386060830186612e38565b90506001600160401b038416602083015263ffffffff83166040830152949350505050565b634e487b7160e01b600052603260045260246000fd5b8082018082111561145f5761145f612ee8565b600060018201612f9857612f98612ee8565b5060010190565b6001600160401b03818116838216019080821115612f1e57612f1e612ee8565b606081526000612fd26060830186612e38565b60208301949094525060400152919050565b8181038181111561145f5761145f612ee8565b60608152600061300a6060830186612e38565b905083602083015263ffffffff83166040830152949350505050565b6040815260006130396040830185612e38565b905063ffffffff831660208301529392505050565b634e487b7160e01b600052603160045260246000fdfea264697066735822122092a4588146dea6e94bb45999d72bf5434f21342183b11404cd83df853abc947164736f6c63430008110033",
  "immutableReferences": {},
  "source": "// SPDX-License-Identifier: Apache-2.0\r\npragma solidity ^0.8.17;\r\n\r\nimport \"./HashbuzzStates.sol\";\r\nimport \"./Utils.sol\";\r\n\r\n/**\r\n * @title CampaignLifecycle\r\n * @dev This contract manages the campaign's lifecycle calls and state changes.\r\n */\r\ncontract Lifecycle is HashbuzzStates, Utils {\r\n    /**\r\n     * @dev Add a new campaign\r\n     * @param campaignAddress The db address of the campaign\r\n     * @param campaigner The solidity address of the campaigner or wallet address\r\n     * @param amount The amount to be allocated to the campaign from the campaigner's balance.\r\n     */\r\n    function addCampaign(\r\n        string memory campaignAddress,\r\n        address campaigner,\r\n        uint256 amount\r\n    ) public onlyOwner returns (uint256) {\r\n        require(isCampaigner(campaigner), ERR_CAMPAIGNER_NOT_ALLOWED);\r\n        require(balances[campaigner] >= amount, ERR_INSUFFICIENT_BALANCE);\r\n\r\n        balances[campaigner] -= amount;\r\n        campaignBalances[campaignAddress] = amount;\r\n\r\n        uint256 updatedBalance = balances[campaigner];\r\n        emit NewCampaignIsAdded(campaignAddress, amount, HBAR);\r\n\r\n        return updatedBalance;\r\n    }\r\n\r\n    /**\r\n     * @dev Add a new campaign for fungible tokens\r\n     * @param tokenId The address of the token in solidity format\r\n     * @param campaignAddress The db address of the campaign [string]\r\n     * @param campaigner The solidity address of the campaigner or wallet address\r\n     * @param tokenAmount The amount of tokens to be allocated to the campaign\r\n     */\r\n    function addFungibleCampaign(\r\n        address tokenId,\r\n        string memory campaignAddress,\r\n        address campaigner,\r\n        int64 tokenAmount\r\n    ) public onlyOwner returns (int64) {\r\n        require(\r\n            isTokenWhitelisted(FUNGIBLE, tokenId),\r\n            ERR_TOKEN_NOT_WHITELISTED\r\n        );\r\n        require(\r\n            bytes(campaignAddress).length > 0,\r\n            ERR_INVALID_CAMPAIGN_ADDRESS\r\n        );\r\n        require(isCampaigner(campaigner), ERR_CAMPAIGNER_NOT_ALLOWED);\r\n        require(tokenAmount > 0, ERR_TOTAL_AMOUNT_MUST_BE_GREATER_THAN_ZERO);\r\n\r\n        uint64 amount = uint64(tokenAmount);\r\n        require(\r\n            tokenBalances[campaigner][tokenId][FUNGIBLE] >= amount,\r\n            ERR_INSUFFICIENT_BALANCE\r\n        );\r\n        require(\r\n            tokenCampaignBalances[campaignAddress][tokenId][FUNGIBLE] == 0,\r\n            CURRENT_BALANCE_IS_NON_ZERO\r\n        );\r\n\r\n        tokenBalances[campaigner][tokenId][FUNGIBLE] -= amount;\r\n        tokenCampaignBalances[campaignAddress][tokenId][FUNGIBLE] = amount;\r\n\r\n        uint64 updatedBalance = tokenBalances[campaigner][tokenId][FUNGIBLE];\r\n\r\n        emit NewCampaignIsAdded(campaignAddress, amount, FUNGIBLE);\r\n        return int64(updatedBalance);\r\n    }\r\n\r\n    /**\r\n     * @dev Add a new campaign for NFT tokens\r\n     * @param tokenId The address of the token in solidity format\r\n     * @param campaignAddress The db address of the campaign [string]\r\n     * @param campaigner The solidity address of the campaigner or wallet address\r\n     * @param tokenAmount The amount of tokens to be allocated to the campaign\r\n     */\r\n    function addNFTCampaign(\r\n        address tokenId,\r\n        string memory campaignAddress,\r\n        address campaigner,\r\n        int64 tokenAmount\r\n    ) public onlyOwner returns (int64) {\r\n        require(isTokenWhitelisted(NFT, tokenId), ERR_TOKEN_NOT_WHITELISTED);\r\n        require(\r\n            bytes(campaignAddress).length > 0,\r\n            ERR_INVALID_CAMPAIGN_ADDRESS\r\n        );\r\n        require(isCampaigner(campaigner), ERR_CAMPAIGNER_NOT_ALLOWED);\r\n        require(tokenAmount > 0, ERR_TOTAL_AMOUNT_MUST_BE_GREATER_THAN_ZERO);\r\n\r\n        require(\r\n            tokenBalances[campaigner][tokenId][NFT] >= uint64(tokenAmount),\r\n            ERR_INSUFFICIENT_BALANCE\r\n        );\r\n        tokenCampaignBalances[campaignAddress][tokenId][NFT] = uint64(\r\n            tokenAmount\r\n        );\r\n\r\n        uint64 updatedBalance = tokenBalances[campaigner][tokenId][NFT];\r\n\r\n        emit NewCampaignIsAdded(campaignAddress, uint64(tokenAmount), NFT);\r\n        return int64(updatedBalance);\r\n    }\r\n\r\n    /**\r\n     * @dev Close a campaign with HBAR\r\n     * @param campaignAddress The db address of the campaign\r\n     * @param campaignExpiryTime The expiry time of the campaign in seconds\r\n     */\r\n    function closeCampaign(\r\n        string memory campaignAddress,\r\n        uint256 campaignExpiryTime\r\n    ) public onlyOwner {\r\n        require(\r\n            bytes(campaignAddress).length > 0,\r\n            ERR_INVALID_CAMPAIGN_ADDRESS\r\n        );\r\n        require(campaignExpiryTime > 0, ERR_INVALID_EXPIRY_TIME);\r\n        require(\r\n            !isCampaignClosed[campaignAddress][HBAR],\r\n            ERR_TCAMPAIGN_ALREADY_CLOSED\r\n        );\r\n\r\n        isCampaignClosed[campaignAddress][HBAR] = true;\r\n        campaignEndTime[campaignAddress][HBAR] =\r\n            block.timestamp +\r\n            campaignExpiryTime;\r\n        emit campaignClosed(campaignAddress, HBAR);\r\n    }\r\n\r\n    /**\r\n     * @dev Close a campaign with fungible tokens\r\n     * @param campaignAddress The db address of the campaign\r\n     * @param campaignExpiryTime The expiry time of the campaign in seconds\r\n     */\r\n    function closeFungibleCampaign(\r\n        string memory campaignAddress,\r\n        uint256 campaignExpiryTime\r\n    ) public onlyOwner {\r\n        require(\r\n            bytes(campaignAddress).length > 0,\r\n            ERR_INVALID_CAMPAIGN_ADDRESS\r\n        );\r\n        require(campaignExpiryTime > 0, ERR_INVALID_EXPIRY_TIME);\r\n        require(\r\n            !isCampaignClosed[campaignAddress][FUNGIBLE],\r\n            ERR_TCAMPAIGN_ALREADY_CLOSED\r\n        );\r\n\r\n        isCampaignClosed[campaignAddress][FUNGIBLE] = true;\r\n        campaignEndTime[campaignAddress][FUNGIBLE] =\r\n            block.timestamp +\r\n            campaignExpiryTime;\r\n\r\n        emit campaignClosed(campaignAddress, FUNGIBLE);\r\n    }\r\n\r\n    /**\r\n     * @dev Close a campaign with NFT tokens\r\n     * @param campaignAddress The db address of the campaign\r\n     * @param campaignExpiryTime The expiry time of the campaign in seconds\r\n     */\r\n    function closeNFTCampaign(\r\n        string memory campaignAddress,\r\n        uint256 campaignExpiryTime\r\n    ) public onlyOwner {\r\n        require(\r\n            bytes(campaignAddress).length > 0,\r\n            ERR_INVALID_CAMPAIGN_ADDRESS\r\n        );\r\n        require(campaignExpiryTime > 0, ERR_INVALID_EXPIRY_TIME);\r\n        require(\r\n            !isCampaignClosed[campaignAddress][NFT],\r\n            ERR_TCAMPAIGN_ALREADY_CLOSED\r\n        );\r\n\r\n        isCampaignClosed[campaignAddress][NFT] = true;\r\n        campaignEndTime[campaignAddress][NFT] =\r\n            block.timestamp +\r\n            campaignExpiryTime;\r\n\r\n        emit campaignClosed(campaignAddress, NFT);\r\n    }\r\n\r\n    /**\r\n     * @dev Distribute HBAR tokens to the campaigner\r\n     * @param campaigner The solidity address of the campaigner or wallet address\r\n     * @param campaignAddress The db address of the campaign\r\n     * @param totalAmount The total amount of tokens to be distributed\r\n     * @param receiversAddresses The addresses of the receivers take max 50 addresses in one call\r\n     * @param amounts The amounts to be distributed to each receiver\r\n     */\r\n    function rewardIntractors(\r\n        address campaigner,\r\n        string memory campaignAddress,\r\n        uint256 totalAmount,\r\n        address[] memory receiversAddresses,\r\n        uint256[] memory amounts\r\n    ) external onlyOwner returns (uint256) {\r\n        require(isCampaigner(campaigner), ERR_CAMPAIGNER_NOT_ALLOWED);\r\n        require(\r\n            bytes(campaignAddress).length > 0,\r\n            ERR_INVALID_CAMPAIGN_ADDRESS\r\n        );\r\n        require(totalAmount > 0, ERR_TOTAL_AMOUNT_MUST_BE_GREATER_THAN_ZERO);\r\n        require(\r\n            isCampaignClosed[campaignAddress][HBAR],\r\n            ERR_CAMPAIGN_NOT_CLOSED\r\n        );\r\n        require(\r\n            receiversAddresses.length == amounts.length,\r\n            ERR_MISMATCHED_INPUT_ARRAYS\r\n        );\r\n\r\n        uint256 totalReward = 0;\r\n        for (uint i = 0; i < amounts.length; i++) {\r\n            totalReward += amounts[i];\r\n        }\r\n\r\n        // Ensure the total reward is not greater than the campaign balance\r\n        require(\r\n            totalReward <= campaignBalances[campaignAddress],\r\n            ERR_TOTAL_REWARD_EXCEEDS_CAMPAIGN_BALANCE\r\n        );\r\n\r\n        // Deduct the distributed amount from the campaign's balance\r\n        campaignBalances[campaignAddress] -= totalReward;\r\n\r\n        for (uint i = 0; i < receiversAddresses.length; i++) {\r\n            address recipient = receiversAddresses[i];\r\n            uint256 amount = amounts[i];\r\n            rewardBalances[recipient] += amount;\r\n        }\r\n\r\n        uint256 remainingBalance = campaignBalances[campaignAddress];\r\n\r\n        emit RewardsDistributed(campaignAddress, totalReward, remainingBalance);\r\n        return remainingBalance;\r\n    }\r\n\r\n    /**\r\n     * @dev Distribute fungible tokens to the campaigner\r\n     * @param tokenId The address of the token in solidity format\r\n     * @param campaigner The solidity address of the campaigner or wallet address\r\n     * @param campaignAddress The db address of the campaign\r\n     * @param tokenTotalAmount The total amount of tokens to be distributed\r\n     * @param tokenType The type of the token (FUNGIBLE or NFT)\r\n     * @param receiversAddresses The addresses of the receivers take max 50 addresses in one call\r\n     * @param amounts The amounts to be distributed to each receiver\r\n     */\r\n    function rewardIntractorsWithFungible(\r\n        address tokenId,\r\n        address campaigner,\r\n        string memory campaignAddress,\r\n        int64 tokenTotalAmount,\r\n        uint32 tokenType,\r\n        address[] memory receiversAddresses,\r\n        uint256[] memory amounts\r\n    ) external onlyOwner returns (uint256) {\r\n        require(\r\n            isTokenWhitelisted(tokenType, tokenId),\r\n            ERR_TOKEN_NOT_WHITELISTED\r\n        );\r\n        require(isCampaigner(campaigner), ERR_CAMPAIGNER_NOT_ALLOWED);\r\n        require(\r\n            bytes(campaignAddress).length > 0,\r\n            ERR_INVALID_CAMPAIGN_ADDRESS\r\n        );\r\n        require(\r\n            tokenTotalAmount > 0,\r\n            ERR_TOTAL_AMOUNT_MUST_BE_GREATER_THAN_ZERO\r\n        );\r\n        require(\r\n            isCampaignClosed[campaignAddress][tokenType],\r\n            ERR_CAMPAIGN_NOT_CLOSED\r\n        );\r\n        require(\r\n            receiversAddresses.length == amounts.length,\r\n            ERR_MISMATCHED_INPUT_ARRAYS\r\n        );\r\n\r\n        uint256 totalReward = 0;\r\n        for (uint i = 0; i < amounts.length; i++) {\r\n            totalReward += amounts[i];\r\n        }\r\n\r\n        // Ensure the total reward is not greater than the campaign balance\r\n        require(\r\n            totalReward <=\r\n                tokenCampaignBalances[campaignAddress][tokenId][tokenType],\r\n            ERR_TOTAL_REWARD_EXCEEDS_CAMPAIGN_BALANCE\r\n        );\r\n\r\n        // Deduct the distributed amount from the campaign's balance\r\n        tokenCampaignBalances[campaignAddress][tokenId][tokenType] -= uint64(\r\n            totalReward\r\n        );\r\n\r\n        for (uint i = 0; i < receiversAddresses.length; i++) {\r\n            address recipient = receiversAddresses[i];\r\n            uint256 amount = amounts[i];\r\n            rewardTokenBalances[recipient][tokenId][tokenType] += uint64(\r\n                amount\r\n            );\r\n        }\r\n\r\n        uint256 remainingBalance = tokenCampaignBalances[campaignAddress][\r\n            tokenId\r\n        ][tokenType];\r\n\r\n        emit RewardsDistributed(campaignAddress, totalReward, remainingBalance);\r\n\r\n        return remainingBalance;\r\n    }\r\n\r\n    /**\r\n     * @dev Expiry a campaign with fungible and NFT tokens\r\n     * @param campaignAddress The db address of the campaign\r\n     * @param tokenId The address of the token in solidity format\r\n     * @param campaigner The solidity address of the campaigner or wallet address\r\n     * @param tokenType The type of the token (FUNGIBLE or NFT) [uint32] (1 for FUNGIBLE & 2 for NFT)\r\n     */\r\n    function expiryFungibleCampaign(\r\n        address tokenId,\r\n        string memory campaignAddress,\r\n        address campaigner,\r\n        uint32 tokenType\r\n    ) public onlyOwner returns (uint64) {\r\n        require(tokenId != address(0), ERR_INVALID_TOKEN_ADDRESS);\r\n        require(\r\n            bytes(campaignAddress).length > 0,\r\n            ERR_INVALID_CAMPAIGN_ADDRESS\r\n        );\r\n        require(isCampaigner(campaigner), ERR_CAMPAIGNER_NOT_ALLOWED);\r\n        require(\r\n            isCampaignClosed[campaignAddress][tokenType],\r\n            ERR_CAMPAIGN_NOT_CLOSED\r\n        );\r\n        require(\r\n            block.timestamp > campaignEndTime[campaignAddress][tokenType],\r\n            ERR_CAMPAIGN_NOT_CLOSED\r\n        );\r\n\r\n        tokenBalances[campaigner][tokenId][tokenType] += tokenCampaignBalances[\r\n            campaignAddress\r\n        ][tokenId][tokenType];\r\n        tokenCampaignBalances[campaignAddress][tokenId][tokenType] = 0;\r\n\r\n        uint64 updatedBalance = tokenBalances[campaigner][tokenId][tokenType];\r\n        emit campaignExpired(campaignAddress, tokenType);\r\n\r\n        return updatedBalance;\r\n    }\r\n\r\n    /**\r\n     * @dev Expiry a campaign with HBAR\r\n     * @param campaignAddress The db address of the campaign\r\n     * @param campaigner The solidity address of the campaigner or wallet address\r\n     */\r\n    function expiryCampaign(\r\n        string memory campaignAddress,\r\n        address campaigner\r\n    ) public onlyOwner returns (uint256) {\r\n        require(\r\n            bytes(campaignAddress).length > 0,\r\n            ERR_INVALID_CAMPAIGN_ADDRESS\r\n        );\r\n        require(isCampaigner(campaigner), ERR_CAMPAIGNER_NOT_ALLOWED);\r\n        require(\r\n            block.timestamp > campaignEndTime[campaignAddress][HBAR],\r\n            ERR_CAMPAIGN_NOT_CLOSED\r\n        );\r\n        require(\r\n            isCampaignClosed[campaignAddress][HBAR],\r\n            ERR_CAMPAIGN_NOT_CLOSED\r\n        );\r\n\r\n        balances[campaigner] += campaignBalances[campaignAddress];\r\n        campaignBalances[campaignAddress] = 0;\r\n        uint256 updatedBalance = balances[campaigner];\r\n\r\n        emit campaignExpired(campaignAddress, HBAR);\r\n\r\n        return updatedBalance;\r\n    }\r\n}\r\n",
  "sourcePath": "D:\\rajatk\\hashbuzz-staging\\smv201\\contracts\\HashbuzzModules\\CampaignLifecycle.sol",
  "compiler": {
    "name": "solc",
    "version": "0.8.17+commit.8df45f5f.Emscripten.clang"
  },
  "schemaVersion": "3.4.16",
  "updatedAt": "2024-10-30T16:12:23.870Z",
  "devdoc": {
    "details": "This contract manages the campaign's lifecycle calls and state changes.",
    "kind": "dev",
    "methods": {
      "addCampaign(string,address,uint256)": {
        "details": "Add a new campaign",
        "params": {
          "amount": "The amount to be allocated to the campaign from the campaigner's balance.",
          "campaignAddress": "The db address of the campaign",
          "campaigner": "The solidity address of the campaigner or wallet address"
        }
      },
      "addCampaigner(address)": {
        "details": "Whitelist cmapigner to the user.",
        "params": {
          "newCampaigner": "Address of the user having campaigner role to be used here"
        }
      },
      "addFungibleCampaign(address,string,address,int64)": {
        "details": "Add a new campaign for fungible tokens",
        "params": {
          "campaignAddress": "The db address of the campaign [string]",
          "campaigner": "The solidity address of the campaigner or wallet address",
          "tokenAmount": "The amount of tokens to be allocated to the campaign",
          "tokenId": "The address of the token in solidity format"
        }
      },
      "addNFTCampaign(address,string,address,int64)": {
        "details": "Add a new campaign for NFT tokens",
        "params": {
          "campaignAddress": "The db address of the campaign [string]",
          "campaigner": "The solidity address of the campaigner or wallet address",
          "tokenAmount": "The amount of tokens to be allocated to the campaign",
          "tokenId": "The address of the token in solidity format"
        }
      },
      "associateToken(address,uint32,bool)": {
        "details": "Adds or removes a token from the whitelist.",
        "params": {
          "isWhitelisted": "Boolean flag to mark the token as whitelisted or not.",
          "tokenAddress": "The address of the token.",
          "tokenType": "The type of the token (1 for FUNGIBLE, 2 for NFT)."
        }
      },
      "closeCampaign(string,uint256)": {
        "details": "Close a campaign with HBAR",
        "params": {
          "campaignAddress": "The db address of the campaign",
          "campaignExpiryTime": "The expiry time of the campaign in seconds"
        }
      },
      "closeFungibleCampaign(string,uint256)": {
        "details": "Close a campaign with fungible tokens",
        "params": {
          "campaignAddress": "The db address of the campaign",
          "campaignExpiryTime": "The expiry time of the campaign in seconds"
        }
      },
      "closeNFTCampaign(string,uint256)": {
        "details": "Close a campaign with NFT tokens",
        "params": {
          "campaignAddress": "The db address of the campaign",
          "campaignExpiryTime": "The expiry time of the campaign in seconds"
        }
      },
      "expiryCampaign(string,address)": {
        "details": "Expiry a campaign with HBAR",
        "params": {
          "campaignAddress": "The db address of the campaign",
          "campaigner": "The solidity address of the campaigner or wallet address"
        }
      },
      "expiryFungibleCampaign(address,string,address,uint32)": {
        "details": "Expiry a campaign with fungible and NFT tokens",
        "params": {
          "campaignAddress": "The db address of the campaign",
          "campaigner": "The solidity address of the campaigner or wallet address",
          "tokenId": "The address of the token in solidity format",
          "tokenType": "The type of the token (FUNGIBLE or NFT) [uint32] (1 for FUNGIBLE & 2 for NFT)"
        }
      },
      "getAllWhitelistedTokens(uint32)": {
        "details": "Retrieves all whitelisted addresses for a given token type.",
        "params": {
          "tokenType": "The type of the token (1 for FUNGIBLE, 2 for NFT)."
        },
        "returns": {
          "_0": "An array of addresses that are whitelisted for the given token type."
        }
      },
      "getCampaignBalance(string)": {
        "details": "Balance holded by the user to see.",
        "params": {
          "campaignAddress": "Solidity address of the campaigner."
        }
      },
      "getFungibleTokenBalance(address,address,uint32)": {
        "params": {
          "campaigner": "Address of the campaigner'solidity address",
          "tokenId": "Solidity address used for the account",
          "tokenType": "The type of the token (FUNGIBLE or NFT) [uint32] (1 for FUNGIBLE & 2 for NFT)"
        }
      },
      "getNFTTokenBalance(address,address,uint32)": {
        "details": "Balance holded by the user to see.",
        "params": {
          "campaigner": "Solidity address of the campaigner.",
          "tokenId": "Solidity address of the token.",
          "tokenType": "The type of the token (FUNGIBLE or NFT) [uint32] (1 for FUNGIBLE & 2 for NFT)                  1 for FUNGIBLE and 2 for NFT."
        }
      },
      "isTokenWhitelisted(uint32,address)": {
        "details": "Checks if a specific token address is whitelisted for a given token type.",
        "params": {
          "tokenAddress": "The address of the token to check.",
          "tokenType": "The type of the token (1 for FUNGIBLE, 2 for NFT)."
        },
        "returns": {
          "_0": "Boolean flag indicating if the token is whitelisted."
        }
      },
      "rewardIntractors(address,string,uint256,address[],uint256[])": {
        "details": "Distribute HBAR tokens to the campaigner",
        "params": {
          "amounts": "The amounts to be distributed to each receiver",
          "campaignAddress": "The db address of the campaign",
          "campaigner": "The solidity address of the campaigner or wallet address",
          "receiversAddresses": "The addresses of the receivers take max 50 addresses in one call",
          "totalAmount": "The total amount of tokens to be distributed"
        }
      },
      "rewardIntractorsWithFungible(address,address,string,int64,uint32,address[],uint256[])": {
        "details": "Distribute fungible tokens to the campaigner",
        "params": {
          "amounts": "The amounts to be distributed to each receiver",
          "campaignAddress": "The db address of the campaign",
          "campaigner": "The solidity address of the campaigner or wallet address",
          "receiversAddresses": "The addresses of the receivers take max 50 addresses in one call",
          "tokenId": "The address of the token in solidity format",
          "tokenTotalAmount": "The total amount of tokens to be distributed",
          "tokenType": "The type of the token (FUNGIBLE or NFT)"
        }
      }
    },
    "title": "CampaignLifecycle",
    "version": 1
  },
  "userdoc": {
    "kind": "user",
    "methods": {},
    "version": 1
  }
}