{
  "contractName": "Lifecycle",
  "abi": [
    {
      "anonymous": false,
      "inputs": [
        {
          "indexed": false,
          "internalType": "address",
          "name": "campaigner",
          "type": "address"
        },
        {
          "indexed": false,
          "internalType": "uint256",
          "name": "updatedBalance",
          "type": "uint256"
        }
      ],
      "name": "BalanceUpdated",
      "type": "event"
    },
    {
      "anonymous": false,
      "inputs": [
        {
          "indexed": false,
          "internalType": "address",
          "name": "campaigner",
          "type": "address"
        }
      ],
      "name": "CampaignerAdded",
      "type": "event"
    },
    {
      "anonymous": false,
      "inputs": [
        {
          "indexed": false,
          "internalType": "address",
          "name": "campaigner",
          "type": "address"
        }
      ],
      "name": "CampaignerDeleted",
      "type": "event"
    },
    {
      "anonymous": false,
      "inputs": [
        {
          "indexed": false,
          "internalType": "address",
          "name": "tokenAddress",
          "type": "address"
        }
      ],
      "name": "CreatedToken",
      "type": "event"
    },
    {
      "anonymous": false,
      "inputs": [
        {
          "indexed": false,
          "internalType": "address",
          "name": "campaigner",
          "type": "address"
        },
        {
          "indexed": false,
          "internalType": "uint256",
          "name": "amount",
          "type": "uint256"
        }
      ],
      "name": "FundsDeposited",
      "type": "event"
    },
    {
      "anonymous": false,
      "inputs": [
        {
          "indexed": false,
          "internalType": "address",
          "name": "campaigner",
          "type": "address"
        },
        {
          "indexed": false,
          "internalType": "uint256",
          "name": "amount",
          "type": "uint256"
        }
      ],
      "name": "FundsWithdrawn",
      "type": "event"
    },
    {
      "anonymous": false,
      "inputs": [
        {
          "indexed": false,
          "internalType": "address",
          "name": "campaigner",
          "type": "address"
        },
        {
          "indexed": false,
          "internalType": "address",
          "name": "tokenId",
          "type": "address"
        },
        {
          "indexed": false,
          "internalType": "uint64",
          "name": "updatedBalance",
          "type": "uint64"
        }
      ],
      "name": "FungibleTokenBalanceUpdated",
      "type": "event"
    },
    {
      "anonymous": false,
      "inputs": [
        {
          "indexed": false,
          "internalType": "address",
          "name": "campaigner",
          "type": "address"
        },
        {
          "indexed": false,
          "internalType": "uint64",
          "name": "amount",
          "type": "uint64"
        }
      ],
      "name": "FungibleTokenDeposited",
      "type": "event"
    },
    {
      "anonymous": false,
      "inputs": [
        {
          "indexed": false,
          "internalType": "address",
          "name": "interactor",
          "type": "address"
        },
        {
          "indexed": false,
          "internalType": "address",
          "name": "campaigner",
          "type": "address"
        },
        {
          "indexed": false,
          "internalType": "uint256",
          "name": "amount",
          "type": "uint256"
        }
      ],
      "name": "InteractorPaid",
      "type": "event"
    },
    {
      "anonymous": false,
      "inputs": [
        {
          "indexed": false,
          "internalType": "string",
          "name": "campaignAddress",
          "type": "string"
        },
        {
          "indexed": false,
          "internalType": "uint256",
          "name": "amount",
          "type": "uint256"
        }
      ],
      "name": "InteractorPaidDeferred",
      "type": "event"
    },
    {
      "anonymous": false,
      "inputs": [
        {
          "indexed": false,
          "internalType": "string",
          "name": "campaignAdddress",
          "type": "string"
        },
        {
          "indexed": false,
          "internalType": "uint256",
          "name": "amount",
          "type": "uint256"
        },
        {
          "indexed": false,
          "internalType": "uint32",
          "name": "campaignType",
          "type": "uint32"
        }
      ],
      "name": "NewCampaignIsAdded",
      "type": "event"
    },
    {
      "anonymous": false,
      "inputs": [
        {
          "indexed": false,
          "internalType": "address",
          "name": "owner",
          "type": "address"
        }
      ],
      "name": "OwnerSet",
      "type": "event"
    },
    {
      "anonymous": false,
      "inputs": [
        {
          "indexed": false,
          "internalType": "int256",
          "name": "responseCode",
          "type": "int256"
        }
      ],
      "name": "ResponseCode",
      "type": "event"
    },
    {
      "anonymous": false,
      "inputs": [
        {
          "indexed": false,
          "internalType": "string",
          "name": "campaignAddress",
          "type": "string"
        },
        {
          "indexed": false,
          "internalType": "uint32",
          "name": "campaignType",
          "type": "uint32"
        }
      ],
      "name": "campaignClosed",
      "type": "event"
    },
    {
      "anonymous": false,
      "inputs": [
        {
          "indexed": false,
          "internalType": "string",
          "name": "campaignAddress",
          "type": "string"
        },
        {
          "indexed": false,
          "internalType": "uint32",
          "name": "campaignType",
          "type": "uint32"
        }
      ],
      "name": "campaignExpired",
      "type": "event"
    },
    {
      "inputs": [],
      "name": "FUNGIBLE",
      "outputs": [
        {
          "internalType": "uint32",
          "name": "",
          "type": "uint32"
        }
      ],
      "stateMutability": "view",
      "type": "function"
    },
    {
      "inputs": [],
      "name": "HBAR",
      "outputs": [
        {
          "internalType": "uint32",
          "name": "",
          "type": "uint32"
        }
      ],
      "stateMutability": "view",
      "type": "function"
    },
    {
      "inputs": [],
      "name": "NFT",
      "outputs": [
        {
          "internalType": "uint32",
          "name": "",
          "type": "uint32"
        }
      ],
      "stateMutability": "view",
      "type": "function"
    },
    {
      "inputs": [
        {
          "internalType": "address",
          "name": "newCampaigner",
          "type": "address"
        }
      ],
      "name": "addCampaigner",
      "outputs": [],
      "stateMutability": "nonpayable",
      "type": "function"
    },
    {
      "inputs": [
        {
          "internalType": "address",
          "name": "sender",
          "type": "address"
        },
        {
          "internalType": "address",
          "name": "tokenAddress",
          "type": "address"
        },
        {
          "internalType": "uint32",
          "name": "tokenType",
          "type": "uint32"
        }
      ],
      "name": "associateToken",
      "outputs": [],
      "stateMutability": "nonpayable",
      "type": "function"
    },
    {
      "inputs": [
        {
          "internalType": "address",
          "name": "",
          "type": "address"
        }
      ],
      "name": "balances",
      "outputs": [
        {
          "internalType": "uint256",
          "name": "",
          "type": "uint256"
        }
      ],
      "stateMutability": "view",
      "type": "function"
    },
    {
      "inputs": [
        {
          "internalType": "string",
          "name": "",
          "type": "string"
        }
      ],
      "name": "campaignBalances",
      "outputs": [
        {
          "internalType": "uint256",
          "name": "",
          "type": "uint256"
        }
      ],
      "stateMutability": "view",
      "type": "function"
    },
    {
      "inputs": [
        {
          "internalType": "string",
          "name": "",
          "type": "string"
        }
      ],
      "name": "campaignRandomNumber",
      "outputs": [
        {
          "internalType": "uint32",
          "name": "",
          "type": "uint32"
        }
      ],
      "stateMutability": "view",
      "type": "function"
    },
    {
      "inputs": [
        {
          "internalType": "string",
          "name": "campaignAddress",
          "type": "string"
        }
      ],
      "name": "getCampaignBalance",
      "outputs": [
        {
          "internalType": "uint256",
          "name": "",
          "type": "uint256"
        }
      ],
      "stateMutability": "view",
      "type": "function"
    },
    {
      "inputs": [
        {
          "internalType": "address",
          "name": "campaigner",
          "type": "address"
        },
        {
          "internalType": "address",
          "name": "tokenId",
          "type": "address"
        },
        {
          "internalType": "uint32",
          "name": "tokenType",
          "type": "uint32"
        }
      ],
      "name": "getFungibleTokenBalance",
      "outputs": [
        {
          "internalType": "uint64",
          "name": "res",
          "type": "uint64"
        }
      ],
      "stateMutability": "view",
      "type": "function"
    },
    {
      "inputs": [
        {
          "internalType": "address",
          "name": "campaigner",
          "type": "address"
        },
        {
          "internalType": "address",
          "name": "tokenId",
          "type": "address"
        },
        {
          "internalType": "uint32",
          "name": "tokenType",
          "type": "uint32"
        }
      ],
      "name": "getNFTTokenBalance",
      "outputs": [
        {
          "internalType": "uint64",
          "name": "res",
          "type": "uint64"
        }
      ],
      "stateMutability": "view",
      "type": "function"
    },
    {
      "inputs": [],
      "name": "id",
      "outputs": [
        {
          "internalType": "uint32",
          "name": "",
          "type": "uint32"
        }
      ],
      "stateMutability": "view",
      "type": "function"
    },
    {
      "inputs": [
        {
          "internalType": "address",
          "name": "",
          "type": "address"
        }
      ],
      "name": "nftCampaigner",
      "outputs": [
        {
          "internalType": "uint32",
          "name": "",
          "type": "uint32"
        }
      ],
      "stateMutability": "view",
      "type": "function"
    },
    {
      "inputs": [
        {
          "internalType": "address",
          "name": "",
          "type": "address"
        }
      ],
      "name": "rewardBalances",
      "outputs": [
        {
          "internalType": "uint256",
          "name": "",
          "type": "uint256"
        }
      ],
      "stateMutability": "view",
      "type": "function"
    },
    {
      "inputs": [
        {
          "internalType": "address",
          "name": "",
          "type": "address"
        },
        {
          "internalType": "address",
          "name": "",
          "type": "address"
        },
        {
          "internalType": "uint256",
          "name": "",
          "type": "uint256"
        }
      ],
      "name": "rewardTokenBalances",
      "outputs": [
        {
          "internalType": "uint64",
          "name": "",
          "type": "uint64"
        }
      ],
      "stateMutability": "view",
      "type": "function"
    },
    {
      "inputs": [
        {
          "internalType": "address",
          "name": "",
          "type": "address"
        },
        {
          "internalType": "address",
          "name": "",
          "type": "address"
        },
        {
          "internalType": "uint256",
          "name": "",
          "type": "uint256"
        }
      ],
      "name": "tokenBalances",
      "outputs": [
        {
          "internalType": "uint64",
          "name": "",
          "type": "uint64"
        }
      ],
      "stateMutability": "view",
      "type": "function"
    },
    {
      "inputs": [
        {
          "internalType": "string",
          "name": "",
          "type": "string"
        },
        {
          "internalType": "address",
          "name": "",
          "type": "address"
        },
        {
          "internalType": "uint256",
          "name": "",
          "type": "uint256"
        }
      ],
      "name": "tokenCampaignBalances",
      "outputs": [
        {
          "internalType": "uint64",
          "name": "",
          "type": "uint64"
        }
      ],
      "stateMutability": "view",
      "type": "function"
    },
    {
      "inputs": [
        {
          "internalType": "string",
          "name": "campaignAddress",
          "type": "string"
        },
        {
          "internalType": "address",
          "name": "campaigner",
          "type": "address"
        },
        {
          "internalType": "uint256",
          "name": "amount",
          "type": "uint256"
        }
      ],
      "name": "addCampaign",
      "outputs": [],
      "stateMutability": "nonpayable",
      "type": "function"
    },
    {
      "inputs": [
        {
          "internalType": "address",
          "name": "tokenId",
          "type": "address"
        },
        {
          "internalType": "string",
          "name": "campaignAddress",
          "type": "string"
        },
        {
          "internalType": "address",
          "name": "campaigner",
          "type": "address"
        },
        {
          "internalType": "int64",
          "name": "tokenAmount",
          "type": "int64"
        },
        {
          "internalType": "uint32",
          "name": "tokenType",
          "type": "uint32"
        }
      ],
      "name": "addFungibleAndNFTCampaign",
      "outputs": [],
      "stateMutability": "nonpayable",
      "type": "function"
    },
    {
      "inputs": [
        {
          "internalType": "string",
          "name": "campaignAddress",
          "type": "string"
        },
        {
          "internalType": "uint256",
          "name": "campaignExpiryTime",
          "type": "uint256"
        }
      ],
      "name": "closeCampaign",
      "outputs": [],
      "stateMutability": "nonpayable",
      "type": "function"
    },
    {
      "inputs": [
        {
          "internalType": "string",
          "name": "campaignAddress",
          "type": "string"
        },
        {
          "internalType": "uint256",
          "name": "campaignExpiryTime",
          "type": "uint256"
        },
        {
          "internalType": "uint32",
          "name": "tokenType",
          "type": "uint32"
        }
      ],
      "name": "closeFungibleAndNFTCampaign",
      "outputs": [],
      "stateMutability": "nonpayable",
      "type": "function"
    },
    {
      "inputs": [
        {
          "internalType": "address",
          "name": "tokenId",
          "type": "address"
        },
        {
          "internalType": "address",
          "name": "campaigner",
          "type": "address"
        },
        {
          "internalType": "string",
          "name": "campaignAddress",
          "type": "string"
        },
        {
          "internalType": "int64",
          "name": "tokenTotalAmount",
          "type": "int64"
        },
        {
          "internalType": "uint32",
          "name": "tokenType",
          "type": "uint32"
        },
        {
          "internalType": "address[]",
          "name": "receiversAddresses",
          "type": "address[]"
        },
        {
          "internalType": "uint256[]",
          "name": "amounts",
          "type": "uint256[]"
        }
      ],
      "name": "distributeFungible",
      "outputs": [],
      "stateMutability": "nonpayable",
      "type": "function"
    },
    {
      "inputs": [
        {
          "internalType": "address",
          "name": "campaigner",
          "type": "address"
        },
        {
          "internalType": "string",
          "name": "campaignAddress",
          "type": "string"
        },
        {
          "internalType": "uint256",
          "name": "totalAmount",
          "type": "uint256"
        },
        {
          "internalType": "address[]",
          "name": "receiversAddresses",
          "type": "address[]"
        },
        {
          "internalType": "uint256[]",
          "name": "amounts",
          "type": "uint256[]"
        }
      ],
      "name": "distributeBalance",
      "outputs": [],
      "stateMutability": "nonpayable",
      "type": "function"
    },
    {
      "inputs": [
        {
          "internalType": "address",
          "name": "tokenId",
          "type": "address"
        },
        {
          "internalType": "string",
          "name": "campaignAddress",
          "type": "string"
        },
        {
          "internalType": "address",
          "name": "campaigner",
          "type": "address"
        },
        {
          "internalType": "uint32",
          "name": "tokenType",
          "type": "uint32"
        }
      ],
      "name": "expiryFungibleCampaign",
      "outputs": [],
      "stateMutability": "nonpayable",
      "type": "function"
    },
    {
      "inputs": [
        {
          "internalType": "string",
          "name": "campaignAddress",
          "type": "string"
        },
        {
          "internalType": "address",
          "name": "campaigner",
          "type": "address"
        }
      ],
      "name": "expiryCampaign",
      "outputs": [],
      "stateMutability": "nonpayable",
      "type": "function"
    }
  ],
  "bytecode": "0x6080604052600c805463ffffffff1916600117905534801561002057600080fd5b5061273c806100306000396000f3fe608060405234801561001057600080fd5b50600436106101725760003560e01c8063715d8318116100de578063af640d0f11610097578063bff3199611610071578063bff31996146103ee578063cfe3f9a814610401578063d84c0e2714610432578063e9de133e1461044557600080fd5b8063af640d0f146103a5578063b4666130146103b5578063bc3ef1e9146103c857600080fd5b8063715d83181461033c578063774256c71461034f5780637c0b8de21461035757806387ac3ee71461035f57806393c8dc6d14610372578063a7c7b1821461039257600080fd5b80634377e3ff116101305780634377e3ff146102a85780634a3b1152146102c55780634f18230d146102d85780635158d25d1461030357806365f775631461031657806370f13b7c1461032957600080fd5b80625405211461017757806305346ac5146101de57806327e235e3146101f1578063307869dd1461021f5780633262af54146102595780633468160314610293575b600080fd5b6101c1610185366004611d78565b8251602081850181018051600782529282019582019590952091909452835260009182526040808320909352815220546001600160401b031681565b6040516001600160401b0390911681526020015b60405180910390f35b6101c16101ec366004611de2565b610458565b6102116101ff366004611e25565b60026020526000908152604090205481565b6040519081526020016101d5565b6101c161022d366004611e47565b60046020908152600093845260408085208252928452828420905282529020546001600160401b031681565b6101c1610267366004611e47565b60056020908152600093845260408085208252928452828420905282529020546001600160401b031681565b6102a66102a1366004611f75565b610523565b005b6102b0600181565b60405163ffffffff90911681526020016101d5565b6102116102d336600461203f565b610812565b6102116102e636600461203f565b805160208183018101805160068252928201919093012091525481565b6102a6610311366004611de2565b610873565b6102a661032436600461207b565b610977565b6102a66103373660046120c8565b610c3d565b6102a661034a366004611d78565b610f3f565b6102b0600081565b6102b0600281565b6102a661036d36600461216a565b61104c565b610211610380366004611e25565b60036020526000908152604090205481565b6102a66103a03660046121e9565b61141e565b600c546102b09063ffffffff1681565b6102a66103c3366004612236565b611603565b6102b06103d6366004611e25565b600a6020526000908152604090205463ffffffff1681565b6102a66103fc366004611e25565b61178a565b6102b061040f36600461203f565b8051602081830181018051600d8252928201919093012091525463ffffffff1681565b6101c1610440366004611de2565b611893565b6102a661045336600461227a565b6119e3565b600080546001600160a01b0316331480610476575061047633611c8e565b61049b5760405162461bcd60e51b8152600401610492906122e8565b60405180910390fd5b63ffffffff82166002146104e45760405162461bcd60e51b815260206004820152601060248201526f151bdad95b881a5cc81b9bdd0813919560821b6044820152606401610492565b50506001600160a01b0391821660009081526004602090815260408083209390941682529182528281206002825290915220546001600160401b031690565b6000546001600160a01b0316331461054d5760405162461bcd60e51b81526004016104929061234f565b6001600160a01b0387166105735760405162461bcd60e51b8152600401610492906123a4565b61057c86611c8e565b6105985760405162461bcd60e51b8152600401610492906123d3565b60008551116105b95760405162461bcd60e51b81526004016104929061240a565b60008460070b136105dc5760405162461bcd60e51b815260040161049290612441565b600b856040516105ec91906124ab565b908152604080516020928190038301902063ffffffff86166000908152925290205460ff1661062d5760405162461bcd60e51b8152600401610492906124c7565b8360078660405161063e91906124ab565b90815260408051602092819003830190206001600160a01b038b16600090815290835281812063ffffffff881682529092528120805490919061068b9084906001600160401b031661250d565b92506101000a8154816001600160401b0302191690836001600160401b0316021790555060005b82518110156108085760008382815181106106cf576106cf612534565b6020026020010151905060008383815181106106ed576106ed612534565b6020908102919091018101516001600160a01b038085166000908152600584526040808220928f16825291845281812063ffffffff8b1682529093528220549092506001600160401b03169003610781576001600160a01b038083166000908152600560209081526040808320938e16835292815282822063ffffffff8a168352905220805467ffffffffffffffff191690555b6001600160a01b038083166000908152600560209081526040808320938e16835292815282822063ffffffff8a168352905290812080548392906107cf9084906001600160401b031661254a565b92506101000a8154816001600160401b0302191690836001600160401b03160217905550505080806108009061256a565b9150506106b2565b5050505050505050565b600080546001600160a01b0316331480610830575061083033611c8e565b61084c5760405162461bcd60e51b8152600401610492906122e8565b60068260405161085c91906124ab565b90815260200160405180910390205490505b919050565b6000546001600160a01b0316331461089d5760405162461bcd60e51b81526004016104929061234f565b60001963ffffffff8216016108ed576001600160a01b038084166000908152600860209081526040808320938616835292815282822060018084529152919020805460ff19169091179055505050565b60011963ffffffff82160161093a576001600160a01b038084166000908152600860209081526040808320938616835292815282822060028352905220805460ff19166001179055505050565b60405162461bcd60e51b8152602060048201526012602482015271496e76616c696420746f6b656e207479706560701b6044820152606401610492565b6000546001600160a01b031633146109a15760405162461bcd60e51b81526004016104929061234f565b60008351116109c25760405162461bcd60e51b81526004016104929061240a565b60008211610a125760405162461bcd60e51b815260206004820152601c60248201527f496e76616c69642063616d706169676e206578706972792074696d65000000006044820152606401610492565b60001963ffffffff821601610b2e57600b83604051610a3191906124ab565b908152604080516020928190038301902060016000908152925290205460ff1615610a6e5760405162461bcd60e51b815260040161049290612583565b6001600b84604051610a8091906124ab565b90815260408051602092819003830190206001600090815292529020805460ff1916911515919091179055610ab582426125ba565b600984604051610ac591906124ab565b90815260200160405180910390206000600163ffffffff168152602001908152602001600020819055507ffda0e6502dae3d85195083e39efa0c8bdccc7d5741b53cf5c57de0c33dc9aaa4836001604051610b219291906125ff565b60405180910390a1505050565b60011963ffffffff82160161093a57600b83604051610b4d91906124ab565b908152604080516020928190038301902060026000908152925290205460ff1615610b8a5760405162461bcd60e51b815260040161049290612583565b6001600b84604051610b9c91906124ab565b90815260408051602092819003830190206002600090815292529020805460ff1916911515919091179055610bd182426125ba565b600984604051610be191906124ab565b90815260200160405180910390206000600263ffffffff168152602001908152602001600020819055507ffda0e6502dae3d85195083e39efa0c8bdccc7d5741b53cf5c57de0c33dc9aaa4836002604051610b219291906125ff565b6000546001600160a01b03163314610c675760405162461bcd60e51b81526004016104929061234f565b610c7085611c8e565b610c8c5760405162461bcd60e51b8152600401610492906123d3565b6000845111610cad5760405162461bcd60e51b81526004016104929061240a565b60008311610d0c5760405162461bcd60e51b815260206004820152602660248201527f546f74616c20616d6f756e74206d7573742062652067726561746572207468616044820152656e207a65726f60d01b6064820152608401610492565b600b84604051610d1c91906124ab565b90815260408051602092819003830190206000808052925290205460ff16610d565760405162461bcd60e51b8152600401610492906124c7565b8051825114610da75760405162461bcd60e51b815260206004820152601760248201527f4d69736d61746368656420696e707574206172726179730000000000000000006044820152606401610492565b82600685604051610db891906124ab565b9081526020016040518091039020541015610e305760405162461bcd60e51b815260206004820152603260248201527f496e73756666696369656e742063616d706169676e2062616c616e636520746f60448201527108191a5cdd1c9a589d5d1948185b5bdd5b9d60721b6064820152608401610492565b82600685604051610e4191906124ab565b90815260200160405180910390206000828254610e5e9190612627565b90915550600090505b8251811015610f37576000838281518110610e8457610e84612534565b602002602001015190506000838381518110610ea257610ea2612534565b6020026020010151905060036000836001600160a01b03166001600160a01b0316815260200190815260200160002054600003610ef3576001600160a01b0382166000908152600360205260408120555b6001600160a01b03821660009081526003602052604081208054839290610f1b9084906125ba565b9250508190555050508080610f2f9061256a565b915050610e67565b505050505050565b6000546001600160a01b03163314610f695760405162461bcd60e51b81526004016104929061234f565b610f7282611c8e565b610f8e5760405162461bcd60e51b8152600401610492906123d3565b6001600160a01b038216600090815260026020526040902054811115610fc65760405162461bcd60e51b81526004016104929061263a565b6001600160a01b03821660009081526002602052604081208054839290610fee908490612627565b925050819055508060068460405161100691906124ab565b9081526020016040518091039020819055507f0674090a69c67762650abcd64d1bc896d06756b85c925a9f28e97a30487db3ae83826000604051610b2193929190612668565b6000546001600160a01b031633146110765760405162461bcd60e51b81526004016104929061234f565b6001600160a01b03851661109c5760405162461bcd60e51b8152600401610492906123a4565b60008451116110bd5760405162461bcd60e51b81526004016104929061240a565b6110c683611c8e565b6110e25760405162461bcd60e51b8152600401610492906123d3565b60008260070b136111055760405162461bcd60e51b815260040161049290612441565b60001963ffffffff821601611313576001600160a01b0380841660009081526004602090815260408083209389168352928152828220600183529052205482906001600160401b03808316911610156111705760405162461bcd60e51b81526004016104929061263a565b60078560405161118091906124ab565b90815260408051602092819003830190206001600160a01b0389166000908152908352818120600182529092529020546001600160401b0316156112065760405162461bcd60e51b815260206004820152601b60248201527f43757272656e742062616c616e6365206973206e6f6e2d7a65726f00000000006044820152606401610492565b6001600160a01b038085166000908152600460209081526040808320938a168352928152828220600183529052908120805483929061124f9084906001600160401b031661250d565b92506101000a8154816001600160401b0302191690836001600160401b031602179055508060078660405161128491906124ab565b90815260408051602092819003830181206001600160a01b038b1660009081529084528281206001808352945291909120805467ffffffffffffffff19166001600160401b0394909416939093179092557f0674090a69c67762650abcd64d1bc896d06756b85c925a9f28e97a30487db3ae91611305918891859190612697565b60405180910390a150611417565b60011963ffffffff82160161093a576001600160a01b038084166000908152600460209081526040808320938916835292815282822060028352905220546001600160401b038084169116101561137c5760405162461bcd60e51b81526004016104929061263a565b8160078560405161138d91906124ab565b90815260408051602092819003830181206001600160a01b038a1660009081529084528281206002808352945291909120805467ffffffffffffffff19166001600160401b0394909416939093179092557f0674090a69c67762650abcd64d1bc896d06756b85c925a9f28e97a30487db3ae9161140e918791869190612697565b60405180910390a15b5050505050565b6000546001600160a01b031633146114485760405162461bcd60e51b81526004016104929061234f565b60008251116114695760405162461bcd60e51b81526004016104929061240a565b6001600160a01b03811661148f5760405162461bcd60e51b8152600401610492906126cf565b60098260405161149f91906124ab565b90815260408051602092819003830190206000808052925290205442116114fd5760405162461bcd60e51b815260206004820152601260248201527110d85b5c185a59db881b9bdd08195b99195960721b6044820152606401610492565b600b8260405161150d91906124ab565b90815260408051602092819003830190206000808052925290205460ff166115475760405162461bcd60e51b8152600401610492906124c7565b60068260405161155791906124ab565b90815260200160405180910390205460026000836001600160a01b03166001600160a01b03168152602001908152602001600020600082825461159a91906125ba565b9250508190555060006006836040516115b391906124ab565b9081526020016040518091039020819055507f2a4a396795b36662ffe9a398a57fd654cf6ea95e79cf6d96d6f0267685687c398260006040516115f79291906125ff565b60405180910390a15050565b6000546001600160a01b0316331461162d5760405162461bcd60e51b81526004016104929061234f565b600082511161164e5760405162461bcd60e51b81526004016104929061240a565b6000811161169e5760405162461bcd60e51b815260206004820152601c60248201527f496e76616c69642063616d706169676e206578706972792074696d65000000006044820152606401610492565b600b826040516116ae91906124ab565b90815260408051602092819003830190206000808052925290205460ff16156116e95760405162461bcd60e51b815260040161049290612583565b6001600b836040516116fb91906124ab565b9081526040805160209281900383019020600080805292529020805460ff191691151591909117905561172e81426125ba565b60098360405161173e91906124ab565b908152604080516020928190038301812060008080529352908220929092557ffda0e6502dae3d85195083e39efa0c8bdccc7d5741b53cf5c57de0c33dc9aaa4916115f79185916125ff565b6000546001600160a01b031633146117b45760405162461bcd60e51b81526004016104929061234f565b6001600160a01b0381166117da5760405162461bcd60e51b8152600401610492906126cf565b6117e381611c8e565b61182f5760405162461bcd60e51b815260206004820152601960248201527f43616d706169676e657220616c726561647920657869737473000000000000006044820152606401610492565b6001600160a01b0381166000818152600160208181526040808420805460ff19169093179092556002815281832092909255519182527f3d04fb94919fdfa7708320cdebdf093992d88d792b3d5f4144c364cda00129c6910160405180910390a150565b600080546001600160a01b03163314806118b157506118b133611c8e565b6118cd5760405162461bcd60e51b8152600401610492906122e8565b63ffffffff821660011461191b5760405162461bcd60e51b8152602060048201526015602482015274546f6b656e206973206e6f742066756e6769626c6560581b6044820152606401610492565b6001600160a01b0380851660009081526008602090815260408083209387168352928152828220600183529052205460ff166119a45760405162461bcd60e51b815260206004820152602260248201527f52657175657374656420746f6b656e206973206e6f742077686974656c697374604482015261195960f21b6064820152608401610492565b50506001600160a01b0391821660009081526004602090815260408083209390941682529182528281206001825290915220546001600160401b031690565b6000546001600160a01b03163314611a0d5760405162461bcd60e51b81526004016104929061234f565b6001600160a01b038416611a335760405162461bcd60e51b8152600401610492906123a4565b6000835111611a545760405162461bcd60e51b81526004016104929061240a565b6001600160a01b038216611a7a5760405162461bcd60e51b8152600401610492906126cf565b600b83604051611a8a91906124ab565b908152604080516020928190038301902063ffffffff84166000908152925290205460ff16611acb5760405162461bcd60e51b8152600401610492906124c7565b600983604051611adb91906124ab565b908152602001604051809103902060008263ffffffff168152602001908152602001600020544211611b445760405162461bcd60e51b815260206004820152601260248201527110d85b5c185a59db881b9bdd08195b99195960721b6044820152606401610492565b600783604051611b5491906124ab565b90815260408051602092819003830190206001600160a01b03878116600081815292855283832063ffffffff87168085529086528484205492881684526004865284842091845290855283832090835290935290812080546001600160401b0393841693919291611bc79185911661254a565b92506101000a8154816001600160401b0302191690836001600160401b031602179055506000600784604051611bfd91906124ab565b90815260408051602092819003830181206001600160a01b038916600090815290845282812063ffffffff871682529093529120805467ffffffffffffffff19166001600160401b0393909316929092179091557f2a4a396795b36662ffe9a398a57fd654cf6ea95e79cf6d96d6f0267685687c3990611c8090859084906125ff565b60405180910390a150505050565b6001600160a01b031660009081526001602052604090205460ff1690565b634e487b7160e01b600052604160045260246000fd5b604051601f8201601f191681016001600160401b0381118282101715611cea57611cea611cac565b604052919050565b600082601f830112611d0357600080fd5b81356001600160401b03811115611d1c57611d1c611cac565b611d2f601f8201601f1916602001611cc2565b818152846020838601011115611d4457600080fd5b816020850160208301376000918101602001919091529392505050565b80356001600160a01b038116811461086e57600080fd5b600080600060608486031215611d8d57600080fd5b83356001600160401b03811115611da357600080fd5b611daf86828701611cf2565b935050611dbe60208501611d61565b9150604084013590509250925092565b803563ffffffff8116811461086e57600080fd5b600080600060608486031215611df757600080fd5b611e0084611d61565b9250611e0e60208501611d61565b9150611e1c60408501611dce565b90509250925092565b600060208284031215611e3757600080fd5b611e4082611d61565b9392505050565b600080600060608486031215611e5c57600080fd5b611e6584611d61565b9250611dbe60208501611d61565b8035600781900b811461086e57600080fd5b60006001600160401b03821115611e9e57611e9e611cac565b5060051b60200190565b600082601f830112611eb957600080fd5b81356020611ece611ec983611e85565b611cc2565b82815260059290921b84018101918181019086841115611eed57600080fd5b8286015b84811015611f0f57611f0281611d61565b8352918301918301611ef1565b509695505050505050565b600082601f830112611f2b57600080fd5b81356020611f3b611ec983611e85565b82815260059290921b84018101918181019086841115611f5a57600080fd5b8286015b84811015611f0f5780358352918301918301611f5e565b600080600080600080600060e0888a031215611f9057600080fd5b611f9988611d61565b9650611fa760208901611d61565b955060408801356001600160401b0380821115611fc357600080fd5b611fcf8b838c01611cf2565b9650611fdd60608b01611e73565b9550611feb60808b01611dce565b945060a08a013591508082111561200157600080fd5b61200d8b838c01611ea8565b935060c08a013591508082111561202357600080fd5b506120308a828b01611f1a565b91505092959891949750929550565b60006020828403121561205157600080fd5b81356001600160401b0381111561206757600080fd5b61207384828501611cf2565b949350505050565b60008060006060848603121561209057600080fd5b83356001600160401b038111156120a657600080fd5b6120b286828701611cf2565b93505060208401359150611e1c60408501611dce565b600080600080600060a086880312156120e057600080fd5b6120e986611d61565b945060208601356001600160401b038082111561210557600080fd5b61211189838a01611cf2565b955060408801359450606088013591508082111561212e57600080fd5b61213a89838a01611ea8565b9350608088013591508082111561215057600080fd5b5061215d88828901611f1a565b9150509295509295909350565b600080600080600060a0868803121561218257600080fd5b61218b86611d61565b945060208601356001600160401b038111156121a657600080fd5b6121b288828901611cf2565b9450506121c160408701611d61565b92506121cf60608701611e73565b91506121dd60808701611dce565b90509295509295909350565b600080604083850312156121fc57600080fd5b82356001600160401b0381111561221257600080fd5b61221e85828601611cf2565b92505061222d60208401611d61565b90509250929050565b6000806040838503121561224957600080fd5b82356001600160401b0381111561225f57600080fd5b61226b85828601611cf2565b95602094909401359450505050565b6000806000806080858703121561229057600080fd5b61229985611d61565b935060208501356001600160401b038111156122b457600080fd5b6122c087828801611cf2565b9350506122cf60408601611d61565b91506122dd60608601611dce565b905092959194509250565b60208082526041908201527f556e617574686f72697a6520416363657373207265717565737465642c20436160408201527f6c6c6572206d757374206265206f776e6572206f722063616d706169676e65726060820152601760f91b608082015260a00190565b60208082526035908201527f556e617574686f72697a6520416363657373207265717565737465642c204361604082015274363632b91034b9903737ba103a34329037bbb732b960591b606082015260800190565b602080825260159082015274496e76616c696420746f6b656e206164647265737360581b604082015260600190565b60208082526017908201527f43616d706169676e20616c726561647920657869737473000000000000000000604082015260600190565b60208082526018908201527f496e76616c69642063616d706169676e20616464726573730000000000000000604082015260600190565b60208082526026908201527f546f6b656e20616d6f756e74206d7573742062652067726561746572207468616040820152656e207a65726f60d01b606082015260800190565b60005b838110156124a257818101518382015260200161248a565b50506000910152565b600082516124bd818460208701612487565b9190910192915050565b60208082526016908201527510d85b5c185a59db881a5cc81b9bdd0818db1bdcd95960521b604082015260600190565b634e487b7160e01b600052601160045260246000fd5b6001600160401b0382811682821603908082111561252d5761252d6124f7565b5092915050565b634e487b7160e01b600052603260045260246000fd5b6001600160401b0381811683821601908082111561252d5761252d6124f7565b60006001820161257c5761257c6124f7565b5060010190565b60208082526017908201527f43616d706169676e20616c726561647920636c6f736564000000000000000000604082015260600190565b808201808211156125cd576125cd6124f7565b92915050565b600081518084526125eb816020860160208601612487565b601f01601f19169290920160200192915050565b60408152600061261260408301856125d3565b905063ffffffff831660208301529392505050565b818103818111156125cd576125cd6124f7565b602080825260149082015273496e73756666696369656e742062616c616e636560601b604082015260600190565b60608152600061267b60608301866125d3565b905083602083015263ffffffff83166040830152949350505050565b6060815260006126aa60608301866125d3565b90506001600160401b038416602083015263ffffffff83166040830152949350505050565b6020808252601a908201527f496e76616c69642063616d706169676e6572206164647265737300000000000060408201526060019056fea2646970667358221220fbbeb19d2e3ba321effea874630c18f5a307baef383bbd5699a7323ef9d1193d64736f6c63430008110033",
  "immutableReferences": {},
  "source": "// SPDX-License-Identifier: Apache-2.0\r\npragma solidity ^0.8.17;\r\n\r\nimport \"./HashbuzzStates.sol\";\r\nimport \"./Utils.sol\";\r\n\r\n/**\r\n * @title CampaignLifecycle\r\n * @dev This contract manages the campaign's lifecycle calls and state changes.\r\n */\r\ncontract Lifecycle is HashbuzzStates, Utils {\r\n    /**\r\n     * @dev Add a new campaign\r\n     * @param campaignAddress The db address of the campaign\r\n     * @param campaigner The solidity address of the campaigner or wallet address\r\n     * @param amount The amount to be allocated to the campaign from the campaigner's balance.\r\n     */\r\n    function addCampaign(\r\n        string memory campaignAddress,\r\n        address campaigner,\r\n        uint256 amount\r\n    ) public onlyOwner {\r\n        require(isCampaigner(campaigner), \"Campaign already exists\");\r\n        require(balances[campaigner] >= amount, \"Insufficient balance\");\r\n\r\n        balances[campaigner] -= amount;\r\n        campaignBalances[campaignAddress] = amount;\r\n        emit NewCampaignIsAdded(campaignAddress, amount, HBAR);\r\n    }\r\n\r\n    /**\r\n     * @dev Add a new campaign for fungible and NFT tokens\r\n     * @param tokenId The address of the token in solidity format\r\n     * @param campaignAddress The db address of the campaign [string]\r\n     * @param campaigner The solidity address of the campaigner or wallet address\r\n     * @param tokenAmount The amount of tokens to be allocated to the campaign\r\n     * @param tokenType The type of the token (FUNGIBLE or NFT) [uint32] (1 for FUNGIBLE & 2 for NFT)\r\n     */\r\n\r\n    function addFungibleAndNFTCampaign(\r\n        address tokenId,\r\n        string memory campaignAddress,\r\n        address campaigner,\r\n        int64 tokenAmount,\r\n        uint32 tokenType\r\n    ) public onlyOwner {\r\n        require(tokenId != address(0), \"Invalid token address\");\r\n        require(bytes(campaignAddress).length > 0, \"Invalid campaign address\");\r\n        require(isCampaigner(campaigner), \"Campaign already exists\");\r\n        require(tokenAmount > 0, \"Token amount must be greater than zero\");\r\n\r\n        if (tokenType == FUNGIBLE) {\r\n            uint64 amount = uint64(tokenAmount);\r\n            require(\r\n                tokenBalances[campaigner][tokenId][FUNGIBLE] >= amount,\r\n                \"Insufficient balance\"\r\n            );\r\n            require(\r\n                tokenCampaignBalances[campaignAddress][tokenId][FUNGIBLE] == 0,\r\n                \"Current balance is non-zero\"\r\n            );\r\n\r\n            tokenBalances[campaigner][tokenId][FUNGIBLE] -= amount;\r\n            tokenCampaignBalances[campaignAddress][tokenId][FUNGIBLE] = amount;\r\n\r\n            emit NewCampaignIsAdded(campaignAddress, amount, FUNGIBLE);\r\n        } else if (tokenType == NFT) {\r\n            require(\r\n                tokenBalances[campaigner][tokenId][NFT] >= uint64(tokenAmount),\r\n                \"Insufficient balance\"\r\n            );\r\n            tokenCampaignBalances[campaignAddress][tokenId][NFT] = uint64(\r\n                tokenAmount\r\n            );\r\n            emit NewCampaignIsAdded(campaignAddress, uint64(tokenAmount), NFT);\r\n        } else {\r\n            revert(\"Invalid token type\");\r\n        }\r\n    }\r\n\r\n    /**\r\n     * @dev Close a campaign with HBAR\r\n     * @param campaignAddress The db address of the campaign\r\n     * @param campaignExpiryTime The expiry time of the campaign in seconds\r\n     */\r\n    function closeCampaign(\r\n        string memory campaignAddress,\r\n        uint256 campaignExpiryTime\r\n    ) public onlyOwner {\r\n        require(bytes(campaignAddress).length > 0, \"Invalid campaign address\");\r\n        require(campaignExpiryTime > 0, \"Invalid campaign expiry time\");\r\n        require(\r\n            !isCampaignClosed[campaignAddress][HBAR],\r\n            \"Campaign already closed\"\r\n        );\r\n\r\n        isCampaignClosed[campaignAddress][HBAR] = true;\r\n        campaignEndTime[campaignAddress][HBAR] =\r\n            block.timestamp +\r\n            campaignExpiryTime;\r\n        emit campaignClosed(campaignAddress, HBAR);\r\n    }\r\n\r\n    /**\r\n     * @dev Close a campaign with fungible and NFT tokens\r\n     * @param campaignAddress The db address of the campaign\r\n     * @param campaignExpiryTime The expiry time of the campaign in seconds\r\n     * @param tokenType The type of the token (FUNGIBLE = 1 OR  NFT = 2)\r\n     */\r\n    function closeFungibleAndNFTCampaign(\r\n        string memory campaignAddress,\r\n        uint256 campaignExpiryTime,\r\n        uint32 tokenType\r\n    ) public onlyOwner {\r\n        require(bytes(campaignAddress).length > 0, \"Invalid campaign address\");\r\n        require(campaignExpiryTime > 0, \"Invalid campaign expiry time\");\r\n\r\n        if (tokenType == FUNGIBLE) {\r\n            require(\r\n                !isCampaignClosed[campaignAddress][FUNGIBLE],\r\n                \"Campaign already closed\"\r\n            );\r\n            isCampaignClosed[campaignAddress][FUNGIBLE] = true;\r\n            campaignEndTime[campaignAddress][FUNGIBLE] =\r\n                block.timestamp +\r\n                campaignExpiryTime;\r\n            emit campaignClosed(campaignAddress, FUNGIBLE);\r\n        } else if (tokenType == NFT) {\r\n            require(\r\n                !isCampaignClosed[campaignAddress][NFT],\r\n                \"Campaign already closed\"\r\n            );\r\n            isCampaignClosed[campaignAddress][NFT] = true;\r\n            campaignEndTime[campaignAddress][NFT] =\r\n                block.timestamp +\r\n                campaignExpiryTime;\r\n            emit campaignClosed(campaignAddress, NFT);\r\n        } else {\r\n            revert(\"Invalid token type\");\r\n        }\r\n    }\r\n\r\n    /**\r\n     * @dev Distribute HBAR tokens to the campaigner\r\n     * @param tokenId The address of the token in solidity format\r\n     * @param campaigner The solidity address of the campaigner or wallet address\r\n     * @param campaignAddress The db address of the campaign\r\n     * @param tokenTotalAmount The total amount of tokens to be distributed\r\n     * @param tokenType The type of the token (FUNGIBLE or NFT)\r\n     * @param receiversAddresses The addresses of the receivers take max 50 addresses in one call\r\n     * @param amounts The amounts to be distributed to each receiver\r\n     */\r\n    function distributeFungible(\r\n        address tokenId,\r\n        address campaigner,\r\n        string memory campaignAddress,\r\n        int64 tokenTotalAmount,\r\n        uint32 tokenType,\r\n        address[] memory receiversAddresses,\r\n        uint256[] memory amounts\r\n    ) external onlyOwner {\r\n        require(tokenId != address(0), \"Invalid token address\");\r\n        require(isCampaigner(campaigner), \"Campaign already exists\");\r\n        require(bytes(campaignAddress).length > 0, \"Invalid campaign address\");\r\n        require(tokenTotalAmount > 0, \"Token amount must be greater than zero\");\r\n        require(\r\n            isCampaignClosed[campaignAddress][tokenType],\r\n            \"Campaign is not closed\"\r\n        );\r\n\r\n        tokenCampaignBalances[campaignAddress][tokenId][tokenType] -= uint64(\r\n            tokenTotalAmount\r\n        );\r\n        for (uint i = 0; i < receiversAddresses.length; i++) {\r\n            address recipient = receiversAddresses[i];\r\n            uint256 amount = amounts[i];\r\n            if (rewardTokenBalances[recipient][tokenId][tokenType] == 0) {\r\n                rewardTokenBalances[recipient][tokenId][tokenType] = 0;\r\n            }\r\n\r\n            rewardTokenBalances[recipient][tokenId][tokenType] += uint64(\r\n                amount\r\n            );\r\n        }\r\n    }\r\n\r\n    /**\r\n     * @dev Distribute HBAR tokens to the campaigner\r\n     * @param campaigner The solidity address of the campaigner or wallet address\r\n     * @param campaignAddress The db address of the campaign\r\n     * @param totalAmount The total amount of tokens to be distributed\r\n     * @param receiversAddresses The addresses of the receivers take max 50 addresses in one call\r\n     * @param amounts The amounts to be distributed to each receiver\r\n     */\r\n    function distributeBalance(\r\n        address campaigner,\r\n        string memory campaignAddress,\r\n        uint256 totalAmount,\r\n        address[] memory receiversAddresses,\r\n        uint256[] memory amounts\r\n    ) external onlyOwner {\r\n        require(isCampaigner(campaigner), \"Campaign already exists\");\r\n        require(bytes(campaignAddress).length > 0, \"Invalid campaign address\");\r\n        require(totalAmount > 0, \"Total amount must be greater than zero\");\r\n        require(\r\n            isCampaignClosed[campaignAddress][HBAR],\r\n            \"Campaign is not closed\"\r\n        );\r\n        require(\r\n            receiversAddresses.length == amounts.length,\r\n            \"Mismatched input arrays\"\r\n        );\r\n\r\n        // Ensure the campaign has enough balance to distribute\r\n        require(\r\n            campaignBalances[campaignAddress] >= totalAmount,\r\n            \"Insufficient campaign balance to distribute amount\"\r\n        );\r\n\r\n        // Deduct the distributed amount from the campaign's balance\r\n        campaignBalances[campaignAddress] -= totalAmount;\r\n\r\n        for (uint i = 0; i < receiversAddresses.length; i++) {\r\n            address recipient = receiversAddresses[i];\r\n            uint256 amount = amounts[i];\r\n            if (rewardBalances[recipient] == 0) {\r\n                rewardBalances[recipient] = 0;\r\n            }\r\n\r\n            rewardBalances[recipient] += amount;\r\n        }\r\n    }\r\n\r\n    /**\r\n     * @dev Expiry a campaign with fungible and NFT tokens\r\n     * @param campaignAddress The db address of the campaign\r\n     * @param tokenId The address of the token in solidity format\r\n     * @param campaigner The solidity address of the campaigner or wallet address\r\n     * @param tokenType The type of the token (FUNGIBLE or NFT) [uint32] (1 for FUNGIBLE & 2 for NFT)\r\n     */\r\n    function expiryFungibleCampaign(\r\n        address tokenId,\r\n        string memory campaignAddress,\r\n        address campaigner,\r\n        uint32 tokenType\r\n    ) public onlyOwner {\r\n        require(tokenId != address(0), \"Invalid token address\");\r\n        require(bytes(campaignAddress).length > 0, \"Invalid campaign address\");\r\n        require(campaigner != address(0), \"Invalid campaigner address\");\r\n        require(\r\n            isCampaignClosed[campaignAddress][tokenType],\r\n            \"Campaign is not closed\"\r\n        );\r\n        require(\r\n            block.timestamp > campaignEndTime[campaignAddress][tokenType],\r\n            \"Campaign not ended\"\r\n        );\r\n\r\n        tokenBalances[campaigner][tokenId][tokenType] += tokenCampaignBalances[\r\n            campaignAddress\r\n        ][tokenId][tokenType];\r\n        tokenCampaignBalances[campaignAddress][tokenId][tokenType] = 0;\r\n        emit campaignExpired(campaignAddress, tokenType);\r\n    }\r\n\r\n    /**\r\n     * @dev Expiry a campaign with HBAR\r\n     * @param campaignAddress The db address of the campaign\r\n     * @param campaigner The solidity address of the campaigner or wallet address\r\n     */\r\n    function expiryCampaign(\r\n        string memory campaignAddress,\r\n        address campaigner\r\n    ) public onlyOwner {\r\n        require(bytes(campaignAddress).length > 0, \"Invalid campaign address\");\r\n        require(campaigner != address(0), \"Invalid campaigner address\");\r\n        require(\r\n            block.timestamp > campaignEndTime[campaignAddress][HBAR],\r\n            \"Campaign not ended\"\r\n        );\r\n        require(\r\n            isCampaignClosed[campaignAddress][HBAR],\r\n            \"Campaign is not closed\"\r\n        );\r\n\r\n        balances[campaigner] += campaignBalances[campaignAddress];\r\n        campaignBalances[campaignAddress] = 0;\r\n        emit campaignExpired(campaignAddress, HBAR);\r\n    }\r\n}\r\n",
  "sourcePath": "D:\\rajatk\\hashbuzz-staging\\smv201\\contracts\\HashbuzzModules\\CampaignLifecycle.sol",
  "compiler": {
    "name": "solc",
    "version": "0.8.17+commit.8df45f5f.Emscripten.clang"
  },
  "schemaVersion": "3.4.16",
  "updatedAt": "2024-10-27T11:04:29.861Z",
  "devdoc": {
    "details": "This contract manages the campaign's lifecycle calls and state changes.",
    "kind": "dev",
    "methods": {
      "addCampaign(string,address,uint256)": {
        "details": "Add a new campaign",
        "params": {
          "amount": "The amount to be allocated to the campaign from the campaigner's balance.",
          "campaignAddress": "The db address of the campaign",
          "campaigner": "The solidity address of the campaigner or wallet address"
        }
      },
      "addCampaigner(address)": {
        "details": "Whitelist cmapigner to the user.",
        "params": {
          "newCampaigner": "Address of the user having campaigner role to be used here"
        }
      },
      "addFungibleAndNFTCampaign(address,string,address,int64,uint32)": {
        "details": "Add a new campaign for fungible and NFT tokens",
        "params": {
          "campaignAddress": "The db address of the campaign [string]",
          "campaigner": "The solidity address of the campaigner or wallet address",
          "tokenAmount": "The amount of tokens to be allocated to the campaign",
          "tokenId": "The address of the token in solidity format",
          "tokenType": "The type of the token (FUNGIBLE or NFT) [uint32] (1 for FUNGIBLE & 2 for NFT)"
        }
      },
      "associateToken(address,address,uint32)": {
        "params": {
          "sender": "Oly owner will be sender of this function.",
          "tokenAddress": "Solidty address of the campaigner.",
          "tokenType": "The type of the token (FUNGIBLE or NFT) [uint32] (1 for FUNGIBLE & 2 for NFT)"
        }
      },
      "closeCampaign(string,uint256)": {
        "details": "Close a campaign with HBAR",
        "params": {
          "campaignAddress": "The db address of the campaign",
          "campaignExpiryTime": "The expiry time of the campaign in seconds"
        }
      },
      "closeFungibleAndNFTCampaign(string,uint256,uint32)": {
        "details": "Close a campaign with fungible and NFT tokens",
        "params": {
          "campaignAddress": "The db address of the campaign",
          "campaignExpiryTime": "The expiry time of the campaign in seconds",
          "tokenType": "The type of the token (FUNGIBLE = 1 OR  NFT = 2)"
        }
      },
      "distributeBalance(address,string,uint256,address[],uint256[])": {
        "details": "Distribute HBAR tokens to the campaigner",
        "params": {
          "amounts": "The amounts to be distributed to each receiver",
          "campaignAddress": "The db address of the campaign",
          "campaigner": "The solidity address of the campaigner or wallet address",
          "receiversAddresses": "The addresses of the receivers take max 50 addresses in one call",
          "totalAmount": "The total amount of tokens to be distributed"
        }
      },
      "distributeFungible(address,address,string,int64,uint32,address[],uint256[])": {
        "details": "Distribute HBAR tokens to the campaigner",
        "params": {
          "amounts": "The amounts to be distributed to each receiver",
          "campaignAddress": "The db address of the campaign",
          "campaigner": "The solidity address of the campaigner or wallet address",
          "receiversAddresses": "The addresses of the receivers take max 50 addresses in one call",
          "tokenId": "The address of the token in solidity format",
          "tokenTotalAmount": "The total amount of tokens to be distributed",
          "tokenType": "The type of the token (FUNGIBLE or NFT)"
        }
      },
      "expiryCampaign(string,address)": {
        "details": "Expiry a campaign with HBAR",
        "params": {
          "campaignAddress": "The db address of the campaign",
          "campaigner": "The solidity address of the campaigner or wallet address"
        }
      },
      "expiryFungibleCampaign(address,string,address,uint32)": {
        "details": "Expiry a campaign with fungible and NFT tokens",
        "params": {
          "campaignAddress": "The db address of the campaign",
          "campaigner": "The solidity address of the campaigner or wallet address",
          "tokenId": "The address of the token in solidity format",
          "tokenType": "The type of the token (FUNGIBLE or NFT) [uint32] (1 for FUNGIBLE & 2 for NFT)"
        }
      },
      "getCampaignBalance(string)": {
        "details": "Balance holded by the user to see.",
        "params": {
          "campaignAddress": "Solidity address of the campaigner."
        }
      },
      "getFungibleTokenBalance(address,address,uint32)": {
        "params": {
          "campaigner": "Address of the campaigner'solidity address",
          "tokenId": "Solidity address used for the account",
          "tokenType": "The type of the token (FUNGIBLE or NFT) [uint32] (1 for FUNGIBLE & 2 for NFT)"
        }
      },
      "getNFTTokenBalance(address,address,uint32)": {
        "details": "Balance holded by the user to see.",
        "params": {
          "campaigner": "Solidity address of the campaigner.",
          "tokenId": "Solidity address of the token.",
          "tokenType": "The type of the token (FUNGIBLE or NFT) [uint32] (1 for FUNGIBLE & 2 for NFT)                  1 for FUNGIBLE and 2 for NFT."
        }
      }
    },
    "title": "CampaignLifecycle",
    "version": 1
  },
  "userdoc": {
    "kind": "user",
    "methods": {},
    "version": 1
  }
}