{
  "contractName": "Lifecycle",
  "abi": [
    {
      "anonymous": false,
      "inputs": [
        {
          "indexed": false,
          "internalType": "address",
          "name": "campaigner",
          "type": "address"
        },
        {
          "indexed": false,
          "internalType": "uint256",
          "name": "updatedBalance",
          "type": "uint256"
        }
      ],
      "name": "BalanceUpdated",
      "type": "event"
    },
    {
      "anonymous": false,
      "inputs": [
        {
          "indexed": false,
          "internalType": "string",
          "name": "campaignAddress",
          "type": "string"
        },
        {
          "indexed": false,
          "internalType": "uint256",
          "name": "amount",
          "type": "uint256"
        },
        {
          "indexed": false,
          "internalType": "uint32",
          "name": "tokenType",
          "type": "uint32"
        }
      ],
      "name": "CampaignToppedUp",
      "type": "event"
    },
    {
      "anonymous": false,
      "inputs": [
        {
          "indexed": false,
          "internalType": "address",
          "name": "campaigner",
          "type": "address"
        }
      ],
      "name": "CampaignerAdded",
      "type": "event"
    },
    {
      "anonymous": false,
      "inputs": [
        {
          "indexed": false,
          "internalType": "address",
          "name": "campaigner",
          "type": "address"
        }
      ],
      "name": "CampaignerDeleted",
      "type": "event"
    },
    {
      "anonymous": false,
      "inputs": [
        {
          "indexed": false,
          "internalType": "address",
          "name": "tokenAddress",
          "type": "address"
        }
      ],
      "name": "CreatedToken",
      "type": "event"
    },
    {
      "anonymous": false,
      "inputs": [
        {
          "indexed": false,
          "internalType": "address",
          "name": "campaigner",
          "type": "address"
        },
        {
          "indexed": false,
          "internalType": "uint256",
          "name": "amount",
          "type": "uint256"
        }
      ],
      "name": "FundsDeposited",
      "type": "event"
    },
    {
      "anonymous": false,
      "inputs": [
        {
          "indexed": false,
          "internalType": "address",
          "name": "campaigner",
          "type": "address"
        },
        {
          "indexed": false,
          "internalType": "uint256",
          "name": "amount",
          "type": "uint256"
        }
      ],
      "name": "FundsWithdrawn",
      "type": "event"
    },
    {
      "anonymous": false,
      "inputs": [
        {
          "indexed": false,
          "internalType": "address",
          "name": "campaigner",
          "type": "address"
        },
        {
          "indexed": false,
          "internalType": "address",
          "name": "tokenId",
          "type": "address"
        },
        {
          "indexed": false,
          "internalType": "uint64",
          "name": "updatedBalance",
          "type": "uint64"
        }
      ],
      "name": "FungibleTokenBalanceUpdated",
      "type": "event"
    },
    {
      "anonymous": false,
      "inputs": [
        {
          "indexed": false,
          "internalType": "address",
          "name": "campaigner",
          "type": "address"
        },
        {
          "indexed": false,
          "internalType": "uint64",
          "name": "amount",
          "type": "uint64"
        }
      ],
      "name": "FungibleTokenDeposited",
      "type": "event"
    },
    {
      "anonymous": false,
      "inputs": [
        {
          "indexed": false,
          "internalType": "address",
          "name": "interactor",
          "type": "address"
        },
        {
          "indexed": false,
          "internalType": "address",
          "name": "campaigner",
          "type": "address"
        },
        {
          "indexed": false,
          "internalType": "uint256",
          "name": "amount",
          "type": "uint256"
        }
      ],
      "name": "InteractorPaid",
      "type": "event"
    },
    {
      "anonymous": false,
      "inputs": [
        {
          "indexed": false,
          "internalType": "string",
          "name": "campaignAddress",
          "type": "string"
        },
        {
          "indexed": false,
          "internalType": "uint256",
          "name": "amount",
          "type": "uint256"
        }
      ],
      "name": "InteractorPaidDeferred",
      "type": "event"
    },
    {
      "anonymous": false,
      "inputs": [
        {
          "indexed": false,
          "internalType": "string",
          "name": "campaignAdddress",
          "type": "string"
        },
        {
          "indexed": false,
          "internalType": "uint256",
          "name": "amount",
          "type": "uint256"
        },
        {
          "indexed": false,
          "internalType": "uint32",
          "name": "campaignType",
          "type": "uint32"
        }
      ],
      "name": "NewCampaignIsAdded",
      "type": "event"
    },
    {
      "anonymous": false,
      "inputs": [
        {
          "indexed": false,
          "internalType": "address",
          "name": "owner",
          "type": "address"
        }
      ],
      "name": "OwnerSet",
      "type": "event"
    },
    {
      "anonymous": false,
      "inputs": [
        {
          "indexed": false,
          "internalType": "int256",
          "name": "responseCode",
          "type": "int256"
        }
      ],
      "name": "ResponseCode",
      "type": "event"
    },
    {
      "anonymous": false,
      "inputs": [
        {
          "indexed": false,
          "internalType": "string",
          "name": "campaignAddress",
          "type": "string"
        },
        {
          "indexed": false,
          "internalType": "uint256",
          "name": "totalAmount",
          "type": "uint256"
        },
        {
          "indexed": false,
          "internalType": "uint256",
          "name": "remainingBalance",
          "type": "uint256"
        }
      ],
      "name": "RewardsDistributed",
      "type": "event"
    },
    {
      "anonymous": false,
      "inputs": [
        {
          "indexed": false,
          "internalType": "string",
          "name": "campaignAddress",
          "type": "string"
        },
        {
          "indexed": false,
          "internalType": "uint32",
          "name": "campaignType",
          "type": "uint32"
        }
      ],
      "name": "campaignClosed",
      "type": "event"
    },
    {
      "anonymous": false,
      "inputs": [
        {
          "indexed": false,
          "internalType": "string",
          "name": "campaignAddress",
          "type": "string"
        },
        {
          "indexed": false,
          "internalType": "uint32",
          "name": "campaignType",
          "type": "uint32"
        }
      ],
      "name": "campaignExpired",
      "type": "event"
    },
    {
      "inputs": [],
      "name": "FUNGIBLE",
      "outputs": [
        {
          "internalType": "uint32",
          "name": "",
          "type": "uint32"
        }
      ],
      "stateMutability": "view",
      "type": "function"
    },
    {
      "inputs": [],
      "name": "HBAR",
      "outputs": [
        {
          "internalType": "uint32",
          "name": "",
          "type": "uint32"
        }
      ],
      "stateMutability": "view",
      "type": "function"
    },
    {
      "inputs": [],
      "name": "NFT",
      "outputs": [
        {
          "internalType": "uint32",
          "name": "",
          "type": "uint32"
        }
      ],
      "stateMutability": "view",
      "type": "function"
    },
    {
      "inputs": [
        {
          "internalType": "address",
          "name": "newCampaigner",
          "type": "address"
        }
      ],
      "name": "addCampaigner",
      "outputs": [],
      "stateMutability": "nonpayable",
      "type": "function"
    },
    {
      "inputs": [
        {
          "internalType": "address",
          "name": "tokenAddress",
          "type": "address"
        },
        {
          "internalType": "bool",
          "name": "isWhitelisted",
          "type": "bool"
        }
      ],
      "name": "associateToken",
      "outputs": [],
      "stateMutability": "nonpayable",
      "type": "function"
    },
    {
      "inputs": [
        {
          "internalType": "address",
          "name": "",
          "type": "address"
        }
      ],
      "name": "balances",
      "outputs": [
        {
          "internalType": "uint256",
          "name": "",
          "type": "uint256"
        }
      ],
      "stateMutability": "view",
      "type": "function"
    },
    {
      "inputs": [
        {
          "internalType": "string",
          "name": "",
          "type": "string"
        }
      ],
      "name": "campaignBalances",
      "outputs": [
        {
          "internalType": "uint256",
          "name": "",
          "type": "uint256"
        }
      ],
      "stateMutability": "view",
      "type": "function"
    },
    {
      "inputs": [
        {
          "internalType": "string",
          "name": "",
          "type": "string"
        }
      ],
      "name": "campaignRandomNumber",
      "outputs": [
        {
          "internalType": "uint32",
          "name": "",
          "type": "uint32"
        }
      ],
      "stateMutability": "view",
      "type": "function"
    },
    {
      "inputs": [],
      "name": "getAllWhitelistedTokens",
      "outputs": [
        {
          "internalType": "address[]",
          "name": "",
          "type": "address[]"
        }
      ],
      "stateMutability": "view",
      "type": "function"
    },
    {
      "inputs": [
        {
          "internalType": "string",
          "name": "campaignAddress",
          "type": "string"
        }
      ],
      "name": "getCampaignBalance",
      "outputs": [
        {
          "internalType": "uint256",
          "name": "",
          "type": "uint256"
        }
      ],
      "stateMutability": "view",
      "type": "function"
    },
    {
      "inputs": [
        {
          "internalType": "address",
          "name": "campaigner",
          "type": "address"
        },
        {
          "internalType": "address",
          "name": "tokenId",
          "type": "address"
        }
      ],
      "name": "getFungibleTokenBalance",
      "outputs": [
        {
          "internalType": "uint64",
          "name": "res",
          "type": "uint64"
        }
      ],
      "stateMutability": "view",
      "type": "function"
    },
    {
      "inputs": [
        {
          "internalType": "address",
          "name": "campaigner",
          "type": "address"
        }
      ],
      "name": "getHbarBalance",
      "outputs": [
        {
          "internalType": "uint256",
          "name": "res",
          "type": "uint256"
        }
      ],
      "stateMutability": "view",
      "type": "function"
    },
    {
      "inputs": [
        {
          "internalType": "address",
          "name": "tokenAddress",
          "type": "address"
        }
      ],
      "name": "isTokenWhitelisted",
      "outputs": [
        {
          "internalType": "bool",
          "name": "",
          "type": "bool"
        }
      ],
      "stateMutability": "view",
      "type": "function"
    },
    {
      "inputs": [
        {
          "internalType": "address",
          "name": "",
          "type": "address"
        }
      ],
      "name": "nftCampaigner",
      "outputs": [
        {
          "internalType": "uint32",
          "name": "",
          "type": "uint32"
        }
      ],
      "stateMutability": "view",
      "type": "function"
    },
    {
      "inputs": [
        {
          "internalType": "address",
          "name": "",
          "type": "address"
        },
        {
          "internalType": "address",
          "name": "",
          "type": "address"
        },
        {
          "internalType": "uint256",
          "name": "",
          "type": "uint256"
        }
      ],
      "name": "tokenBalances",
      "outputs": [
        {
          "internalType": "uint64",
          "name": "",
          "type": "uint64"
        }
      ],
      "stateMutability": "view",
      "type": "function"
    },
    {
      "inputs": [
        {
          "internalType": "string",
          "name": "",
          "type": "string"
        },
        {
          "internalType": "address",
          "name": "",
          "type": "address"
        },
        {
          "internalType": "uint256",
          "name": "",
          "type": "uint256"
        }
      ],
      "name": "tokenCampaignBalances",
      "outputs": [
        {
          "internalType": "uint64",
          "name": "",
          "type": "uint64"
        }
      ],
      "stateMutability": "view",
      "type": "function"
    },
    {
      "inputs": [
        {
          "internalType": "uint32",
          "name": "",
          "type": "uint32"
        },
        {
          "internalType": "address",
          "name": "",
          "type": "address"
        }
      ],
      "name": "whitelistedToken",
      "outputs": [
        {
          "internalType": "bool",
          "name": "",
          "type": "bool"
        }
      ],
      "stateMutability": "view",
      "type": "function"
    },
    {
      "inputs": [
        {
          "internalType": "string",
          "name": "campaignAddress",
          "type": "string"
        },
        {
          "internalType": "address",
          "name": "campaigner",
          "type": "address"
        },
        {
          "internalType": "uint256",
          "name": "amount",
          "type": "uint256"
        }
      ],
      "name": "addCampaignOrTopUp",
      "outputs": [
        {
          "internalType": "uint256",
          "name": "",
          "type": "uint256"
        }
      ],
      "stateMutability": "nonpayable",
      "type": "function"
    },
    {
      "inputs": [
        {
          "internalType": "address",
          "name": "tokenId",
          "type": "address"
        },
        {
          "internalType": "string",
          "name": "campaignAddress",
          "type": "string"
        },
        {
          "internalType": "address",
          "name": "campaigner",
          "type": "address"
        },
        {
          "internalType": "uint64",
          "name": "tokenAmount",
          "type": "uint64"
        }
      ],
      "name": "addFungibleCampaign",
      "outputs": [
        {
          "internalType": "uint64",
          "name": "",
          "type": "uint64"
        }
      ],
      "stateMutability": "nonpayable",
      "type": "function"
    },
    {
      "inputs": [
        {
          "internalType": "string",
          "name": "campaignAddress",
          "type": "string"
        },
        {
          "internalType": "uint256",
          "name": "campaignExpiryTime",
          "type": "uint256"
        }
      ],
      "name": "closeCampaign",
      "outputs": [],
      "stateMutability": "nonpayable",
      "type": "function"
    },
    {
      "inputs": [
        {
          "internalType": "string",
          "name": "campaignAddress",
          "type": "string"
        },
        {
          "internalType": "uint256",
          "name": "campaignExpiryTime",
          "type": "uint256"
        }
      ],
      "name": "closeFungibleCampaign",
      "outputs": [],
      "stateMutability": "nonpayable",
      "type": "function"
    },
    {
      "inputs": [
        {
          "internalType": "address",
          "name": "campaigner",
          "type": "address"
        },
        {
          "internalType": "string",
          "name": "campaignAddress",
          "type": "string"
        },
        {
          "internalType": "uint256",
          "name": "totalAmount",
          "type": "uint256"
        }
      ],
      "name": "adjustTotalReward",
      "outputs": [
        {
          "internalType": "uint256",
          "name": "",
          "type": "uint256"
        }
      ],
      "stateMutability": "nonpayable",
      "type": "function"
    },
    {
      "inputs": [
        {
          "internalType": "address",
          "name": "tokenId",
          "type": "address"
        },
        {
          "internalType": "address",
          "name": "campaigner",
          "type": "address"
        },
        {
          "internalType": "string",
          "name": "campaignAddress",
          "type": "string"
        },
        {
          "internalType": "uint64",
          "name": "tokenTotalAmount",
          "type": "uint64"
        }
      ],
      "name": "adjustTotalFungibleReward",
      "outputs": [
        {
          "internalType": "uint256",
          "name": "",
          "type": "uint256"
        }
      ],
      "stateMutability": "nonpayable",
      "type": "function"
    },
    {
      "inputs": [
        {
          "internalType": "address",
          "name": "tokenId",
          "type": "address"
        },
        {
          "internalType": "string",
          "name": "campaignAddress",
          "type": "string"
        },
        {
          "internalType": "address",
          "name": "campaigner",
          "type": "address"
        }
      ],
      "name": "expiryFungibleCampaign",
      "outputs": [
        {
          "internalType": "uint64",
          "name": "",
          "type": "uint64"
        }
      ],
      "stateMutability": "nonpayable",
      "type": "function"
    },
    {
      "inputs": [
        {
          "internalType": "string",
          "name": "campaignAddress",
          "type": "string"
        },
        {
          "internalType": "address",
          "name": "campaigner",
          "type": "address"
        }
      ],
      "name": "expiryCampaign",
      "outputs": [
        {
          "internalType": "uint256",
          "name": "",
          "type": "uint256"
        }
      ],
      "stateMutability": "nonpayable",
      "type": "function"
    }
  ],
  "bytecode": "0x608060405234801561001057600080fd5b50612652806100206000396000f3fe608060405234801561001057600080fd5b50600436106101725760003560e01c80637b7fc677116100de578063b466613011610097578063bc3ef1e911610071578063bc3ef1e9146103d7578063bc462700146103fd578063bff3199614610410578063cfe3f9a81461042357600080fd5b8063b46661301461039e578063b5af090f146103b1578063b9942524146103c457600080fd5b80637b7fc677146103355780637c0b8de2146103485780639991033c146103505780639a00f42a146103655780639de3d8ba14610378578063a7c7b1821461038b57600080fd5b8063362e34b911610130578063362e34b9146102815780634377e3ff146102bf5780634a3b1152146102dc5780634f18230d146102ef5780635025ae841461031a578063774256c71461032d57600080fd5b806254052114610177578063160f9c88146101de57806316d343e0146101f15780631b0f32a31461021257806327e235e314610227578063307869dd14610247575b600080fd5b6101c1610185366004611f15565b8251602081850181018051600782529282019582019590952091909452835260009182526040808320909352815220546001600160401b031681565b6040516001600160401b0390911681526020015b60405180910390f35b6101c16101ec366004611f6b565b610454565b6102046101ff366004611f9e565b61051a565b6040519081526020016101d5565b610225610220366004611fc0565b610570565b005b610204610235366004611f9e565b60026020526000908152604090205481565b6101c1610255366004611ffc565b60056020908152600093845260408085208252928452828420905282529020546001600160401b031681565b6102af61028f366004612028565b600360209081526000928352604080842090915290825290205460ff1681565b60405190151581526020016101d5565b6102c7600181565b60405163ffffffff90911681526020016101d5565b6102046102ea36600461204f565b610841565b6102046102fd36600461204f565b805160208183018101805160068252928201919093012091525481565b61020461032836600461209a565b6108a2565b6102c7600081565b610204610343366004612108565b610b5b565b6102c7600281565b610358610db4565b6040516101d5919061215e565b6101c16103733660046121ab565b610e2c565b6101c161038636600461220e565b61122a565b61020461039936600461226b565b61153d565b6102256103ac3660046122af565b61178f565b6102af6103bf366004611f9e565b611947565b6102046103d2366004611f15565b611972565b6102c76103e5366004611f9e565b60096020526000908152604090205463ffffffff1681565b61022561040b3660046122af565b611b67565b61022561041e366004611f9e565b611d27565b6102c761043136600461204f565b8051602081830181018051600b8252928201919093012091525463ffffffff1681565b600080546001600160a01b0316331480610472575061047233611e3e565b6104975760405162461bcd60e51b815260040161048e906122f3565b60405180910390fd5b6104a082611947565b604051806040016040528060048152602001634530303560e01b815250906104db5760405162461bcd60e51b815260040161048e91906123aa565b50506001600160a01b0391821660009081526005602090815260408083209390941682529182528281206001825290915220546001600160401b031690565b600080546001600160a01b0316331480610538575061053833611e3e565b6105545760405162461bcd60e51b815260040161048e906122f3565b506001600160a01b031660009081526002602052604090205490565b6000546001600160a01b0316331461059a5760405162461bcd60e51b815260040161048e906123bd565b8080156105cd57506001600160a01b03821660009081526000805160206125fd833981519152602052604090205460ff16155b1561065a57506001600160a01b031660008181526000805160206125fd833981519152602090815260408220805460ff1916600190811790915560049091526000805160206125dd833981519152805491820181559091527f210afe6ebef982fa193bb4e17f9f236cdf09af7788627b5d54d9e3e4b100021b0180546001600160a01b0319169091179055565b8015801561068d57506001600160a01b03821660009081526000805160206125fd833981519152602052604090205460ff165b1561083d576001600160a01b03821660009081526000805160206125fd833981519152602090815260408220805460ff1916905560018252600490526000805160206125dd83398151915254905b8181101561083a57600160005260046020526000805160206125dd83398151915280546001600160a01b03861691908390811061071a5761071a612412565b6000918252602090912001546001600160a01b031603610828576001600081905260046020526000805160206125dd8339815191529061075a908461243e565b8154811061076a5761076a612412565b60009182526020808320909101546001909252600490526000805160206125dd83398151915280546001600160a01b0390921691839081106107ae576107ae612412565b600091825260208083209190910180546001600160a01b0319166001600160a01b03949094169390931790925560019052600490526000805160206125dd83398151915280548061080157610801612451565b600082815260209020810160001990810180546001600160a01b031916905501905561083a565b8061083281612467565b9150506106db565b50505b5050565b600080546001600160a01b031633148061085f575061085f33611e3e565b61087b5760405162461bcd60e51b815260040161048e906122f3565b60068260405161088b9190612480565b90815260200160405180910390205490505b919050565b600080546001600160a01b031633146108cd5760405162461bcd60e51b815260040161048e906123bd565b6108d685611947565b604051806040016040528060048152602001634530303560e01b815250906109115760405162461bcd60e51b815260040161048e91906123aa565b5061091b84611e3e565b604051806040016040528060048152602001634530303360e01b815250906109565760405162461bcd60e51b815260040161048e91906123aa565b506000835111604051806040016040528060048152602001632298181960e11b815250906109975760405162461bcd60e51b815260040161048e91906123aa565b506040805180820190915260048152634530313160e01b60208201526001600160401b0383166109da5760405162461bcd60e51b815260040161048e91906123aa565b50600a836040516109eb9190612480565b90815260408051918290036020908101832060016000908152908252829020548383019092526004835263114c0c0d60e21b9083015260ff16610a415760405162461bcd60e51b815260040161048e91906123aa565b5081600784604051610a539190612480565b90815260408051602092819003830190206001600160a01b03891660009081529083528181206001825290925281208054909190610a9b9084906001600160401b031661249c565b92506101000a8154816001600160401b0302191690836001600160401b031602179055506000600784604051610ad19190612480565b9081526040805191829003602090810183206001600160a01b038a1660009081529082528281206001825290915220546001600160401b0390811692507f037378c439105dd07d1db6d59a47347ea8f734a0835509a3820255c8be11cea091610b419187919087169085906124c3565b60405180910390a16001600160401b031695945050505050565b600080546001600160a01b03163314610b865760405162461bcd60e51b815260040161048e906123bd565b610b8f84611e3e565b604051806040016040528060048152602001634530303360e01b81525090610bca5760405162461bcd60e51b815260040161048e91906123aa565b506000835111604051806040016040528060048152602001632298181960e11b81525090610c0b5760405162461bcd60e51b815260040161048e91906123aa565b506040805180820190915260048152634530313160e01b602082015282610c455760405162461bcd60e51b815260040161048e91906123aa565b50600a83604051610c569190612480565b9081526040805191829003602090810183206000808052908252829020548383019092526004835263114c0c0d60e21b9083015260ff16610caa5760405162461bcd60e51b815260040161048e91906123aa565b5081600684604051610cbc9190612480565b9081526020016040518091039020541015610d195760405162461bcd60e51b815260206004820152601d60248201527f496e73756666696369656e742063616d706169676e2062616c616e6365000000604482015260640161048e565b81600684604051610d2a9190612480565b90815260200160405180910390206000828254610d47919061243e565b925050819055506000600684604051610d609190612480565b90815260200160405180910390205490507f037378c439105dd07d1db6d59a47347ea8f734a0835509a3820255c8be11cea0848483604051610da4939291906124f5565b60405180910390a1949350505050565b6001600052600460209081526000805160206125dd8339815191528054604080518285028101850190915281815260609390929190830182828015610e2257602002820191906000526020600020905b81546001600160a01b03168152600190910190602001808311610e04575b5050505050905090565b600080546001600160a01b03163314610e575760405162461bcd60e51b815260040161048e906123bd565b610e6085611947565b604051806040016040528060048152602001634530303560e01b81525090610e9b5760405162461bcd60e51b815260040161048e91906123aa565b506000845111604051806040016040528060048152602001632298181960e11b81525090610edc5760405162461bcd60e51b815260040161048e91906123aa565b50610ee683611e3e565b604051806040016040528060048152602001634530303360e01b81525090610f215760405162461bcd60e51b815260040161048e91906123aa565b506040805180820190915260048152634530313160e01b60208201526001600160401b038316610f645760405162461bcd60e51b815260040161048e91906123aa565b506001600160a01b038084166000908152600560209081526040808320938916835292815282822060018352815290829020548251808401909352600483526308a6060760e31b918301919091528391906001600160401b0380841691161015610fe15760405162461bcd60e51b815260040161048e91906123aa565b506001600160a01b038085166000908152600560209081526040808320938a168352928152828220600183529052908120805483929061102b9084906001600160401b031661249c565b92506101000a8154816001600160401b0302191690836001600160401b03160217905550806007866040516110609190612480565b90815260408051602092819003830190206001600160a01b038a16600090815290835281812060018252909252812080549091906110a89084906001600160401b031661251a565b82546101009290920a6001600160401b038181021990931691831602179091556001600160a01b038681166000908152600560209081526040808320938c168352928152828220600183529052819020549051908216925090831690600790611112908990612480565b90815260408051602092819003830190206001600160a01b038b166000908152908352818120600182529092529020546001600160401b031603611191577f0674090a69c67762650abcd64d1bc896d06756b85c925a9f28e97a30487db3ae868360016040516111849392919061253a565b60405180910390a16111ce565b7f64ef3840fadd155a2d8cb45b5f007ed1273c96ca6026ee12008d0809aa77eef7868360016040516111c59392919061253a565b60405180910390a15b604080516001600160a01b038781168252891660208201526001600160401b0383168183015290517f2fa1a54f364a5a61a29da95bf0632455b2fb41ab6434ad448e6432058203bffc9181900360600190a19695505050505050565b600080546001600160a01b031633146112555760405162461bcd60e51b815260040161048e906123bd565b6040805180820190915260048152634530303160e01b60208201526001600160a01b0385166112975760405162461bcd60e51b815260040161048e91906123aa565b506000835111604051806040016040528060048152602001632298181960e11b815250906112d85760405162461bcd60e51b815260040161048e91906123aa565b506112e282611e3e565b604051806040016040528060048152602001634530303360e01b8152509061131d5760405162461bcd60e51b815260040161048e91906123aa565b50600a8360405161132e9190612480565b90815260408051918290036020908101832060016000908152908252829020548383019092526004835263114c0c0d60e21b9083015260ff166113845760405162461bcd60e51b815260040161048e91906123aa565b506008836040516113959190612480565b90815260408051918290036020908101832060016000908152908252829020548383019092526004835263114c0c0d60e21b9083015242116113ea5760405162461bcd60e51b815260040161048e91906123aa565b506007836040516113fb9190612480565b90815260408051602092819003830190206001600160a01b03878116600081815292855283832060018085529086528484205492881684526005865284842091845290855283832090835290935290812080546001600160401b03938416939192916114699185911661251a565b92506101000a8154816001600160401b0302191690836001600160401b03160217905550600060078460405161149f9190612480565b90815260408051602092819003830181206001600160a01b0389811660008181529286528483206001808552908752858420805467ffffffffffffffff19166001600160401b03998a1617905591891683526005865284832090835285528382208183529094529190912054909216917f2a4a396795b36662ffe9a398a57fd654cf6ea95e79cf6d96d6f0267685687c3991610da491879190612572565b600080546001600160a01b031633146115685760405162461bcd60e51b815260040161048e906123bd565b6000835111604051806040016040528060048152602001632298181960e11b815250906115a85760405162461bcd60e51b815260040161048e91906123aa565b506115b282611e3e565b604051806040016040528060048152602001634530303360e01b815250906115ed5760405162461bcd60e51b815260040161048e91906123aa565b506008836040516115fe9190612480565b9081526040805191829003602090810183206000808052908252829020548383019092526004835263114c0c0d60e21b9083015242116116515760405162461bcd60e51b815260040161048e91906123aa565b50600a836040516116629190612480565b9081526040805191829003602090810183206000808052908252829020548383019092526004835263114c0c0d60e21b9083015260ff166116b65760405162461bcd60e51b815260040161048e91906123aa565b506006836040516116c79190612480565b90815260200160405180910390205460026000846001600160a01b03166001600160a01b03168152602001908152602001600020600082825461170a919061259a565b9250508190555060006006846040516117239190612480565b908152604080519182900360209081018320939093556001600160a01b03851660009081526002909352822054917f2a4a396795b36662ffe9a398a57fd654cf6ea95e79cf6d96d6f0267685687c399161177e918791612572565b60405180910390a190505b92915050565b6000546001600160a01b031633146117b95760405162461bcd60e51b815260040161048e906123bd565b6000825111604051806040016040528060048152602001632298181960e11b815250906117f95760405162461bcd60e51b815260040161048e91906123aa565b506040805180820190915260048152630453031360e41b6020820152816118335760405162461bcd60e51b815260040161048e91906123aa565b50600a826040516118449190612480565b9081526040805191829003602090810183206000808052908252829020548383019092526004835263114c0c4d60e21b9083015260ff16156118995760405162461bcd60e51b815260040161048e91906123aa565b506001600a836040516118ac9190612480565b9081526040805160209281900383019020600080805292529020805460ff19169115159190911790556118df814261259a565b6008836040516118ef9190612480565b908152604080516020928190038301812060008080529352908220929092557ffda0e6502dae3d85195083e39efa0c8bdccc7d5741b53cf5c57de0c33dc9aaa49161193b918591612572565b60405180910390a15050565b6001600160a01b031660009081526000805160206125fd833981519152602052604090205460ff1690565b600080546001600160a01b0316331461199d5760405162461bcd60e51b815260040161048e906123bd565b6119a683611e3e565b604051806040016040528060048152602001634530303360e01b815250906119e15760405162461bcd60e51b815260040161048e91906123aa565b508160026000856001600160a01b03166001600160a01b031681526020019081526020016000205410156040518060400160405280600481526020016308a6060760e31b81525090611a465760405162461bcd60e51b815260040161048e91906123aa565b506001600160a01b03831660009081526002602052604081208054849290611a6f90849061243e565b9250508190555081600685604051611a879190612480565b90815260200160405180910390206000828254611aa4919061259a565b90915550506001600160a01b038316600090815260026020526040908190205490518390600690611ad6908890612480565b90815260200160405180910390205403611b2b577f0674090a69c67762650abcd64d1bc896d06756b85c925a9f28e97a30487db3ae85846000604051611b1e939291906125ad565b60405180910390a1611b5f565b7f64ef3840fadd155a2d8cb45b5f007ed1273c96ca6026ee12008d0809aa77eef785846000604051610da4939291906125ad565b949350505050565b6000546001600160a01b03163314611b915760405162461bcd60e51b815260040161048e906123bd565b6000825111604051806040016040528060048152602001632298181960e11b81525090611bd15760405162461bcd60e51b815260040161048e91906123aa565b506040805180820190915260048152630453031360e41b602082015281611c0b5760405162461bcd60e51b815260040161048e91906123aa565b50600a82604051611c1c9190612480565b90815260408051918290036020908101832060016000908152908252829020548383019092526004835263114c0c4d60e21b9083015260ff1615611c735760405162461bcd60e51b815260040161048e91906123aa565b506001600a83604051611c869190612480565b90815260408051602092819003830190206001600090815292529020805460ff1916911515919091179055611cbb814261259a565b600883604051611ccb9190612480565b90815260200160405180910390206000600163ffffffff168152602001908152602001600020819055507ffda0e6502dae3d85195083e39efa0c8bdccc7d5741b53cf5c57de0c33dc9aaa482600160405161193b929190612572565b6000546001600160a01b03163314611d515760405162461bcd60e51b815260040161048e906123bd565b6040805180820190915260048152632298181960e11b60208201526001600160a01b038216611d935760405162461bcd60e51b815260040161048e91906123aa565b50611d9d81611e3e565b15604051806040016040528060048152602001632298181b60e11b81525090611dd95760405162461bcd60e51b815260040161048e91906123aa565b506001600160a01b0381166000818152600160208181526040808420805460ff19169093179092556002815281832092909255519182527f3d04fb94919fdfa7708320cdebdf093992d88d792b3d5f4144c364cda00129c6910160405180910390a150565b6001600160a01b031660009081526001602052604090205460ff1690565b634e487b7160e01b600052604160045260246000fd5b600082601f830112611e8357600080fd5b81356001600160401b0380821115611e9d57611e9d611e5c565b604051601f8301601f19908116603f01168101908282118183101715611ec557611ec5611e5c565b81604052838152866020858801011115611ede57600080fd5b836020870160208301376000602085830101528094505050505092915050565b80356001600160a01b038116811461089d57600080fd5b600080600060608486031215611f2a57600080fd5b83356001600160401b03811115611f4057600080fd5b611f4c86828701611e72565b935050611f5b60208501611efe565b9150604084013590509250925092565b60008060408385031215611f7e57600080fd5b611f8783611efe565b9150611f9560208401611efe565b90509250929050565b600060208284031215611fb057600080fd5b611fb982611efe565b9392505050565b60008060408385031215611fd357600080fd5b611fdc83611efe565b915060208301358015158114611ff157600080fd5b809150509250929050565b60008060006060848603121561201157600080fd5b61201a84611efe565b9250611f5b60208501611efe565b6000806040838503121561203b57600080fd5b823563ffffffff81168114611f8757600080fd5b60006020828403121561206157600080fd5b81356001600160401b0381111561207757600080fd5b611b5f84828501611e72565b80356001600160401b038116811461089d57600080fd5b600080600080608085870312156120b057600080fd5b6120b985611efe565b93506120c760208601611efe565b925060408501356001600160401b038111156120e257600080fd5b6120ee87828801611e72565b9250506120fd60608601612083565b905092959194509250565b60008060006060848603121561211d57600080fd5b61212684611efe565b925060208401356001600160401b0381111561214157600080fd5b61214d86828701611e72565b925050604084013590509250925092565b6020808252825182820181905260009190848201906040850190845b8181101561219f5783516001600160a01b03168352928401929184019160010161217a565b50909695505050505050565b600080600080608085870312156121c157600080fd5b6121ca85611efe565b935060208501356001600160401b038111156121e557600080fd5b6121f187828801611e72565b93505061220060408601611efe565b91506120fd60608601612083565b60008060006060848603121561222357600080fd5b61222c84611efe565b925060208401356001600160401b0381111561224757600080fd5b61225386828701611e72565b92505061226260408501611efe565b90509250925092565b6000806040838503121561227e57600080fd5b82356001600160401b0381111561229457600080fd5b6122a085828601611e72565b925050611f9560208401611efe565b600080604083850312156122c257600080fd5b82356001600160401b038111156122d857600080fd5b6122e485828601611e72565b95602094909401359450505050565b60208082526041908201527f556e617574686f72697a6520416363657373207265717565737465642c20436160408201527f6c6c6572206d757374206265206f776e6572206f722063616d706169676e65726060820152601760f91b608082015260a00190565b60005b8381101561237557818101518382015260200161235d565b50506000910152565b6000815180845261239681602086016020860161235a565b601f01601f19169290920160200192915050565b602081526000611fb9602083018461237e565b60208082526035908201527f556e617574686f72697a6520416363657373207265717565737465642c204361604082015274363632b91034b9903737ba103a34329037bbb732b960591b606082015260800190565b634e487b7160e01b600052603260045260246000fd5b634e487b7160e01b600052601160045260246000fd5b8181038181111561178957611789612428565b634e487b7160e01b600052603160045260246000fd5b60006001820161247957612479612428565b5060010190565b6000825161249281846020870161235a565b9190910192915050565b6001600160401b038281168282160390808211156124bc576124bc612428565b5092915050565b6060815260006124d6606083018661237e565b90508360208301526001600160401b0383166040830152949350505050565b606081526000612508606083018661237e565b60208301949094525060400152919050565b6001600160401b038181168382160190808211156124bc576124bc612428565b60608152600061254d606083018661237e565b90506001600160401b038416602083015263ffffffff83166040830152949350505050565b604081526000612585604083018561237e565b905063ffffffff831660208301529392505050565b8082018082111561178957611789612428565b6060815260006125c0606083018661237e565b905083602083015263ffffffff8316604083015294935050505056feabd6e7cb50984ff9c2f3e18a2660c3353dadf4e3291deeb275dae2cd1e44fe05a15bc60c955c405d20d9149c709e2460f1c2d9a497496a7f46004d1772c3054ca26469706673582212206e09a9d1542a03cb0e10f4e6f0f2af38caeb0f15c6ba0e13c157413c5fb3dcdc64736f6c63430008110033",
  "immutableReferences": {},
  "source": "// SPDX-License-Identifier: Apache-2.0\r\npragma solidity ^0.8.17;\r\n\r\nimport \"./HashbuzzStates.sol\";\r\nimport \"./Utils.sol\";\r\n\r\n/**\r\n * @title CampaignLifecycle\r\n * @dev This contract manages the campaign's lifecycle calls and state changes.\r\n */\r\ncontract Lifecycle is HashbuzzStates, Utils {\r\n    /**\r\n     * @dev Add a new campaign or top up an existing campaign\r\n     * @param campaignAddress The db address of the campaign\r\n     * @param campaigner The solidity address of the campaigner or wallet address\r\n     * @param amount The amount to be allocated to the campaign from the campaigner's balance.\r\n     */\r\n    function addCampaignOrTopUp(\r\n        string memory campaignAddress,\r\n        address campaigner,\r\n        uint256 amount\r\n    ) public onlyOwner returns (uint256) {\r\n        require(isCampaigner(campaigner), ERR_CAMPAIGNER_NOT_ALLOWED);\r\n        require(balances[campaigner] >= amount, ERR_INSUFFICIENT_BALANCE);\r\n\r\n        balances[campaigner] -= amount;\r\n        campaignBalances[campaignAddress] += amount;\r\n\r\n        uint256 updatedBalance = balances[campaigner];\r\n\r\n        if (campaignBalances[campaignAddress] == amount) {\r\n            emit NewCampaignIsAdded(campaignAddress, amount, HBAR);\r\n        } else {\r\n            emit CampaignToppedUp(campaignAddress, amount, HBAR);\r\n        }\r\n\r\n        return updatedBalance;\r\n    }\r\n\r\n    /**\r\n     * @dev Add a new campaign for fungible tokens or top up an existing campaign\r\n     * @param tokenId The address of the token in solidity format\r\n     * @param campaignAddress The db address of the campaign\r\n     * @param campaigner The solidity address of the campaigner or wallet address\r\n     * @param tokenAmount The amount of tokens to be allocated to the campaign\r\n     */\r\n    function addFungibleCampaign(\r\n        address tokenId,\r\n        string memory campaignAddress,\r\n        address campaigner,\r\n        uint64 tokenAmount\r\n    ) public onlyOwner returns (uint64) {\r\n        require(isTokenWhitelisted(tokenId), ERR_TOKEN_NOT_WHITELISTED);\r\n        require(\r\n            bytes(campaignAddress).length > 0,\r\n            ERR_INVALID_CAMPAIGN_ADDRESS\r\n        );\r\n        require(isCampaigner(campaigner), ERR_CAMPAIGNER_NOT_ALLOWED);\r\n        require(tokenAmount > 0, ERR_TOTAL_AMOUNT_MUST_BE_GREATER_THAN_ZERO);\r\n\r\n        uint64 amount = tokenAmount;\r\n        require(\r\n            tokenBalances[campaigner][tokenId][FUNGIBLE] >= amount,\r\n            ERR_INSUFFICIENT_BALANCE\r\n        );\r\n\r\n        tokenBalances[campaigner][tokenId][FUNGIBLE] -= amount;\r\n        tokenCampaignBalances[campaignAddress][tokenId][FUNGIBLE] += amount;\r\n\r\n        uint64 updatedBalance = tokenBalances[campaigner][tokenId][FUNGIBLE];\r\n\r\n        if (\r\n            tokenCampaignBalances[campaignAddress][tokenId][FUNGIBLE] == amount\r\n        ) {\r\n            emit NewCampaignIsAdded(campaignAddress, amount, FUNGIBLE);\r\n        } else {\r\n            emit CampaignToppedUp(campaignAddress, amount, FUNGIBLE);\r\n        }\r\n\r\n        emit FungibleTokenBalanceUpdated(campaigner, tokenId, updatedBalance);\r\n        return updatedBalance;\r\n    }\r\n\r\n    /**\r\n     * @dev Close a campaign with HBAR\r\n     * @param campaignAddress The db address of the campaign\r\n     * @param campaignExpiryTime The expiry time of the campaign in seconds\r\n     */\r\n    function closeCampaign(\r\n        string memory campaignAddress,\r\n        uint256 campaignExpiryTime\r\n    ) public onlyOwner {\r\n        require(\r\n            bytes(campaignAddress).length > 0,\r\n            ERR_INVALID_CAMPAIGN_ADDRESS\r\n        );\r\n        require(campaignExpiryTime > 0, ERR_INVALID_EXPIRY_TIME);\r\n        require(\r\n            !isCampaignClosed[campaignAddress][HBAR],\r\n            ERR_TCAMPAIGN_ALREADY_CLOSED\r\n        );\r\n\r\n        isCampaignClosed[campaignAddress][HBAR] = true;\r\n        campaignEndTime[campaignAddress][HBAR] =\r\n            block.timestamp +\r\n            campaignExpiryTime;\r\n        emit campaignClosed(campaignAddress, HBAR);\r\n    }\r\n\r\n    /**\r\n     * @dev Close a campaign with fungible tokens\r\n     * @param campaignAddress The db address of the campaign\r\n     * @param campaignExpiryTime The expiry time of the campaign in seconds\r\n     */\r\n    function closeFungibleCampaign(\r\n        string memory campaignAddress,\r\n        uint256 campaignExpiryTime\r\n    ) public onlyOwner {\r\n        require(\r\n            bytes(campaignAddress).length > 0,\r\n            ERR_INVALID_CAMPAIGN_ADDRESS\r\n        );\r\n        require(campaignExpiryTime > 0, ERR_INVALID_EXPIRY_TIME);\r\n        require(\r\n            !isCampaignClosed[campaignAddress][FUNGIBLE],\r\n            ERR_TCAMPAIGN_ALREADY_CLOSED\r\n        );\r\n\r\n        isCampaignClosed[campaignAddress][FUNGIBLE] = true;\r\n        campaignEndTime[campaignAddress][FUNGIBLE] =\r\n            block.timestamp +\r\n            campaignExpiryTime;\r\n\r\n        emit campaignClosed(campaignAddress, FUNGIBLE);\r\n    }\r\n\r\n    /**\r\n     * @dev Distribute HBAR tokens to the campaigner\r\n     * @param campaigner The solidity address of the campaigner or wallet address\r\n     * @param campaignAddress The db address of the campaign\r\n     * @param totalAmount The total amount of tokens to be distributed\r\n     */\r\n    function adjustTotalReward(\r\n        address campaigner,\r\n        string memory campaignAddress,\r\n        uint256 totalAmount\r\n    ) external onlyOwner returns (uint256) {\r\n        require(isCampaigner(campaigner), ERR_CAMPAIGNER_NOT_ALLOWED);\r\n        require(\r\n            bytes(campaignAddress).length > 0,\r\n            ERR_INVALID_CAMPAIGN_ADDRESS\r\n        );\r\n        require(totalAmount > 0, ERR_TOTAL_AMOUNT_MUST_BE_GREATER_THAN_ZERO);\r\n        require(\r\n            isCampaignClosed[campaignAddress][HBAR],\r\n            ERR_CAMPAIGN_NOT_CLOSED\r\n        );\r\n        require(\r\n            campaignBalances[campaignAddress] >= totalAmount,\r\n            \"Insufficient campaign balance\"\r\n        );\r\n\r\n        // Deduct the distributed amount from the campaign's balance\r\n        campaignBalances[campaignAddress] -= totalAmount;\r\n        uint256 remainingBalance = campaignBalances[campaignAddress];\r\n\r\n        emit RewardsDistributed(campaignAddress, totalAmount, remainingBalance);\r\n        return remainingBalance;\r\n    }\r\n    /**\r\n     * @dev Distribute fungible tokens to the campaigner\r\n     * @param tokenId The address of the token in solidity format\r\n     * @param campaigner The solidity address of the campaigner or wallet address\r\n     * @param campaignAddress The db address of the campaign\r\n     * @param tokenTotalAmount The total amount of tokens to be distributed\r\n     */\r\n    function adjustTotalFungibleReward(\r\n        address tokenId,\r\n        address campaigner,\r\n        string memory campaignAddress,\r\n        uint64 tokenTotalAmount\r\n    ) external onlyOwner returns (uint256) {\r\n        require(isTokenWhitelisted(tokenId), ERR_TOKEN_NOT_WHITELISTED);\r\n        require(isCampaigner(campaigner), ERR_CAMPAIGNER_NOT_ALLOWED);\r\n        require(\r\n            bytes(campaignAddress).length > 0,\r\n            ERR_INVALID_CAMPAIGN_ADDRESS\r\n        );\r\n        require(\r\n            tokenTotalAmount > 0,\r\n            ERR_TOTAL_AMOUNT_MUST_BE_GREATER_THAN_ZERO\r\n        );\r\n        require(\r\n            isCampaignClosed[campaignAddress][FUNGIBLE],\r\n            ERR_CAMPAIGN_NOT_CLOSED\r\n        );\r\n\r\n        // Deduct the distributed amount from the campaign's balance\r\n        tokenCampaignBalances[campaignAddress][tokenId][\r\n            FUNGIBLE\r\n        ] -= tokenTotalAmount;\r\n        uint64 remainingBalance = tokenCampaignBalances[campaignAddress][\r\n            tokenId\r\n        ][FUNGIBLE];\r\n\r\n        emit RewardsDistributed(\r\n            campaignAddress,\r\n            uint256(tokenTotalAmount),\r\n            remainingBalance\r\n        );\r\n\r\n        return uint256(remainingBalance);\r\n    }\r\n\r\n    /**\r\n     * @dev Expiry a campaign with fungible tokens campaigners only\r\n     * @param campaignAddress The db address of the campaign\r\n     * @param tokenId The address of the token in solidity format\r\n     * @param campaigner The solidity address of the campaigner or wallet address\r\n     */\r\n    function expiryFungibleCampaign(\r\n        address tokenId,\r\n        string memory campaignAddress,\r\n        address campaigner\r\n    ) public onlyOwner returns (uint64) {\r\n        require(tokenId != address(0), ERR_INVALID_TOKEN_ADDRESS);\r\n        require(\r\n            bytes(campaignAddress).length > 0,\r\n            ERR_INVALID_CAMPAIGN_ADDRESS\r\n        );\r\n        require(isCampaigner(campaigner), ERR_CAMPAIGNER_NOT_ALLOWED);\r\n        require(\r\n            isCampaignClosed[campaignAddress][FUNGIBLE],\r\n            ERR_CAMPAIGN_NOT_CLOSED\r\n        );\r\n        require(\r\n            block.timestamp > campaignEndTime[campaignAddress][FUNGIBLE],\r\n            ERR_CAMPAIGN_NOT_CLOSED\r\n        );\r\n\r\n        tokenBalances[campaigner][tokenId][FUNGIBLE] += tokenCampaignBalances[\r\n            campaignAddress\r\n        ][tokenId][FUNGIBLE];\r\n        tokenCampaignBalances[campaignAddress][tokenId][FUNGIBLE] = 0;\r\n\r\n        uint64 updatedBalance = tokenBalances[campaigner][tokenId][FUNGIBLE];\r\n        emit campaignExpired(campaignAddress, FUNGIBLE);\r\n\r\n        return updatedBalance;\r\n    }\r\n\r\n    /**\r\n     * @dev Expiry a campaign with HBAR\r\n     * @param campaignAddress The db address of the campaign\r\n     * @param campaigner The solidity address of the campaigner or wallet address\r\n     */\r\n    function expiryCampaign(\r\n        string memory campaignAddress,\r\n        address campaigner\r\n    ) public onlyOwner returns (uint256) {\r\n        require(\r\n            bytes(campaignAddress).length > 0,\r\n            ERR_INVALID_CAMPAIGN_ADDRESS\r\n        );\r\n        require(isCampaigner(campaigner), ERR_CAMPAIGNER_NOT_ALLOWED);\r\n        require(\r\n            block.timestamp > campaignEndTime[campaignAddress][HBAR],\r\n            ERR_CAMPAIGN_NOT_CLOSED\r\n        );\r\n        require(\r\n            isCampaignClosed[campaignAddress][HBAR],\r\n            ERR_CAMPAIGN_NOT_CLOSED\r\n        );\r\n\r\n        balances[campaigner] += campaignBalances[campaignAddress];\r\n        campaignBalances[campaignAddress] = 0;\r\n        uint256 updatedBalance = balances[campaigner];\r\n\r\n        emit campaignExpired(campaignAddress, HBAR);\r\n\r\n        return updatedBalance;\r\n    }\r\n}\r\n",
  "sourcePath": "D:\\rajatk\\hashbuzz-staging\\smv201\\contracts\\HashbuzzModules\\CampaignLifecycle.sol",
  "compiler": {
    "name": "solc",
    "version": "0.8.17+commit.8df45f5f.Emscripten.clang"
  },
  "schemaVersion": "3.4.16",
  "updatedAt": "2024-11-12T16:03:02.700Z",
  "devdoc": {
    "details": "This contract manages the campaign's lifecycle calls and state changes.",
    "kind": "dev",
    "methods": {
      "addCampaignOrTopUp(string,address,uint256)": {
        "details": "Add a new campaign or top up an existing campaign",
        "params": {
          "amount": "The amount to be allocated to the campaign from the campaigner's balance.",
          "campaignAddress": "The db address of the campaign",
          "campaigner": "The solidity address of the campaigner or wallet address"
        }
      },
      "addCampaigner(address)": {
        "details": "Whitelist cmapigner to the user.",
        "params": {
          "newCampaigner": "Address of the user having campaigner role to be used here"
        }
      },
      "addFungibleCampaign(address,string,address,uint64)": {
        "details": "Add a new campaign for fungible tokens or top up an existing campaign",
        "params": {
          "campaignAddress": "The db address of the campaign",
          "campaigner": "The solidity address of the campaigner or wallet address",
          "tokenAmount": "The amount of tokens to be allocated to the campaign",
          "tokenId": "The address of the token in solidity format"
        }
      },
      "adjustTotalFungibleReward(address,address,string,uint64)": {
        "details": "Distribute fungible tokens to the campaigner",
        "params": {
          "campaignAddress": "The db address of the campaign",
          "campaigner": "The solidity address of the campaigner or wallet address",
          "tokenId": "The address of the token in solidity format",
          "tokenTotalAmount": "The total amount of tokens to be distributed"
        }
      },
      "adjustTotalReward(address,string,uint256)": {
        "details": "Distribute HBAR tokens to the campaigner",
        "params": {
          "campaignAddress": "The db address of the campaign",
          "campaigner": "The solidity address of the campaigner or wallet address",
          "totalAmount": "The total amount of tokens to be distributed"
        }
      },
      "associateToken(address,bool)": {
        "details": "Adds or removes a token from the whitelist.",
        "params": {
          "isWhitelisted": "Boolean flag to mark the token as whitelisted or not.",
          "tokenAddress": "The address of the token."
        }
      },
      "closeCampaign(string,uint256)": {
        "details": "Close a campaign with HBAR",
        "params": {
          "campaignAddress": "The db address of the campaign",
          "campaignExpiryTime": "The expiry time of the campaign in seconds"
        }
      },
      "closeFungibleCampaign(string,uint256)": {
        "details": "Close a campaign with fungible tokens",
        "params": {
          "campaignAddress": "The db address of the campaign",
          "campaignExpiryTime": "The expiry time of the campaign in seconds"
        }
      },
      "expiryCampaign(string,address)": {
        "details": "Expiry a campaign with HBAR",
        "params": {
          "campaignAddress": "The db address of the campaign",
          "campaigner": "The solidity address of the campaigner or wallet address"
        }
      },
      "expiryFungibleCampaign(address,string,address)": {
        "details": "Expiry a campaign with fungible tokens campaigners only",
        "params": {
          "campaignAddress": "The db address of the campaign",
          "campaigner": "The solidity address of the campaigner or wallet address",
          "tokenId": "The address of the token in solidity format"
        }
      },
      "getAllWhitelistedTokens()": {
        "details": "Retrieves all whitelisted addresses for a given token type.",
        "returns": {
          "_0": "An array of addresses that are whitelisted for the given token type."
        }
      },
      "getCampaignBalance(string)": {
        "details": "Balance holded by the user to see.",
        "params": {
          "campaignAddress": "Solidity address of the campaigner."
        }
      },
      "getFungibleTokenBalance(address,address)": {
        "params": {
          "campaigner": "Address of the campaigner'solidity address",
          "tokenId": "Solidity address used for the account"
        }
      },
      "getHbarBalance(address)": {
        "details": "Balance holded by the user to see.",
        "params": {
          "campaigner": "Solidity address of the campaigner."
        }
      },
      "isTokenWhitelisted(address)": {
        "details": "Checks if a specific token address is whitelisted for a given token type.",
        "params": {
          "tokenAddress": "The address of the token to check."
        },
        "returns": {
          "_0": "Boolean flag indicating if the token is whitelisted."
        }
      }
    },
    "title": "CampaignLifecycle",
    "version": 1
  },
  "userdoc": {
    "kind": "user",
    "methods": {},
    "version": 1
  }
}