{
  "contractName": "Lifecycle",
  "abi": [
    {
      "anonymous": false,
      "inputs": [
        {
          "indexed": false,
          "internalType": "address",
          "name": "campaigner",
          "type": "address"
        },
        {
          "indexed": false,
          "internalType": "uint256",
          "name": "updatedBalance",
          "type": "uint256"
        }
      ],
      "name": "BalanceUpdated",
      "type": "event"
    },
    {
      "anonymous": false,
      "inputs": [
        {
          "indexed": false,
          "internalType": "string",
          "name": "campaignAddress",
          "type": "string"
        },
        {
          "indexed": false,
          "internalType": "uint256",
          "name": "amount",
          "type": "uint256"
        },
        {
          "indexed": false,
          "internalType": "uint32",
          "name": "tokenType",
          "type": "uint32"
        }
      ],
      "name": "CampaignToppedUp",
      "type": "event"
    },
    {
      "anonymous": false,
      "inputs": [
        {
          "indexed": false,
          "internalType": "address",
          "name": "campaigner",
          "type": "address"
        }
      ],
      "name": "CampaignerAdded",
      "type": "event"
    },
    {
      "anonymous": false,
      "inputs": [
        {
          "indexed": false,
          "internalType": "address",
          "name": "campaigner",
          "type": "address"
        }
      ],
      "name": "CampaignerDeleted",
      "type": "event"
    },
    {
      "anonymous": false,
      "inputs": [
        {
          "indexed": false,
          "internalType": "address",
          "name": "tokenAddress",
          "type": "address"
        }
      ],
      "name": "CreatedToken",
      "type": "event"
    },
    {
      "anonymous": false,
      "inputs": [
        {
          "indexed": false,
          "internalType": "address",
          "name": "campaigner",
          "type": "address"
        },
        {
          "indexed": false,
          "internalType": "uint256",
          "name": "amount",
          "type": "uint256"
        }
      ],
      "name": "FundsDeposited",
      "type": "event"
    },
    {
      "anonymous": false,
      "inputs": [
        {
          "indexed": false,
          "internalType": "address",
          "name": "campaigner",
          "type": "address"
        },
        {
          "indexed": false,
          "internalType": "uint256",
          "name": "amount",
          "type": "uint256"
        }
      ],
      "name": "FundsWithdrawn",
      "type": "event"
    },
    {
      "anonymous": false,
      "inputs": [
        {
          "indexed": false,
          "internalType": "address",
          "name": "campaigner",
          "type": "address"
        },
        {
          "indexed": false,
          "internalType": "address",
          "name": "tokenId",
          "type": "address"
        },
        {
          "indexed": false,
          "internalType": "uint256",
          "name": "updatedBalance",
          "type": "uint256"
        }
      ],
      "name": "FungibleTokenBalanceUpdated",
      "type": "event"
    },
    {
      "anonymous": false,
      "inputs": [
        {
          "indexed": false,
          "internalType": "address",
          "name": "campaigner",
          "type": "address"
        },
        {
          "indexed": false,
          "internalType": "uint256",
          "name": "amount",
          "type": "uint256"
        }
      ],
      "name": "FungibleTokenDeposited",
      "type": "event"
    },
    {
      "anonymous": false,
      "inputs": [
        {
          "indexed": false,
          "internalType": "address",
          "name": "interactor",
          "type": "address"
        },
        {
          "indexed": false,
          "internalType": "address",
          "name": "campaigner",
          "type": "address"
        },
        {
          "indexed": false,
          "internalType": "uint256",
          "name": "amount",
          "type": "uint256"
        }
      ],
      "name": "InteractorPaid",
      "type": "event"
    },
    {
      "anonymous": false,
      "inputs": [
        {
          "indexed": false,
          "internalType": "string",
          "name": "campaignAddress",
          "type": "string"
        },
        {
          "indexed": false,
          "internalType": "uint256",
          "name": "amount",
          "type": "uint256"
        }
      ],
      "name": "InteractorPaidDeferred",
      "type": "event"
    },
    {
      "anonymous": false,
      "inputs": [
        {
          "indexed": false,
          "internalType": "string",
          "name": "campaignAdddress",
          "type": "string"
        },
        {
          "indexed": false,
          "internalType": "uint256",
          "name": "amount",
          "type": "uint256"
        },
        {
          "indexed": false,
          "internalType": "uint32",
          "name": "campaignType",
          "type": "uint32"
        }
      ],
      "name": "NewCampaignIsAdded",
      "type": "event"
    },
    {
      "anonymous": false,
      "inputs": [
        {
          "indexed": false,
          "internalType": "address",
          "name": "owner",
          "type": "address"
        }
      ],
      "name": "OwnerSet",
      "type": "event"
    },
    {
      "anonymous": false,
      "inputs": [
        {
          "indexed": false,
          "internalType": "int256",
          "name": "responseCode",
          "type": "int256"
        }
      ],
      "name": "ResponseCode",
      "type": "event"
    },
    {
      "anonymous": false,
      "inputs": [
        {
          "indexed": false,
          "internalType": "string",
          "name": "campaignAddress",
          "type": "string"
        },
        {
          "indexed": false,
          "internalType": "uint256",
          "name": "totalAmount",
          "type": "uint256"
        },
        {
          "indexed": false,
          "internalType": "uint256",
          "name": "remainingBalance",
          "type": "uint256"
        }
      ],
      "name": "RewardsDistributed",
      "type": "event"
    },
    {
      "anonymous": false,
      "inputs": [
        {
          "indexed": false,
          "internalType": "string",
          "name": "campaignAddress",
          "type": "string"
        },
        {
          "indexed": false,
          "internalType": "uint32",
          "name": "campaignType",
          "type": "uint32"
        }
      ],
      "name": "campaignClosed",
      "type": "event"
    },
    {
      "anonymous": false,
      "inputs": [
        {
          "indexed": false,
          "internalType": "string",
          "name": "campaignAddress",
          "type": "string"
        },
        {
          "indexed": false,
          "internalType": "uint32",
          "name": "campaignType",
          "type": "uint32"
        }
      ],
      "name": "campaignExpired",
      "type": "event"
    },
    {
      "inputs": [],
      "name": "FUNGIBLE",
      "outputs": [
        {
          "internalType": "uint32",
          "name": "",
          "type": "uint32"
        }
      ],
      "stateMutability": "view",
      "type": "function"
    },
    {
      "inputs": [],
      "name": "HBAR",
      "outputs": [
        {
          "internalType": "uint32",
          "name": "",
          "type": "uint32"
        }
      ],
      "stateMutability": "view",
      "type": "function"
    },
    {
      "inputs": [],
      "name": "NFT",
      "outputs": [
        {
          "internalType": "uint32",
          "name": "",
          "type": "uint32"
        }
      ],
      "stateMutability": "view",
      "type": "function"
    },
    {
      "inputs": [
        {
          "internalType": "address",
          "name": "newCampaigner",
          "type": "address"
        }
      ],
      "name": "addCampaigner",
      "outputs": [],
      "stateMutability": "nonpayable",
      "type": "function"
    },
    {
      "inputs": [
        {
          "internalType": "address",
          "name": "tokenAddress",
          "type": "address"
        },
        {
          "internalType": "bool",
          "name": "isWhitelisted",
          "type": "bool"
        }
      ],
      "name": "associateToken",
      "outputs": [],
      "stateMutability": "nonpayable",
      "type": "function"
    },
    {
      "inputs": [
        {
          "internalType": "address",
          "name": "",
          "type": "address"
        }
      ],
      "name": "balances",
      "outputs": [
        {
          "internalType": "uint256",
          "name": "",
          "type": "uint256"
        }
      ],
      "stateMutability": "view",
      "type": "function"
    },
    {
      "inputs": [
        {
          "internalType": "string",
          "name": "",
          "type": "string"
        }
      ],
      "name": "campaignBalances",
      "outputs": [
        {
          "internalType": "uint256",
          "name": "",
          "type": "uint256"
        }
      ],
      "stateMutability": "view",
      "type": "function"
    },
    {
      "inputs": [
        {
          "internalType": "string",
          "name": "",
          "type": "string"
        }
      ],
      "name": "campaignRandomNumber",
      "outputs": [
        {
          "internalType": "uint32",
          "name": "",
          "type": "uint32"
        }
      ],
      "stateMutability": "view",
      "type": "function"
    },
    {
      "inputs": [
        {
          "internalType": "address",
          "name": "",
          "type": "address"
        }
      ],
      "name": "campaigners",
      "outputs": [
        {
          "internalType": "bool",
          "name": "",
          "type": "bool"
        }
      ],
      "stateMutability": "view",
      "type": "function"
    },
    {
      "inputs": [],
      "name": "getAllWhitelistedTokens",
      "outputs": [
        {
          "internalType": "address[]",
          "name": "",
          "type": "address[]"
        }
      ],
      "stateMutability": "view",
      "type": "function"
    },
    {
      "inputs": [
        {
          "internalType": "string",
          "name": "campaignAddress",
          "type": "string"
        }
      ],
      "name": "getCampaignBalance",
      "outputs": [
        {
          "internalType": "uint256",
          "name": "",
          "type": "uint256"
        }
      ],
      "stateMutability": "view",
      "type": "function"
    },
    {
      "inputs": [
        {
          "internalType": "address",
          "name": "campaigner",
          "type": "address"
        },
        {
          "internalType": "address",
          "name": "tokenId",
          "type": "address"
        }
      ],
      "name": "getFungibleTokenBalance",
      "outputs": [
        {
          "internalType": "uint256",
          "name": "res",
          "type": "uint256"
        }
      ],
      "stateMutability": "view",
      "type": "function"
    },
    {
      "inputs": [
        {
          "internalType": "address",
          "name": "campaigner",
          "type": "address"
        }
      ],
      "name": "getHbarBalance",
      "outputs": [
        {
          "internalType": "uint256",
          "name": "res",
          "type": "uint256"
        }
      ],
      "stateMutability": "view",
      "type": "function"
    },
    {
      "inputs": [
        {
          "internalType": "address",
          "name": "tokenAddress",
          "type": "address"
        }
      ],
      "name": "isTokenWhitelisted",
      "outputs": [
        {
          "internalType": "bool",
          "name": "",
          "type": "bool"
        }
      ],
      "stateMutability": "view",
      "type": "function"
    },
    {
      "inputs": [
        {
          "internalType": "address",
          "name": "",
          "type": "address"
        }
      ],
      "name": "nftCampaigner",
      "outputs": [
        {
          "internalType": "uint32",
          "name": "",
          "type": "uint32"
        }
      ],
      "stateMutability": "view",
      "type": "function"
    },
    {
      "inputs": [],
      "name": "owner",
      "outputs": [
        {
          "internalType": "address",
          "name": "",
          "type": "address"
        }
      ],
      "stateMutability": "view",
      "type": "function"
    },
    {
      "inputs": [
        {
          "internalType": "address",
          "name": "",
          "type": "address"
        },
        {
          "internalType": "address",
          "name": "",
          "type": "address"
        },
        {
          "internalType": "uint32",
          "name": "",
          "type": "uint32"
        }
      ],
      "name": "tokenBalances",
      "outputs": [
        {
          "internalType": "uint256",
          "name": "",
          "type": "uint256"
        }
      ],
      "stateMutability": "view",
      "type": "function"
    },
    {
      "inputs": [
        {
          "internalType": "string",
          "name": "",
          "type": "string"
        },
        {
          "internalType": "address",
          "name": "",
          "type": "address"
        },
        {
          "internalType": "uint32",
          "name": "",
          "type": "uint32"
        }
      ],
      "name": "tokenCampaignBalances",
      "outputs": [
        {
          "internalType": "uint256",
          "name": "",
          "type": "uint256"
        }
      ],
      "stateMutability": "view",
      "type": "function"
    },
    {
      "inputs": [
        {
          "internalType": "uint32",
          "name": "",
          "type": "uint32"
        },
        {
          "internalType": "address",
          "name": "",
          "type": "address"
        }
      ],
      "name": "whitelistedToken",
      "outputs": [
        {
          "internalType": "bool",
          "name": "",
          "type": "bool"
        }
      ],
      "stateMutability": "view",
      "type": "function"
    },
    {
      "inputs": [
        {
          "internalType": "string",
          "name": "campaignAddress",
          "type": "string"
        },
        {
          "internalType": "address",
          "name": "campaigner",
          "type": "address"
        },
        {
          "internalType": "uint256",
          "name": "amount",
          "type": "uint256"
        }
      ],
      "name": "addCampaignOrTopUp",
      "outputs": [
        {
          "internalType": "uint256",
          "name": "",
          "type": "uint256"
        }
      ],
      "stateMutability": "nonpayable",
      "type": "function"
    },
    {
      "inputs": [
        {
          "internalType": "address",
          "name": "tokenId",
          "type": "address"
        },
        {
          "internalType": "string",
          "name": "campaignAddress",
          "type": "string"
        },
        {
          "internalType": "address",
          "name": "campaigner",
          "type": "address"
        },
        {
          "internalType": "uint256",
          "name": "tokenAmount",
          "type": "uint256"
        }
      ],
      "name": "addFungibleCampaign",
      "outputs": [
        {
          "internalType": "uint256",
          "name": "",
          "type": "uint256"
        }
      ],
      "stateMutability": "nonpayable",
      "type": "function"
    },
    {
      "inputs": [
        {
          "internalType": "string",
          "name": "campaignAddress",
          "type": "string"
        },
        {
          "internalType": "uint256",
          "name": "campaignExpiryTime",
          "type": "uint256"
        }
      ],
      "name": "closeCampaign",
      "outputs": [],
      "stateMutability": "nonpayable",
      "type": "function"
    },
    {
      "inputs": [
        {
          "internalType": "string",
          "name": "campaignAddress",
          "type": "string"
        },
        {
          "internalType": "uint256",
          "name": "campaignExpiryTime",
          "type": "uint256"
        }
      ],
      "name": "closeFungibleCampaign",
      "outputs": [],
      "stateMutability": "nonpayable",
      "type": "function"
    },
    {
      "inputs": [
        {
          "internalType": "address",
          "name": "campaigner",
          "type": "address"
        },
        {
          "internalType": "string",
          "name": "campaignAddress",
          "type": "string"
        },
        {
          "internalType": "uint256",
          "name": "totalAmount",
          "type": "uint256"
        }
      ],
      "name": "adjustTotalReward",
      "outputs": [
        {
          "internalType": "uint256",
          "name": "",
          "type": "uint256"
        }
      ],
      "stateMutability": "nonpayable",
      "type": "function"
    },
    {
      "inputs": [
        {
          "internalType": "address",
          "name": "tokenId",
          "type": "address"
        },
        {
          "internalType": "address",
          "name": "campaigner",
          "type": "address"
        },
        {
          "internalType": "string",
          "name": "campaignAddress",
          "type": "string"
        },
        {
          "internalType": "uint256",
          "name": "tokenTotalAmount",
          "type": "uint256"
        }
      ],
      "name": "adjustTotalFungibleReward",
      "outputs": [
        {
          "internalType": "uint256",
          "name": "",
          "type": "uint256"
        }
      ],
      "stateMutability": "nonpayable",
      "type": "function"
    },
    {
      "inputs": [
        {
          "internalType": "address",
          "name": "tokenId",
          "type": "address"
        },
        {
          "internalType": "string",
          "name": "campaignAddress",
          "type": "string"
        },
        {
          "internalType": "address",
          "name": "campaigner",
          "type": "address"
        }
      ],
      "name": "expiryFungibleCampaign",
      "outputs": [
        {
          "internalType": "uint256",
          "name": "",
          "type": "uint256"
        }
      ],
      "stateMutability": "nonpayable",
      "type": "function"
    },
    {
      "inputs": [
        {
          "internalType": "string",
          "name": "campaignAddress",
          "type": "string"
        },
        {
          "internalType": "address",
          "name": "campaigner",
          "type": "address"
        }
      ],
      "name": "expiryCampaign",
      "outputs": [
        {
          "internalType": "uint256",
          "name": "",
          "type": "uint256"
        }
      ],
      "stateMutability": "nonpayable",
      "type": "function"
    }
  ],
  "bytecode": "0x608060405234801561001057600080fd5b50612624806100206000396000f3fe608060405234801561001057600080fd5b50600436106101a95760003560e01c80637b7fc677116100f9578063b466613011610097578063bc3ef1e911610071578063bc3ef1e914610448578063bc4627001461046e578063bff3199614610481578063cfe3f9a81461049457600080fd5b8063b46661301461040f578063b5af090f14610422578063b99425241461043557600080fd5b80639991033c116100d35780639991033c146103935780639a5f0da6146103a85780639de3d8ba146103e9578063a7c7b182146103fc57600080fd5b80637b7fc6771461034d5780637c0b8de2146103605780638da5cb5b1461036857600080fd5b8063362e34b9116101665780634a3b1152116101405780634a3b1152146102d65780634f18230d146102e9578063694be7e014610314578063774256c71461034557600080fd5b8063362e34b9146102785780634377e3ff146102a657806344131d2f146102c357600080fd5b806311029345146101ae578063160f9c88146101e657806316d343e0146102075780631b0f32a31461023057806327e235e314610245578063325c901914610265575b600080fd5b6101d16101bc366004611f14565b60016020526000908152604090205460ff1681565b60405190151581526020015b60405180910390f35b6101f96101f4366004611f36565b6104c5565b6040519081526020016101dd565b6101f9610215366004611f14565b6001600160a01b031660009081526002602052604090205490565b61024361023e366004611f69565b6105d1565b005b6101f9610253366004611f14565b60026020526000908152604090205481565b6101f9610273366004612048565b6108e5565b6101d16102863660046120c2565b600360209081526000928352604080842090915290825290205460ff1681565b6102ae600181565b60405163ffffffff90911681526020016101dd565b6101f96102d13660046120de565b610b59565b6101f96102e4366004612144565b610f14565b6101f96102f7366004612144565b805160208183018101805160068252928201919093012091525481565b6101f9610322366004612179565b600560209081526000938452604080852082529284528284209052825290205481565b6102ae600081565b6101f961035b3660046121bc565b610f7c565b6102ae600281565b60005461037b906001600160a01b031681565b6040516001600160a01b0390911681526020016101dd565b61039b6111d5565b6040516101dd9190612213565b6101f96103b6366004612260565b82516020818501810180516007825292820195820195909520919094528352600091825260408083209093528152205481565b6101f96103f73660046122a7565b61124d565b6101f961040a3660046122fc565b61155e565b61024361041d366004612341565b6117b0565b6101d1610430366004611f14565b611968565b6101f9610443366004612386565b611993565b6102ae610456366004611f14565b60096020526000908152604090205463ffffffff1681565b61024361047c366004612341565b611c03565b61024361048f366004611f14565b611dc3565b6102ae6104a2366004612144565b8051602081830181018051600b8252928201919093012091525463ffffffff1681565b6040805180820190915260048152634530303160e01b60208201526000906001600160a01b0383166105135760405162461bcd60e51b815260040161050a919061242d565b60405180910390fd5b506040805180820190915260048152632298181960e11b60208201526001600160a01b0384166105565760405162461bcd60e51b815260040161050a919061242d565b5061056082611968565b604051806040016040528060048152602001634530303560e01b8152509061059b5760405162461bcd60e51b815260040161050a919061242d565b50506001600160a01b03918216600090815260056020908152604080832093909416825291825282812060018252909152205490565b6000546001600160a01b031633146105fb5760405162461bcd60e51b815260040161050a90612440565b6040805180820190915260048152634530303160e01b60208201526001600160a01b03831661063d5760405162461bcd60e51b815260040161050a919061242d565b5080801561067157506001600160a01b03821660009081526000805160206125cf833981519152602052604090205460ff16155b156106fe57506001600160a01b031660008181526000805160206125cf833981519152602090815260408220805460ff1916600190811790915560049091526000805160206125af833981519152805491820181559091527f210afe6ebef982fa193bb4e17f9f236cdf09af7788627b5d54d9e3e4b100021b0180546001600160a01b0319169091179055565b8015801561073157506001600160a01b03821660009081526000805160206125cf833981519152602052604090205460ff165b156108e1576001600160a01b03821660009081526000805160206125cf833981519152602090815260408220805460ff1916905560018252600490526000805160206125af83398151915254905b818110156108de57600160005260046020526000805160206125af83398151915280546001600160a01b0386169190839081106107be576107be612495565b6000918252602090912001546001600160a01b0316036108cc576001600081905260046020526000805160206125af833981519152906107fe90846124c1565b8154811061080e5761080e612495565b60009182526020808320909101546001909252600490526000805160206125af83398151915280546001600160a01b03909216918390811061085257610852612495565b600091825260208083209190910180546001600160a01b0319166001600160a01b03949094169390931790925560019052600490526000805160206125af8339815191528054806108a5576108a56124d4565b600082815260209020810160001990810180546001600160a01b03191690550190556108de565b806108d6816124ea565b91505061077f565b50505b5050565b600080546001600160a01b031633146109105760405162461bcd60e51b815260040161050a90612440565b61091985611968565b604051806040016040528060048152602001634530303560e01b815250906109545760405162461bcd60e51b815260040161050a919061242d565b5061095e84611eda565b604051806040016040528060048152602001634530303360e01b815250906109995760405162461bcd60e51b815260040161050a919061242d565b506000835111604051806040016040528060048152602001632298181960e11b815250906109da5760405162461bcd60e51b815260040161050a919061242d565b506040805180820190915260048152634530313160e01b602082015282610a145760405162461bcd60e51b815260040161050a919061242d565b50600a83604051610a259190612503565b90815260408051918290036020908101832060016000908152908252829020548383019092526004835263114c0c0d60e21b9083015260ff16610a7b5760405162461bcd60e51b815260040161050a919061242d565b5081600784604051610a8d9190612503565b90815260408051602092819003830190206001600160a01b03891660009081529083528181206001825290925281208054909190610acc9084906124c1565b925050819055506000600784604051610ae59190612503565b9081526040805191829003602090810183206001600160a01b038a16600090815290825282812060018252909152205491507f037378c439105dd07d1db6d59a47347ea8f734a0835509a3820255c8be11cea090610b489086908690859061251f565b60405180910390a195945050505050565b600080546001600160a01b03163314610b845760405162461bcd60e51b815260040161050a90612440565b6040805180820190915260048152634530303160e01b60208201526001600160a01b038616610bc65760405162461bcd60e51b815260040161050a919061242d565b50610bd085611968565b604051806040016040528060048152602001634530303560e01b81525090610c0b5760405162461bcd60e51b815260040161050a919061242d565b506000845111604051806040016040528060048152602001632298181960e11b81525090610c4c5760405162461bcd60e51b815260040161050a919061242d565b50610c5683611eda565b604051806040016040528060048152602001634530303360e01b81525090610c915760405162461bcd60e51b815260040161050a919061242d565b506040805180820190915260048152634530313160e01b602082015282610ccb5760405162461bcd60e51b815260040161050a919061242d565b506001600160a01b038084166000908152600560209081526040808320938916835292815282822060018352815290829020548251808401909352600483526308a6060760e31b91830191909152831115610d395760405162461bcd60e51b815260040161050a919061242d565b506001600160a01b03808416600090815260056020908152604080832093891683529281528282206001835290529081208054849290610d7a9084906124c1565b9250508190555081600785604051610d929190612503565b90815260408051602092819003830190206001600160a01b03891660009081529083528181206001825290925281208054909190610dd1908490612544565b90915550506001600160a01b03808416600090815260056020908152604080832093891683529281528282206001835290528190205490518390600790610e19908890612503565b90815260408051602092819003830190206001600160a01b038a1660009081529083528181206001825290925290205403610e8f577f0674090a69c67762650abcd64d1bc896d06756b85c925a9f28e97a30487db3ae85846001604051610e8293929190612557565b60405180910390a1610ecc565b7f64ef3840fadd155a2d8cb45b5f007ed1273c96ca6026ee12008d0809aa77eef785846001604051610ec393929190612557565b60405180910390a15b604080516001600160a01b038087168252881660208201529081018290527f8fe0e0da907ac8f437ef47e4203196ea7ddf12675b81ad2e6553bb69314e1e2390606001610b48565b600080825111604051806040016040528060048152602001632298181960e11b81525090610f555760405162461bcd60e51b815260040161050a919061242d565b50600682604051610f669190612503565b9081526020016040518091039020549050919050565b600080546001600160a01b03163314610fa75760405162461bcd60e51b815260040161050a90612440565b610fb084611eda565b604051806040016040528060048152602001634530303360e01b81525090610feb5760405162461bcd60e51b815260040161050a919061242d565b506000835111604051806040016040528060048152602001632298181960e11b8152509061102c5760405162461bcd60e51b815260040161050a919061242d565b506040805180820190915260048152634530313160e01b6020820152826110665760405162461bcd60e51b815260040161050a919061242d565b50600a836040516110779190612503565b9081526040805191829003602090810183206000808052908252829020548383019092526004835263114c0c0d60e21b9083015260ff166110cb5760405162461bcd60e51b815260040161050a919061242d565b50816006846040516110dd9190612503565b908152602001604051809103902054101561113a5760405162461bcd60e51b815260206004820152601d60248201527f496e73756666696369656e742063616d706169676e2062616c616e6365000000604482015260640161050a565b8160068460405161114b9190612503565b9081526020016040518091039020600082825461116891906124c1565b9250508190555060006006846040516111819190612503565b90815260200160405180910390205490507f037378c439105dd07d1db6d59a47347ea8f734a0835509a3820255c8be11cea08484836040516111c59392919061251f565b60405180910390a1949350505050565b6001600052600460209081526000805160206125af833981519152805460408051828502810185019091528181526060939092919083018282801561124357602002820191906000526020600020905b81546001600160a01b03168152600190910190602001808311611225575b5050505050905090565b600080546001600160a01b031633146112785760405162461bcd60e51b815260040161050a90612440565b6040805180820190915260048152634530303160e01b60208201526001600160a01b0385166112ba5760405162461bcd60e51b815260040161050a919061242d565b506112c484611968565b604051806040016040528060048152602001634530303560e01b815250906112ff5760405162461bcd60e51b815260040161050a919061242d565b506000835111604051806040016040528060048152602001632298181960e11b815250906113405760405162461bcd60e51b815260040161050a919061242d565b5061134a82611eda565b604051806040016040528060048152602001634530303360e01b815250906113855760405162461bcd60e51b815260040161050a919061242d565b50600a836040516113969190612503565b90815260408051918290036020908101832060016000908152908252829020548383019092526004835263114c0c0d60e21b9083015260ff166113ec5760405162461bcd60e51b815260040161050a919061242d565b506008836040516113fd9190612503565b908152604080519182900360209081018320600160009081529082528290205483830190925260048352634530313760e01b9083015242116114525760405162461bcd60e51b815260040161050a919061242d565b506007836040516114639190612503565b90815260408051602092819003830190206001600160a01b03878116600081815292855283832060018085529086528484205492881684526005865284842091845290855283832090835290935290812080549091906114c4908490612544565b9250508190555060006007846040516114dd9190612503565b9081526040805191829003602090810183206001600160a01b03808a16600081815292845284832060018085529085528584209790975590881682526005835283822090825282528281208582529091522054917f2a4a396795b36662ffe9a398a57fd654cf6ea95e79cf6d96d6f0267685687c39916111c5918791612586565b600080546001600160a01b031633146115895760405162461bcd60e51b815260040161050a90612440565b6000835111604051806040016040528060048152602001632298181960e11b815250906115c95760405162461bcd60e51b815260040161050a919061242d565b506115d382611eda565b604051806040016040528060048152602001634530303360e01b8152509061160e5760405162461bcd60e51b815260040161050a919061242d565b50600a8360405161161f9190612503565b9081526040805191829003602090810183206000808052908252829020548383019092526004835263114c0c0d60e21b9083015260ff166116735760405162461bcd60e51b815260040161050a919061242d565b506008836040516116849190612503565b90815260408051918290036020908101832060008080529082528290205483830190925260048352634530313760e01b9083015242116116d75760405162461bcd60e51b815260040161050a919061242d565b506006836040516116e89190612503565b90815260200160405180910390205460026000846001600160a01b03166001600160a01b03168152602001908152602001600020600082825461172b9190612544565b9250508190555060006006846040516117449190612503565b908152604080519182900360209081018320939093556001600160a01b03851660009081526002909352822054917f2a4a396795b36662ffe9a398a57fd654cf6ea95e79cf6d96d6f0267685687c399161179f918791612586565b60405180910390a190505b92915050565b6000546001600160a01b031633146117da5760405162461bcd60e51b815260040161050a90612440565b6000825111604051806040016040528060048152602001632298181960e11b8152509061181a5760405162461bcd60e51b815260040161050a919061242d565b506040805180820190915260048152630453031360e41b6020820152816118545760405162461bcd60e51b815260040161050a919061242d565b50600a826040516118659190612503565b9081526040805191829003602090810183206000808052908252829020548383019092526004835263114c0c4d60e21b9083015260ff16156118ba5760405162461bcd60e51b815260040161050a919061242d565b506001600a836040516118cd9190612503565b9081526040805160209281900383019020600080805292529020805460ff19169115159190911790556119008142612544565b6008836040516119109190612503565b908152604080516020928190038301812060008080529352908220929092557ffda0e6502dae3d85195083e39efa0c8bdccc7d5741b53cf5c57de0c33dc9aaa49161195c918591612586565b60405180910390a15050565b6001600160a01b031660009081526000805160206125cf833981519152602052604090205460ff1690565b600080546001600160a01b031633146119be5760405162461bcd60e51b815260040161050a90612440565b6040805180820190915260048152634530313160e01b6020820152826119f75760405162461bcd60e51b815260040161050a919061242d565b506000845111604051806040016040528060048152602001632298181960e11b81525090611a385760405162461bcd60e51b815260040161050a919061242d565b50611a4283611eda565b604051806040016040528060048152602001634530303360e01b81525090611a7d5760405162461bcd60e51b815260040161050a919061242d565b508160026000856001600160a01b03166001600160a01b031681526020019081526020016000205410156040518060400160405280600481526020016308a6060760e31b81525090611ae25760405162461bcd60e51b815260040161050a919061242d565b506001600160a01b03831660009081526002602052604081208054849290611b0b9084906124c1565b9250508190555081600685604051611b239190612503565b90815260200160405180910390206000828254611b409190612544565b90915550506001600160a01b038316600090815260026020526040908190205490518390600690611b72908890612503565b90815260200160405180910390205403611bc7577f0674090a69c67762650abcd64d1bc896d06756b85c925a9f28e97a30487db3ae85846000604051611bba93929190612557565b60405180910390a1611bfb565b7f64ef3840fadd155a2d8cb45b5f007ed1273c96ca6026ee12008d0809aa77eef7858460006040516111c593929190612557565b949350505050565b6000546001600160a01b03163314611c2d5760405162461bcd60e51b815260040161050a90612440565b6000825111604051806040016040528060048152602001632298181960e11b81525090611c6d5760405162461bcd60e51b815260040161050a919061242d565b506040805180820190915260048152630453031360e41b602082015281611ca75760405162461bcd60e51b815260040161050a919061242d565b50600a82604051611cb89190612503565b90815260408051918290036020908101832060016000908152908252829020548383019092526004835263114c0c4d60e21b9083015260ff1615611d0f5760405162461bcd60e51b815260040161050a919061242d565b506001600a83604051611d229190612503565b90815260408051602092819003830190206001600090815292529020805460ff1916911515919091179055611d578142612544565b600883604051611d679190612503565b90815260200160405180910390206000600163ffffffff168152602001908152602001600020819055507ffda0e6502dae3d85195083e39efa0c8bdccc7d5741b53cf5c57de0c33dc9aaa482600160405161195c929190612586565b6000546001600160a01b03163314611ded5760405162461bcd60e51b815260040161050a90612440565b6040805180820190915260048152632298181960e11b60208201526001600160a01b038216611e2f5760405162461bcd60e51b815260040161050a919061242d565b50611e3981611eda565b15604051806040016040528060048152602001632298181b60e11b81525090611e755760405162461bcd60e51b815260040161050a919061242d565b506001600160a01b0381166000818152600160208181526040808420805460ff19169093179092556002815281832092909255519182527f3d04fb94919fdfa7708320cdebdf093992d88d792b3d5f4144c364cda00129c6910160405180910390a150565b6001600160a01b031660009081526001602052604090205460ff1690565b80356001600160a01b0381168114611f0f57600080fd5b919050565b600060208284031215611f2657600080fd5b611f2f82611ef8565b9392505050565b60008060408385031215611f4957600080fd5b611f5283611ef8565b9150611f6060208401611ef8565b90509250929050565b60008060408385031215611f7c57600080fd5b611f8583611ef8565b915060208301358015158114611f9a57600080fd5b809150509250929050565b634e487b7160e01b600052604160045260246000fd5b600082601f830112611fcc57600080fd5b813567ffffffffffffffff80821115611fe757611fe7611fa5565b604051601f8301601f19908116603f0116810190828211818310171561200f5761200f611fa5565b8160405283815286602085880101111561202857600080fd5b836020870160208301376000602085830101528094505050505092915050565b6000806000806080858703121561205e57600080fd5b61206785611ef8565b935061207560208601611ef8565b9250604085013567ffffffffffffffff81111561209157600080fd5b61209d87828801611fbb565b949793965093946060013593505050565b803563ffffffff81168114611f0f57600080fd5b600080604083850312156120d557600080fd5b611f52836120ae565b600080600080608085870312156120f457600080fd5b6120fd85611ef8565b9350602085013567ffffffffffffffff81111561211957600080fd5b61212587828801611fbb565b93505061213460408601611ef8565b9396929550929360600135925050565b60006020828403121561215657600080fd5b813567ffffffffffffffff81111561216d57600080fd5b611bfb84828501611fbb565b60008060006060848603121561218e57600080fd5b61219784611ef8565b92506121a560208501611ef8565b91506121b3604085016120ae565b90509250925092565b6000806000606084860312156121d157600080fd5b6121da84611ef8565b9250602084013567ffffffffffffffff8111156121f657600080fd5b61220286828701611fbb565b925050604084013590509250925092565b6020808252825182820181905260009190848201906040850190845b818110156122545783516001600160a01b03168352928401929184019160010161222f565b50909695505050505050565b60008060006060848603121561227557600080fd5b833567ffffffffffffffff81111561228c57600080fd5b61229886828701611fbb565b9350506121a560208501611ef8565b6000806000606084860312156122bc57600080fd5b6122c584611ef8565b9250602084013567ffffffffffffffff8111156122e157600080fd5b6122ed86828701611fbb565b9250506121b360408501611ef8565b6000806040838503121561230f57600080fd5b823567ffffffffffffffff81111561232657600080fd5b61233285828601611fbb565b925050611f6060208401611ef8565b6000806040838503121561235457600080fd5b823567ffffffffffffffff81111561236b57600080fd5b61237785828601611fbb565b95602094909401359450505050565b60008060006060848603121561239b57600080fd5b833567ffffffffffffffff8111156123b257600080fd5b6123be86828701611fbb565b9350506123cd60208501611ef8565b9150604084013590509250925092565b60005b838110156123f85781810151838201526020016123e0565b50506000910152565b600081518084526124198160208601602086016123dd565b601f01601f19169290920160200192915050565b602081526000611f2f6020830184612401565b60208082526035908201527f556e617574686f72697a6520416363657373207265717565737465642c204361604082015274363632b91034b9903737ba103a34329037bbb732b960591b606082015260800190565b634e487b7160e01b600052603260045260246000fd5b634e487b7160e01b600052601160045260246000fd5b818103818111156117aa576117aa6124ab565b634e487b7160e01b600052603160045260246000fd5b6000600182016124fc576124fc6124ab565b5060010190565b600082516125158184602087016123dd565b9190910192915050565b6060815260006125326060830186612401565b60208301949094525060400152919050565b808201808211156117aa576117aa6124ab565b60608152600061256a6060830186612401565b905083602083015263ffffffff83166040830152949350505050565b6040815260006125996040830185612401565b905063ffffffff83166020830152939250505056feabd6e7cb50984ff9c2f3e18a2660c3353dadf4e3291deeb275dae2cd1e44fe05a15bc60c955c405d20d9149c709e2460f1c2d9a497496a7f46004d1772c3054ca264697066735822122030242b028f74e28b4535507fa6c9afbc8afe0d73d8e67398abcb380b853bfb3b64736f6c63430008110033",
  "immutableReferences": {},
  "source": "// SPDX-License-Identifier: Apache-2.0\r\npragma solidity ^0.8.17;\r\n\r\nimport \"./HashbuzzStates.sol\";\r\nimport \"./Utils.sol\";\r\n\r\n/**\r\n * @title CampaignLifecycle\r\n * @dev This contract manages the campaign's lifecycle calls and state changes.\r\n */\r\ncontract Lifecycle is HashbuzzStates, Utils {\r\n    /**\r\n     * @dev Add a new campaign or top up an existing campaign\r\n     * @param campaignAddress The db address of the campaign\r\n     * @param campaigner The solidity address of the campaigner or wallet address\r\n     * @param amount The amount to be allocated to the campaign from the campaigner's balance.\r\n     */\r\n    function addCampaignOrTopUp(\r\n        string memory campaignAddress,\r\n        address campaigner,\r\n        uint256 amount\r\n    ) public onlyOwner returns (uint256) {\r\n        require(amount > 0, ERR_TOTAL_AMOUNT_MUST_BE_GREATER_THAN_ZERO);\r\n        require(\r\n            bytes(campaignAddress).length > 0,\r\n            ERR_INVALID_CAMPAIGN_ADDRESS\r\n        );\r\n        require(isCampaigner(campaigner), ERR_CAMPAIGNER_NOT_ALLOWED);\r\n        require(balances[campaigner] >= amount, ERR_INSUFFICIENT_BALANCE);\r\n\r\n        balances[campaigner] -= amount;\r\n        campaignBalances[campaignAddress] += amount;\r\n\r\n        uint256 updatedBalance = balances[campaigner];\r\n\r\n        if (campaignBalances[campaignAddress] == amount) {\r\n            emit NewCampaignIsAdded(campaignAddress, amount, HBAR);\r\n        } else {\r\n            emit CampaignToppedUp(campaignAddress, amount, HBAR);\r\n        }\r\n\r\n        return updatedBalance;\r\n    }\r\n\r\n    /**\r\n     * @dev Add a new campaign for fungible tokens or top up an existing campaign\r\n     * @param tokenId The address of the token in solidity format\r\n     * @param campaignAddress The db address of the campaign\r\n     * @param campaigner The solidity address of the campaigner or wallet address\r\n     * @param tokenAmount The amount of tokens to be allocated to the campaign\r\n     */\r\n    function addFungibleCampaign(\r\n        address tokenId,\r\n        string memory campaignAddress,\r\n        address campaigner,\r\n        uint256 tokenAmount\r\n    ) public onlyOwner returns (uint256) {\r\n        require(tokenId != address(0), ERR_INVALID_TOKEN_ADDRESS);\r\n        require(isTokenWhitelisted(tokenId), ERR_TOKEN_NOT_WHITELISTED);\r\n        require(\r\n            bytes(campaignAddress).length > 0,\r\n            ERR_INVALID_CAMPAIGN_ADDRESS\r\n        );\r\n        require(isCampaigner(campaigner), ERR_CAMPAIGNER_NOT_ALLOWED);\r\n        require(tokenAmount > 0, ERR_TOTAL_AMOUNT_MUST_BE_GREATER_THAN_ZERO);\r\n        require(\r\n            tokenBalances[campaigner][tokenId][FUNGIBLE] >= tokenAmount,\r\n            ERR_INSUFFICIENT_BALANCE\r\n        );\r\n\r\n        tokenBalances[campaigner][tokenId][FUNGIBLE] -= tokenAmount;\r\n        tokenCampaignBalances[campaignAddress][tokenId][\r\n            FUNGIBLE\r\n        ] += tokenAmount;\r\n\r\n        uint256 updatedBalance = tokenBalances[campaigner][tokenId][FUNGIBLE];\r\n\r\n        if (\r\n            tokenCampaignBalances[campaignAddress][tokenId][FUNGIBLE] ==\r\n            tokenAmount\r\n        ) {\r\n            emit NewCampaignIsAdded(campaignAddress, tokenAmount, FUNGIBLE);\r\n        } else {\r\n            emit CampaignToppedUp(campaignAddress, tokenAmount, FUNGIBLE);\r\n        }\r\n\r\n        emit FungibleTokenBalanceUpdated(campaigner, tokenId, updatedBalance);\r\n        return updatedBalance;\r\n    }\r\n\r\n    /**\r\n     * @dev Close a campaign with HBAR\r\n     * @param campaignAddress The db address of the campaign\r\n     * @param campaignExpiryTime The expiry time of the campaign in seconds\r\n     */\r\n    function closeCampaign(\r\n        string memory campaignAddress,\r\n        uint256 campaignExpiryTime\r\n    ) public onlyOwner {\r\n        require(\r\n            bytes(campaignAddress).length > 0,\r\n            ERR_INVALID_CAMPAIGN_ADDRESS\r\n        );\r\n        require(campaignExpiryTime > 0, ERR_INVALID_EXPIRY_TIME);\r\n        require(\r\n            !isCampaignClosed[campaignAddress][HBAR],\r\n            ERR_TCAMPAIGN_ALREADY_CLOSED\r\n        );\r\n\r\n        isCampaignClosed[campaignAddress][HBAR] = true;\r\n        campaignEndTime[campaignAddress][HBAR] =\r\n            block.timestamp +\r\n            campaignExpiryTime;\r\n        emit campaignClosed(campaignAddress, HBAR);\r\n    }\r\n\r\n    /**\r\n     * @dev Close a campaign with fungible tokens\r\n     * @param campaignAddress The db address of the campaign\r\n     * @param campaignExpiryTime The expiry time of the campaign in seconds\r\n     */\r\n    function closeFungibleCampaign(\r\n        string memory campaignAddress,\r\n        uint256 campaignExpiryTime\r\n    ) public onlyOwner {\r\n        require(\r\n            bytes(campaignAddress).length > 0,\r\n            ERR_INVALID_CAMPAIGN_ADDRESS\r\n        );\r\n        require(campaignExpiryTime > 0, ERR_INVALID_EXPIRY_TIME);\r\n        require(\r\n            !isCampaignClosed[campaignAddress][FUNGIBLE],\r\n            ERR_TCAMPAIGN_ALREADY_CLOSED\r\n        );\r\n\r\n        isCampaignClosed[campaignAddress][FUNGIBLE] = true;\r\n        campaignEndTime[campaignAddress][FUNGIBLE] =\r\n            block.timestamp +\r\n            campaignExpiryTime;\r\n\r\n        emit campaignClosed(campaignAddress, FUNGIBLE);\r\n    }\r\n\r\n    /**\r\n     * @dev Distribute HBAR tokens to the campaigner\r\n     * @param campaigner The solidity address of the campaigner or wallet address\r\n     * @param campaignAddress The db address of the campaign\r\n     * @param totalAmount The total amount of tokens to be distributed\r\n     */\r\n    function adjustTotalReward(\r\n        address campaigner,\r\n        string memory campaignAddress,\r\n        uint256 totalAmount\r\n    ) external onlyOwner returns (uint256) {\r\n        require(isCampaigner(campaigner), ERR_CAMPAIGNER_NOT_ALLOWED);\r\n        require(\r\n            bytes(campaignAddress).length > 0,\r\n            ERR_INVALID_CAMPAIGN_ADDRESS\r\n        );\r\n        require(totalAmount > 0, ERR_TOTAL_AMOUNT_MUST_BE_GREATER_THAN_ZERO);\r\n        require(\r\n            isCampaignClosed[campaignAddress][HBAR],\r\n            ERR_CAMPAIGN_NOT_CLOSED\r\n        );\r\n        require(\r\n            campaignBalances[campaignAddress] >= totalAmount,\r\n            \"Insufficient campaign balance\"\r\n        );\r\n\r\n        // Deduct the distributed amount from the campaign's balance\r\n        campaignBalances[campaignAddress] -= totalAmount;\r\n        uint256 remainingBalance = campaignBalances[campaignAddress];\r\n\r\n        emit RewardsDistributed(campaignAddress, totalAmount, remainingBalance);\r\n        return remainingBalance;\r\n    }\r\n    /**\r\n     * @dev Distribute fungible tokens to the campaigner\r\n     * @param tokenId The address of the token in solidity format\r\n     * @param campaigner The solidity address of the campaigner or wallet address\r\n     * @param campaignAddress The db address of the campaign\r\n     * @param tokenTotalAmount The total amount of tokens to be distributed\r\n     */\r\n    function adjustTotalFungibleReward(\r\n        address tokenId,\r\n        address campaigner,\r\n        string memory campaignAddress,\r\n        uint256 tokenTotalAmount\r\n    ) external onlyOwner returns (uint256) {\r\n        require(isTokenWhitelisted(tokenId), ERR_TOKEN_NOT_WHITELISTED);\r\n        require(isCampaigner(campaigner), ERR_CAMPAIGNER_NOT_ALLOWED);\r\n        require(\r\n            bytes(campaignAddress).length > 0,\r\n            ERR_INVALID_CAMPAIGN_ADDRESS\r\n        );\r\n        require(\r\n            tokenTotalAmount > 0,\r\n            ERR_TOTAL_AMOUNT_MUST_BE_GREATER_THAN_ZERO\r\n        );\r\n        require(\r\n            isCampaignClosed[campaignAddress][FUNGIBLE],\r\n            ERR_CAMPAIGN_NOT_CLOSED\r\n        );\r\n\r\n        // Deduct the distributed amount from the campaign's balance\r\n        tokenCampaignBalances[campaignAddress][tokenId][\r\n            FUNGIBLE\r\n        ] -= tokenTotalAmount;\r\n        uint256 remainingBalance = tokenCampaignBalances[campaignAddress][\r\n            tokenId\r\n        ][FUNGIBLE];\r\n\r\n        emit RewardsDistributed(\r\n            campaignAddress,\r\n            uint256(tokenTotalAmount),\r\n            remainingBalance\r\n        );\r\n\r\n        return uint256(remainingBalance);\r\n    }\r\n\r\n    /**\r\n     * @dev Expiry a campaign with fungible tokens campaigns only\r\n     * @param campaignAddress The db address of the campaign\r\n     * @param tokenId The address of the token in solidity format\r\n     * @param campaigner The solidity address of the campaigner or wallet address\r\n     */\r\n    function expiryFungibleCampaign(\r\n        address tokenId,\r\n        string memory campaignAddress,\r\n        address campaigner\r\n    ) public onlyOwner returns (uint256) {\r\n        require(tokenId != address(0), ERR_INVALID_TOKEN_ADDRESS);\r\n        require(isTokenWhitelisted(tokenId), ERR_TOKEN_NOT_WHITELISTED);\r\n        require(\r\n            bytes(campaignAddress).length > 0,\r\n            ERR_INVALID_CAMPAIGN_ADDRESS\r\n        );\r\n        require(isCampaigner(campaigner), ERR_CAMPAIGNER_NOT_ALLOWED);\r\n        require(\r\n            isCampaignClosed[campaignAddress][FUNGIBLE],\r\n            ERR_CAMPAIGN_NOT_CLOSED\r\n        );\r\n        require(\r\n            block.timestamp > campaignEndTime[campaignAddress][FUNGIBLE],\r\n            ERR_CAMPAIGN_EXPIRY_TIME_NOT_PASSED\r\n        );\r\n\r\n        tokenBalances[campaigner][tokenId][FUNGIBLE] += tokenCampaignBalances[\r\n            campaignAddress\r\n        ][tokenId][FUNGIBLE];\r\n        tokenCampaignBalances[campaignAddress][tokenId][FUNGIBLE] = 0;\r\n\r\n        uint256 updatedBalance = tokenBalances[campaigner][tokenId][FUNGIBLE];\r\n        emit campaignExpired(campaignAddress, FUNGIBLE);\r\n\r\n        return updatedBalance;\r\n    }\r\n\r\n    /**\r\n     * @dev Expiry a campaign with HBAR\r\n     * @param campaignAddress The db address of the campaign\r\n     * @param campaigner The solidity address of the campaigner or wallet address\r\n     */\r\n    function expiryCampaign(\r\n        string memory campaignAddress,\r\n        address campaigner\r\n    ) public onlyOwner returns (uint256) {\r\n        require(\r\n            bytes(campaignAddress).length > 0,\r\n            ERR_INVALID_CAMPAIGN_ADDRESS\r\n        );\r\n        require(isCampaigner(campaigner), ERR_CAMPAIGNER_NOT_ALLOWED);\r\n\r\n        require(\r\n            isCampaignClosed[campaignAddress][HBAR],\r\n            ERR_CAMPAIGN_NOT_CLOSED\r\n        );\r\n        require(\r\n            block.timestamp > campaignEndTime[campaignAddress][HBAR],\r\n            ERR_CAMPAIGN_EXPIRY_TIME_NOT_PASSED\r\n        );\r\n\r\n        balances[campaigner] += campaignBalances[campaignAddress];\r\n        campaignBalances[campaignAddress] = 0;\r\n        uint256 updatedBalance = balances[campaigner];\r\n\r\n        emit campaignExpired(campaignAddress, HBAR);\r\n\r\n        return updatedBalance;\r\n    }\r\n}\r\n",
  "sourcePath": "D:\\rajatk\\hashbuzz-staging\\smv201\\contracts\\HashbuzzModules\\CampaignLifecycle.sol",
  "compiler": {
    "name": "solc",
    "version": "0.8.17+commit.8df45f5f.Emscripten.clang"
  },
  "schemaVersion": "3.4.16",
  "updatedAt": "2024-11-15T16:56:42.411Z",
  "devdoc": {
    "details": "This contract manages the campaign's lifecycle calls and state changes.",
    "kind": "dev",
    "methods": {
      "addCampaignOrTopUp(string,address,uint256)": {
        "details": "Add a new campaign or top up an existing campaign",
        "params": {
          "amount": "The amount to be allocated to the campaign from the campaigner's balance.",
          "campaignAddress": "The db address of the campaign",
          "campaigner": "The solidity address of the campaigner or wallet address"
        }
      },
      "addCampaigner(address)": {
        "details": "Whitelist cmapigner to the user.",
        "params": {
          "newCampaigner": "Address of the user having campaigner role to be used here"
        }
      },
      "addFungibleCampaign(address,string,address,uint256)": {
        "details": "Add a new campaign for fungible tokens or top up an existing campaign",
        "params": {
          "campaignAddress": "The db address of the campaign",
          "campaigner": "The solidity address of the campaigner or wallet address",
          "tokenAmount": "The amount of tokens to be allocated to the campaign",
          "tokenId": "The address of the token in solidity format"
        }
      },
      "adjustTotalFungibleReward(address,address,string,uint256)": {
        "details": "Distribute fungible tokens to the campaigner",
        "params": {
          "campaignAddress": "The db address of the campaign",
          "campaigner": "The solidity address of the campaigner or wallet address",
          "tokenId": "The address of the token in solidity format",
          "tokenTotalAmount": "The total amount of tokens to be distributed"
        }
      },
      "adjustTotalReward(address,string,uint256)": {
        "details": "Distribute HBAR tokens to the campaigner",
        "params": {
          "campaignAddress": "The db address of the campaign",
          "campaigner": "The solidity address of the campaigner or wallet address",
          "totalAmount": "The total amount of tokens to be distributed"
        }
      },
      "associateToken(address,bool)": {
        "details": "Adds or removes a token from the whitelist.",
        "params": {
          "isWhitelisted": "Boolean flag to mark the token as whitelisted or not.",
          "tokenAddress": "The address of the token."
        }
      },
      "closeCampaign(string,uint256)": {
        "details": "Close a campaign with HBAR",
        "params": {
          "campaignAddress": "The db address of the campaign",
          "campaignExpiryTime": "The expiry time of the campaign in seconds"
        }
      },
      "closeFungibleCampaign(string,uint256)": {
        "details": "Close a campaign with fungible tokens",
        "params": {
          "campaignAddress": "The db address of the campaign",
          "campaignExpiryTime": "The expiry time of the campaign in seconds"
        }
      },
      "expiryCampaign(string,address)": {
        "details": "Expiry a campaign with HBAR",
        "params": {
          "campaignAddress": "The db address of the campaign",
          "campaigner": "The solidity address of the campaigner or wallet address"
        }
      },
      "expiryFungibleCampaign(address,string,address)": {
        "details": "Expiry a campaign with fungible tokens campaigns only",
        "params": {
          "campaignAddress": "The db address of the campaign",
          "campaigner": "The solidity address of the campaigner or wallet address",
          "tokenId": "The address of the token in solidity format"
        }
      },
      "getAllWhitelistedTokens()": {
        "details": "Retrieves all whitelisted addresses for a given token type.",
        "returns": {
          "_0": "An array of addresses that are whitelisted for the given token type."
        }
      },
      "getCampaignBalance(string)": {
        "details": "Balance held by the user to see.",
        "params": {
          "campaignAddress": "Solidity address of the campaigner."
        }
      },
      "getFungibleTokenBalance(address,address)": {
        "details": "Retrieves the balance of a fungible token for a specific campaigner.",
        "params": {
          "campaigner": "Address of the campaigner's solidity address.",
          "tokenId": "Solidity address used for the account."
        },
        "returns": {
          "res": "The balance of the fungible token."
        }
      },
      "getHbarBalance(address)": {
        "details": "Balance holded by the user to see.",
        "params": {
          "campaigner": "Solidity address of the campaigner."
        }
      },
      "isTokenWhitelisted(address)": {
        "details": "Checks if a specific token address is whitelisted for a given token type.",
        "params": {
          "tokenAddress": "The address of the token to check."
        },
        "returns": {
          "_0": "Boolean flag indicating if the token is whitelisted."
        }
      }
    },
    "title": "CampaignLifecycle",
    "version": 1
  },
  "userdoc": {
    "kind": "user",
    "methods": {},
    "version": 1
  }
}