{
  "contractName": "Transactions",
  "abi": [
    {
      "anonymous": false,
      "inputs": [
        {
          "indexed": false,
          "internalType": "address",
          "name": "campaigner",
          "type": "address"
        },
        {
          "indexed": false,
          "internalType": "uint256",
          "name": "updatedBalance",
          "type": "uint256"
        }
      ],
      "name": "BalanceUpdated",
      "type": "event"
    },
    {
      "anonymous": false,
      "inputs": [
        {
          "indexed": false,
          "internalType": "address",
          "name": "campaigner",
          "type": "address"
        }
      ],
      "name": "CampaignerAdded",
      "type": "event"
    },
    {
      "anonymous": false,
      "inputs": [
        {
          "indexed": false,
          "internalType": "address",
          "name": "campaigner",
          "type": "address"
        }
      ],
      "name": "CampaignerDeleted",
      "type": "event"
    },
    {
      "anonymous": false,
      "inputs": [
        {
          "indexed": false,
          "internalType": "address",
          "name": "tokenAddress",
          "type": "address"
        }
      ],
      "name": "CreatedToken",
      "type": "event"
    },
    {
      "anonymous": false,
      "inputs": [
        {
          "indexed": false,
          "internalType": "address",
          "name": "campaigner",
          "type": "address"
        },
        {
          "indexed": false,
          "internalType": "uint256",
          "name": "amount",
          "type": "uint256"
        }
      ],
      "name": "FundsDeposited",
      "type": "event"
    },
    {
      "anonymous": false,
      "inputs": [
        {
          "indexed": false,
          "internalType": "address",
          "name": "campaigner",
          "type": "address"
        },
        {
          "indexed": false,
          "internalType": "uint256",
          "name": "amount",
          "type": "uint256"
        }
      ],
      "name": "FundsWithdrawn",
      "type": "event"
    },
    {
      "anonymous": false,
      "inputs": [
        {
          "indexed": false,
          "internalType": "address",
          "name": "campaigner",
          "type": "address"
        },
        {
          "indexed": false,
          "internalType": "address",
          "name": "tokenId",
          "type": "address"
        },
        {
          "indexed": false,
          "internalType": "uint64",
          "name": "updatedBalance",
          "type": "uint64"
        }
      ],
      "name": "FungibleTokenBalanceUpdated",
      "type": "event"
    },
    {
      "anonymous": false,
      "inputs": [
        {
          "indexed": false,
          "internalType": "address",
          "name": "campaigner",
          "type": "address"
        },
        {
          "indexed": false,
          "internalType": "uint64",
          "name": "amount",
          "type": "uint64"
        }
      ],
      "name": "FungibleTokenDeposited",
      "type": "event"
    },
    {
      "anonymous": false,
      "inputs": [
        {
          "indexed": false,
          "internalType": "address",
          "name": "interactor",
          "type": "address"
        },
        {
          "indexed": false,
          "internalType": "address",
          "name": "campaigner",
          "type": "address"
        },
        {
          "indexed": false,
          "internalType": "uint256",
          "name": "amount",
          "type": "uint256"
        }
      ],
      "name": "InteractorPaid",
      "type": "event"
    },
    {
      "anonymous": false,
      "inputs": [
        {
          "indexed": false,
          "internalType": "string",
          "name": "campaignAddress",
          "type": "string"
        },
        {
          "indexed": false,
          "internalType": "uint256",
          "name": "amount",
          "type": "uint256"
        }
      ],
      "name": "InteractorPaidDeferred",
      "type": "event"
    },
    {
      "anonymous": false,
      "inputs": [
        {
          "indexed": false,
          "internalType": "string",
          "name": "campaignAdddress",
          "type": "string"
        },
        {
          "indexed": false,
          "internalType": "uint256",
          "name": "amount",
          "type": "uint256"
        },
        {
          "indexed": false,
          "internalType": "uint32",
          "name": "campaignType",
          "type": "uint32"
        }
      ],
      "name": "NewCampaignIsAdded",
      "type": "event"
    },
    {
      "anonymous": false,
      "inputs": [
        {
          "indexed": false,
          "internalType": "address",
          "name": "owner",
          "type": "address"
        }
      ],
      "name": "OwnerSet",
      "type": "event"
    },
    {
      "anonymous": false,
      "inputs": [
        {
          "indexed": false,
          "internalType": "int256",
          "name": "responseCode",
          "type": "int256"
        }
      ],
      "name": "ResponseCode",
      "type": "event"
    },
    {
      "anonymous": false,
      "inputs": [
        {
          "indexed": false,
          "internalType": "string",
          "name": "campaignAddress",
          "type": "string"
        },
        {
          "indexed": false,
          "internalType": "uint32",
          "name": "campaignType",
          "type": "uint32"
        }
      ],
      "name": "campaignClosed",
      "type": "event"
    },
    {
      "anonymous": false,
      "inputs": [
        {
          "indexed": false,
          "internalType": "string",
          "name": "campaignAddress",
          "type": "string"
        },
        {
          "indexed": false,
          "internalType": "uint32",
          "name": "campaignType",
          "type": "uint32"
        }
      ],
      "name": "campaignExpired",
      "type": "event"
    },
    {
      "inputs": [],
      "name": "FUNGIBLE",
      "outputs": [
        {
          "internalType": "uint32",
          "name": "",
          "type": "uint32"
        }
      ],
      "stateMutability": "view",
      "type": "function"
    },
    {
      "inputs": [],
      "name": "HBAR",
      "outputs": [
        {
          "internalType": "uint32",
          "name": "",
          "type": "uint32"
        }
      ],
      "stateMutability": "view",
      "type": "function"
    },
    {
      "inputs": [],
      "name": "NFT",
      "outputs": [
        {
          "internalType": "uint32",
          "name": "",
          "type": "uint32"
        }
      ],
      "stateMutability": "view",
      "type": "function"
    },
    {
      "inputs": [
        {
          "internalType": "address",
          "name": "newCampaigner",
          "type": "address"
        }
      ],
      "name": "addCampaigner",
      "outputs": [],
      "stateMutability": "nonpayable",
      "type": "function"
    },
    {
      "inputs": [
        {
          "internalType": "address",
          "name": "tokenAddress",
          "type": "address"
        },
        {
          "internalType": "uint32",
          "name": "tokenType",
          "type": "uint32"
        },
        {
          "internalType": "bool",
          "name": "isWhitelisted",
          "type": "bool"
        }
      ],
      "name": "associateToken",
      "outputs": [],
      "stateMutability": "nonpayable",
      "type": "function"
    },
    {
      "inputs": [
        {
          "internalType": "address",
          "name": "",
          "type": "address"
        }
      ],
      "name": "balances",
      "outputs": [
        {
          "internalType": "uint256",
          "name": "",
          "type": "uint256"
        }
      ],
      "stateMutability": "view",
      "type": "function"
    },
    {
      "inputs": [
        {
          "internalType": "string",
          "name": "",
          "type": "string"
        }
      ],
      "name": "campaignBalances",
      "outputs": [
        {
          "internalType": "uint256",
          "name": "",
          "type": "uint256"
        }
      ],
      "stateMutability": "view",
      "type": "function"
    },
    {
      "inputs": [
        {
          "internalType": "string",
          "name": "",
          "type": "string"
        }
      ],
      "name": "campaignRandomNumber",
      "outputs": [
        {
          "internalType": "uint32",
          "name": "",
          "type": "uint32"
        }
      ],
      "stateMutability": "view",
      "type": "function"
    },
    {
      "inputs": [
        {
          "internalType": "uint32",
          "name": "tokenType",
          "type": "uint32"
        }
      ],
      "name": "getAllWhitelistedTokens",
      "outputs": [
        {
          "internalType": "address[]",
          "name": "",
          "type": "address[]"
        }
      ],
      "stateMutability": "view",
      "type": "function"
    },
    {
      "inputs": [
        {
          "internalType": "string",
          "name": "campaignAddress",
          "type": "string"
        }
      ],
      "name": "getCampaignBalance",
      "outputs": [
        {
          "internalType": "uint256",
          "name": "",
          "type": "uint256"
        }
      ],
      "stateMutability": "view",
      "type": "function"
    },
    {
      "inputs": [
        {
          "internalType": "address",
          "name": "campaigner",
          "type": "address"
        },
        {
          "internalType": "address",
          "name": "tokenId",
          "type": "address"
        },
        {
          "internalType": "uint32",
          "name": "tokenType",
          "type": "uint32"
        }
      ],
      "name": "getFungibleTokenBalance",
      "outputs": [
        {
          "internalType": "uint64",
          "name": "res",
          "type": "uint64"
        }
      ],
      "stateMutability": "view",
      "type": "function"
    },
    {
      "inputs": [
        {
          "internalType": "address",
          "name": "campaigner",
          "type": "address"
        },
        {
          "internalType": "address",
          "name": "tokenId",
          "type": "address"
        },
        {
          "internalType": "uint32",
          "name": "tokenType",
          "type": "uint32"
        }
      ],
      "name": "getNFTTokenBalance",
      "outputs": [
        {
          "internalType": "uint64",
          "name": "res",
          "type": "uint64"
        }
      ],
      "stateMutability": "view",
      "type": "function"
    },
    {
      "inputs": [],
      "name": "id",
      "outputs": [
        {
          "internalType": "uint32",
          "name": "",
          "type": "uint32"
        }
      ],
      "stateMutability": "view",
      "type": "function"
    },
    {
      "inputs": [
        {
          "internalType": "uint32",
          "name": "tokenType",
          "type": "uint32"
        },
        {
          "internalType": "address",
          "name": "tokenAddress",
          "type": "address"
        }
      ],
      "name": "isTokenWhitelisted",
      "outputs": [
        {
          "internalType": "bool",
          "name": "",
          "type": "bool"
        }
      ],
      "stateMutability": "view",
      "type": "function"
    },
    {
      "inputs": [
        {
          "internalType": "address",
          "name": "",
          "type": "address"
        }
      ],
      "name": "nftCampaigner",
      "outputs": [
        {
          "internalType": "uint32",
          "name": "",
          "type": "uint32"
        }
      ],
      "stateMutability": "view",
      "type": "function"
    },
    {
      "inputs": [
        {
          "internalType": "address",
          "name": "",
          "type": "address"
        }
      ],
      "name": "rewardBalances",
      "outputs": [
        {
          "internalType": "uint256",
          "name": "",
          "type": "uint256"
        }
      ],
      "stateMutability": "view",
      "type": "function"
    },
    {
      "inputs": [
        {
          "internalType": "address",
          "name": "",
          "type": "address"
        },
        {
          "internalType": "address",
          "name": "",
          "type": "address"
        },
        {
          "internalType": "uint256",
          "name": "",
          "type": "uint256"
        }
      ],
      "name": "rewardTokenBalances",
      "outputs": [
        {
          "internalType": "uint64",
          "name": "",
          "type": "uint64"
        }
      ],
      "stateMutability": "view",
      "type": "function"
    },
    {
      "inputs": [
        {
          "internalType": "address",
          "name": "",
          "type": "address"
        },
        {
          "internalType": "address",
          "name": "",
          "type": "address"
        },
        {
          "internalType": "uint256",
          "name": "",
          "type": "uint256"
        }
      ],
      "name": "tokenBalances",
      "outputs": [
        {
          "internalType": "uint64",
          "name": "",
          "type": "uint64"
        }
      ],
      "stateMutability": "view",
      "type": "function"
    },
    {
      "inputs": [
        {
          "internalType": "string",
          "name": "",
          "type": "string"
        },
        {
          "internalType": "address",
          "name": "",
          "type": "address"
        },
        {
          "internalType": "uint256",
          "name": "",
          "type": "uint256"
        }
      ],
      "name": "tokenCampaignBalances",
      "outputs": [
        {
          "internalType": "uint64",
          "name": "",
          "type": "uint64"
        }
      ],
      "stateMutability": "view",
      "type": "function"
    },
    {
      "inputs": [
        {
          "internalType": "uint32",
          "name": "",
          "type": "uint32"
        },
        {
          "internalType": "address",
          "name": "",
          "type": "address"
        }
      ],
      "name": "whitelistedToken",
      "outputs": [
        {
          "internalType": "bool",
          "name": "",
          "type": "bool"
        }
      ],
      "stateMutability": "view",
      "type": "function"
    },
    {
      "inputs": [
        {
          "internalType": "address",
          "name": "campaigner",
          "type": "address"
        },
        {
          "internalType": "uint256",
          "name": "amount",
          "type": "uint256"
        },
        {
          "internalType": "bool",
          "name": "deposit",
          "type": "bool"
        }
      ],
      "name": "updateBalance",
      "outputs": [
        {
          "internalType": "uint256",
          "name": "",
          "type": "uint256"
        }
      ],
      "stateMutability": "nonpayable",
      "type": "function"
    },
    {
      "inputs": [
        {
          "internalType": "address",
          "name": "campaigner",
          "type": "address"
        },
        {
          "internalType": "address",
          "name": "tokenId",
          "type": "address"
        },
        {
          "internalType": "int64",
          "name": "tokenAmount",
          "type": "int64"
        }
      ],
      "name": "addFungibleAmount",
      "outputs": [
        {
          "internalType": "int64",
          "name": "",
          "type": "int64"
        }
      ],
      "stateMutability": "nonpayable",
      "type": "function"
    },
    {
      "inputs": [
        {
          "internalType": "address",
          "name": "tokenId",
          "type": "address"
        },
        {
          "internalType": "address",
          "name": "campaigner",
          "type": "address"
        },
        {
          "internalType": "int64",
          "name": "amount",
          "type": "int64"
        },
        {
          "internalType": "uint32",
          "name": "tokenType",
          "type": "uint32"
        }
      ],
      "name": "reimburseBalanceForFungible",
      "outputs": [
        {
          "internalType": "int64",
          "name": "",
          "type": "int64"
        }
      ],
      "stateMutability": "nonpayable",
      "type": "function"
    }
  ],
  "bytecode": "0x6080604052600d805463ffffffff1916600117905534801561002057600080fd5b5061181b806100306000396000f3fe608060405234801561001057600080fd5b506004361061014c5760003560e01c8063734247e4116100c3578063bde81c0b1161007c578063bde81c0b146103b8578063bff31996146103cd578063c1cde80c146103e0578063cfe3f9a814610400578063d84c0e2714610431578063f4ff52ae1461044457600080fd5b8063734247e41461033f578063774256c7146103525780637c0b8de21461035a57806393c8dc6d14610362578063af640d0f14610382578063bc3ef1e91461039257600080fd5b8063362e34b911610115578063362e34b91461026d57806341228803146102ab5780634377e3ff146102be5780634a3b1152146102db5780634f18230d146102ee5780636124ec261461031957600080fd5b80625405211461015157806305346ac5146101b857806327e235e3146101cb578063307869dd146101f95780633262af5414610233575b600080fd5b61019b61015f366004611343565b8251602081850181018051600982529282019582019590952091909452835260009182526040808320909352815220546001600160401b031681565b6040516001600160401b0390911681526020015b60405180910390f35b61019b6101c63660046113ad565b610457565b6101eb6101d93660046113f0565b60026020526000908152604090205481565b6040519081526020016101af565b61019b610207366004611412565b60066020908152600093845260408085208252928452828420905282529020546001600160401b031681565b61019b610241366004611412565b60076020908152600093845260408085208252928452828420905282529020546001600160401b031681565b61029b61027b36600461143e565b600460209081526000928352604080842090915290825290205460ff1681565b60405190151581526020016101af565b6101eb6102b9366004611481565b610522565b6102c6600181565b60405163ffffffff90911681526020016101af565b6101eb6102e93660046114b4565b610674565b6101eb6102fc3660046114b4565b805160208183018101805160088252928201919093012091525481565b61032c610327366004611502565b6106d5565b60405160079190910b81526020016101af565b61032c61034d366004611556565b6108d4565b6102c6600081565b6102c6600281565b6101eb6103703660046113f0565b60036020526000908152604090205481565b600d546102c69063ffffffff1681565b6102c66103a03660046113f0565b600b6020526000908152604090205463ffffffff1681565b6103cb6103c6366004611590565b610a91565b005b6103cb6103db3660046113f0565b610d83565b6103f36103ee3660046115ca565b610ebc565b6040516101af91906115e5565b6102c661040e3660046114b4565b8051602081830181018051600e8252928201919093012091525463ffffffff1681565b61019b61043f3660046113ad565b610f8b565b61029b61045236600461143e565b6110b4565b600080546001600160a01b03163314806104755750610475336110e8565b61049a5760405162461bcd60e51b815260040161049190611632565b60405180910390fd5b63ffffffff82166002146104e35760405162461bcd60e51b815260206004820152601060248201526f151bdad95b881a5cc81b9bdd0813919560821b6044820152606401610491565b50506001600160a01b0391821660009081526006602090815260408083209390941682529182528281206002825290915220546001600160401b031690565b600080546001600160a01b0316331461054d5760405162461bcd60e51b815260040161049190611699565b6001600160a01b0384166105a35760405162461bcd60e51b815260206004820152601a60248201527f496e76616c69642063616d706169676e657220616464726573730000000000006044820152606401610491565b6105ac846110e8565b6105f85760405162461bcd60e51b815260206004820152601860248201527f43616d706169676e6572206973206e6f74206c697374656400000000000000006044820152606401610491565b811561060d576106088484611106565b610617565b61061784846111a2565b6001600160a01b038416600081815260026020908152604091829020548251938452908301819052917f8ad64a0ac7700dd8425ab0499f107cb6e2cd1581d803c5b8c1c79dcb8190b1af91015b60405180910390a1949350505050565b600080546001600160a01b03163314806106925750610692336110e8565b6106ae5760405162461bcd60e51b815260040161049190611632565b6008826040516106be91906116ee565b90815260200160405180910390205490505b919050565b600080546001600160a01b031633146107005760405162461bcd60e51b815260040161049190611699565b63ffffffff821660011461074e5760405162461bcd60e51b8152602060048201526015602482015274546f6b656e206973206e6f742066756e6769626c6560581b6044820152606401610491565b6001600160a01b038085166000908152600660209081526040808320938916835292815282822060018352905220546001600160401b03808516911610156107ea5760405162461bcd60e51b815260206004820152602960248201527f496e73756666696369656e742066756e642072657175657374656420666f72206044820152687265696d627572736560b81b6064820152608401610491565b6001600160a01b038085166000908152600660209081526040808320938916835292815282822060018352905290812080548592906108339084906001600160401b0316611733565b82546101009290920a6001600160401b038181021990931691831602179091556001600160a01b038681166000818152600660209081526040808320948c1680845294825280832060018452825291829020548251938452908301939093529190921690820181905291507f2fa1a54f364a5a61a29da95bf0632455b2fb41ab6434ad448e6432058203bffc9060600160405180910390a195945050505050565b600080546001600160a01b031633146108ff5760405162461bcd60e51b815260040161049190611699565b610908846110e8565b6109545760405162461bcd60e51b815260206004820152601960248201527f43616d706169676e6572206973206e6f74206c69737465642e000000000000006044820152606401610491565b6001600160a01b0380851660009081526006602090815260408083209387168352928152828220600183529052908120805484929061099d9084906001600160401b031661175a565b92506101000a8154816001600160401b0302191690836001600160401b031602179055507fc7a2e037ca848c5f8478afbc374474f095ffe9245e2b0e5deccc07b623e4eb738483604051610a0f9291906001600160a01b039290921682526001600160401b0316602082015260400190565b60405180910390a16001600160a01b03848116600081815260066020908152604080832094881680845294825280832060018452825291829020548251938452908301939093526001600160401b039092169181018290527f2fa1a54f364a5a61a29da95bf0632455b2fb41ab6434ad448e6432058203bffc90606001610664565b6000546001600160a01b03163314610abb5760405162461bcd60e51b815260040161049190611699565b63ffffffff821660011480610ad6575063ffffffff82166002145b610b175760405162461bcd60e51b8152602060048201526012602482015271496e76616c696420746f6b656e207479706560701b6044820152606401610491565b808015610b4e575063ffffffff821660009081526004602090815260408083206001600160a01b038716845290915290205460ff16155b15610bb6575063ffffffff1660008181526004602090815260408083206001600160a01b0395909516808452948252808320805460ff1916600190811790915593835260058252822080549384018155825290200180546001600160a01b0319169091179055565b80158015610bed575063ffffffff821660009081526004602090815260408083206001600160a01b038716845290915290205460ff165b15610d7e5763ffffffff821660008181526004602090815260408083206001600160a01b03881684528252808320805460ff191690559282526005905290812054905b81811015610d7b5763ffffffff8416600090815260056020526040902080546001600160a01b038716919083908110610c6b57610c6b61177a565b6000918252602090912001546001600160a01b031603610d695763ffffffff84166000908152600560205260409020610ca5600184611790565b81548110610cb557610cb561177a565b600091825260208083209091015463ffffffff871683526005909152604090912080546001600160a01b039092169183908110610cf457610cf461177a565b600091825260208083209190910180546001600160a01b0319166001600160a01b03949094169390931790925563ffffffff86168152600590915260409020805480610d4257610d426117a3565b600082815260209020810160001990810180546001600160a01b0319169055019055610d7b565b80610d73816117b9565b915050610c30565b50505b505050565b6000546001600160a01b03163314610dad5760405162461bcd60e51b815260040161049190611699565b6001600160a01b038116610e035760405162461bcd60e51b815260206004820152601a60248201527f496e76616c69642063616d706169676e657220616464726573730000000000006044820152606401610491565b610e0c816110e8565b610e585760405162461bcd60e51b815260206004820152601960248201527f43616d706169676e657220616c726561647920657869737473000000000000006044820152606401610491565b6001600160a01b0381166000818152600160208181526040808420805460ff19169093179092556002815281832092909255519182527f3d04fb94919fdfa7708320cdebdf093992d88d792b3d5f4144c364cda00129c6910160405180910390a150565b606063ffffffff821660011480610ed9575063ffffffff82166002145b610f1a5760405162461bcd60e51b8152602060048201526012602482015271496e76616c696420746f6b656e207479706560701b6044820152606401610491565b63ffffffff821660009081526005602090815260409182902080548351818402810184019094528084529091830182828015610f7f57602002820191906000526020600020905b81546001600160a01b03168152600190910190602001808311610f61575b50505050509050919050565b600080546001600160a01b0316331480610fa95750610fa9336110e8565b610fc55760405162461bcd60e51b815260040161049190611632565b63ffffffff82166001146110135760405162461bcd60e51b8152602060048201526015602482015274546f6b656e206973206e6f742066756e6769626c6560581b6044820152606401610491565b61101e6001846110b4565b6110755760405162461bcd60e51b815260206004820152602260248201527f52657175657374656420746f6b656e206973206e6f742077686974656c697374604482015261195960f21b6064820152608401610491565b50506001600160a01b0391821660009081526006602090815260408083209390941682529182528281206001825290915220546001600160401b031690565b63ffffffff821660009081526004602090815260408083206001600160a01b038516845290915290205460ff165b92915050565b6001600160a01b031660009081526001602052604090205460ff1690565b6001600160a01b038216600090815260026020526040812054900361112e5761112e82610d83565b6001600160a01b038216600090815260026020526040812080548392906111569084906117d2565b9091555050604080516001600160a01b0384168152602081018390527f543ba50a5eec5e6178218e364b1d0f396157b3c8fa278522c2cb7fd99407d47491015b60405180910390a15050565b6001600160a01b03821660009081526002602052604090205481111561121e5760405162461bcd60e51b815260206004820152602b60248201527f496e73756666696369656e742062616c616e636520726571756573746564206660448201526a6f7220776974686472617760a81b6064820152608401610491565b6001600160a01b03821660009081526002602052604081208054839290611246908490611790565b9091555050604080516001600160a01b0384168152602081018390527feaff4b37086828766ad3268786972c0cd24259d4c87a80f9d3963a3c3d999b0d9101611196565b634e487b7160e01b600052604160045260246000fd5b600082601f8301126112b157600080fd5b81356001600160401b03808211156112cb576112cb61128a565b604051601f8301601f19908116603f011681019082821181831017156112f3576112f361128a565b8160405283815286602085880101111561130c57600080fd5b836020870160208301376000602085830101528094505050505092915050565b80356001600160a01b03811681146106d057600080fd5b60008060006060848603121561135857600080fd5b83356001600160401b0381111561136e57600080fd5b61137a868287016112a0565b9350506113896020850161132c565b9150604084013590509250925092565b803563ffffffff811681146106d057600080fd5b6000806000606084860312156113c257600080fd5b6113cb8461132c565b92506113d96020850161132c565b91506113e760408501611399565b90509250925092565b60006020828403121561140257600080fd5b61140b8261132c565b9392505050565b60008060006060848603121561142757600080fd5b6114308461132c565b92506113896020850161132c565b6000806040838503121561145157600080fd5b61145a83611399565b91506114686020840161132c565b90509250929050565b803580151581146106d057600080fd5b60008060006060848603121561149657600080fd5b61149f8461132c565b9250602084013591506113e760408501611471565b6000602082840312156114c657600080fd5b81356001600160401b038111156114dc57600080fd5b6114e8848285016112a0565b949350505050565b8035600781900b81146106d057600080fd5b6000806000806080858703121561151857600080fd5b6115218561132c565b935061152f6020860161132c565b925061153d604086016114f0565b915061154b60608601611399565b905092959194509250565b60008060006060848603121561156b57600080fd5b6115748461132c565b92506115826020850161132c565b91506113e7604085016114f0565b6000806000606084860312156115a557600080fd5b6115ae8461132c565b92506115bc60208501611399565b91506113e760408501611471565b6000602082840312156115dc57600080fd5b61140b82611399565b6020808252825182820181905260009190848201906040850190845b818110156116265783516001600160a01b031683529284019291840191600101611601565b50909695505050505050565b60208082526041908201527f556e617574686f72697a6520416363657373207265717565737465642c20436160408201527f6c6c6572206d757374206265206f776e6572206f722063616d706169676e65726060820152601760f91b608082015260a00190565b60208082526035908201527f556e617574686f72697a6520416363657373207265717565737465642c204361604082015274363632b91034b9903737ba103a34329037bbb732b960591b606082015260800190565b6000825160005b8181101561170f57602081860181015185830152016116f5565b506000920191825250919050565b634e487b7160e01b600052601160045260246000fd5b6001600160401b038281168282160390808211156117535761175361171d565b5092915050565b6001600160401b038181168382160190808211156117535761175361171d565b634e487b7160e01b600052603260045260246000fd5b818103818111156110e2576110e261171d565b634e487b7160e01b600052603160045260246000fd5b6000600182016117cb576117cb61171d565b5060010190565b808201808211156110e2576110e261171d56fea264697066735822122016392b762842a5bea6c65ffdc505de4bbd452126a1d3859042e2a75d9407e24f64736f6c63430008110033",
  "immutableReferences": {},
  "source": "// SPDX-License-Identifier: Apache-2.0\r\npragma solidity ^0.8.17;\r\n\r\nimport \"./HashbuzzStates.sol\";\r\nimport \"./Utils.sol\";\r\n\r\n/**\r\n * @dev This contract is used to store the state of the Hashbuzz contract\r\n * @title Transactions\r\n * @author Om Prakash\r\n * @notice Deals with operations related to transactions.\r\n */\r\ncontract Transactions is HashbuzzStates, Utils {\r\n    /** Deposite amount to user aaccount */\r\n    function handleDeposit(address campaigner, uint256 amount) internal {\r\n        if (balances[campaigner] == 0) {\r\n            addCampaigner(campaigner);\r\n        }\r\n        balances[campaigner] += amount;\r\n        emit FundsDeposited(campaigner, amount);\r\n    }\r\n\r\n    /** Hnalde Withdraw from user account */\r\n    function handleWithdrawal(address campaigner, uint256 amount) internal {\r\n        require(\r\n            balances[campaigner] >= amount,\r\n            \"Insufficient balance requested for withdraw\"\r\n        );\r\n        balances[campaigner] -= amount;\r\n        emit FundsWithdrawn(campaigner, amount);\r\n    }\r\n\r\n    /**\r\n     * @dev Topup and reimbersement cases\r\n     * @param campaigner campaigner solidity address\r\n     * @param amount  Amount being topuped\r\n     * @param deposit Boolean is here\r\n     */\r\n    function updateBalance(\r\n        address campaigner,\r\n        uint256 amount,\r\n        bool deposit\r\n    ) public onlyOwner returns (uint256) {\r\n        require(campaigner != address(0), \"Invalid campaigner address\");\r\n        require(isCampaigner(campaigner), \"Campaigner is not listed\");\r\n\r\n        if (deposit) {\r\n            handleDeposit(campaigner, amount);\r\n        } else {\r\n            handleWithdrawal(campaigner, amount);\r\n        }\r\n\r\n        uint256 updatedBalance = balances[campaigner];\r\n        emit BalanceUpdated(campaigner, updatedBalance);\r\n        return updatedBalance;\r\n    }\r\n\r\n    /**\r\n     * @dev Fungible token added to the campaigner account.\r\n     * @param campaigner Address soliduty address\r\n     * @param tokenId Address tokenId solidity address\r\n     * @param tokenAmount amount added to the cmapaigner account\r\n     */\r\n    function addFungibleAmount(\r\n        address campaigner,\r\n        address tokenId,\r\n        int64 tokenAmount\r\n    ) public onlyOwner returns (int64) {\r\n        require(isCampaigner(campaigner), \"Campaigner is not listed.\");\r\n        tokenBalances[campaigner][tokenId][FUNGIBLE] += uint64(\r\n            int64(tokenAmount)\r\n        );\r\n        emit FungibleTokenDeposited(campaigner, uint64(int64(tokenAmount)));\r\n\r\n        uint64 updatedBalance = tokenBalances[campaigner][tokenId][FUNGIBLE];\r\n        emit FungibleTokenBalanceUpdated(campaigner, tokenId, updatedBalance);\r\n        return int64(updatedBalance);\r\n    }\r\n\r\n    /**\r\n     * @dev This is function used for the  Reimbersing the cmapaigner balance\r\n     * @param tokenId  Token solidity address\r\n     * @param campaigner Campainer Address\r\n     * @param amount  Total amount campaigner wanted to reinverse\r\n     * @param tokenType The type of the token (FUNGIBLE or NFT) [uint32] (1 for FUNGIBLE & 2 for NFT)\r\n     */\r\n    function reimburseBalanceForFungible(\r\n        address tokenId,\r\n        address campaigner,\r\n        int64 amount,\r\n        uint32 tokenType\r\n    ) public onlyOwner returns (int64) {\r\n        require(tokenType == FUNGIBLE, \"Token is not fungible\");\r\n        require(\r\n            tokenBalances[campaigner][tokenId][FUNGIBLE] >= uint64(amount),\r\n            \"Insufficient fund requested for reimburse\"\r\n        );\r\n        tokenBalances[campaigner][tokenId][FUNGIBLE] -= uint64(amount);\r\n        uint64 updatedBalance = tokenBalances[campaigner][tokenId][FUNGIBLE];\r\n\r\n        emit FungibleTokenBalanceUpdated(campaigner, tokenId, updatedBalance);\r\n        return int64(updatedBalance);\r\n    }\r\n}\r\n",
  "sourcePath": "D:\\rajatk\\hashbuzz-staging\\smv201\\contracts\\HashbuzzModules\\Transactions.sol",
  "compiler": {
    "name": "solc",
    "version": "0.8.17+commit.8df45f5f.Emscripten.clang"
  },
  "schemaVersion": "3.4.16",
  "updatedAt": "2024-10-27T16:41:45.375Z",
  "devdoc": {
    "author": "Om Prakash",
    "details": "This contract is used to store the state of the Hashbuzz contract",
    "kind": "dev",
    "methods": {
      "addCampaigner(address)": {
        "details": "Whitelist cmapigner to the user.",
        "params": {
          "newCampaigner": "Address of the user having campaigner role to be used here"
        }
      },
      "addFungibleAmount(address,address,int64)": {
        "details": "Fungible token added to the campaigner account.",
        "params": {
          "campaigner": "Address soliduty address",
          "tokenAmount": "amount added to the cmapaigner account",
          "tokenId": "Address tokenId solidity address"
        }
      },
      "associateToken(address,uint32,bool)": {
        "details": "Adds or removes a token from the whitelist.",
        "params": {
          "isWhitelisted": "Boolean flag to mark the token as whitelisted or not.",
          "tokenAddress": "The address of the token.",
          "tokenType": "The type of the token (1 for FUNGIBLE, 2 for NFT)."
        }
      },
      "getAllWhitelistedTokens(uint32)": {
        "details": "Retrieves all whitelisted addresses for a given token type.",
        "params": {
          "tokenType": "The type of the token (1 for FUNGIBLE, 2 for NFT)."
        },
        "returns": {
          "_0": "An array of addresses that are whitelisted for the given token type."
        }
      },
      "getCampaignBalance(string)": {
        "details": "Balance holded by the user to see.",
        "params": {
          "campaignAddress": "Solidity address of the campaigner."
        }
      },
      "getFungibleTokenBalance(address,address,uint32)": {
        "params": {
          "campaigner": "Address of the campaigner'solidity address",
          "tokenId": "Solidity address used for the account",
          "tokenType": "The type of the token (FUNGIBLE or NFT) [uint32] (1 for FUNGIBLE & 2 for NFT)"
        }
      },
      "getNFTTokenBalance(address,address,uint32)": {
        "details": "Balance holded by the user to see.",
        "params": {
          "campaigner": "Solidity address of the campaigner.",
          "tokenId": "Solidity address of the token.",
          "tokenType": "The type of the token (FUNGIBLE or NFT) [uint32] (1 for FUNGIBLE & 2 for NFT)                  1 for FUNGIBLE and 2 for NFT."
        }
      },
      "isTokenWhitelisted(uint32,address)": {
        "details": "Checks if a specific token address is whitelisted for a given token type.",
        "params": {
          "tokenAddress": "The address of the token to check.",
          "tokenType": "The type of the token (1 for FUNGIBLE, 2 for NFT)."
        },
        "returns": {
          "_0": "Boolean flag indicating if the token is whitelisted."
        }
      },
      "reimburseBalanceForFungible(address,address,int64,uint32)": {
        "details": "This is function used for the  Reimbersing the cmapaigner balance",
        "params": {
          "amount": "Total amount campaigner wanted to reinverse",
          "campaigner": "Campainer Address",
          "tokenId": "Token solidity address",
          "tokenType": "The type of the token (FUNGIBLE or NFT) [uint32] (1 for FUNGIBLE & 2 for NFT)"
        }
      },
      "updateBalance(address,uint256,bool)": {
        "details": "Topup and reimbersement cases",
        "params": {
          "amount": "Amount being topuped",
          "campaigner": "campaigner solidity address",
          "deposit": "Boolean is here"
        }
      }
    },
    "title": "Transactions",
    "version": 1
  },
  "userdoc": {
    "kind": "user",
    "methods": {},
    "notice": "Deals with operations related to transactions.",
    "version": 1
  }
}