{
  "contractName": "Transactions",
  "abi": [
    {
      "anonymous": false,
      "inputs": [
        {
          "indexed": false,
          "internalType": "address",
          "name": "campaigner",
          "type": "address"
        },
        {
          "indexed": false,
          "internalType": "uint256",
          "name": "updatedBalance",
          "type": "uint256"
        }
      ],
      "name": "BalanceUpdated",
      "type": "event"
    },
    {
      "anonymous": false,
      "inputs": [
        {
          "indexed": false,
          "internalType": "string",
          "name": "campaignAddress",
          "type": "string"
        },
        {
          "indexed": false,
          "internalType": "uint256",
          "name": "amount",
          "type": "uint256"
        },
        {
          "indexed": false,
          "internalType": "uint32",
          "name": "tokenType",
          "type": "uint32"
        }
      ],
      "name": "CampaignToppedUp",
      "type": "event"
    },
    {
      "anonymous": false,
      "inputs": [
        {
          "indexed": false,
          "internalType": "address",
          "name": "campaigner",
          "type": "address"
        }
      ],
      "name": "CampaignerAdded",
      "type": "event"
    },
    {
      "anonymous": false,
      "inputs": [
        {
          "indexed": false,
          "internalType": "address",
          "name": "campaigner",
          "type": "address"
        }
      ],
      "name": "CampaignerDeleted",
      "type": "event"
    },
    {
      "anonymous": false,
      "inputs": [
        {
          "indexed": false,
          "internalType": "address",
          "name": "tokenAddress",
          "type": "address"
        }
      ],
      "name": "CreatedToken",
      "type": "event"
    },
    {
      "anonymous": false,
      "inputs": [
        {
          "indexed": false,
          "internalType": "address",
          "name": "campaigner",
          "type": "address"
        },
        {
          "indexed": false,
          "internalType": "uint256",
          "name": "amount",
          "type": "uint256"
        }
      ],
      "name": "FundsDeposited",
      "type": "event"
    },
    {
      "anonymous": false,
      "inputs": [
        {
          "indexed": false,
          "internalType": "address",
          "name": "campaigner",
          "type": "address"
        },
        {
          "indexed": false,
          "internalType": "uint256",
          "name": "amount",
          "type": "uint256"
        }
      ],
      "name": "FundsWithdrawn",
      "type": "event"
    },
    {
      "anonymous": false,
      "inputs": [
        {
          "indexed": false,
          "internalType": "address",
          "name": "campaigner",
          "type": "address"
        },
        {
          "indexed": false,
          "internalType": "address",
          "name": "tokenId",
          "type": "address"
        },
        {
          "indexed": false,
          "internalType": "uint64",
          "name": "updatedBalance",
          "type": "uint64"
        }
      ],
      "name": "FungibleTokenBalanceUpdated",
      "type": "event"
    },
    {
      "anonymous": false,
      "inputs": [
        {
          "indexed": false,
          "internalType": "address",
          "name": "campaigner",
          "type": "address"
        },
        {
          "indexed": false,
          "internalType": "uint64",
          "name": "amount",
          "type": "uint64"
        }
      ],
      "name": "FungibleTokenDeposited",
      "type": "event"
    },
    {
      "anonymous": false,
      "inputs": [
        {
          "indexed": false,
          "internalType": "address",
          "name": "interactor",
          "type": "address"
        },
        {
          "indexed": false,
          "internalType": "address",
          "name": "campaigner",
          "type": "address"
        },
        {
          "indexed": false,
          "internalType": "uint256",
          "name": "amount",
          "type": "uint256"
        }
      ],
      "name": "InteractorPaid",
      "type": "event"
    },
    {
      "anonymous": false,
      "inputs": [
        {
          "indexed": false,
          "internalType": "string",
          "name": "campaignAddress",
          "type": "string"
        },
        {
          "indexed": false,
          "internalType": "uint256",
          "name": "amount",
          "type": "uint256"
        }
      ],
      "name": "InteractorPaidDeferred",
      "type": "event"
    },
    {
      "anonymous": false,
      "inputs": [
        {
          "indexed": false,
          "internalType": "string",
          "name": "campaignAdddress",
          "type": "string"
        },
        {
          "indexed": false,
          "internalType": "uint256",
          "name": "amount",
          "type": "uint256"
        },
        {
          "indexed": false,
          "internalType": "uint32",
          "name": "campaignType",
          "type": "uint32"
        }
      ],
      "name": "NewCampaignIsAdded",
      "type": "event"
    },
    {
      "anonymous": false,
      "inputs": [
        {
          "indexed": false,
          "internalType": "address",
          "name": "owner",
          "type": "address"
        }
      ],
      "name": "OwnerSet",
      "type": "event"
    },
    {
      "anonymous": false,
      "inputs": [
        {
          "indexed": false,
          "internalType": "int256",
          "name": "responseCode",
          "type": "int256"
        }
      ],
      "name": "ResponseCode",
      "type": "event"
    },
    {
      "anonymous": false,
      "inputs": [
        {
          "indexed": false,
          "internalType": "string",
          "name": "campaignAddress",
          "type": "string"
        },
        {
          "indexed": false,
          "internalType": "uint256",
          "name": "totalAmount",
          "type": "uint256"
        },
        {
          "indexed": false,
          "internalType": "uint256",
          "name": "remainingBalance",
          "type": "uint256"
        }
      ],
      "name": "RewardsDistributed",
      "type": "event"
    },
    {
      "anonymous": false,
      "inputs": [
        {
          "indexed": false,
          "internalType": "string",
          "name": "campaignAddress",
          "type": "string"
        },
        {
          "indexed": false,
          "internalType": "uint32",
          "name": "campaignType",
          "type": "uint32"
        }
      ],
      "name": "campaignClosed",
      "type": "event"
    },
    {
      "anonymous": false,
      "inputs": [
        {
          "indexed": false,
          "internalType": "string",
          "name": "campaignAddress",
          "type": "string"
        },
        {
          "indexed": false,
          "internalType": "uint32",
          "name": "campaignType",
          "type": "uint32"
        }
      ],
      "name": "campaignExpired",
      "type": "event"
    },
    {
      "inputs": [],
      "name": "FUNGIBLE",
      "outputs": [
        {
          "internalType": "uint32",
          "name": "",
          "type": "uint32"
        }
      ],
      "stateMutability": "view",
      "type": "function"
    },
    {
      "inputs": [],
      "name": "HBAR",
      "outputs": [
        {
          "internalType": "uint32",
          "name": "",
          "type": "uint32"
        }
      ],
      "stateMutability": "view",
      "type": "function"
    },
    {
      "inputs": [],
      "name": "NFT",
      "outputs": [
        {
          "internalType": "uint32",
          "name": "",
          "type": "uint32"
        }
      ],
      "stateMutability": "view",
      "type": "function"
    },
    {
      "inputs": [
        {
          "internalType": "address",
          "name": "newCampaigner",
          "type": "address"
        }
      ],
      "name": "addCampaigner",
      "outputs": [],
      "stateMutability": "nonpayable",
      "type": "function"
    },
    {
      "inputs": [
        {
          "internalType": "address",
          "name": "tokenAddress",
          "type": "address"
        },
        {
          "internalType": "bool",
          "name": "isWhitelisted",
          "type": "bool"
        }
      ],
      "name": "associateToken",
      "outputs": [],
      "stateMutability": "nonpayable",
      "type": "function"
    },
    {
      "inputs": [
        {
          "internalType": "address",
          "name": "",
          "type": "address"
        }
      ],
      "name": "balances",
      "outputs": [
        {
          "internalType": "uint256",
          "name": "",
          "type": "uint256"
        }
      ],
      "stateMutability": "view",
      "type": "function"
    },
    {
      "inputs": [
        {
          "internalType": "string",
          "name": "",
          "type": "string"
        }
      ],
      "name": "campaignBalances",
      "outputs": [
        {
          "internalType": "uint256",
          "name": "",
          "type": "uint256"
        }
      ],
      "stateMutability": "view",
      "type": "function"
    },
    {
      "inputs": [
        {
          "internalType": "string",
          "name": "",
          "type": "string"
        }
      ],
      "name": "campaignRandomNumber",
      "outputs": [
        {
          "internalType": "uint32",
          "name": "",
          "type": "uint32"
        }
      ],
      "stateMutability": "view",
      "type": "function"
    },
    {
      "inputs": [],
      "name": "getAllWhitelistedTokens",
      "outputs": [
        {
          "internalType": "address[]",
          "name": "",
          "type": "address[]"
        }
      ],
      "stateMutability": "view",
      "type": "function"
    },
    {
      "inputs": [
        {
          "internalType": "string",
          "name": "campaignAddress",
          "type": "string"
        }
      ],
      "name": "getCampaignBalance",
      "outputs": [
        {
          "internalType": "uint256",
          "name": "",
          "type": "uint256"
        }
      ],
      "stateMutability": "view",
      "type": "function"
    },
    {
      "inputs": [
        {
          "internalType": "address",
          "name": "campaigner",
          "type": "address"
        },
        {
          "internalType": "address",
          "name": "tokenId",
          "type": "address"
        }
      ],
      "name": "getFungibleTokenBalance",
      "outputs": [
        {
          "internalType": "uint64",
          "name": "res",
          "type": "uint64"
        }
      ],
      "stateMutability": "view",
      "type": "function"
    },
    {
      "inputs": [
        {
          "internalType": "address",
          "name": "campaigner",
          "type": "address"
        }
      ],
      "name": "getHbarBalance",
      "outputs": [
        {
          "internalType": "uint256",
          "name": "res",
          "type": "uint256"
        }
      ],
      "stateMutability": "view",
      "type": "function"
    },
    {
      "inputs": [
        {
          "internalType": "address",
          "name": "tokenAddress",
          "type": "address"
        }
      ],
      "name": "isTokenWhitelisted",
      "outputs": [
        {
          "internalType": "bool",
          "name": "",
          "type": "bool"
        }
      ],
      "stateMutability": "view",
      "type": "function"
    },
    {
      "inputs": [
        {
          "internalType": "address",
          "name": "",
          "type": "address"
        }
      ],
      "name": "nftCampaigner",
      "outputs": [
        {
          "internalType": "uint32",
          "name": "",
          "type": "uint32"
        }
      ],
      "stateMutability": "view",
      "type": "function"
    },
    {
      "inputs": [
        {
          "internalType": "address",
          "name": "",
          "type": "address"
        },
        {
          "internalType": "address",
          "name": "",
          "type": "address"
        },
        {
          "internalType": "uint256",
          "name": "",
          "type": "uint256"
        }
      ],
      "name": "tokenBalances",
      "outputs": [
        {
          "internalType": "uint64",
          "name": "",
          "type": "uint64"
        }
      ],
      "stateMutability": "view",
      "type": "function"
    },
    {
      "inputs": [
        {
          "internalType": "string",
          "name": "",
          "type": "string"
        },
        {
          "internalType": "address",
          "name": "",
          "type": "address"
        },
        {
          "internalType": "uint256",
          "name": "",
          "type": "uint256"
        }
      ],
      "name": "tokenCampaignBalances",
      "outputs": [
        {
          "internalType": "uint64",
          "name": "",
          "type": "uint64"
        }
      ],
      "stateMutability": "view",
      "type": "function"
    },
    {
      "inputs": [
        {
          "internalType": "uint32",
          "name": "",
          "type": "uint32"
        },
        {
          "internalType": "address",
          "name": "",
          "type": "address"
        }
      ],
      "name": "whitelistedToken",
      "outputs": [
        {
          "internalType": "bool",
          "name": "",
          "type": "bool"
        }
      ],
      "stateMutability": "view",
      "type": "function"
    },
    {
      "inputs": [
        {
          "internalType": "address",
          "name": "campaigner",
          "type": "address"
        },
        {
          "internalType": "uint256",
          "name": "amount",
          "type": "uint256"
        },
        {
          "internalType": "bool",
          "name": "deposit",
          "type": "bool"
        }
      ],
      "name": "updateBalance",
      "outputs": [
        {
          "internalType": "uint256",
          "name": "",
          "type": "uint256"
        }
      ],
      "stateMutability": "nonpayable",
      "type": "function"
    },
    {
      "inputs": [
        {
          "internalType": "address",
          "name": "campaigner",
          "type": "address"
        },
        {
          "internalType": "address",
          "name": "tokenId",
          "type": "address"
        },
        {
          "internalType": "uint64",
          "name": "tokenAmount",
          "type": "uint64"
        }
      ],
      "name": "addFungibleAmount",
      "outputs": [
        {
          "internalType": "uint64",
          "name": "",
          "type": "uint64"
        }
      ],
      "stateMutability": "nonpayable",
      "type": "function"
    },
    {
      "inputs": [
        {
          "internalType": "address",
          "name": "tokenId",
          "type": "address"
        },
        {
          "internalType": "address",
          "name": "campaigner",
          "type": "address"
        },
        {
          "internalType": "uint64",
          "name": "amount",
          "type": "uint64"
        }
      ],
      "name": "reimburseBalanceForFungible",
      "outputs": [
        {
          "internalType": "uint64",
          "name": "",
          "type": "uint64"
        }
      ],
      "stateMutability": "nonpayable",
      "type": "function"
    }
  ],
  "bytecode": "0x608060405234801561001057600080fd5b506114f4806100206000396000f3fe608060405234801561001057600080fd5b506004361061012b5760003560e01c80634a3b1152116100ad5780639991033c116100715780639991033c1461031c578063b5af090f14610331578063bc3ef1e914610344578063bff319961461036a578063cfe3f9a81461037d57600080fd5b80634a3b1152146102bb5780634f18230d146102ce57806371042cfd146102f9578063774256c71461030c5780637c0b8de21461031457600080fd5b806327e235e3116100f457806327e235e3146101f3578063307869dd14610213578063362e34b91461024d578063412288031461028b5780634377e3ff1461029e57600080fd5b806254052114610130578063160f9c881461019757806316d343e0146101aa5780631b0f32a3146101cb578063257204bf146101e0575b600080fd5b61017a61013e366004611031565b8251602081850181018051600782529282019582019590952091909452835260009182526040808320909352815220546001600160401b031681565b6040516001600160401b0390911681526020015b60405180910390f35b61017a6101a5366004611087565b6103ae565b6101bd6101b83660046110ba565b610474565b60405190815260200161018e565b6101de6101d93660046110ec565b6104ca565b005b61017a6101ee366004611116565b61079b565b6101bd6102013660046110ba565b60026020526000908152604090205481565b61017a610221366004611169565b60056020908152600093845260408085208252928452828420905282529020546001600160401b031681565b61027b61025b366004611195565b600360209081526000928352604080842090915290825290205460ff1681565b604051901515815260200161018e565b6101bd6102993660046111bc565b61092a565b6102a6600181565b60405163ffffffff909116815260200161018e565b6101bd6102c93660046111f8565b610a4d565b6101bd6102dc3660046111f8565b805160208183018101805160068252928201919093012091525481565b61017a610307366004611116565b610aae565b6102a6600081565b6102a6600281565b610324610c5b565b60405161018e9190611234565b61027b61033f3660046110ba565b610cd3565b6102a66103523660046110ba565b60096020526000908152604090205463ffffffff1681565b6101de6103783660046110ba565b610cfe565b6102a661038b3660046111f8565b8051602081830181018051600b8252928201919093012091525463ffffffff1681565b600080546001600160a01b03163314806103cc57506103cc33610e15565b6103f15760405162461bcd60e51b81526004016103e890611281565b60405180910390fd5b6103fa82610cd3565b604051806040016040528060048152602001634530303560e01b815250906104355760405162461bcd60e51b81526004016103e8919061130c565b50506001600160a01b0391821660009081526005602090815260408083209390941682529182528281206001825290915220546001600160401b031690565b600080546001600160a01b0316331480610492575061049233610e15565b6104ae5760405162461bcd60e51b81526004016103e890611281565b506001600160a01b031660009081526002602052604090205490565b6000546001600160a01b031633146104f45760405162461bcd60e51b81526004016103e89061133f565b80801561052757506001600160a01b038216600090815260008051602061149f833981519152602052604090205460ff16155b156105b457506001600160a01b0316600081815260008051602061149f833981519152602090815260408220805460ff19166001908117909155600490915260008051602061147f833981519152805491820181559091527f210afe6ebef982fa193bb4e17f9f236cdf09af7788627b5d54d9e3e4b100021b0180546001600160a01b0319169091179055565b801580156105e757506001600160a01b038216600090815260008051602061149f833981519152602052604090205460ff165b15610797576001600160a01b038216600090815260008051602061149f833981519152602090815260408220805460ff19169055600182526004905260008051602061147f83398151915254905b81811015610794576001600052600460205260008051602061147f83398151915280546001600160a01b03861691908390811061067457610674611394565b6000918252602090912001546001600160a01b0316036107825760016000819052600460205260008051602061147f833981519152906106b490846113c0565b815481106106c4576106c4611394565b600091825260208083209091015460019092526004905260008051602061147f83398151915280546001600160a01b03909216918390811061070857610708611394565b600091825260208083209190910180546001600160a01b0319166001600160a01b039490941693909317909255600190526004905260008051602061147f83398151915280548061075b5761075b6113d9565b600082815260209020810160001990810180546001600160a01b0319169055019055610794565b8061078c816113ef565b915050610635565b50505b5050565b600080546001600160a01b031633146107c65760405162461bcd60e51b81526004016103e89061133f565b6001600160a01b038084166000908152600560209081526040808320938816835292815282822060018352815290829020548251808401909352600483526308a6060760e31b918301919091526001600160401b038085169116101561083f5760405162461bcd60e51b81526004016103e8919061130c565b506001600160a01b038084166000908152600560209081526040808320938816835292815282822060018352905290812080548492906108899084906001600160401b0316611408565b82546101009290920a6001600160401b038181021990931691831602179091556001600160a01b038581166000818152600560209081526040808320948b1680845294825280832060018452825291829020548251938452908301939093529190921690820181905291507f2fa1a54f364a5a61a29da95bf0632455b2fb41ab6434ad448e6432058203bffc906060015b60405180910390a1949350505050565b600080546001600160a01b031633146109555760405162461bcd60e51b81526004016103e89061133f565b6040805180820190915260048152632298181960e11b60208201526001600160a01b0385166109975760405162461bcd60e51b81526004016103e8919061130c565b506109a184610e15565b604051806040016040528060048152602001634530303360e01b815250906109dc5760405162461bcd60e51b81526004016103e8919061130c565b5081156109f2576109ed8484610e33565b6109fc565b6109fc8484610ea7565b6001600160a01b038416600081815260026020908152604091829020548251938452908301819052917f8ad64a0ac7700dd8425ab0499f107cb6e2cd1581d803c5b8c1c79dcb8190b1af910161091a565b600080546001600160a01b0316331480610a6b5750610a6b33610e15565b610a875760405162461bcd60e51b81526004016103e890611281565b600682604051610a97919061142f565b90815260200160405180910390205490505b919050565b600080546001600160a01b03163314610ad95760405162461bcd60e51b81526004016103e89061133f565b610ae284610e15565b604051806040016040528060048152602001634530303360e01b81525090610b1d5760405162461bcd60e51b81526004016103e8919061130c565b506001600160a01b03808516600090815260056020908152604080832093871683529281528282206001835290529081208054849290610b679084906001600160401b031661144b565b92506101000a8154816001600160401b0302191690836001600160401b031602179055507fc7a2e037ca848c5f8478afbc374474f095ffe9245e2b0e5deccc07b623e4eb738483604051610bd99291906001600160a01b039290921682526001600160401b0316602082015260400190565b60405180910390a16001600160a01b03848116600081815260056020908152604080832094881680845294825280832060018452825291829020548251938452908301939093526001600160401b039092169181018290527f2fa1a54f364a5a61a29da95bf0632455b2fb41ab6434ad448e6432058203bffc9060600161091a565b60016000526004602090815260008051602061147f8339815191528054604080518285028101850190915281815260609390929190830182828015610cc957602002820191906000526020600020905b81546001600160a01b03168152600190910190602001808311610cab575b5050505050905090565b6001600160a01b0316600090815260008051602061149f833981519152602052604090205460ff1690565b6000546001600160a01b03163314610d285760405162461bcd60e51b81526004016103e89061133f565b6040805180820190915260048152632298181960e11b60208201526001600160a01b038216610d6a5760405162461bcd60e51b81526004016103e8919061130c565b50610d7481610e15565b15604051806040016040528060048152602001632298181b60e11b81525090610db05760405162461bcd60e51b81526004016103e8919061130c565b506001600160a01b0381166000818152600160208181526040808420805460ff19169093179092556002815281832092909255519182527f3d04fb94919fdfa7708320cdebdf093992d88d792b3d5f4144c364cda00129c6910160405180910390a150565b6001600160a01b031660009081526001602052604090205460ff1690565b6001600160a01b03821660009081526002602052604081208054839290610e5b90849061146b565b9091555050604080516001600160a01b0384168152602081018390527f543ba50a5eec5e6178218e364b1d0f396157b3c8fa278522c2cb7fd99407d47491015b60405180910390a15050565b8060026000846001600160a01b03166001600160a01b031681526020019081526020016000205410156040518060400160405280600481526020016308a6060760e31b81525090610f0b5760405162461bcd60e51b81526004016103e8919061130c565b506001600160a01b03821660009081526002602052604081208054839290610f349084906113c0565b9091555050604080516001600160a01b0384168152602081018390527feaff4b37086828766ad3268786972c0cd24259d4c87a80f9d3963a3c3d999b0d9101610e9b565b634e487b7160e01b600052604160045260246000fd5b600082601f830112610f9f57600080fd5b81356001600160401b0380821115610fb957610fb9610f78565b604051601f8301601f19908116603f01168101908282118183101715610fe157610fe1610f78565b81604052838152866020858801011115610ffa57600080fd5b836020870160208301376000602085830101528094505050505092915050565b80356001600160a01b0381168114610aa957600080fd5b60008060006060848603121561104657600080fd5b83356001600160401b0381111561105c57600080fd5b61106886828701610f8e565b9350506110776020850161101a565b9150604084013590509250925092565b6000806040838503121561109a57600080fd5b6110a38361101a565b91506110b16020840161101a565b90509250929050565b6000602082840312156110cc57600080fd5b6110d58261101a565b9392505050565b80358015158114610aa957600080fd5b600080604083850312156110ff57600080fd5b6111088361101a565b91506110b1602084016110dc565b60008060006060848603121561112b57600080fd5b6111348461101a565b92506111426020850161101a565b915060408401356001600160401b038116811461115e57600080fd5b809150509250925092565b60008060006060848603121561117e57600080fd5b6111878461101a565b92506110776020850161101a565b600080604083850312156111a857600080fd5b823563ffffffff811681146110a357600080fd5b6000806000606084860312156111d157600080fd5b6111da8461101a565b9250602084013591506111ef604085016110dc565b90509250925092565b60006020828403121561120a57600080fd5b81356001600160401b0381111561122057600080fd5b61122c84828501610f8e565b949350505050565b6020808252825182820181905260009190848201906040850190845b818110156112755783516001600160a01b031683529284019291840191600101611250565b50909695505050505050565b60208082526041908201527f556e617574686f72697a6520416363657373207265717565737465642c20436160408201527f6c6c6572206d757374206265206f776e6572206f722063616d706169676e65726060820152601760f91b608082015260a00190565b60005b838110156113035781810151838201526020016112eb565b50506000910152565b602081526000825180602084015261132b8160408501602087016112e8565b601f01601f19169190910160400192915050565b60208082526035908201527f556e617574686f72697a6520416363657373207265717565737465642c204361604082015274363632b91034b9903737ba103a34329037bbb732b960591b606082015260800190565b634e487b7160e01b600052603260045260246000fd5b634e487b7160e01b600052601160045260246000fd5b818103818111156113d3576113d36113aa565b92915050565b634e487b7160e01b600052603160045260246000fd5b600060018201611401576114016113aa565b5060010190565b6001600160401b03828116828216039080821115611428576114286113aa565b5092915050565b600082516114418184602087016112e8565b9190910192915050565b6001600160401b03818116838216019080821115611428576114286113aa565b808201808211156113d3576113d36113aa56feabd6e7cb50984ff9c2f3e18a2660c3353dadf4e3291deeb275dae2cd1e44fe05a15bc60c955c405d20d9149c709e2460f1c2d9a497496a7f46004d1772c3054ca2646970667358221220968107e0d7b76f86166ce7e11b2fb8b5cf1a24161085f6a6784f59b226e3d55464736f6c63430008110033",
  "immutableReferences": {},
  "source": "// SPDX-License-Identifier: Apache-2.0\r\npragma solidity ^0.8.17;\r\n\r\nimport \"./HashbuzzStates.sol\";\r\nimport \"./Utils.sol\";\r\n\r\n/**\r\n * @dev This contract is used to store the state of the Hashbuzz contract\r\n * @title Transactions\r\n * @author Om Prakash\r\n * @notice Deals with operations related to transactions.\r\n */\r\ncontract Transactions is HashbuzzStates, Utils {\r\n    /** Deposite amount to user aaccount */\r\n    function handleDeposit(address campaigner, uint256 amount) internal {\r\n        balances[campaigner] += amount;\r\n        emit FundsDeposited(campaigner, amount);\r\n    }\r\n\r\n    /** Hnalde Withdraw from user account */\r\n    function handleWithdrawal(address campaigner, uint256 amount) internal {\r\n        require(balances[campaigner] >= amount, ERR_INSUFFICIENT_BALANCE);\r\n        balances[campaigner] -= amount;\r\n        emit FundsWithdrawn(campaigner, amount);\r\n    }\r\n\r\n    /**\r\n     * @dev Topup and reimbersement cases\r\n     * @param campaigner campaigner solidity address\r\n     * @param amount  Amount being topuped\r\n     * @param deposit Boolean is here\r\n     */\r\n    function updateBalance(\r\n        address campaigner,\r\n        uint256 amount,\r\n        bool deposit\r\n    ) public onlyOwner returns (uint256) {\r\n        require(campaigner != address(0), ERR_INVALID_CAMPAIGN_ADDRESS);\r\n        require(isCampaigner(campaigner), ERR_CAMPAIGNER_NOT_ALLOWED);\r\n\r\n        if (deposit) {\r\n            handleDeposit(campaigner, amount);\r\n        } else {\r\n            handleWithdrawal(campaigner, amount);\r\n        }\r\n\r\n        uint256 updatedBalance = balances[campaigner];\r\n        emit BalanceUpdated(campaigner, updatedBalance);\r\n        return updatedBalance;\r\n    }\r\n\r\n    /**\r\n     * @dev Fungible token added to the campaigner account.\r\n     * @param campaigner Address soliduty address\r\n     * @param tokenId Address tokenId solidity address\r\n     * @param tokenAmount amount added to the cmapaigner account\r\n     */\r\n    function addFungibleAmount(\r\n        address campaigner,\r\n        address tokenId,\r\n        uint64 tokenAmount\r\n    ) public onlyOwner returns (uint64) {\r\n        require(isCampaigner(campaigner), ERR_CAMPAIGNER_NOT_ALLOWED);\r\n        tokenBalances[campaigner][tokenId][FUNGIBLE] += tokenAmount;\r\n        emit FungibleTokenDeposited(campaigner, tokenAmount);\r\n\r\n        uint64 updatedBalance = tokenBalances[campaigner][tokenId][FUNGIBLE];\r\n        emit FungibleTokenBalanceUpdated(campaigner, tokenId, updatedBalance);\r\n        return updatedBalance;\r\n    }\r\n\r\n    /**\r\n     * @dev This is function used for the  Reimbersing the cmapaigner balance\r\n     * @param tokenId  Token solidity address\r\n     * @param campaigner Campainer Address\r\n     * @param amount  Total amount campaigner wanted to reinverse\r\n     */\r\n    function reimburseBalanceForFungible(\r\n        address tokenId,\r\n        address campaigner,\r\n        uint64 amount\r\n    ) public onlyOwner returns (uint64) {\r\n        require(\r\n            tokenBalances[campaigner][tokenId][FUNGIBLE] >= amount,\r\n            ERR_INSUFFICIENT_BALANCE\r\n        );\r\n        tokenBalances[campaigner][tokenId][FUNGIBLE] -= uint64(amount);\r\n        uint64 updatedBalance = tokenBalances[campaigner][tokenId][FUNGIBLE];\r\n\r\n        emit FungibleTokenBalanceUpdated(campaigner, tokenId, updatedBalance);\r\n        return updatedBalance;\r\n    }\r\n}\r\n",
  "sourcePath": "D:\\rajatk\\hashbuzz-staging\\smv201\\contracts\\HashbuzzModules\\Transactions.sol",
  "compiler": {
    "name": "solc",
    "version": "0.8.17+commit.8df45f5f.Emscripten.clang"
  },
  "schemaVersion": "3.4.16",
  "updatedAt": "2024-11-12T16:03:02.725Z",
  "devdoc": {
    "author": "Om Prakash",
    "details": "This contract is used to store the state of the Hashbuzz contract",
    "kind": "dev",
    "methods": {
      "addCampaigner(address)": {
        "details": "Whitelist cmapigner to the user.",
        "params": {
          "newCampaigner": "Address of the user having campaigner role to be used here"
        }
      },
      "addFungibleAmount(address,address,uint64)": {
        "details": "Fungible token added to the campaigner account.",
        "params": {
          "campaigner": "Address soliduty address",
          "tokenAmount": "amount added to the cmapaigner account",
          "tokenId": "Address tokenId solidity address"
        }
      },
      "associateToken(address,bool)": {
        "details": "Adds or removes a token from the whitelist.",
        "params": {
          "isWhitelisted": "Boolean flag to mark the token as whitelisted or not.",
          "tokenAddress": "The address of the token."
        }
      },
      "getAllWhitelistedTokens()": {
        "details": "Retrieves all whitelisted addresses for a given token type.",
        "returns": {
          "_0": "An array of addresses that are whitelisted for the given token type."
        }
      },
      "getCampaignBalance(string)": {
        "details": "Balance holded by the user to see.",
        "params": {
          "campaignAddress": "Solidity address of the campaigner."
        }
      },
      "getFungibleTokenBalance(address,address)": {
        "params": {
          "campaigner": "Address of the campaigner'solidity address",
          "tokenId": "Solidity address used for the account"
        }
      },
      "getHbarBalance(address)": {
        "details": "Balance holded by the user to see.",
        "params": {
          "campaigner": "Solidity address of the campaigner."
        }
      },
      "isTokenWhitelisted(address)": {
        "details": "Checks if a specific token address is whitelisted for a given token type.",
        "params": {
          "tokenAddress": "The address of the token to check."
        },
        "returns": {
          "_0": "Boolean flag indicating if the token is whitelisted."
        }
      },
      "reimburseBalanceForFungible(address,address,uint64)": {
        "details": "This is function used for the  Reimbersing the cmapaigner balance",
        "params": {
          "amount": "Total amount campaigner wanted to reinverse",
          "campaigner": "Campainer Address",
          "tokenId": "Token solidity address"
        }
      },
      "updateBalance(address,uint256,bool)": {
        "details": "Topup and reimbersement cases",
        "params": {
          "amount": "Amount being topuped",
          "campaigner": "campaigner solidity address",
          "deposit": "Boolean is here"
        }
      }
    },
    "title": "Transactions",
    "version": 1
  },
  "userdoc": {
    "kind": "user",
    "methods": {},
    "notice": "Deals with operations related to transactions.",
    "version": 1
  }
}