{
  "contractName": "Transactions",
  "abi": [
    {
      "anonymous": false,
      "inputs": [
        {
          "indexed": false,
          "internalType": "address",
          "name": "campaigner",
          "type": "address"
        },
        {
          "indexed": false,
          "internalType": "uint256",
          "name": "updatedBalance",
          "type": "uint256"
        }
      ],
      "name": "BalanceUpdated",
      "type": "event"
    },
    {
      "anonymous": false,
      "inputs": [
        {
          "indexed": false,
          "internalType": "address",
          "name": "campaigner",
          "type": "address"
        }
      ],
      "name": "CampaignerAdded",
      "type": "event"
    },
    {
      "anonymous": false,
      "inputs": [
        {
          "indexed": false,
          "internalType": "address",
          "name": "campaigner",
          "type": "address"
        }
      ],
      "name": "CampaignerDeleted",
      "type": "event"
    },
    {
      "anonymous": false,
      "inputs": [
        {
          "indexed": false,
          "internalType": "address",
          "name": "tokenAddress",
          "type": "address"
        }
      ],
      "name": "CreatedToken",
      "type": "event"
    },
    {
      "anonymous": false,
      "inputs": [
        {
          "indexed": false,
          "internalType": "address",
          "name": "campaigner",
          "type": "address"
        },
        {
          "indexed": false,
          "internalType": "uint256",
          "name": "amount",
          "type": "uint256"
        }
      ],
      "name": "FundsDeposited",
      "type": "event"
    },
    {
      "anonymous": false,
      "inputs": [
        {
          "indexed": false,
          "internalType": "address",
          "name": "campaigner",
          "type": "address"
        },
        {
          "indexed": false,
          "internalType": "uint256",
          "name": "amount",
          "type": "uint256"
        }
      ],
      "name": "FundsWithdrawn",
      "type": "event"
    },
    {
      "anonymous": false,
      "inputs": [
        {
          "indexed": false,
          "internalType": "address",
          "name": "campaigner",
          "type": "address"
        },
        {
          "indexed": false,
          "internalType": "address",
          "name": "tokenId",
          "type": "address"
        },
        {
          "indexed": false,
          "internalType": "uint64",
          "name": "updatedBalance",
          "type": "uint64"
        }
      ],
      "name": "FungibleTokenBalanceUpdated",
      "type": "event"
    },
    {
      "anonymous": false,
      "inputs": [
        {
          "indexed": false,
          "internalType": "address",
          "name": "campaigner",
          "type": "address"
        },
        {
          "indexed": false,
          "internalType": "uint64",
          "name": "amount",
          "type": "uint64"
        }
      ],
      "name": "FungibleTokenDeposited",
      "type": "event"
    },
    {
      "anonymous": false,
      "inputs": [
        {
          "indexed": false,
          "internalType": "address",
          "name": "interactor",
          "type": "address"
        },
        {
          "indexed": false,
          "internalType": "address",
          "name": "campaigner",
          "type": "address"
        },
        {
          "indexed": false,
          "internalType": "uint256",
          "name": "amount",
          "type": "uint256"
        }
      ],
      "name": "InteractorPaid",
      "type": "event"
    },
    {
      "anonymous": false,
      "inputs": [
        {
          "indexed": false,
          "internalType": "string",
          "name": "campaignAddress",
          "type": "string"
        },
        {
          "indexed": false,
          "internalType": "uint256",
          "name": "amount",
          "type": "uint256"
        }
      ],
      "name": "InteractorPaidDeferred",
      "type": "event"
    },
    {
      "anonymous": false,
      "inputs": [
        {
          "indexed": false,
          "internalType": "string",
          "name": "campaignAdddress",
          "type": "string"
        },
        {
          "indexed": false,
          "internalType": "uint256",
          "name": "amount",
          "type": "uint256"
        },
        {
          "indexed": false,
          "internalType": "uint32",
          "name": "campaignType",
          "type": "uint32"
        }
      ],
      "name": "NewCampaignIsAdded",
      "type": "event"
    },
    {
      "anonymous": false,
      "inputs": [
        {
          "indexed": false,
          "internalType": "address",
          "name": "owner",
          "type": "address"
        }
      ],
      "name": "OwnerSet",
      "type": "event"
    },
    {
      "anonymous": false,
      "inputs": [
        {
          "indexed": false,
          "internalType": "int256",
          "name": "responseCode",
          "type": "int256"
        }
      ],
      "name": "ResponseCode",
      "type": "event"
    },
    {
      "anonymous": false,
      "inputs": [
        {
          "indexed": false,
          "internalType": "string",
          "name": "campaignAddress",
          "type": "string"
        },
        {
          "indexed": false,
          "internalType": "uint32",
          "name": "campaignType",
          "type": "uint32"
        }
      ],
      "name": "campaignClosed",
      "type": "event"
    },
    {
      "anonymous": false,
      "inputs": [
        {
          "indexed": false,
          "internalType": "string",
          "name": "campaignAddress",
          "type": "string"
        },
        {
          "indexed": false,
          "internalType": "uint32",
          "name": "campaignType",
          "type": "uint32"
        }
      ],
      "name": "campaignExpired",
      "type": "event"
    },
    {
      "inputs": [],
      "name": "FUNGIBLE",
      "outputs": [
        {
          "internalType": "uint32",
          "name": "",
          "type": "uint32"
        }
      ],
      "stateMutability": "view",
      "type": "function"
    },
    {
      "inputs": [],
      "name": "HBAR",
      "outputs": [
        {
          "internalType": "uint32",
          "name": "",
          "type": "uint32"
        }
      ],
      "stateMutability": "view",
      "type": "function"
    },
    {
      "inputs": [],
      "name": "NFT",
      "outputs": [
        {
          "internalType": "uint32",
          "name": "",
          "type": "uint32"
        }
      ],
      "stateMutability": "view",
      "type": "function"
    },
    {
      "inputs": [
        {
          "internalType": "address",
          "name": "newCampaigner",
          "type": "address"
        }
      ],
      "name": "addCampaigner",
      "outputs": [],
      "stateMutability": "nonpayable",
      "type": "function"
    },
    {
      "inputs": [
        {
          "internalType": "address",
          "name": "sender",
          "type": "address"
        },
        {
          "internalType": "address",
          "name": "tokenAddress",
          "type": "address"
        },
        {
          "internalType": "uint32",
          "name": "tokenType",
          "type": "uint32"
        }
      ],
      "name": "associateToken",
      "outputs": [],
      "stateMutability": "nonpayable",
      "type": "function"
    },
    {
      "inputs": [
        {
          "internalType": "address",
          "name": "",
          "type": "address"
        }
      ],
      "name": "balances",
      "outputs": [
        {
          "internalType": "uint256",
          "name": "",
          "type": "uint256"
        }
      ],
      "stateMutability": "view",
      "type": "function"
    },
    {
      "inputs": [
        {
          "internalType": "string",
          "name": "",
          "type": "string"
        }
      ],
      "name": "campaignBalances",
      "outputs": [
        {
          "internalType": "uint256",
          "name": "",
          "type": "uint256"
        }
      ],
      "stateMutability": "view",
      "type": "function"
    },
    {
      "inputs": [
        {
          "internalType": "string",
          "name": "",
          "type": "string"
        }
      ],
      "name": "campaignRandomNumber",
      "outputs": [
        {
          "internalType": "uint32",
          "name": "",
          "type": "uint32"
        }
      ],
      "stateMutability": "view",
      "type": "function"
    },
    {
      "inputs": [
        {
          "internalType": "string",
          "name": "campaignAddress",
          "type": "string"
        }
      ],
      "name": "getCampaignBalance",
      "outputs": [
        {
          "internalType": "uint256",
          "name": "",
          "type": "uint256"
        }
      ],
      "stateMutability": "view",
      "type": "function"
    },
    {
      "inputs": [
        {
          "internalType": "address",
          "name": "campaigner",
          "type": "address"
        },
        {
          "internalType": "address",
          "name": "tokenId",
          "type": "address"
        },
        {
          "internalType": "uint32",
          "name": "tokenType",
          "type": "uint32"
        }
      ],
      "name": "getFungibleTokenBalance",
      "outputs": [
        {
          "internalType": "uint64",
          "name": "res",
          "type": "uint64"
        }
      ],
      "stateMutability": "view",
      "type": "function"
    },
    {
      "inputs": [
        {
          "internalType": "address",
          "name": "campaigner",
          "type": "address"
        },
        {
          "internalType": "address",
          "name": "tokenId",
          "type": "address"
        },
        {
          "internalType": "uint32",
          "name": "tokenType",
          "type": "uint32"
        }
      ],
      "name": "getNFTTokenBalance",
      "outputs": [
        {
          "internalType": "uint64",
          "name": "res",
          "type": "uint64"
        }
      ],
      "stateMutability": "view",
      "type": "function"
    },
    {
      "inputs": [],
      "name": "id",
      "outputs": [
        {
          "internalType": "uint32",
          "name": "",
          "type": "uint32"
        }
      ],
      "stateMutability": "view",
      "type": "function"
    },
    {
      "inputs": [
        {
          "internalType": "address",
          "name": "",
          "type": "address"
        }
      ],
      "name": "nftCampaigner",
      "outputs": [
        {
          "internalType": "uint32",
          "name": "",
          "type": "uint32"
        }
      ],
      "stateMutability": "view",
      "type": "function"
    },
    {
      "inputs": [
        {
          "internalType": "address",
          "name": "",
          "type": "address"
        }
      ],
      "name": "rewardBalances",
      "outputs": [
        {
          "internalType": "uint256",
          "name": "",
          "type": "uint256"
        }
      ],
      "stateMutability": "view",
      "type": "function"
    },
    {
      "inputs": [
        {
          "internalType": "address",
          "name": "",
          "type": "address"
        },
        {
          "internalType": "address",
          "name": "",
          "type": "address"
        },
        {
          "internalType": "uint256",
          "name": "",
          "type": "uint256"
        }
      ],
      "name": "rewardTokenBalances",
      "outputs": [
        {
          "internalType": "uint64",
          "name": "",
          "type": "uint64"
        }
      ],
      "stateMutability": "view",
      "type": "function"
    },
    {
      "inputs": [
        {
          "internalType": "address",
          "name": "",
          "type": "address"
        },
        {
          "internalType": "address",
          "name": "",
          "type": "address"
        },
        {
          "internalType": "uint256",
          "name": "",
          "type": "uint256"
        }
      ],
      "name": "tokenBalances",
      "outputs": [
        {
          "internalType": "uint64",
          "name": "",
          "type": "uint64"
        }
      ],
      "stateMutability": "view",
      "type": "function"
    },
    {
      "inputs": [
        {
          "internalType": "string",
          "name": "",
          "type": "string"
        },
        {
          "internalType": "address",
          "name": "",
          "type": "address"
        },
        {
          "internalType": "uint256",
          "name": "",
          "type": "uint256"
        }
      ],
      "name": "tokenCampaignBalances",
      "outputs": [
        {
          "internalType": "uint64",
          "name": "",
          "type": "uint64"
        }
      ],
      "stateMutability": "view",
      "type": "function"
    },
    {
      "inputs": [
        {
          "internalType": "address",
          "name": "campaigner",
          "type": "address"
        },
        {
          "internalType": "uint256",
          "name": "amount",
          "type": "uint256"
        },
        {
          "internalType": "bool",
          "name": "deposit",
          "type": "bool"
        }
      ],
      "name": "updateBalance",
      "outputs": [
        {
          "internalType": "uint256",
          "name": "",
          "type": "uint256"
        }
      ],
      "stateMutability": "nonpayable",
      "type": "function"
    },
    {
      "inputs": [
        {
          "internalType": "address",
          "name": "campaigner",
          "type": "address"
        },
        {
          "internalType": "address",
          "name": "tokenId",
          "type": "address"
        },
        {
          "internalType": "int64",
          "name": "tokenAmount",
          "type": "int64"
        }
      ],
      "name": "addFungibleAmount",
      "outputs": [
        {
          "internalType": "int64",
          "name": "",
          "type": "int64"
        }
      ],
      "stateMutability": "nonpayable",
      "type": "function"
    },
    {
      "inputs": [
        {
          "internalType": "address",
          "name": "tokenId",
          "type": "address"
        },
        {
          "internalType": "address",
          "name": "campaigner",
          "type": "address"
        },
        {
          "internalType": "int64",
          "name": "amount",
          "type": "int64"
        },
        {
          "internalType": "uint32",
          "name": "tokenType",
          "type": "uint32"
        }
      ],
      "name": "reimburseBalanceForFungible",
      "outputs": [
        {
          "internalType": "int64",
          "name": "",
          "type": "int64"
        }
      ],
      "stateMutability": "nonpayable",
      "type": "function"
    }
  ],
  "bytecode": "0x6080604052600c805463ffffffff1916600117905534801561002057600080fd5b506113ad806100306000396000f3fe608060405234801561001057600080fd5b506004361061012b5760003560e01c80636124ec26116100ad578063af640d0f11610071578063af640d0f14610338578063bc3ef1e914610348578063bff319961461036e578063cfe3f9a814610381578063d84c0e27146103b257600080fd5b80636124ec26146102cf578063734247e4146102f5578063774256c7146103085780637c0b8de21461031057806393c8dc6d1461031857600080fd5b806341228803116100f4578063412288031461024c5780634377e3ff1461025f5780634a3b11521461027c5780634f18230d1461028f5780635158d25d146102ba57600080fd5b80625405211461013057806305346ac51461019757806327e235e3146101aa578063307869dd146101d85780633262af5414610212575b600080fd5b61017a61013e366004610fe7565b8251602081850181018051600782529282019582019590952091909452835260009182526040808320909352815220546001600160401b031681565b6040516001600160401b0390911681526020015b60405180910390f35b61017a6101a5366004611051565b6103c5565b6101ca6101b8366004611094565b60026020526000908152604090205481565b60405190815260200161018e565b61017a6101e63660046110b6565b60046020908152600093845260408085208252928452828420905282529020546001600160401b031681565b61017a6102203660046110b6565b60056020908152600093845260408085208252928452828420905282529020546001600160401b031681565b6101ca61025a3660046110e2565b610490565b610267600181565b60405163ffffffff909116815260200161018e565b6101ca61028a366004611127565b6105e2565b6101ca61029d366004611127565b805160208183018101805160068252928201919093012091525481565b6102cd6102c8366004611051565b610643565b005b6102e26102dd366004611175565b610747565b60405160079190910b815260200161018e565b6102e26103033660046111c9565b610946565b610267600081565b610267600281565b6101ca610326366004611094565b60036020526000908152604090205481565b600c546102679063ffffffff1681565b610267610356366004611094565b600a6020526000908152604090205463ffffffff1681565b6102cd61037c366004611094565b610b03565b61026761038f366004611127565b8051602081830181018051600d8252928201919093012091525463ffffffff1681565b61017a6103c0366004611051565b610c3c565b600080546001600160a01b03163314806103e357506103e333610d8c565b6104085760405162461bcd60e51b81526004016103ff90611203565b60405180910390fd5b63ffffffff82166002146104515760405162461bcd60e51b815260206004820152601060248201526f151bdad95b881a5cc81b9bdd0813919560821b60448201526064016103ff565b50506001600160a01b0391821660009081526004602090815260408083209390941682529182528281206002825290915220546001600160401b031690565b600080546001600160a01b031633146104bb5760405162461bcd60e51b81526004016103ff9061126a565b6001600160a01b0384166105115760405162461bcd60e51b815260206004820152601a60248201527f496e76616c69642063616d706169676e6572206164647265737300000000000060448201526064016103ff565b61051a84610d8c565b6105665760405162461bcd60e51b815260206004820152601860248201527f43616d706169676e6572206973206e6f74206c6973746564000000000000000060448201526064016103ff565b811561057b576105768484610daa565b610585565b6105858484610e46565b6001600160a01b038416600081815260026020908152604091829020548251938452908301819052917f8ad64a0ac7700dd8425ab0499f107cb6e2cd1581d803c5b8c1c79dcb8190b1af91015b60405180910390a1949350505050565b600080546001600160a01b0316331480610600575061060033610d8c565b61061c5760405162461bcd60e51b81526004016103ff90611203565b60068260405161062c91906112bf565b90815260200160405180910390205490505b919050565b6000546001600160a01b0316331461066d5760405162461bcd60e51b81526004016103ff9061126a565b60001963ffffffff8216016106bd576001600160a01b038084166000908152600860209081526040808320938616835292815282822060018084529152919020805460ff19169091179055505050565b60011963ffffffff82160161070a576001600160a01b038084166000908152600860209081526040808320938616835292815282822060028352905220805460ff19166001179055505050565b60405162461bcd60e51b8152602060048201526012602482015271496e76616c696420746f6b656e207479706560701b60448201526064016103ff565b600080546001600160a01b031633146107725760405162461bcd60e51b81526004016103ff9061126a565b63ffffffff82166001146107c05760405162461bcd60e51b8152602060048201526015602482015274546f6b656e206973206e6f742066756e6769626c6560581b60448201526064016103ff565b6001600160a01b038085166000908152600460209081526040808320938916835292815282822060018352905220546001600160401b038085169116101561085c5760405162461bcd60e51b815260206004820152602960248201527f496e73756666696369656e742066756e642072657175657374656420666f72206044820152687265696d627572736560b81b60648201526084016103ff565b6001600160a01b038085166000908152600460209081526040808320938916835292815282822060018352905290812080548592906108a59084906001600160401b0316611304565b82546101009290920a6001600160401b038181021990931691831602179091556001600160a01b038681166000818152600460209081526040808320948c1680845294825280832060018452825291829020548251938452908301939093529190921690820181905291507f2fa1a54f364a5a61a29da95bf0632455b2fb41ab6434ad448e6432058203bffc9060600160405180910390a195945050505050565b600080546001600160a01b031633146109715760405162461bcd60e51b81526004016103ff9061126a565b61097a84610d8c565b6109c65760405162461bcd60e51b815260206004820152601960248201527f43616d706169676e6572206973206e6f74206c69737465642e0000000000000060448201526064016103ff565b6001600160a01b03808516600090815260046020908152604080832093871683529281528282206001835290529081208054849290610a0f9084906001600160401b031661132b565b92506101000a8154816001600160401b0302191690836001600160401b031602179055507fc7a2e037ca848c5f8478afbc374474f095ffe9245e2b0e5deccc07b623e4eb738483604051610a819291906001600160a01b039290921682526001600160401b0316602082015260400190565b60405180910390a16001600160a01b03848116600081815260046020908152604080832094881680845294825280832060018452825291829020548251938452908301939093526001600160401b039092169181018290527f2fa1a54f364a5a61a29da95bf0632455b2fb41ab6434ad448e6432058203bffc906060016105d2565b6000546001600160a01b03163314610b2d5760405162461bcd60e51b81526004016103ff9061126a565b6001600160a01b038116610b835760405162461bcd60e51b815260206004820152601a60248201527f496e76616c69642063616d706169676e6572206164647265737300000000000060448201526064016103ff565b610b8c81610d8c565b610bd85760405162461bcd60e51b815260206004820152601960248201527f43616d706169676e657220616c7265616479206578697374730000000000000060448201526064016103ff565b6001600160a01b0381166000818152600160208181526040808420805460ff19169093179092556002815281832092909255519182527f3d04fb94919fdfa7708320cdebdf093992d88d792b3d5f4144c364cda00129c6910160405180910390a150565b600080546001600160a01b0316331480610c5a5750610c5a33610d8c565b610c765760405162461bcd60e51b81526004016103ff90611203565b63ffffffff8216600114610cc45760405162461bcd60e51b8152602060048201526015602482015274546f6b656e206973206e6f742066756e6769626c6560581b60448201526064016103ff565b6001600160a01b0380851660009081526008602090815260408083209387168352928152828220600183529052205460ff16610d4d5760405162461bcd60e51b815260206004820152602260248201527f52657175657374656420746f6b656e206973206e6f742077686974656c697374604482015261195960f21b60648201526084016103ff565b50506001600160a01b0391821660009081526004602090815260408083209390941682529182528281206001825290915220546001600160401b031690565b6001600160a01b031660009081526001602052604090205460ff1690565b6001600160a01b0382166000908152600260205260408120549003610dd257610dd282610b03565b6001600160a01b03821660009081526002602052604081208054839290610dfa90849061134b565b9091555050604080516001600160a01b0384168152602081018390527f543ba50a5eec5e6178218e364b1d0f396157b3c8fa278522c2cb7fd99407d47491015b60405180910390a15050565b6001600160a01b038216600090815260026020526040902054811115610ec25760405162461bcd60e51b815260206004820152602b60248201527f496e73756666696369656e742062616c616e636520726571756573746564206660448201526a6f7220776974686472617760a81b60648201526084016103ff565b6001600160a01b03821660009081526002602052604081208054839290610eea908490611364565b9091555050604080516001600160a01b0384168152602081018390527feaff4b37086828766ad3268786972c0cd24259d4c87a80f9d3963a3c3d999b0d9101610e3a565b634e487b7160e01b600052604160045260246000fd5b600082601f830112610f5557600080fd5b81356001600160401b0380821115610f6f57610f6f610f2e565b604051601f8301601f19908116603f01168101908282118183101715610f9757610f97610f2e565b81604052838152866020858801011115610fb057600080fd5b836020870160208301376000602085830101528094505050505092915050565b80356001600160a01b038116811461063e57600080fd5b600080600060608486031215610ffc57600080fd5b83356001600160401b0381111561101257600080fd5b61101e86828701610f44565b93505061102d60208501610fd0565b9150604084013590509250925092565b803563ffffffff8116811461063e57600080fd5b60008060006060848603121561106657600080fd5b61106f84610fd0565b925061107d60208501610fd0565b915061108b6040850161103d565b90509250925092565b6000602082840312156110a657600080fd5b6110af82610fd0565b9392505050565b6000806000606084860312156110cb57600080fd5b6110d484610fd0565b925061102d60208501610fd0565b6000806000606084860312156110f757600080fd5b61110084610fd0565b9250602084013591506040840135801515811461111c57600080fd5b809150509250925092565b60006020828403121561113957600080fd5b81356001600160401b0381111561114f57600080fd5b61115b84828501610f44565b949350505050565b8035600781900b811461063e57600080fd5b6000806000806080858703121561118b57600080fd5b61119485610fd0565b93506111a260208601610fd0565b92506111b060408601611163565b91506111be6060860161103d565b905092959194509250565b6000806000606084860312156111de57600080fd5b6111e784610fd0565b92506111f560208501610fd0565b915061108b60408501611163565b60208082526041908201527f556e617574686f72697a6520416363657373207265717565737465642c20436160408201527f6c6c6572206d757374206265206f776e6572206f722063616d706169676e65726060820152601760f91b608082015260a00190565b60208082526035908201527f556e617574686f72697a6520416363657373207265717565737465642c204361604082015274363632b91034b9903737ba103a34329037bbb732b960591b606082015260800190565b6000825160005b818110156112e057602081860181015185830152016112c6565b506000920191825250919050565b634e487b7160e01b600052601160045260246000fd5b6001600160401b03828116828216039080821115611324576113246112ee565b5092915050565b6001600160401b03818116838216019080821115611324576113246112ee565b8082018082111561135e5761135e6112ee565b92915050565b8181038181111561135e5761135e6112ee56fea264697066735822122050a6e071da85f70a27ffe00002da08673c28601421c9e5a3ef0138074aede18d64736f6c63430008110033",
  "immutableReferences": {},
  "source": "// SPDX-License-Identifier: Apache-2.0\r\npragma solidity ^0.8.17;\r\n\r\nimport \"./HashbuzzStates.sol\";\r\nimport \"./Utils.sol\";\r\n\r\n/**\r\n * @dev This contract is used to store the state of the Hashbuzz contract\r\n * @title Transactions\r\n * @author Om Prakash\r\n * @notice Deals with operations related to transactions.\r\n */\r\ncontract Transactions is HashbuzzStates, Utils {\r\n    /** Deposite amount to user aaccount */\r\n    function handleDeposit(address campaigner, uint256 amount) internal {\r\n        if (balances[campaigner] == 0) {\r\n            addCampaigner(campaigner);\r\n        }\r\n        balances[campaigner] += amount;\r\n        emit FundsDeposited(campaigner, amount);\r\n    }\r\n\r\n    /** Hnalde Withdraw from user account */\r\n    function handleWithdrawal(address campaigner, uint256 amount) internal {\r\n        require(\r\n            balances[campaigner] >= amount,\r\n            \"Insufficient balance requested for withdraw\"\r\n        );\r\n        balances[campaigner] -= amount;\r\n        emit FundsWithdrawn(campaigner, amount);\r\n    }\r\n\r\n    /**\r\n     * @dev Topup and reimbersement cases\r\n     * @param campaigner campaigner solidity address\r\n     * @param amount  Amount being topuped\r\n     * @param deposit Boolean is here\r\n     */\r\n    function updateBalance(\r\n        address campaigner,\r\n        uint256 amount,\r\n        bool deposit\r\n    ) public onlyOwner returns (uint256) {\r\n        require(campaigner != address(0), \"Invalid campaigner address\");\r\n        require(isCampaigner(campaigner), \"Campaigner is not listed\");\r\n\r\n        if (deposit) {\r\n            handleDeposit(campaigner, amount);\r\n        } else {\r\n            handleWithdrawal(campaigner, amount);\r\n        }\r\n\r\n        uint256 updatedBalance = balances[campaigner];\r\n        emit BalanceUpdated(campaigner, updatedBalance);\r\n        return updatedBalance;\r\n    }\r\n\r\n    /**\r\n     * @dev Fungible token added to the campaigner account.\r\n     * @param campaigner Address soliduty address\r\n     * @param tokenId Address tokenId solidity address\r\n     * @param tokenAmount amount added to the cmapaigner account\r\n     */\r\n    function addFungibleAmount(\r\n        address campaigner,\r\n        address tokenId,\r\n        int64 tokenAmount\r\n    ) public onlyOwner returns (int64) {\r\n        require(isCampaigner(campaigner), \"Campaigner is not listed.\");\r\n        tokenBalances[campaigner][tokenId][FUNGIBLE] += uint64(\r\n            int64(tokenAmount)\r\n        );\r\n        emit FungibleTokenDeposited(campaigner, uint64(int64(tokenAmount)));\r\n\r\n        uint64 updatedBalance = tokenBalances[campaigner][tokenId][FUNGIBLE];\r\n        emit FungibleTokenBalanceUpdated(campaigner, tokenId, updatedBalance);\r\n        return int64(updatedBalance);\r\n    }\r\n\r\n    /**\r\n     * @dev This is function used for the  Reimbersing the cmapaigner balance\r\n     * @param tokenId  Token solidity address\r\n     * @param campaigner Campainer Address\r\n     * @param amount  Total amount campaigner wanted to reinverse\r\n     * @param tokenType The type of the token (FUNGIBLE or NFT) [uint32] (1 for FUNGIBLE & 2 for NFT)\r\n     */\r\n    function reimburseBalanceForFungible(\r\n        address tokenId,\r\n        address campaigner,\r\n        int64 amount,\r\n        uint32 tokenType\r\n    ) public onlyOwner returns (int64) {\r\n        require(tokenType == FUNGIBLE, \"Token is not fungible\");\r\n        require(\r\n            tokenBalances[campaigner][tokenId][FUNGIBLE] >= uint64(amount),\r\n            \"Insufficient fund requested for reimburse\"\r\n        );\r\n        tokenBalances[campaigner][tokenId][FUNGIBLE] -= uint64(amount);\r\n        uint64 updatedBalance = tokenBalances[campaigner][tokenId][FUNGIBLE];\r\n\r\n        emit FungibleTokenBalanceUpdated(campaigner, tokenId, updatedBalance);\r\n        return int64(updatedBalance);\r\n    }\r\n}\r\n",
  "sourcePath": "D:\\rajatk\\hashbuzz-staging\\smv201\\contracts\\HashbuzzModules\\Transactions.sol",
  "compiler": {
    "name": "solc",
    "version": "0.8.17+commit.8df45f5f.Emscripten.clang"
  },
  "schemaVersion": "3.4.16",
  "updatedAt": "2024-10-27T11:04:29.876Z",
  "devdoc": {
    "author": "Om Prakash",
    "details": "This contract is used to store the state of the Hashbuzz contract",
    "kind": "dev",
    "methods": {
      "addCampaigner(address)": {
        "details": "Whitelist cmapigner to the user.",
        "params": {
          "newCampaigner": "Address of the user having campaigner role to be used here"
        }
      },
      "addFungibleAmount(address,address,int64)": {
        "details": "Fungible token added to the campaigner account.",
        "params": {
          "campaigner": "Address soliduty address",
          "tokenAmount": "amount added to the cmapaigner account",
          "tokenId": "Address tokenId solidity address"
        }
      },
      "associateToken(address,address,uint32)": {
        "params": {
          "sender": "Oly owner will be sender of this function.",
          "tokenAddress": "Solidty address of the campaigner.",
          "tokenType": "The type of the token (FUNGIBLE or NFT) [uint32] (1 for FUNGIBLE & 2 for NFT)"
        }
      },
      "getCampaignBalance(string)": {
        "details": "Balance holded by the user to see.",
        "params": {
          "campaignAddress": "Solidity address of the campaigner."
        }
      },
      "getFungibleTokenBalance(address,address,uint32)": {
        "params": {
          "campaigner": "Address of the campaigner'solidity address",
          "tokenId": "Solidity address used for the account",
          "tokenType": "The type of the token (FUNGIBLE or NFT) [uint32] (1 for FUNGIBLE & 2 for NFT)"
        }
      },
      "getNFTTokenBalance(address,address,uint32)": {
        "details": "Balance holded by the user to see.",
        "params": {
          "campaigner": "Solidity address of the campaigner.",
          "tokenId": "Solidity address of the token.",
          "tokenType": "The type of the token (FUNGIBLE or NFT) [uint32] (1 for FUNGIBLE & 2 for NFT)                  1 for FUNGIBLE and 2 for NFT."
        }
      },
      "reimburseBalanceForFungible(address,address,int64,uint32)": {
        "details": "This is function used for the  Reimbersing the cmapaigner balance",
        "params": {
          "amount": "Total amount campaigner wanted to reinverse",
          "campaigner": "Campainer Address",
          "tokenId": "Token solidity address",
          "tokenType": "The type of the token (FUNGIBLE or NFT) [uint32] (1 for FUNGIBLE & 2 for NFT)"
        }
      },
      "updateBalance(address,uint256,bool)": {
        "details": "Topup and reimbersement cases",
        "params": {
          "amount": "Amount being topuped",
          "campaigner": "campaigner solidity address",
          "deposit": "Boolean is here"
        }
      }
    },
    "title": "Transactions",
    "version": 1
  },
  "userdoc": {
    "kind": "user",
    "methods": {},
    "notice": "Deals with operations related to transactions.",
    "version": 1
  }
}