{
  "contractName": "Transactions",
  "abi": [
    {
      "anonymous": false,
      "inputs": [
        {
          "indexed": false,
          "internalType": "address",
          "name": "campaigner",
          "type": "address"
        },
        {
          "indexed": false,
          "internalType": "uint256",
          "name": "updatedBalance",
          "type": "uint256"
        }
      ],
      "name": "BalanceUpdated",
      "type": "event"
    },
    {
      "anonymous": false,
      "inputs": [
        {
          "indexed": false,
          "internalType": "string",
          "name": "campaignAddress",
          "type": "string"
        },
        {
          "indexed": false,
          "internalType": "uint256",
          "name": "amount",
          "type": "uint256"
        },
        {
          "indexed": false,
          "internalType": "uint32",
          "name": "tokenType",
          "type": "uint32"
        }
      ],
      "name": "CampaignToppedUp",
      "type": "event"
    },
    {
      "anonymous": false,
      "inputs": [
        {
          "indexed": false,
          "internalType": "address",
          "name": "campaigner",
          "type": "address"
        }
      ],
      "name": "CampaignerAdded",
      "type": "event"
    },
    {
      "anonymous": false,
      "inputs": [
        {
          "indexed": false,
          "internalType": "address",
          "name": "campaigner",
          "type": "address"
        }
      ],
      "name": "CampaignerDeleted",
      "type": "event"
    },
    {
      "anonymous": false,
      "inputs": [
        {
          "indexed": false,
          "internalType": "address",
          "name": "tokenAddress",
          "type": "address"
        }
      ],
      "name": "CreatedToken",
      "type": "event"
    },
    {
      "anonymous": false,
      "inputs": [
        {
          "indexed": false,
          "internalType": "address",
          "name": "campaigner",
          "type": "address"
        },
        {
          "indexed": false,
          "internalType": "uint256",
          "name": "amount",
          "type": "uint256"
        }
      ],
      "name": "FundsDeposited",
      "type": "event"
    },
    {
      "anonymous": false,
      "inputs": [
        {
          "indexed": false,
          "internalType": "address",
          "name": "campaigner",
          "type": "address"
        },
        {
          "indexed": false,
          "internalType": "uint256",
          "name": "amount",
          "type": "uint256"
        }
      ],
      "name": "FundsWithdrawn",
      "type": "event"
    },
    {
      "anonymous": false,
      "inputs": [
        {
          "indexed": false,
          "internalType": "address",
          "name": "campaigner",
          "type": "address"
        },
        {
          "indexed": false,
          "internalType": "address",
          "name": "tokenId",
          "type": "address"
        },
        {
          "indexed": false,
          "internalType": "uint64",
          "name": "updatedBalance",
          "type": "uint64"
        }
      ],
      "name": "FungibleTokenBalanceUpdated",
      "type": "event"
    },
    {
      "anonymous": false,
      "inputs": [
        {
          "indexed": false,
          "internalType": "address",
          "name": "campaigner",
          "type": "address"
        },
        {
          "indexed": false,
          "internalType": "uint64",
          "name": "amount",
          "type": "uint64"
        }
      ],
      "name": "FungibleTokenDeposited",
      "type": "event"
    },
    {
      "anonymous": false,
      "inputs": [
        {
          "indexed": false,
          "internalType": "address",
          "name": "interactor",
          "type": "address"
        },
        {
          "indexed": false,
          "internalType": "address",
          "name": "campaigner",
          "type": "address"
        },
        {
          "indexed": false,
          "internalType": "uint256",
          "name": "amount",
          "type": "uint256"
        }
      ],
      "name": "InteractorPaid",
      "type": "event"
    },
    {
      "anonymous": false,
      "inputs": [
        {
          "indexed": false,
          "internalType": "string",
          "name": "campaignAddress",
          "type": "string"
        },
        {
          "indexed": false,
          "internalType": "uint256",
          "name": "amount",
          "type": "uint256"
        }
      ],
      "name": "InteractorPaidDeferred",
      "type": "event"
    },
    {
      "anonymous": false,
      "inputs": [
        {
          "indexed": false,
          "internalType": "string",
          "name": "campaignAdddress",
          "type": "string"
        },
        {
          "indexed": false,
          "internalType": "uint256",
          "name": "amount",
          "type": "uint256"
        },
        {
          "indexed": false,
          "internalType": "uint32",
          "name": "campaignType",
          "type": "uint32"
        }
      ],
      "name": "NewCampaignIsAdded",
      "type": "event"
    },
    {
      "anonymous": false,
      "inputs": [
        {
          "indexed": false,
          "internalType": "address",
          "name": "owner",
          "type": "address"
        }
      ],
      "name": "OwnerSet",
      "type": "event"
    },
    {
      "anonymous": false,
      "inputs": [
        {
          "indexed": false,
          "internalType": "int256",
          "name": "responseCode",
          "type": "int256"
        }
      ],
      "name": "ResponseCode",
      "type": "event"
    },
    {
      "anonymous": false,
      "inputs": [
        {
          "indexed": false,
          "internalType": "string",
          "name": "campaignAddress",
          "type": "string"
        },
        {
          "indexed": false,
          "internalType": "uint256",
          "name": "totalAmount",
          "type": "uint256"
        },
        {
          "indexed": false,
          "internalType": "uint256",
          "name": "remainingBalance",
          "type": "uint256"
        }
      ],
      "name": "RewardsDistributed",
      "type": "event"
    },
    {
      "anonymous": false,
      "inputs": [
        {
          "indexed": false,
          "internalType": "string",
          "name": "campaignAddress",
          "type": "string"
        },
        {
          "indexed": false,
          "internalType": "uint32",
          "name": "campaignType",
          "type": "uint32"
        }
      ],
      "name": "campaignClosed",
      "type": "event"
    },
    {
      "anonymous": false,
      "inputs": [
        {
          "indexed": false,
          "internalType": "string",
          "name": "campaignAddress",
          "type": "string"
        },
        {
          "indexed": false,
          "internalType": "uint32",
          "name": "campaignType",
          "type": "uint32"
        }
      ],
      "name": "campaignExpired",
      "type": "event"
    },
    {
      "inputs": [],
      "name": "FUNGIBLE",
      "outputs": [
        {
          "internalType": "uint32",
          "name": "",
          "type": "uint32"
        }
      ],
      "stateMutability": "view",
      "type": "function"
    },
    {
      "inputs": [],
      "name": "HBAR",
      "outputs": [
        {
          "internalType": "uint32",
          "name": "",
          "type": "uint32"
        }
      ],
      "stateMutability": "view",
      "type": "function"
    },
    {
      "inputs": [],
      "name": "NFT",
      "outputs": [
        {
          "internalType": "uint32",
          "name": "",
          "type": "uint32"
        }
      ],
      "stateMutability": "view",
      "type": "function"
    },
    {
      "inputs": [
        {
          "internalType": "address",
          "name": "newCampaigner",
          "type": "address"
        }
      ],
      "name": "addCampaigner",
      "outputs": [],
      "stateMutability": "nonpayable",
      "type": "function"
    },
    {
      "inputs": [
        {
          "internalType": "address",
          "name": "tokenAddress",
          "type": "address"
        },
        {
          "internalType": "uint32",
          "name": "tokenType",
          "type": "uint32"
        },
        {
          "internalType": "bool",
          "name": "isWhitelisted",
          "type": "bool"
        }
      ],
      "name": "associateToken",
      "outputs": [],
      "stateMutability": "nonpayable",
      "type": "function"
    },
    {
      "inputs": [
        {
          "internalType": "address",
          "name": "",
          "type": "address"
        }
      ],
      "name": "balances",
      "outputs": [
        {
          "internalType": "uint256",
          "name": "",
          "type": "uint256"
        }
      ],
      "stateMutability": "view",
      "type": "function"
    },
    {
      "inputs": [
        {
          "internalType": "string",
          "name": "",
          "type": "string"
        }
      ],
      "name": "campaignBalances",
      "outputs": [
        {
          "internalType": "uint256",
          "name": "",
          "type": "uint256"
        }
      ],
      "stateMutability": "view",
      "type": "function"
    },
    {
      "inputs": [
        {
          "internalType": "string",
          "name": "",
          "type": "string"
        }
      ],
      "name": "campaignRandomNumber",
      "outputs": [
        {
          "internalType": "uint32",
          "name": "",
          "type": "uint32"
        }
      ],
      "stateMutability": "view",
      "type": "function"
    },
    {
      "inputs": [
        {
          "internalType": "uint32",
          "name": "tokenType",
          "type": "uint32"
        }
      ],
      "name": "getAllWhitelistedTokens",
      "outputs": [
        {
          "internalType": "address[]",
          "name": "",
          "type": "address[]"
        }
      ],
      "stateMutability": "view",
      "type": "function"
    },
    {
      "inputs": [
        {
          "internalType": "string",
          "name": "campaignAddress",
          "type": "string"
        }
      ],
      "name": "getCampaignBalance",
      "outputs": [
        {
          "internalType": "uint256",
          "name": "",
          "type": "uint256"
        }
      ],
      "stateMutability": "view",
      "type": "function"
    },
    {
      "inputs": [
        {
          "internalType": "address",
          "name": "campaigner",
          "type": "address"
        },
        {
          "internalType": "address",
          "name": "tokenId",
          "type": "address"
        },
        {
          "internalType": "uint32",
          "name": "tokenType",
          "type": "uint32"
        }
      ],
      "name": "getFungibleTokenBalance",
      "outputs": [
        {
          "internalType": "uint64",
          "name": "res",
          "type": "uint64"
        }
      ],
      "stateMutability": "view",
      "type": "function"
    },
    {
      "inputs": [
        {
          "internalType": "address",
          "name": "campaigner",
          "type": "address"
        }
      ],
      "name": "getHbarBalance",
      "outputs": [
        {
          "internalType": "uint256",
          "name": "res",
          "type": "uint256"
        }
      ],
      "stateMutability": "view",
      "type": "function"
    },
    {
      "inputs": [
        {
          "internalType": "address",
          "name": "campaigner",
          "type": "address"
        },
        {
          "internalType": "address",
          "name": "tokenId",
          "type": "address"
        },
        {
          "internalType": "uint32",
          "name": "tokenType",
          "type": "uint32"
        }
      ],
      "name": "getNFTTokenBalance",
      "outputs": [
        {
          "internalType": "uint64",
          "name": "res",
          "type": "uint64"
        }
      ],
      "stateMutability": "view",
      "type": "function"
    },
    {
      "inputs": [
        {
          "internalType": "uint32",
          "name": "tokenType",
          "type": "uint32"
        },
        {
          "internalType": "address",
          "name": "tokenAddress",
          "type": "address"
        }
      ],
      "name": "isTokenWhitelisted",
      "outputs": [
        {
          "internalType": "bool",
          "name": "",
          "type": "bool"
        }
      ],
      "stateMutability": "view",
      "type": "function"
    },
    {
      "inputs": [
        {
          "internalType": "address",
          "name": "",
          "type": "address"
        }
      ],
      "name": "nftCampaigner",
      "outputs": [
        {
          "internalType": "uint32",
          "name": "",
          "type": "uint32"
        }
      ],
      "stateMutability": "view",
      "type": "function"
    },
    {
      "inputs": [
        {
          "internalType": "address",
          "name": "",
          "type": "address"
        },
        {
          "internalType": "address",
          "name": "",
          "type": "address"
        },
        {
          "internalType": "uint256",
          "name": "",
          "type": "uint256"
        }
      ],
      "name": "tokenBalances",
      "outputs": [
        {
          "internalType": "uint64",
          "name": "",
          "type": "uint64"
        }
      ],
      "stateMutability": "view",
      "type": "function"
    },
    {
      "inputs": [
        {
          "internalType": "string",
          "name": "",
          "type": "string"
        },
        {
          "internalType": "address",
          "name": "",
          "type": "address"
        },
        {
          "internalType": "uint256",
          "name": "",
          "type": "uint256"
        }
      ],
      "name": "tokenCampaignBalances",
      "outputs": [
        {
          "internalType": "uint64",
          "name": "",
          "type": "uint64"
        }
      ],
      "stateMutability": "view",
      "type": "function"
    },
    {
      "inputs": [
        {
          "internalType": "uint32",
          "name": "",
          "type": "uint32"
        },
        {
          "internalType": "address",
          "name": "",
          "type": "address"
        }
      ],
      "name": "whitelistedToken",
      "outputs": [
        {
          "internalType": "bool",
          "name": "",
          "type": "bool"
        }
      ],
      "stateMutability": "view",
      "type": "function"
    },
    {
      "inputs": [
        {
          "internalType": "address",
          "name": "campaigner",
          "type": "address"
        },
        {
          "internalType": "uint256",
          "name": "amount",
          "type": "uint256"
        },
        {
          "internalType": "bool",
          "name": "deposit",
          "type": "bool"
        }
      ],
      "name": "updateBalance",
      "outputs": [
        {
          "internalType": "uint256",
          "name": "",
          "type": "uint256"
        }
      ],
      "stateMutability": "nonpayable",
      "type": "function"
    },
    {
      "inputs": [
        {
          "internalType": "address",
          "name": "campaigner",
          "type": "address"
        },
        {
          "internalType": "address",
          "name": "tokenId",
          "type": "address"
        },
        {
          "internalType": "int64",
          "name": "tokenAmount",
          "type": "int64"
        }
      ],
      "name": "addFungibleAmount",
      "outputs": [
        {
          "internalType": "int64",
          "name": "",
          "type": "int64"
        }
      ],
      "stateMutability": "nonpayable",
      "type": "function"
    },
    {
      "inputs": [
        {
          "internalType": "address",
          "name": "tokenId",
          "type": "address"
        },
        {
          "internalType": "address",
          "name": "campaigner",
          "type": "address"
        },
        {
          "internalType": "int64",
          "name": "amount",
          "type": "int64"
        },
        {
          "internalType": "uint32",
          "name": "tokenType",
          "type": "uint32"
        }
      ],
      "name": "reimburseBalanceForFungible",
      "outputs": [
        {
          "internalType": "int64",
          "name": "",
          "type": "int64"
        }
      ],
      "stateMutability": "nonpayable",
      "type": "function"
    }
  ],
  "bytecode": "0x608060405234801561001057600080fd5b50611751806100206000396000f3fe608060405234801561001057600080fd5b50600436106101365760003560e01c80636124ec26116100b8578063bde81c0b1161007c578063bde81c0b1461034b578063bff3199614610360578063c1cde80c14610373578063cfe3f9a814610393578063d84c0e27146103c4578063f4ff52ae146103d757600080fd5b80636124ec26146102dc578063734247e414610302578063774256c7146103155780637c0b8de21461031d578063bc3ef1e91461032557600080fd5b8063362e34b9116100ff578063362e34b914610230578063412288031461026e5780634377e3ff146102815780634a3b11521461029e5780634f18230d146102b157600080fd5b80625405211461013b57806305346ac5146101a257806316d343e0146101b557806327e235e3146101d6578063307869dd146101f6575b600080fd5b610185610149366004611235565b8251602081850181018051600782529282019582019590952091909452835260009182526040808320909352815220546001600160401b031681565b6040516001600160401b0390911681526020015b60405180910390f35b6101856101b036600461129f565b6103ea565b6101c86101c33660046112e2565b6104af565b604051908152602001610199565b6101c86101e43660046112e2565b60026020526000908152604090205481565b610185610204366004611304565b60056020908152600093845260408085208252928452828420905282529020546001600160401b031681565b61025e61023e366004611330565b600360209081526000928352604080842090915290825290205460ff1681565b6040519015158152602001610199565b6101c861027c366004611373565b610505565b610289600181565b60405163ffffffff9091168152602001610199565b6101c86102ac3660046113a6565b610634565b6101c86102bf3660046113a6565b805160208183018101805160068252928201919093012091525481565b6102ef6102ea3660046113f4565b610695565b60405160079190910b8152602001610199565b6102ef610310366004611448565b610867565b610289600081565b610289600281565b6102896103333660046112e2565b60096020526000908152604090205463ffffffff1681565b61035e610359366004611482565b610a14565b005b61035e61036e3660046112e2565b610d01565b6103866103813660046114bc565b610e18565b60405161019991906114d7565b6102896103a13660046113a6565b8051602081830181018051600b8252928201919093012091525463ffffffff1681565b6101856103d236600461129f565b610ee2565b61025e6103e5366004611330565b610fe5565b600080546001600160a01b0316331480610408575061040833611019565b61042d5760405162461bcd60e51b815260040161042490611524565b60405180910390fd5b6040805180820190915260048152632298189b60e11b602082015263ffffffff831660021461046f5760405162461bcd60e51b815260040161042491906115af565b5050506001600160a01b0391821660009081526005602090815260408083209390941682529182528281206002825290915220546001600160401b031690565b600080546001600160a01b03163314806104cd57506104cd33611019565b6104e95760405162461bcd60e51b815260040161042490611524565b506001600160a01b031660009081526002602052604090205490565b600080546001600160a01b031633146105305760405162461bcd60e51b8152600401610424906115e2565b6040805180820190915260048152632298181960e11b60208201526001600160a01b0385166105725760405162461bcd60e51b815260040161042491906115af565b5061057c84611019565b604051806040016040528060048152602001634530303360e01b815250906105b75760405162461bcd60e51b815260040161042491906115af565b5081156105cd576105c88484611037565b6105d7565b6105d784846110ab565b6001600160a01b038416600081815260026020908152604091829020548251938452908301819052917f8ad64a0ac7700dd8425ab0499f107cb6e2cd1581d803c5b8c1c79dcb8190b1af91015b60405180910390a1949350505050565b600080546001600160a01b0316331480610652575061065233611019565b61066e5760405162461bcd60e51b815260040161042490611524565b60068260405161067e9190611637565b90815260200160405180910390205490505b919050565b600080546001600160a01b031633146106c05760405162461bcd60e51b8152600401610424906115e2565b6040805180820190915260048152634530313560e01b602082015263ffffffff83166001146107025760405162461bcd60e51b815260040161042491906115af565b506001600160a01b038085166000908152600560209081526040808320938916835292815282822060018352815290829020548251808401909352600483526308a6060760e31b918301919091526001600160401b038086169116101561077c5760405162461bcd60e51b815260040161042491906115af565b506001600160a01b038085166000908152600560209081526040808320938916835292815282822060018352905290812080548592906107c69084906001600160401b0316611669565b82546101009290920a6001600160401b038181021990931691831602179091556001600160a01b038681166000818152600560209081526040808320948c1680845294825280832060018452825291829020548251938452908301939093529190921690820181905291507f2fa1a54f364a5a61a29da95bf0632455b2fb41ab6434ad448e6432058203bffc9060600160405180910390a195945050505050565b600080546001600160a01b031633146108925760405162461bcd60e51b8152600401610424906115e2565b61089b84611019565b604051806040016040528060048152602001634530303360e01b815250906108d65760405162461bcd60e51b815260040161042491906115af565b506001600160a01b038085166000908152600560209081526040808320938716835292815282822060018352905290812080548492906109209084906001600160401b0316611690565b92506101000a8154816001600160401b0302191690836001600160401b031602179055507fc7a2e037ca848c5f8478afbc374474f095ffe9245e2b0e5deccc07b623e4eb7384836040516109929291906001600160a01b039290921682526001600160401b0316602082015260400190565b60405180910390a16001600160a01b03848116600081815260056020908152604080832094881680845294825280832060018452825291829020548251938452908301939093526001600160401b039092169181018290527f2fa1a54f364a5a61a29da95bf0632455b2fb41ab6434ad448e6432058203bffc90606001610624565b6000546001600160a01b03163314610a3e5760405162461bcd60e51b8152600401610424906115e2565b63ffffffff821660011480610a59575063ffffffff82166002145b604051806040016040528060048152602001632298189b60e11b81525090610a945760405162461bcd60e51b815260040161042491906115af565b50808015610acc575063ffffffff821660009081526003602090815260408083206001600160a01b038716845290915290205460ff16155b15610b34575063ffffffff1660008181526003602090815260408083206001600160a01b0395909516808452948252808320805460ff1916600190811790915593835260048252822080549384018155825290200180546001600160a01b0319169091179055565b80158015610b6b575063ffffffff821660009081526003602090815260408083206001600160a01b038716845290915290205460ff165b15610cfc5763ffffffff821660008181526003602090815260408083206001600160a01b03881684528252808320805460ff191690559282526004905290812054905b81811015610cf95763ffffffff8416600090815260046020526040902080546001600160a01b038716919083908110610be957610be96116b0565b6000918252602090912001546001600160a01b031603610ce75763ffffffff84166000908152600460205260409020610c236001846116c6565b81548110610c3357610c336116b0565b600091825260208083209091015463ffffffff871683526004909152604090912080546001600160a01b039092169183908110610c7257610c726116b0565b600091825260208083209190910180546001600160a01b0319166001600160a01b03949094169390931790925563ffffffff86168152600490915260409020805480610cc057610cc06116d9565b600082815260209020810160001990810180546001600160a01b0319169055019055610cf9565b80610cf1816116ef565b915050610bae565b50505b505050565b6000546001600160a01b03163314610d2b5760405162461bcd60e51b8152600401610424906115e2565b6040805180820190915260048152632298181960e11b60208201526001600160a01b038216610d6d5760405162461bcd60e51b815260040161042491906115af565b50610d7781611019565b15604051806040016040528060048152602001632298181b60e11b81525090610db35760405162461bcd60e51b815260040161042491906115af565b506001600160a01b0381166000818152600160208181526040808420805460ff19169093179092556002815281832092909255519182527f3d04fb94919fdfa7708320cdebdf093992d88d792b3d5f4144c364cda00129c6910160405180910390a150565b606063ffffffff821660011480610e35575063ffffffff82166002145b604051806040016040528060048152602001632298189b60e11b81525090610e705760405162461bcd60e51b815260040161042491906115af565b5063ffffffff821660009081526004602090815260409182902080548351818402810184019094528084529091830182828015610ed657602002820191906000526020600020905b81546001600160a01b03168152600190910190602001808311610eb8575b50505050509050919050565b600080546001600160a01b0316331480610f005750610f0033611019565b610f1c5760405162461bcd60e51b815260040161042490611524565b6040805180820190915260048152634530313560e01b602082015263ffffffff8316600114610f5e5760405162461bcd60e51b815260040161042491906115af565b50610f6a600184610fe5565b604051806040016040528060048152602001634530303560e01b81525090610fa55760405162461bcd60e51b815260040161042491906115af565b5050506001600160a01b0391821660009081526005602090815260408083209390941682529182528281206001825290915220546001600160401b031690565b63ffffffff821660009081526003602090815260408083206001600160a01b038516845290915290205460ff165b92915050565b6001600160a01b031660009081526001602052604090205460ff1690565b6001600160a01b0382166000908152600260205260408120805483929061105f908490611708565b9091555050604080516001600160a01b0384168152602081018390527f543ba50a5eec5e6178218e364b1d0f396157b3c8fa278522c2cb7fd99407d47491015b60405180910390a15050565b8060026000846001600160a01b03166001600160a01b031681526020019081526020016000205410156040518060400160405280600481526020016308a6060760e31b8152509061110f5760405162461bcd60e51b815260040161042491906115af565b506001600160a01b038216600090815260026020526040812080548392906111389084906116c6565b9091555050604080516001600160a01b0384168152602081018390527feaff4b37086828766ad3268786972c0cd24259d4c87a80f9d3963a3c3d999b0d910161109f565b634e487b7160e01b600052604160045260246000fd5b600082601f8301126111a357600080fd5b81356001600160401b03808211156111bd576111bd61117c565b604051601f8301601f19908116603f011681019082821181831017156111e5576111e561117c565b816040528381528660208588010111156111fe57600080fd5b836020870160208301376000602085830101528094505050505092915050565b80356001600160a01b038116811461069057600080fd5b60008060006060848603121561124a57600080fd5b83356001600160401b0381111561126057600080fd5b61126c86828701611192565b93505061127b6020850161121e565b9150604084013590509250925092565b803563ffffffff8116811461069057600080fd5b6000806000606084860312156112b457600080fd5b6112bd8461121e565b92506112cb6020850161121e565b91506112d96040850161128b565b90509250925092565b6000602082840312156112f457600080fd5b6112fd8261121e565b9392505050565b60008060006060848603121561131957600080fd5b6113228461121e565b925061127b6020850161121e565b6000806040838503121561134357600080fd5b61134c8361128b565b915061135a6020840161121e565b90509250929050565b8035801515811461069057600080fd5b60008060006060848603121561138857600080fd5b6113918461121e565b9250602084013591506112d960408501611363565b6000602082840312156113b857600080fd5b81356001600160401b038111156113ce57600080fd5b6113da84828501611192565b949350505050565b8035600781900b811461069057600080fd5b6000806000806080858703121561140a57600080fd5b6114138561121e565b93506114216020860161121e565b925061142f604086016113e2565b915061143d6060860161128b565b905092959194509250565b60008060006060848603121561145d57600080fd5b6114668461121e565b92506114746020850161121e565b91506112d9604085016113e2565b60008060006060848603121561149757600080fd5b6114a08461121e565b92506114ae6020850161128b565b91506112d960408501611363565b6000602082840312156114ce57600080fd5b6112fd8261128b565b6020808252825182820181905260009190848201906040850190845b818110156115185783516001600160a01b0316835292840192918401916001016114f3565b50909695505050505050565b60208082526041908201527f556e617574686f72697a6520416363657373207265717565737465642c20436160408201527f6c6c6572206d757374206265206f776e6572206f722063616d706169676e65726060820152601760f91b608082015260a00190565b60005b838110156115a657818101518382015260200161158e565b50506000910152565b60208152600082518060208401526115ce81604085016020870161158b565b601f01601f19169190910160400192915050565b60208082526035908201527f556e617574686f72697a6520416363657373207265717565737465642c204361604082015274363632b91034b9903737ba103a34329037bbb732b960591b606082015260800190565b6000825161164981846020870161158b565b9190910192915050565b634e487b7160e01b600052601160045260246000fd5b6001600160401b0382811682821603908082111561168957611689611653565b5092915050565b6001600160401b0381811683821601908082111561168957611689611653565b634e487b7160e01b600052603260045260246000fd5b8181038181111561101357611013611653565b634e487b7160e01b600052603160045260246000fd5b60006001820161170157611701611653565b5060010190565b808201808211156110135761101361165356fea2646970667358221220ab0784ccf7d5dc21cf263ab260056aab19e96464c3a9c1bf560356ff46669c1864736f6c63430008110033",
  "immutableReferences": {},
  "source": "// SPDX-License-Identifier: Apache-2.0\r\npragma solidity ^0.8.17;\r\n\r\nimport \"./HashbuzzStates.sol\";\r\nimport \"./Utils.sol\";\r\n\r\n/**\r\n * @dev This contract is used to store the state of the Hashbuzz contract\r\n * @title Transactions\r\n * @author Om Prakash\r\n * @notice Deals with operations related to transactions.\r\n */\r\ncontract Transactions is HashbuzzStates, Utils {\r\n    /** Deposite amount to user aaccount */\r\n    function handleDeposit(address campaigner, uint256 amount) internal {\r\n        balances[campaigner] += amount;\r\n        emit FundsDeposited(campaigner, amount);\r\n    }\r\n\r\n    /** Hnalde Withdraw from user account */\r\n    function handleWithdrawal(address campaigner, uint256 amount) internal {\r\n        require(balances[campaigner] >= amount, ERR_INSUFFICIENT_BALANCE);\r\n        balances[campaigner] -= amount;\r\n        emit FundsWithdrawn(campaigner, amount);\r\n    }\r\n\r\n    /**\r\n     * @dev Topup and reimbersement cases\r\n     * @param campaigner campaigner solidity address\r\n     * @param amount  Amount being topuped\r\n     * @param deposit Boolean is here\r\n     */\r\n    function updateBalance(\r\n        address campaigner,\r\n        uint256 amount,\r\n        bool deposit\r\n    ) public onlyOwner returns (uint256) {\r\n        require(campaigner != address(0), ERR_INVALID_CAMPAIGN_ADDRESS);\r\n        require(isCampaigner(campaigner), ERR_CAMPAIGNER_NOT_ALLOWED);\r\n\r\n        if (deposit) {\r\n            handleDeposit(campaigner, amount);\r\n        } else {\r\n            handleWithdrawal(campaigner, amount);\r\n        }\r\n\r\n        uint256 updatedBalance = balances[campaigner];\r\n        emit BalanceUpdated(campaigner, updatedBalance);\r\n        return updatedBalance;\r\n    }\r\n\r\n    /**\r\n     * @dev Fungible token added to the campaigner account.\r\n     * @param campaigner Address soliduty address\r\n     * @param tokenId Address tokenId solidity address\r\n     * @param tokenAmount amount added to the cmapaigner account\r\n     */\r\n    function addFungibleAmount(\r\n        address campaigner,\r\n        address tokenId,\r\n        int64 tokenAmount\r\n    ) public onlyOwner returns (int64) {\r\n        require(isCampaigner(campaigner), ERR_CAMPAIGNER_NOT_ALLOWED);\r\n        tokenBalances[campaigner][tokenId][FUNGIBLE] += uint64(\r\n            int64(tokenAmount)\r\n        );\r\n        emit FungibleTokenDeposited(campaigner, uint64(int64(tokenAmount)));\r\n\r\n        uint64 updatedBalance = tokenBalances[campaigner][tokenId][FUNGIBLE];\r\n        emit FungibleTokenBalanceUpdated(campaigner, tokenId, updatedBalance);\r\n        return int64(updatedBalance);\r\n    }\r\n\r\n    /**\r\n     * @dev This is function used for the  Reimbersing the cmapaigner balance\r\n     * @param tokenId  Token solidity address\r\n     * @param campaigner Campainer Address\r\n     * @param amount  Total amount campaigner wanted to reinverse\r\n     * @param tokenType The type of the token (FUNGIBLE or NFT) [uint32] (1 for FUNGIBLE & 2 for NFT)\r\n     */\r\n    function reimburseBalanceForFungible(\r\n        address tokenId,\r\n        address campaigner,\r\n        int64 amount,\r\n        uint32 tokenType\r\n    ) public onlyOwner returns (int64) {\r\n        require(tokenType == FUNGIBLE, ERR_TOKEN_IS_NOT_FUNGIBLE);\r\n        require(\r\n            tokenBalances[campaigner][tokenId][FUNGIBLE] >= uint64(amount),\r\n            ERR_INSUFFICIENT_BALANCE\r\n        );\r\n        tokenBalances[campaigner][tokenId][FUNGIBLE] -= uint64(amount);\r\n        uint64 updatedBalance = tokenBalances[campaigner][tokenId][FUNGIBLE];\r\n\r\n        emit FungibleTokenBalanceUpdated(campaigner, tokenId, updatedBalance);\r\n        return int64(updatedBalance);\r\n    }\r\n}\r\n",
  "sourcePath": "D:\\rajatk\\hashbuzz-staging\\smv201\\contracts\\HashbuzzModules\\Transactions.sol",
  "compiler": {
    "name": "solc",
    "version": "0.8.17+commit.8df45f5f.Emscripten.clang"
  },
  "schemaVersion": "3.4.16",
  "updatedAt": "2024-11-03T18:02:35.400Z",
  "devdoc": {
    "author": "Om Prakash",
    "details": "This contract is used to store the state of the Hashbuzz contract",
    "kind": "dev",
    "methods": {
      "addCampaigner(address)": {
        "details": "Whitelist cmapigner to the user.",
        "params": {
          "newCampaigner": "Address of the user having campaigner role to be used here"
        }
      },
      "addFungibleAmount(address,address,int64)": {
        "details": "Fungible token added to the campaigner account.",
        "params": {
          "campaigner": "Address soliduty address",
          "tokenAmount": "amount added to the cmapaigner account",
          "tokenId": "Address tokenId solidity address"
        }
      },
      "associateToken(address,uint32,bool)": {
        "details": "Adds or removes a token from the whitelist.",
        "params": {
          "isWhitelisted": "Boolean flag to mark the token as whitelisted or not.",
          "tokenAddress": "The address of the token.",
          "tokenType": "The type of the token (1 for FUNGIBLE, 2 for NFT)."
        }
      },
      "getAllWhitelistedTokens(uint32)": {
        "details": "Retrieves all whitelisted addresses for a given token type.",
        "params": {
          "tokenType": "The type of the token (1 for FUNGIBLE, 2 for NFT)."
        },
        "returns": {
          "_0": "An array of addresses that are whitelisted for the given token type."
        }
      },
      "getCampaignBalance(string)": {
        "details": "Balance holded by the user to see.",
        "params": {
          "campaignAddress": "Solidity address of the campaigner."
        }
      },
      "getFungibleTokenBalance(address,address,uint32)": {
        "params": {
          "campaigner": "Address of the campaigner'solidity address",
          "tokenId": "Solidity address used for the account",
          "tokenType": "The type of the token (FUNGIBLE or NFT) [uint32] (1 for FUNGIBLE & 2 for NFT)"
        }
      },
      "getHbarBalance(address)": {
        "details": "Balance holded by the user to see.",
        "params": {
          "campaigner": "Solidity address of the campaigner."
        }
      },
      "getNFTTokenBalance(address,address,uint32)": {
        "details": "Balance holded by the user to see.",
        "params": {
          "campaigner": "Solidity address of the campaigner.",
          "tokenId": "Solidity address of the token.",
          "tokenType": "The type of the token (FUNGIBLE or NFT) [uint32] (1 for FUNGIBLE & 2 for NFT)                  1 for FUNGIBLE and 2 for NFT."
        }
      },
      "isTokenWhitelisted(uint32,address)": {
        "details": "Checks if a specific token address is whitelisted for a given token type.",
        "params": {
          "tokenAddress": "The address of the token to check.",
          "tokenType": "The type of the token (1 for FUNGIBLE, 2 for NFT)."
        },
        "returns": {
          "_0": "Boolean flag indicating if the token is whitelisted."
        }
      },
      "reimburseBalanceForFungible(address,address,int64,uint32)": {
        "details": "This is function used for the  Reimbersing the cmapaigner balance",
        "params": {
          "amount": "Total amount campaigner wanted to reinverse",
          "campaigner": "Campainer Address",
          "tokenId": "Token solidity address",
          "tokenType": "The type of the token (FUNGIBLE or NFT) [uint32] (1 for FUNGIBLE & 2 for NFT)"
        }
      },
      "updateBalance(address,uint256,bool)": {
        "details": "Topup and reimbersement cases",
        "params": {
          "amount": "Amount being topuped",
          "campaigner": "campaigner solidity address",
          "deposit": "Boolean is here"
        }
      }
    },
    "title": "Transactions",
    "version": 1
  },
  "userdoc": {
    "kind": "user",
    "methods": {},
    "notice": "Deals with operations related to transactions.",
    "version": 1
  }
}