{
  "contractName": "Transactions",
  "abi": [
    {
      "anonymous": false,
      "inputs": [
        {
          "indexed": false,
          "internalType": "address",
          "name": "campaigner",
          "type": "address"
        },
        {
          "indexed": false,
          "internalType": "uint256",
          "name": "updatedBalance",
          "type": "uint256"
        }
      ],
      "name": "BalanceUpdated",
      "type": "event"
    },
    {
      "anonymous": false,
      "inputs": [
        {
          "indexed": false,
          "internalType": "address",
          "name": "campaigner",
          "type": "address"
        }
      ],
      "name": "CampaignerAdded",
      "type": "event"
    },
    {
      "anonymous": false,
      "inputs": [
        {
          "indexed": false,
          "internalType": "address",
          "name": "campaigner",
          "type": "address"
        }
      ],
      "name": "CampaignerDeleted",
      "type": "event"
    },
    {
      "anonymous": false,
      "inputs": [
        {
          "indexed": false,
          "internalType": "address",
          "name": "tokenAddress",
          "type": "address"
        }
      ],
      "name": "CreatedToken",
      "type": "event"
    },
    {
      "anonymous": false,
      "inputs": [
        {
          "indexed": false,
          "internalType": "address",
          "name": "campaigner",
          "type": "address"
        },
        {
          "indexed": false,
          "internalType": "uint256",
          "name": "amount",
          "type": "uint256"
        }
      ],
      "name": "FundsDeposited",
      "type": "event"
    },
    {
      "anonymous": false,
      "inputs": [
        {
          "indexed": false,
          "internalType": "address",
          "name": "campaigner",
          "type": "address"
        },
        {
          "indexed": false,
          "internalType": "uint256",
          "name": "amount",
          "type": "uint256"
        }
      ],
      "name": "FundsWithdrawn",
      "type": "event"
    },
    {
      "anonymous": false,
      "inputs": [
        {
          "indexed": false,
          "internalType": "address",
          "name": "campaigner",
          "type": "address"
        },
        {
          "indexed": false,
          "internalType": "address",
          "name": "tokenId",
          "type": "address"
        },
        {
          "indexed": false,
          "internalType": "uint64",
          "name": "updatedBalance",
          "type": "uint64"
        }
      ],
      "name": "FungibleTokenBalanceUpdated",
      "type": "event"
    },
    {
      "anonymous": false,
      "inputs": [
        {
          "indexed": false,
          "internalType": "address",
          "name": "campaigner",
          "type": "address"
        },
        {
          "indexed": false,
          "internalType": "uint64",
          "name": "amount",
          "type": "uint64"
        }
      ],
      "name": "FungibleTokenDeposited",
      "type": "event"
    },
    {
      "anonymous": false,
      "inputs": [
        {
          "indexed": false,
          "internalType": "address",
          "name": "interactor",
          "type": "address"
        },
        {
          "indexed": false,
          "internalType": "address",
          "name": "campaigner",
          "type": "address"
        },
        {
          "indexed": false,
          "internalType": "uint256",
          "name": "amount",
          "type": "uint256"
        }
      ],
      "name": "InteractorPaid",
      "type": "event"
    },
    {
      "anonymous": false,
      "inputs": [
        {
          "indexed": false,
          "internalType": "string",
          "name": "campaignAddress",
          "type": "string"
        },
        {
          "indexed": false,
          "internalType": "uint256",
          "name": "amount",
          "type": "uint256"
        }
      ],
      "name": "InteractorPaidDeferred",
      "type": "event"
    },
    {
      "anonymous": false,
      "inputs": [
        {
          "indexed": false,
          "internalType": "string",
          "name": "campaignAdddress",
          "type": "string"
        },
        {
          "indexed": false,
          "internalType": "uint256",
          "name": "amount",
          "type": "uint256"
        },
        {
          "indexed": false,
          "internalType": "uint32",
          "name": "campaignType",
          "type": "uint32"
        }
      ],
      "name": "NewCampaignIsAdded",
      "type": "event"
    },
    {
      "anonymous": false,
      "inputs": [
        {
          "indexed": false,
          "internalType": "address",
          "name": "owner",
          "type": "address"
        }
      ],
      "name": "OwnerSet",
      "type": "event"
    },
    {
      "anonymous": false,
      "inputs": [
        {
          "indexed": false,
          "internalType": "int256",
          "name": "responseCode",
          "type": "int256"
        }
      ],
      "name": "ResponseCode",
      "type": "event"
    },
    {
      "anonymous": false,
      "inputs": [
        {
          "indexed": false,
          "internalType": "string",
          "name": "campaignAddress",
          "type": "string"
        },
        {
          "indexed": false,
          "internalType": "uint256",
          "name": "totalAmount",
          "type": "uint256"
        },
        {
          "indexed": false,
          "internalType": "uint256",
          "name": "remainingBalance",
          "type": "uint256"
        }
      ],
      "name": "RewardsDistributed",
      "type": "event"
    },
    {
      "anonymous": false,
      "inputs": [
        {
          "indexed": false,
          "internalType": "string",
          "name": "campaignAddress",
          "type": "string"
        },
        {
          "indexed": false,
          "internalType": "uint32",
          "name": "campaignType",
          "type": "uint32"
        }
      ],
      "name": "campaignClosed",
      "type": "event"
    },
    {
      "anonymous": false,
      "inputs": [
        {
          "indexed": false,
          "internalType": "string",
          "name": "campaignAddress",
          "type": "string"
        },
        {
          "indexed": false,
          "internalType": "uint32",
          "name": "campaignType",
          "type": "uint32"
        }
      ],
      "name": "campaignExpired",
      "type": "event"
    },
    {
      "inputs": [],
      "name": "FUNGIBLE",
      "outputs": [
        {
          "internalType": "uint32",
          "name": "",
          "type": "uint32"
        }
      ],
      "stateMutability": "view",
      "type": "function"
    },
    {
      "inputs": [],
      "name": "HBAR",
      "outputs": [
        {
          "internalType": "uint32",
          "name": "",
          "type": "uint32"
        }
      ],
      "stateMutability": "view",
      "type": "function"
    },
    {
      "inputs": [],
      "name": "NFT",
      "outputs": [
        {
          "internalType": "uint32",
          "name": "",
          "type": "uint32"
        }
      ],
      "stateMutability": "view",
      "type": "function"
    },
    {
      "inputs": [
        {
          "internalType": "address",
          "name": "newCampaigner",
          "type": "address"
        }
      ],
      "name": "addCampaigner",
      "outputs": [],
      "stateMutability": "nonpayable",
      "type": "function"
    },
    {
      "inputs": [
        {
          "internalType": "address",
          "name": "tokenAddress",
          "type": "address"
        },
        {
          "internalType": "uint32",
          "name": "tokenType",
          "type": "uint32"
        },
        {
          "internalType": "bool",
          "name": "isWhitelisted",
          "type": "bool"
        }
      ],
      "name": "associateToken",
      "outputs": [],
      "stateMutability": "nonpayable",
      "type": "function"
    },
    {
      "inputs": [
        {
          "internalType": "address",
          "name": "",
          "type": "address"
        }
      ],
      "name": "balances",
      "outputs": [
        {
          "internalType": "uint256",
          "name": "",
          "type": "uint256"
        }
      ],
      "stateMutability": "view",
      "type": "function"
    },
    {
      "inputs": [
        {
          "internalType": "string",
          "name": "",
          "type": "string"
        }
      ],
      "name": "campaignBalances",
      "outputs": [
        {
          "internalType": "uint256",
          "name": "",
          "type": "uint256"
        }
      ],
      "stateMutability": "view",
      "type": "function"
    },
    {
      "inputs": [
        {
          "internalType": "string",
          "name": "",
          "type": "string"
        }
      ],
      "name": "campaignRandomNumber",
      "outputs": [
        {
          "internalType": "uint32",
          "name": "",
          "type": "uint32"
        }
      ],
      "stateMutability": "view",
      "type": "function"
    },
    {
      "inputs": [
        {
          "internalType": "uint32",
          "name": "tokenType",
          "type": "uint32"
        }
      ],
      "name": "getAllWhitelistedTokens",
      "outputs": [
        {
          "internalType": "address[]",
          "name": "",
          "type": "address[]"
        }
      ],
      "stateMutability": "view",
      "type": "function"
    },
    {
      "inputs": [
        {
          "internalType": "string",
          "name": "campaignAddress",
          "type": "string"
        }
      ],
      "name": "getCampaignBalance",
      "outputs": [
        {
          "internalType": "uint256",
          "name": "",
          "type": "uint256"
        }
      ],
      "stateMutability": "view",
      "type": "function"
    },
    {
      "inputs": [
        {
          "internalType": "address",
          "name": "campaigner",
          "type": "address"
        },
        {
          "internalType": "address",
          "name": "tokenId",
          "type": "address"
        },
        {
          "internalType": "uint32",
          "name": "tokenType",
          "type": "uint32"
        }
      ],
      "name": "getFungibleTokenBalance",
      "outputs": [
        {
          "internalType": "uint64",
          "name": "res",
          "type": "uint64"
        }
      ],
      "stateMutability": "view",
      "type": "function"
    },
    {
      "inputs": [
        {
          "internalType": "address",
          "name": "campaigner",
          "type": "address"
        },
        {
          "internalType": "address",
          "name": "tokenId",
          "type": "address"
        },
        {
          "internalType": "uint32",
          "name": "tokenType",
          "type": "uint32"
        }
      ],
      "name": "getNFTTokenBalance",
      "outputs": [
        {
          "internalType": "uint64",
          "name": "res",
          "type": "uint64"
        }
      ],
      "stateMutability": "view",
      "type": "function"
    },
    {
      "inputs": [],
      "name": "id",
      "outputs": [
        {
          "internalType": "uint32",
          "name": "",
          "type": "uint32"
        }
      ],
      "stateMutability": "view",
      "type": "function"
    },
    {
      "inputs": [
        {
          "internalType": "uint32",
          "name": "tokenType",
          "type": "uint32"
        },
        {
          "internalType": "address",
          "name": "tokenAddress",
          "type": "address"
        }
      ],
      "name": "isTokenWhitelisted",
      "outputs": [
        {
          "internalType": "bool",
          "name": "",
          "type": "bool"
        }
      ],
      "stateMutability": "view",
      "type": "function"
    },
    {
      "inputs": [
        {
          "internalType": "address",
          "name": "",
          "type": "address"
        }
      ],
      "name": "nftCampaigner",
      "outputs": [
        {
          "internalType": "uint32",
          "name": "",
          "type": "uint32"
        }
      ],
      "stateMutability": "view",
      "type": "function"
    },
    {
      "inputs": [
        {
          "internalType": "address",
          "name": "",
          "type": "address"
        }
      ],
      "name": "rewardBalances",
      "outputs": [
        {
          "internalType": "uint256",
          "name": "",
          "type": "uint256"
        }
      ],
      "stateMutability": "view",
      "type": "function"
    },
    {
      "inputs": [
        {
          "internalType": "address",
          "name": "",
          "type": "address"
        },
        {
          "internalType": "address",
          "name": "",
          "type": "address"
        },
        {
          "internalType": "uint256",
          "name": "",
          "type": "uint256"
        }
      ],
      "name": "rewardTokenBalances",
      "outputs": [
        {
          "internalType": "uint64",
          "name": "",
          "type": "uint64"
        }
      ],
      "stateMutability": "view",
      "type": "function"
    },
    {
      "inputs": [
        {
          "internalType": "address",
          "name": "",
          "type": "address"
        },
        {
          "internalType": "address",
          "name": "",
          "type": "address"
        },
        {
          "internalType": "uint256",
          "name": "",
          "type": "uint256"
        }
      ],
      "name": "tokenBalances",
      "outputs": [
        {
          "internalType": "uint64",
          "name": "",
          "type": "uint64"
        }
      ],
      "stateMutability": "view",
      "type": "function"
    },
    {
      "inputs": [
        {
          "internalType": "string",
          "name": "",
          "type": "string"
        },
        {
          "internalType": "address",
          "name": "",
          "type": "address"
        },
        {
          "internalType": "uint256",
          "name": "",
          "type": "uint256"
        }
      ],
      "name": "tokenCampaignBalances",
      "outputs": [
        {
          "internalType": "uint64",
          "name": "",
          "type": "uint64"
        }
      ],
      "stateMutability": "view",
      "type": "function"
    },
    {
      "inputs": [
        {
          "internalType": "uint32",
          "name": "",
          "type": "uint32"
        },
        {
          "internalType": "address",
          "name": "",
          "type": "address"
        }
      ],
      "name": "whitelistedToken",
      "outputs": [
        {
          "internalType": "bool",
          "name": "",
          "type": "bool"
        }
      ],
      "stateMutability": "view",
      "type": "function"
    },
    {
      "inputs": [
        {
          "internalType": "address",
          "name": "campaigner",
          "type": "address"
        },
        {
          "internalType": "uint256",
          "name": "amount",
          "type": "uint256"
        },
        {
          "internalType": "bool",
          "name": "deposit",
          "type": "bool"
        }
      ],
      "name": "updateBalance",
      "outputs": [
        {
          "internalType": "uint256",
          "name": "",
          "type": "uint256"
        }
      ],
      "stateMutability": "nonpayable",
      "type": "function"
    },
    {
      "inputs": [
        {
          "internalType": "address",
          "name": "campaigner",
          "type": "address"
        },
        {
          "internalType": "address",
          "name": "tokenId",
          "type": "address"
        },
        {
          "internalType": "int64",
          "name": "tokenAmount",
          "type": "int64"
        }
      ],
      "name": "addFungibleAmount",
      "outputs": [
        {
          "internalType": "int64",
          "name": "",
          "type": "int64"
        }
      ],
      "stateMutability": "nonpayable",
      "type": "function"
    },
    {
      "inputs": [
        {
          "internalType": "address",
          "name": "tokenId",
          "type": "address"
        },
        {
          "internalType": "address",
          "name": "campaigner",
          "type": "address"
        },
        {
          "internalType": "int64",
          "name": "amount",
          "type": "int64"
        },
        {
          "internalType": "uint32",
          "name": "tokenType",
          "type": "uint32"
        }
      ],
      "name": "reimburseBalanceForFungible",
      "outputs": [
        {
          "internalType": "int64",
          "name": "",
          "type": "int64"
        }
      ],
      "stateMutability": "nonpayable",
      "type": "function"
    }
  ],
  "bytecode": "0x6080604052600d805463ffffffff1916600117905534801561002057600080fd5b50611768806100306000396000f3fe608060405234801561001057600080fd5b506004361061014c5760003560e01c8063734247e4116100c3578063bde81c0b1161007c578063bde81c0b146103b8578063bff31996146103cd578063c1cde80c146103e0578063cfe3f9a814610400578063d84c0e2714610431578063f4ff52ae1461044457600080fd5b8063734247e41461033f578063774256c7146103525780637c0b8de21461035a57806393c8dc6d14610362578063af640d0f14610382578063bc3ef1e91461039257600080fd5b8063362e34b911610115578063362e34b91461026d57806341228803146102ab5780634377e3ff146102be5780634a3b1152146102db5780634f18230d146102ee5780636124ec261461031957600080fd5b80625405211461015157806305346ac5146101b857806327e235e3146101cb578063307869dd146101f95780633262af5414610233575b600080fd5b61019b61015f36600461124c565b8251602081850181018051600982529282019582019590952091909452835260009182526040808320909352815220546001600160401b031681565b6040516001600160401b0390911681526020015b60405180910390f35b61019b6101c63660046112b6565b610457565b6101eb6101d93660046112f9565b60026020526000908152604090205481565b6040519081526020016101af565b61019b61020736600461131b565b60066020908152600093845260408085208252928452828420905282529020546001600160401b031681565b61019b61024136600461131b565b60076020908152600093845260408085208252928452828420905282529020546001600160401b031681565b61029b61027b366004611347565b600460209081526000928352604080842090915290825290205460ff1681565b60405190151581526020016101af565b6101eb6102b936600461138a565b61051c565b6102c6600181565b60405163ffffffff90911681526020016101af565b6101eb6102e93660046113bd565b61064b565b6101eb6102fc3660046113bd565b805160208183018101805160088252928201919093012091525481565b61032c61032736600461140b565b6106ac565b60405160079190910b81526020016101af565b61032c61034d36600461145f565b61087e565b6102c6600081565b6102c6600281565b6101eb6103703660046112f9565b60036020526000908152604090205481565b600d546102c69063ffffffff1681565b6102c66103a03660046112f9565b600b6020526000908152604090205463ffffffff1681565b6103cb6103c6366004611499565b610a2b565b005b6103cb6103db3660046112f9565b610d18565b6103f36103ee3660046114d3565b610e2f565b6040516101af91906114ee565b6102c661040e3660046113bd565b8051602081830181018051600e8252928201919093012091525463ffffffff1681565b61019b61043f3660046112b6565b610ef9565b61029b610452366004611347565b610ffc565b600080546001600160a01b0316331480610475575061047533611030565b61049a5760405162461bcd60e51b81526004016104919061153b565b60405180910390fd5b6040805180820190915260048152632298189b60e11b602082015263ffffffff83166002146104dc5760405162461bcd60e51b815260040161049191906115c6565b5050506001600160a01b0391821660009081526006602090815260408083209390941682529182528281206002825290915220546001600160401b031690565b600080546001600160a01b031633146105475760405162461bcd60e51b8152600401610491906115f9565b6040805180820190915260048152632298181960e11b60208201526001600160a01b0385166105895760405162461bcd60e51b815260040161049191906115c6565b5061059384611030565b604051806040016040528060048152602001634530303360e01b815250906105ce5760405162461bcd60e51b815260040161049191906115c6565b5081156105e4576105df848461104e565b6105ee565b6105ee84846110c2565b6001600160a01b038416600081815260026020908152604091829020548251938452908301819052917f8ad64a0ac7700dd8425ab0499f107cb6e2cd1581d803c5b8c1c79dcb8190b1af91015b60405180910390a1949350505050565b600080546001600160a01b0316331480610669575061066933611030565b6106855760405162461bcd60e51b81526004016104919061153b565b600882604051610695919061164e565b90815260200160405180910390205490505b919050565b600080546001600160a01b031633146106d75760405162461bcd60e51b8152600401610491906115f9565b6040805180820190915260048152634530313560e01b602082015263ffffffff83166001146107195760405162461bcd60e51b815260040161049191906115c6565b506001600160a01b038085166000908152600660209081526040808320938916835292815282822060018352815290829020548251808401909352600483526308a6060760e31b918301919091526001600160401b03808616911610156107935760405162461bcd60e51b815260040161049191906115c6565b506001600160a01b038085166000908152600660209081526040808320938916835292815282822060018352905290812080548592906107dd9084906001600160401b0316611680565b82546101009290920a6001600160401b038181021990931691831602179091556001600160a01b038681166000818152600660209081526040808320948c1680845294825280832060018452825291829020548251938452908301939093529190921690820181905291507f2fa1a54f364a5a61a29da95bf0632455b2fb41ab6434ad448e6432058203bffc9060600160405180910390a195945050505050565b600080546001600160a01b031633146108a95760405162461bcd60e51b8152600401610491906115f9565b6108b284611030565b604051806040016040528060048152602001634530303360e01b815250906108ed5760405162461bcd60e51b815260040161049191906115c6565b506001600160a01b038085166000908152600660209081526040808320938716835292815282822060018352905290812080548492906109379084906001600160401b03166116a7565b92506101000a8154816001600160401b0302191690836001600160401b031602179055507fc7a2e037ca848c5f8478afbc374474f095ffe9245e2b0e5deccc07b623e4eb7384836040516109a99291906001600160a01b039290921682526001600160401b0316602082015260400190565b60405180910390a16001600160a01b03848116600081815260066020908152604080832094881680845294825280832060018452825291829020548251938452908301939093526001600160401b039092169181018290527f2fa1a54f364a5a61a29da95bf0632455b2fb41ab6434ad448e6432058203bffc9060600161063b565b6000546001600160a01b03163314610a555760405162461bcd60e51b8152600401610491906115f9565b63ffffffff821660011480610a70575063ffffffff82166002145b604051806040016040528060048152602001632298189b60e11b81525090610aab5760405162461bcd60e51b815260040161049191906115c6565b50808015610ae3575063ffffffff821660009081526004602090815260408083206001600160a01b038716845290915290205460ff16155b15610b4b575063ffffffff1660008181526004602090815260408083206001600160a01b0395909516808452948252808320805460ff1916600190811790915593835260058252822080549384018155825290200180546001600160a01b0319169091179055565b80158015610b82575063ffffffff821660009081526004602090815260408083206001600160a01b038716845290915290205460ff165b15610d135763ffffffff821660008181526004602090815260408083206001600160a01b03881684528252808320805460ff191690559282526005905290812054905b81811015610d105763ffffffff8416600090815260056020526040902080546001600160a01b038716919083908110610c0057610c006116c7565b6000918252602090912001546001600160a01b031603610cfe5763ffffffff84166000908152600560205260409020610c3a6001846116dd565b81548110610c4a57610c4a6116c7565b600091825260208083209091015463ffffffff871683526005909152604090912080546001600160a01b039092169183908110610c8957610c896116c7565b600091825260208083209190910180546001600160a01b0319166001600160a01b03949094169390931790925563ffffffff86168152600590915260409020805480610cd757610cd76116f0565b600082815260209020810160001990810180546001600160a01b0319169055019055610d10565b80610d0881611706565b915050610bc5565b50505b505050565b6000546001600160a01b03163314610d425760405162461bcd60e51b8152600401610491906115f9565b6040805180820190915260048152632298181960e11b60208201526001600160a01b038216610d845760405162461bcd60e51b815260040161049191906115c6565b50610d8e81611030565b15604051806040016040528060048152602001632298181b60e11b81525090610dca5760405162461bcd60e51b815260040161049191906115c6565b506001600160a01b0381166000818152600160208181526040808420805460ff19169093179092556002815281832092909255519182527f3d04fb94919fdfa7708320cdebdf093992d88d792b3d5f4144c364cda00129c6910160405180910390a150565b606063ffffffff821660011480610e4c575063ffffffff82166002145b604051806040016040528060048152602001632298189b60e11b81525090610e875760405162461bcd60e51b815260040161049191906115c6565b5063ffffffff821660009081526005602090815260409182902080548351818402810184019094528084529091830182828015610eed57602002820191906000526020600020905b81546001600160a01b03168152600190910190602001808311610ecf575b50505050509050919050565b600080546001600160a01b0316331480610f175750610f1733611030565b610f335760405162461bcd60e51b81526004016104919061153b565b6040805180820190915260048152634530313560e01b602082015263ffffffff8316600114610f755760405162461bcd60e51b815260040161049191906115c6565b50610f81600184610ffc565b604051806040016040528060048152602001634530303560e01b81525090610fbc5760405162461bcd60e51b815260040161049191906115c6565b5050506001600160a01b0391821660009081526006602090815260408083209390941682529182528281206001825290915220546001600160401b031690565b63ffffffff821660009081526004602090815260408083206001600160a01b038516845290915290205460ff165b92915050565b6001600160a01b031660009081526001602052604090205460ff1690565b6001600160a01b0382166000908152600260205260408120805483929061107690849061171f565b9091555050604080516001600160a01b0384168152602081018390527f543ba50a5eec5e6178218e364b1d0f396157b3c8fa278522c2cb7fd99407d47491015b60405180910390a15050565b8060026000846001600160a01b03166001600160a01b031681526020019081526020016000205410156040518060400160405280600481526020016308a6060760e31b815250906111265760405162461bcd60e51b815260040161049191906115c6565b506001600160a01b0382166000908152600260205260408120805483929061114f9084906116dd565b9091555050604080516001600160a01b0384168152602081018390527feaff4b37086828766ad3268786972c0cd24259d4c87a80f9d3963a3c3d999b0d91016110b6565b634e487b7160e01b600052604160045260246000fd5b600082601f8301126111ba57600080fd5b81356001600160401b03808211156111d4576111d4611193565b604051601f8301601f19908116603f011681019082821181831017156111fc576111fc611193565b8160405283815286602085880101111561121557600080fd5b836020870160208301376000602085830101528094505050505092915050565b80356001600160a01b03811681146106a757600080fd5b60008060006060848603121561126157600080fd5b83356001600160401b0381111561127757600080fd5b611283868287016111a9565b93505061129260208501611235565b9150604084013590509250925092565b803563ffffffff811681146106a757600080fd5b6000806000606084860312156112cb57600080fd5b6112d484611235565b92506112e260208501611235565b91506112f0604085016112a2565b90509250925092565b60006020828403121561130b57600080fd5b61131482611235565b9392505050565b60008060006060848603121561133057600080fd5b61133984611235565b925061129260208501611235565b6000806040838503121561135a57600080fd5b611363836112a2565b915061137160208401611235565b90509250929050565b803580151581146106a757600080fd5b60008060006060848603121561139f57600080fd5b6113a884611235565b9250602084013591506112f06040850161137a565b6000602082840312156113cf57600080fd5b81356001600160401b038111156113e557600080fd5b6113f1848285016111a9565b949350505050565b8035600781900b81146106a757600080fd5b6000806000806080858703121561142157600080fd5b61142a85611235565b935061143860208601611235565b9250611446604086016113f9565b9150611454606086016112a2565b905092959194509250565b60008060006060848603121561147457600080fd5b61147d84611235565b925061148b60208501611235565b91506112f0604085016113f9565b6000806000606084860312156114ae57600080fd5b6114b784611235565b92506114c5602085016112a2565b91506112f06040850161137a565b6000602082840312156114e557600080fd5b611314826112a2565b6020808252825182820181905260009190848201906040850190845b8181101561152f5783516001600160a01b03168352928401929184019160010161150a565b50909695505050505050565b60208082526041908201527f556e617574686f72697a6520416363657373207265717565737465642c20436160408201527f6c6c6572206d757374206265206f776e6572206f722063616d706169676e65726060820152601760f91b608082015260a00190565b60005b838110156115bd5781810151838201526020016115a5565b50506000910152565b60208152600082518060208401526115e58160408501602087016115a2565b601f01601f19169190910160400192915050565b60208082526035908201527f556e617574686f72697a6520416363657373207265717565737465642c204361604082015274363632b91034b9903737ba103a34329037bbb732b960591b606082015260800190565b600082516116608184602087016115a2565b9190910192915050565b634e487b7160e01b600052601160045260246000fd5b6001600160401b038281168282160390808211156116a0576116a061166a565b5092915050565b6001600160401b038181168382160190808211156116a0576116a061166a565b634e487b7160e01b600052603260045260246000fd5b8181038181111561102a5761102a61166a565b634e487b7160e01b600052603160045260246000fd5b6000600182016117185761171861166a565b5060010190565b8082018082111561102a5761102a61166a56fea264697066735822122032e94437cb834e87e1117e3427c429f876647bc6322791fc558f79a86a7ad54664736f6c63430008110033",
  "immutableReferences": {},
  "source": "// SPDX-License-Identifier: Apache-2.0\r\npragma solidity ^0.8.17;\r\n\r\nimport \"./HashbuzzStates.sol\";\r\nimport \"./Utils.sol\";\r\n\r\n/**\r\n * @dev This contract is used to store the state of the Hashbuzz contract\r\n * @title Transactions\r\n * @author Om Prakash\r\n * @notice Deals with operations related to transactions.\r\n */\r\ncontract Transactions is HashbuzzStates, Utils {\r\n    /** Deposite amount to user aaccount */\r\n    function handleDeposit(address campaigner, uint256 amount) internal {\r\n        balances[campaigner] += amount;\r\n        emit FundsDeposited(campaigner, amount);\r\n    }\r\n\r\n    /** Hnalde Withdraw from user account */\r\n    function handleWithdrawal(address campaigner, uint256 amount) internal {\r\n        require(balances[campaigner] >= amount, ERR_INSUFFICIENT_BALANCE);\r\n        balances[campaigner] -= amount;\r\n        emit FundsWithdrawn(campaigner, amount);\r\n    }\r\n\r\n    /**\r\n     * @dev Topup and reimbersement cases\r\n     * @param campaigner campaigner solidity address\r\n     * @param amount  Amount being topuped\r\n     * @param deposit Boolean is here\r\n     */\r\n    function updateBalance(\r\n        address campaigner,\r\n        uint256 amount,\r\n        bool deposit\r\n    ) public onlyOwner returns (uint256) {\r\n        require(campaigner != address(0), ERR_INVALID_CAMPAIGN_ADDRESS);\r\n        require(isCampaigner(campaigner), ERR_CAMPAIGNER_NOT_ALLOWED);\r\n\r\n        if (deposit) {\r\n            handleDeposit(campaigner, amount);\r\n        } else {\r\n            handleWithdrawal(campaigner, amount);\r\n        }\r\n\r\n        uint256 updatedBalance = balances[campaigner];\r\n        emit BalanceUpdated(campaigner, updatedBalance);\r\n        return updatedBalance;\r\n    }\r\n\r\n    /**\r\n     * @dev Fungible token added to the campaigner account.\r\n     * @param campaigner Address soliduty address\r\n     * @param tokenId Address tokenId solidity address\r\n     * @param tokenAmount amount added to the cmapaigner account\r\n     */\r\n    function addFungibleAmount(\r\n        address campaigner,\r\n        address tokenId,\r\n        int64 tokenAmount\r\n    ) public onlyOwner returns (int64) {\r\n        require(isCampaigner(campaigner), ERR_CAMPAIGNER_NOT_ALLOWED);\r\n        tokenBalances[campaigner][tokenId][FUNGIBLE] += uint64(\r\n            int64(tokenAmount)\r\n        );\r\n        emit FungibleTokenDeposited(campaigner, uint64(int64(tokenAmount)));\r\n\r\n        uint64 updatedBalance = tokenBalances[campaigner][tokenId][FUNGIBLE];\r\n        emit FungibleTokenBalanceUpdated(campaigner, tokenId, updatedBalance);\r\n        return int64(updatedBalance);\r\n    }\r\n\r\n    /**\r\n     * @dev This is function used for the  Reimbersing the cmapaigner balance\r\n     * @param tokenId  Token solidity address\r\n     * @param campaigner Campainer Address\r\n     * @param amount  Total amount campaigner wanted to reinverse\r\n     * @param tokenType The type of the token (FUNGIBLE or NFT) [uint32] (1 for FUNGIBLE & 2 for NFT)\r\n     */\r\n    function reimburseBalanceForFungible(\r\n        address tokenId,\r\n        address campaigner,\r\n        int64 amount,\r\n        uint32 tokenType\r\n    ) public onlyOwner returns (int64) {\r\n        require(tokenType == FUNGIBLE, ERR_TOKEN_IS_NOT_FUNGIBLE);\r\n        require(\r\n            tokenBalances[campaigner][tokenId][FUNGIBLE] >= uint64(amount),\r\n            ERR_INSUFFICIENT_BALANCE\r\n        );\r\n        tokenBalances[campaigner][tokenId][FUNGIBLE] -= uint64(amount);\r\n        uint64 updatedBalance = tokenBalances[campaigner][tokenId][FUNGIBLE];\r\n\r\n        emit FungibleTokenBalanceUpdated(campaigner, tokenId, updatedBalance);\r\n        return int64(updatedBalance);\r\n    }\r\n}\r\n",
  "sourcePath": "D:\\rajatk\\hashbuzz-staging\\smv201\\contracts\\HashbuzzModules\\Transactions.sol",
  "compiler": {
    "name": "solc",
    "version": "0.8.17+commit.8df45f5f.Emscripten.clang"
  },
  "schemaVersion": "3.4.16",
  "updatedAt": "2024-10-30T16:12:23.890Z",
  "devdoc": {
    "author": "Om Prakash",
    "details": "This contract is used to store the state of the Hashbuzz contract",
    "kind": "dev",
    "methods": {
      "addCampaigner(address)": {
        "details": "Whitelist cmapigner to the user.",
        "params": {
          "newCampaigner": "Address of the user having campaigner role to be used here"
        }
      },
      "addFungibleAmount(address,address,int64)": {
        "details": "Fungible token added to the campaigner account.",
        "params": {
          "campaigner": "Address soliduty address",
          "tokenAmount": "amount added to the cmapaigner account",
          "tokenId": "Address tokenId solidity address"
        }
      },
      "associateToken(address,uint32,bool)": {
        "details": "Adds or removes a token from the whitelist.",
        "params": {
          "isWhitelisted": "Boolean flag to mark the token as whitelisted or not.",
          "tokenAddress": "The address of the token.",
          "tokenType": "The type of the token (1 for FUNGIBLE, 2 for NFT)."
        }
      },
      "getAllWhitelistedTokens(uint32)": {
        "details": "Retrieves all whitelisted addresses for a given token type.",
        "params": {
          "tokenType": "The type of the token (1 for FUNGIBLE, 2 for NFT)."
        },
        "returns": {
          "_0": "An array of addresses that are whitelisted for the given token type."
        }
      },
      "getCampaignBalance(string)": {
        "details": "Balance holded by the user to see.",
        "params": {
          "campaignAddress": "Solidity address of the campaigner."
        }
      },
      "getFungibleTokenBalance(address,address,uint32)": {
        "params": {
          "campaigner": "Address of the campaigner'solidity address",
          "tokenId": "Solidity address used for the account",
          "tokenType": "The type of the token (FUNGIBLE or NFT) [uint32] (1 for FUNGIBLE & 2 for NFT)"
        }
      },
      "getNFTTokenBalance(address,address,uint32)": {
        "details": "Balance holded by the user to see.",
        "params": {
          "campaigner": "Solidity address of the campaigner.",
          "tokenId": "Solidity address of the token.",
          "tokenType": "The type of the token (FUNGIBLE or NFT) [uint32] (1 for FUNGIBLE & 2 for NFT)                  1 for FUNGIBLE and 2 for NFT."
        }
      },
      "isTokenWhitelisted(uint32,address)": {
        "details": "Checks if a specific token address is whitelisted for a given token type.",
        "params": {
          "tokenAddress": "The address of the token to check.",
          "tokenType": "The type of the token (1 for FUNGIBLE, 2 for NFT)."
        },
        "returns": {
          "_0": "Boolean flag indicating if the token is whitelisted."
        }
      },
      "reimburseBalanceForFungible(address,address,int64,uint32)": {
        "details": "This is function used for the  Reimbersing the cmapaigner balance",
        "params": {
          "amount": "Total amount campaigner wanted to reinverse",
          "campaigner": "Campainer Address",
          "tokenId": "Token solidity address",
          "tokenType": "The type of the token (FUNGIBLE or NFT) [uint32] (1 for FUNGIBLE & 2 for NFT)"
        }
      },
      "updateBalance(address,uint256,bool)": {
        "details": "Topup and reimbersement cases",
        "params": {
          "amount": "Amount being topuped",
          "campaigner": "campaigner solidity address",
          "deposit": "Boolean is here"
        }
      }
    },
    "title": "Transactions",
    "version": 1
  },
  "userdoc": {
    "kind": "user",
    "methods": {},
    "notice": "Deals with operations related to transactions.",
    "version": 1
  }
}