{
  "contractName": "Utils",
  "abi": [
    {
      "anonymous": false,
      "inputs": [
        {
          "indexed": false,
          "internalType": "address",
          "name": "campaigner",
          "type": "address"
        },
        {
          "indexed": false,
          "internalType": "uint256",
          "name": "updatedBalance",
          "type": "uint256"
        }
      ],
      "name": "BalanceUpdated",
      "type": "event"
    },
    {
      "anonymous": false,
      "inputs": [
        {
          "indexed": false,
          "internalType": "address",
          "name": "campaigner",
          "type": "address"
        }
      ],
      "name": "CampaignerAdded",
      "type": "event"
    },
    {
      "anonymous": false,
      "inputs": [
        {
          "indexed": false,
          "internalType": "address",
          "name": "campaigner",
          "type": "address"
        }
      ],
      "name": "CampaignerDeleted",
      "type": "event"
    },
    {
      "anonymous": false,
      "inputs": [
        {
          "indexed": false,
          "internalType": "address",
          "name": "tokenAddress",
          "type": "address"
        }
      ],
      "name": "CreatedToken",
      "type": "event"
    },
    {
      "anonymous": false,
      "inputs": [
        {
          "indexed": false,
          "internalType": "address",
          "name": "campaigner",
          "type": "address"
        },
        {
          "indexed": false,
          "internalType": "uint256",
          "name": "amount",
          "type": "uint256"
        }
      ],
      "name": "FundsDeposited",
      "type": "event"
    },
    {
      "anonymous": false,
      "inputs": [
        {
          "indexed": false,
          "internalType": "address",
          "name": "campaigner",
          "type": "address"
        },
        {
          "indexed": false,
          "internalType": "uint256",
          "name": "amount",
          "type": "uint256"
        }
      ],
      "name": "FundsWithdrawn",
      "type": "event"
    },
    {
      "anonymous": false,
      "inputs": [
        {
          "indexed": false,
          "internalType": "address",
          "name": "campaigner",
          "type": "address"
        },
        {
          "indexed": false,
          "internalType": "address",
          "name": "tokenId",
          "type": "address"
        },
        {
          "indexed": false,
          "internalType": "uint64",
          "name": "updatedBalance",
          "type": "uint64"
        }
      ],
      "name": "FungibleTokenBalanceUpdated",
      "type": "event"
    },
    {
      "anonymous": false,
      "inputs": [
        {
          "indexed": false,
          "internalType": "address",
          "name": "campaigner",
          "type": "address"
        },
        {
          "indexed": false,
          "internalType": "uint64",
          "name": "amount",
          "type": "uint64"
        }
      ],
      "name": "FungibleTokenDeposited",
      "type": "event"
    },
    {
      "anonymous": false,
      "inputs": [
        {
          "indexed": false,
          "internalType": "address",
          "name": "interactor",
          "type": "address"
        },
        {
          "indexed": false,
          "internalType": "address",
          "name": "campaigner",
          "type": "address"
        },
        {
          "indexed": false,
          "internalType": "uint256",
          "name": "amount",
          "type": "uint256"
        }
      ],
      "name": "InteractorPaid",
      "type": "event"
    },
    {
      "anonymous": false,
      "inputs": [
        {
          "indexed": false,
          "internalType": "string",
          "name": "campaignAddress",
          "type": "string"
        },
        {
          "indexed": false,
          "internalType": "uint256",
          "name": "amount",
          "type": "uint256"
        }
      ],
      "name": "InteractorPaidDeferred",
      "type": "event"
    },
    {
      "anonymous": false,
      "inputs": [
        {
          "indexed": false,
          "internalType": "string",
          "name": "campaignAdddress",
          "type": "string"
        },
        {
          "indexed": false,
          "internalType": "uint256",
          "name": "amount",
          "type": "uint256"
        },
        {
          "indexed": false,
          "internalType": "uint32",
          "name": "campaignType",
          "type": "uint32"
        }
      ],
      "name": "NewCampaignIsAdded",
      "type": "event"
    },
    {
      "anonymous": false,
      "inputs": [
        {
          "indexed": false,
          "internalType": "address",
          "name": "owner",
          "type": "address"
        }
      ],
      "name": "OwnerSet",
      "type": "event"
    },
    {
      "anonymous": false,
      "inputs": [
        {
          "indexed": false,
          "internalType": "int256",
          "name": "responseCode",
          "type": "int256"
        }
      ],
      "name": "ResponseCode",
      "type": "event"
    },
    {
      "anonymous": false,
      "inputs": [
        {
          "indexed": false,
          "internalType": "string",
          "name": "campaignAddress",
          "type": "string"
        },
        {
          "indexed": false,
          "internalType": "uint32",
          "name": "campaignType",
          "type": "uint32"
        }
      ],
      "name": "campaignClosed",
      "type": "event"
    },
    {
      "anonymous": false,
      "inputs": [
        {
          "indexed": false,
          "internalType": "string",
          "name": "campaignAddress",
          "type": "string"
        },
        {
          "indexed": false,
          "internalType": "uint32",
          "name": "campaignType",
          "type": "uint32"
        }
      ],
      "name": "campaignExpired",
      "type": "event"
    },
    {
      "inputs": [],
      "name": "FUNGIBLE",
      "outputs": [
        {
          "internalType": "uint32",
          "name": "",
          "type": "uint32"
        }
      ],
      "stateMutability": "view",
      "type": "function"
    },
    {
      "inputs": [],
      "name": "HBAR",
      "outputs": [
        {
          "internalType": "uint32",
          "name": "",
          "type": "uint32"
        }
      ],
      "stateMutability": "view",
      "type": "function"
    },
    {
      "inputs": [],
      "name": "NFT",
      "outputs": [
        {
          "internalType": "uint32",
          "name": "",
          "type": "uint32"
        }
      ],
      "stateMutability": "view",
      "type": "function"
    },
    {
      "inputs": [
        {
          "internalType": "address",
          "name": "",
          "type": "address"
        }
      ],
      "name": "balances",
      "outputs": [
        {
          "internalType": "uint256",
          "name": "",
          "type": "uint256"
        }
      ],
      "stateMutability": "view",
      "type": "function"
    },
    {
      "inputs": [
        {
          "internalType": "string",
          "name": "",
          "type": "string"
        }
      ],
      "name": "campaignBalances",
      "outputs": [
        {
          "internalType": "uint256",
          "name": "",
          "type": "uint256"
        }
      ],
      "stateMutability": "view",
      "type": "function"
    },
    {
      "inputs": [
        {
          "internalType": "string",
          "name": "",
          "type": "string"
        }
      ],
      "name": "campaignRandomNumber",
      "outputs": [
        {
          "internalType": "uint32",
          "name": "",
          "type": "uint32"
        }
      ],
      "stateMutability": "view",
      "type": "function"
    },
    {
      "inputs": [],
      "name": "id",
      "outputs": [
        {
          "internalType": "uint32",
          "name": "",
          "type": "uint32"
        }
      ],
      "stateMutability": "view",
      "type": "function"
    },
    {
      "inputs": [
        {
          "internalType": "address",
          "name": "",
          "type": "address"
        }
      ],
      "name": "nftCampaigner",
      "outputs": [
        {
          "internalType": "uint32",
          "name": "",
          "type": "uint32"
        }
      ],
      "stateMutability": "view",
      "type": "function"
    },
    {
      "inputs": [
        {
          "internalType": "address",
          "name": "",
          "type": "address"
        }
      ],
      "name": "rewardBalances",
      "outputs": [
        {
          "internalType": "uint256",
          "name": "",
          "type": "uint256"
        }
      ],
      "stateMutability": "view",
      "type": "function"
    },
    {
      "inputs": [
        {
          "internalType": "address",
          "name": "",
          "type": "address"
        },
        {
          "internalType": "address",
          "name": "",
          "type": "address"
        },
        {
          "internalType": "uint256",
          "name": "",
          "type": "uint256"
        }
      ],
      "name": "rewardTokenBalances",
      "outputs": [
        {
          "internalType": "uint64",
          "name": "",
          "type": "uint64"
        }
      ],
      "stateMutability": "view",
      "type": "function"
    },
    {
      "inputs": [
        {
          "internalType": "address",
          "name": "",
          "type": "address"
        },
        {
          "internalType": "address",
          "name": "",
          "type": "address"
        },
        {
          "internalType": "uint256",
          "name": "",
          "type": "uint256"
        }
      ],
      "name": "tokenBalances",
      "outputs": [
        {
          "internalType": "uint64",
          "name": "",
          "type": "uint64"
        }
      ],
      "stateMutability": "view",
      "type": "function"
    },
    {
      "inputs": [
        {
          "internalType": "string",
          "name": "",
          "type": "string"
        },
        {
          "internalType": "address",
          "name": "",
          "type": "address"
        },
        {
          "internalType": "uint256",
          "name": "",
          "type": "uint256"
        }
      ],
      "name": "tokenCampaignBalances",
      "outputs": [
        {
          "internalType": "uint64",
          "name": "",
          "type": "uint64"
        }
      ],
      "stateMutability": "view",
      "type": "function"
    },
    {
      "inputs": [
        {
          "internalType": "uint32",
          "name": "",
          "type": "uint32"
        },
        {
          "internalType": "address",
          "name": "",
          "type": "address"
        }
      ],
      "name": "whitelistedToken",
      "outputs": [
        {
          "internalType": "bool",
          "name": "",
          "type": "bool"
        }
      ],
      "stateMutability": "view",
      "type": "function"
    },
    {
      "inputs": [
        {
          "internalType": "address",
          "name": "tokenAddress",
          "type": "address"
        },
        {
          "internalType": "uint32",
          "name": "tokenType",
          "type": "uint32"
        },
        {
          "internalType": "bool",
          "name": "isWhitelisted",
          "type": "bool"
        }
      ],
      "name": "associateToken",
      "outputs": [],
      "stateMutability": "nonpayable",
      "type": "function"
    },
    {
      "inputs": [
        {
          "internalType": "uint32",
          "name": "tokenType",
          "type": "uint32"
        }
      ],
      "name": "getAllWhitelistedTokens",
      "outputs": [
        {
          "internalType": "address[]",
          "name": "",
          "type": "address[]"
        }
      ],
      "stateMutability": "view",
      "type": "function"
    },
    {
      "inputs": [
        {
          "internalType": "uint32",
          "name": "tokenType",
          "type": "uint32"
        },
        {
          "internalType": "address",
          "name": "tokenAddress",
          "type": "address"
        }
      ],
      "name": "isTokenWhitelisted",
      "outputs": [
        {
          "internalType": "bool",
          "name": "",
          "type": "bool"
        }
      ],
      "stateMutability": "view",
      "type": "function"
    },
    {
      "inputs": [
        {
          "internalType": "address",
          "name": "newCampaigner",
          "type": "address"
        }
      ],
      "name": "addCampaigner",
      "outputs": [],
      "stateMutability": "nonpayable",
      "type": "function"
    },
    {
      "inputs": [
        {
          "internalType": "address",
          "name": "campaigner",
          "type": "address"
        },
        {
          "internalType": "address",
          "name": "tokenId",
          "type": "address"
        },
        {
          "internalType": "uint32",
          "name": "tokenType",
          "type": "uint32"
        }
      ],
      "name": "getFungibleTokenBalance",
      "outputs": [
        {
          "internalType": "uint64",
          "name": "res",
          "type": "uint64"
        }
      ],
      "stateMutability": "view",
      "type": "function"
    },
    {
      "inputs": [
        {
          "internalType": "address",
          "name": "campaigner",
          "type": "address"
        },
        {
          "internalType": "address",
          "name": "tokenId",
          "type": "address"
        },
        {
          "internalType": "uint32",
          "name": "tokenType",
          "type": "uint32"
        }
      ],
      "name": "getNFTTokenBalance",
      "outputs": [
        {
          "internalType": "uint64",
          "name": "res",
          "type": "uint64"
        }
      ],
      "stateMutability": "view",
      "type": "function"
    },
    {
      "inputs": [
        {
          "internalType": "string",
          "name": "campaignAddress",
          "type": "string"
        }
      ],
      "name": "getCampaignBalance",
      "outputs": [
        {
          "internalType": "uint256",
          "name": "",
          "type": "uint256"
        }
      ],
      "stateMutability": "view",
      "type": "function"
    }
  ],
  "bytecode": "0x6080604052600d805463ffffffff1916600117905534801561002057600080fd5b50611010806100306000396000f3fe608060405234801561001057600080fd5b506004361061012b5760003560e01c80637c0b8de2116100ad578063bff3199611610071578063bff3199614610364578063c1cde80c14610377578063cfe3f9a814610397578063d84c0e27146103c8578063f4ff52ae146103db57600080fd5b80637c0b8de2146102f157806393c8dc6d146102f9578063af640d0f14610319578063bc3ef1e914610329578063bde81c0b1461034f57600080fd5b8063362e34b9116100f4578063362e34b9146102505780634377e3ff1461028e5780634a3b1152146102ab5780634f18230d146102be578063774256c7146102e957600080fd5b80625405211461013057806305346ac51461019957806327e235e3146101ac578063307869dd146101da5780633262af5414610215575b600080fd5b61017b61013e366004610c61565b82516020818501810180516009825292820195820195909520919094528352600091825260408083209093528152205467ffffffffffffffff1681565b60405167ffffffffffffffff90911681526020015b60405180910390f35b61017b6101a7366004610ccc565b6103ee565b6101cc6101ba366004610d0f565b60026020526000908152604090205481565b604051908152602001610190565b61017b6101e8366004610d31565b600660209081526000938452604080852082529284528284209052825290205467ffffffffffffffff1681565b61017b610223366004610d31565b600760209081526000938452604080852082529284528284209052825290205467ffffffffffffffff1681565b61027e61025e366004610d5d565b600460209081526000928352604080842090915290825290205460ff1681565b6040519015158152602001610190565b610296600181565b60405163ffffffff9091168152602001610190565b6101cc6102b9366004610d90565b6104c5565b6101cc6102cc366004610d90565b805160208183018101805160088252928201919093012091525481565b610296600081565b610296600281565b6101cc610307366004610d0f565b60036020526000908152604090205481565b600d546102969063ffffffff1681565b610296610337366004610d0f565b600b6020526000908152604090205463ffffffff1681565b61036261035d366004610dcd565b610531565b005b610362610372366004610d0f565b610823565b61038a610385366004610e19565b61096f565b6040516101909190610e34565b6102966103a5366004610d90565b8051602081830181018051600e8252928201919093012091525463ffffffff1681565b61017b6103d6366004610ccc565b610a3e565b61027e6103e9366004610d5d565b610b73565b600080546001600160a01b031633148061041757503360009081526001602052604090205460ff165b61043c5760405162461bcd60e51b815260040161043390610e81565b60405180910390fd5b63ffffffff82166002146104855760405162461bcd60e51b815260206004820152601060248201526f151bdad95b881a5cc81b9bdd0813919560821b6044820152606401610433565b50506001600160a01b03918216600090815260066020908152604080832093909416825291825282812060028252909152205467ffffffffffffffff1690565b600080546001600160a01b03163314806104ee57503360009081526001602052604090205460ff165b61050a5760405162461bcd60e51b815260040161043390610e81565b60088260405161051a9190610ee8565b90815260200160405180910390205490505b919050565b6000546001600160a01b0316331461055b5760405162461bcd60e51b815260040161043390610f17565b63ffffffff821660011480610576575063ffffffff82166002145b6105b75760405162461bcd60e51b8152602060048201526012602482015271496e76616c696420746f6b656e207479706560701b6044820152606401610433565b8080156105ee575063ffffffff821660009081526004602090815260408083206001600160a01b038716845290915290205460ff16155b15610656575063ffffffff1660008181526004602090815260408083206001600160a01b0395909516808452948252808320805460ff1916600190811790915593835260058252822080549384018155825290200180546001600160a01b0319169091179055565b8015801561068d575063ffffffff821660009081526004602090815260408083206001600160a01b038716845290915290205460ff165b1561081e5763ffffffff821660008181526004602090815260408083206001600160a01b03881684528252808320805460ff191690559282526005905290812054905b8181101561081b5763ffffffff8416600090815260056020526040902080546001600160a01b03871691908390811061070b5761070b610f6c565b6000918252602090912001546001600160a01b0316036108095763ffffffff84166000908152600560205260409020610745600184610f98565b8154811061075557610755610f6c565b600091825260208083209091015463ffffffff871683526005909152604090912080546001600160a01b03909216918390811061079457610794610f6c565b600091825260208083209190910180546001600160a01b0319166001600160a01b03949094169390931790925563ffffffff861681526005909152604090208054806107e2576107e2610fab565b600082815260209020810160001990810180546001600160a01b031916905501905561081b565b8061081381610fc1565b9150506106d0565b50505b505050565b6000546001600160a01b0316331461084d5760405162461bcd60e51b815260040161043390610f17565b6001600160a01b0381166108a35760405162461bcd60e51b815260206004820152601a60248201527f496e76616c69642063616d706169676e657220616464726573730000000000006044820152606401610433565b6001600160a01b03811660009081526001602052604090205460ff1661090b5760405162461bcd60e51b815260206004820152601960248201527f43616d706169676e657220616c726561647920657869737473000000000000006044820152606401610433565b6001600160a01b0381166000818152600160208181526040808420805460ff19169093179092556002815281832092909255519182527f3d04fb94919fdfa7708320cdebdf093992d88d792b3d5f4144c364cda00129c6910160405180910390a150565b606063ffffffff82166001148061098c575063ffffffff82166002145b6109cd5760405162461bcd60e51b8152602060048201526012602482015271496e76616c696420746f6b656e207479706560701b6044820152606401610433565b63ffffffff821660009081526005602090815260409182902080548351818402810184019094528084529091830182828015610a3257602002820191906000526020600020905b81546001600160a01b03168152600190910190602001808311610a14575b50505050509050919050565b600080546001600160a01b0316331480610a6757503360009081526001602052604090205460ff165b610a835760405162461bcd60e51b815260040161043390610e81565b63ffffffff8216600114610ad15760405162461bcd60e51b8152602060048201526015602482015274546f6b656e206973206e6f742066756e6769626c6560581b6044820152606401610433565b610adc600184610b73565b610b335760405162461bcd60e51b815260206004820152602260248201527f52657175657374656420746f6b656e206973206e6f742077686974656c697374604482015261195960f21b6064820152608401610433565b50506001600160a01b03918216600090815260066020908152604080832093909416825291825282812060018252909152205467ffffffffffffffff1690565b63ffffffff821660009081526004602090815260408083206001600160a01b038516845290915290205460ff165b92915050565b634e487b7160e01b600052604160045260246000fd5b600082601f830112610bce57600080fd5b813567ffffffffffffffff80821115610be957610be9610ba7565b604051601f8301601f19908116603f01168101908282118183101715610c1157610c11610ba7565b81604052838152866020858801011115610c2a57600080fd5b836020870160208301376000602085830101528094505050505092915050565b80356001600160a01b038116811461052c57600080fd5b600080600060608486031215610c7657600080fd5b833567ffffffffffffffff811115610c8d57600080fd5b610c9986828701610bbd565b935050610ca860208501610c4a565b9150604084013590509250925092565b803563ffffffff8116811461052c57600080fd5b600080600060608486031215610ce157600080fd5b610cea84610c4a565b9250610cf860208501610c4a565b9150610d0660408501610cb8565b90509250925092565b600060208284031215610d2157600080fd5b610d2a82610c4a565b9392505050565b600080600060608486031215610d4657600080fd5b610d4f84610c4a565b9250610ca860208501610c4a565b60008060408385031215610d7057600080fd5b610d7983610cb8565b9150610d8760208401610c4a565b90509250929050565b600060208284031215610da257600080fd5b813567ffffffffffffffff811115610db957600080fd5b610dc584828501610bbd565b949350505050565b600080600060608486031215610de257600080fd5b610deb84610c4a565b9250610df960208501610cb8565b915060408401358015158114610e0e57600080fd5b809150509250925092565b600060208284031215610e2b57600080fd5b610d2a82610cb8565b6020808252825182820181905260009190848201906040850190845b81811015610e755783516001600160a01b031683529284019291840191600101610e50565b50909695505050505050565b60208082526041908201527f556e617574686f72697a6520416363657373207265717565737465642c20436160408201527f6c6c6572206d757374206265206f776e6572206f722063616d706169676e65726060820152601760f91b608082015260a00190565b6000825160005b81811015610f095760208186018101518583015201610eef565b506000920191825250919050565b60208082526035908201527f556e617574686f72697a6520416363657373207265717565737465642c204361604082015274363632b91034b9903737ba103a34329037bbb732b960591b606082015260800190565b634e487b7160e01b600052603260045260246000fd5b634e487b7160e01b600052601160045260246000fd5b81810381811115610ba157610ba1610f82565b634e487b7160e01b600052603160045260246000fd5b600060018201610fd357610fd3610f82565b506001019056fea26469706673582212204d62fad9cf9013ca35a2bf29d7b5e1a0f37f60e5759fd0031921cf7936751a6864736f6c63430008110033",
  "immutableReferences": {},
  "source": "// SPDX-License-Identifier: Apache-2.0\r\npragma solidity ^0.8.17;\r\n\r\nimport \"./HashbuzzStates.sol\";\r\ncontract Utils is HashbuzzStates {\r\n    /**\r\n     * @dev Adds or removes a token from the whitelist.\r\n     * @param tokenAddress The address of the token.\r\n     * @param tokenType The type of the token (1 for FUNGIBLE, 2 for NFT).\r\n     * @param isWhitelisted Boolean flag to mark the token as whitelisted or not.\r\n     */\r\n    function associateToken(\r\n        address tokenAddress,\r\n        uint32 tokenType,\r\n        bool isWhitelisted\r\n    ) public onlyOwner {\r\n        require(\r\n            tokenType == FUNGIBLE || tokenType == NFT,\r\n            \"Invalid token type\"\r\n        );\r\n\r\n        if (isWhitelisted && !whitelistedToken[tokenType][tokenAddress]) {\r\n            // Add to whitelist if not already whitelisted\r\n            whitelistedToken[tokenType][tokenAddress] = true;\r\n            whitelistedAddresses[tokenType].push(tokenAddress);\r\n        } else if (\r\n            !isWhitelisted && whitelistedToken[tokenType][tokenAddress]\r\n        ) {\r\n            // Remove from whitelist if currently whitelisted\r\n            whitelistedToken[tokenType][tokenAddress] = false;\r\n\r\n            // Remove address from whitelistedAddresses array\r\n            uint256 length = whitelistedAddresses[tokenType].length;\r\n            for (uint256 i = 0; i < length; i++) {\r\n                if (whitelistedAddresses[tokenType][i] == tokenAddress) {\r\n                    whitelistedAddresses[tokenType][i] = whitelistedAddresses[\r\n                        tokenType\r\n                    ][length - 1];\r\n                    whitelistedAddresses[tokenType].pop();\r\n                    break;\r\n                }\r\n            }\r\n        }\r\n    }\r\n\r\n    /**\r\n     * @dev Retrieves all whitelisted addresses for a given token type.\r\n     * @param tokenType The type of the token (1 for FUNGIBLE, 2 for NFT).\r\n     * @return An array of addresses that are whitelisted for the given token type.\r\n     */\r\n    function getAllWhitelistedTokens(\r\n        uint32 tokenType\r\n    ) public view returns (address[] memory) {\r\n        require(\r\n            tokenType == FUNGIBLE || tokenType == NFT,\r\n            \"Invalid token type\"\r\n        );\r\n        return whitelistedAddresses[tokenType];\r\n    }\r\n\r\n    /**\r\n     * @dev Checks if a specific token address is whitelisted for a given token type.\r\n     * @param tokenType The type of the token (1 for FUNGIBLE, 2 for NFT).\r\n     * @param tokenAddress The address of the token to check.\r\n     * @return Boolean flag indicating if the token is whitelisted.\r\n     */\r\n    function isTokenWhitelisted(\r\n        uint32 tokenType,\r\n        address tokenAddress\r\n    ) public view returns (bool) {\r\n        return whitelistedToken[tokenType][tokenAddress];\r\n    }\r\n\r\n    /**\r\n     * @dev Whitelist cmapigner to the user.\r\n     * @param newCampaigner Address of the user having campaigner role to be used here\r\n     */\r\n    function addCampaigner(address newCampaigner) public onlyOwner {\r\n        require(newCampaigner != address(0), \"Invalid campaigner address\");\r\n        require(isCampaigner(newCampaigner), \"Campaigner already exists\");\r\n        campaigners[newCampaigner] = true;\r\n        balances[newCampaigner] = 0;\r\n        emit CampaignerAdded(newCampaigner);\r\n    }\r\n\r\n    /**\r\n     *\r\n     * @param campaigner Address of the campaigner'solidity address\r\n     * @param tokenId Solidity address used for the account\r\n     * @param tokenType The type of the token (FUNGIBLE or NFT) [uint32] (1 for FUNGIBLE & 2 for NFT)\r\n     */\r\n    function getFungibleTokenBalance(\r\n        address campaigner,\r\n        address tokenId,\r\n        uint32 tokenType\r\n    ) public view onlyOwnerOrCampaigner returns (uint64 res) {\r\n        // tokentype should be fungible\r\n        require(tokenType == FUNGIBLE, \"Token is not fungible\");\r\n        // required token to be associated\r\n        require(\r\n            isTokenWhitelisted(FUNGIBLE, tokenId),\r\n            \"Requested token is not whitelisted\"\r\n        );\r\n        res = tokenBalances[campaigner][tokenId][FUNGIBLE];\r\n    }\r\n\r\n    /** Balance Query functions only callable by campaigner it self and no others else */\r\n    /**\r\n     * @dev Balance holded by the user to see.\r\n     * @param campaigner Solidity address of the campaigner.\r\n     * @param tokenId Solidity address of the token.\r\n     * @param tokenType The type of the token (FUNGIBLE or NFT) [uint32] (1 for FUNGIBLE & 2 for NFT)\r\n     *                  1 for FUNGIBLE and 2 for NFT.\r\n     */\r\n    function getNFTTokenBalance(\r\n        address campaigner,\r\n        address tokenId,\r\n        uint32 tokenType\r\n    ) public view onlyOwnerOrCampaigner returns (uint64 res) {\r\n        require(tokenType == NFT, \"Token is not NFT\");\r\n        res = tokenBalances[campaigner][tokenId][NFT];\r\n    }\r\n\r\n    /** Campaign Specific balance for the cmapigners */\r\n    /**\r\n     * @dev Balance holded by the user to see.\r\n     * @param campaignAddress Solidity address of the campaigner.\r\n     */\r\n    function getCampaignBalance(\r\n        string memory campaignAddress\r\n    ) public view onlyOwnerOrCampaigner returns (uint256) {\r\n        return campaignBalances[campaignAddress];\r\n    }\r\n}\r\n",
  "sourcePath": "D:\\rajatk\\hashbuzz-staging\\smv201\\contracts\\HashbuzzModules\\Utils.sol",
  "compiler": {
    "name": "solc",
    "version": "0.8.17+commit.8df45f5f.Emscripten.clang"
  },
  "schemaVersion": "3.4.16",
  "updatedAt": "2024-10-27T16:41:45.385Z",
  "devdoc": {
    "kind": "dev",
    "methods": {
      "addCampaigner(address)": {
        "details": "Whitelist cmapigner to the user.",
        "params": {
          "newCampaigner": "Address of the user having campaigner role to be used here"
        }
      },
      "associateToken(address,uint32,bool)": {
        "details": "Adds or removes a token from the whitelist.",
        "params": {
          "isWhitelisted": "Boolean flag to mark the token as whitelisted or not.",
          "tokenAddress": "The address of the token.",
          "tokenType": "The type of the token (1 for FUNGIBLE, 2 for NFT)."
        }
      },
      "getAllWhitelistedTokens(uint32)": {
        "details": "Retrieves all whitelisted addresses for a given token type.",
        "params": {
          "tokenType": "The type of the token (1 for FUNGIBLE, 2 for NFT)."
        },
        "returns": {
          "_0": "An array of addresses that are whitelisted for the given token type."
        }
      },
      "getCampaignBalance(string)": {
        "details": "Balance holded by the user to see.",
        "params": {
          "campaignAddress": "Solidity address of the campaigner."
        }
      },
      "getFungibleTokenBalance(address,address,uint32)": {
        "params": {
          "campaigner": "Address of the campaigner'solidity address",
          "tokenId": "Solidity address used for the account",
          "tokenType": "The type of the token (FUNGIBLE or NFT) [uint32] (1 for FUNGIBLE & 2 for NFT)"
        }
      },
      "getNFTTokenBalance(address,address,uint32)": {
        "details": "Balance holded by the user to see.",
        "params": {
          "campaigner": "Solidity address of the campaigner.",
          "tokenId": "Solidity address of the token.",
          "tokenType": "The type of the token (FUNGIBLE or NFT) [uint32] (1 for FUNGIBLE & 2 for NFT)                  1 for FUNGIBLE and 2 for NFT."
        }
      },
      "isTokenWhitelisted(uint32,address)": {
        "details": "Checks if a specific token address is whitelisted for a given token type.",
        "params": {
          "tokenAddress": "The address of the token to check.",
          "tokenType": "The type of the token (1 for FUNGIBLE, 2 for NFT)."
        },
        "returns": {
          "_0": "Boolean flag indicating if the token is whitelisted."
        }
      }
    },
    "version": 1
  },
  "userdoc": {
    "kind": "user",
    "methods": {},
    "version": 1
  }
}