{
  "contractName": "Utils",
  "abi": [
    {
      "anonymous": false,
      "inputs": [
        {
          "indexed": false,
          "internalType": "address",
          "name": "campaigner",
          "type": "address"
        },
        {
          "indexed": false,
          "internalType": "uint256",
          "name": "updatedBalance",
          "type": "uint256"
        }
      ],
      "name": "BalanceUpdated",
      "type": "event"
    },
    {
      "anonymous": false,
      "inputs": [
        {
          "indexed": false,
          "internalType": "address",
          "name": "campaigner",
          "type": "address"
        }
      ],
      "name": "CampaignerAdded",
      "type": "event"
    },
    {
      "anonymous": false,
      "inputs": [
        {
          "indexed": false,
          "internalType": "address",
          "name": "campaigner",
          "type": "address"
        }
      ],
      "name": "CampaignerDeleted",
      "type": "event"
    },
    {
      "anonymous": false,
      "inputs": [
        {
          "indexed": false,
          "internalType": "address",
          "name": "tokenAddress",
          "type": "address"
        }
      ],
      "name": "CreatedToken",
      "type": "event"
    },
    {
      "anonymous": false,
      "inputs": [
        {
          "indexed": false,
          "internalType": "address",
          "name": "campaigner",
          "type": "address"
        },
        {
          "indexed": false,
          "internalType": "uint256",
          "name": "amount",
          "type": "uint256"
        }
      ],
      "name": "FundsDeposited",
      "type": "event"
    },
    {
      "anonymous": false,
      "inputs": [
        {
          "indexed": false,
          "internalType": "address",
          "name": "campaigner",
          "type": "address"
        },
        {
          "indexed": false,
          "internalType": "uint256",
          "name": "amount",
          "type": "uint256"
        }
      ],
      "name": "FundsWithdrawn",
      "type": "event"
    },
    {
      "anonymous": false,
      "inputs": [
        {
          "indexed": false,
          "internalType": "address",
          "name": "campaigner",
          "type": "address"
        },
        {
          "indexed": false,
          "internalType": "address",
          "name": "tokenId",
          "type": "address"
        },
        {
          "indexed": false,
          "internalType": "uint64",
          "name": "updatedBalance",
          "type": "uint64"
        }
      ],
      "name": "FungibleTokenBalanceUpdated",
      "type": "event"
    },
    {
      "anonymous": false,
      "inputs": [
        {
          "indexed": false,
          "internalType": "address",
          "name": "campaigner",
          "type": "address"
        },
        {
          "indexed": false,
          "internalType": "uint64",
          "name": "amount",
          "type": "uint64"
        }
      ],
      "name": "FungibleTokenDeposited",
      "type": "event"
    },
    {
      "anonymous": false,
      "inputs": [
        {
          "indexed": false,
          "internalType": "address",
          "name": "interactor",
          "type": "address"
        },
        {
          "indexed": false,
          "internalType": "address",
          "name": "campaigner",
          "type": "address"
        },
        {
          "indexed": false,
          "internalType": "uint256",
          "name": "amount",
          "type": "uint256"
        }
      ],
      "name": "InteractorPaid",
      "type": "event"
    },
    {
      "anonymous": false,
      "inputs": [
        {
          "indexed": false,
          "internalType": "string",
          "name": "campaignAddress",
          "type": "string"
        },
        {
          "indexed": false,
          "internalType": "uint256",
          "name": "amount",
          "type": "uint256"
        }
      ],
      "name": "InteractorPaidDeferred",
      "type": "event"
    },
    {
      "anonymous": false,
      "inputs": [
        {
          "indexed": false,
          "internalType": "string",
          "name": "campaignAdddress",
          "type": "string"
        },
        {
          "indexed": false,
          "internalType": "uint256",
          "name": "amount",
          "type": "uint256"
        },
        {
          "indexed": false,
          "internalType": "uint32",
          "name": "campaignType",
          "type": "uint32"
        }
      ],
      "name": "NewCampaignIsAdded",
      "type": "event"
    },
    {
      "anonymous": false,
      "inputs": [
        {
          "indexed": false,
          "internalType": "address",
          "name": "owner",
          "type": "address"
        }
      ],
      "name": "OwnerSet",
      "type": "event"
    },
    {
      "anonymous": false,
      "inputs": [
        {
          "indexed": false,
          "internalType": "int256",
          "name": "responseCode",
          "type": "int256"
        }
      ],
      "name": "ResponseCode",
      "type": "event"
    },
    {
      "anonymous": false,
      "inputs": [
        {
          "indexed": false,
          "internalType": "string",
          "name": "campaignAddress",
          "type": "string"
        },
        {
          "indexed": false,
          "internalType": "uint32",
          "name": "campaignType",
          "type": "uint32"
        }
      ],
      "name": "campaignClosed",
      "type": "event"
    },
    {
      "anonymous": false,
      "inputs": [
        {
          "indexed": false,
          "internalType": "string",
          "name": "campaignAddress",
          "type": "string"
        },
        {
          "indexed": false,
          "internalType": "uint32",
          "name": "campaignType",
          "type": "uint32"
        }
      ],
      "name": "campaignExpired",
      "type": "event"
    },
    {
      "inputs": [],
      "name": "FUNGIBLE",
      "outputs": [
        {
          "internalType": "uint32",
          "name": "",
          "type": "uint32"
        }
      ],
      "stateMutability": "view",
      "type": "function"
    },
    {
      "inputs": [],
      "name": "HBAR",
      "outputs": [
        {
          "internalType": "uint32",
          "name": "",
          "type": "uint32"
        }
      ],
      "stateMutability": "view",
      "type": "function"
    },
    {
      "inputs": [],
      "name": "NFT",
      "outputs": [
        {
          "internalType": "uint32",
          "name": "",
          "type": "uint32"
        }
      ],
      "stateMutability": "view",
      "type": "function"
    },
    {
      "inputs": [
        {
          "internalType": "address",
          "name": "",
          "type": "address"
        }
      ],
      "name": "balances",
      "outputs": [
        {
          "internalType": "uint256",
          "name": "",
          "type": "uint256"
        }
      ],
      "stateMutability": "view",
      "type": "function"
    },
    {
      "inputs": [
        {
          "internalType": "string",
          "name": "",
          "type": "string"
        }
      ],
      "name": "campaignBalances",
      "outputs": [
        {
          "internalType": "uint256",
          "name": "",
          "type": "uint256"
        }
      ],
      "stateMutability": "view",
      "type": "function"
    },
    {
      "inputs": [
        {
          "internalType": "string",
          "name": "",
          "type": "string"
        }
      ],
      "name": "campaignRandomNumber",
      "outputs": [
        {
          "internalType": "uint32",
          "name": "",
          "type": "uint32"
        }
      ],
      "stateMutability": "view",
      "type": "function"
    },
    {
      "inputs": [],
      "name": "id",
      "outputs": [
        {
          "internalType": "uint32",
          "name": "",
          "type": "uint32"
        }
      ],
      "stateMutability": "view",
      "type": "function"
    },
    {
      "inputs": [
        {
          "internalType": "address",
          "name": "",
          "type": "address"
        }
      ],
      "name": "nftCampaigner",
      "outputs": [
        {
          "internalType": "uint32",
          "name": "",
          "type": "uint32"
        }
      ],
      "stateMutability": "view",
      "type": "function"
    },
    {
      "inputs": [
        {
          "internalType": "address",
          "name": "",
          "type": "address"
        }
      ],
      "name": "rewardBalances",
      "outputs": [
        {
          "internalType": "uint256",
          "name": "",
          "type": "uint256"
        }
      ],
      "stateMutability": "view",
      "type": "function"
    },
    {
      "inputs": [
        {
          "internalType": "address",
          "name": "",
          "type": "address"
        },
        {
          "internalType": "address",
          "name": "",
          "type": "address"
        },
        {
          "internalType": "uint256",
          "name": "",
          "type": "uint256"
        }
      ],
      "name": "rewardTokenBalances",
      "outputs": [
        {
          "internalType": "uint64",
          "name": "",
          "type": "uint64"
        }
      ],
      "stateMutability": "view",
      "type": "function"
    },
    {
      "inputs": [
        {
          "internalType": "address",
          "name": "",
          "type": "address"
        },
        {
          "internalType": "address",
          "name": "",
          "type": "address"
        },
        {
          "internalType": "uint256",
          "name": "",
          "type": "uint256"
        }
      ],
      "name": "tokenBalances",
      "outputs": [
        {
          "internalType": "uint64",
          "name": "",
          "type": "uint64"
        }
      ],
      "stateMutability": "view",
      "type": "function"
    },
    {
      "inputs": [
        {
          "internalType": "string",
          "name": "",
          "type": "string"
        },
        {
          "internalType": "address",
          "name": "",
          "type": "address"
        },
        {
          "internalType": "uint256",
          "name": "",
          "type": "uint256"
        }
      ],
      "name": "tokenCampaignBalances",
      "outputs": [
        {
          "internalType": "uint64",
          "name": "",
          "type": "uint64"
        }
      ],
      "stateMutability": "view",
      "type": "function"
    },
    {
      "inputs": [
        {
          "internalType": "address",
          "name": "newCampaigner",
          "type": "address"
        }
      ],
      "name": "addCampaigner",
      "outputs": [],
      "stateMutability": "nonpayable",
      "type": "function"
    },
    {
      "inputs": [
        {
          "internalType": "address",
          "name": "sender",
          "type": "address"
        },
        {
          "internalType": "address",
          "name": "tokenAddress",
          "type": "address"
        },
        {
          "internalType": "uint32",
          "name": "tokenType",
          "type": "uint32"
        }
      ],
      "name": "associateToken",
      "outputs": [],
      "stateMutability": "nonpayable",
      "type": "function"
    },
    {
      "inputs": [
        {
          "internalType": "address",
          "name": "campaigner",
          "type": "address"
        },
        {
          "internalType": "address",
          "name": "tokenId",
          "type": "address"
        },
        {
          "internalType": "uint32",
          "name": "tokenType",
          "type": "uint32"
        }
      ],
      "name": "getFungibleTokenBalance",
      "outputs": [
        {
          "internalType": "uint64",
          "name": "res",
          "type": "uint64"
        }
      ],
      "stateMutability": "view",
      "type": "function"
    },
    {
      "inputs": [
        {
          "internalType": "address",
          "name": "campaigner",
          "type": "address"
        },
        {
          "internalType": "address",
          "name": "tokenId",
          "type": "address"
        },
        {
          "internalType": "uint32",
          "name": "tokenType",
          "type": "uint32"
        }
      ],
      "name": "getNFTTokenBalance",
      "outputs": [
        {
          "internalType": "uint64",
          "name": "res",
          "type": "uint64"
        }
      ],
      "stateMutability": "view",
      "type": "function"
    },
    {
      "inputs": [
        {
          "internalType": "string",
          "name": "campaignAddress",
          "type": "string"
        }
      ],
      "name": "getCampaignBalance",
      "outputs": [
        {
          "internalType": "uint256",
          "name": "",
          "type": "uint256"
        }
      ],
      "stateMutability": "view",
      "type": "function"
    }
  ],
  "bytecode": "0x6080604052600c805463ffffffff1916600117905534801561002057600080fd5b50610b58806100306000396000f3fe608060405234801561001057600080fd5b506004361061010a5760003560e01c80635158d25d116100a2578063af640d0f11610071578063af640d0f146102cf578063bc3ef1e9146102df578063bff3199614610305578063cfe3f9a814610318578063d84c0e271461034957600080fd5b80635158d25d1461028a578063774256c71461029f5780637c0b8de2146102a757806393c8dc6d146102af57600080fd5b80633262af54116100de5780633262af54146101f45780634377e3ff1461022f5780634a3b11521461024c5780634f18230d1461025f57600080fd5b80625405211461010f57806305346ac51461017857806327e235e31461018b578063307869dd146101b9575b600080fd5b61015a61011d366004610905565b82516020818501810180516007825292820195820195909520919094528352600091825260408083209093528152205467ffffffffffffffff1681565b60405167ffffffffffffffff90911681526020015b60405180910390f35b61015a61018636600461095c565b61035c565b6101ab6101993660046109ac565b60026020526000908152604090205481565b60405190815260200161016f565b61015a6101c73660046109ce565b600460209081526000938452604080852082529284528284209052825290205467ffffffffffffffff1681565b61015a6102023660046109ce565b600560209081526000938452604080852082529284528284209052825290205467ffffffffffffffff1681565b610237600181565b60405163ffffffff909116815260200161016f565b6101ab61025a3660046109fa565b610433565b6101ab61026d3660046109fa565b805160208183018101805160068252928201919093012091525481565b61029d61029836600461095c565b61049f565b005b610237600081565b610237600281565b6101ab6102bd3660046109ac565b60036020526000908152604090205481565b600c546102379063ffffffff1681565b6102376102ed3660046109ac565b600a6020526000908152604090205463ffffffff1681565b61029d6103133660046109ac565b6105a3565b6102376103263660046109fa565b8051602081830181018051600d8252928201919093012091525463ffffffff1681565b61015a61035736600461095c565b6106ef565b600080546001600160a01b031633148061038557503360009081526001602052604090205460ff165b6103aa5760405162461bcd60e51b81526004016103a190610a37565b60405180910390fd5b63ffffffff82166002146103f35760405162461bcd60e51b815260206004820152601060248201526f151bdad95b881a5cc81b9bdd0813919560821b60448201526064016103a1565b50506001600160a01b03918216600090815260046020908152604080832093909416825291825282812060028252909152205467ffffffffffffffff1690565b600080546001600160a01b031633148061045c57503360009081526001602052604090205460ff165b6104785760405162461bcd60e51b81526004016103a190610a37565b6006826040516104889190610a9e565b90815260200160405180910390205490505b919050565b6000546001600160a01b031633146104c95760405162461bcd60e51b81526004016103a190610acd565b60001963ffffffff821601610519576001600160a01b038084166000908152600860209081526040808320938616835292815282822060018084529152919020805460ff19169091179055505050565b60011963ffffffff821601610566576001600160a01b038084166000908152600860209081526040808320938616835292815282822060028352905220805460ff19166001179055505050565b60405162461bcd60e51b8152602060048201526012602482015271496e76616c696420746f6b656e207479706560701b60448201526064016103a1565b6000546001600160a01b031633146105cd5760405162461bcd60e51b81526004016103a190610acd565b6001600160a01b0381166106235760405162461bcd60e51b815260206004820152601a60248201527f496e76616c69642063616d706169676e6572206164647265737300000000000060448201526064016103a1565b6001600160a01b03811660009081526001602052604090205460ff1661068b5760405162461bcd60e51b815260206004820152601960248201527f43616d706169676e657220616c7265616479206578697374730000000000000060448201526064016103a1565b6001600160a01b0381166000818152600160208181526040808420805460ff19169093179092556002815281832092909255519182527f3d04fb94919fdfa7708320cdebdf093992d88d792b3d5f4144c364cda00129c6910160405180910390a150565b600080546001600160a01b031633148061071857503360009081526001602052604090205460ff165b6107345760405162461bcd60e51b81526004016103a190610a37565b63ffffffff82166001146107825760405162461bcd60e51b8152602060048201526015602482015274546f6b656e206973206e6f742066756e6769626c6560581b60448201526064016103a1565b6001600160a01b0380851660009081526008602090815260408083209387168352928152828220600183529052205460ff1661080b5760405162461bcd60e51b815260206004820152602260248201527f52657175657374656420746f6b656e206973206e6f742077686974656c697374604482015261195960f21b60648201526084016103a1565b50506001600160a01b03918216600090815260046020908152604080832093909416825291825282812060018252909152205467ffffffffffffffff1690565b634e487b7160e01b600052604160045260246000fd5b600082601f83011261087257600080fd5b813567ffffffffffffffff8082111561088d5761088d61084b565b604051601f8301601f19908116603f011681019082821181831017156108b5576108b561084b565b816040528381528660208588010111156108ce57600080fd5b836020870160208301376000602085830101528094505050505092915050565b80356001600160a01b038116811461049a57600080fd5b60008060006060848603121561091a57600080fd5b833567ffffffffffffffff81111561093157600080fd5b61093d86828701610861565b93505061094c602085016108ee565b9150604084013590509250925092565b60008060006060848603121561097157600080fd5b61097a846108ee565b9250610988602085016108ee565b9150604084013563ffffffff811681146109a157600080fd5b809150509250925092565b6000602082840312156109be57600080fd5b6109c7826108ee565b9392505050565b6000806000606084860312156109e357600080fd5b6109ec846108ee565b925061094c602085016108ee565b600060208284031215610a0c57600080fd5b813567ffffffffffffffff811115610a2357600080fd5b610a2f84828501610861565b949350505050565b60208082526041908201527f556e617574686f72697a6520416363657373207265717565737465642c20436160408201527f6c6c6572206d757374206265206f776e6572206f722063616d706169676e65726060820152601760f91b608082015260a00190565b6000825160005b81811015610abf5760208186018101518583015201610aa5565b506000920191825250919050565b60208082526035908201527f556e617574686f72697a6520416363657373207265717565737465642c204361604082015274363632b91034b9903737ba103a34329037bbb732b960591b60608201526080019056fea26469706673582212209157738c10174a0e114d8466422e23d2a12bcc0ef5d6d43152191f07927a88c764736f6c63430008110033",
  "immutableReferences": {},
  "source": "// SPDX-License-Identifier: Apache-2.0\r\npragma solidity ^0.8.17;\r\n\r\nimport \"./HashbuzzStates.sol\";\r\ncontract Utils is HashbuzzStates {\r\n    /**\r\n     * @dev Whitelist cmapigner to the user.\r\n     * @param newCampaigner Address of the user having campaigner role to be used here\r\n     */\r\n    function addCampaigner(address newCampaigner) public onlyOwner {\r\n        require(newCampaigner != address(0), \"Invalid campaigner address\");\r\n        require(isCampaigner(newCampaigner), \"Campaigner already exists\");\r\n        campaigners[newCampaigner] = true;\r\n        balances[newCampaigner] = 0;\r\n        emit CampaignerAdded(newCampaigner);\r\n    }\r\n\r\n    /**\r\n     *\r\n     * @param sender Oly owner will be sender of this function.\r\n     * @param tokenAddress  Solidty address of the campaigner.\r\n     * @param tokenType The type of the token (FUNGIBLE or NFT) [uint32] (1 for FUNGIBLE & 2 for NFT)\r\n     */\r\n    function associateToken(\r\n        address sender,\r\n        address tokenAddress,\r\n        uint32 tokenType\r\n    ) public onlyOwner {\r\n        if (tokenType == FUNGIBLE) {\r\n            associateCampainer[sender][tokenAddress][FUNGIBLE] = true;\r\n        } else if (tokenType == NFT) {\r\n            associateCampainer[sender][tokenAddress][NFT] = true;\r\n        } else {\r\n            revert(\"Invalid token type\");\r\n        }\r\n    }\r\n\r\n    /**\r\n     *\r\n     * @param campaigner Address of the campaigner'solidity address\r\n     * @param tokenId Solidity address used for the account\r\n     * @param tokenType The type of the token (FUNGIBLE or NFT) [uint32] (1 for FUNGIBLE & 2 for NFT)\r\n     */\r\n    function getFungibleTokenBalance(\r\n        address campaigner,\r\n        address tokenId,\r\n        uint32 tokenType\r\n    ) public view onlyOwnerOrCampaigner returns (uint64 res) {\r\n        // tokentype should be fungible\r\n        require(tokenType == FUNGIBLE, \"Token is not fungible\");\r\n        // required token to be associated\r\n        require(\r\n            associateCampainer[campaigner][tokenId][FUNGIBLE],\r\n            \"Requested token is not whitelisted\"\r\n        );\r\n        res = tokenBalances[campaigner][tokenId][FUNGIBLE];\r\n    }\r\n\r\n    /** Balance Query functions only callable by campaigner it self and no others else */\r\n    /**\r\n     * @dev Balance holded by the user to see.\r\n     * @param campaigner Solidity address of the campaigner.\r\n     * @param tokenId Solidity address of the token.\r\n     * @param tokenType The type of the token (FUNGIBLE or NFT) [uint32] (1 for FUNGIBLE & 2 for NFT)\r\n     *                  1 for FUNGIBLE and 2 for NFT.\r\n     */\r\n    function getNFTTokenBalance(\r\n        address campaigner,\r\n        address tokenId,\r\n        uint32 tokenType\r\n    ) public view onlyOwnerOrCampaigner returns (uint64 res) {\r\n        require(tokenType == NFT, \"Token is not NFT\");\r\n        res = tokenBalances[campaigner][tokenId][NFT];\r\n    }\r\n\r\n    /** Campaign Specific balance for the cmapigners */\r\n    /**\r\n     * @dev Balance holded by the user to see.\r\n     * @param campaignAddress Solidity address of the campaigner.\r\n     */\r\n    function getCampaignBalance(\r\n        string memory campaignAddress\r\n    ) public view onlyOwnerOrCampaigner returns (uint256) {\r\n        return campaignBalances[campaignAddress];\r\n    }\r\n}\r\n",
  "sourcePath": "D:\\rajatk\\hashbuzz-staging\\smv201\\contracts\\HashbuzzModules\\Utils.sol",
  "compiler": {
    "name": "solc",
    "version": "0.8.17+commit.8df45f5f.Emscripten.clang"
  },
  "schemaVersion": "3.4.16",
  "updatedAt": "2024-10-27T11:04:29.884Z",
  "devdoc": {
    "kind": "dev",
    "methods": {
      "addCampaigner(address)": {
        "details": "Whitelist cmapigner to the user.",
        "params": {
          "newCampaigner": "Address of the user having campaigner role to be used here"
        }
      },
      "associateToken(address,address,uint32)": {
        "params": {
          "sender": "Oly owner will be sender of this function.",
          "tokenAddress": "Solidty address of the campaigner.",
          "tokenType": "The type of the token (FUNGIBLE or NFT) [uint32] (1 for FUNGIBLE & 2 for NFT)"
        }
      },
      "getCampaignBalance(string)": {
        "details": "Balance holded by the user to see.",
        "params": {
          "campaignAddress": "Solidity address of the campaigner."
        }
      },
      "getFungibleTokenBalance(address,address,uint32)": {
        "params": {
          "campaigner": "Address of the campaigner'solidity address",
          "tokenId": "Solidity address used for the account",
          "tokenType": "The type of the token (FUNGIBLE or NFT) [uint32] (1 for FUNGIBLE & 2 for NFT)"
        }
      },
      "getNFTTokenBalance(address,address,uint32)": {
        "details": "Balance holded by the user to see.",
        "params": {
          "campaigner": "Solidity address of the campaigner.",
          "tokenId": "Solidity address of the token.",
          "tokenType": "The type of the token (FUNGIBLE or NFT) [uint32] (1 for FUNGIBLE & 2 for NFT)                  1 for FUNGIBLE and 2 for NFT."
        }
      }
    },
    "version": 1
  },
  "userdoc": {
    "kind": "user",
    "methods": {},
    "version": 1
  }
}