{
  "contractName": "Utils",
  "abi": [
    {
      "anonymous": false,
      "inputs": [
        {
          "indexed": false,
          "internalType": "address",
          "name": "campaigner",
          "type": "address"
        },
        {
          "indexed": false,
          "internalType": "uint256",
          "name": "updatedBalance",
          "type": "uint256"
        }
      ],
      "name": "BalanceUpdated",
      "type": "event"
    },
    {
      "anonymous": false,
      "inputs": [
        {
          "indexed": false,
          "internalType": "string",
          "name": "campaignAddress",
          "type": "string"
        },
        {
          "indexed": false,
          "internalType": "uint256",
          "name": "amount",
          "type": "uint256"
        },
        {
          "indexed": false,
          "internalType": "uint32",
          "name": "tokenType",
          "type": "uint32"
        }
      ],
      "name": "CampaignToppedUp",
      "type": "event"
    },
    {
      "anonymous": false,
      "inputs": [
        {
          "indexed": false,
          "internalType": "address",
          "name": "campaigner",
          "type": "address"
        }
      ],
      "name": "CampaignerAdded",
      "type": "event"
    },
    {
      "anonymous": false,
      "inputs": [
        {
          "indexed": false,
          "internalType": "address",
          "name": "campaigner",
          "type": "address"
        }
      ],
      "name": "CampaignerDeleted",
      "type": "event"
    },
    {
      "anonymous": false,
      "inputs": [
        {
          "indexed": false,
          "internalType": "address",
          "name": "tokenAddress",
          "type": "address"
        }
      ],
      "name": "CreatedToken",
      "type": "event"
    },
    {
      "anonymous": false,
      "inputs": [
        {
          "indexed": false,
          "internalType": "address",
          "name": "campaigner",
          "type": "address"
        },
        {
          "indexed": false,
          "internalType": "uint256",
          "name": "amount",
          "type": "uint256"
        }
      ],
      "name": "FundsDeposited",
      "type": "event"
    },
    {
      "anonymous": false,
      "inputs": [
        {
          "indexed": false,
          "internalType": "address",
          "name": "campaigner",
          "type": "address"
        },
        {
          "indexed": false,
          "internalType": "uint256",
          "name": "amount",
          "type": "uint256"
        }
      ],
      "name": "FundsWithdrawn",
      "type": "event"
    },
    {
      "anonymous": false,
      "inputs": [
        {
          "indexed": false,
          "internalType": "address",
          "name": "campaigner",
          "type": "address"
        },
        {
          "indexed": false,
          "internalType": "address",
          "name": "tokenId",
          "type": "address"
        },
        {
          "indexed": false,
          "internalType": "uint256",
          "name": "updatedBalance",
          "type": "uint256"
        }
      ],
      "name": "FungibleTokenBalanceUpdated",
      "type": "event"
    },
    {
      "anonymous": false,
      "inputs": [
        {
          "indexed": false,
          "internalType": "address",
          "name": "campaigner",
          "type": "address"
        },
        {
          "indexed": false,
          "internalType": "uint256",
          "name": "amount",
          "type": "uint256"
        }
      ],
      "name": "FungibleTokenDeposited",
      "type": "event"
    },
    {
      "anonymous": false,
      "inputs": [
        {
          "indexed": false,
          "internalType": "address",
          "name": "interactor",
          "type": "address"
        },
        {
          "indexed": false,
          "internalType": "address",
          "name": "campaigner",
          "type": "address"
        },
        {
          "indexed": false,
          "internalType": "uint256",
          "name": "amount",
          "type": "uint256"
        }
      ],
      "name": "InteractorPaid",
      "type": "event"
    },
    {
      "anonymous": false,
      "inputs": [
        {
          "indexed": false,
          "internalType": "string",
          "name": "campaignAddress",
          "type": "string"
        },
        {
          "indexed": false,
          "internalType": "uint256",
          "name": "amount",
          "type": "uint256"
        }
      ],
      "name": "InteractorPaidDeferred",
      "type": "event"
    },
    {
      "anonymous": false,
      "inputs": [
        {
          "indexed": false,
          "internalType": "string",
          "name": "campaignAdddress",
          "type": "string"
        },
        {
          "indexed": false,
          "internalType": "uint256",
          "name": "amount",
          "type": "uint256"
        },
        {
          "indexed": false,
          "internalType": "uint32",
          "name": "campaignType",
          "type": "uint32"
        }
      ],
      "name": "NewCampaignIsAdded",
      "type": "event"
    },
    {
      "anonymous": false,
      "inputs": [
        {
          "indexed": false,
          "internalType": "address",
          "name": "owner",
          "type": "address"
        }
      ],
      "name": "OwnerSet",
      "type": "event"
    },
    {
      "anonymous": false,
      "inputs": [
        {
          "indexed": false,
          "internalType": "int256",
          "name": "responseCode",
          "type": "int256"
        }
      ],
      "name": "ResponseCode",
      "type": "event"
    },
    {
      "anonymous": false,
      "inputs": [
        {
          "indexed": false,
          "internalType": "string",
          "name": "campaignAddress",
          "type": "string"
        },
        {
          "indexed": false,
          "internalType": "uint256",
          "name": "totalAmount",
          "type": "uint256"
        },
        {
          "indexed": false,
          "internalType": "uint256",
          "name": "remainingBalance",
          "type": "uint256"
        }
      ],
      "name": "RewardsDistributed",
      "type": "event"
    },
    {
      "anonymous": false,
      "inputs": [
        {
          "indexed": false,
          "internalType": "string",
          "name": "campaignAddress",
          "type": "string"
        },
        {
          "indexed": false,
          "internalType": "uint32",
          "name": "campaignType",
          "type": "uint32"
        }
      ],
      "name": "campaignClosed",
      "type": "event"
    },
    {
      "anonymous": false,
      "inputs": [
        {
          "indexed": false,
          "internalType": "string",
          "name": "campaignAddress",
          "type": "string"
        },
        {
          "indexed": false,
          "internalType": "uint32",
          "name": "campaignType",
          "type": "uint32"
        }
      ],
      "name": "campaignExpired",
      "type": "event"
    },
    {
      "inputs": [],
      "name": "FUNGIBLE",
      "outputs": [
        {
          "internalType": "uint32",
          "name": "",
          "type": "uint32"
        }
      ],
      "stateMutability": "view",
      "type": "function"
    },
    {
      "inputs": [],
      "name": "HBAR",
      "outputs": [
        {
          "internalType": "uint32",
          "name": "",
          "type": "uint32"
        }
      ],
      "stateMutability": "view",
      "type": "function"
    },
    {
      "inputs": [],
      "name": "NFT",
      "outputs": [
        {
          "internalType": "uint32",
          "name": "",
          "type": "uint32"
        }
      ],
      "stateMutability": "view",
      "type": "function"
    },
    {
      "inputs": [
        {
          "internalType": "address",
          "name": "",
          "type": "address"
        }
      ],
      "name": "balances",
      "outputs": [
        {
          "internalType": "uint256",
          "name": "",
          "type": "uint256"
        }
      ],
      "stateMutability": "view",
      "type": "function"
    },
    {
      "inputs": [
        {
          "internalType": "string",
          "name": "",
          "type": "string"
        }
      ],
      "name": "campaignBalances",
      "outputs": [
        {
          "internalType": "uint256",
          "name": "",
          "type": "uint256"
        }
      ],
      "stateMutability": "view",
      "type": "function"
    },
    {
      "inputs": [
        {
          "internalType": "string",
          "name": "",
          "type": "string"
        }
      ],
      "name": "campaignRandomNumber",
      "outputs": [
        {
          "internalType": "uint32",
          "name": "",
          "type": "uint32"
        }
      ],
      "stateMutability": "view",
      "type": "function"
    },
    {
      "inputs": [
        {
          "internalType": "address",
          "name": "",
          "type": "address"
        }
      ],
      "name": "campaigners",
      "outputs": [
        {
          "internalType": "bool",
          "name": "",
          "type": "bool"
        }
      ],
      "stateMutability": "view",
      "type": "function"
    },
    {
      "inputs": [
        {
          "internalType": "address",
          "name": "",
          "type": "address"
        }
      ],
      "name": "nftCampaigner",
      "outputs": [
        {
          "internalType": "uint32",
          "name": "",
          "type": "uint32"
        }
      ],
      "stateMutability": "view",
      "type": "function"
    },
    {
      "inputs": [],
      "name": "owner",
      "outputs": [
        {
          "internalType": "address",
          "name": "",
          "type": "address"
        }
      ],
      "stateMutability": "view",
      "type": "function"
    },
    {
      "inputs": [
        {
          "internalType": "address",
          "name": "",
          "type": "address"
        },
        {
          "internalType": "address",
          "name": "",
          "type": "address"
        },
        {
          "internalType": "uint32",
          "name": "",
          "type": "uint32"
        }
      ],
      "name": "tokenBalances",
      "outputs": [
        {
          "internalType": "uint256",
          "name": "",
          "type": "uint256"
        }
      ],
      "stateMutability": "view",
      "type": "function"
    },
    {
      "inputs": [
        {
          "internalType": "string",
          "name": "",
          "type": "string"
        },
        {
          "internalType": "address",
          "name": "",
          "type": "address"
        },
        {
          "internalType": "uint32",
          "name": "",
          "type": "uint32"
        }
      ],
      "name": "tokenCampaignBalances",
      "outputs": [
        {
          "internalType": "uint256",
          "name": "",
          "type": "uint256"
        }
      ],
      "stateMutability": "view",
      "type": "function"
    },
    {
      "inputs": [
        {
          "internalType": "uint32",
          "name": "",
          "type": "uint32"
        },
        {
          "internalType": "address",
          "name": "",
          "type": "address"
        }
      ],
      "name": "whitelistedToken",
      "outputs": [
        {
          "internalType": "bool",
          "name": "",
          "type": "bool"
        }
      ],
      "stateMutability": "view",
      "type": "function"
    },
    {
      "inputs": [
        {
          "internalType": "address",
          "name": "tokenAddress",
          "type": "address"
        },
        {
          "internalType": "bool",
          "name": "isWhitelisted",
          "type": "bool"
        }
      ],
      "name": "associateToken",
      "outputs": [],
      "stateMutability": "nonpayable",
      "type": "function"
    },
    {
      "inputs": [],
      "name": "getAllWhitelistedTokens",
      "outputs": [
        {
          "internalType": "address[]",
          "name": "",
          "type": "address[]"
        }
      ],
      "stateMutability": "view",
      "type": "function"
    },
    {
      "inputs": [
        {
          "internalType": "address",
          "name": "tokenAddress",
          "type": "address"
        }
      ],
      "name": "isTokenWhitelisted",
      "outputs": [
        {
          "internalType": "bool",
          "name": "",
          "type": "bool"
        }
      ],
      "stateMutability": "view",
      "type": "function"
    },
    {
      "inputs": [
        {
          "internalType": "address",
          "name": "newCampaigner",
          "type": "address"
        }
      ],
      "name": "addCampaigner",
      "outputs": [],
      "stateMutability": "nonpayable",
      "type": "function"
    },
    {
      "inputs": [
        {
          "internalType": "address",
          "name": "campaigner",
          "type": "address"
        },
        {
          "internalType": "address",
          "name": "tokenId",
          "type": "address"
        }
      ],
      "name": "getFungibleTokenBalance",
      "outputs": [
        {
          "internalType": "uint256",
          "name": "res",
          "type": "uint256"
        }
      ],
      "stateMutability": "view",
      "type": "function"
    },
    {
      "inputs": [
        {
          "internalType": "address",
          "name": "campaigner",
          "type": "address"
        }
      ],
      "name": "getHbarBalance",
      "outputs": [
        {
          "internalType": "uint256",
          "name": "res",
          "type": "uint256"
        }
      ],
      "stateMutability": "view",
      "type": "function"
    },
    {
      "inputs": [
        {
          "internalType": "string",
          "name": "campaignAddress",
          "type": "string"
        }
      ],
      "name": "getCampaignBalance",
      "outputs": [
        {
          "internalType": "uint256",
          "name": "",
          "type": "uint256"
        }
      ],
      "stateMutability": "view",
      "type": "function"
    }
  ],
  "bytecode": "0x608060405234801561001057600080fd5b50610e40806100206000396000f3fe608060405234801561001057600080fd5b50600436106101215760003560e01c8063694be7e0116100ad5780639a5f0da6116100715780639a5f0da6146102e7578063b5af090f14610328578063bc3ef1e91461033b578063bff3199614610361578063cfe3f9a81461037457600080fd5b8063694be7e014610266578063774256c7146102975780637c0b8de21461029f5780638da5cb5b146102a75780639991033c146102d257600080fd5b806327e235e3116100f457806327e235e3146101bd578063362e34b9146101dd5780634377e3ff1461020b5780634a3b1152146102285780634f18230d1461023b57600080fd5b80631102934514610126578063160f9c881461015e57806316d343e01461017f5780631b0f32a3146101a8575b600080fd5b610149610134366004610a16565b60016020526000908152604090205460ff1681565b60405190151581526020015b60405180910390f35b61017161016c366004610a38565b6103a5565b604051908152602001610155565b61017161018d366004610a16565b6001600160a01b031660009081526002602052604090205490565b6101bb6101b6366004610a6b565b6104b1565b005b6101716101cb366004610a16565b60026020526000908152604090205481565b6101496101eb366004610abb565b600360209081526000928352604080842090915290825290205460ff1681565b610213600181565b60405163ffffffff9091168152602001610155565b610171610236366004610b7a565b6107c5565b610171610249366004610b7a565b805160208183018101805160068252928201919093012091525481565b610171610274366004610bb7565b600560209081526000938452604080852082529284528284209052825290205481565b610213600081565b610213600281565b6000546102ba906001600160a01b031681565b6040516001600160a01b039091168152602001610155565b6102da61082d565b6040516101559190610bfa565b6101716102f5366004610c47565b82516020818501810180516007825292820195820195909520919094528352600091825260408083209093528152205481565b610149610336366004610a16565b6108a5565b610213610349366004610a16565b60096020526000908152604090205463ffffffff1681565b6101bb61036f366004610a16565b6108d0565b610213610382366004610b7a565b8051602081830181018051600b8252928201919093012091525463ffffffff1681565b6040805180820190915260048152634530303160e01b60208201526000906001600160a01b0383166103f35760405162461bcd60e51b81526004016103ea9190610cb2565b60405180910390fd5b506040805180820190915260048152632298181960e11b60208201526001600160a01b0384166104365760405162461bcd60e51b81526004016103ea9190610cb2565b50610440826108a5565b604051806040016040528060048152602001634530303560e01b8152509061047b5760405162461bcd60e51b81526004016103ea9190610cb2565b50506001600160a01b03918216600090815260056020908152604080832093909416825291825282812060018252909152205490565b6000546001600160a01b031633146104db5760405162461bcd60e51b81526004016103ea90610ce5565b6040805180820190915260048152634530303160e01b60208201526001600160a01b03831661051d5760405162461bcd60e51b81526004016103ea9190610cb2565b5080801561055157506001600160a01b0382166000908152600080516020610deb833981519152602052604090205460ff16155b156105de57506001600160a01b03166000818152600080516020610deb833981519152602090815260408220805460ff191660019081179091556004909152600080516020610dcb833981519152805491820181559091527f210afe6ebef982fa193bb4e17f9f236cdf09af7788627b5d54d9e3e4b100021b0180546001600160a01b0319169091179055565b8015801561061157506001600160a01b0382166000908152600080516020610deb833981519152602052604090205460ff165b156107c1576001600160a01b0382166000908152600080516020610deb833981519152602090815260408220805460ff191690556001825260049052600080516020610dcb83398151915254905b818110156107be5760016000526004602052600080516020610dcb83398151915280546001600160a01b03861691908390811061069e5761069e610d3a565b6000918252602090912001546001600160a01b0316036107ac57600160008190526004602052600080516020610dcb833981519152906106de9084610d66565b815481106106ee576106ee610d3a565b6000918252602080832090910154600190925260049052600080516020610dcb83398151915280546001600160a01b03909216918390811061073257610732610d3a565b600091825260208083209190910180546001600160a01b0319166001600160a01b0394909416939093179092556001905260049052600080516020610dcb83398151915280548061078557610785610d7f565b600082815260209020810160001990810180546001600160a01b03191690550190556107be565b806107b681610d95565b91505061065f565b50505b5050565b600080825111604051806040016040528060048152602001632298181960e11b815250906108065760405162461bcd60e51b81526004016103ea9190610cb2565b506006826040516108179190610dae565b9081526020016040518091039020549050919050565b600160005260046020908152600080516020610dcb833981519152805460408051828502810185019091528181526060939092919083018282801561089b57602002820191906000526020600020905b81546001600160a01b0316815260019091019060200180831161087d575b5050505050905090565b6001600160a01b03166000908152600080516020610deb833981519152602052604090205460ff1690565b6000546001600160a01b031633146108fa5760405162461bcd60e51b81526004016103ea90610ce5565b6040805180820190915260048152632298181960e11b60208201526001600160a01b03821661093c5760405162461bcd60e51b81526004016103ea9190610cb2565b506001600160a01b03811660009081526001602052604090205460ff1615604051806040016040528060048152602001632298181b60e11b815250906109955760405162461bcd60e51b81526004016103ea9190610cb2565b506001600160a01b0381166000818152600160208181526040808420805460ff19169093179092556002815281832092909255519182527f3d04fb94919fdfa7708320cdebdf093992d88d792b3d5f4144c364cda00129c6910160405180910390a150565b80356001600160a01b0381168114610a1157600080fd5b919050565b600060208284031215610a2857600080fd5b610a31826109fa565b9392505050565b60008060408385031215610a4b57600080fd5b610a54836109fa565b9150610a62602084016109fa565b90509250929050565b60008060408385031215610a7e57600080fd5b610a87836109fa565b915060208301358015158114610a9c57600080fd5b809150509250929050565b803563ffffffff81168114610a1157600080fd5b60008060408385031215610ace57600080fd5b610a5483610aa7565b634e487b7160e01b600052604160045260246000fd5b600082601f830112610afe57600080fd5b813567ffffffffffffffff80821115610b1957610b19610ad7565b604051601f8301601f19908116603f01168101908282118183101715610b4157610b41610ad7565b81604052838152866020858801011115610b5a57600080fd5b836020870160208301376000602085830101528094505050505092915050565b600060208284031215610b8c57600080fd5b813567ffffffffffffffff811115610ba357600080fd5b610baf84828501610aed565b949350505050565b600080600060608486031215610bcc57600080fd5b610bd5846109fa565b9250610be3602085016109fa565b9150610bf160408501610aa7565b90509250925092565b6020808252825182820181905260009190848201906040850190845b81811015610c3b5783516001600160a01b031683529284019291840191600101610c16565b50909695505050505050565b600080600060608486031215610c5c57600080fd5b833567ffffffffffffffff811115610c7357600080fd5b610c7f86828701610aed565b935050610be3602085016109fa565b60005b83811015610ca9578181015183820152602001610c91565b50506000910152565b6020815260008251806020840152610cd1816040850160208701610c8e565b601f01601f19169190910160400192915050565b60208082526035908201527f556e617574686f72697a6520416363657373207265717565737465642c204361604082015274363632b91034b9903737ba103a34329037bbb732b960591b606082015260800190565b634e487b7160e01b600052603260045260246000fd5b634e487b7160e01b600052601160045260246000fd5b81810381811115610d7957610d79610d50565b92915050565b634e487b7160e01b600052603160045260246000fd5b600060018201610da757610da7610d50565b5060010190565b60008251610dc0818460208701610c8e565b919091019291505056feabd6e7cb50984ff9c2f3e18a2660c3353dadf4e3291deeb275dae2cd1e44fe05a15bc60c955c405d20d9149c709e2460f1c2d9a497496a7f46004d1772c3054ca2646970667358221220773f83166d0b8d76df37176ea18cad6865d8b575460da6570746a19ead0fd26c64736f6c63430008110033",
  "immutableReferences": {},
  "source": "// SPDX-License-Identifier: Apache-2.0\r\npragma solidity ^0.8.17;\r\n\r\nimport \"./HashbuzzStates.sol\";\r\n/**\r\n * @dev This contract is used to store the state of the Hashbuzz contract\r\n * @title Utils\r\n * @author Om Prakash\r\n * @notice Deals with operations related to transactions.\r\n */\r\n\r\ncontract Utils is HashbuzzStates {\r\n    /**\r\n     * @dev Adds or removes a token from the whitelist.\r\n     * @param tokenAddress The address of the token.\r\n     * @param isWhitelisted Boolean flag to mark the token as whitelisted or not.\r\n     */\r\n    function associateToken(\r\n        address tokenAddress,\r\n        bool isWhitelisted\r\n    ) public onlyOwner {\r\n        require(tokenAddress != address(0), ERR_INVALID_TOKEN_ADDRESS);\r\n        if (isWhitelisted && !whitelistedToken[FUNGIBLE][tokenAddress]) {\r\n            // Add to whitelist if not already whitelisted\r\n            whitelistedToken[FUNGIBLE][tokenAddress] = true;\r\n            whitelistedTokenAddresses[FUNGIBLE].push(tokenAddress);\r\n        } else if (!isWhitelisted && whitelistedToken[FUNGIBLE][tokenAddress]) {\r\n            // Remove from whitelist if currently whitelisted\r\n            whitelistedToken[FUNGIBLE][tokenAddress] = false;\r\n\r\n            // Remove address from whitelistedAddresses array\r\n            uint256 length = whitelistedTokenAddresses[FUNGIBLE].length;\r\n            for (uint256 i = 0; i < length; i++) {\r\n                if (whitelistedTokenAddresses[FUNGIBLE][i] == tokenAddress) {\r\n                    whitelistedTokenAddresses[FUNGIBLE][\r\n                        i\r\n                    ] = whitelistedTokenAddresses[FUNGIBLE][length - 1];\r\n                    whitelistedTokenAddresses[FUNGIBLE].pop();\r\n                    break;\r\n                }\r\n            }\r\n        }\r\n    }\r\n\r\n    /**\r\n     * @dev Retrieves all whitelisted addresses for a given token type.\r\n     * @return An array of addresses that are whitelisted for the given token type.\r\n     */\r\n    function getAllWhitelistedTokens() public view returns (address[] memory) {\r\n        return whitelistedTokenAddresses[FUNGIBLE];\r\n    }\r\n\r\n    /**\r\n     * @dev Checks if a specific token address is whitelisted for a given token type.\r\n     * @param tokenAddress The address of the token to check.\r\n     * @return Boolean flag indicating if the token is whitelisted.\r\n     */\r\n    function isTokenWhitelisted(\r\n        address tokenAddress\r\n    ) public view returns (bool) {\r\n        return whitelistedToken[FUNGIBLE][tokenAddress];\r\n    }\r\n\r\n    /**\r\n     * @dev Whitelist cmapigner to the user.\r\n     * @param newCampaigner Address of the user having campaigner role to be used here\r\n     */\r\n    function addCampaigner(address newCampaigner) public onlyOwner {\r\n        require(newCampaigner != address(0), ERR_INVALID_CAMPAIGN_ADDRESS);\r\n        require(!isCampaigner(newCampaigner), ERR_CAMPAIGN_ALREADY_EXISTS);\r\n        campaigners[newCampaigner] = true;\r\n        balances[newCampaigner] = 0;\r\n        emit CampaignerAdded(newCampaigner);\r\n    }\r\n\r\n    /**\r\n     * @dev Retrieves the balance of a fungible token for a specific campaigner.\r\n     * @param campaigner Address of the campaigner's solidity address.\r\n     * @param tokenId Solidity address used for the account.\r\n     * @return res The balance of the fungible token.\r\n     */\r\n    function getFungibleTokenBalance(\r\n        address campaigner,\r\n        address tokenId\r\n    ) public view returns (uint256 res) {\r\n        require(tokenId != address(0), ERR_INVALID_TOKEN_ADDRESS);\r\n        require(campaigner != address(0), ERR_INVALID_CAMPAIGN_ADDRESS);\r\n        require(isTokenWhitelisted(tokenId), ERR_TOKEN_NOT_WHITELISTED);\r\n        res = tokenBalances[campaigner][tokenId][FUNGIBLE];\r\n    }\r\n\r\n    /**\r\n     * @dev Balance holded by the user to see.\r\n     * @param campaigner Solidity address of the campaigner.\r\n     */\r\n    function getHbarBalance(\r\n        address campaigner\r\n    ) public view  returns (uint256 res) {\r\n        res = balances[campaigner];\r\n    }\r\n\r\n    /** Campaign Specific balance for the campaigners */\r\n    /**\r\n     * @dev Balance held by the user to see.\r\n     * @param campaignAddress Solidity address of the campaigner.\r\n     */\r\n    function getCampaignBalance(\r\n        string memory campaignAddress\r\n    ) public view returns (uint256) {\r\n        require(\r\n            bytes(campaignAddress).length > 0,\r\n            ERR_INVALID_CAMPAIGN_ADDRESS\r\n        );\r\n        return campaignBalances[campaignAddress];\r\n    }\r\n}\r\n",
  "sourcePath": "D:\\rajatk\\hashbuzz-staging\\smv201\\contracts\\HashbuzzModules\\Utils.sol",
  "compiler": {
    "name": "solc",
    "version": "0.8.17+commit.8df45f5f.Emscripten.clang"
  },
  "schemaVersion": "3.4.16",
  "updatedAt": "2024-11-15T16:56:42.506Z",
  "devdoc": {
    "author": "Om Prakash",
    "details": "This contract is used to store the state of the Hashbuzz contract",
    "kind": "dev",
    "methods": {
      "addCampaigner(address)": {
        "details": "Whitelist cmapigner to the user.",
        "params": {
          "newCampaigner": "Address of the user having campaigner role to be used here"
        }
      },
      "associateToken(address,bool)": {
        "details": "Adds or removes a token from the whitelist.",
        "params": {
          "isWhitelisted": "Boolean flag to mark the token as whitelisted or not.",
          "tokenAddress": "The address of the token."
        }
      },
      "getAllWhitelistedTokens()": {
        "details": "Retrieves all whitelisted addresses for a given token type.",
        "returns": {
          "_0": "An array of addresses that are whitelisted for the given token type."
        }
      },
      "getCampaignBalance(string)": {
        "details": "Balance held by the user to see.",
        "params": {
          "campaignAddress": "Solidity address of the campaigner."
        }
      },
      "getFungibleTokenBalance(address,address)": {
        "details": "Retrieves the balance of a fungible token for a specific campaigner.",
        "params": {
          "campaigner": "Address of the campaigner's solidity address.",
          "tokenId": "Solidity address used for the account."
        },
        "returns": {
          "res": "The balance of the fungible token."
        }
      },
      "getHbarBalance(address)": {
        "details": "Balance holded by the user to see.",
        "params": {
          "campaigner": "Solidity address of the campaigner."
        }
      },
      "isTokenWhitelisted(address)": {
        "details": "Checks if a specific token address is whitelisted for a given token type.",
        "params": {
          "tokenAddress": "The address of the token to check."
        },
        "returns": {
          "_0": "Boolean flag indicating if the token is whitelisted."
        }
      }
    },
    "title": "Utils",
    "version": 1
  },
  "userdoc": {
    "kind": "user",
    "methods": {},
    "notice": "Deals with operations related to transactions.",
    "version": 1
  }
}