{
  "contractName": "Utils",
  "abi": [
    {
      "anonymous": false,
      "inputs": [
        {
          "indexed": false,
          "internalType": "address",
          "name": "campaigner",
          "type": "address"
        },
        {
          "indexed": false,
          "internalType": "uint256",
          "name": "updatedBalance",
          "type": "uint256"
        }
      ],
      "name": "BalanceUpdated",
      "type": "event"
    },
    {
      "anonymous": false,
      "inputs": [
        {
          "indexed": false,
          "internalType": "address",
          "name": "campaigner",
          "type": "address"
        }
      ],
      "name": "CampaignerAdded",
      "type": "event"
    },
    {
      "anonymous": false,
      "inputs": [
        {
          "indexed": false,
          "internalType": "address",
          "name": "campaigner",
          "type": "address"
        }
      ],
      "name": "CampaignerDeleted",
      "type": "event"
    },
    {
      "anonymous": false,
      "inputs": [
        {
          "indexed": false,
          "internalType": "address",
          "name": "tokenAddress",
          "type": "address"
        }
      ],
      "name": "CreatedToken",
      "type": "event"
    },
    {
      "anonymous": false,
      "inputs": [
        {
          "indexed": false,
          "internalType": "address",
          "name": "campaigner",
          "type": "address"
        },
        {
          "indexed": false,
          "internalType": "uint256",
          "name": "amount",
          "type": "uint256"
        }
      ],
      "name": "FundsDeposited",
      "type": "event"
    },
    {
      "anonymous": false,
      "inputs": [
        {
          "indexed": false,
          "internalType": "address",
          "name": "campaigner",
          "type": "address"
        },
        {
          "indexed": false,
          "internalType": "uint256",
          "name": "amount",
          "type": "uint256"
        }
      ],
      "name": "FundsWithdrawn",
      "type": "event"
    },
    {
      "anonymous": false,
      "inputs": [
        {
          "indexed": false,
          "internalType": "address",
          "name": "campaigner",
          "type": "address"
        },
        {
          "indexed": false,
          "internalType": "address",
          "name": "tokenId",
          "type": "address"
        },
        {
          "indexed": false,
          "internalType": "uint64",
          "name": "updatedBalance",
          "type": "uint64"
        }
      ],
      "name": "FungibleTokenBalanceUpdated",
      "type": "event"
    },
    {
      "anonymous": false,
      "inputs": [
        {
          "indexed": false,
          "internalType": "address",
          "name": "campaigner",
          "type": "address"
        },
        {
          "indexed": false,
          "internalType": "uint64",
          "name": "amount",
          "type": "uint64"
        }
      ],
      "name": "FungibleTokenDeposited",
      "type": "event"
    },
    {
      "anonymous": false,
      "inputs": [
        {
          "indexed": false,
          "internalType": "address",
          "name": "interactor",
          "type": "address"
        },
        {
          "indexed": false,
          "internalType": "address",
          "name": "campaigner",
          "type": "address"
        },
        {
          "indexed": false,
          "internalType": "uint256",
          "name": "amount",
          "type": "uint256"
        }
      ],
      "name": "InteractorPaid",
      "type": "event"
    },
    {
      "anonymous": false,
      "inputs": [
        {
          "indexed": false,
          "internalType": "string",
          "name": "campaignAddress",
          "type": "string"
        },
        {
          "indexed": false,
          "internalType": "uint256",
          "name": "amount",
          "type": "uint256"
        }
      ],
      "name": "InteractorPaidDeferred",
      "type": "event"
    },
    {
      "anonymous": false,
      "inputs": [
        {
          "indexed": false,
          "internalType": "string",
          "name": "campaignAdddress",
          "type": "string"
        },
        {
          "indexed": false,
          "internalType": "uint256",
          "name": "amount",
          "type": "uint256"
        },
        {
          "indexed": false,
          "internalType": "uint32",
          "name": "campaignType",
          "type": "uint32"
        }
      ],
      "name": "NewCampaignIsAdded",
      "type": "event"
    },
    {
      "anonymous": false,
      "inputs": [
        {
          "indexed": false,
          "internalType": "address",
          "name": "owner",
          "type": "address"
        }
      ],
      "name": "OwnerSet",
      "type": "event"
    },
    {
      "anonymous": false,
      "inputs": [
        {
          "indexed": false,
          "internalType": "int256",
          "name": "responseCode",
          "type": "int256"
        }
      ],
      "name": "ResponseCode",
      "type": "event"
    },
    {
      "anonymous": false,
      "inputs": [
        {
          "indexed": false,
          "internalType": "string",
          "name": "campaignAddress",
          "type": "string"
        },
        {
          "indexed": false,
          "internalType": "uint256",
          "name": "totalAmount",
          "type": "uint256"
        },
        {
          "indexed": false,
          "internalType": "uint256",
          "name": "remainingBalance",
          "type": "uint256"
        }
      ],
      "name": "RewardsDistributed",
      "type": "event"
    },
    {
      "anonymous": false,
      "inputs": [
        {
          "indexed": false,
          "internalType": "string",
          "name": "campaignAddress",
          "type": "string"
        },
        {
          "indexed": false,
          "internalType": "uint32",
          "name": "campaignType",
          "type": "uint32"
        }
      ],
      "name": "campaignClosed",
      "type": "event"
    },
    {
      "anonymous": false,
      "inputs": [
        {
          "indexed": false,
          "internalType": "string",
          "name": "campaignAddress",
          "type": "string"
        },
        {
          "indexed": false,
          "internalType": "uint32",
          "name": "campaignType",
          "type": "uint32"
        }
      ],
      "name": "campaignExpired",
      "type": "event"
    },
    {
      "inputs": [],
      "name": "FUNGIBLE",
      "outputs": [
        {
          "internalType": "uint32",
          "name": "",
          "type": "uint32"
        }
      ],
      "stateMutability": "view",
      "type": "function"
    },
    {
      "inputs": [],
      "name": "HBAR",
      "outputs": [
        {
          "internalType": "uint32",
          "name": "",
          "type": "uint32"
        }
      ],
      "stateMutability": "view",
      "type": "function"
    },
    {
      "inputs": [],
      "name": "NFT",
      "outputs": [
        {
          "internalType": "uint32",
          "name": "",
          "type": "uint32"
        }
      ],
      "stateMutability": "view",
      "type": "function"
    },
    {
      "inputs": [
        {
          "internalType": "address",
          "name": "",
          "type": "address"
        }
      ],
      "name": "balances",
      "outputs": [
        {
          "internalType": "uint256",
          "name": "",
          "type": "uint256"
        }
      ],
      "stateMutability": "view",
      "type": "function"
    },
    {
      "inputs": [
        {
          "internalType": "string",
          "name": "",
          "type": "string"
        }
      ],
      "name": "campaignBalances",
      "outputs": [
        {
          "internalType": "uint256",
          "name": "",
          "type": "uint256"
        }
      ],
      "stateMutability": "view",
      "type": "function"
    },
    {
      "inputs": [
        {
          "internalType": "string",
          "name": "",
          "type": "string"
        }
      ],
      "name": "campaignRandomNumber",
      "outputs": [
        {
          "internalType": "uint32",
          "name": "",
          "type": "uint32"
        }
      ],
      "stateMutability": "view",
      "type": "function"
    },
    {
      "inputs": [],
      "name": "id",
      "outputs": [
        {
          "internalType": "uint32",
          "name": "",
          "type": "uint32"
        }
      ],
      "stateMutability": "view",
      "type": "function"
    },
    {
      "inputs": [
        {
          "internalType": "address",
          "name": "",
          "type": "address"
        }
      ],
      "name": "nftCampaigner",
      "outputs": [
        {
          "internalType": "uint32",
          "name": "",
          "type": "uint32"
        }
      ],
      "stateMutability": "view",
      "type": "function"
    },
    {
      "inputs": [
        {
          "internalType": "address",
          "name": "",
          "type": "address"
        }
      ],
      "name": "rewardBalances",
      "outputs": [
        {
          "internalType": "uint256",
          "name": "",
          "type": "uint256"
        }
      ],
      "stateMutability": "view",
      "type": "function"
    },
    {
      "inputs": [
        {
          "internalType": "address",
          "name": "",
          "type": "address"
        },
        {
          "internalType": "address",
          "name": "",
          "type": "address"
        },
        {
          "internalType": "uint256",
          "name": "",
          "type": "uint256"
        }
      ],
      "name": "rewardTokenBalances",
      "outputs": [
        {
          "internalType": "uint64",
          "name": "",
          "type": "uint64"
        }
      ],
      "stateMutability": "view",
      "type": "function"
    },
    {
      "inputs": [
        {
          "internalType": "address",
          "name": "",
          "type": "address"
        },
        {
          "internalType": "address",
          "name": "",
          "type": "address"
        },
        {
          "internalType": "uint256",
          "name": "",
          "type": "uint256"
        }
      ],
      "name": "tokenBalances",
      "outputs": [
        {
          "internalType": "uint64",
          "name": "",
          "type": "uint64"
        }
      ],
      "stateMutability": "view",
      "type": "function"
    },
    {
      "inputs": [
        {
          "internalType": "string",
          "name": "",
          "type": "string"
        },
        {
          "internalType": "address",
          "name": "",
          "type": "address"
        },
        {
          "internalType": "uint256",
          "name": "",
          "type": "uint256"
        }
      ],
      "name": "tokenCampaignBalances",
      "outputs": [
        {
          "internalType": "uint64",
          "name": "",
          "type": "uint64"
        }
      ],
      "stateMutability": "view",
      "type": "function"
    },
    {
      "inputs": [
        {
          "internalType": "uint32",
          "name": "",
          "type": "uint32"
        },
        {
          "internalType": "address",
          "name": "",
          "type": "address"
        }
      ],
      "name": "whitelistedToken",
      "outputs": [
        {
          "internalType": "bool",
          "name": "",
          "type": "bool"
        }
      ],
      "stateMutability": "view",
      "type": "function"
    },
    {
      "inputs": [
        {
          "internalType": "address",
          "name": "tokenAddress",
          "type": "address"
        },
        {
          "internalType": "uint32",
          "name": "tokenType",
          "type": "uint32"
        },
        {
          "internalType": "bool",
          "name": "isWhitelisted",
          "type": "bool"
        }
      ],
      "name": "associateToken",
      "outputs": [],
      "stateMutability": "nonpayable",
      "type": "function"
    },
    {
      "inputs": [
        {
          "internalType": "uint32",
          "name": "tokenType",
          "type": "uint32"
        }
      ],
      "name": "getAllWhitelistedTokens",
      "outputs": [
        {
          "internalType": "address[]",
          "name": "",
          "type": "address[]"
        }
      ],
      "stateMutability": "view",
      "type": "function"
    },
    {
      "inputs": [
        {
          "internalType": "uint32",
          "name": "tokenType",
          "type": "uint32"
        },
        {
          "internalType": "address",
          "name": "tokenAddress",
          "type": "address"
        }
      ],
      "name": "isTokenWhitelisted",
      "outputs": [
        {
          "internalType": "bool",
          "name": "",
          "type": "bool"
        }
      ],
      "stateMutability": "view",
      "type": "function"
    },
    {
      "inputs": [
        {
          "internalType": "address",
          "name": "newCampaigner",
          "type": "address"
        }
      ],
      "name": "addCampaigner",
      "outputs": [],
      "stateMutability": "nonpayable",
      "type": "function"
    },
    {
      "inputs": [
        {
          "internalType": "address",
          "name": "campaigner",
          "type": "address"
        },
        {
          "internalType": "address",
          "name": "tokenId",
          "type": "address"
        },
        {
          "internalType": "uint32",
          "name": "tokenType",
          "type": "uint32"
        }
      ],
      "name": "getFungibleTokenBalance",
      "outputs": [
        {
          "internalType": "uint64",
          "name": "res",
          "type": "uint64"
        }
      ],
      "stateMutability": "view",
      "type": "function"
    },
    {
      "inputs": [
        {
          "internalType": "address",
          "name": "campaigner",
          "type": "address"
        },
        {
          "internalType": "address",
          "name": "tokenId",
          "type": "address"
        },
        {
          "internalType": "uint32",
          "name": "tokenType",
          "type": "uint32"
        }
      ],
      "name": "getNFTTokenBalance",
      "outputs": [
        {
          "internalType": "uint64",
          "name": "res",
          "type": "uint64"
        }
      ],
      "stateMutability": "view",
      "type": "function"
    },
    {
      "inputs": [
        {
          "internalType": "string",
          "name": "campaignAddress",
          "type": "string"
        }
      ],
      "name": "getCampaignBalance",
      "outputs": [
        {
          "internalType": "uint256",
          "name": "",
          "type": "uint256"
        }
      ],
      "stateMutability": "view",
      "type": "function"
    }
  ],
  "bytecode": "0x6080604052600d805463ffffffff1916600117905534801561002057600080fd5b50610ffc806100306000396000f3fe608060405234801561001057600080fd5b506004361061012b5760003560e01c80637c0b8de2116100ad578063bff3199611610071578063bff3199614610364578063c1cde80c14610377578063cfe3f9a814610397578063d84c0e27146103c8578063f4ff52ae146103db57600080fd5b80637c0b8de2146102f157806393c8dc6d146102f9578063af640d0f14610319578063bc3ef1e914610329578063bde81c0b1461034f57600080fd5b8063362e34b9116100f4578063362e34b9146102505780634377e3ff1461028e5780634a3b1152146102ab5780634f18230d146102be578063774256c7146102e957600080fd5b80625405211461013057806305346ac51461019957806327e235e3146101ac578063307869dd146101da5780633262af5414610215575b600080fd5b61017b61013e366004610c09565b82516020818501810180516009825292820195820195909520919094528352600091825260408083209093528152205467ffffffffffffffff1681565b60405167ffffffffffffffff90911681526020015b60405180910390f35b61017b6101a7366004610c74565b6103ee565b6101cc6101ba366004610cb7565b60026020526000908152604090205481565b604051908152602001610190565b61017b6101e8366004610cd9565b600660209081526000938452604080852082529284528284209052825290205467ffffffffffffffff1681565b61017b610223366004610cd9565b600760209081526000938452604080852082529284528284209052825290205467ffffffffffffffff1681565b61027e61025e366004610d05565b600460209081526000928352604080842090915290825290205460ff1681565b6040519015158152602001610190565b610296600181565b60405163ffffffff9091168152602001610190565b6101cc6102b9366004610d38565b6104bf565b6101cc6102cc366004610d38565b805160208183018101805160088252928201919093012091525481565b610296600081565b610296600281565b6101cc610307366004610cb7565b60036020526000908152604090205481565b600d546102969063ffffffff1681565b610296610337366004610cb7565b600b6020526000908152604090205463ffffffff1681565b61036261035d366004610d75565b61052b565b005b610362610372366004610cb7565b610818565b61038a610385366004610dc1565b610942565b6040516101909190610ddc565b6102966103a5366004610d38565b8051602081830181018051600e8252928201919093012091525463ffffffff1681565b61017b6103d6366004610c74565b610a0c565b61027e6103e9366004610d05565b610b1b565b600080546001600160a01b031633148061041757503360009081526001602052604090205460ff165b61043c5760405162461bcd60e51b815260040161043390610e29565b60405180910390fd5b6040805180820190915260048152632298189b60e11b602082015263ffffffff831660021461047e5760405162461bcd60e51b81526004016104339190610eb4565b5050506001600160a01b03918216600090815260066020908152604080832093909416825291825282812060028252909152205467ffffffffffffffff1690565b600080546001600160a01b03163314806104e857503360009081526001602052604090205460ff165b6105045760405162461bcd60e51b815260040161043390610e29565b6008826040516105149190610ee7565b90815260200160405180910390205490505b919050565b6000546001600160a01b031633146105555760405162461bcd60e51b815260040161043390610f03565b63ffffffff821660011480610570575063ffffffff82166002145b604051806040016040528060048152602001632298189b60e11b815250906105ab5760405162461bcd60e51b81526004016104339190610eb4565b508080156105e3575063ffffffff821660009081526004602090815260408083206001600160a01b038716845290915290205460ff16155b1561064b575063ffffffff1660008181526004602090815260408083206001600160a01b0395909516808452948252808320805460ff1916600190811790915593835260058252822080549384018155825290200180546001600160a01b0319169091179055565b80158015610682575063ffffffff821660009081526004602090815260408083206001600160a01b038716845290915290205460ff165b156108135763ffffffff821660008181526004602090815260408083206001600160a01b03881684528252808320805460ff191690559282526005905290812054905b818110156108105763ffffffff8416600090815260056020526040902080546001600160a01b03871691908390811061070057610700610f58565b6000918252602090912001546001600160a01b0316036107fe5763ffffffff8416600090815260056020526040902061073a600184610f84565b8154811061074a5761074a610f58565b600091825260208083209091015463ffffffff871683526005909152604090912080546001600160a01b03909216918390811061078957610789610f58565b600091825260208083209190910180546001600160a01b0319166001600160a01b03949094169390931790925563ffffffff861681526005909152604090208054806107d7576107d7610f97565b600082815260209020810160001990810180546001600160a01b0319169055019055610810565b8061080881610fad565b9150506106c5565b50505b505050565b6000546001600160a01b031633146108425760405162461bcd60e51b815260040161043390610f03565b6040805180820190915260048152632298181960e11b60208201526001600160a01b0382166108845760405162461bcd60e51b81526004016104339190610eb4565b506001600160a01b03811660009081526001602052604090205460ff1615604051806040016040528060048152602001632298181b60e11b815250906108dd5760405162461bcd60e51b81526004016104339190610eb4565b506001600160a01b0381166000818152600160208181526040808420805460ff19169093179092556002815281832092909255519182527f3d04fb94919fdfa7708320cdebdf093992d88d792b3d5f4144c364cda00129c6910160405180910390a150565b606063ffffffff82166001148061095f575063ffffffff82166002145b604051806040016040528060048152602001632298189b60e11b8152509061099a5760405162461bcd60e51b81526004016104339190610eb4565b5063ffffffff821660009081526005602090815260409182902080548351818402810184019094528084529091830182828015610a0057602002820191906000526020600020905b81546001600160a01b031681526001909101906020018083116109e2575b50505050509050919050565b600080546001600160a01b0316331480610a3557503360009081526001602052604090205460ff165b610a515760405162461bcd60e51b815260040161043390610e29565b6040805180820190915260048152634530313560e01b602082015263ffffffff8316600114610a935760405162461bcd60e51b81526004016104339190610eb4565b50610a9f600184610b1b565b604051806040016040528060048152602001634530303560e01b81525090610ada5760405162461bcd60e51b81526004016104339190610eb4565b5050506001600160a01b03918216600090815260066020908152604080832093909416825291825282812060018252909152205467ffffffffffffffff1690565b63ffffffff821660009081526004602090815260408083206001600160a01b038516845290915290205460ff165b92915050565b634e487b7160e01b600052604160045260246000fd5b600082601f830112610b7657600080fd5b813567ffffffffffffffff80821115610b9157610b91610b4f565b604051601f8301601f19908116603f01168101908282118183101715610bb957610bb9610b4f565b81604052838152866020858801011115610bd257600080fd5b836020870160208301376000602085830101528094505050505092915050565b80356001600160a01b038116811461052657600080fd5b600080600060608486031215610c1e57600080fd5b833567ffffffffffffffff811115610c3557600080fd5b610c4186828701610b65565b935050610c5060208501610bf2565b9150604084013590509250925092565b803563ffffffff8116811461052657600080fd5b600080600060608486031215610c8957600080fd5b610c9284610bf2565b9250610ca060208501610bf2565b9150610cae60408501610c60565b90509250925092565b600060208284031215610cc957600080fd5b610cd282610bf2565b9392505050565b600080600060608486031215610cee57600080fd5b610cf784610bf2565b9250610c5060208501610bf2565b60008060408385031215610d1857600080fd5b610d2183610c60565b9150610d2f60208401610bf2565b90509250929050565b600060208284031215610d4a57600080fd5b813567ffffffffffffffff811115610d6157600080fd5b610d6d84828501610b65565b949350505050565b600080600060608486031215610d8a57600080fd5b610d9384610bf2565b9250610da160208501610c60565b915060408401358015158114610db657600080fd5b809150509250925092565b600060208284031215610dd357600080fd5b610cd282610c60565b6020808252825182820181905260009190848201906040850190845b81811015610e1d5783516001600160a01b031683529284019291840191600101610df8565b50909695505050505050565b60208082526041908201527f556e617574686f72697a6520416363657373207265717565737465642c20436160408201527f6c6c6572206d757374206265206f776e6572206f722063616d706169676e65726060820152601760f91b608082015260a00190565b60005b83811015610eab578181015183820152602001610e93565b50506000910152565b6020815260008251806020840152610ed3816040850160208701610e90565b601f01601f19169190910160400192915050565b60008251610ef9818460208701610e90565b9190910192915050565b60208082526035908201527f556e617574686f72697a6520416363657373207265717565737465642c204361604082015274363632b91034b9903737ba103a34329037bbb732b960591b606082015260800190565b634e487b7160e01b600052603260045260246000fd5b634e487b7160e01b600052601160045260246000fd5b81810381811115610b4957610b49610f6e565b634e487b7160e01b600052603160045260246000fd5b600060018201610fbf57610fbf610f6e565b506001019056fea2646970667358221220828caba1769a514fcdc6e466c35bed9f6d0b9c42ed50904edfa56f5e49612c2a64736f6c63430008110033",
  "immutableReferences": {},
  "source": "// SPDX-License-Identifier: Apache-2.0\r\npragma solidity ^0.8.17;\r\n\r\nimport \"./HashbuzzStates.sol\";\r\n/**\r\n * @dev This contract is used to store the state of the Hashbuzz contract\r\n * @title Utils\r\n * @author Om Prakash\r\n * @notice Deals with operations related to transactions.\r\n */\r\n\r\ncontract Utils is HashbuzzStates {\r\n    /**\r\n     * @dev Adds or removes a token from the whitelist.\r\n     * @param tokenAddress The address of the token.\r\n     * @param tokenType The type of the token (1 for FUNGIBLE, 2 for NFT).\r\n     * @param isWhitelisted Boolean flag to mark the token as whitelisted or not.\r\n     */\r\n    function associateToken(\r\n        address tokenAddress,\r\n        uint32 tokenType,\r\n        bool isWhitelisted\r\n    ) public onlyOwner {\r\n        require(\r\n            tokenType == FUNGIBLE || tokenType == NFT,\r\n            ERR_INVALID_TOKEN_TYPE\r\n        );\r\n\r\n        if (isWhitelisted && !whitelistedToken[tokenType][tokenAddress]) {\r\n            // Add to whitelist if not already whitelisted\r\n            whitelistedToken[tokenType][tokenAddress] = true;\r\n            whitelistedAddresses[tokenType].push(tokenAddress);\r\n        } else if (\r\n            !isWhitelisted && whitelistedToken[tokenType][tokenAddress]\r\n        ) {\r\n            // Remove from whitelist if currently whitelisted\r\n            whitelistedToken[tokenType][tokenAddress] = false;\r\n\r\n            // Remove address from whitelistedAddresses array\r\n            uint256 length = whitelistedAddresses[tokenType].length;\r\n            for (uint256 i = 0; i < length; i++) {\r\n                if (whitelistedAddresses[tokenType][i] == tokenAddress) {\r\n                    whitelistedAddresses[tokenType][i] = whitelistedAddresses[\r\n                        tokenType\r\n                    ][length - 1];\r\n                    whitelistedAddresses[tokenType].pop();\r\n                    break;\r\n                }\r\n            }\r\n        }\r\n    }\r\n\r\n    /**\r\n     * @dev Retrieves all whitelisted addresses for a given token type.\r\n     * @param tokenType The type of the token (1 for FUNGIBLE, 2 for NFT).\r\n     * @return An array of addresses that are whitelisted for the given token type.\r\n     */\r\n    function getAllWhitelistedTokens(\r\n        uint32 tokenType\r\n    ) public view returns (address[] memory) {\r\n        require(\r\n            tokenType == FUNGIBLE || tokenType == NFT,\r\n            ERR_INVALID_TOKEN_TYPE\r\n        );\r\n        return whitelistedAddresses[tokenType];\r\n    }\r\n\r\n    /**\r\n     * @dev Checks if a specific token address is whitelisted for a given token type.\r\n     * @param tokenType The type of the token (1 for FUNGIBLE, 2 for NFT).\r\n     * @param tokenAddress The address of the token to check.\r\n     * @return Boolean flag indicating if the token is whitelisted.\r\n     */\r\n    function isTokenWhitelisted(\r\n        uint32 tokenType,\r\n        address tokenAddress\r\n    ) public view returns (bool) {\r\n        return whitelistedToken[tokenType][tokenAddress];\r\n    }\r\n\r\n    /**\r\n     * @dev Whitelist cmapigner to the user.\r\n     * @param newCampaigner Address of the user having campaigner role to be used here\r\n     */\r\n    function addCampaigner(address newCampaigner) public onlyOwner {\r\n        require(newCampaigner != address(0), ERR_INVALID_CAMPAIGN_ADDRESS);\r\n        require(!isCampaigner(newCampaigner), ERR_CAMPAIGN_ALREADY_EXISTS);\r\n        campaigners[newCampaigner] = true;\r\n        balances[newCampaigner] = 0;\r\n        emit CampaignerAdded(newCampaigner);\r\n    }\r\n\r\n    /**\r\n     *\r\n     * @param campaigner Address of the campaigner'solidity address\r\n     * @param tokenId Solidity address used for the account\r\n     * @param tokenType The type of the token (FUNGIBLE or NFT) [uint32] (1 for FUNGIBLE & 2 for NFT)\r\n     */\r\n    function getFungibleTokenBalance(\r\n        address campaigner,\r\n        address tokenId,\r\n        uint32 tokenType\r\n    ) public view onlyOwnerOrCampaigner returns (uint64 res) {\r\n        // tokentype should be fungible\r\n        require(tokenType == FUNGIBLE, ERR_TOKEN_IS_NOT_FUNGIBLE);\r\n        // required token to be associated\r\n        require(\r\n            isTokenWhitelisted(FUNGIBLE, tokenId),\r\n            ERR_TOKEN_NOT_WHITELISTED\r\n        );\r\n        res = tokenBalances[campaigner][tokenId][FUNGIBLE];\r\n    }\r\n\r\n    /** Balance Query functions only callable by campaigner it self and no others else */\r\n    /**\r\n     * @dev Balance holded by the user to see.\r\n     * @param campaigner Solidity address of the campaigner.\r\n     * @param tokenId Solidity address of the token.\r\n     * @param tokenType The type of the token (FUNGIBLE or NFT) [uint32] (1 for FUNGIBLE & 2 for NFT)\r\n     *                  1 for FUNGIBLE and 2 for NFT.\r\n     */\r\n    function getNFTTokenBalance(\r\n        address campaigner,\r\n        address tokenId,\r\n        uint32 tokenType\r\n    ) public view onlyOwnerOrCampaigner returns (uint64 res) {\r\n        require(tokenType == NFT, ERR_INVALID_TOKEN_TYPE);\r\n        res = tokenBalances[campaigner][tokenId][NFT];\r\n    }\r\n\r\n    /** Campaign Specific balance for the cmapigners */\r\n    /**\r\n     * @dev Balance holded by the user to see.\r\n     * @param campaignAddress Solidity address of the campaigner.\r\n     */\r\n    function getCampaignBalance(\r\n        string memory campaignAddress\r\n    ) public view onlyOwnerOrCampaigner returns (uint256) {\r\n        return campaignBalances[campaignAddress];\r\n    }\r\n}\r\n",
  "sourcePath": "D:\\rajatk\\hashbuzz-staging\\smv201\\contracts\\HashbuzzModules\\Utils.sol",
  "compiler": {
    "name": "solc",
    "version": "0.8.17+commit.8df45f5f.Emscripten.clang"
  },
  "schemaVersion": "3.4.16",
  "updatedAt": "2024-10-30T16:12:23.900Z",
  "devdoc": {
    "author": "Om Prakash",
    "details": "This contract is used to store the state of the Hashbuzz contract",
    "kind": "dev",
    "methods": {
      "addCampaigner(address)": {
        "details": "Whitelist cmapigner to the user.",
        "params": {
          "newCampaigner": "Address of the user having campaigner role to be used here"
        }
      },
      "associateToken(address,uint32,bool)": {
        "details": "Adds or removes a token from the whitelist.",
        "params": {
          "isWhitelisted": "Boolean flag to mark the token as whitelisted or not.",
          "tokenAddress": "The address of the token.",
          "tokenType": "The type of the token (1 for FUNGIBLE, 2 for NFT)."
        }
      },
      "getAllWhitelistedTokens(uint32)": {
        "details": "Retrieves all whitelisted addresses for a given token type.",
        "params": {
          "tokenType": "The type of the token (1 for FUNGIBLE, 2 for NFT)."
        },
        "returns": {
          "_0": "An array of addresses that are whitelisted for the given token type."
        }
      },
      "getCampaignBalance(string)": {
        "details": "Balance holded by the user to see.",
        "params": {
          "campaignAddress": "Solidity address of the campaigner."
        }
      },
      "getFungibleTokenBalance(address,address,uint32)": {
        "params": {
          "campaigner": "Address of the campaigner'solidity address",
          "tokenId": "Solidity address used for the account",
          "tokenType": "The type of the token (FUNGIBLE or NFT) [uint32] (1 for FUNGIBLE & 2 for NFT)"
        }
      },
      "getNFTTokenBalance(address,address,uint32)": {
        "details": "Balance holded by the user to see.",
        "params": {
          "campaigner": "Solidity address of the campaigner.",
          "tokenId": "Solidity address of the token.",
          "tokenType": "The type of the token (FUNGIBLE or NFT) [uint32] (1 for FUNGIBLE & 2 for NFT)                  1 for FUNGIBLE and 2 for NFT."
        }
      },
      "isTokenWhitelisted(uint32,address)": {
        "details": "Checks if a specific token address is whitelisted for a given token type.",
        "params": {
          "tokenAddress": "The address of the token to check.",
          "tokenType": "The type of the token (1 for FUNGIBLE, 2 for NFT)."
        },
        "returns": {
          "_0": "Boolean flag indicating if the token is whitelisted."
        }
      }
    },
    "title": "Utils",
    "version": 1
  },
  "userdoc": {
    "kind": "user",
    "methods": {},
    "notice": "Deals with operations related to transactions.",
    "version": 1
  }
}