{
  "contractName": "Utils",
  "abi": [
    {
      "anonymous": false,
      "inputs": [
        {
          "indexed": false,
          "internalType": "address",
          "name": "campaigner",
          "type": "address"
        },
        {
          "indexed": false,
          "internalType": "uint256",
          "name": "updatedBalance",
          "type": "uint256"
        }
      ],
      "name": "BalanceUpdated",
      "type": "event"
    },
    {
      "anonymous": false,
      "inputs": [
        {
          "indexed": false,
          "internalType": "string",
          "name": "campaignAddress",
          "type": "string"
        },
        {
          "indexed": false,
          "internalType": "uint256",
          "name": "amount",
          "type": "uint256"
        },
        {
          "indexed": false,
          "internalType": "uint32",
          "name": "tokenType",
          "type": "uint32"
        }
      ],
      "name": "CampaignToppedUp",
      "type": "event"
    },
    {
      "anonymous": false,
      "inputs": [
        {
          "indexed": false,
          "internalType": "address",
          "name": "campaigner",
          "type": "address"
        }
      ],
      "name": "CampaignerAdded",
      "type": "event"
    },
    {
      "anonymous": false,
      "inputs": [
        {
          "indexed": false,
          "internalType": "address",
          "name": "campaigner",
          "type": "address"
        }
      ],
      "name": "CampaignerDeleted",
      "type": "event"
    },
    {
      "anonymous": false,
      "inputs": [
        {
          "indexed": false,
          "internalType": "address",
          "name": "tokenAddress",
          "type": "address"
        }
      ],
      "name": "CreatedToken",
      "type": "event"
    },
    {
      "anonymous": false,
      "inputs": [
        {
          "indexed": false,
          "internalType": "address",
          "name": "campaigner",
          "type": "address"
        },
        {
          "indexed": false,
          "internalType": "uint256",
          "name": "amount",
          "type": "uint256"
        }
      ],
      "name": "FundsDeposited",
      "type": "event"
    },
    {
      "anonymous": false,
      "inputs": [
        {
          "indexed": false,
          "internalType": "address",
          "name": "campaigner",
          "type": "address"
        },
        {
          "indexed": false,
          "internalType": "uint256",
          "name": "amount",
          "type": "uint256"
        }
      ],
      "name": "FundsWithdrawn",
      "type": "event"
    },
    {
      "anonymous": false,
      "inputs": [
        {
          "indexed": false,
          "internalType": "address",
          "name": "campaigner",
          "type": "address"
        },
        {
          "indexed": false,
          "internalType": "address",
          "name": "tokenId",
          "type": "address"
        },
        {
          "indexed": false,
          "internalType": "uint64",
          "name": "updatedBalance",
          "type": "uint64"
        }
      ],
      "name": "FungibleTokenBalanceUpdated",
      "type": "event"
    },
    {
      "anonymous": false,
      "inputs": [
        {
          "indexed": false,
          "internalType": "address",
          "name": "campaigner",
          "type": "address"
        },
        {
          "indexed": false,
          "internalType": "uint64",
          "name": "amount",
          "type": "uint64"
        }
      ],
      "name": "FungibleTokenDeposited",
      "type": "event"
    },
    {
      "anonymous": false,
      "inputs": [
        {
          "indexed": false,
          "internalType": "address",
          "name": "interactor",
          "type": "address"
        },
        {
          "indexed": false,
          "internalType": "address",
          "name": "campaigner",
          "type": "address"
        },
        {
          "indexed": false,
          "internalType": "uint256",
          "name": "amount",
          "type": "uint256"
        }
      ],
      "name": "InteractorPaid",
      "type": "event"
    },
    {
      "anonymous": false,
      "inputs": [
        {
          "indexed": false,
          "internalType": "string",
          "name": "campaignAddress",
          "type": "string"
        },
        {
          "indexed": false,
          "internalType": "uint256",
          "name": "amount",
          "type": "uint256"
        }
      ],
      "name": "InteractorPaidDeferred",
      "type": "event"
    },
    {
      "anonymous": false,
      "inputs": [
        {
          "indexed": false,
          "internalType": "string",
          "name": "campaignAdddress",
          "type": "string"
        },
        {
          "indexed": false,
          "internalType": "uint256",
          "name": "amount",
          "type": "uint256"
        },
        {
          "indexed": false,
          "internalType": "uint32",
          "name": "campaignType",
          "type": "uint32"
        }
      ],
      "name": "NewCampaignIsAdded",
      "type": "event"
    },
    {
      "anonymous": false,
      "inputs": [
        {
          "indexed": false,
          "internalType": "address",
          "name": "owner",
          "type": "address"
        }
      ],
      "name": "OwnerSet",
      "type": "event"
    },
    {
      "anonymous": false,
      "inputs": [
        {
          "indexed": false,
          "internalType": "int256",
          "name": "responseCode",
          "type": "int256"
        }
      ],
      "name": "ResponseCode",
      "type": "event"
    },
    {
      "anonymous": false,
      "inputs": [
        {
          "indexed": false,
          "internalType": "string",
          "name": "campaignAddress",
          "type": "string"
        },
        {
          "indexed": false,
          "internalType": "uint256",
          "name": "totalAmount",
          "type": "uint256"
        },
        {
          "indexed": false,
          "internalType": "uint256",
          "name": "remainingBalance",
          "type": "uint256"
        }
      ],
      "name": "RewardsDistributed",
      "type": "event"
    },
    {
      "anonymous": false,
      "inputs": [
        {
          "indexed": false,
          "internalType": "string",
          "name": "campaignAddress",
          "type": "string"
        },
        {
          "indexed": false,
          "internalType": "uint32",
          "name": "campaignType",
          "type": "uint32"
        }
      ],
      "name": "campaignClosed",
      "type": "event"
    },
    {
      "anonymous": false,
      "inputs": [
        {
          "indexed": false,
          "internalType": "string",
          "name": "campaignAddress",
          "type": "string"
        },
        {
          "indexed": false,
          "internalType": "uint32",
          "name": "campaignType",
          "type": "uint32"
        }
      ],
      "name": "campaignExpired",
      "type": "event"
    },
    {
      "inputs": [],
      "name": "FUNGIBLE",
      "outputs": [
        {
          "internalType": "uint32",
          "name": "",
          "type": "uint32"
        }
      ],
      "stateMutability": "view",
      "type": "function"
    },
    {
      "inputs": [],
      "name": "HBAR",
      "outputs": [
        {
          "internalType": "uint32",
          "name": "",
          "type": "uint32"
        }
      ],
      "stateMutability": "view",
      "type": "function"
    },
    {
      "inputs": [],
      "name": "NFT",
      "outputs": [
        {
          "internalType": "uint32",
          "name": "",
          "type": "uint32"
        }
      ],
      "stateMutability": "view",
      "type": "function"
    },
    {
      "inputs": [
        {
          "internalType": "address",
          "name": "",
          "type": "address"
        }
      ],
      "name": "balances",
      "outputs": [
        {
          "internalType": "uint256",
          "name": "",
          "type": "uint256"
        }
      ],
      "stateMutability": "view",
      "type": "function"
    },
    {
      "inputs": [
        {
          "internalType": "string",
          "name": "",
          "type": "string"
        }
      ],
      "name": "campaignBalances",
      "outputs": [
        {
          "internalType": "uint256",
          "name": "",
          "type": "uint256"
        }
      ],
      "stateMutability": "view",
      "type": "function"
    },
    {
      "inputs": [
        {
          "internalType": "string",
          "name": "",
          "type": "string"
        }
      ],
      "name": "campaignRandomNumber",
      "outputs": [
        {
          "internalType": "uint32",
          "name": "",
          "type": "uint32"
        }
      ],
      "stateMutability": "view",
      "type": "function"
    },
    {
      "inputs": [
        {
          "internalType": "address",
          "name": "",
          "type": "address"
        }
      ],
      "name": "nftCampaigner",
      "outputs": [
        {
          "internalType": "uint32",
          "name": "",
          "type": "uint32"
        }
      ],
      "stateMutability": "view",
      "type": "function"
    },
    {
      "inputs": [
        {
          "internalType": "address",
          "name": "",
          "type": "address"
        },
        {
          "internalType": "address",
          "name": "",
          "type": "address"
        },
        {
          "internalType": "uint256",
          "name": "",
          "type": "uint256"
        }
      ],
      "name": "tokenBalances",
      "outputs": [
        {
          "internalType": "uint64",
          "name": "",
          "type": "uint64"
        }
      ],
      "stateMutability": "view",
      "type": "function"
    },
    {
      "inputs": [
        {
          "internalType": "string",
          "name": "",
          "type": "string"
        },
        {
          "internalType": "address",
          "name": "",
          "type": "address"
        },
        {
          "internalType": "uint256",
          "name": "",
          "type": "uint256"
        }
      ],
      "name": "tokenCampaignBalances",
      "outputs": [
        {
          "internalType": "uint64",
          "name": "",
          "type": "uint64"
        }
      ],
      "stateMutability": "view",
      "type": "function"
    },
    {
      "inputs": [
        {
          "internalType": "uint32",
          "name": "",
          "type": "uint32"
        },
        {
          "internalType": "address",
          "name": "",
          "type": "address"
        }
      ],
      "name": "whitelistedToken",
      "outputs": [
        {
          "internalType": "bool",
          "name": "",
          "type": "bool"
        }
      ],
      "stateMutability": "view",
      "type": "function"
    },
    {
      "inputs": [
        {
          "internalType": "address",
          "name": "tokenAddress",
          "type": "address"
        },
        {
          "internalType": "bool",
          "name": "isWhitelisted",
          "type": "bool"
        }
      ],
      "name": "associateToken",
      "outputs": [],
      "stateMutability": "nonpayable",
      "type": "function"
    },
    {
      "inputs": [],
      "name": "getAllWhitelistedTokens",
      "outputs": [
        {
          "internalType": "address[]",
          "name": "",
          "type": "address[]"
        }
      ],
      "stateMutability": "view",
      "type": "function"
    },
    {
      "inputs": [
        {
          "internalType": "address",
          "name": "tokenAddress",
          "type": "address"
        }
      ],
      "name": "isTokenWhitelisted",
      "outputs": [
        {
          "internalType": "bool",
          "name": "",
          "type": "bool"
        }
      ],
      "stateMutability": "view",
      "type": "function"
    },
    {
      "inputs": [
        {
          "internalType": "address",
          "name": "newCampaigner",
          "type": "address"
        }
      ],
      "name": "addCampaigner",
      "outputs": [],
      "stateMutability": "nonpayable",
      "type": "function"
    },
    {
      "inputs": [
        {
          "internalType": "address",
          "name": "campaigner",
          "type": "address"
        },
        {
          "internalType": "address",
          "name": "tokenId",
          "type": "address"
        }
      ],
      "name": "getFungibleTokenBalance",
      "outputs": [
        {
          "internalType": "uint64",
          "name": "res",
          "type": "uint64"
        }
      ],
      "stateMutability": "view",
      "type": "function"
    },
    {
      "inputs": [
        {
          "internalType": "address",
          "name": "campaigner",
          "type": "address"
        }
      ],
      "name": "getHbarBalance",
      "outputs": [
        {
          "internalType": "uint256",
          "name": "res",
          "type": "uint256"
        }
      ],
      "stateMutability": "view",
      "type": "function"
    },
    {
      "inputs": [
        {
          "internalType": "string",
          "name": "campaignAddress",
          "type": "string"
        }
      ],
      "name": "getCampaignBalance",
      "outputs": [
        {
          "internalType": "uint256",
          "name": "",
          "type": "uint256"
        }
      ],
      "stateMutability": "view",
      "type": "function"
    }
  ],
  "bytecode": "0x608060405234801561001057600080fd5b50610e2c806100206000396000f3fe608060405234801561001057600080fd5b506004361061010a5760003560e01c80634a3b1152116100a25780639991033c116100715780639991033c146102c5578063b5af090f146102da578063bc3ef1e9146102ed578063bff3199614610313578063cfe3f9a81461032657600080fd5b80634a3b1152146102775780634f18230d1461028a578063774256c7146102b55780637c0b8de2146102bd57600080fd5b806327e235e3116100de57806327e235e3146101c1578063307869dd146101e1578063362e34b91461021c5780634377e3ff1461025a57600080fd5b80625405211461010f578063160f9c881461017857806316d343e01461018b5780631b0f32a3146101ac575b600080fd5b61015a61011d366004610a4e565b82516020818501810180516007825292820195820195909520919094528352600091825260408083209093528152205467ffffffffffffffff1681565b60405167ffffffffffffffff90911681526020015b60405180910390f35b61015a610186366004610aa5565b610357565b61019e610199366004610ad8565b610429565b60405190815260200161016f565b6101bf6101ba366004610afa565b61048a565b005b61019e6101cf366004610ad8565b60026020526000908152604090205481565b61015a6101ef366004610b36565b600560209081526000938452604080852082529284528284209052825290205467ffffffffffffffff1681565b61024a61022a366004610b62565b600360209081526000928352604080842090915290825290205460ff1681565b604051901515815260200161016f565b610262600181565b60405163ffffffff909116815260200161016f565b61019e610285366004610b89565b61075b565b61019e610298366004610b89565b805160208183018101805160068252928201919093012091525481565b610262600081565b610262600281565b6102cd6107c7565b60405161016f9190610bc6565b61024a6102e8366004610ad8565b61083f565b6102626102fb366004610ad8565b60096020526000908152604090205463ffffffff1681565b6101bf610321366004610ad8565b61086a565b610262610334366004610b89565b8051602081830181018051600b8252928201919093012091525463ffffffff1681565b600080546001600160a01b031633148061038057503360009081526001602052604090205460ff165b6103a55760405162461bcd60e51b815260040161039c90610c13565b60405180910390fd5b6103ae8261083f565b604051806040016040528060048152602001634530303560e01b815250906103e95760405162461bcd60e51b815260040161039c9190610c9e565b50506001600160a01b03918216600090815260056020908152604080832093909416825291825282812060018252909152205467ffffffffffffffff1690565b600080546001600160a01b031633148061045257503360009081526001602052604090205460ff165b61046e5760405162461bcd60e51b815260040161039c90610c13565b506001600160a01b031660009081526002602052604090205490565b6000546001600160a01b031633146104b45760405162461bcd60e51b815260040161039c90610cd1565b8080156104e757506001600160a01b0382166000908152600080516020610dd7833981519152602052604090205460ff16155b1561057457506001600160a01b03166000818152600080516020610dd7833981519152602090815260408220805460ff191660019081179091556004909152600080516020610db7833981519152805491820181559091527f210afe6ebef982fa193bb4e17f9f236cdf09af7788627b5d54d9e3e4b100021b0180546001600160a01b0319169091179055565b801580156105a757506001600160a01b0382166000908152600080516020610dd7833981519152602052604090205460ff165b15610757576001600160a01b0382166000908152600080516020610dd7833981519152602090815260408220805460ff191690556001825260049052600080516020610db783398151915254905b818110156107545760016000526004602052600080516020610db783398151915280546001600160a01b03861691908390811061063457610634610d26565b6000918252602090912001546001600160a01b03160361074257600160008190526004602052600080516020610db7833981519152906106749084610d52565b8154811061068457610684610d26565b6000918252602080832090910154600190925260049052600080516020610db783398151915280546001600160a01b0390921691839081106106c8576106c8610d26565b600091825260208083209190910180546001600160a01b0319166001600160a01b0394909416939093179092556001905260049052600080516020610db783398151915280548061071b5761071b610d6b565b600082815260209020810160001990810180546001600160a01b0319169055019055610754565b8061074c81610d81565b9150506105f5565b50505b5050565b600080546001600160a01b031633148061078457503360009081526001602052604090205460ff165b6107a05760405162461bcd60e51b815260040161039c90610c13565b6006826040516107b09190610d9a565b90815260200160405180910390205490505b919050565b600160005260046020908152600080516020610db7833981519152805460408051828502810185019091528181526060939092919083018282801561083557602002820191906000526020600020905b81546001600160a01b03168152600190910190602001808311610817575b5050505050905090565b6001600160a01b03166000908152600080516020610dd7833981519152602052604090205460ff1690565b6000546001600160a01b031633146108945760405162461bcd60e51b815260040161039c90610cd1565b6040805180820190915260048152632298181960e11b60208201526001600160a01b0382166108d65760405162461bcd60e51b815260040161039c9190610c9e565b506001600160a01b03811660009081526001602052604090205460ff1615604051806040016040528060048152602001632298181b60e11b8152509061092f5760405162461bcd60e51b815260040161039c9190610c9e565b506001600160a01b0381166000818152600160208181526040808420805460ff19169093179092556002815281832092909255519182527f3d04fb94919fdfa7708320cdebdf093992d88d792b3d5f4144c364cda00129c6910160405180910390a150565b634e487b7160e01b600052604160045260246000fd5b600082601f8301126109bb57600080fd5b813567ffffffffffffffff808211156109d6576109d6610994565b604051601f8301601f19908116603f011681019082821181831017156109fe576109fe610994565b81604052838152866020858801011115610a1757600080fd5b836020870160208301376000602085830101528094505050505092915050565b80356001600160a01b03811681146107c257600080fd5b600080600060608486031215610a6357600080fd5b833567ffffffffffffffff811115610a7a57600080fd5b610a86868287016109aa565b935050610a9560208501610a37565b9150604084013590509250925092565b60008060408385031215610ab857600080fd5b610ac183610a37565b9150610acf60208401610a37565b90509250929050565b600060208284031215610aea57600080fd5b610af382610a37565b9392505050565b60008060408385031215610b0d57600080fd5b610b1683610a37565b915060208301358015158114610b2b57600080fd5b809150509250929050565b600080600060608486031215610b4b57600080fd5b610b5484610a37565b9250610a9560208501610a37565b60008060408385031215610b7557600080fd5b823563ffffffff81168114610ac157600080fd5b600060208284031215610b9b57600080fd5b813567ffffffffffffffff811115610bb257600080fd5b610bbe848285016109aa565b949350505050565b6020808252825182820181905260009190848201906040850190845b81811015610c075783516001600160a01b031683529284019291840191600101610be2565b50909695505050505050565b60208082526041908201527f556e617574686f72697a6520416363657373207265717565737465642c20436160408201527f6c6c6572206d757374206265206f776e6572206f722063616d706169676e65726060820152601760f91b608082015260a00190565b60005b83811015610c95578181015183820152602001610c7d565b50506000910152565b6020815260008251806020840152610cbd816040850160208701610c7a565b601f01601f19169190910160400192915050565b60208082526035908201527f556e617574686f72697a6520416363657373207265717565737465642c204361604082015274363632b91034b9903737ba103a34329037bbb732b960591b606082015260800190565b634e487b7160e01b600052603260045260246000fd5b634e487b7160e01b600052601160045260246000fd5b81810381811115610d6557610d65610d3c565b92915050565b634e487b7160e01b600052603160045260246000fd5b600060018201610d9357610d93610d3c565b5060010190565b60008251610dac818460208701610c7a565b919091019291505056feabd6e7cb50984ff9c2f3e18a2660c3353dadf4e3291deeb275dae2cd1e44fe05a15bc60c955c405d20d9149c709e2460f1c2d9a497496a7f46004d1772c3054ca2646970667358221220c7c6cf3a2b89973507c289a5a404dd08a3893dc51022dfce19e802f28077b0f264736f6c63430008110033",
  "immutableReferences": {},
  "source": "// SPDX-License-Identifier: Apache-2.0\r\npragma solidity ^0.8.17;\r\n\r\nimport \"./HashbuzzStates.sol\";\r\n/**\r\n * @dev This contract is used to store the state of the Hashbuzz contract\r\n * @title Utils\r\n * @author Om Prakash\r\n * @notice Deals with operations related to transactions.\r\n */\r\n\r\ncontract Utils is HashbuzzStates {\r\n    /**\r\n     * @dev Adds or removes a token from the whitelist.\r\n     * @param tokenAddress The address of the token.\r\n     * @param isWhitelisted Boolean flag to mark the token as whitelisted or not.\r\n     */\r\n    function associateToken(\r\n        address tokenAddress,\r\n        bool isWhitelisted\r\n    ) public onlyOwner {\r\n        if (isWhitelisted && !whitelistedToken[FUNGIBLE][tokenAddress]) {\r\n            // Add to whitelist if not already whitelisted\r\n            whitelistedToken[FUNGIBLE][tokenAddress] = true;\r\n            whitelistedAddresses[FUNGIBLE].push(tokenAddress);\r\n        } else if (!isWhitelisted && whitelistedToken[FUNGIBLE][tokenAddress]) {\r\n            // Remove from whitelist if currently whitelisted\r\n            whitelistedToken[FUNGIBLE][tokenAddress] = false;\r\n\r\n            // Remove address from whitelistedAddresses array\r\n            uint256 length = whitelistedAddresses[FUNGIBLE].length;\r\n            for (uint256 i = 0; i < length; i++) {\r\n                if (whitelistedAddresses[FUNGIBLE][i] == tokenAddress) {\r\n                    whitelistedAddresses[FUNGIBLE][i] = whitelistedAddresses[\r\n                        FUNGIBLE\r\n                    ][length - 1];\r\n                    whitelistedAddresses[FUNGIBLE].pop();\r\n                    break;\r\n                }\r\n            }\r\n        }\r\n    }\r\n\r\n    /**\r\n     * @dev Retrieves all whitelisted addresses for a given token type.\r\n     * @return An array of addresses that are whitelisted for the given token type.\r\n     */\r\n    function getAllWhitelistedTokens() public view returns (address[] memory) {\r\n        return whitelistedAddresses[FUNGIBLE];\r\n    }\r\n\r\n    /**\r\n     * @dev Checks if a specific token address is whitelisted for a given token type.\r\n     * @param tokenAddress The address of the token to check.\r\n     * @return Boolean flag indicating if the token is whitelisted.\r\n     */\r\n    function isTokenWhitelisted(\r\n        address tokenAddress\r\n    ) public view returns (bool) {\r\n        return whitelistedToken[FUNGIBLE][tokenAddress];\r\n    }\r\n\r\n    /**\r\n     * @dev Whitelist cmapigner to the user.\r\n     * @param newCampaigner Address of the user having campaigner role to be used here\r\n     */\r\n    function addCampaigner(address newCampaigner) public onlyOwner {\r\n        require(newCampaigner != address(0), ERR_INVALID_CAMPAIGN_ADDRESS);\r\n        require(!isCampaigner(newCampaigner), ERR_CAMPAIGN_ALREADY_EXISTS);\r\n        campaigners[newCampaigner] = true;\r\n        balances[newCampaigner] = 0;\r\n        emit CampaignerAdded(newCampaigner);\r\n    }\r\n\r\n    /**\r\n     *\r\n     * @param campaigner Address of the campaigner'solidity address\r\n     * @param tokenId Solidity address used for the account\r\n     */\r\n    function getFungibleTokenBalance(\r\n        address campaigner,\r\n        address tokenId\r\n    ) public view onlyOwnerOrCampaigner returns (uint64 res) {\r\n        // required token to be associated\r\n        require(isTokenWhitelisted(tokenId), ERR_TOKEN_NOT_WHITELISTED);\r\n        res = tokenBalances[campaigner][tokenId][FUNGIBLE];\r\n    }\r\n\r\n    /**\r\n     * @dev Balance holded by the user to see.\r\n     * @param campaigner Solidity address of the campaigner.\r\n     */\r\n    function getHbarBalance(\r\n        address campaigner\r\n    ) public view onlyOwnerOrCampaigner returns (uint256 res) {\r\n        res = balances[campaigner];\r\n    }\r\n\r\n    /** Campaign Specific balance for the cmapigners */\r\n    /**\r\n     * @dev Balance holded by the user to see.\r\n     * @param campaignAddress Solidity address of the campaigner.\r\n     */\r\n    function getCampaignBalance(\r\n        string memory campaignAddress\r\n    ) public view onlyOwnerOrCampaigner returns (uint256) {\r\n        return campaignBalances[campaignAddress];\r\n    }\r\n}\r\n",
  "sourcePath": "D:\\rajatk\\hashbuzz-staging\\smv201\\contracts\\HashbuzzModules\\Utils.sol",
  "compiler": {
    "name": "solc",
    "version": "0.8.17+commit.8df45f5f.Emscripten.clang"
  },
  "schemaVersion": "3.4.16",
  "updatedAt": "2024-11-12T16:03:02.733Z",
  "devdoc": {
    "author": "Om Prakash",
    "details": "This contract is used to store the state of the Hashbuzz contract",
    "kind": "dev",
    "methods": {
      "addCampaigner(address)": {
        "details": "Whitelist cmapigner to the user.",
        "params": {
          "newCampaigner": "Address of the user having campaigner role to be used here"
        }
      },
      "associateToken(address,bool)": {
        "details": "Adds or removes a token from the whitelist.",
        "params": {
          "isWhitelisted": "Boolean flag to mark the token as whitelisted or not.",
          "tokenAddress": "The address of the token."
        }
      },
      "getAllWhitelistedTokens()": {
        "details": "Retrieves all whitelisted addresses for a given token type.",
        "returns": {
          "_0": "An array of addresses that are whitelisted for the given token type."
        }
      },
      "getCampaignBalance(string)": {
        "details": "Balance holded by the user to see.",
        "params": {
          "campaignAddress": "Solidity address of the campaigner."
        }
      },
      "getFungibleTokenBalance(address,address)": {
        "params": {
          "campaigner": "Address of the campaigner'solidity address",
          "tokenId": "Solidity address used for the account"
        }
      },
      "getHbarBalance(address)": {
        "details": "Balance holded by the user to see.",
        "params": {
          "campaigner": "Solidity address of the campaigner."
        }
      },
      "isTokenWhitelisted(address)": {
        "details": "Checks if a specific token address is whitelisted for a given token type.",
        "params": {
          "tokenAddress": "The address of the token to check."
        },
        "returns": {
          "_0": "Boolean flag indicating if the token is whitelisted."
        }
      }
    },
    "title": "Utils",
    "version": 1
  },
  "userdoc": {
    "kind": "user",
    "methods": {},
    "notice": "Deals with operations related to transactions.",
    "version": 1
  }
}