{
  "contractName": "HashbuzzV201",
  "abi": [
    {
      "inputs": [],
      "stateMutability": "nonpayable",
      "type": "constructor"
    },
    {
      "anonymous": false,
      "inputs": [
        {
          "indexed": false,
          "internalType": "address",
          "name": "campaigner",
          "type": "address"
        },
        {
          "indexed": false,
          "internalType": "uint256",
          "name": "updatedBalance",
          "type": "uint256"
        }
      ],
      "name": "BalanceUpdated",
      "type": "event"
    },
    {
      "anonymous": false,
      "inputs": [
        {
          "indexed": false,
          "internalType": "string",
          "name": "campaignAddress",
          "type": "string"
        },
        {
          "indexed": false,
          "internalType": "uint256",
          "name": "amount",
          "type": "uint256"
        },
        {
          "indexed": false,
          "internalType": "uint32",
          "name": "tokenType",
          "type": "uint32"
        }
      ],
      "name": "CampaignToppedUp",
      "type": "event"
    },
    {
      "anonymous": false,
      "inputs": [
        {
          "indexed": false,
          "internalType": "address",
          "name": "campaigner",
          "type": "address"
        }
      ],
      "name": "CampaignerAdded",
      "type": "event"
    },
    {
      "anonymous": false,
      "inputs": [
        {
          "indexed": false,
          "internalType": "address",
          "name": "campaigner",
          "type": "address"
        }
      ],
      "name": "CampaignerDeleted",
      "type": "event"
    },
    {
      "anonymous": false,
      "inputs": [
        {
          "indexed": false,
          "internalType": "address",
          "name": "tokenAddress",
          "type": "address"
        }
      ],
      "name": "CreatedToken",
      "type": "event"
    },
    {
      "anonymous": false,
      "inputs": [
        {
          "indexed": false,
          "internalType": "address",
          "name": "campaigner",
          "type": "address"
        },
        {
          "indexed": false,
          "internalType": "uint256",
          "name": "amount",
          "type": "uint256"
        }
      ],
      "name": "FundsDeposited",
      "type": "event"
    },
    {
      "anonymous": false,
      "inputs": [
        {
          "indexed": false,
          "internalType": "address",
          "name": "campaigner",
          "type": "address"
        },
        {
          "indexed": false,
          "internalType": "uint256",
          "name": "amount",
          "type": "uint256"
        }
      ],
      "name": "FundsWithdrawn",
      "type": "event"
    },
    {
      "anonymous": false,
      "inputs": [
        {
          "indexed": false,
          "internalType": "address",
          "name": "campaigner",
          "type": "address"
        },
        {
          "indexed": false,
          "internalType": "address",
          "name": "tokenId",
          "type": "address"
        },
        {
          "indexed": false,
          "internalType": "uint256",
          "name": "updatedBalance",
          "type": "uint256"
        }
      ],
      "name": "FungibleTokenBalanceUpdated",
      "type": "event"
    },
    {
      "anonymous": false,
      "inputs": [
        {
          "indexed": false,
          "internalType": "address",
          "name": "campaigner",
          "type": "address"
        },
        {
          "indexed": false,
          "internalType": "uint256",
          "name": "amount",
          "type": "uint256"
        }
      ],
      "name": "FungibleTokenDeposited",
      "type": "event"
    },
    {
      "anonymous": false,
      "inputs": [
        {
          "indexed": false,
          "internalType": "address",
          "name": "interactor",
          "type": "address"
        },
        {
          "indexed": false,
          "internalType": "address",
          "name": "campaigner",
          "type": "address"
        },
        {
          "indexed": false,
          "internalType": "uint256",
          "name": "amount",
          "type": "uint256"
        }
      ],
      "name": "InteractorPaid",
      "type": "event"
    },
    {
      "anonymous": false,
      "inputs": [
        {
          "indexed": false,
          "internalType": "string",
          "name": "campaignAddress",
          "type": "string"
        },
        {
          "indexed": false,
          "internalType": "uint256",
          "name": "amount",
          "type": "uint256"
        }
      ],
      "name": "InteractorPaidDeferred",
      "type": "event"
    },
    {
      "anonymous": false,
      "inputs": [
        {
          "indexed": false,
          "internalType": "string",
          "name": "campaignAdddress",
          "type": "string"
        },
        {
          "indexed": false,
          "internalType": "uint256",
          "name": "amount",
          "type": "uint256"
        },
        {
          "indexed": false,
          "internalType": "uint32",
          "name": "campaignType",
          "type": "uint32"
        }
      ],
      "name": "NewCampaignIsAdded",
      "type": "event"
    },
    {
      "anonymous": false,
      "inputs": [
        {
          "indexed": false,
          "internalType": "address",
          "name": "owner",
          "type": "address"
        }
      ],
      "name": "OwnerSet",
      "type": "event"
    },
    {
      "anonymous": false,
      "inputs": [
        {
          "indexed": false,
          "internalType": "int256",
          "name": "responseCode",
          "type": "int256"
        }
      ],
      "name": "ResponseCode",
      "type": "event"
    },
    {
      "anonymous": false,
      "inputs": [
        {
          "indexed": false,
          "internalType": "string",
          "name": "campaignAddress",
          "type": "string"
        },
        {
          "indexed": false,
          "internalType": "uint256",
          "name": "totalAmount",
          "type": "uint256"
        },
        {
          "indexed": false,
          "internalType": "uint256",
          "name": "remainingBalance",
          "type": "uint256"
        }
      ],
      "name": "RewardsDistributed",
      "type": "event"
    },
    {
      "anonymous": false,
      "inputs": [
        {
          "indexed": false,
          "internalType": "string",
          "name": "campaignAddress",
          "type": "string"
        },
        {
          "indexed": false,
          "internalType": "uint32",
          "name": "campaignType",
          "type": "uint32"
        }
      ],
      "name": "campaignClosed",
      "type": "event"
    },
    {
      "anonymous": false,
      "inputs": [
        {
          "indexed": false,
          "internalType": "string",
          "name": "campaignAddress",
          "type": "string"
        },
        {
          "indexed": false,
          "internalType": "uint32",
          "name": "campaignType",
          "type": "uint32"
        }
      ],
      "name": "campaignExpired",
      "type": "event"
    },
    {
      "inputs": [],
      "name": "FUNGIBLE",
      "outputs": [
        {
          "internalType": "uint32",
          "name": "",
          "type": "uint32"
        }
      ],
      "stateMutability": "view",
      "type": "function"
    },
    {
      "inputs": [],
      "name": "HBAR",
      "outputs": [
        {
          "internalType": "uint32",
          "name": "",
          "type": "uint32"
        }
      ],
      "stateMutability": "view",
      "type": "function"
    },
    {
      "inputs": [],
      "name": "NFT",
      "outputs": [
        {
          "internalType": "uint32",
          "name": "",
          "type": "uint32"
        }
      ],
      "stateMutability": "view",
      "type": "function"
    },
    {
      "inputs": [
        {
          "internalType": "string",
          "name": "campaignAddress",
          "type": "string"
        },
        {
          "internalType": "address",
          "name": "campaigner",
          "type": "address"
        },
        {
          "internalType": "uint256",
          "name": "amount",
          "type": "uint256"
        }
      ],
      "name": "addCampaignOrTopUp",
      "outputs": [
        {
          "internalType": "uint256",
          "name": "",
          "type": "uint256"
        }
      ],
      "stateMutability": "nonpayable",
      "type": "function"
    },
    {
      "inputs": [
        {
          "internalType": "address",
          "name": "newCampaigner",
          "type": "address"
        }
      ],
      "name": "addCampaigner",
      "outputs": [],
      "stateMutability": "nonpayable",
      "type": "function"
    },
    {
      "inputs": [
        {
          "internalType": "address",
          "name": "campaigner",
          "type": "address"
        },
        {
          "internalType": "address",
          "name": "tokenId",
          "type": "address"
        },
        {
          "internalType": "uint256",
          "name": "tokenAmount",
          "type": "uint256"
        }
      ],
      "name": "addFungibleAmount",
      "outputs": [
        {
          "internalType": "uint256",
          "name": "",
          "type": "uint256"
        }
      ],
      "stateMutability": "nonpayable",
      "type": "function"
    },
    {
      "inputs": [
        {
          "internalType": "address",
          "name": "tokenId",
          "type": "address"
        },
        {
          "internalType": "string",
          "name": "campaignAddress",
          "type": "string"
        },
        {
          "internalType": "address",
          "name": "campaigner",
          "type": "address"
        },
        {
          "internalType": "uint256",
          "name": "tokenAmount",
          "type": "uint256"
        }
      ],
      "name": "addFungibleCampaign",
      "outputs": [
        {
          "internalType": "uint256",
          "name": "",
          "type": "uint256"
        }
      ],
      "stateMutability": "nonpayable",
      "type": "function"
    },
    {
      "inputs": [
        {
          "internalType": "address",
          "name": "tokenId",
          "type": "address"
        },
        {
          "internalType": "address",
          "name": "campaigner",
          "type": "address"
        },
        {
          "internalType": "string",
          "name": "campaignAddress",
          "type": "string"
        },
        {
          "internalType": "uint256",
          "name": "tokenTotalAmount",
          "type": "uint256"
        }
      ],
      "name": "adjustTotalFungibleReward",
      "outputs": [
        {
          "internalType": "uint256",
          "name": "",
          "type": "uint256"
        }
      ],
      "stateMutability": "nonpayable",
      "type": "function"
    },
    {
      "inputs": [
        {
          "internalType": "address",
          "name": "campaigner",
          "type": "address"
        },
        {
          "internalType": "string",
          "name": "campaignAddress",
          "type": "string"
        },
        {
          "internalType": "uint256",
          "name": "totalAmount",
          "type": "uint256"
        }
      ],
      "name": "adjustTotalReward",
      "outputs": [
        {
          "internalType": "uint256",
          "name": "",
          "type": "uint256"
        }
      ],
      "stateMutability": "nonpayable",
      "type": "function"
    },
    {
      "inputs": [
        {
          "internalType": "address",
          "name": "tokenAddress",
          "type": "address"
        },
        {
          "internalType": "bool",
          "name": "isWhitelisted",
          "type": "bool"
        }
      ],
      "name": "associateToken",
      "outputs": [],
      "stateMutability": "nonpayable",
      "type": "function"
    },
    {
      "inputs": [
        {
          "internalType": "address",
          "name": "",
          "type": "address"
        }
      ],
      "name": "balances",
      "outputs": [
        {
          "internalType": "uint256",
          "name": "",
          "type": "uint256"
        }
      ],
      "stateMutability": "view",
      "type": "function"
    },
    {
      "inputs": [
        {
          "internalType": "string",
          "name": "",
          "type": "string"
        }
      ],
      "name": "campaignBalances",
      "outputs": [
        {
          "internalType": "uint256",
          "name": "",
          "type": "uint256"
        }
      ],
      "stateMutability": "view",
      "type": "function"
    },
    {
      "inputs": [
        {
          "internalType": "string",
          "name": "",
          "type": "string"
        }
      ],
      "name": "campaignRandomNumber",
      "outputs": [
        {
          "internalType": "uint32",
          "name": "",
          "type": "uint32"
        }
      ],
      "stateMutability": "view",
      "type": "function"
    },
    {
      "inputs": [
        {
          "internalType": "address",
          "name": "",
          "type": "address"
        }
      ],
      "name": "campaigners",
      "outputs": [
        {
          "internalType": "bool",
          "name": "",
          "type": "bool"
        }
      ],
      "stateMutability": "view",
      "type": "function"
    },
    {
      "inputs": [
        {
          "internalType": "string",
          "name": "campaignAddress",
          "type": "string"
        },
        {
          "internalType": "uint256",
          "name": "campaignExpiryTime",
          "type": "uint256"
        }
      ],
      "name": "closeCampaign",
      "outputs": [],
      "stateMutability": "nonpayable",
      "type": "function"
    },
    {
      "inputs": [
        {
          "internalType": "string",
          "name": "campaignAddress",
          "type": "string"
        },
        {
          "internalType": "uint256",
          "name": "campaignExpiryTime",
          "type": "uint256"
        }
      ],
      "name": "closeFungibleCampaign",
      "outputs": [],
      "stateMutability": "nonpayable",
      "type": "function"
    },
    {
      "inputs": [
        {
          "internalType": "string",
          "name": "campaignAddress",
          "type": "string"
        },
        {
          "internalType": "address",
          "name": "campaigner",
          "type": "address"
        }
      ],
      "name": "expiryCampaign",
      "outputs": [
        {
          "internalType": "uint256",
          "name": "",
          "type": "uint256"
        }
      ],
      "stateMutability": "nonpayable",
      "type": "function"
    },
    {
      "inputs": [
        {
          "internalType": "address",
          "name": "tokenId",
          "type": "address"
        },
        {
          "internalType": "string",
          "name": "campaignAddress",
          "type": "string"
        },
        {
          "internalType": "address",
          "name": "campaigner",
          "type": "address"
        }
      ],
      "name": "expiryFungibleCampaign",
      "outputs": [
        {
          "internalType": "uint256",
          "name": "",
          "type": "uint256"
        }
      ],
      "stateMutability": "nonpayable",
      "type": "function"
    },
    {
      "inputs": [],
      "name": "getAllWhitelistedTokens",
      "outputs": [
        {
          "internalType": "address[]",
          "name": "",
          "type": "address[]"
        }
      ],
      "stateMutability": "view",
      "type": "function"
    },
    {
      "inputs": [
        {
          "internalType": "string",
          "name": "campaignAddress",
          "type": "string"
        }
      ],
      "name": "getCampaignBalance",
      "outputs": [
        {
          "internalType": "uint256",
          "name": "",
          "type": "uint256"
        }
      ],
      "stateMutability": "view",
      "type": "function"
    },
    {
      "inputs": [
        {
          "internalType": "string",
          "name": "campaignAddress",
          "type": "string"
        },
        {
          "internalType": "address",
          "name": "tokenId",
          "type": "address"
        }
      ],
      "name": "getFungibleCampaignBalance",
      "outputs": [
        {
          "internalType": "uint256",
          "name": "res",
          "type": "uint256"
        }
      ],
      "stateMutability": "view",
      "type": "function"
    },
    {
      "inputs": [
        {
          "internalType": "address",
          "name": "campaigner",
          "type": "address"
        },
        {
          "internalType": "address",
          "name": "tokenId",
          "type": "address"
        }
      ],
      "name": "getFungibleTokenBalance",
      "outputs": [
        {
          "internalType": "uint256",
          "name": "res",
          "type": "uint256"
        }
      ],
      "stateMutability": "view",
      "type": "function"
    },
    {
      "inputs": [
        {
          "internalType": "address",
          "name": "campaigner",
          "type": "address"
        }
      ],
      "name": "getHbarBalance",
      "outputs": [
        {
          "internalType": "uint256",
          "name": "res",
          "type": "uint256"
        }
      ],
      "stateMutability": "view",
      "type": "function"
    },
    {
      "inputs": [
        {
          "internalType": "address",
          "name": "tokenAddress",
          "type": "address"
        }
      ],
      "name": "isTokenWhitelisted",
      "outputs": [
        {
          "internalType": "bool",
          "name": "",
          "type": "bool"
        }
      ],
      "stateMutability": "view",
      "type": "function"
    },
    {
      "inputs": [
        {
          "internalType": "address",
          "name": "",
          "type": "address"
        }
      ],
      "name": "nftCampaigner",
      "outputs": [
        {
          "internalType": "uint32",
          "name": "",
          "type": "uint32"
        }
      ],
      "stateMutability": "view",
      "type": "function"
    },
    {
      "inputs": [],
      "name": "owner",
      "outputs": [
        {
          "internalType": "address",
          "name": "",
          "type": "address"
        }
      ],
      "stateMutability": "view",
      "type": "function"
    },
    {
      "inputs": [
        {
          "internalType": "address",
          "name": "tokenId",
          "type": "address"
        },
        {
          "internalType": "address",
          "name": "campaigner",
          "type": "address"
        },
        {
          "internalType": "uint256",
          "name": "amount",
          "type": "uint256"
        }
      ],
      "name": "reimburseBalanceForFungible",
      "outputs": [
        {
          "internalType": "uint256",
          "name": "",
          "type": "uint256"
        }
      ],
      "stateMutability": "nonpayable",
      "type": "function"
    },
    {
      "inputs": [
        {
          "internalType": "address",
          "name": "",
          "type": "address"
        },
        {
          "internalType": "address",
          "name": "",
          "type": "address"
        },
        {
          "internalType": "uint32",
          "name": "",
          "type": "uint32"
        }
      ],
      "name": "tokenBalances",
      "outputs": [
        {
          "internalType": "uint256",
          "name": "",
          "type": "uint256"
        }
      ],
      "stateMutability": "view",
      "type": "function"
    },
    {
      "inputs": [
        {
          "internalType": "string",
          "name": "",
          "type": "string"
        },
        {
          "internalType": "address",
          "name": "",
          "type": "address"
        },
        {
          "internalType": "uint32",
          "name": "",
          "type": "uint32"
        }
      ],
      "name": "tokenCampaignBalances",
      "outputs": [
        {
          "internalType": "uint256",
          "name": "",
          "type": "uint256"
        }
      ],
      "stateMutability": "view",
      "type": "function"
    },
    {
      "inputs": [
        {
          "internalType": "address",
          "name": "campaigner",
          "type": "address"
        },
        {
          "internalType": "uint256",
          "name": "amount",
          "type": "uint256"
        },
        {
          "internalType": "bool",
          "name": "deposit",
          "type": "bool"
        }
      ],
      "name": "updateBalance",
      "outputs": [
        {
          "internalType": "uint256",
          "name": "",
          "type": "uint256"
        }
      ],
      "stateMutability": "nonpayable",
      "type": "function"
    },
    {
      "inputs": [
        {
          "internalType": "uint32",
          "name": "",
          "type": "uint32"
        },
        {
          "internalType": "address",
          "name": "",
          "type": "address"
        }
      ],
      "name": "whitelistedToken",
      "outputs": [
        {
          "internalType": "bool",
          "name": "",
          "type": "bool"
        }
      ],
      "stateMutability": "view",
      "type": "function"
    }
  ],
  "bytecode": "0x608060405234801561001057600080fd5b50600080546001600160a01b031916339081179091556040519081527f50146d0e3c60aa1d17a70635b05494f864e86144a2201275021014fbf08bafe29060200160405180910390a1612fb2806100686000396000f3fe608060405234801561001057600080fd5b50600436106101e55760003560e01c8063774256c71161010f578063b4666130116100a2578063bc46270011610071578063bc462700146104e3578063be036fa2146104f6578063bff3199614610509578063cfe3f9a81461051c57600080fd5b8063b466613014610484578063b5af090f14610497578063b9942524146104aa578063bc3ef1e9146104bd57600080fd5b80639991033c116100de5780639991033c146104085780639a5f0da61461041d5780639de3d8ba1461045e578063a7c7b1821461047157600080fd5b8063774256c7146103ba5780637b7fc677146103c25780637c0b8de2146103d55780638da5cb5b146103dd57600080fd5b8063362e34b91161018757806344131d2f1161015657806344131d2f146103385780634a3b11521461034b5780634f18230d1461035e578063694be7e01461038957600080fd5b8063362e34b9146102c757806341228803146102f55780634377e3ff1461030857806343cf94591461032557600080fd5b806316d343e0116101c357806316d343e0146102565780631b0f32a31461027f57806327e235e314610294578063325c9019146102b457600080fd5b806309d19bb3146101ea5780631102934514610210578063160f9c8814610243575b600080fd5b6101fd6101f8366004612845565b61054d565b6040519081526020015b60405180910390f35b61023361021e366004612881565b60016020526000908152604090205460ff1681565b6040519015158152602001610207565b6101fd6102513660046128a3565b6107cc565b6101fd610264366004612881565b6001600160a01b031660009081526002602052604090205490565b61029261028d3660046128e6565b6108cf565b005b6101fd6102a2366004612881565b60026020526000908152604090205481565b6101fd6102c23660046129b3565b610be3565b6102336102d5366004612a2d565b600360209081526000928352604080842090915290825290205460ff1681565b6101fd610303366004612a49565b610e57565b610310600181565b60405163ffffffff9091168152602001610207565b6101fd610333366004612a85565b610fb4565b6101fd610346366004612aca565b6110c7565b6101fd610359366004612b30565b611482565b6101fd61036c366004612b30565b805160208183018101805160068252928201919093012091525481565b6101fd610397366004612b65565b600560209081526000938452604080852082529284528284209052825290205481565b610310600081565b6101fd6103d0366004612b9f565b6114ea565b610310600281565b6000546103f0906001600160a01b031681565b6040516001600160a01b039091168152602001610207565b610410611733565b6040516102079190612bf6565b6101fd61042b366004612c43565b82516020818501810180516007825292820195820195909520919094528352600091825260408083209093528152205481565b6101fd61046c366004612c8a565b6117ab565b6101fd61047f366004612a85565b611abc565b610292610492366004612cdf565b611d0e565b6102336104a5366004612881565b611ec6565b6101fd6104b8366004612d24565b611ef1565b6103106104cb366004612881565b60096020526000908152604090205463ffffffff1681565b6102926104f1366004612cdf565b612161565b6101fd610504366004612845565b612321565b610292610517366004612881565b6125b7565b61031061052a366004612b30565b8051602081830181018051600b8252928201919093012091525463ffffffff1681565b600080546001600160a01b031633146105815760405162461bcd60e51b815260040161057890612d6b565b60405180910390fd5b6040805180820190915260048152632298181960e11b60208201526001600160a01b0385166105c35760405162461bcd60e51b81526004016105789190612e10565b506040805180820190915260048152634530303160e01b60208201526001600160a01b0384166106065760405162461bcd60e51b81526004016105789190612e10565b506040805180820190915260048152634530313160e01b6020820152826106405760405162461bcd60e51b81526004016105789190612e10565b5061064a846126ce565b604051806040016040528060048152602001634530303360e01b815250906106855760405162461bcd60e51b81526004016105789190612e10565b5061068f83611ec6565b604051806040016040528060048152602001634530303560e01b815250906106ca5760405162461bcd60e51b81526004016105789190612e10565b506001600160a01b0380851660009081526005602090815260408083209387168352928152828220600183529052908120805484929061070b908490612e39565b9091555050604080516001600160a01b0386168152602081018490527f7e173cdce262f17abb63c667517295e12d707392b4a9a6ee4aa7857178ec6464910160405180910390a16001600160a01b038481166000818152600560209081526040808320948816808452948252808320600184528252918290205482519384529083019390935281018290527f8fe0e0da907ac8f437ef47e4203196ea7ddf12675b81ad2e6553bb69314e1e23906060015b60405180910390a1949350505050565b6040805180820190915260048152634530303160e01b60208201526000906001600160a01b0383166108115760405162461bcd60e51b81526004016105789190612e10565b506040805180820190915260048152632298181960e11b60208201526001600160a01b0384166108545760405162461bcd60e51b81526004016105789190612e10565b5061085e82611ec6565b604051806040016040528060048152602001634530303560e01b815250906108995760405162461bcd60e51b81526004016105789190612e10565b50506001600160a01b03918216600090815260056020908152604080832093909416825291825282812060018252909152205490565b6000546001600160a01b031633146108f95760405162461bcd60e51b815260040161057890612d6b565b6040805180820190915260048152634530303160e01b60208201526001600160a01b03831661093b5760405162461bcd60e51b81526004016105789190612e10565b5080801561096f57506001600160a01b0382166000908152600080516020612f5d833981519152602052604090205460ff16155b156109fc57506001600160a01b03166000818152600080516020612f5d833981519152602090815260408220805460ff191660019081179091556004909152600080516020612f3d833981519152805491820181559091527f210afe6ebef982fa193bb4e17f9f236cdf09af7788627b5d54d9e3e4b100021b0180546001600160a01b0319169091179055565b80158015610a2f57506001600160a01b0382166000908152600080516020612f5d833981519152602052604090205460ff165b15610bdf576001600160a01b0382166000908152600080516020612f5d833981519152602090815260408220805460ff191690556001825260049052600080516020612f3d83398151915254905b81811015610bdc5760016000526004602052600080516020612f3d83398151915280546001600160a01b038616919083908110610abc57610abc612e4c565b6000918252602090912001546001600160a01b031603610bca57600160008190526004602052600080516020612f3d83398151915290610afc9084612e62565b81548110610b0c57610b0c612e4c565b6000918252602080832090910154600190925260049052600080516020612f3d83398151915280546001600160a01b039092169183908110610b5057610b50612e4c565b600091825260208083209190910180546001600160a01b0319166001600160a01b0394909416939093179092556001905260049052600080516020612f3d833981519152805480610ba357610ba3612e75565b600082815260209020810160001990810180546001600160a01b0319169055019055610bdc565b80610bd481612e8b565b915050610a7d565b50505b5050565b600080546001600160a01b03163314610c0e5760405162461bcd60e51b815260040161057890612d6b565b610c1785611ec6565b604051806040016040528060048152602001634530303560e01b81525090610c525760405162461bcd60e51b81526004016105789190612e10565b50610c5c846126ce565b604051806040016040528060048152602001634530303360e01b81525090610c975760405162461bcd60e51b81526004016105789190612e10565b506000835111604051806040016040528060048152602001632298181960e11b81525090610cd85760405162461bcd60e51b81526004016105789190612e10565b506040805180820190915260048152634530313160e01b602082015282610d125760405162461bcd60e51b81526004016105789190612e10565b50600a83604051610d239190612ea4565b90815260408051918290036020908101832060016000908152908252829020548383019092526004835263114c0c0d60e21b9083015260ff16610d795760405162461bcd60e51b81526004016105789190612e10565b5081600784604051610d8b9190612ea4565b90815260408051602092819003830190206001600160a01b03891660009081529083528181206001825290925281208054909190610dca908490612e62565b925050819055506000600784604051610de39190612ea4565b9081526040805191829003602090810183206001600160a01b038a16600090815290825282812060018252909152205491507f037378c439105dd07d1db6d59a47347ea8f734a0835509a3820255c8be11cea090610e4690869086908590612ec0565b60405180910390a195945050505050565b600080546001600160a01b03163314610e825760405162461bcd60e51b815260040161057890612d6b565b6040805180820190915260048152632298181960e11b60208201526001600160a01b038516610ec45760405162461bcd60e51b81526004016105789190612e10565b506040805180820190915260048152634530313160e01b602082015283610efe5760405162461bcd60e51b81526004016105789190612e10565b50610f08846126ce565b604051806040016040528060048152602001634530303360e01b81525090610f435760405162461bcd60e51b81526004016105789190612e10565b508115610f5957610f5484846126ec565b610f63565b610f638484612758565b6001600160a01b038416600081815260026020908152604091829020548251938452908301819052917f8ad64a0ac7700dd8425ab0499f107cb6e2cd1581d803c5b8c1c79dcb8190b1af91016107bc565b600080835111604051806040016040528060048152602001632298181960e11b81525090610ff55760405162461bcd60e51b81526004016105789190612e10565b506040805180820190915260048152634530303160e01b60208201526001600160a01b0383166110385760405162461bcd60e51b81526004016105789190612e10565b5061104282611ec6565b604051806040016040528060048152602001634530303560e01b8152509061107d5760405162461bcd60e51b81526004016105789190612e10565b5060078360405161108e9190612ea4565b90815260408051602092819003830190206001600160a01b03949094166000908152938252808420600185529091529091205492915050565b600080546001600160a01b031633146110f25760405162461bcd60e51b815260040161057890612d6b565b6040805180820190915260048152634530303160e01b60208201526001600160a01b0386166111345760405162461bcd60e51b81526004016105789190612e10565b5061113e85611ec6565b604051806040016040528060048152602001634530303560e01b815250906111795760405162461bcd60e51b81526004016105789190612e10565b506000845111604051806040016040528060048152602001632298181960e11b815250906111ba5760405162461bcd60e51b81526004016105789190612e10565b506111c4836126ce565b604051806040016040528060048152602001634530303360e01b815250906111ff5760405162461bcd60e51b81526004016105789190612e10565b506040805180820190915260048152634530313160e01b6020820152826112395760405162461bcd60e51b81526004016105789190612e10565b506001600160a01b038084166000908152600560209081526040808320938916835292815282822060018352815290829020548251808401909352600483526308a6060760e31b918301919091528311156112a75760405162461bcd60e51b81526004016105789190612e10565b506001600160a01b038084166000908152600560209081526040808320938916835292815282822060018352905290812080548492906112e8908490612e62565b92505081905550816007856040516113009190612ea4565b90815260408051602092819003830190206001600160a01b0389166000908152908352818120600182529092528120805490919061133f908490612e39565b90915550506001600160a01b03808416600090815260056020908152604080832093891683529281528282206001835290528190205490518390600790611387908890612ea4565b90815260408051602092819003830190206001600160a01b038a16600090815290835281812060018252909252902054036113fd577f0674090a69c67762650abcd64d1bc896d06756b85c925a9f28e97a30487db3ae858460016040516113f093929190612ee5565b60405180910390a161143a565b7f64ef3840fadd155a2d8cb45b5f007ed1273c96ca6026ee12008d0809aa77eef78584600160405161143193929190612ee5565b60405180910390a15b604080516001600160a01b038087168252881660208201529081018290527f8fe0e0da907ac8f437ef47e4203196ea7ddf12675b81ad2e6553bb69314e1e2390606001610e46565b600080825111604051806040016040528060048152602001632298181960e11b815250906114c35760405162461bcd60e51b81526004016105789190612e10565b506006826040516114d49190612ea4565b9081526020016040518091039020549050919050565b600080546001600160a01b031633146115155760405162461bcd60e51b815260040161057890612d6b565b61151e846126ce565b604051806040016040528060048152602001634530303360e01b815250906115595760405162461bcd60e51b81526004016105789190612e10565b506000835111604051806040016040528060048152602001632298181960e11b8152509061159a5760405162461bcd60e51b81526004016105789190612e10565b506040805180820190915260048152634530313160e01b6020820152826115d45760405162461bcd60e51b81526004016105789190612e10565b50600a836040516115e59190612ea4565b9081526040805191829003602090810183206000808052908252829020548383019092526004835263114c0c0d60e21b9083015260ff166116395760405162461bcd60e51b81526004016105789190612e10565b508160068460405161164b9190612ea4565b90815260200160405180910390205410156116a85760405162461bcd60e51b815260206004820152601d60248201527f496e73756666696369656e742063616d706169676e2062616c616e63650000006044820152606401610578565b816006846040516116b99190612ea4565b908152602001604051809103902060008282546116d69190612e62565b9250508190555060006006846040516116ef9190612ea4565b90815260200160405180910390205490507f037378c439105dd07d1db6d59a47347ea8f734a0835509a3820255c8be11cea08484836040516107bc93929190612ec0565b600160005260046020908152600080516020612f3d83398151915280546040805182850281018501909152818152606093909291908301828280156117a157602002820191906000526020600020905b81546001600160a01b03168152600190910190602001808311611783575b5050505050905090565b600080546001600160a01b031633146117d65760405162461bcd60e51b815260040161057890612d6b565b6040805180820190915260048152634530303160e01b60208201526001600160a01b0385166118185760405162461bcd60e51b81526004016105789190612e10565b5061182284611ec6565b604051806040016040528060048152602001634530303560e01b8152509061185d5760405162461bcd60e51b81526004016105789190612e10565b506000835111604051806040016040528060048152602001632298181960e11b8152509061189e5760405162461bcd60e51b81526004016105789190612e10565b506118a8826126ce565b604051806040016040528060048152602001634530303360e01b815250906118e35760405162461bcd60e51b81526004016105789190612e10565b50600a836040516118f49190612ea4565b90815260408051918290036020908101832060016000908152908252829020548383019092526004835263114c0c0d60e21b9083015260ff1661194a5760405162461bcd60e51b81526004016105789190612e10565b5060088360405161195b9190612ea4565b908152604080519182900360209081018320600160009081529082528290205483830190925260048352634530313760e01b9083015242116119b05760405162461bcd60e51b81526004016105789190612e10565b506007836040516119c19190612ea4565b90815260408051602092819003830190206001600160a01b0387811660008181529285528383206001808552908652848420549288168452600586528484209184529085528383209083529093529081208054909190611a22908490612e39565b925050819055506000600784604051611a3b9190612ea4565b9081526040805191829003602090810183206001600160a01b03808a16600081815292845284832060018085529085528584209790975590881682526005835283822090825282528281208582529091522054917f2a4a396795b36662ffe9a398a57fd654cf6ea95e79cf6d96d6f0267685687c39916107bc918791612f14565b600080546001600160a01b03163314611ae75760405162461bcd60e51b815260040161057890612d6b565b6000835111604051806040016040528060048152602001632298181960e11b81525090611b275760405162461bcd60e51b81526004016105789190612e10565b50611b31826126ce565b604051806040016040528060048152602001634530303360e01b81525090611b6c5760405162461bcd60e51b81526004016105789190612e10565b50600a83604051611b7d9190612ea4565b9081526040805191829003602090810183206000808052908252829020548383019092526004835263114c0c0d60e21b9083015260ff16611bd15760405162461bcd60e51b81526004016105789190612e10565b50600883604051611be29190612ea4565b90815260408051918290036020908101832060008080529082528290205483830190925260048352634530313760e01b908301524211611c355760405162461bcd60e51b81526004016105789190612e10565b50600683604051611c469190612ea4565b90815260200160405180910390205460026000846001600160a01b03166001600160a01b031681526020019081526020016000206000828254611c899190612e39565b925050819055506000600684604051611ca29190612ea4565b908152604080519182900360209081018320939093556001600160a01b03851660009081526002909352822054917f2a4a396795b36662ffe9a398a57fd654cf6ea95e79cf6d96d6f0267685687c3991611cfd918791612f14565b60405180910390a190505b92915050565b6000546001600160a01b03163314611d385760405162461bcd60e51b815260040161057890612d6b565b6000825111604051806040016040528060048152602001632298181960e11b81525090611d785760405162461bcd60e51b81526004016105789190612e10565b506040805180820190915260048152630453031360e41b602082015281611db25760405162461bcd60e51b81526004016105789190612e10565b50600a82604051611dc39190612ea4565b9081526040805191829003602090810183206000808052908252829020548383019092526004835263114c0c4d60e21b9083015260ff1615611e185760405162461bcd60e51b81526004016105789190612e10565b506001600a83604051611e2b9190612ea4565b9081526040805160209281900383019020600080805292529020805460ff1916911515919091179055611e5e8142612e39565b600883604051611e6e9190612ea4565b908152604080516020928190038301812060008080529352908220929092557ffda0e6502dae3d85195083e39efa0c8bdccc7d5741b53cf5c57de0c33dc9aaa491611eba918591612f14565b60405180910390a15050565b6001600160a01b03166000908152600080516020612f5d833981519152602052604090205460ff1690565b600080546001600160a01b03163314611f1c5760405162461bcd60e51b815260040161057890612d6b565b6040805180820190915260048152634530313160e01b602082015282611f555760405162461bcd60e51b81526004016105789190612e10565b506000845111604051806040016040528060048152602001632298181960e11b81525090611f965760405162461bcd60e51b81526004016105789190612e10565b50611fa0836126ce565b604051806040016040528060048152602001634530303360e01b81525090611fdb5760405162461bcd60e51b81526004016105789190612e10565b508160026000856001600160a01b03166001600160a01b031681526020019081526020016000205410156040518060400160405280600481526020016308a6060760e31b815250906120405760405162461bcd60e51b81526004016105789190612e10565b506001600160a01b03831660009081526002602052604081208054849290612069908490612e62565b92505081905550816006856040516120819190612ea4565b9081526020016040518091039020600082825461209e9190612e39565b90915550506001600160a01b0383166000908152600260205260409081902054905183906006906120d0908890612ea4565b90815260200160405180910390205403612125577f0674090a69c67762650abcd64d1bc896d06756b85c925a9f28e97a30487db3ae8584600060405161211893929190612ee5565b60405180910390a1612159565b7f64ef3840fadd155a2d8cb45b5f007ed1273c96ca6026ee12008d0809aa77eef7858460006040516107bc93929190612ee5565b949350505050565b6000546001600160a01b0316331461218b5760405162461bcd60e51b815260040161057890612d6b565b6000825111604051806040016040528060048152602001632298181960e11b815250906121cb5760405162461bcd60e51b81526004016105789190612e10565b506040805180820190915260048152630453031360e41b6020820152816122055760405162461bcd60e51b81526004016105789190612e10565b50600a826040516122169190612ea4565b90815260408051918290036020908101832060016000908152908252829020548383019092526004835263114c0c4d60e21b9083015260ff161561226d5760405162461bcd60e51b81526004016105789190612e10565b506001600a836040516122809190612ea4565b90815260408051602092819003830190206001600090815292529020805460ff19169115159190911790556122b58142612e39565b6008836040516122c59190612ea4565b90815260200160405180910390206000600163ffffffff168152602001908152602001600020819055507ffda0e6502dae3d85195083e39efa0c8bdccc7d5741b53cf5c57de0c33dc9aaa4826001604051611eba929190612f14565b600080546001600160a01b0316331461234c5760405162461bcd60e51b815260040161057890612d6b565b6040805180820190915260048152632298181960e11b60208201526001600160a01b03841661238e5760405162461bcd60e51b81526004016105789190612e10565b506040805180820190915260048152634530303160e01b60208201526001600160a01b0385166123d15760405162461bcd60e51b81526004016105789190612e10565b506040805180820190915260048152634530313160e01b60208201528261240b5760405162461bcd60e51b81526004016105789190612e10565b50612415836126ce565b604051806040016040528060048152602001634530303360e01b815250906124505760405162461bcd60e51b81526004016105789190612e10565b5061245a84611ec6565b604051806040016040528060048152602001634530303560e01b815250906124955760405162461bcd60e51b81526004016105789190612e10565b506001600160a01b038084166000908152600560209081526040808320938816835292815282822060018352815290829020548251808401909352600483526308a6060760e31b918301919091528311156125035760405162461bcd60e51b81526004016105789190612e10565b506001600160a01b03808416600090815260056020908152604080832093881683529281528282206001835290529081208054849290612544908490612e62565b90915550506001600160a01b038381166000818152600560209081526040808320948916808452948252808320600184528252918290205482519384529083019390935281018290527f8fe0e0da907ac8f437ef47e4203196ea7ddf12675b81ad2e6553bb69314e1e23906060016107bc565b6000546001600160a01b031633146125e15760405162461bcd60e51b815260040161057890612d6b565b6040805180820190915260048152632298181960e11b60208201526001600160a01b0382166126235760405162461bcd60e51b81526004016105789190612e10565b5061262d816126ce565b15604051806040016040528060048152602001632298181b60e11b815250906126695760405162461bcd60e51b81526004016105789190612e10565b506001600160a01b0381166000818152600160208181526040808420805460ff19169093179092556002815281832092909255519182527f3d04fb94919fdfa7708320cdebdf093992d88d792b3d5f4144c364cda00129c6910160405180910390a150565b6001600160a01b031660009081526001602052604090205460ff1690565b6001600160a01b03821660009081526002602052604081208054839290612714908490612e39565b9091555050604080516001600160a01b0384168152602081018390527f543ba50a5eec5e6178218e364b1d0f396157b3c8fa278522c2cb7fd99407d4749101611eba565b8060026000846001600160a01b03166001600160a01b031681526020019081526020016000205410156040518060400160405280600481526020016308a6060760e31b815250906127bc5760405162461bcd60e51b81526004016105789190612e10565b506001600160a01b038216600090815260026020526040812080548392906127e5908490612e62565b9091555050604080516001600160a01b0384168152602081018390527feaff4b37086828766ad3268786972c0cd24259d4c87a80f9d3963a3c3d999b0d9101611eba565b80356001600160a01b038116811461284057600080fd5b919050565b60008060006060848603121561285a57600080fd5b61286384612829565b925061287160208501612829565b9150604084013590509250925092565b60006020828403121561289357600080fd5b61289c82612829565b9392505050565b600080604083850312156128b657600080fd5b6128bf83612829565b91506128cd60208401612829565b90509250929050565b8035801515811461284057600080fd5b600080604083850312156128f957600080fd5b61290283612829565b91506128cd602084016128d6565b634e487b7160e01b600052604160045260246000fd5b600082601f83011261293757600080fd5b813567ffffffffffffffff8082111561295257612952612910565b604051601f8301601f19908116603f0116810190828211818310171561297a5761297a612910565b8160405283815286602085880101111561299357600080fd5b836020870160208301376000602085830101528094505050505092915050565b600080600080608085870312156129c957600080fd5b6129d285612829565b93506129e060208601612829565b9250604085013567ffffffffffffffff8111156129fc57600080fd5b612a0887828801612926565b949793965093946060013593505050565b803563ffffffff8116811461284057600080fd5b60008060408385031215612a4057600080fd5b6128bf83612a19565b600080600060608486031215612a5e57600080fd5b612a6784612829565b925060208401359150612a7c604085016128d6565b90509250925092565b60008060408385031215612a9857600080fd5b823567ffffffffffffffff811115612aaf57600080fd5b612abb85828601612926565b9250506128cd60208401612829565b60008060008060808587031215612ae057600080fd5b612ae985612829565b9350602085013567ffffffffffffffff811115612b0557600080fd5b612b1187828801612926565b935050612b2060408601612829565b9396929550929360600135925050565b600060208284031215612b4257600080fd5b813567ffffffffffffffff811115612b5957600080fd5b61215984828501612926565b600080600060608486031215612b7a57600080fd5b612b8384612829565b9250612b9160208501612829565b9150612a7c60408501612a19565b600080600060608486031215612bb457600080fd5b612bbd84612829565b9250602084013567ffffffffffffffff811115612bd957600080fd5b612be586828701612926565b925050604084013590509250925092565b6020808252825182820181905260009190848201906040850190845b81811015612c375783516001600160a01b031683529284019291840191600101612c12565b50909695505050505050565b600080600060608486031215612c5857600080fd5b833567ffffffffffffffff811115612c6f57600080fd5b612c7b86828701612926565b935050612b9160208501612829565b600080600060608486031215612c9f57600080fd5b612ca884612829565b9250602084013567ffffffffffffffff811115612cc457600080fd5b612cd086828701612926565b925050612a7c60408501612829565b60008060408385031215612cf257600080fd5b823567ffffffffffffffff811115612d0957600080fd5b612d1585828601612926565b95602094909401359450505050565b600080600060608486031215612d3957600080fd5b833567ffffffffffffffff811115612d5057600080fd5b612d5c86828701612926565b93505061287160208501612829565b60208082526035908201527f556e617574686f72697a6520416363657373207265717565737465642c204361604082015274363632b91034b9903737ba103a34329037bbb732b960591b606082015260800190565b60005b83811015612ddb578181015183820152602001612dc3565b50506000910152565b60008151808452612dfc816020860160208601612dc0565b601f01601f19169290920160200192915050565b60208152600061289c6020830184612de4565b634e487b7160e01b600052601160045260246000fd5b80820180821115611d0857611d08612e23565b634e487b7160e01b600052603260045260246000fd5b81810381811115611d0857611d08612e23565b634e487b7160e01b600052603160045260246000fd5b600060018201612e9d57612e9d612e23565b5060010190565b60008251612eb6818460208701612dc0565b9190910192915050565b606081526000612ed36060830186612de4565b60208301949094525060400152919050565b606081526000612ef86060830186612de4565b905083602083015263ffffffff83166040830152949350505050565b604081526000612f276040830185612de4565b905063ffffffff83166020830152939250505056feabd6e7cb50984ff9c2f3e18a2660c3353dadf4e3291deeb275dae2cd1e44fe05a15bc60c955c405d20d9149c709e2460f1c2d9a497496a7f46004d1772c3054ca2646970667358221220a2bf1dbb38de8617d5524232880e1f3a957233935749effdd8849de7cb48ab2364736f6c63430008110033",
  "immutableReferences": {},
  "source": "// SPDX-License-Identifier: Apache-2.0\npragma solidity ^0.8.17;\n\nimport \"./HashbuzzModules/HashbuzzStates.sol\";\nimport \"./HashbuzzModules/Utils.sol\";\nimport \"./HashbuzzModules/CampaignLifecycle.sol\";\nimport \"./HashbuzzModules/Transactions.sol\";\n\ncontract HashbuzzV201 is HashbuzzStates, Utils, Lifecycle, Transactions {\n    constructor() {\n        owner = msg.sender;\n        emit OwnerSet(owner);\n    }\n}\n",
  "sourcePath": "/Users/ahmed/Desktop/hashbuzz_code/smv201/contracts/HashbuzzV201.sol",
  "compiler": {
    "name": "solc",
    "version": "0.8.17+commit.8df45f5f.Emscripten.clang"
  },
  "schemaVersion": "3.4.16",
  "updatedAt": "2024-12-05T13:53:54.882Z",
  "devdoc": {
    "kind": "dev",
    "methods": {
      "addCampaignOrTopUp(string,address,uint256)": {
        "details": "Add a new campaign or top up an existing campaign",
        "params": {
          "amount": "The amount to be allocated to the campaign from the campaigner's balance.",
          "campaignAddress": "The db address of the campaign",
          "campaigner": "The solidity address of the campaigner or wallet address"
        }
      },
      "addCampaigner(address)": {
        "details": "Whitelist cmapigner to the user.",
        "params": {
          "newCampaigner": "Address of the user having campaigner role to be used here"
        }
      },
      "addFungibleAmount(address,address,uint256)": {
        "details": "Fungible token added to the campaigner account.",
        "params": {
          "campaigner": "Address of the campaigner",
          "tokenAmount": "Amount added to the campaigner account",
          "tokenId": "Token ID address"
        }
      },
      "addFungibleCampaign(address,string,address,uint256)": {
        "details": "Add a new campaign for fungible tokens or top up an existing campaign",
        "params": {
          "campaignAddress": "The db address of the campaign",
          "campaigner": "The solidity address of the campaigner or wallet address",
          "tokenAmount": "The amount of tokens to be allocated to the campaign",
          "tokenId": "The address of the token in solidity format"
        }
      },
      "adjustTotalFungibleReward(address,address,string,uint256)": {
        "details": "Distribute fungible tokens to the campaigner",
        "params": {
          "campaignAddress": "The db address of the campaign",
          "campaigner": "The solidity address of the campaigner or wallet address",
          "tokenId": "The address of the token in solidity format",
          "tokenTotalAmount": "The total amount of tokens to be distributed"
        }
      },
      "adjustTotalReward(address,string,uint256)": {
        "details": "Distribute HBAR tokens to the campaigner",
        "params": {
          "campaignAddress": "The db address of the campaign",
          "campaigner": "The solidity address of the campaigner or wallet address",
          "totalAmount": "The total amount of tokens to be distributed"
        }
      },
      "associateToken(address,bool)": {
        "details": "Adds or removes a token from the whitelist.",
        "params": {
          "isWhitelisted": "Boolean flag to mark the token as whitelisted or not.",
          "tokenAddress": "The address of the token."
        }
      },
      "closeCampaign(string,uint256)": {
        "details": "Close a campaign with HBAR",
        "params": {
          "campaignAddress": "The db address of the campaign",
          "campaignExpiryTime": "The expiry time of the campaign in seconds"
        }
      },
      "closeFungibleCampaign(string,uint256)": {
        "details": "Close a campaign with fungible tokens",
        "params": {
          "campaignAddress": "The db address of the campaign",
          "campaignExpiryTime": "The expiry time of the campaign in seconds"
        }
      },
      "expiryCampaign(string,address)": {
        "details": "Expiry a campaign with HBAR",
        "params": {
          "campaignAddress": "The db address of the campaign",
          "campaigner": "The solidity address of the campaigner or wallet address"
        }
      },
      "expiryFungibleCampaign(address,string,address)": {
        "details": "Expiry a campaign with fungible tokens campaigns only",
        "params": {
          "campaignAddress": "The db address of the campaign",
          "campaigner": "The solidity address of the campaigner or wallet address",
          "tokenId": "The address of the token in solidity format"
        }
      },
      "getAllWhitelistedTokens()": {
        "details": "Retrieves all whitelisted addresses for a given token type.",
        "returns": {
          "_0": "An array of addresses that are whitelisted for the given token type."
        }
      },
      "getCampaignBalance(string)": {
        "details": "Balance alloted to the camppaign to see.",
        "params": {
          "campaignAddress": "campaign string id."
        }
      },
      "getFungibleCampaignBalance(string,address)": {
        "details": "Token balance held by the campaign.",
        "params": {
          "campaignAddress": "Campaign string ID.",
          "tokenId": "Solidity address of the token."
        },
        "returns": {
          "res": "The balance of the fungible token for the campaign."
        }
      },
      "getFungibleTokenBalance(address,address)": {
        "details": "Retrieves the balance of a fungible token for a specific campaigner.",
        "params": {
          "campaigner": "Address of the campaigner's solidity address.",
          "tokenId": "Solidity address used for the account."
        },
        "returns": {
          "res": "The balance of the fungible token."
        }
      },
      "getHbarBalance(address)": {
        "details": "Balance holded by the user to see.",
        "params": {
          "campaigner": "Solidity address of the campaigner."
        }
      },
      "isTokenWhitelisted(address)": {
        "details": "Checks if a specific token address is whitelisted for a given token type.",
        "params": {
          "tokenAddress": "The address of the token to check."
        },
        "returns": {
          "_0": "Boolean flag indicating if the token is whitelisted."
        }
      },
      "reimburseBalanceForFungible(address,address,uint256)": {
        "details": "This function is used for reimbursing the campaigner balance",
        "params": {
          "amount": "Total amount campaigner wanted to reimburse",
          "campaigner": "Campaigner Address",
          "tokenId": "Token solidity address"
        }
      },
      "updateBalance(address,uint256,bool)": {
        "details": "Topup and reimbersement cases",
        "params": {
          "amount": "Amount being topuped",
          "campaigner": "campaigner solidity address",
          "deposit": "Boolean is here"
        }
      }
    },
    "version": 1
  },
  "userdoc": {
    "kind": "user",
    "methods": {},
    "version": 1
  }
}