{
  "contractName": "HashbuzzStates",
  "abi": [
    {
      "anonymous": false,
      "inputs": [
        {
          "indexed": false,
          "internalType": "address",
          "name": "campaigner",
          "type": "address"
        },
        {
          "indexed": false,
          "internalType": "uint256",
          "name": "updatedBalance",
          "type": "uint256"
        }
      ],
      "name": "BalanceUpdated",
      "type": "event"
    },
    {
      "anonymous": false,
      "inputs": [
        {
          "indexed": false,
          "internalType": "string",
          "name": "campaignAddress",
          "type": "string"
        },
        {
          "indexed": false,
          "internalType": "uint256",
          "name": "amount",
          "type": "uint256"
        },
        {
          "indexed": false,
          "internalType": "uint32",
          "name": "tokenType",
          "type": "uint32"
        }
      ],
      "name": "CampaignToppedUp",
      "type": "event"
    },
    {
      "anonymous": false,
      "inputs": [
        {
          "indexed": false,
          "internalType": "address",
          "name": "campaigner",
          "type": "address"
        }
      ],
      "name": "CampaignerAdded",
      "type": "event"
    },
    {
      "anonymous": false,
      "inputs": [
        {
          "indexed": false,
          "internalType": "address",
          "name": "campaigner",
          "type": "address"
        }
      ],
      "name": "CampaignerDeleted",
      "type": "event"
    },
    {
      "anonymous": false,
      "inputs": [
        {
          "indexed": false,
          "internalType": "address",
          "name": "tokenAddress",
          "type": "address"
        }
      ],
      "name": "CreatedToken",
      "type": "event"
    },
    {
      "anonymous": false,
      "inputs": [
        {
          "indexed": false,
          "internalType": "address",
          "name": "campaigner",
          "type": "address"
        },
        {
          "indexed": false,
          "internalType": "uint256",
          "name": "amount",
          "type": "uint256"
        }
      ],
      "name": "FundsDeposited",
      "type": "event"
    },
    {
      "anonymous": false,
      "inputs": [
        {
          "indexed": false,
          "internalType": "address",
          "name": "campaigner",
          "type": "address"
        },
        {
          "indexed": false,
          "internalType": "uint256",
          "name": "amount",
          "type": "uint256"
        }
      ],
      "name": "FundsWithdrawn",
      "type": "event"
    },
    {
      "anonymous": false,
      "inputs": [
        {
          "indexed": false,
          "internalType": "address",
          "name": "campaigner",
          "type": "address"
        },
        {
          "indexed": false,
          "internalType": "address",
          "name": "tokenId",
          "type": "address"
        },
        {
          "indexed": false,
          "internalType": "uint256",
          "name": "updatedBalance",
          "type": "uint256"
        }
      ],
      "name": "FungibleTokenBalanceUpdated",
      "type": "event"
    },
    {
      "anonymous": false,
      "inputs": [
        {
          "indexed": false,
          "internalType": "address",
          "name": "campaigner",
          "type": "address"
        },
        {
          "indexed": false,
          "internalType": "uint256",
          "name": "amount",
          "type": "uint256"
        }
      ],
      "name": "FungibleTokenDeposited",
      "type": "event"
    },
    {
      "anonymous": false,
      "inputs": [
        {
          "indexed": false,
          "internalType": "address",
          "name": "interactor",
          "type": "address"
        },
        {
          "indexed": false,
          "internalType": "address",
          "name": "campaigner",
          "type": "address"
        },
        {
          "indexed": false,
          "internalType": "uint256",
          "name": "amount",
          "type": "uint256"
        }
      ],
      "name": "InteractorPaid",
      "type": "event"
    },
    {
      "anonymous": false,
      "inputs": [
        {
          "indexed": false,
          "internalType": "string",
          "name": "campaignAddress",
          "type": "string"
        },
        {
          "indexed": false,
          "internalType": "uint256",
          "name": "amount",
          "type": "uint256"
        }
      ],
      "name": "InteractorPaidDeferred",
      "type": "event"
    },
    {
      "anonymous": false,
      "inputs": [
        {
          "indexed": false,
          "internalType": "string",
          "name": "campaignAdddress",
          "type": "string"
        },
        {
          "indexed": false,
          "internalType": "uint256",
          "name": "amount",
          "type": "uint256"
        },
        {
          "indexed": false,
          "internalType": "uint32",
          "name": "campaignType",
          "type": "uint32"
        }
      ],
      "name": "NewCampaignIsAdded",
      "type": "event"
    },
    {
      "anonymous": false,
      "inputs": [
        {
          "indexed": false,
          "internalType": "address",
          "name": "owner",
          "type": "address"
        }
      ],
      "name": "OwnerSet",
      "type": "event"
    },
    {
      "anonymous": false,
      "inputs": [
        {
          "indexed": false,
          "internalType": "int256",
          "name": "responseCode",
          "type": "int256"
        }
      ],
      "name": "ResponseCode",
      "type": "event"
    },
    {
      "anonymous": false,
      "inputs": [
        {
          "indexed": false,
          "internalType": "string",
          "name": "campaignAddress",
          "type": "string"
        },
        {
          "indexed": false,
          "internalType": "uint256",
          "name": "totalAmount",
          "type": "uint256"
        },
        {
          "indexed": false,
          "internalType": "uint256",
          "name": "remainingBalance",
          "type": "uint256"
        }
      ],
      "name": "RewardsDistributed",
      "type": "event"
    },
    {
      "anonymous": false,
      "inputs": [
        {
          "indexed": false,
          "internalType": "string",
          "name": "campaignAddress",
          "type": "string"
        },
        {
          "indexed": false,
          "internalType": "uint32",
          "name": "campaignType",
          "type": "uint32"
        }
      ],
      "name": "campaignClosed",
      "type": "event"
    },
    {
      "anonymous": false,
      "inputs": [
        {
          "indexed": false,
          "internalType": "string",
          "name": "campaignAddress",
          "type": "string"
        },
        {
          "indexed": false,
          "internalType": "uint32",
          "name": "campaignType",
          "type": "uint32"
        }
      ],
      "name": "campaignExpired",
      "type": "event"
    },
    {
      "inputs": [],
      "name": "FUNGIBLE",
      "outputs": [
        {
          "internalType": "uint32",
          "name": "",
          "type": "uint32"
        }
      ],
      "stateMutability": "view",
      "type": "function"
    },
    {
      "inputs": [],
      "name": "HBAR",
      "outputs": [
        {
          "internalType": "uint32",
          "name": "",
          "type": "uint32"
        }
      ],
      "stateMutability": "view",
      "type": "function"
    },
    {
      "inputs": [],
      "name": "NFT",
      "outputs": [
        {
          "internalType": "uint32",
          "name": "",
          "type": "uint32"
        }
      ],
      "stateMutability": "view",
      "type": "function"
    },
    {
      "inputs": [
        {
          "internalType": "address",
          "name": "",
          "type": "address"
        }
      ],
      "name": "balances",
      "outputs": [
        {
          "internalType": "uint256",
          "name": "",
          "type": "uint256"
        }
      ],
      "stateMutability": "view",
      "type": "function"
    },
    {
      "inputs": [
        {
          "internalType": "string",
          "name": "",
          "type": "string"
        }
      ],
      "name": "campaignBalances",
      "outputs": [
        {
          "internalType": "uint256",
          "name": "",
          "type": "uint256"
        }
      ],
      "stateMutability": "view",
      "type": "function"
    },
    {
      "inputs": [
        {
          "internalType": "string",
          "name": "",
          "type": "string"
        }
      ],
      "name": "campaignRandomNumber",
      "outputs": [
        {
          "internalType": "uint32",
          "name": "",
          "type": "uint32"
        }
      ],
      "stateMutability": "view",
      "type": "function"
    },
    {
      "inputs": [
        {
          "internalType": "address",
          "name": "",
          "type": "address"
        }
      ],
      "name": "campaigners",
      "outputs": [
        {
          "internalType": "bool",
          "name": "",
          "type": "bool"
        }
      ],
      "stateMutability": "view",
      "type": "function"
    },
    {
      "inputs": [
        {
          "internalType": "address",
          "name": "",
          "type": "address"
        }
      ],
      "name": "nftCampaigner",
      "outputs": [
        {
          "internalType": "uint32",
          "name": "",
          "type": "uint32"
        }
      ],
      "stateMutability": "view",
      "type": "function"
    },
    {
      "inputs": [],
      "name": "owner",
      "outputs": [
        {
          "internalType": "address",
          "name": "",
          "type": "address"
        }
      ],
      "stateMutability": "view",
      "type": "function"
    },
    {
      "inputs": [
        {
          "internalType": "address",
          "name": "",
          "type": "address"
        },
        {
          "internalType": "address",
          "name": "",
          "type": "address"
        },
        {
          "internalType": "uint32",
          "name": "",
          "type": "uint32"
        }
      ],
      "name": "tokenBalances",
      "outputs": [
        {
          "internalType": "uint256",
          "name": "",
          "type": "uint256"
        }
      ],
      "stateMutability": "view",
      "type": "function"
    },
    {
      "inputs": [
        {
          "internalType": "string",
          "name": "",
          "type": "string"
        },
        {
          "internalType": "address",
          "name": "",
          "type": "address"
        },
        {
          "internalType": "uint32",
          "name": "",
          "type": "uint32"
        }
      ],
      "name": "tokenCampaignBalances",
      "outputs": [
        {
          "internalType": "uint256",
          "name": "",
          "type": "uint256"
        }
      ],
      "stateMutability": "view",
      "type": "function"
    },
    {
      "inputs": [
        {
          "internalType": "uint32",
          "name": "",
          "type": "uint32"
        },
        {
          "internalType": "address",
          "name": "",
          "type": "address"
        }
      ],
      "name": "whitelistedToken",
      "outputs": [
        {
          "internalType": "bool",
          "name": "",
          "type": "bool"
        }
      ],
      "stateMutability": "view",
      "type": "function"
    }
  ],
  "bytecode": "0x608060405234801561001057600080fd5b506104be806100206000396000f3fe608060405234801561001057600080fd5b50600436106100b45760003560e01c8063774256c711610071578063774256c7146101c65780637c0b8de2146101ce5780638da5cb5b146101d65780639a5f0da614610201578063bc3ef1e914610242578063cfe3f9a81461026857600080fd5b806311029345146100b957806327e235e3146100f1578063362e34b91461011f5780634377e3ff1461014d5780634f18230d1461016a578063694be7e014610195575b600080fd5b6100dc6100c73660046102b5565b60016020526000908152604090205460ff1681565b60405190151581526020015b60405180910390f35b6101116100ff3660046102b5565b60026020526000908152604090205481565b6040519081526020016100e8565b6100dc61012d3660046102eb565b600360209081526000928352604080842090915290825290205460ff1681565b610155600181565b60405163ffffffff90911681526020016100e8565b6101116101783660046103c1565b805160208183018101805160068252928201919093012091525481565b6101116101a33660046103fe565b600560209081526000938452604080852082529284528284209052825290205481565b610155600081565b610155600281565b6000546101e9906001600160a01b031681565b6040516001600160a01b0390911681526020016100e8565b61011161020f366004610441565b82516020818501810180516007825292820195820195909520919094528352600091825260408083209093528152205481565b6101556102503660046102b5565b60096020526000908152604090205463ffffffff1681565b6101556102763660046103c1565b8051602081830181018051600b8252928201919093012091525463ffffffff1681565b80356001600160a01b03811681146102b057600080fd5b919050565b6000602082840312156102c757600080fd5b6102d082610299565b9392505050565b803563ffffffff811681146102b057600080fd5b600080604083850312156102fe57600080fd5b610307836102d7565b915061031560208401610299565b90509250929050565b634e487b7160e01b600052604160045260246000fd5b600082601f83011261034557600080fd5b813567ffffffffffffffff808211156103605761036061031e565b604051601f8301601f19908116603f011681019082821181831017156103885761038861031e565b816040528381528660208588010111156103a157600080fd5b836020870160208301376000602085830101528094505050505092915050565b6000602082840312156103d357600080fd5b813567ffffffffffffffff8111156103ea57600080fd5b6103f684828501610334565b949350505050565b60008060006060848603121561041357600080fd5b61041c84610299565b925061042a60208501610299565b9150610438604085016102d7565b90509250925092565b60008060006060848603121561045657600080fd5b833567ffffffffffffffff81111561046d57600080fd5b61047986828701610334565b93505061042a6020850161029956fea26469706673582212207a47e1d2542cbc5f6c3e22a75b4483cc30ef903ef9dd55ea08f76481522ebf3c64736f6c63430008110033",
  "immutableReferences": {},
  "source": "// SPDX-License-Identifier: Apache-2.0\r\npragma solidity ^0.8.17;\r\n\r\n/**\r\n * @title HashbuzzStates\r\n * @dev This contract is used to store the state of the Hashbuzz contract\r\n */\r\ncontract HashbuzzStates {\r\n    address public owner;\r\n\r\n    uint32 public constant HBAR = 0;\r\n    uint32 public constant FUNGIBLE = 1;\r\n    uint32 public constant NFT = 2;\r\n\r\n    mapping(address => bool) public campaigners;\r\n    mapping(address => uint256) public balances;\r\n\r\n    mapping(uint32 => mapping(address => bool)) public whitelistedToken;\r\n    mapping(uint32 => address[]) internal whitelistedTokenAddresses;\r\n\r\n    mapping(address => mapping(address => mapping(uint32 => uint256)))\r\n        public tokenBalances;\r\n\r\n    mapping(string => uint256) public campaignBalances;\r\n    mapping(string => mapping(address => mapping(uint32 => uint256)))\r\n        public tokenCampaignBalances;\r\n\r\n    mapping(string => mapping(uint256 => uint256)) campaignEndTime;\r\n    mapping(address => uint32) public nftCampaigner;\r\n    mapping(string => mapping(uint256 => bool)) isCampaignClosed;\r\n    mapping(string => uint32) public campaignRandomNumber;\r\n\r\n    event OwnerSet(address owner);\r\n    event CampaignerDeleted(address campaigner);\r\n    event CampaignerAdded(address campaigner);\r\n    event FundsDeposited(address campaigner, uint256 amount);\r\n    event FundsWithdrawn(address campaigner, uint256 amount);\r\n    event campaignClosed(string campaignAddress, uint32 campaignType);\r\n    event campaignExpired(string campaignAddress, uint32 campaignType);\r\n    event InteractorPaid(\r\n        address interactor,\r\n        address campaigner,\r\n        uint256 amount\r\n    );\r\n    event InteractorPaidDeferred(string campaignAddress, uint256 amount);\r\n    event NewCampaignIsAdded(\r\n        string campaignAdddress,\r\n        uint256 amount,\r\n        uint32 campaignType\r\n    );\r\n    event ResponseCode(int responseCode);\r\n    event CreatedToken(address tokenAddress);\r\n    event FungibleTokenDeposited(address campaigner, uint256 amount);\r\n    event BalanceUpdated(address campaigner, uint256 updatedBalance);\r\n    event FungibleTokenBalanceUpdated(\r\n        address campaigner,\r\n        address tokenId,\r\n        uint256 updatedBalance\r\n    );\r\n    event RewardsDistributed(\r\n        string campaignAddress,\r\n        uint256 totalAmount,\r\n        uint256 remainingBalance\r\n    );\r\n    event CampaignToppedUp(\r\n        string campaignAddress,\r\n        uint256 amount,\r\n        uint32 tokenType\r\n    );\r\n\r\n    // Error codes\r\n    string constant ERR_INVALID_TOKEN_ADDRESS = \"E001\";\r\n    string constant ERR_INVALID_CAMPAIGN_ADDRESS = \"E002\";\r\n    string constant ERR_CAMPAIGNER_NOT_ALLOWED = \"E003\";\r\n    string constant ERR_CAMPAIGN_NOT_CLOSED = \"E004\";\r\n    string constant ERR_TOKEN_NOT_WHITELISTED = \"E005\";\r\n    string constant ERR_CAMPAIGN_ALREADY_EXISTS = \"E006\";\r\n    string constant CURRENT_BALANCE_IS_NON_ZERO = \"E007\";\r\n    string constant ERR_INSUFFICIENT_BALANCE = \"E008\";\r\n    string constant ERR_NON_ZERO_BAL = \"E009\";\r\n    string constant ERR_INVALID_EXPIRY_TIME = \"E010\";\r\n    string constant ERR_TOTAL_AMOUNT_MUST_BE_GREATER_THAN_ZERO = \"E011\";\r\n    string constant ERR_MISMATCHED_INPUT_ARRAYS = \"E012\";\r\n    string constant ERR_TOTAL_REWARD_EXCEEDS_CAMPAIGN_BALANCE = \"E013\";\r\n    string constant ERR_TCAMPAIGN_ALREADY_CLOSED = \"E014\";\r\n    string constant ERR_TOKEN_IS_NOT_FUNGIBLE = \"E015\";\r\n    string constant ERR_INVALID_TOKEN_TYPE = \"E016\";\r\n    string constant ERR_CAMPAIGN_EXPIRY_TIME_NOT_PASSED = \"E017\";\r\n\r\n    modifier onlyOwner() {\r\n        require(\r\n            msg.sender == owner,\r\n            \"Unauthorize Access requested, Caller is not the owner\"\r\n        );\r\n        _;\r\n    }\r\n\r\n    modifier onlyOwnerOrCampaigner() {\r\n        require(\r\n            msg.sender == owner || isCampaigner(msg.sender),\r\n            \"Unauthorize Access requested, Caller must be owner or campaigner.\"\r\n        );\r\n        _;\r\n    }\r\n\r\n    /**\r\n     * @dev check capaigner is permiited\r\n     * @param _address  address of the campaigner\r\n     */\r\n    function isCampaigner(address _address) internal view returns (bool) {\r\n        return campaigners[_address];\r\n    }\r\n}\r\n",
  "sourcePath": "D:\\rajatk\\hashbuzz-staging\\smv201\\contracts\\HashbuzzModules\\HashbuzzStates.sol",
  "compiler": {
    "name": "solc",
    "version": "0.8.17+commit.8df45f5f.Emscripten.clang"
  },
  "schemaVersion": "3.4.16",
  "updatedAt": "2024-11-15T16:56:42.433Z",
  "devdoc": {
    "details": "This contract is used to store the state of the Hashbuzz contract",
    "kind": "dev",
    "methods": {},
    "title": "HashbuzzStates",
    "version": 1
  },
  "userdoc": {
    "kind": "user",
    "methods": {},
    "version": 1
  }
}