{
  "contractName": "HashbuzzStates",
  "abi": [
    {
      "anonymous": false,
      "inputs": [
        {
          "indexed": false,
          "internalType": "address",
          "name": "campaigner",
          "type": "address"
        },
        {
          "indexed": false,
          "internalType": "uint256",
          "name": "updatedBalance",
          "type": "uint256"
        }
      ],
      "name": "BalanceUpdated",
      "type": "event"
    },
    {
      "anonymous": false,
      "inputs": [
        {
          "indexed": false,
          "internalType": "string",
          "name": "campaignAddress",
          "type": "string"
        },
        {
          "indexed": false,
          "internalType": "uint256",
          "name": "amount",
          "type": "uint256"
        },
        {
          "indexed": false,
          "internalType": "uint32",
          "name": "tokenType",
          "type": "uint32"
        }
      ],
      "name": "CampaignToppedUp",
      "type": "event"
    },
    {
      "anonymous": false,
      "inputs": [
        {
          "indexed": false,
          "internalType": "address",
          "name": "campaigner",
          "type": "address"
        }
      ],
      "name": "CampaignerAdded",
      "type": "event"
    },
    {
      "anonymous": false,
      "inputs": [
        {
          "indexed": false,
          "internalType": "address",
          "name": "campaigner",
          "type": "address"
        }
      ],
      "name": "CampaignerDeleted",
      "type": "event"
    },
    {
      "anonymous": false,
      "inputs": [
        {
          "indexed": false,
          "internalType": "address",
          "name": "tokenAddress",
          "type": "address"
        }
      ],
      "name": "CreatedToken",
      "type": "event"
    },
    {
      "anonymous": false,
      "inputs": [
        {
          "indexed": false,
          "internalType": "address",
          "name": "campaigner",
          "type": "address"
        },
        {
          "indexed": false,
          "internalType": "uint256",
          "name": "amount",
          "type": "uint256"
        }
      ],
      "name": "FundsDeposited",
      "type": "event"
    },
    {
      "anonymous": false,
      "inputs": [
        {
          "indexed": false,
          "internalType": "address",
          "name": "campaigner",
          "type": "address"
        },
        {
          "indexed": false,
          "internalType": "uint256",
          "name": "amount",
          "type": "uint256"
        }
      ],
      "name": "FundsWithdrawn",
      "type": "event"
    },
    {
      "anonymous": false,
      "inputs": [
        {
          "indexed": false,
          "internalType": "address",
          "name": "campaigner",
          "type": "address"
        },
        {
          "indexed": false,
          "internalType": "address",
          "name": "tokenId",
          "type": "address"
        },
        {
          "indexed": false,
          "internalType": "uint256",
          "name": "updatedBalance",
          "type": "uint256"
        }
      ],
      "name": "FungibleTokenBalanceUpdated",
      "type": "event"
    },
    {
      "anonymous": false,
      "inputs": [
        {
          "indexed": false,
          "internalType": "address",
          "name": "campaigner",
          "type": "address"
        },
        {
          "indexed": false,
          "internalType": "uint256",
          "name": "amount",
          "type": "uint256"
        }
      ],
      "name": "FungibleTokenDeposited",
      "type": "event"
    },
    {
      "anonymous": false,
      "inputs": [
        {
          "indexed": false,
          "internalType": "address",
          "name": "interactor",
          "type": "address"
        },
        {
          "indexed": false,
          "internalType": "address",
          "name": "campaigner",
          "type": "address"
        },
        {
          "indexed": false,
          "internalType": "uint256",
          "name": "amount",
          "type": "uint256"
        }
      ],
      "name": "InteractorPaid",
      "type": "event"
    },
    {
      "anonymous": false,
      "inputs": [
        {
          "indexed": false,
          "internalType": "string",
          "name": "campaignAddress",
          "type": "string"
        },
        {
          "indexed": false,
          "internalType": "uint256",
          "name": "amount",
          "type": "uint256"
        }
      ],
      "name": "InteractorPaidDeferred",
      "type": "event"
    },
    {
      "anonymous": false,
      "inputs": [
        {
          "indexed": false,
          "internalType": "string",
          "name": "campaignAdddress",
          "type": "string"
        },
        {
          "indexed": false,
          "internalType": "uint256",
          "name": "amount",
          "type": "uint256"
        },
        {
          "indexed": false,
          "internalType": "uint32",
          "name": "campaignType",
          "type": "uint32"
        }
      ],
      "name": "NewCampaignIsAdded",
      "type": "event"
    },
    {
      "anonymous": false,
      "inputs": [
        {
          "indexed": false,
          "internalType": "address",
          "name": "owner",
          "type": "address"
        }
      ],
      "name": "OwnerSet",
      "type": "event"
    },
    {
      "anonymous": false,
      "inputs": [
        {
          "indexed": false,
          "internalType": "int256",
          "name": "responseCode",
          "type": "int256"
        }
      ],
      "name": "ResponseCode",
      "type": "event"
    },
    {
      "anonymous": false,
      "inputs": [
        {
          "indexed": false,
          "internalType": "string",
          "name": "campaignAddress",
          "type": "string"
        },
        {
          "indexed": false,
          "internalType": "uint256",
          "name": "totalAmount",
          "type": "uint256"
        },
        {
          "indexed": false,
          "internalType": "uint256",
          "name": "remainingBalance",
          "type": "uint256"
        }
      ],
      "name": "RewardsDistributed",
      "type": "event"
    },
    {
      "anonymous": false,
      "inputs": [
        {
          "indexed": false,
          "internalType": "string",
          "name": "campaignAddress",
          "type": "string"
        },
        {
          "indexed": false,
          "internalType": "uint32",
          "name": "campaignType",
          "type": "uint32"
        }
      ],
      "name": "campaignClosed",
      "type": "event"
    },
    {
      "anonymous": false,
      "inputs": [
        {
          "indexed": false,
          "internalType": "string",
          "name": "campaignAddress",
          "type": "string"
        },
        {
          "indexed": false,
          "internalType": "uint32",
          "name": "campaignType",
          "type": "uint32"
        }
      ],
      "name": "campaignExpired",
      "type": "event"
    },
    {
      "inputs": [],
      "name": "FUNGIBLE",
      "outputs": [
        {
          "internalType": "uint32",
          "name": "",
          "type": "uint32"
        }
      ],
      "stateMutability": "view",
      "type": "function"
    },
    {
      "inputs": [],
      "name": "HBAR",
      "outputs": [
        {
          "internalType": "uint32",
          "name": "",
          "type": "uint32"
        }
      ],
      "stateMutability": "view",
      "type": "function"
    },
    {
      "inputs": [],
      "name": "NFT",
      "outputs": [
        {
          "internalType": "uint32",
          "name": "",
          "type": "uint32"
        }
      ],
      "stateMutability": "view",
      "type": "function"
    },
    {
      "inputs": [
        {
          "internalType": "address",
          "name": "",
          "type": "address"
        }
      ],
      "name": "balances",
      "outputs": [
        {
          "internalType": "uint256",
          "name": "",
          "type": "uint256"
        }
      ],
      "stateMutability": "view",
      "type": "function"
    },
    {
      "inputs": [
        {
          "internalType": "string",
          "name": "",
          "type": "string"
        }
      ],
      "name": "campaignBalances",
      "outputs": [
        {
          "internalType": "uint256",
          "name": "",
          "type": "uint256"
        }
      ],
      "stateMutability": "view",
      "type": "function"
    },
    {
      "inputs": [
        {
          "internalType": "string",
          "name": "",
          "type": "string"
        }
      ],
      "name": "campaignRandomNumber",
      "outputs": [
        {
          "internalType": "uint32",
          "name": "",
          "type": "uint32"
        }
      ],
      "stateMutability": "view",
      "type": "function"
    },
    {
      "inputs": [
        {
          "internalType": "address",
          "name": "",
          "type": "address"
        }
      ],
      "name": "campaigners",
      "outputs": [
        {
          "internalType": "bool",
          "name": "",
          "type": "bool"
        }
      ],
      "stateMutability": "view",
      "type": "function"
    },
    {
      "inputs": [
        {
          "internalType": "address",
          "name": "",
          "type": "address"
        }
      ],
      "name": "nftCampaigner",
      "outputs": [
        {
          "internalType": "uint32",
          "name": "",
          "type": "uint32"
        }
      ],
      "stateMutability": "view",
      "type": "function"
    },
    {
      "inputs": [],
      "name": "owner",
      "outputs": [
        {
          "internalType": "address",
          "name": "",
          "type": "address"
        }
      ],
      "stateMutability": "view",
      "type": "function"
    },
    {
      "inputs": [
        {
          "internalType": "address",
          "name": "",
          "type": "address"
        },
        {
          "internalType": "address",
          "name": "",
          "type": "address"
        },
        {
          "internalType": "uint32",
          "name": "",
          "type": "uint32"
        }
      ],
      "name": "tokenBalances",
      "outputs": [
        {
          "internalType": "uint256",
          "name": "",
          "type": "uint256"
        }
      ],
      "stateMutability": "view",
      "type": "function"
    },
    {
      "inputs": [
        {
          "internalType": "string",
          "name": "",
          "type": "string"
        },
        {
          "internalType": "address",
          "name": "",
          "type": "address"
        },
        {
          "internalType": "uint32",
          "name": "",
          "type": "uint32"
        }
      ],
      "name": "tokenCampaignBalances",
      "outputs": [
        {
          "internalType": "uint256",
          "name": "",
          "type": "uint256"
        }
      ],
      "stateMutability": "view",
      "type": "function"
    },
    {
      "inputs": [
        {
          "internalType": "uint32",
          "name": "",
          "type": "uint32"
        },
        {
          "internalType": "address",
          "name": "",
          "type": "address"
        }
      ],
      "name": "whitelistedToken",
      "outputs": [
        {
          "internalType": "bool",
          "name": "",
          "type": "bool"
        }
      ],
      "stateMutability": "view",
      "type": "function"
    }
  ],
  "bytecode": "0x608060405234801561001057600080fd5b506104be806100206000396000f3fe608060405234801561001057600080fd5b50600436106100b45760003560e01c8063774256c711610071578063774256c7146101c65780637c0b8de2146101ce5780638da5cb5b146101d65780639a5f0da614610201578063bc3ef1e914610242578063cfe3f9a81461026857600080fd5b806311029345146100b957806327e235e3146100f1578063362e34b91461011f5780634377e3ff1461014d5780634f18230d1461016a578063694be7e014610195575b600080fd5b6100dc6100c73660046102b5565b60016020526000908152604090205460ff1681565b60405190151581526020015b60405180910390f35b6101116100ff3660046102b5565b60026020526000908152604090205481565b6040519081526020016100e8565b6100dc61012d3660046102eb565b600360209081526000928352604080842090915290825290205460ff1681565b610155600181565b60405163ffffffff90911681526020016100e8565b6101116101783660046103c1565b805160208183018101805160068252928201919093012091525481565b6101116101a33660046103fe565b600560209081526000938452604080852082529284528284209052825290205481565b610155600081565b610155600281565b6000546101e9906001600160a01b031681565b6040516001600160a01b0390911681526020016100e8565b61011161020f366004610441565b82516020818501810180516007825292820195820195909520919094528352600091825260408083209093528152205481565b6101556102503660046102b5565b60096020526000908152604090205463ffffffff1681565b6101556102763660046103c1565b8051602081830181018051600b8252928201919093012091525463ffffffff1681565b80356001600160a01b03811681146102b057600080fd5b919050565b6000602082840312156102c757600080fd5b6102d082610299565b9392505050565b803563ffffffff811681146102b057600080fd5b600080604083850312156102fe57600080fd5b610307836102d7565b915061031560208401610299565b90509250929050565b634e487b7160e01b600052604160045260246000fd5b600082601f83011261034557600080fd5b813567ffffffffffffffff808211156103605761036061031e565b604051601f8301601f19908116603f011681019082821181831017156103885761038861031e565b816040528381528660208588010111156103a157600080fd5b836020870160208301376000602085830101528094505050505092915050565b6000602082840312156103d357600080fd5b813567ffffffffffffffff8111156103ea57600080fd5b6103f684828501610334565b949350505050565b60008060006060848603121561041357600080fd5b61041c84610299565b925061042a60208501610299565b9150610438604085016102d7565b90509250925092565b60008060006060848603121561045657600080fd5b833567ffffffffffffffff81111561046d57600080fd5b61047986828701610334565b93505061042a6020850161029956fea26469706673582212204bd36a78e1e589eae1f919275062bcd81f6e3dc0b370b848f15dbbbb80c497f364736f6c63430008110033",
  "immutableReferences": {},
  "source": "// SPDX-License-Identifier: Apache-2.0\npragma solidity ^0.8.17;\n\n/**\n * @title HashbuzzStates\n * @dev This contract is used to store the state of the Hashbuzz contract\n */\ncontract HashbuzzStates {\n    address public owner;\n\n    uint32 public constant HBAR = 0;\n    uint32 public constant FUNGIBLE = 1;\n    uint32 public constant NFT = 2;\n\n    mapping(address => bool) public campaigners;\n    mapping(address => uint256) public balances;\n\n    mapping(uint32 => mapping(address => bool)) public whitelistedToken;\n    mapping(uint32 => address[]) internal whitelistedTokenAddresses;\n\n    mapping(address => mapping(address => mapping(uint32 => uint256)))\n        public tokenBalances;\n\n    mapping(string => uint256) public campaignBalances;\n    mapping(string => mapping(address => mapping(uint32 => uint256)))\n        public tokenCampaignBalances;\n\n    mapping(string => mapping(uint256 => uint256)) campaignEndTime;\n    mapping(address => uint32) public nftCampaigner;\n    mapping(string => mapping(uint256 => bool)) isCampaignClosed;\n    mapping(string => uint32) public campaignRandomNumber;\n\n    event OwnerSet(address owner);\n    event CampaignerDeleted(address campaigner);\n    event CampaignerAdded(address campaigner);\n    event FundsDeposited(address campaigner, uint256 amount);\n    event FundsWithdrawn(address campaigner, uint256 amount);\n    event campaignClosed(string campaignAddress, uint32 campaignType);\n    event campaignExpired(string campaignAddress, uint32 campaignType);\n    event InteractorPaid(\n        address interactor,\n        address campaigner,\n        uint256 amount\n    );\n    event InteractorPaidDeferred(string campaignAddress, uint256 amount);\n    event NewCampaignIsAdded(\n        string campaignAdddress,\n        uint256 amount,\n        uint32 campaignType\n    );\n    event ResponseCode(int responseCode);\n    event CreatedToken(address tokenAddress);\n    event FungibleTokenDeposited(address campaigner, uint256 amount);\n    event BalanceUpdated(address campaigner, uint256 updatedBalance);\n    event FungibleTokenBalanceUpdated(\n        address campaigner,\n        address tokenId,\n        uint256 updatedBalance\n    );\n    event RewardsDistributed(\n        string campaignAddress,\n        uint256 totalAmount,\n        uint256 remainingBalance\n    );\n    event CampaignToppedUp(\n        string campaignAddress,\n        uint256 amount,\n        uint32 tokenType\n    );\n\n    // Error codes\n    string constant ERR_INVALID_TOKEN_ADDRESS = \"E001\";\n    string constant ERR_INVALID_CAMPAIGN_ADDRESS = \"E002\";\n    string constant ERR_CAMPAIGNER_NOT_ALLOWED = \"E003\";\n    string constant ERR_CAMPAIGN_NOT_CLOSED = \"E004\";\n    string constant ERR_TOKEN_NOT_WHITELISTED = \"E005\";\n    string constant ERR_CAMPAIGN_ALREADY_EXISTS = \"E006\";\n    string constant CURRENT_BALANCE_IS_NON_ZERO = \"E007\";\n    string constant ERR_INSUFFICIENT_BALANCE = \"E008\";\n    string constant ERR_NON_ZERO_BAL = \"E009\";\n    string constant ERR_INVALID_EXPIRY_TIME = \"E010\";\n    string constant ERR_TOTAL_AMOUNT_MUST_BE_GREATER_THAN_ZERO = \"E011\";\n    string constant ERR_MISMATCHED_INPUT_ARRAYS = \"E012\";\n    string constant ERR_TOTAL_REWARD_EXCEEDS_CAMPAIGN_BALANCE = \"E013\";\n    string constant ERR_TCAMPAIGN_ALREADY_CLOSED = \"E014\";\n    string constant ERR_TOKEN_IS_NOT_FUNGIBLE = \"E015\";\n    string constant ERR_INVALID_TOKEN_TYPE = \"E016\";\n    string constant ERR_CAMPAIGN_EXPIRY_TIME_NOT_PASSED = \"E017\";\n\n    modifier onlyOwner() {\n        require(\n            msg.sender == owner,\n            \"Unauthorize Access requested, Caller is not the owner\"\n        );\n        _;\n    }\n\n    modifier onlyOwnerOrCampaigner() {\n        require(\n            msg.sender == owner || isCampaigner(msg.sender),\n            \"Unauthorize Access requested, Caller must be owner or campaigner.\"\n        );\n        _;\n    }\n\n    /**\n     * @dev check capaigner is permiited\n     * @param _address  address of the campaigner\n     */\n    function isCampaigner(address _address) internal view returns (bool) {\n        return campaigners[_address];\n    }\n}\n",
  "sourcePath": "/Users/ahmed/Desktop/hashbuzz_code/smv201/contracts/HashbuzzModules/HashbuzzStates.sol",
  "compiler": {
    "name": "solc",
    "version": "0.8.17+commit.8df45f5f.Emscripten.clang"
  },
  "schemaVersion": "3.4.16",
  "updatedAt": "2024-12-05T13:53:54.878Z",
  "devdoc": {
    "details": "This contract is used to store the state of the Hashbuzz contract",
    "kind": "dev",
    "methods": {},
    "title": "HashbuzzStates",
    "version": 1
  },
  "userdoc": {
    "kind": "user",
    "methods": {},
    "version": 1
  }
}