{
  "contractName": "HashbuzzV201",
  "abi": [
    {
      "inputs": [],
      "stateMutability": "nonpayable",
      "type": "constructor"
    },
    {
      "anonymous": false,
      "inputs": [
        {
          "indexed": false,
          "internalType": "address",
          "name": "campaigner",
          "type": "address"
        },
        {
          "indexed": false,
          "internalType": "uint256",
          "name": "updatedBalance",
          "type": "uint256"
        }
      ],
      "name": "BalanceUpdated",
      "type": "event"
    },
    {
      "anonymous": false,
      "inputs": [
        {
          "indexed": false,
          "internalType": "string",
          "name": "campaignAddress",
          "type": "string"
        },
        {
          "indexed": false,
          "internalType": "uint256",
          "name": "amount",
          "type": "uint256"
        },
        {
          "indexed": false,
          "internalType": "uint32",
          "name": "tokenType",
          "type": "uint32"
        }
      ],
      "name": "CampaignToppedUp",
      "type": "event"
    },
    {
      "anonymous": false,
      "inputs": [
        {
          "indexed": false,
          "internalType": "address",
          "name": "campaigner",
          "type": "address"
        }
      ],
      "name": "CampaignerAdded",
      "type": "event"
    },
    {
      "anonymous": false,
      "inputs": [
        {
          "indexed": false,
          "internalType": "address",
          "name": "campaigner",
          "type": "address"
        }
      ],
      "name": "CampaignerDeleted",
      "type": "event"
    },
    {
      "anonymous": false,
      "inputs": [
        {
          "indexed": false,
          "internalType": "address",
          "name": "tokenAddress",
          "type": "address"
        }
      ],
      "name": "CreatedToken",
      "type": "event"
    },
    {
      "anonymous": false,
      "inputs": [
        {
          "indexed": false,
          "internalType": "address",
          "name": "campaigner",
          "type": "address"
        },
        {
          "indexed": false,
          "internalType": "uint256",
          "name": "amount",
          "type": "uint256"
        }
      ],
      "name": "FundsDeposited",
      "type": "event"
    },
    {
      "anonymous": false,
      "inputs": [
        {
          "indexed": false,
          "internalType": "address",
          "name": "campaigner",
          "type": "address"
        },
        {
          "indexed": false,
          "internalType": "uint256",
          "name": "amount",
          "type": "uint256"
        }
      ],
      "name": "FundsWithdrawn",
      "type": "event"
    },
    {
      "anonymous": false,
      "inputs": [
        {
          "indexed": false,
          "internalType": "address",
          "name": "campaigner",
          "type": "address"
        },
        {
          "indexed": false,
          "internalType": "address",
          "name": "tokenId",
          "type": "address"
        },
        {
          "indexed": false,
          "internalType": "uint256",
          "name": "updatedBalance",
          "type": "uint256"
        }
      ],
      "name": "FungibleTokenBalanceUpdated",
      "type": "event"
    },
    {
      "anonymous": false,
      "inputs": [
        {
          "indexed": false,
          "internalType": "address",
          "name": "campaigner",
          "type": "address"
        },
        {
          "indexed": false,
          "internalType": "uint256",
          "name": "amount",
          "type": "uint256"
        }
      ],
      "name": "FungibleTokenDeposited",
      "type": "event"
    },
    {
      "anonymous": false,
      "inputs": [
        {
          "indexed": false,
          "internalType": "address",
          "name": "interactor",
          "type": "address"
        },
        {
          "indexed": false,
          "internalType": "address",
          "name": "campaigner",
          "type": "address"
        },
        {
          "indexed": false,
          "internalType": "uint256",
          "name": "amount",
          "type": "uint256"
        }
      ],
      "name": "InteractorPaid",
      "type": "event"
    },
    {
      "anonymous": false,
      "inputs": [
        {
          "indexed": false,
          "internalType": "string",
          "name": "campaignAddress",
          "type": "string"
        },
        {
          "indexed": false,
          "internalType": "uint256",
          "name": "amount",
          "type": "uint256"
        }
      ],
      "name": "InteractorPaidDeferred",
      "type": "event"
    },
    {
      "anonymous": false,
      "inputs": [
        {
          "indexed": false,
          "internalType": "string",
          "name": "campaignAdddress",
          "type": "string"
        },
        {
          "indexed": false,
          "internalType": "uint256",
          "name": "amount",
          "type": "uint256"
        },
        {
          "indexed": false,
          "internalType": "uint32",
          "name": "campaignType",
          "type": "uint32"
        }
      ],
      "name": "NewCampaignIsAdded",
      "type": "event"
    },
    {
      "anonymous": false,
      "inputs": [
        {
          "indexed": false,
          "internalType": "address",
          "name": "owner",
          "type": "address"
        }
      ],
      "name": "OwnerSet",
      "type": "event"
    },
    {
      "anonymous": false,
      "inputs": [
        {
          "indexed": false,
          "internalType": "int256",
          "name": "responseCode",
          "type": "int256"
        }
      ],
      "name": "ResponseCode",
      "type": "event"
    },
    {
      "anonymous": false,
      "inputs": [
        {
          "indexed": false,
          "internalType": "string",
          "name": "campaignAddress",
          "type": "string"
        },
        {
          "indexed": false,
          "internalType": "uint256",
          "name": "totalAmount",
          "type": "uint256"
        },
        {
          "indexed": false,
          "internalType": "uint256",
          "name": "remainingBalance",
          "type": "uint256"
        }
      ],
      "name": "RewardsDistributed",
      "type": "event"
    },
    {
      "anonymous": false,
      "inputs": [
        {
          "indexed": false,
          "internalType": "string",
          "name": "campaignAddress",
          "type": "string"
        },
        {
          "indexed": false,
          "internalType": "uint32",
          "name": "campaignType",
          "type": "uint32"
        }
      ],
      "name": "campaignClosed",
      "type": "event"
    },
    {
      "anonymous": false,
      "inputs": [
        {
          "indexed": false,
          "internalType": "string",
          "name": "campaignAddress",
          "type": "string"
        },
        {
          "indexed": false,
          "internalType": "uint32",
          "name": "campaignType",
          "type": "uint32"
        }
      ],
      "name": "campaignExpired",
      "type": "event"
    },
    {
      "inputs": [],
      "name": "FUNGIBLE",
      "outputs": [
        {
          "internalType": "uint32",
          "name": "",
          "type": "uint32"
        }
      ],
      "stateMutability": "view",
      "type": "function"
    },
    {
      "inputs": [],
      "name": "HBAR",
      "outputs": [
        {
          "internalType": "uint32",
          "name": "",
          "type": "uint32"
        }
      ],
      "stateMutability": "view",
      "type": "function"
    },
    {
      "inputs": [],
      "name": "NFT",
      "outputs": [
        {
          "internalType": "uint32",
          "name": "",
          "type": "uint32"
        }
      ],
      "stateMutability": "view",
      "type": "function"
    },
    {
      "inputs": [
        {
          "internalType": "string",
          "name": "campaignAddress",
          "type": "string"
        },
        {
          "internalType": "address",
          "name": "campaigner",
          "type": "address"
        },
        {
          "internalType": "uint256",
          "name": "amount",
          "type": "uint256"
        }
      ],
      "name": "addCampaignOrTopUp",
      "outputs": [
        {
          "internalType": "uint256",
          "name": "",
          "type": "uint256"
        }
      ],
      "stateMutability": "nonpayable",
      "type": "function"
    },
    {
      "inputs": [
        {
          "internalType": "address",
          "name": "newCampaigner",
          "type": "address"
        }
      ],
      "name": "addCampaigner",
      "outputs": [],
      "stateMutability": "nonpayable",
      "type": "function"
    },
    {
      "inputs": [
        {
          "internalType": "address",
          "name": "campaigner",
          "type": "address"
        },
        {
          "internalType": "address",
          "name": "tokenId",
          "type": "address"
        },
        {
          "internalType": "uint256",
          "name": "tokenAmount",
          "type": "uint256"
        }
      ],
      "name": "addFungibleAmount",
      "outputs": [
        {
          "internalType": "uint256",
          "name": "",
          "type": "uint256"
        }
      ],
      "stateMutability": "nonpayable",
      "type": "function"
    },
    {
      "inputs": [
        {
          "internalType": "address",
          "name": "tokenId",
          "type": "address"
        },
        {
          "internalType": "string",
          "name": "campaignAddress",
          "type": "string"
        },
        {
          "internalType": "address",
          "name": "campaigner",
          "type": "address"
        },
        {
          "internalType": "uint256",
          "name": "tokenAmount",
          "type": "uint256"
        }
      ],
      "name": "addFungibleCampaign",
      "outputs": [
        {
          "internalType": "uint256",
          "name": "",
          "type": "uint256"
        }
      ],
      "stateMutability": "nonpayable",
      "type": "function"
    },
    {
      "inputs": [
        {
          "internalType": "address",
          "name": "tokenId",
          "type": "address"
        },
        {
          "internalType": "address",
          "name": "campaigner",
          "type": "address"
        },
        {
          "internalType": "string",
          "name": "campaignAddress",
          "type": "string"
        },
        {
          "internalType": "uint256",
          "name": "tokenTotalAmount",
          "type": "uint256"
        }
      ],
      "name": "adjustTotalFungibleReward",
      "outputs": [
        {
          "internalType": "uint256",
          "name": "",
          "type": "uint256"
        }
      ],
      "stateMutability": "nonpayable",
      "type": "function"
    },
    {
      "inputs": [
        {
          "internalType": "address",
          "name": "campaigner",
          "type": "address"
        },
        {
          "internalType": "string",
          "name": "campaignAddress",
          "type": "string"
        },
        {
          "internalType": "uint256",
          "name": "totalAmount",
          "type": "uint256"
        }
      ],
      "name": "adjustTotalReward",
      "outputs": [
        {
          "internalType": "uint256",
          "name": "",
          "type": "uint256"
        }
      ],
      "stateMutability": "nonpayable",
      "type": "function"
    },
    {
      "inputs": [
        {
          "internalType": "address",
          "name": "tokenAddress",
          "type": "address"
        },
        {
          "internalType": "bool",
          "name": "isWhitelisted",
          "type": "bool"
        }
      ],
      "name": "associateToken",
      "outputs": [],
      "stateMutability": "nonpayable",
      "type": "function"
    },
    {
      "inputs": [
        {
          "internalType": "address",
          "name": "",
          "type": "address"
        }
      ],
      "name": "balances",
      "outputs": [
        {
          "internalType": "uint256",
          "name": "",
          "type": "uint256"
        }
      ],
      "stateMutability": "view",
      "type": "function"
    },
    {
      "inputs": [
        {
          "internalType": "string",
          "name": "",
          "type": "string"
        }
      ],
      "name": "campaignBalances",
      "outputs": [
        {
          "internalType": "uint256",
          "name": "",
          "type": "uint256"
        }
      ],
      "stateMutability": "view",
      "type": "function"
    },
    {
      "inputs": [
        {
          "internalType": "string",
          "name": "",
          "type": "string"
        }
      ],
      "name": "campaignRandomNumber",
      "outputs": [
        {
          "internalType": "uint32",
          "name": "",
          "type": "uint32"
        }
      ],
      "stateMutability": "view",
      "type": "function"
    },
    {
      "inputs": [
        {
          "internalType": "address",
          "name": "",
          "type": "address"
        }
      ],
      "name": "campaigners",
      "outputs": [
        {
          "internalType": "bool",
          "name": "",
          "type": "bool"
        }
      ],
      "stateMutability": "view",
      "type": "function"
    },
    {
      "inputs": [
        {
          "internalType": "string",
          "name": "campaignAddress",
          "type": "string"
        },
        {
          "internalType": "uint256",
          "name": "campaignExpiryTime",
          "type": "uint256"
        }
      ],
      "name": "closeCampaign",
      "outputs": [],
      "stateMutability": "nonpayable",
      "type": "function"
    },
    {
      "inputs": [
        {
          "internalType": "string",
          "name": "campaignAddress",
          "type": "string"
        },
        {
          "internalType": "uint256",
          "name": "campaignExpiryTime",
          "type": "uint256"
        }
      ],
      "name": "closeFungibleCampaign",
      "outputs": [],
      "stateMutability": "nonpayable",
      "type": "function"
    },
    {
      "inputs": [
        {
          "internalType": "string",
          "name": "campaignAddress",
          "type": "string"
        },
        {
          "internalType": "address",
          "name": "campaigner",
          "type": "address"
        }
      ],
      "name": "expiryCampaign",
      "outputs": [
        {
          "internalType": "uint256",
          "name": "",
          "type": "uint256"
        }
      ],
      "stateMutability": "nonpayable",
      "type": "function"
    },
    {
      "inputs": [
        {
          "internalType": "address",
          "name": "tokenId",
          "type": "address"
        },
        {
          "internalType": "string",
          "name": "campaignAddress",
          "type": "string"
        },
        {
          "internalType": "address",
          "name": "campaigner",
          "type": "address"
        }
      ],
      "name": "expiryFungibleCampaign",
      "outputs": [
        {
          "internalType": "uint256",
          "name": "",
          "type": "uint256"
        }
      ],
      "stateMutability": "nonpayable",
      "type": "function"
    },
    {
      "inputs": [],
      "name": "getAllWhitelistedTokens",
      "outputs": [
        {
          "internalType": "address[]",
          "name": "",
          "type": "address[]"
        }
      ],
      "stateMutability": "view",
      "type": "function"
    },
    {
      "inputs": [
        {
          "internalType": "string",
          "name": "campaignAddress",
          "type": "string"
        }
      ],
      "name": "getCampaignBalance",
      "outputs": [
        {
          "internalType": "uint256",
          "name": "",
          "type": "uint256"
        }
      ],
      "stateMutability": "view",
      "type": "function"
    },
    {
      "inputs": [
        {
          "internalType": "address",
          "name": "campaigner",
          "type": "address"
        },
        {
          "internalType": "address",
          "name": "tokenId",
          "type": "address"
        }
      ],
      "name": "getFungibleTokenBalance",
      "outputs": [
        {
          "internalType": "uint256",
          "name": "res",
          "type": "uint256"
        }
      ],
      "stateMutability": "view",
      "type": "function"
    },
    {
      "inputs": [
        {
          "internalType": "address",
          "name": "campaigner",
          "type": "address"
        }
      ],
      "name": "getHbarBalance",
      "outputs": [
        {
          "internalType": "uint256",
          "name": "res",
          "type": "uint256"
        }
      ],
      "stateMutability": "view",
      "type": "function"
    },
    {
      "inputs": [
        {
          "internalType": "address",
          "name": "tokenAddress",
          "type": "address"
        }
      ],
      "name": "isTokenWhitelisted",
      "outputs": [
        {
          "internalType": "bool",
          "name": "",
          "type": "bool"
        }
      ],
      "stateMutability": "view",
      "type": "function"
    },
    {
      "inputs": [
        {
          "internalType": "address",
          "name": "",
          "type": "address"
        }
      ],
      "name": "nftCampaigner",
      "outputs": [
        {
          "internalType": "uint32",
          "name": "",
          "type": "uint32"
        }
      ],
      "stateMutability": "view",
      "type": "function"
    },
    {
      "inputs": [],
      "name": "owner",
      "outputs": [
        {
          "internalType": "address",
          "name": "",
          "type": "address"
        }
      ],
      "stateMutability": "view",
      "type": "function"
    },
    {
      "inputs": [
        {
          "internalType": "address",
          "name": "tokenId",
          "type": "address"
        },
        {
          "internalType": "address",
          "name": "campaigner",
          "type": "address"
        },
        {
          "internalType": "uint256",
          "name": "amount",
          "type": "uint256"
        }
      ],
      "name": "reimburseCampaigner",
      "outputs": [
        {
          "internalType": "uint256",
          "name": "",
          "type": "uint256"
        }
      ],
      "stateMutability": "nonpayable",
      "type": "function"
    },
    {
      "inputs": [
        {
          "internalType": "address",
          "name": "",
          "type": "address"
        },
        {
          "internalType": "address",
          "name": "",
          "type": "address"
        },
        {
          "internalType": "uint32",
          "name": "",
          "type": "uint32"
        }
      ],
      "name": "tokenBalances",
      "outputs": [
        {
          "internalType": "uint256",
          "name": "",
          "type": "uint256"
        }
      ],
      "stateMutability": "view",
      "type": "function"
    },
    {
      "inputs": [
        {
          "internalType": "string",
          "name": "",
          "type": "string"
        },
        {
          "internalType": "address",
          "name": "",
          "type": "address"
        },
        {
          "internalType": "uint32",
          "name": "",
          "type": "uint32"
        }
      ],
      "name": "tokenCampaignBalances",
      "outputs": [
        {
          "internalType": "uint256",
          "name": "",
          "type": "uint256"
        }
      ],
      "stateMutability": "view",
      "type": "function"
    },
    {
      "inputs": [
        {
          "internalType": "address",
          "name": "campaigner",
          "type": "address"
        },
        {
          "internalType": "uint256",
          "name": "amount",
          "type": "uint256"
        },
        {
          "internalType": "bool",
          "name": "deposit",
          "type": "bool"
        }
      ],
      "name": "updateBalance",
      "outputs": [
        {
          "internalType": "uint256",
          "name": "",
          "type": "uint256"
        }
      ],
      "stateMutability": "nonpayable",
      "type": "function"
    },
    {
      "inputs": [
        {
          "internalType": "uint32",
          "name": "",
          "type": "uint32"
        },
        {
          "internalType": "address",
          "name": "",
          "type": "address"
        }
      ],
      "name": "whitelistedToken",
      "outputs": [
        {
          "internalType": "bool",
          "name": "",
          "type": "bool"
        }
      ],
      "stateMutability": "view",
      "type": "function"
    }
  ],
  "bytecode": "0x608060405234801561001057600080fd5b50600080546001600160a01b031916339081179091556040519081527f50146d0e3c60aa1d17a70635b05494f864e86144a2201275021014fbf08bafe29060200160405180910390a1612e81806100686000396000f3fe608060405234801561001057600080fd5b50600436106101da5760003560e01c80637b7fc67711610104578063a7c7b182116100a2578063bc3ef1e911610071578063bc3ef1e9146104b2578063bc462700146104d8578063bff31996146104eb578063cfe3f9a8146104fe57600080fd5b8063a7c7b18214610466578063b466613014610479578063b5af090f1461048c578063b99425241461049f57600080fd5b80639991033c116100de5780639991033c146103ea5780639a5f0da6146103ff5780639de3d8ba14610440578063a5161d321461045357600080fd5b80637b7fc677146103a45780637c0b8de2146103b75780638da5cb5b146103bf57600080fd5b8063362e34b91161017c5780634a3b11521161014b5780634a3b11521461032d5780634f18230d14610340578063694be7e01461036b578063774256c71461039c57600080fd5b8063362e34b9146102bc57806341228803146102ea5780634377e3ff146102fd57806344131d2f1461031a57600080fd5b806316d343e0116101b857806316d343e01461024b5780631b0f32a31461027457806327e235e314610289578063325c9019146102a957600080fd5b806309d19bb3146101df5780631102934514610205578063160f9c8814610238575b600080fd5b6101f26101ed366004612714565b61052f565b6040519081526020015b60405180910390f35b610228610213366004612750565b60016020526000908152604090205460ff1681565b60405190151581526020016101fc565b6101f2610246366004612772565b6107ae565b6101f2610259366004612750565b6001600160a01b031660009081526002602052604090205490565b6102876102823660046127b5565b6108b1565b005b6101f2610297366004612750565b60026020526000908152604090205481565b6101f26102b7366004612882565b610bc5565b6102286102ca3660046128fc565b600360209081526000928352604080842090915290825290205460ff1681565b6101f26102f8366004612918565b610e39565b610305600181565b60405163ffffffff90911681526020016101fc565b6101f2610328366004612954565b610f96565b6101f261033b3660046129ba565b611351565b6101f261034e3660046129ba565b805160208183018101805160068252928201919093012091525481565b6101f26103793660046129ef565b600560209081526000938452604080852082529284528284209052825290205481565b610305600081565b6101f26103b2366004612a29565b6113b9565b610305600281565b6000546103d2906001600160a01b031681565b6040516001600160a01b0390911681526020016101fc565b6103f2611602565b6040516101fc9190612a80565b6101f261040d366004612acd565b82516020818501810180516007825292820195820195909520919094528352600091825260408083209093528152205481565b6101f261044e366004612b14565b61167a565b6101f2610461366004612714565b61198b565b6101f2610474366004612b69565b611c21565b610287610487366004612bae565b611e73565b61022861049a366004612750565b61202b565b6101f26104ad366004612bf3565b612056565b6103056104c0366004612750565b60096020526000908152604090205463ffffffff1681565b6102876104e6366004612bae565b6122c6565b6102876104f9366004612750565b612486565b61030561050c3660046129ba565b8051602081830181018051600b8252928201919093012091525463ffffffff1681565b600080546001600160a01b031633146105635760405162461bcd60e51b815260040161055a90612c3a565b60405180910390fd5b6040805180820190915260048152632298181960e11b60208201526001600160a01b0385166105a55760405162461bcd60e51b815260040161055a9190612cdf565b506040805180820190915260048152634530303160e01b60208201526001600160a01b0384166105e85760405162461bcd60e51b815260040161055a9190612cdf565b506040805180820190915260048152634530313160e01b6020820152826106225760405162461bcd60e51b815260040161055a9190612cdf565b5061062c8461259d565b604051806040016040528060048152602001634530303360e01b815250906106675760405162461bcd60e51b815260040161055a9190612cdf565b506106718361202b565b604051806040016040528060048152602001634530303560e01b815250906106ac5760405162461bcd60e51b815260040161055a9190612cdf565b506001600160a01b038085166000908152600560209081526040808320938716835292815282822060018352905290812080548492906106ed908490612d08565b9091555050604080516001600160a01b0386168152602081018490527f7e173cdce262f17abb63c667517295e12d707392b4a9a6ee4aa7857178ec6464910160405180910390a16001600160a01b038481166000818152600560209081526040808320948816808452948252808320600184528252918290205482519384529083019390935281018290527f8fe0e0da907ac8f437ef47e4203196ea7ddf12675b81ad2e6553bb69314e1e23906060015b60405180910390a1949350505050565b6040805180820190915260048152634530303160e01b60208201526000906001600160a01b0383166107f35760405162461bcd60e51b815260040161055a9190612cdf565b506040805180820190915260048152632298181960e11b60208201526001600160a01b0384166108365760405162461bcd60e51b815260040161055a9190612cdf565b506108408261202b565b604051806040016040528060048152602001634530303560e01b8152509061087b5760405162461bcd60e51b815260040161055a9190612cdf565b50506001600160a01b03918216600090815260056020908152604080832093909416825291825282812060018252909152205490565b6000546001600160a01b031633146108db5760405162461bcd60e51b815260040161055a90612c3a565b6040805180820190915260048152634530303160e01b60208201526001600160a01b03831661091d5760405162461bcd60e51b815260040161055a9190612cdf565b5080801561095157506001600160a01b0382166000908152600080516020612e2c833981519152602052604090205460ff16155b156109de57506001600160a01b03166000818152600080516020612e2c833981519152602090815260408220805460ff191660019081179091556004909152600080516020612e0c833981519152805491820181559091527f210afe6ebef982fa193bb4e17f9f236cdf09af7788627b5d54d9e3e4b100021b0180546001600160a01b0319169091179055565b80158015610a1157506001600160a01b0382166000908152600080516020612e2c833981519152602052604090205460ff165b15610bc1576001600160a01b0382166000908152600080516020612e2c833981519152602090815260408220805460ff191690556001825260049052600080516020612e0c83398151915254905b81811015610bbe5760016000526004602052600080516020612e0c83398151915280546001600160a01b038616919083908110610a9e57610a9e612d1b565b6000918252602090912001546001600160a01b031603610bac57600160008190526004602052600080516020612e0c83398151915290610ade9084612d31565b81548110610aee57610aee612d1b565b6000918252602080832090910154600190925260049052600080516020612e0c83398151915280546001600160a01b039092169183908110610b3257610b32612d1b565b600091825260208083209190910180546001600160a01b0319166001600160a01b0394909416939093179092556001905260049052600080516020612e0c833981519152805480610b8557610b85612d44565b600082815260209020810160001990810180546001600160a01b0319169055019055610bbe565b80610bb681612d5a565b915050610a5f565b50505b5050565b600080546001600160a01b03163314610bf05760405162461bcd60e51b815260040161055a90612c3a565b610bf98561202b565b604051806040016040528060048152602001634530303560e01b81525090610c345760405162461bcd60e51b815260040161055a9190612cdf565b50610c3e8461259d565b604051806040016040528060048152602001634530303360e01b81525090610c795760405162461bcd60e51b815260040161055a9190612cdf565b506000835111604051806040016040528060048152602001632298181960e11b81525090610cba5760405162461bcd60e51b815260040161055a9190612cdf565b506040805180820190915260048152634530313160e01b602082015282610cf45760405162461bcd60e51b815260040161055a9190612cdf565b50600a83604051610d059190612d73565b90815260408051918290036020908101832060016000908152908252829020548383019092526004835263114c0c0d60e21b9083015260ff16610d5b5760405162461bcd60e51b815260040161055a9190612cdf565b5081600784604051610d6d9190612d73565b90815260408051602092819003830190206001600160a01b03891660009081529083528181206001825290925281208054909190610dac908490612d31565b925050819055506000600784604051610dc59190612d73565b9081526040805191829003602090810183206001600160a01b038a16600090815290825282812060018252909152205491507f037378c439105dd07d1db6d59a47347ea8f734a0835509a3820255c8be11cea090610e2890869086908590612d8f565b60405180910390a195945050505050565b600080546001600160a01b03163314610e645760405162461bcd60e51b815260040161055a90612c3a565b6040805180820190915260048152632298181960e11b60208201526001600160a01b038516610ea65760405162461bcd60e51b815260040161055a9190612cdf565b506040805180820190915260048152634530313160e01b602082015283610ee05760405162461bcd60e51b815260040161055a9190612cdf565b50610eea8461259d565b604051806040016040528060048152602001634530303360e01b81525090610f255760405162461bcd60e51b815260040161055a9190612cdf565b508115610f3b57610f3684846125bb565b610f45565b610f458484612627565b6001600160a01b038416600081815260026020908152604091829020548251938452908301819052917f8ad64a0ac7700dd8425ab0499f107cb6e2cd1581d803c5b8c1c79dcb8190b1af910161079e565b600080546001600160a01b03163314610fc15760405162461bcd60e51b815260040161055a90612c3a565b6040805180820190915260048152634530303160e01b60208201526001600160a01b0386166110035760405162461bcd60e51b815260040161055a9190612cdf565b5061100d8561202b565b604051806040016040528060048152602001634530303560e01b815250906110485760405162461bcd60e51b815260040161055a9190612cdf565b506000845111604051806040016040528060048152602001632298181960e11b815250906110895760405162461bcd60e51b815260040161055a9190612cdf565b506110938361259d565b604051806040016040528060048152602001634530303360e01b815250906110ce5760405162461bcd60e51b815260040161055a9190612cdf565b506040805180820190915260048152634530313160e01b6020820152826111085760405162461bcd60e51b815260040161055a9190612cdf565b506001600160a01b038084166000908152600560209081526040808320938916835292815282822060018352815290829020548251808401909352600483526308a6060760e31b918301919091528311156111765760405162461bcd60e51b815260040161055a9190612cdf565b506001600160a01b038084166000908152600560209081526040808320938916835292815282822060018352905290812080548492906111b7908490612d31565b92505081905550816007856040516111cf9190612d73565b90815260408051602092819003830190206001600160a01b0389166000908152908352818120600182529092528120805490919061120e908490612d08565b90915550506001600160a01b03808416600090815260056020908152604080832093891683529281528282206001835290528190205490518390600790611256908890612d73565b90815260408051602092819003830190206001600160a01b038a16600090815290835281812060018252909252902054036112cc577f0674090a69c67762650abcd64d1bc896d06756b85c925a9f28e97a30487db3ae858460016040516112bf93929190612db4565b60405180910390a1611309565b7f64ef3840fadd155a2d8cb45b5f007ed1273c96ca6026ee12008d0809aa77eef78584600160405161130093929190612db4565b60405180910390a15b604080516001600160a01b038087168252881660208201529081018290527f8fe0e0da907ac8f437ef47e4203196ea7ddf12675b81ad2e6553bb69314e1e2390606001610e28565b600080825111604051806040016040528060048152602001632298181960e11b815250906113925760405162461bcd60e51b815260040161055a9190612cdf565b506006826040516113a39190612d73565b9081526020016040518091039020549050919050565b600080546001600160a01b031633146113e45760405162461bcd60e51b815260040161055a90612c3a565b6113ed8461259d565b604051806040016040528060048152602001634530303360e01b815250906114285760405162461bcd60e51b815260040161055a9190612cdf565b506000835111604051806040016040528060048152602001632298181960e11b815250906114695760405162461bcd60e51b815260040161055a9190612cdf565b506040805180820190915260048152634530313160e01b6020820152826114a35760405162461bcd60e51b815260040161055a9190612cdf565b50600a836040516114b49190612d73565b9081526040805191829003602090810183206000808052908252829020548383019092526004835263114c0c0d60e21b9083015260ff166115085760405162461bcd60e51b815260040161055a9190612cdf565b508160068460405161151a9190612d73565b90815260200160405180910390205410156115775760405162461bcd60e51b815260206004820152601d60248201527f496e73756666696369656e742063616d706169676e2062616c616e6365000000604482015260640161055a565b816006846040516115889190612d73565b908152602001604051809103902060008282546115a59190612d31565b9250508190555060006006846040516115be9190612d73565b90815260200160405180910390205490507f037378c439105dd07d1db6d59a47347ea8f734a0835509a3820255c8be11cea084848360405161079e93929190612d8f565b600160005260046020908152600080516020612e0c833981519152805460408051828502810185019091528181526060939092919083018282801561167057602002820191906000526020600020905b81546001600160a01b03168152600190910190602001808311611652575b5050505050905090565b600080546001600160a01b031633146116a55760405162461bcd60e51b815260040161055a90612c3a565b6040805180820190915260048152634530303160e01b60208201526001600160a01b0385166116e75760405162461bcd60e51b815260040161055a9190612cdf565b506116f18461202b565b604051806040016040528060048152602001634530303560e01b8152509061172c5760405162461bcd60e51b815260040161055a9190612cdf565b506000835111604051806040016040528060048152602001632298181960e11b8152509061176d5760405162461bcd60e51b815260040161055a9190612cdf565b506117778261259d565b604051806040016040528060048152602001634530303360e01b815250906117b25760405162461bcd60e51b815260040161055a9190612cdf565b50600a836040516117c39190612d73565b90815260408051918290036020908101832060016000908152908252829020548383019092526004835263114c0c0d60e21b9083015260ff166118195760405162461bcd60e51b815260040161055a9190612cdf565b5060088360405161182a9190612d73565b908152604080519182900360209081018320600160009081529082528290205483830190925260048352634530313760e01b90830152421161187f5760405162461bcd60e51b815260040161055a9190612cdf565b506007836040516118909190612d73565b90815260408051602092819003830190206001600160a01b03878116600081815292855283832060018085529086528484205492881684526005865284842091845290855283832090835290935290812080549091906118f1908490612d08565b92505081905550600060078460405161190a9190612d73565b9081526040805191829003602090810183206001600160a01b03808a16600081815292845284832060018085529085528584209790975590881682526005835283822090825282528281208582529091522054917f2a4a396795b36662ffe9a398a57fd654cf6ea95e79cf6d96d6f0267685687c399161079e918791612de3565b600080546001600160a01b031633146119b65760405162461bcd60e51b815260040161055a90612c3a565b6040805180820190915260048152632298181960e11b60208201526001600160a01b0384166119f85760405162461bcd60e51b815260040161055a9190612cdf565b506040805180820190915260048152634530303160e01b60208201526001600160a01b038516611a3b5760405162461bcd60e51b815260040161055a9190612cdf565b506040805180820190915260048152634530313160e01b602082015282611a755760405162461bcd60e51b815260040161055a9190612cdf565b50611a7f8361259d565b604051806040016040528060048152602001634530303360e01b81525090611aba5760405162461bcd60e51b815260040161055a9190612cdf565b50611ac48461202b565b604051806040016040528060048152602001634530303560e01b81525090611aff5760405162461bcd60e51b815260040161055a9190612cdf565b506001600160a01b038084166000908152600560209081526040808320938816835292815282822060018352815290829020548251808401909352600483526308a6060760e31b91830191909152831115611b6d5760405162461bcd60e51b815260040161055a9190612cdf565b506001600160a01b03808416600090815260056020908152604080832093881683529281528282206001835290529081208054849290611bae908490612d31565b90915550506001600160a01b038381166000818152600560209081526040808320948916808452948252808320600184528252918290205482519384529083019390935281018290527f8fe0e0da907ac8f437ef47e4203196ea7ddf12675b81ad2e6553bb69314e1e239060600161079e565b600080546001600160a01b03163314611c4c5760405162461bcd60e51b815260040161055a90612c3a565b6000835111604051806040016040528060048152602001632298181960e11b81525090611c8c5760405162461bcd60e51b815260040161055a9190612cdf565b50611c968261259d565b604051806040016040528060048152602001634530303360e01b81525090611cd15760405162461bcd60e51b815260040161055a9190612cdf565b50600a83604051611ce29190612d73565b9081526040805191829003602090810183206000808052908252829020548383019092526004835263114c0c0d60e21b9083015260ff16611d365760405162461bcd60e51b815260040161055a9190612cdf565b50600883604051611d479190612d73565b90815260408051918290036020908101832060008080529082528290205483830190925260048352634530313760e01b908301524211611d9a5760405162461bcd60e51b815260040161055a9190612cdf565b50600683604051611dab9190612d73565b90815260200160405180910390205460026000846001600160a01b03166001600160a01b031681526020019081526020016000206000828254611dee9190612d08565b925050819055506000600684604051611e079190612d73565b908152604080519182900360209081018320939093556001600160a01b03851660009081526002909352822054917f2a4a396795b36662ffe9a398a57fd654cf6ea95e79cf6d96d6f0267685687c3991611e62918791612de3565b60405180910390a190505b92915050565b6000546001600160a01b03163314611e9d5760405162461bcd60e51b815260040161055a90612c3a565b6000825111604051806040016040528060048152602001632298181960e11b81525090611edd5760405162461bcd60e51b815260040161055a9190612cdf565b506040805180820190915260048152630453031360e41b602082015281611f175760405162461bcd60e51b815260040161055a9190612cdf565b50600a82604051611f289190612d73565b9081526040805191829003602090810183206000808052908252829020548383019092526004835263114c0c4d60e21b9083015260ff1615611f7d5760405162461bcd60e51b815260040161055a9190612cdf565b506001600a83604051611f909190612d73565b9081526040805160209281900383019020600080805292529020805460ff1916911515919091179055611fc38142612d08565b600883604051611fd39190612d73565b908152604080516020928190038301812060008080529352908220929092557ffda0e6502dae3d85195083e39efa0c8bdccc7d5741b53cf5c57de0c33dc9aaa49161201f918591612de3565b60405180910390a15050565b6001600160a01b03166000908152600080516020612e2c833981519152602052604090205460ff1690565b600080546001600160a01b031633146120815760405162461bcd60e51b815260040161055a90612c3a565b6040805180820190915260048152634530313160e01b6020820152826120ba5760405162461bcd60e51b815260040161055a9190612cdf565b506000845111604051806040016040528060048152602001632298181960e11b815250906120fb5760405162461bcd60e51b815260040161055a9190612cdf565b506121058361259d565b604051806040016040528060048152602001634530303360e01b815250906121405760405162461bcd60e51b815260040161055a9190612cdf565b508160026000856001600160a01b03166001600160a01b031681526020019081526020016000205410156040518060400160405280600481526020016308a6060760e31b815250906121a55760405162461bcd60e51b815260040161055a9190612cdf565b506001600160a01b038316600090815260026020526040812080548492906121ce908490612d31565b92505081905550816006856040516121e69190612d73565b908152602001604051809103902060008282546122039190612d08565b90915550506001600160a01b038316600090815260026020526040908190205490518390600690612235908890612d73565b9081526020016040518091039020540361228a577f0674090a69c67762650abcd64d1bc896d06756b85c925a9f28e97a30487db3ae8584600060405161227d93929190612db4565b60405180910390a16122be565b7f64ef3840fadd155a2d8cb45b5f007ed1273c96ca6026ee12008d0809aa77eef78584600060405161079e93929190612db4565b949350505050565b6000546001600160a01b031633146122f05760405162461bcd60e51b815260040161055a90612c3a565b6000825111604051806040016040528060048152602001632298181960e11b815250906123305760405162461bcd60e51b815260040161055a9190612cdf565b506040805180820190915260048152630453031360e41b60208201528161236a5760405162461bcd60e51b815260040161055a9190612cdf565b50600a8260405161237b9190612d73565b90815260408051918290036020908101832060016000908152908252829020548383019092526004835263114c0c4d60e21b9083015260ff16156123d25760405162461bcd60e51b815260040161055a9190612cdf565b506001600a836040516123e59190612d73565b90815260408051602092819003830190206001600090815292529020805460ff191691151591909117905561241a8142612d08565b60088360405161242a9190612d73565b90815260200160405180910390206000600163ffffffff168152602001908152602001600020819055507ffda0e6502dae3d85195083e39efa0c8bdccc7d5741b53cf5c57de0c33dc9aaa482600160405161201f929190612de3565b6000546001600160a01b031633146124b05760405162461bcd60e51b815260040161055a90612c3a565b6040805180820190915260048152632298181960e11b60208201526001600160a01b0382166124f25760405162461bcd60e51b815260040161055a9190612cdf565b506124fc8161259d565b15604051806040016040528060048152602001632298181b60e11b815250906125385760405162461bcd60e51b815260040161055a9190612cdf565b506001600160a01b0381166000818152600160208181526040808420805460ff19169093179092556002815281832092909255519182527f3d04fb94919fdfa7708320cdebdf093992d88d792b3d5f4144c364cda00129c6910160405180910390a150565b6001600160a01b031660009081526001602052604090205460ff1690565b6001600160a01b038216600090815260026020526040812080548392906125e3908490612d08565b9091555050604080516001600160a01b0384168152602081018390527f543ba50a5eec5e6178218e364b1d0f396157b3c8fa278522c2cb7fd99407d474910161201f565b8060026000846001600160a01b03166001600160a01b031681526020019081526020016000205410156040518060400160405280600481526020016308a6060760e31b8152509061268b5760405162461bcd60e51b815260040161055a9190612cdf565b506001600160a01b038216600090815260026020526040812080548392906126b4908490612d31565b9091555050604080516001600160a01b0384168152602081018390527feaff4b37086828766ad3268786972c0cd24259d4c87a80f9d3963a3c3d999b0d910161201f565b80356001600160a01b038116811461270f57600080fd5b919050565b60008060006060848603121561272957600080fd5b612732846126f8565b9250612740602085016126f8565b9150604084013590509250925092565b60006020828403121561276257600080fd5b61276b826126f8565b9392505050565b6000806040838503121561278557600080fd5b61278e836126f8565b915061279c602084016126f8565b90509250929050565b8035801515811461270f57600080fd5b600080604083850312156127c857600080fd5b6127d1836126f8565b915061279c602084016127a5565b634e487b7160e01b600052604160045260246000fd5b600082601f83011261280657600080fd5b813567ffffffffffffffff80821115612821576128216127df565b604051601f8301601f19908116603f01168101908282118183101715612849576128496127df565b8160405283815286602085880101111561286257600080fd5b836020870160208301376000602085830101528094505050505092915050565b6000806000806080858703121561289857600080fd5b6128a1856126f8565b93506128af602086016126f8565b9250604085013567ffffffffffffffff8111156128cb57600080fd5b6128d7878288016127f5565b949793965093946060013593505050565b803563ffffffff8116811461270f57600080fd5b6000806040838503121561290f57600080fd5b61278e836128e8565b60008060006060848603121561292d57600080fd5b612936846126f8565b92506020840135915061294b604085016127a5565b90509250925092565b6000806000806080858703121561296a57600080fd5b612973856126f8565b9350602085013567ffffffffffffffff81111561298f57600080fd5b61299b878288016127f5565b9350506129aa604086016126f8565b9396929550929360600135925050565b6000602082840312156129cc57600080fd5b813567ffffffffffffffff8111156129e357600080fd5b6122be848285016127f5565b600080600060608486031215612a0457600080fd5b612a0d846126f8565b9250612a1b602085016126f8565b915061294b604085016128e8565b600080600060608486031215612a3e57600080fd5b612a47846126f8565b9250602084013567ffffffffffffffff811115612a6357600080fd5b612a6f868287016127f5565b925050604084013590509250925092565b6020808252825182820181905260009190848201906040850190845b81811015612ac15783516001600160a01b031683529284019291840191600101612a9c565b50909695505050505050565b600080600060608486031215612ae257600080fd5b833567ffffffffffffffff811115612af957600080fd5b612b05868287016127f5565b935050612a1b602085016126f8565b600080600060608486031215612b2957600080fd5b612b32846126f8565b9250602084013567ffffffffffffffff811115612b4e57600080fd5b612b5a868287016127f5565b92505061294b604085016126f8565b60008060408385031215612b7c57600080fd5b823567ffffffffffffffff811115612b9357600080fd5b612b9f858286016127f5565b92505061279c602084016126f8565b60008060408385031215612bc157600080fd5b823567ffffffffffffffff811115612bd857600080fd5b612be4858286016127f5565b95602094909401359450505050565b600080600060608486031215612c0857600080fd5b833567ffffffffffffffff811115612c1f57600080fd5b612c2b868287016127f5565b935050612740602085016126f8565b60208082526035908201527f556e617574686f72697a6520416363657373207265717565737465642c204361604082015274363632b91034b9903737ba103a34329037bbb732b960591b606082015260800190565b60005b83811015612caa578181015183820152602001612c92565b50506000910152565b60008151808452612ccb816020860160208601612c8f565b601f01601f19169290920160200192915050565b60208152600061276b6020830184612cb3565b634e487b7160e01b600052601160045260246000fd5b80820180821115611e6d57611e6d612cf2565b634e487b7160e01b600052603260045260246000fd5b81810381811115611e6d57611e6d612cf2565b634e487b7160e01b600052603160045260246000fd5b600060018201612d6c57612d6c612cf2565b5060010190565b60008251612d85818460208701612c8f565b9190910192915050565b606081526000612da26060830186612cb3565b60208301949094525060400152919050565b606081526000612dc76060830186612cb3565b905083602083015263ffffffff83166040830152949350505050565b604081526000612df66040830185612cb3565b905063ffffffff83166020830152939250505056feabd6e7cb50984ff9c2f3e18a2660c3353dadf4e3291deeb275dae2cd1e44fe05a15bc60c955c405d20d9149c709e2460f1c2d9a497496a7f46004d1772c3054ca2646970667358221220c14acba574839050a88984b70e9b09546dbe4363dee806c8645c06bc3b219ea664736f6c63430008110033",
  "immutableReferences": {},
  "source": "// SPDX-License-Identifier: Apache-2.0\r\npragma solidity ^0.8.17;\r\n\r\nimport \"./HashbuzzModules/HashbuzzStates.sol\";\r\nimport \"./HashbuzzModules/Utils.sol\";\r\nimport \"./HashbuzzModules/CampaignLifecycle.sol\";\r\nimport \"./HashbuzzModules/Transactions.sol\";\r\n\r\ncontract HashbuzzV201 is HashbuzzStates, Utils, Lifecycle, Transactions {\r\n    constructor() {\r\n        owner = msg.sender;\r\n        emit OwnerSet(owner);\r\n    }\r\n}\r\n",
  "sourcePath": "D:\\rajatk\\hashbuzz-staging\\smv201\\contracts\\HashbuzzV201.sol",
  "compiler": {
    "name": "solc",
    "version": "0.8.17+commit.8df45f5f.Emscripten.clang"
  },
  "schemaVersion": "3.4.16",
  "updatedAt": "2024-11-15T16:56:42.529Z",
  "devdoc": {
    "kind": "dev",
    "methods": {
      "addCampaignOrTopUp(string,address,uint256)": {
        "details": "Add a new campaign or top up an existing campaign",
        "params": {
          "amount": "The amount to be allocated to the campaign from the campaigner's balance.",
          "campaignAddress": "The db address of the campaign",
          "campaigner": "The solidity address of the campaigner or wallet address"
        }
      },
      "addCampaigner(address)": {
        "details": "Whitelist cmapigner to the user.",
        "params": {
          "newCampaigner": "Address of the user having campaigner role to be used here"
        }
      },
      "addFungibleAmount(address,address,uint256)": {
        "details": "Fungible token added to the campaigner account.",
        "params": {
          "campaigner": "Address of the campaigner",
          "tokenAmount": "Amount added to the campaigner account",
          "tokenId": "Token ID address"
        }
      },
      "addFungibleCampaign(address,string,address,uint256)": {
        "details": "Add a new campaign for fungible tokens or top up an existing campaign",
        "params": {
          "campaignAddress": "The db address of the campaign",
          "campaigner": "The solidity address of the campaigner or wallet address",
          "tokenAmount": "The amount of tokens to be allocated to the campaign",
          "tokenId": "The address of the token in solidity format"
        }
      },
      "adjustTotalFungibleReward(address,address,string,uint256)": {
        "details": "Distribute fungible tokens to the campaigner",
        "params": {
          "campaignAddress": "The db address of the campaign",
          "campaigner": "The solidity address of the campaigner or wallet address",
          "tokenId": "The address of the token in solidity format",
          "tokenTotalAmount": "The total amount of tokens to be distributed"
        }
      },
      "adjustTotalReward(address,string,uint256)": {
        "details": "Distribute HBAR tokens to the campaigner",
        "params": {
          "campaignAddress": "The db address of the campaign",
          "campaigner": "The solidity address of the campaigner or wallet address",
          "totalAmount": "The total amount of tokens to be distributed"
        }
      },
      "associateToken(address,bool)": {
        "details": "Adds or removes a token from the whitelist.",
        "params": {
          "isWhitelisted": "Boolean flag to mark the token as whitelisted or not.",
          "tokenAddress": "The address of the token."
        }
      },
      "closeCampaign(string,uint256)": {
        "details": "Close a campaign with HBAR",
        "params": {
          "campaignAddress": "The db address of the campaign",
          "campaignExpiryTime": "The expiry time of the campaign in seconds"
        }
      },
      "closeFungibleCampaign(string,uint256)": {
        "details": "Close a campaign with fungible tokens",
        "params": {
          "campaignAddress": "The db address of the campaign",
          "campaignExpiryTime": "The expiry time of the campaign in seconds"
        }
      },
      "expiryCampaign(string,address)": {
        "details": "Expiry a campaign with HBAR",
        "params": {
          "campaignAddress": "The db address of the campaign",
          "campaigner": "The solidity address of the campaigner or wallet address"
        }
      },
      "expiryFungibleCampaign(address,string,address)": {
        "details": "Expiry a campaign with fungible tokens campaigns only",
        "params": {
          "campaignAddress": "The db address of the campaign",
          "campaigner": "The solidity address of the campaigner or wallet address",
          "tokenId": "The address of the token in solidity format"
        }
      },
      "getAllWhitelistedTokens()": {
        "details": "Retrieves all whitelisted addresses for a given token type.",
        "returns": {
          "_0": "An array of addresses that are whitelisted for the given token type."
        }
      },
      "getCampaignBalance(string)": {
        "details": "Balance held by the user to see.",
        "params": {
          "campaignAddress": "Solidity address of the campaigner."
        }
      },
      "getFungibleTokenBalance(address,address)": {
        "details": "Retrieves the balance of a fungible token for a specific campaigner.",
        "params": {
          "campaigner": "Address of the campaigner's solidity address.",
          "tokenId": "Solidity address used for the account."
        },
        "returns": {
          "res": "The balance of the fungible token."
        }
      },
      "getHbarBalance(address)": {
        "details": "Balance holded by the user to see.",
        "params": {
          "campaigner": "Solidity address of the campaigner."
        }
      },
      "isTokenWhitelisted(address)": {
        "details": "Checks if a specific token address is whitelisted for a given token type.",
        "params": {
          "tokenAddress": "The address of the token to check."
        },
        "returns": {
          "_0": "Boolean flag indicating if the token is whitelisted."
        }
      },
      "reimburseCampaigner(address,address,uint256)": {
        "details": "This function is used for reimbursing the campaigner balance",
        "params": {
          "amount": "Total amount campaigner wanted to reimburse",
          "campaigner": "Campaigner Address",
          "tokenId": "Token solidity address"
        }
      },
      "updateBalance(address,uint256,bool)": {
        "details": "Topup and reimbersement cases",
        "params": {
          "amount": "Amount being topuped",
          "campaigner": "campaigner solidity address",
          "deposit": "Boolean is here"
        }
      }
    },
    "version": 1
  },
  "userdoc": {
    "kind": "user",
    "methods": {},
    "version": 1
  }
}