{
  "contractName": "Transactions",
  "abi": [
    {
      "anonymous": false,
      "inputs": [
        {
          "indexed": false,
          "internalType": "address",
          "name": "campaigner",
          "type": "address"
        },
        {
          "indexed": false,
          "internalType": "uint256",
          "name": "updatedBalance",
          "type": "uint256"
        }
      ],
      "name": "BalanceUpdated",
      "type": "event"
    },
    {
      "anonymous": false,
      "inputs": [
        {
          "indexed": false,
          "internalType": "string",
          "name": "campaignAddress",
          "type": "string"
        },
        {
          "indexed": false,
          "internalType": "uint256",
          "name": "amount",
          "type": "uint256"
        },
        {
          "indexed": false,
          "internalType": "uint32",
          "name": "tokenType",
          "type": "uint32"
        }
      ],
      "name": "CampaignToppedUp",
      "type": "event"
    },
    {
      "anonymous": false,
      "inputs": [
        {
          "indexed": false,
          "internalType": "address",
          "name": "campaigner",
          "type": "address"
        }
      ],
      "name": "CampaignerAdded",
      "type": "event"
    },
    {
      "anonymous": false,
      "inputs": [
        {
          "indexed": false,
          "internalType": "address",
          "name": "campaigner",
          "type": "address"
        }
      ],
      "name": "CampaignerDeleted",
      "type": "event"
    },
    {
      "anonymous": false,
      "inputs": [
        {
          "indexed": false,
          "internalType": "address",
          "name": "tokenAddress",
          "type": "address"
        }
      ],
      "name": "CreatedToken",
      "type": "event"
    },
    {
      "anonymous": false,
      "inputs": [
        {
          "indexed": false,
          "internalType": "address",
          "name": "campaigner",
          "type": "address"
        },
        {
          "indexed": false,
          "internalType": "uint256",
          "name": "amount",
          "type": "uint256"
        }
      ],
      "name": "FundsDeposited",
      "type": "event"
    },
    {
      "anonymous": false,
      "inputs": [
        {
          "indexed": false,
          "internalType": "address",
          "name": "campaigner",
          "type": "address"
        },
        {
          "indexed": false,
          "internalType": "uint256",
          "name": "amount",
          "type": "uint256"
        }
      ],
      "name": "FundsWithdrawn",
      "type": "event"
    },
    {
      "anonymous": false,
      "inputs": [
        {
          "indexed": false,
          "internalType": "address",
          "name": "campaigner",
          "type": "address"
        },
        {
          "indexed": false,
          "internalType": "address",
          "name": "tokenId",
          "type": "address"
        },
        {
          "indexed": false,
          "internalType": "uint256",
          "name": "updatedBalance",
          "type": "uint256"
        }
      ],
      "name": "FungibleTokenBalanceUpdated",
      "type": "event"
    },
    {
      "anonymous": false,
      "inputs": [
        {
          "indexed": false,
          "internalType": "address",
          "name": "campaigner",
          "type": "address"
        },
        {
          "indexed": false,
          "internalType": "uint256",
          "name": "amount",
          "type": "uint256"
        }
      ],
      "name": "FungibleTokenDeposited",
      "type": "event"
    },
    {
      "anonymous": false,
      "inputs": [
        {
          "indexed": false,
          "internalType": "address",
          "name": "interactor",
          "type": "address"
        },
        {
          "indexed": false,
          "internalType": "address",
          "name": "campaigner",
          "type": "address"
        },
        {
          "indexed": false,
          "internalType": "uint256",
          "name": "amount",
          "type": "uint256"
        }
      ],
      "name": "InteractorPaid",
      "type": "event"
    },
    {
      "anonymous": false,
      "inputs": [
        {
          "indexed": false,
          "internalType": "string",
          "name": "campaignAddress",
          "type": "string"
        },
        {
          "indexed": false,
          "internalType": "uint256",
          "name": "amount",
          "type": "uint256"
        }
      ],
      "name": "InteractorPaidDeferred",
      "type": "event"
    },
    {
      "anonymous": false,
      "inputs": [
        {
          "indexed": false,
          "internalType": "string",
          "name": "campaignAdddress",
          "type": "string"
        },
        {
          "indexed": false,
          "internalType": "uint256",
          "name": "amount",
          "type": "uint256"
        },
        {
          "indexed": false,
          "internalType": "uint32",
          "name": "campaignType",
          "type": "uint32"
        }
      ],
      "name": "NewCampaignIsAdded",
      "type": "event"
    },
    {
      "anonymous": false,
      "inputs": [
        {
          "indexed": false,
          "internalType": "address",
          "name": "owner",
          "type": "address"
        }
      ],
      "name": "OwnerSet",
      "type": "event"
    },
    {
      "anonymous": false,
      "inputs": [
        {
          "indexed": false,
          "internalType": "int256",
          "name": "responseCode",
          "type": "int256"
        }
      ],
      "name": "ResponseCode",
      "type": "event"
    },
    {
      "anonymous": false,
      "inputs": [
        {
          "indexed": false,
          "internalType": "string",
          "name": "campaignAddress",
          "type": "string"
        },
        {
          "indexed": false,
          "internalType": "uint256",
          "name": "totalAmount",
          "type": "uint256"
        },
        {
          "indexed": false,
          "internalType": "uint256",
          "name": "remainingBalance",
          "type": "uint256"
        }
      ],
      "name": "RewardsDistributed",
      "type": "event"
    },
    {
      "anonymous": false,
      "inputs": [
        {
          "indexed": false,
          "internalType": "string",
          "name": "campaignAddress",
          "type": "string"
        },
        {
          "indexed": false,
          "internalType": "uint32",
          "name": "campaignType",
          "type": "uint32"
        }
      ],
      "name": "campaignClosed",
      "type": "event"
    },
    {
      "anonymous": false,
      "inputs": [
        {
          "indexed": false,
          "internalType": "string",
          "name": "campaignAddress",
          "type": "string"
        },
        {
          "indexed": false,
          "internalType": "uint32",
          "name": "campaignType",
          "type": "uint32"
        }
      ],
      "name": "campaignExpired",
      "type": "event"
    },
    {
      "inputs": [],
      "name": "FUNGIBLE",
      "outputs": [
        {
          "internalType": "uint32",
          "name": "",
          "type": "uint32"
        }
      ],
      "stateMutability": "view",
      "type": "function"
    },
    {
      "inputs": [],
      "name": "HBAR",
      "outputs": [
        {
          "internalType": "uint32",
          "name": "",
          "type": "uint32"
        }
      ],
      "stateMutability": "view",
      "type": "function"
    },
    {
      "inputs": [],
      "name": "NFT",
      "outputs": [
        {
          "internalType": "uint32",
          "name": "",
          "type": "uint32"
        }
      ],
      "stateMutability": "view",
      "type": "function"
    },
    {
      "inputs": [
        {
          "internalType": "address",
          "name": "newCampaigner",
          "type": "address"
        }
      ],
      "name": "addCampaigner",
      "outputs": [],
      "stateMutability": "nonpayable",
      "type": "function"
    },
    {
      "inputs": [
        {
          "internalType": "address",
          "name": "tokenAddress",
          "type": "address"
        },
        {
          "internalType": "bool",
          "name": "isWhitelisted",
          "type": "bool"
        }
      ],
      "name": "associateToken",
      "outputs": [],
      "stateMutability": "nonpayable",
      "type": "function"
    },
    {
      "inputs": [
        {
          "internalType": "address",
          "name": "",
          "type": "address"
        }
      ],
      "name": "balances",
      "outputs": [
        {
          "internalType": "uint256",
          "name": "",
          "type": "uint256"
        }
      ],
      "stateMutability": "view",
      "type": "function"
    },
    {
      "inputs": [
        {
          "internalType": "string",
          "name": "",
          "type": "string"
        }
      ],
      "name": "campaignBalances",
      "outputs": [
        {
          "internalType": "uint256",
          "name": "",
          "type": "uint256"
        }
      ],
      "stateMutability": "view",
      "type": "function"
    },
    {
      "inputs": [
        {
          "internalType": "string",
          "name": "",
          "type": "string"
        }
      ],
      "name": "campaignRandomNumber",
      "outputs": [
        {
          "internalType": "uint32",
          "name": "",
          "type": "uint32"
        }
      ],
      "stateMutability": "view",
      "type": "function"
    },
    {
      "inputs": [
        {
          "internalType": "address",
          "name": "",
          "type": "address"
        }
      ],
      "name": "campaigners",
      "outputs": [
        {
          "internalType": "bool",
          "name": "",
          "type": "bool"
        }
      ],
      "stateMutability": "view",
      "type": "function"
    },
    {
      "inputs": [],
      "name": "getAllWhitelistedTokens",
      "outputs": [
        {
          "internalType": "address[]",
          "name": "",
          "type": "address[]"
        }
      ],
      "stateMutability": "view",
      "type": "function"
    },
    {
      "inputs": [
        {
          "internalType": "string",
          "name": "campaignAddress",
          "type": "string"
        }
      ],
      "name": "getCampaignBalance",
      "outputs": [
        {
          "internalType": "uint256",
          "name": "",
          "type": "uint256"
        }
      ],
      "stateMutability": "view",
      "type": "function"
    },
    {
      "inputs": [
        {
          "internalType": "string",
          "name": "campaignAddress",
          "type": "string"
        },
        {
          "internalType": "address",
          "name": "tokenId",
          "type": "address"
        }
      ],
      "name": "getFungibleCampaignBalance",
      "outputs": [
        {
          "internalType": "uint256",
          "name": "res",
          "type": "uint256"
        }
      ],
      "stateMutability": "view",
      "type": "function"
    },
    {
      "inputs": [
        {
          "internalType": "address",
          "name": "campaigner",
          "type": "address"
        },
        {
          "internalType": "address",
          "name": "tokenId",
          "type": "address"
        }
      ],
      "name": "getFungibleTokenBalance",
      "outputs": [
        {
          "internalType": "uint256",
          "name": "res",
          "type": "uint256"
        }
      ],
      "stateMutability": "view",
      "type": "function"
    },
    {
      "inputs": [
        {
          "internalType": "address",
          "name": "campaigner",
          "type": "address"
        }
      ],
      "name": "getHbarBalance",
      "outputs": [
        {
          "internalType": "uint256",
          "name": "res",
          "type": "uint256"
        }
      ],
      "stateMutability": "view",
      "type": "function"
    },
    {
      "inputs": [
        {
          "internalType": "address",
          "name": "tokenAddress",
          "type": "address"
        }
      ],
      "name": "isTokenWhitelisted",
      "outputs": [
        {
          "internalType": "bool",
          "name": "",
          "type": "bool"
        }
      ],
      "stateMutability": "view",
      "type": "function"
    },
    {
      "inputs": [
        {
          "internalType": "address",
          "name": "",
          "type": "address"
        }
      ],
      "name": "nftCampaigner",
      "outputs": [
        {
          "internalType": "uint32",
          "name": "",
          "type": "uint32"
        }
      ],
      "stateMutability": "view",
      "type": "function"
    },
    {
      "inputs": [],
      "name": "owner",
      "outputs": [
        {
          "internalType": "address",
          "name": "",
          "type": "address"
        }
      ],
      "stateMutability": "view",
      "type": "function"
    },
    {
      "inputs": [
        {
          "internalType": "address",
          "name": "",
          "type": "address"
        },
        {
          "internalType": "address",
          "name": "",
          "type": "address"
        },
        {
          "internalType": "uint32",
          "name": "",
          "type": "uint32"
        }
      ],
      "name": "tokenBalances",
      "outputs": [
        {
          "internalType": "uint256",
          "name": "",
          "type": "uint256"
        }
      ],
      "stateMutability": "view",
      "type": "function"
    },
    {
      "inputs": [
        {
          "internalType": "string",
          "name": "",
          "type": "string"
        },
        {
          "internalType": "address",
          "name": "",
          "type": "address"
        },
        {
          "internalType": "uint32",
          "name": "",
          "type": "uint32"
        }
      ],
      "name": "tokenCampaignBalances",
      "outputs": [
        {
          "internalType": "uint256",
          "name": "",
          "type": "uint256"
        }
      ],
      "stateMutability": "view",
      "type": "function"
    },
    {
      "inputs": [
        {
          "internalType": "uint32",
          "name": "",
          "type": "uint32"
        },
        {
          "internalType": "address",
          "name": "",
          "type": "address"
        }
      ],
      "name": "whitelistedToken",
      "outputs": [
        {
          "internalType": "bool",
          "name": "",
          "type": "bool"
        }
      ],
      "stateMutability": "view",
      "type": "function"
    },
    {
      "inputs": [
        {
          "internalType": "address",
          "name": "campaigner",
          "type": "address"
        },
        {
          "internalType": "uint256",
          "name": "amount",
          "type": "uint256"
        },
        {
          "internalType": "bool",
          "name": "deposit",
          "type": "bool"
        }
      ],
      "name": "updateBalance",
      "outputs": [
        {
          "internalType": "uint256",
          "name": "",
          "type": "uint256"
        }
      ],
      "stateMutability": "nonpayable",
      "type": "function"
    },
    {
      "inputs": [
        {
          "internalType": "address",
          "name": "campaigner",
          "type": "address"
        },
        {
          "internalType": "address",
          "name": "tokenId",
          "type": "address"
        },
        {
          "internalType": "uint256",
          "name": "tokenAmount",
          "type": "uint256"
        }
      ],
      "name": "addFungibleAmount",
      "outputs": [
        {
          "internalType": "uint256",
          "name": "",
          "type": "uint256"
        }
      ],
      "stateMutability": "nonpayable",
      "type": "function"
    },
    {
      "inputs": [
        {
          "internalType": "address",
          "name": "tokenId",
          "type": "address"
        },
        {
          "internalType": "address",
          "name": "campaigner",
          "type": "address"
        },
        {
          "internalType": "uint256",
          "name": "amount",
          "type": "uint256"
        }
      ],
      "name": "reimburseBalanceForFungible",
      "outputs": [
        {
          "internalType": "uint256",
          "name": "",
          "type": "uint256"
        }
      ],
      "stateMutability": "nonpayable",
      "type": "function"
    }
  ],
  "bytecode": "0x608060405234801561001057600080fd5b50611877806100206000396000f3fe608060405234801561001057600080fd5b506004361061014d5760003560e01c80634f18230d116100c35780639a5f0da61161007c5780639a5f0da61461034c578063b5af090f1461038d578063bc3ef1e9146103a0578063be036fa2146103c6578063bff31996146103d9578063cfe3f9a8146103ec57600080fd5b80634f18230d146102a0578063694be7e0146102cb578063774256c7146102fc5780637c0b8de2146103045780638da5cb5b1461030c5780639991033c1461033757600080fd5b806327e235e31161011557806327e235e3146101fc578063362e34b91461021c578063412288031461024a5780634377e3ff1461025d57806343cf94591461027a5780634a3b11521461028d57600080fd5b806309d19bb3146101525780631102934514610178578063160f9c88146101ab57806316d343e0146101be5780631b0f32a3146101e7575b600080fd5b610165610160366004611388565b61041d565b6040519081526020015b60405180910390f35b61019b6101863660046113c4565b60016020526000908152604090205460ff1681565b604051901515815260200161016f565b6101656101b93660046113e6565b6106af565b6101656101cc3660046113c4565b6001600160a01b031660009081526002602052604090205490565b6101fa6101f5366004611429565b6107b2565b005b61016561020a3660046113c4565b60026020526000908152604090205481565b61019b61022a366004611467565b600360209081526000928352604080842090915290825290205460ff1681565b610165610258366004611483565b610ac6565b610265600181565b60405163ffffffff909116815260200161016f565b610165610288366004611562565b610c36565b61016561029b3660046115a7565b610d49565b6101656102ae3660046115a7565b805160208183018101805160068252928201919093012091525481565b6101656102d93660046115e4565b600560209081526000938452604080852082529284528284209052825290205481565b610265600081565b610265600281565b60005461031f906001600160a01b031681565b6040516001600160a01b03909116815260200161016f565b61033f610db1565b60405161016f919061161e565b61016561035a36600461166b565b82516020818501810180516007825292820195820195909520919094528352600091825260408083209093528152205481565b61019b61039b3660046113c4565b610e29565b6102656103ae3660046113c4565b60096020526000908152604090205463ffffffff1681565b6101656103d4366004611388565b610e54565b6101fa6103e73660046113c4565b6110fd565b6102656103fa3660046115a7565b8051602081830181018051600b8252928201919093012091525463ffffffff1681565b600080546001600160a01b031633146104515760405162461bcd60e51b8152600401610448906116b2565b60405180910390fd5b6040805180820190915260048152632298181960e11b60208201526001600160a01b0385166104935760405162461bcd60e51b8152600401610448919061172b565b506040805180820190915260048152634530303160e01b60208201526001600160a01b0384166104d65760405162461bcd60e51b8152600401610448919061172b565b506040805180820190915260048152634530313160e01b6020820152826105105760405162461bcd60e51b8152600401610448919061172b565b506001600160a01b03841660009081526001602052604090205460ff16604051806040016040528060048152602001634530303360e01b815250906105685760405162461bcd60e51b8152600401610448919061172b565b5061057283610e29565b604051806040016040528060048152602001634530303560e01b815250906105ad5760405162461bcd60e51b8152600401610448919061172b565b506001600160a01b038085166000908152600560209081526040808320938716835292815282822060018352905290812080548492906105ee908490611774565b9091555050604080516001600160a01b0386168152602081018490527f7e173cdce262f17abb63c667517295e12d707392b4a9a6ee4aa7857178ec6464910160405180910390a16001600160a01b038481166000818152600560209081526040808320948816808452948252808320600184528252918290205482519384529083019390935281018290527f8fe0e0da907ac8f437ef47e4203196ea7ddf12675b81ad2e6553bb69314e1e23906060015b60405180910390a1949350505050565b6040805180820190915260048152634530303160e01b60208201526000906001600160a01b0383166106f45760405162461bcd60e51b8152600401610448919061172b565b506040805180820190915260048152632298181960e11b60208201526001600160a01b0384166107375760405162461bcd60e51b8152600401610448919061172b565b5061074182610e29565b604051806040016040528060048152602001634530303560e01b8152509061077c5760405162461bcd60e51b8152600401610448919061172b565b50506001600160a01b03918216600090815260056020908152604080832093909416825291825282812060018252909152205490565b6000546001600160a01b031633146107dc5760405162461bcd60e51b8152600401610448906116b2565b6040805180820190915260048152634530303160e01b60208201526001600160a01b03831661081e5760405162461bcd60e51b8152600401610448919061172b565b5080801561085257506001600160a01b0382166000908152600080516020611822833981519152602052604090205460ff16155b156108df57506001600160a01b03166000818152600080516020611822833981519152602090815260408220805460ff191660019081179091556004909152600080516020611802833981519152805491820181559091527f210afe6ebef982fa193bb4e17f9f236cdf09af7788627b5d54d9e3e4b100021b0180546001600160a01b0319169091179055565b8015801561091257506001600160a01b0382166000908152600080516020611822833981519152602052604090205460ff165b15610ac2576001600160a01b0382166000908152600080516020611822833981519152602090815260408220805460ff19169055600182526004905260008051602061180283398151915254905b81811015610abf576001600052600460205260008051602061180283398151915280546001600160a01b03861691908390811061099f5761099f61178d565b6000918252602090912001546001600160a01b031603610aad57600160008190526004602052600080516020611802833981519152906109df90846117a3565b815481106109ef576109ef61178d565b600091825260208083209091015460019092526004905260008051602061180283398151915280546001600160a01b039092169183908110610a3357610a3361178d565b600091825260208083209190910180546001600160a01b0319166001600160a01b0394909416939093179092556001905260049052600080516020611802833981519152805480610a8657610a866117b6565b600082815260209020810160001990810180546001600160a01b0319169055019055610abf565b80610ab7816117cc565b915050610960565b50505b5050565b600080546001600160a01b03163314610af15760405162461bcd60e51b8152600401610448906116b2565b6040805180820190915260048152632298181960e11b60208201526001600160a01b038516610b335760405162461bcd60e51b8152600401610448919061172b565b506040805180820190915260048152634530313160e01b602082015283610b6d5760405162461bcd60e51b8152600401610448919061172b565b506001600160a01b03841660009081526001602052604090205460ff16604051806040016040528060048152602001634530303360e01b81525090610bc55760405162461bcd60e51b8152600401610448919061172b565b508115610bdb57610bd68484611227565b610be5565b610be5848461129b565b6001600160a01b038416600081815260026020908152604091829020548251938452908301819052917f8ad64a0ac7700dd8425ab0499f107cb6e2cd1581d803c5b8c1c79dcb8190b1af910161069f565b600080835111604051806040016040528060048152602001632298181960e11b81525090610c775760405162461bcd60e51b8152600401610448919061172b565b506040805180820190915260048152634530303160e01b60208201526001600160a01b038316610cba5760405162461bcd60e51b8152600401610448919061172b565b50610cc482610e29565b604051806040016040528060048152602001634530303560e01b81525090610cff5760405162461bcd60e51b8152600401610448919061172b565b50600783604051610d1091906117e5565b90815260408051602092819003830190206001600160a01b03949094166000908152938252808420600185529091529091205492915050565b600080825111604051806040016040528060048152602001632298181960e11b81525090610d8a5760405162461bcd60e51b8152600401610448919061172b565b50600682604051610d9b91906117e5565b9081526020016040518091039020549050919050565b6001600052600460209081526000805160206118028339815191528054604080518285028101850190915281815260609390929190830182828015610e1f57602002820191906000526020600020905b81546001600160a01b03168152600190910190602001808311610e01575b5050505050905090565b6001600160a01b03166000908152600080516020611822833981519152602052604090205460ff1690565b600080546001600160a01b03163314610e7f5760405162461bcd60e51b8152600401610448906116b2565b6040805180820190915260048152632298181960e11b60208201526001600160a01b038416610ec15760405162461bcd60e51b8152600401610448919061172b565b506040805180820190915260048152634530303160e01b60208201526001600160a01b038516610f045760405162461bcd60e51b8152600401610448919061172b565b506040805180820190915260048152634530313160e01b602082015282610f3e5760405162461bcd60e51b8152600401610448919061172b565b506001600160a01b03831660009081526001602052604090205460ff16604051806040016040528060048152602001634530303360e01b81525090610f965760405162461bcd60e51b8152600401610448919061172b565b50610fa084610e29565b604051806040016040528060048152602001634530303560e01b81525090610fdb5760405162461bcd60e51b8152600401610448919061172b565b506001600160a01b038084166000908152600560209081526040808320938816835292815282822060018352815290829020548251808401909352600483526308a6060760e31b918301919091528311156110495760405162461bcd60e51b8152600401610448919061172b565b506001600160a01b0380841660009081526005602090815260408083209388168352928152828220600183529052908120805484929061108a9084906117a3565b90915550506001600160a01b038381166000818152600560209081526040808320948916808452948252808320600184528252918290205482519384529083019390935281018290527f8fe0e0da907ac8f437ef47e4203196ea7ddf12675b81ad2e6553bb69314e1e239060600161069f565b6000546001600160a01b031633146111275760405162461bcd60e51b8152600401610448906116b2565b6040805180820190915260048152632298181960e11b60208201526001600160a01b0382166111695760405162461bcd60e51b8152600401610448919061172b565b506001600160a01b03811660009081526001602052604090205460ff1615604051806040016040528060048152602001632298181b60e11b815250906111c25760405162461bcd60e51b8152600401610448919061172b565b506001600160a01b0381166000818152600160208181526040808420805460ff19169093179092556002815281832092909255519182527f3d04fb94919fdfa7708320cdebdf093992d88d792b3d5f4144c364cda00129c6910160405180910390a150565b6001600160a01b0382166000908152600260205260408120805483929061124f908490611774565b9091555050604080516001600160a01b0384168152602081018390527f543ba50a5eec5e6178218e364b1d0f396157b3c8fa278522c2cb7fd99407d47491015b60405180910390a15050565b8060026000846001600160a01b03166001600160a01b031681526020019081526020016000205410156040518060400160405280600481526020016308a6060760e31b815250906112ff5760405162461bcd60e51b8152600401610448919061172b565b506001600160a01b038216600090815260026020526040812080548392906113289084906117a3565b9091555050604080516001600160a01b0384168152602081018390527feaff4b37086828766ad3268786972c0cd24259d4c87a80f9d3963a3c3d999b0d910161128f565b80356001600160a01b038116811461138357600080fd5b919050565b60008060006060848603121561139d57600080fd5b6113a68461136c565b92506113b46020850161136c565b9150604084013590509250925092565b6000602082840312156113d657600080fd5b6113df8261136c565b9392505050565b600080604083850312156113f957600080fd5b6114028361136c565b91506114106020840161136c565b90509250929050565b8035801515811461138357600080fd5b6000806040838503121561143c57600080fd5b6114458361136c565b915061141060208401611419565b803563ffffffff8116811461138357600080fd5b6000806040838503121561147a57600080fd5b61140283611453565b60008060006060848603121561149857600080fd5b6114a18461136c565b9250602084013591506114b660408501611419565b90509250925092565b634e487b7160e01b600052604160045260246000fd5b600082601f8301126114e657600080fd5b813567ffffffffffffffff80821115611501576115016114bf565b604051601f8301601f19908116603f01168101908282118183101715611529576115296114bf565b8160405283815286602085880101111561154257600080fd5b836020870160208301376000602085830101528094505050505092915050565b6000806040838503121561157557600080fd5b823567ffffffffffffffff81111561158c57600080fd5b611598858286016114d5565b9250506114106020840161136c565b6000602082840312156115b957600080fd5b813567ffffffffffffffff8111156115d057600080fd5b6115dc848285016114d5565b949350505050565b6000806000606084860312156115f957600080fd5b6116028461136c565b92506116106020850161136c565b91506114b660408501611453565b6020808252825182820181905260009190848201906040850190845b8181101561165f5783516001600160a01b03168352928401929184019160010161163a565b50909695505050505050565b60008060006060848603121561168057600080fd5b833567ffffffffffffffff81111561169757600080fd5b6116a3868287016114d5565b9350506116106020850161136c565b60208082526035908201527f556e617574686f72697a6520416363657373207265717565737465642c204361604082015274363632b91034b9903737ba103a34329037bbb732b960591b606082015260800190565b60005b8381101561172257818101518382015260200161170a565b50506000910152565b602081526000825180602084015261174a816040850160208701611707565b601f01601f19169190910160400192915050565b634e487b7160e01b600052601160045260246000fd5b808201808211156117875761178761175e565b92915050565b634e487b7160e01b600052603260045260246000fd5b818103818111156117875761178761175e565b634e487b7160e01b600052603160045260246000fd5b6000600182016117de576117de61175e565b5060010190565b600082516117f7818460208701611707565b919091019291505056feabd6e7cb50984ff9c2f3e18a2660c3353dadf4e3291deeb275dae2cd1e44fe05a15bc60c955c405d20d9149c709e2460f1c2d9a497496a7f46004d1772c3054ca26469706673582212208521f6ea9589658c978e24626e238d86ba5e1842c22ec82146c40f2cf56dd38b64736f6c63430008110033",
  "immutableReferences": {},
  "source": "// SPDX-License-Identifier: Apache-2.0\npragma solidity ^0.8.17;\n\nimport \"./HashbuzzStates.sol\";\nimport \"./Utils.sol\";\n\n/**\n * @dev This contract is used to store the state of the Hashbuzz contract\n * @title Transactions\n * @author Om Prakash\n * @notice Deals with operations related to transactions.\n */\ncontract Transactions is HashbuzzStates, Utils {\n    /** Deposite amount to user aaccount */\n    function handleDeposit(address campaigner, uint256 amount) internal {\n        balances[campaigner] += amount;\n        emit FundsDeposited(campaigner, amount);\n    }\n\n    /** Hnalde Withdraw from user account */\n    function handleWithdrawal(address campaigner, uint256 amount) internal {\n        require(balances[campaigner] >= amount, ERR_INSUFFICIENT_BALANCE);\n        balances[campaigner] -= amount;\n        emit FundsWithdrawn(campaigner, amount);\n    }\n\n    /**\n     * @dev Topup and reimbersement cases\n     * @param campaigner campaigner solidity address\n     * @param amount  Amount being topuped\n     * @param deposit Boolean is here\n     */\n    function updateBalance(\n        address campaigner,\n        uint256 amount,\n        bool deposit\n    ) public onlyOwner returns (uint256) {\n        require(campaigner != address(0), ERR_INVALID_CAMPAIGN_ADDRESS);\n        require(amount > 0, ERR_TOTAL_AMOUNT_MUST_BE_GREATER_THAN_ZERO);\n        require(isCampaigner(campaigner), ERR_CAMPAIGNER_NOT_ALLOWED);\n\n        if (deposit) {\n            handleDeposit(campaigner, amount);\n        } else {\n            handleWithdrawal(campaigner, amount);\n        }\n\n        uint256 updatedBalance = balances[campaigner];\n        emit BalanceUpdated(campaigner, updatedBalance);\n        return updatedBalance;\n    }\n\n    /**\n     * @dev Fungible token added to the campaigner account.\n     * @param campaigner Address of the campaigner\n     * @param tokenId Token ID address\n     * @param tokenAmount Amount added to the campaigner account\n     */\n    function addFungibleAmount(\n        address campaigner,\n        address tokenId,\n        uint256 tokenAmount\n    ) public onlyOwner returns (uint256) {\n        require(campaigner != address(0), ERR_INVALID_CAMPAIGN_ADDRESS);\n        require(tokenId != address(0), ERR_INVALID_TOKEN_ADDRESS);\n        require(tokenAmount > 0, ERR_TOTAL_AMOUNT_MUST_BE_GREATER_THAN_ZERO);\n        require(isCampaigner(campaigner), ERR_CAMPAIGNER_NOT_ALLOWED);\n        require(isTokenWhitelisted(tokenId), ERR_TOKEN_NOT_WHITELISTED);\n        tokenBalances[campaigner][tokenId][FUNGIBLE] += tokenAmount;\n        emit FungibleTokenDeposited(campaigner, tokenAmount);\n\n        uint256 updatedBalance = tokenBalances[campaigner][tokenId][FUNGIBLE];\n        emit FungibleTokenBalanceUpdated(campaigner, tokenId, updatedBalance);\n        return updatedBalance;\n    }\n\n    /**\n     * @dev This function is used for reimbursing the campaigner balance\n     * @param tokenId  Token solidity address\n     * @param campaigner Campaigner Address\n     * @param amount  Total amount campaigner wanted to reimburse\n     */\n    function reimburseBalanceForFungible(\n        address tokenId,\n        address campaigner,\n        uint256 amount\n    ) public onlyOwner returns (uint256) {\n        require(campaigner != address(0), ERR_INVALID_CAMPAIGN_ADDRESS);\n        require(tokenId != address(0), ERR_INVALID_TOKEN_ADDRESS);\n        require(amount > 0, ERR_TOTAL_AMOUNT_MUST_BE_GREATER_THAN_ZERO);\n        require(isCampaigner(campaigner), ERR_CAMPAIGNER_NOT_ALLOWED);\n        require(isTokenWhitelisted(tokenId), ERR_TOKEN_NOT_WHITELISTED);\n        require(\n            tokenBalances[campaigner][tokenId][FUNGIBLE] >= amount,\n            ERR_INSUFFICIENT_BALANCE\n        );\n\n        tokenBalances[campaigner][tokenId][FUNGIBLE] -= amount;\n        uint256 updatedBalance = tokenBalances[campaigner][tokenId][FUNGIBLE];\n\n        emit FungibleTokenBalanceUpdated(campaigner, tokenId, updatedBalance);\n        return updatedBalance;\n    }\n}\n",
  "sourcePath": "/Users/ahmed/Desktop/hashbuzz_code/smv201/contracts/HashbuzzModules/Transactions.sol",
  "compiler": {
    "name": "solc",
    "version": "0.8.17+commit.8df45f5f.Emscripten.clang"
  },
  "schemaVersion": "3.4.16",
  "updatedAt": "2024-12-05T13:53:54.879Z",
  "devdoc": {
    "author": "Om Prakash",
    "details": "This contract is used to store the state of the Hashbuzz contract",
    "kind": "dev",
    "methods": {
      "addCampaigner(address)": {
        "details": "Whitelist cmapigner to the user.",
        "params": {
          "newCampaigner": "Address of the user having campaigner role to be used here"
        }
      },
      "addFungibleAmount(address,address,uint256)": {
        "details": "Fungible token added to the campaigner account.",
        "params": {
          "campaigner": "Address of the campaigner",
          "tokenAmount": "Amount added to the campaigner account",
          "tokenId": "Token ID address"
        }
      },
      "associateToken(address,bool)": {
        "details": "Adds or removes a token from the whitelist.",
        "params": {
          "isWhitelisted": "Boolean flag to mark the token as whitelisted or not.",
          "tokenAddress": "The address of the token."
        }
      },
      "getAllWhitelistedTokens()": {
        "details": "Retrieves all whitelisted addresses for a given token type.",
        "returns": {
          "_0": "An array of addresses that are whitelisted for the given token type."
        }
      },
      "getCampaignBalance(string)": {
        "details": "Balance alloted to the camppaign to see.",
        "params": {
          "campaignAddress": "campaign string id."
        }
      },
      "getFungibleCampaignBalance(string,address)": {
        "details": "Token balance held by the campaign.",
        "params": {
          "campaignAddress": "Campaign string ID.",
          "tokenId": "Solidity address of the token."
        },
        "returns": {
          "res": "The balance of the fungible token for the campaign."
        }
      },
      "getFungibleTokenBalance(address,address)": {
        "details": "Retrieves the balance of a fungible token for a specific campaigner.",
        "params": {
          "campaigner": "Address of the campaigner's solidity address.",
          "tokenId": "Solidity address used for the account."
        },
        "returns": {
          "res": "The balance of the fungible token."
        }
      },
      "getHbarBalance(address)": {
        "details": "Balance holded by the user to see.",
        "params": {
          "campaigner": "Solidity address of the campaigner."
        }
      },
      "isTokenWhitelisted(address)": {
        "details": "Checks if a specific token address is whitelisted for a given token type.",
        "params": {
          "tokenAddress": "The address of the token to check."
        },
        "returns": {
          "_0": "Boolean flag indicating if the token is whitelisted."
        }
      },
      "reimburseBalanceForFungible(address,address,uint256)": {
        "details": "This function is used for reimbursing the campaigner balance",
        "params": {
          "amount": "Total amount campaigner wanted to reimburse",
          "campaigner": "Campaigner Address",
          "tokenId": "Token solidity address"
        }
      },
      "updateBalance(address,uint256,bool)": {
        "details": "Topup and reimbersement cases",
        "params": {
          "amount": "Amount being topuped",
          "campaigner": "campaigner solidity address",
          "deposit": "Boolean is here"
        }
      }
    },
    "title": "Transactions",
    "version": 1
  },
  "userdoc": {
    "kind": "user",
    "methods": {},
    "notice": "Deals with operations related to transactions.",
    "version": 1
  }
}