{
  "contractName": "Transactions",
  "abi": [
    {
      "anonymous": false,
      "inputs": [
        {
          "indexed": false,
          "internalType": "address",
          "name": "campaigner",
          "type": "address"
        },
        {
          "indexed": false,
          "internalType": "uint256",
          "name": "updatedBalance",
          "type": "uint256"
        }
      ],
      "name": "BalanceUpdated",
      "type": "event"
    },
    {
      "anonymous": false,
      "inputs": [
        {
          "indexed": false,
          "internalType": "string",
          "name": "campaignAddress",
          "type": "string"
        },
        {
          "indexed": false,
          "internalType": "uint256",
          "name": "amount",
          "type": "uint256"
        },
        {
          "indexed": false,
          "internalType": "uint32",
          "name": "tokenType",
          "type": "uint32"
        }
      ],
      "name": "CampaignToppedUp",
      "type": "event"
    },
    {
      "anonymous": false,
      "inputs": [
        {
          "indexed": false,
          "internalType": "address",
          "name": "campaigner",
          "type": "address"
        }
      ],
      "name": "CampaignerAdded",
      "type": "event"
    },
    {
      "anonymous": false,
      "inputs": [
        {
          "indexed": false,
          "internalType": "address",
          "name": "campaigner",
          "type": "address"
        }
      ],
      "name": "CampaignerDeleted",
      "type": "event"
    },
    {
      "anonymous": false,
      "inputs": [
        {
          "indexed": false,
          "internalType": "address",
          "name": "tokenAddress",
          "type": "address"
        }
      ],
      "name": "CreatedToken",
      "type": "event"
    },
    {
      "anonymous": false,
      "inputs": [
        {
          "indexed": false,
          "internalType": "address",
          "name": "campaigner",
          "type": "address"
        },
        {
          "indexed": false,
          "internalType": "uint256",
          "name": "amount",
          "type": "uint256"
        }
      ],
      "name": "FundsDeposited",
      "type": "event"
    },
    {
      "anonymous": false,
      "inputs": [
        {
          "indexed": false,
          "internalType": "address",
          "name": "campaigner",
          "type": "address"
        },
        {
          "indexed": false,
          "internalType": "uint256",
          "name": "amount",
          "type": "uint256"
        }
      ],
      "name": "FundsWithdrawn",
      "type": "event"
    },
    {
      "anonymous": false,
      "inputs": [
        {
          "indexed": false,
          "internalType": "address",
          "name": "campaigner",
          "type": "address"
        },
        {
          "indexed": false,
          "internalType": "address",
          "name": "tokenId",
          "type": "address"
        },
        {
          "indexed": false,
          "internalType": "uint256",
          "name": "updatedBalance",
          "type": "uint256"
        }
      ],
      "name": "FungibleTokenBalanceUpdated",
      "type": "event"
    },
    {
      "anonymous": false,
      "inputs": [
        {
          "indexed": false,
          "internalType": "address",
          "name": "campaigner",
          "type": "address"
        },
        {
          "indexed": false,
          "internalType": "uint256",
          "name": "amount",
          "type": "uint256"
        }
      ],
      "name": "FungibleTokenDeposited",
      "type": "event"
    },
    {
      "anonymous": false,
      "inputs": [
        {
          "indexed": false,
          "internalType": "address",
          "name": "interactor",
          "type": "address"
        },
        {
          "indexed": false,
          "internalType": "address",
          "name": "campaigner",
          "type": "address"
        },
        {
          "indexed": false,
          "internalType": "uint256",
          "name": "amount",
          "type": "uint256"
        }
      ],
      "name": "InteractorPaid",
      "type": "event"
    },
    {
      "anonymous": false,
      "inputs": [
        {
          "indexed": false,
          "internalType": "string",
          "name": "campaignAddress",
          "type": "string"
        },
        {
          "indexed": false,
          "internalType": "uint256",
          "name": "amount",
          "type": "uint256"
        }
      ],
      "name": "InteractorPaidDeferred",
      "type": "event"
    },
    {
      "anonymous": false,
      "inputs": [
        {
          "indexed": false,
          "internalType": "string",
          "name": "campaignAdddress",
          "type": "string"
        },
        {
          "indexed": false,
          "internalType": "uint256",
          "name": "amount",
          "type": "uint256"
        },
        {
          "indexed": false,
          "internalType": "uint32",
          "name": "campaignType",
          "type": "uint32"
        }
      ],
      "name": "NewCampaignIsAdded",
      "type": "event"
    },
    {
      "anonymous": false,
      "inputs": [
        {
          "indexed": false,
          "internalType": "address",
          "name": "owner",
          "type": "address"
        }
      ],
      "name": "OwnerSet",
      "type": "event"
    },
    {
      "anonymous": false,
      "inputs": [
        {
          "indexed": false,
          "internalType": "int256",
          "name": "responseCode",
          "type": "int256"
        }
      ],
      "name": "ResponseCode",
      "type": "event"
    },
    {
      "anonymous": false,
      "inputs": [
        {
          "indexed": false,
          "internalType": "string",
          "name": "campaignAddress",
          "type": "string"
        },
        {
          "indexed": false,
          "internalType": "uint256",
          "name": "totalAmount",
          "type": "uint256"
        },
        {
          "indexed": false,
          "internalType": "uint256",
          "name": "remainingBalance",
          "type": "uint256"
        }
      ],
      "name": "RewardsDistributed",
      "type": "event"
    },
    {
      "anonymous": false,
      "inputs": [
        {
          "indexed": false,
          "internalType": "string",
          "name": "campaignAddress",
          "type": "string"
        },
        {
          "indexed": false,
          "internalType": "uint32",
          "name": "campaignType",
          "type": "uint32"
        }
      ],
      "name": "campaignClosed",
      "type": "event"
    },
    {
      "anonymous": false,
      "inputs": [
        {
          "indexed": false,
          "internalType": "string",
          "name": "campaignAddress",
          "type": "string"
        },
        {
          "indexed": false,
          "internalType": "uint32",
          "name": "campaignType",
          "type": "uint32"
        }
      ],
      "name": "campaignExpired",
      "type": "event"
    },
    {
      "inputs": [],
      "name": "FUNGIBLE",
      "outputs": [
        {
          "internalType": "uint32",
          "name": "",
          "type": "uint32"
        }
      ],
      "stateMutability": "view",
      "type": "function"
    },
    {
      "inputs": [],
      "name": "HBAR",
      "outputs": [
        {
          "internalType": "uint32",
          "name": "",
          "type": "uint32"
        }
      ],
      "stateMutability": "view",
      "type": "function"
    },
    {
      "inputs": [],
      "name": "NFT",
      "outputs": [
        {
          "internalType": "uint32",
          "name": "",
          "type": "uint32"
        }
      ],
      "stateMutability": "view",
      "type": "function"
    },
    {
      "inputs": [
        {
          "internalType": "address",
          "name": "newCampaigner",
          "type": "address"
        }
      ],
      "name": "addCampaigner",
      "outputs": [],
      "stateMutability": "nonpayable",
      "type": "function"
    },
    {
      "inputs": [
        {
          "internalType": "address",
          "name": "tokenAddress",
          "type": "address"
        },
        {
          "internalType": "bool",
          "name": "isWhitelisted",
          "type": "bool"
        }
      ],
      "name": "associateToken",
      "outputs": [],
      "stateMutability": "nonpayable",
      "type": "function"
    },
    {
      "inputs": [
        {
          "internalType": "address",
          "name": "",
          "type": "address"
        }
      ],
      "name": "balances",
      "outputs": [
        {
          "internalType": "uint256",
          "name": "",
          "type": "uint256"
        }
      ],
      "stateMutability": "view",
      "type": "function"
    },
    {
      "inputs": [
        {
          "internalType": "string",
          "name": "",
          "type": "string"
        }
      ],
      "name": "campaignBalances",
      "outputs": [
        {
          "internalType": "uint256",
          "name": "",
          "type": "uint256"
        }
      ],
      "stateMutability": "view",
      "type": "function"
    },
    {
      "inputs": [
        {
          "internalType": "string",
          "name": "",
          "type": "string"
        }
      ],
      "name": "campaignRandomNumber",
      "outputs": [
        {
          "internalType": "uint32",
          "name": "",
          "type": "uint32"
        }
      ],
      "stateMutability": "view",
      "type": "function"
    },
    {
      "inputs": [
        {
          "internalType": "address",
          "name": "",
          "type": "address"
        }
      ],
      "name": "campaigners",
      "outputs": [
        {
          "internalType": "bool",
          "name": "",
          "type": "bool"
        }
      ],
      "stateMutability": "view",
      "type": "function"
    },
    {
      "inputs": [],
      "name": "getAllWhitelistedTokens",
      "outputs": [
        {
          "internalType": "address[]",
          "name": "",
          "type": "address[]"
        }
      ],
      "stateMutability": "view",
      "type": "function"
    },
    {
      "inputs": [
        {
          "internalType": "string",
          "name": "campaignAddress",
          "type": "string"
        }
      ],
      "name": "getCampaignBalance",
      "outputs": [
        {
          "internalType": "uint256",
          "name": "",
          "type": "uint256"
        }
      ],
      "stateMutability": "view",
      "type": "function"
    },
    {
      "inputs": [
        {
          "internalType": "address",
          "name": "campaigner",
          "type": "address"
        },
        {
          "internalType": "address",
          "name": "tokenId",
          "type": "address"
        }
      ],
      "name": "getFungibleTokenBalance",
      "outputs": [
        {
          "internalType": "uint256",
          "name": "res",
          "type": "uint256"
        }
      ],
      "stateMutability": "view",
      "type": "function"
    },
    {
      "inputs": [
        {
          "internalType": "address",
          "name": "campaigner",
          "type": "address"
        }
      ],
      "name": "getHbarBalance",
      "outputs": [
        {
          "internalType": "uint256",
          "name": "res",
          "type": "uint256"
        }
      ],
      "stateMutability": "view",
      "type": "function"
    },
    {
      "inputs": [
        {
          "internalType": "address",
          "name": "tokenAddress",
          "type": "address"
        }
      ],
      "name": "isTokenWhitelisted",
      "outputs": [
        {
          "internalType": "bool",
          "name": "",
          "type": "bool"
        }
      ],
      "stateMutability": "view",
      "type": "function"
    },
    {
      "inputs": [
        {
          "internalType": "address",
          "name": "",
          "type": "address"
        }
      ],
      "name": "nftCampaigner",
      "outputs": [
        {
          "internalType": "uint32",
          "name": "",
          "type": "uint32"
        }
      ],
      "stateMutability": "view",
      "type": "function"
    },
    {
      "inputs": [],
      "name": "owner",
      "outputs": [
        {
          "internalType": "address",
          "name": "",
          "type": "address"
        }
      ],
      "stateMutability": "view",
      "type": "function"
    },
    {
      "inputs": [
        {
          "internalType": "address",
          "name": "",
          "type": "address"
        },
        {
          "internalType": "address",
          "name": "",
          "type": "address"
        },
        {
          "internalType": "uint32",
          "name": "",
          "type": "uint32"
        }
      ],
      "name": "tokenBalances",
      "outputs": [
        {
          "internalType": "uint256",
          "name": "",
          "type": "uint256"
        }
      ],
      "stateMutability": "view",
      "type": "function"
    },
    {
      "inputs": [
        {
          "internalType": "string",
          "name": "",
          "type": "string"
        },
        {
          "internalType": "address",
          "name": "",
          "type": "address"
        },
        {
          "internalType": "uint32",
          "name": "",
          "type": "uint32"
        }
      ],
      "name": "tokenCampaignBalances",
      "outputs": [
        {
          "internalType": "uint256",
          "name": "",
          "type": "uint256"
        }
      ],
      "stateMutability": "view",
      "type": "function"
    },
    {
      "inputs": [
        {
          "internalType": "uint32",
          "name": "",
          "type": "uint32"
        },
        {
          "internalType": "address",
          "name": "",
          "type": "address"
        }
      ],
      "name": "whitelistedToken",
      "outputs": [
        {
          "internalType": "bool",
          "name": "",
          "type": "bool"
        }
      ],
      "stateMutability": "view",
      "type": "function"
    },
    {
      "inputs": [
        {
          "internalType": "address",
          "name": "campaigner",
          "type": "address"
        },
        {
          "internalType": "uint256",
          "name": "amount",
          "type": "uint256"
        },
        {
          "internalType": "bool",
          "name": "deposit",
          "type": "bool"
        }
      ],
      "name": "updateBalance",
      "outputs": [
        {
          "internalType": "uint256",
          "name": "",
          "type": "uint256"
        }
      ],
      "stateMutability": "nonpayable",
      "type": "function"
    },
    {
      "inputs": [
        {
          "internalType": "address",
          "name": "campaigner",
          "type": "address"
        },
        {
          "internalType": "address",
          "name": "tokenId",
          "type": "address"
        },
        {
          "internalType": "uint256",
          "name": "tokenAmount",
          "type": "uint256"
        }
      ],
      "name": "addFungibleAmount",
      "outputs": [
        {
          "internalType": "uint256",
          "name": "",
          "type": "uint256"
        }
      ],
      "stateMutability": "nonpayable",
      "type": "function"
    },
    {
      "inputs": [
        {
          "internalType": "address",
          "name": "tokenId",
          "type": "address"
        },
        {
          "internalType": "address",
          "name": "campaigner",
          "type": "address"
        },
        {
          "internalType": "uint256",
          "name": "amount",
          "type": "uint256"
        }
      ],
      "name": "reimburseCampaigner",
      "outputs": [
        {
          "internalType": "uint256",
          "name": "",
          "type": "uint256"
        }
      ],
      "stateMutability": "nonpayable",
      "type": "function"
    }
  ],
  "bytecode": "0x608060405234801561001057600080fd5b50611701806100206000396000f3fe608060405234801561001057600080fd5b50600436106101425760003560e01c8063694be7e0116100b85780639a5f0da61161007c5780639a5f0da61461032e578063a5161d321461036f578063b5af090f14610382578063bc3ef1e914610395578063bff31996146103bb578063cfe3f9a8146103ce57600080fd5b8063694be7e0146102ad578063774256c7146102de5780637c0b8de2146102e65780638da5cb5b146102ee5780639991033c1461031957600080fd5b806327e235e31161010a57806327e235e3146101f1578063362e34b914610211578063412288031461023f5780634377e3ff146102525780634a3b11521461026f5780634f18230d1461028257600080fd5b806309d19bb314610147578063110293451461016d578063160f9c88146101a057806316d343e0146101b35780631b0f32a3146101dc575b600080fd5b61015a610155366004611257565b6103ff565b6040519081526020015b60405180910390f35b61019061017b366004611293565b60016020526000908152604090205460ff1681565b6040519015158152602001610164565b61015a6101ae3660046112b5565b610691565b61015a6101c1366004611293565b6001600160a01b031660009081526002602052604090205490565b6101ef6101ea3660046112f8565b610794565b005b61015a6101ff366004611293565b60026020526000908152604090205481565b61019061021f366004611336565b600360209081526000928352604080842090915290825290205460ff1681565b61015a61024d366004611352565b610aa8565b61025a600181565b60405163ffffffff9091168152602001610164565b61015a61027d366004611431565b610c18565b61015a610290366004611431565b805160208183018101805160068252928201919093012091525481565b61015a6102bb36600461146e565b600560209081526000938452604080852082529284528284209052825290205481565b61025a600081565b61025a600281565b600054610301906001600160a01b031681565b6040516001600160a01b039091168152602001610164565b610321610c80565b60405161016491906114a8565b61015a61033c3660046114f5565b82516020818501810180516007825292820195820195909520919094528352600091825260408083209093528152205481565b61015a61037d366004611257565b610cf8565b610190610390366004611293565b610fa1565b61025a6103a3366004611293565b60096020526000908152604090205463ffffffff1681565b6101ef6103c9366004611293565b610fcc565b61025a6103dc366004611431565b8051602081830181018051600b8252928201919093012091525463ffffffff1681565b600080546001600160a01b031633146104335760405162461bcd60e51b815260040161042a9061153c565b60405180910390fd5b6040805180820190915260048152632298181960e11b60208201526001600160a01b0385166104755760405162461bcd60e51b815260040161042a91906115b5565b506040805180820190915260048152634530303160e01b60208201526001600160a01b0384166104b85760405162461bcd60e51b815260040161042a91906115b5565b506040805180820190915260048152634530313160e01b6020820152826104f25760405162461bcd60e51b815260040161042a91906115b5565b506001600160a01b03841660009081526001602052604090205460ff16604051806040016040528060048152602001634530303360e01b8152509061054a5760405162461bcd60e51b815260040161042a91906115b5565b5061055483610fa1565b604051806040016040528060048152602001634530303560e01b8152509061058f5760405162461bcd60e51b815260040161042a91906115b5565b506001600160a01b038085166000908152600560209081526040808320938716835292815282822060018352905290812080548492906105d09084906115fe565b9091555050604080516001600160a01b0386168152602081018490527f7e173cdce262f17abb63c667517295e12d707392b4a9a6ee4aa7857178ec6464910160405180910390a16001600160a01b038481166000818152600560209081526040808320948816808452948252808320600184528252918290205482519384529083019390935281018290527f8fe0e0da907ac8f437ef47e4203196ea7ddf12675b81ad2e6553bb69314e1e23906060015b60405180910390a1949350505050565b6040805180820190915260048152634530303160e01b60208201526000906001600160a01b0383166106d65760405162461bcd60e51b815260040161042a91906115b5565b506040805180820190915260048152632298181960e11b60208201526001600160a01b0384166107195760405162461bcd60e51b815260040161042a91906115b5565b5061072382610fa1565b604051806040016040528060048152602001634530303560e01b8152509061075e5760405162461bcd60e51b815260040161042a91906115b5565b50506001600160a01b03918216600090815260056020908152604080832093909416825291825282812060018252909152205490565b6000546001600160a01b031633146107be5760405162461bcd60e51b815260040161042a9061153c565b6040805180820190915260048152634530303160e01b60208201526001600160a01b0383166108005760405162461bcd60e51b815260040161042a91906115b5565b5080801561083457506001600160a01b03821660009081526000805160206116ac833981519152602052604090205460ff16155b156108c157506001600160a01b031660008181526000805160206116ac833981519152602090815260408220805460ff19166001908117909155600490915260008051602061168c833981519152805491820181559091527f210afe6ebef982fa193bb4e17f9f236cdf09af7788627b5d54d9e3e4b100021b0180546001600160a01b0319169091179055565b801580156108f457506001600160a01b03821660009081526000805160206116ac833981519152602052604090205460ff165b15610aa4576001600160a01b03821660009081526000805160206116ac833981519152602090815260408220805460ff19169055600182526004905260008051602061168c83398151915254905b81811015610aa1576001600052600460205260008051602061168c83398151915280546001600160a01b03861691908390811061098157610981611617565b6000918252602090912001546001600160a01b031603610a8f5760016000819052600460205260008051602061168c833981519152906109c1908461162d565b815481106109d1576109d1611617565b600091825260208083209091015460019092526004905260008051602061168c83398151915280546001600160a01b039092169183908110610a1557610a15611617565b600091825260208083209190910180546001600160a01b0319166001600160a01b039490941693909317909255600190526004905260008051602061168c833981519152805480610a6857610a68611640565b600082815260209020810160001990810180546001600160a01b0319169055019055610aa1565b80610a9981611656565b915050610942565b50505b5050565b600080546001600160a01b03163314610ad35760405162461bcd60e51b815260040161042a9061153c565b6040805180820190915260048152632298181960e11b60208201526001600160a01b038516610b155760405162461bcd60e51b815260040161042a91906115b5565b506040805180820190915260048152634530313160e01b602082015283610b4f5760405162461bcd60e51b815260040161042a91906115b5565b506001600160a01b03841660009081526001602052604090205460ff16604051806040016040528060048152602001634530303360e01b81525090610ba75760405162461bcd60e51b815260040161042a91906115b5565b508115610bbd57610bb884846110f6565b610bc7565b610bc7848461116a565b6001600160a01b038416600081815260026020908152604091829020548251938452908301819052917f8ad64a0ac7700dd8425ab0499f107cb6e2cd1581d803c5b8c1c79dcb8190b1af9101610681565b600080825111604051806040016040528060048152602001632298181960e11b81525090610c595760405162461bcd60e51b815260040161042a91906115b5565b50600682604051610c6a919061166f565b9081526020016040518091039020549050919050565b60016000526004602090815260008051602061168c8339815191528054604080518285028101850190915281815260609390929190830182828015610cee57602002820191906000526020600020905b81546001600160a01b03168152600190910190602001808311610cd0575b5050505050905090565b600080546001600160a01b03163314610d235760405162461bcd60e51b815260040161042a9061153c565b6040805180820190915260048152632298181960e11b60208201526001600160a01b038416610d655760405162461bcd60e51b815260040161042a91906115b5565b506040805180820190915260048152634530303160e01b60208201526001600160a01b038516610da85760405162461bcd60e51b815260040161042a91906115b5565b506040805180820190915260048152634530313160e01b602082015282610de25760405162461bcd60e51b815260040161042a91906115b5565b506001600160a01b03831660009081526001602052604090205460ff16604051806040016040528060048152602001634530303360e01b81525090610e3a5760405162461bcd60e51b815260040161042a91906115b5565b50610e4484610fa1565b604051806040016040528060048152602001634530303560e01b81525090610e7f5760405162461bcd60e51b815260040161042a91906115b5565b506001600160a01b038084166000908152600560209081526040808320938816835292815282822060018352815290829020548251808401909352600483526308a6060760e31b91830191909152831115610eed5760405162461bcd60e51b815260040161042a91906115b5565b506001600160a01b03808416600090815260056020908152604080832093881683529281528282206001835290529081208054849290610f2e90849061162d565b90915550506001600160a01b038381166000818152600560209081526040808320948916808452948252808320600184528252918290205482519384529083019390935281018290527f8fe0e0da907ac8f437ef47e4203196ea7ddf12675b81ad2e6553bb69314e1e2390606001610681565b6001600160a01b031660009081526000805160206116ac833981519152602052604090205460ff1690565b6000546001600160a01b03163314610ff65760405162461bcd60e51b815260040161042a9061153c565b6040805180820190915260048152632298181960e11b60208201526001600160a01b0382166110385760405162461bcd60e51b815260040161042a91906115b5565b506001600160a01b03811660009081526001602052604090205460ff1615604051806040016040528060048152602001632298181b60e11b815250906110915760405162461bcd60e51b815260040161042a91906115b5565b506001600160a01b0381166000818152600160208181526040808420805460ff19169093179092556002815281832092909255519182527f3d04fb94919fdfa7708320cdebdf093992d88d792b3d5f4144c364cda00129c6910160405180910390a150565b6001600160a01b0382166000908152600260205260408120805483929061111e9084906115fe565b9091555050604080516001600160a01b0384168152602081018390527f543ba50a5eec5e6178218e364b1d0f396157b3c8fa278522c2cb7fd99407d47491015b60405180910390a15050565b8060026000846001600160a01b03166001600160a01b031681526020019081526020016000205410156040518060400160405280600481526020016308a6060760e31b815250906111ce5760405162461bcd60e51b815260040161042a91906115b5565b506001600160a01b038216600090815260026020526040812080548392906111f790849061162d565b9091555050604080516001600160a01b0384168152602081018390527feaff4b37086828766ad3268786972c0cd24259d4c87a80f9d3963a3c3d999b0d910161115e565b80356001600160a01b038116811461125257600080fd5b919050565b60008060006060848603121561126c57600080fd5b6112758461123b565b92506112836020850161123b565b9150604084013590509250925092565b6000602082840312156112a557600080fd5b6112ae8261123b565b9392505050565b600080604083850312156112c857600080fd5b6112d18361123b565b91506112df6020840161123b565b90509250929050565b8035801515811461125257600080fd5b6000806040838503121561130b57600080fd5b6113148361123b565b91506112df602084016112e8565b803563ffffffff8116811461125257600080fd5b6000806040838503121561134957600080fd5b6112d183611322565b60008060006060848603121561136757600080fd5b6113708461123b565b925060208401359150611385604085016112e8565b90509250925092565b634e487b7160e01b600052604160045260246000fd5b600082601f8301126113b557600080fd5b813567ffffffffffffffff808211156113d0576113d061138e565b604051601f8301601f19908116603f011681019082821181831017156113f8576113f861138e565b8160405283815286602085880101111561141157600080fd5b836020870160208301376000602085830101528094505050505092915050565b60006020828403121561144357600080fd5b813567ffffffffffffffff81111561145a57600080fd5b611466848285016113a4565b949350505050565b60008060006060848603121561148357600080fd5b61148c8461123b565b925061149a6020850161123b565b915061138560408501611322565b6020808252825182820181905260009190848201906040850190845b818110156114e95783516001600160a01b0316835292840192918401916001016114c4565b50909695505050505050565b60008060006060848603121561150a57600080fd5b833567ffffffffffffffff81111561152157600080fd5b61152d868287016113a4565b93505061149a6020850161123b565b60208082526035908201527f556e617574686f72697a6520416363657373207265717565737465642c204361604082015274363632b91034b9903737ba103a34329037bbb732b960591b606082015260800190565b60005b838110156115ac578181015183820152602001611594565b50506000910152565b60208152600082518060208401526115d4816040850160208701611591565b601f01601f19169190910160400192915050565b634e487b7160e01b600052601160045260246000fd5b80820180821115611611576116116115e8565b92915050565b634e487b7160e01b600052603260045260246000fd5b81810381811115611611576116116115e8565b634e487b7160e01b600052603160045260246000fd5b600060018201611668576116686115e8565b5060010190565b60008251611681818460208701611591565b919091019291505056feabd6e7cb50984ff9c2f3e18a2660c3353dadf4e3291deeb275dae2cd1e44fe05a15bc60c955c405d20d9149c709e2460f1c2d9a497496a7f46004d1772c3054ca264697066735822122072c7a6c29c1011287d2e28538be6431973664507f2f72cb5624c7e609406f37f64736f6c63430008110033",
  "immutableReferences": {},
  "source": "// SPDX-License-Identifier: Apache-2.0\r\npragma solidity ^0.8.17;\r\n\r\nimport \"./HashbuzzStates.sol\";\r\nimport \"./Utils.sol\";\r\n\r\n/**\r\n * @dev This contract is used to store the state of the Hashbuzz contract\r\n * @title Transactions\r\n * @author Om Prakash\r\n * @notice Deals with operations related to transactions.\r\n */\r\ncontract Transactions is HashbuzzStates, Utils {\r\n    /** Deposite amount to user aaccount */\r\n    function handleDeposit(address campaigner, uint256 amount) internal {\r\n        balances[campaigner] += amount;\r\n        emit FundsDeposited(campaigner, amount);\r\n    }\r\n\r\n    /** Hnalde Withdraw from user account */\r\n    function handleWithdrawal(address campaigner, uint256 amount) internal {\r\n        require(balances[campaigner] >= amount, ERR_INSUFFICIENT_BALANCE);\r\n        balances[campaigner] -= amount;\r\n        emit FundsWithdrawn(campaigner, amount);\r\n    }\r\n\r\n    /**\r\n     * @dev Topup and reimbersement cases\r\n     * @param campaigner campaigner solidity address\r\n     * @param amount  Amount being topuped\r\n     * @param deposit Boolean is here\r\n     */\r\n    function updateBalance(\r\n        address campaigner,\r\n        uint256 amount,\r\n        bool deposit\r\n    ) public onlyOwner returns (uint256) {\r\n        require(campaigner != address(0), ERR_INVALID_CAMPAIGN_ADDRESS);\r\n        require(amount > 0, ERR_TOTAL_AMOUNT_MUST_BE_GREATER_THAN_ZERO);\r\n        require(isCampaigner(campaigner), ERR_CAMPAIGNER_NOT_ALLOWED);\r\n\r\n        if (deposit) {\r\n            handleDeposit(campaigner, amount);\r\n        } else {\r\n            handleWithdrawal(campaigner, amount);\r\n        }\r\n\r\n        uint256 updatedBalance = balances[campaigner];\r\n        emit BalanceUpdated(campaigner, updatedBalance);\r\n        return updatedBalance;\r\n    }\r\n\r\n    /**\r\n     * @dev Fungible token added to the campaigner account.\r\n     * @param campaigner Address of the campaigner\r\n     * @param tokenId Token ID address\r\n     * @param tokenAmount Amount added to the campaigner account\r\n     */\r\n    function addFungibleAmount(\r\n        address campaigner,\r\n        address tokenId,\r\n        uint256 tokenAmount\r\n    ) public onlyOwner returns (uint256) {\r\n        require(campaigner != address(0), ERR_INVALID_CAMPAIGN_ADDRESS);\r\n        require(tokenId != address(0), ERR_INVALID_TOKEN_ADDRESS);\r\n        require(tokenAmount > 0, ERR_TOTAL_AMOUNT_MUST_BE_GREATER_THAN_ZERO);\r\n        require(isCampaigner(campaigner), ERR_CAMPAIGNER_NOT_ALLOWED);\r\n        require(isTokenWhitelisted(tokenId), ERR_TOKEN_NOT_WHITELISTED);\r\n        tokenBalances[campaigner][tokenId][FUNGIBLE] += tokenAmount;\r\n        emit FungibleTokenDeposited(campaigner, tokenAmount);\r\n\r\n        uint256 updatedBalance = tokenBalances[campaigner][tokenId][FUNGIBLE];\r\n        emit FungibleTokenBalanceUpdated(campaigner, tokenId, updatedBalance);\r\n        return updatedBalance;\r\n    }\r\n\r\n    /**\r\n     * @dev This function is used for reimbursing the campaigner balance\r\n     * @param tokenId  Token solidity address\r\n     * @param campaigner Campaigner Address\r\n     * @param amount  Total amount campaigner wanted to reimburse\r\n     */\r\n    function reimburseCampaigner(\r\n        address tokenId,\r\n        address campaigner,\r\n        uint256 amount\r\n    ) public onlyOwner returns (uint256) {\r\n        require(campaigner != address(0), ERR_INVALID_CAMPAIGN_ADDRESS);\r\n        require(tokenId != address(0), ERR_INVALID_TOKEN_ADDRESS);\r\n        require(amount > 0, ERR_TOTAL_AMOUNT_MUST_BE_GREATER_THAN_ZERO);\r\n        require(isCampaigner(campaigner), ERR_CAMPAIGNER_NOT_ALLOWED);\r\n        require(isTokenWhitelisted(tokenId), ERR_TOKEN_NOT_WHITELISTED);\r\n        require(\r\n            tokenBalances[campaigner][tokenId][FUNGIBLE] >= amount,\r\n            ERR_INSUFFICIENT_BALANCE\r\n        );\r\n\r\n        tokenBalances[campaigner][tokenId][FUNGIBLE] -= amount;\r\n        uint256 updatedBalance = tokenBalances[campaigner][tokenId][FUNGIBLE];\r\n\r\n        emit FungibleTokenBalanceUpdated(campaigner, tokenId, updatedBalance);\r\n        return updatedBalance;\r\n    }\r\n}\r\n",
  "sourcePath": "D:\\rajatk\\hashbuzz-staging\\smv201\\contracts\\HashbuzzModules\\Transactions.sol",
  "compiler": {
    "name": "solc",
    "version": "0.8.17+commit.8df45f5f.Emscripten.clang"
  },
  "schemaVersion": "3.4.16",
  "updatedAt": "2024-11-15T16:56:42.466Z",
  "devdoc": {
    "author": "Om Prakash",
    "details": "This contract is used to store the state of the Hashbuzz contract",
    "kind": "dev",
    "methods": {
      "addCampaigner(address)": {
        "details": "Whitelist cmapigner to the user.",
        "params": {
          "newCampaigner": "Address of the user having campaigner role to be used here"
        }
      },
      "addFungibleAmount(address,address,uint256)": {
        "details": "Fungible token added to the campaigner account.",
        "params": {
          "campaigner": "Address of the campaigner",
          "tokenAmount": "Amount added to the campaigner account",
          "tokenId": "Token ID address"
        }
      },
      "associateToken(address,bool)": {
        "details": "Adds or removes a token from the whitelist.",
        "params": {
          "isWhitelisted": "Boolean flag to mark the token as whitelisted or not.",
          "tokenAddress": "The address of the token."
        }
      },
      "getAllWhitelistedTokens()": {
        "details": "Retrieves all whitelisted addresses for a given token type.",
        "returns": {
          "_0": "An array of addresses that are whitelisted for the given token type."
        }
      },
      "getCampaignBalance(string)": {
        "details": "Balance held by the user to see.",
        "params": {
          "campaignAddress": "Solidity address of the campaigner."
        }
      },
      "getFungibleTokenBalance(address,address)": {
        "details": "Retrieves the balance of a fungible token for a specific campaigner.",
        "params": {
          "campaigner": "Address of the campaigner's solidity address.",
          "tokenId": "Solidity address used for the account."
        },
        "returns": {
          "res": "The balance of the fungible token."
        }
      },
      "getHbarBalance(address)": {
        "details": "Balance holded by the user to see.",
        "params": {
          "campaigner": "Solidity address of the campaigner."
        }
      },
      "isTokenWhitelisted(address)": {
        "details": "Checks if a specific token address is whitelisted for a given token type.",
        "params": {
          "tokenAddress": "The address of the token to check."
        },
        "returns": {
          "_0": "Boolean flag indicating if the token is whitelisted."
        }
      },
      "reimburseCampaigner(address,address,uint256)": {
        "details": "This function is used for reimbursing the campaigner balance",
        "params": {
          "amount": "Total amount campaigner wanted to reimburse",
          "campaigner": "Campaigner Address",
          "tokenId": "Token solidity address"
        }
      },
      "updateBalance(address,uint256,bool)": {
        "details": "Topup and reimbersement cases",
        "params": {
          "amount": "Amount being topuped",
          "campaigner": "campaigner solidity address",
          "deposit": "Boolean is here"
        }
      }
    },
    "title": "Transactions",
    "version": 1
  },
  "userdoc": {
    "kind": "user",
    "methods": {},
    "notice": "Deals with operations related to transactions.",
    "version": 1
  }
}