{
  "contractName": "Utils",
  "abi": [
    {
      "anonymous": false,
      "inputs": [
        {
          "indexed": false,
          "internalType": "address",
          "name": "campaigner",
          "type": "address"
        },
        {
          "indexed": false,
          "internalType": "uint256",
          "name": "updatedBalance",
          "type": "uint256"
        }
      ],
      "name": "BalanceUpdated",
      "type": "event"
    },
    {
      "anonymous": false,
      "inputs": [
        {
          "indexed": false,
          "internalType": "string",
          "name": "campaignAddress",
          "type": "string"
        },
        {
          "indexed": false,
          "internalType": "uint256",
          "name": "amount",
          "type": "uint256"
        },
        {
          "indexed": false,
          "internalType": "uint32",
          "name": "tokenType",
          "type": "uint32"
        }
      ],
      "name": "CampaignToppedUp",
      "type": "event"
    },
    {
      "anonymous": false,
      "inputs": [
        {
          "indexed": false,
          "internalType": "address",
          "name": "campaigner",
          "type": "address"
        }
      ],
      "name": "CampaignerAdded",
      "type": "event"
    },
    {
      "anonymous": false,
      "inputs": [
        {
          "indexed": false,
          "internalType": "address",
          "name": "campaigner",
          "type": "address"
        }
      ],
      "name": "CampaignerDeleted",
      "type": "event"
    },
    {
      "anonymous": false,
      "inputs": [
        {
          "indexed": false,
          "internalType": "address",
          "name": "tokenAddress",
          "type": "address"
        }
      ],
      "name": "CreatedToken",
      "type": "event"
    },
    {
      "anonymous": false,
      "inputs": [
        {
          "indexed": false,
          "internalType": "address",
          "name": "campaigner",
          "type": "address"
        },
        {
          "indexed": false,
          "internalType": "uint256",
          "name": "amount",
          "type": "uint256"
        }
      ],
      "name": "FundsDeposited",
      "type": "event"
    },
    {
      "anonymous": false,
      "inputs": [
        {
          "indexed": false,
          "internalType": "address",
          "name": "campaigner",
          "type": "address"
        },
        {
          "indexed": false,
          "internalType": "uint256",
          "name": "amount",
          "type": "uint256"
        }
      ],
      "name": "FundsWithdrawn",
      "type": "event"
    },
    {
      "anonymous": false,
      "inputs": [
        {
          "indexed": false,
          "internalType": "address",
          "name": "campaigner",
          "type": "address"
        },
        {
          "indexed": false,
          "internalType": "address",
          "name": "tokenId",
          "type": "address"
        },
        {
          "indexed": false,
          "internalType": "uint256",
          "name": "updatedBalance",
          "type": "uint256"
        }
      ],
      "name": "FungibleTokenBalanceUpdated",
      "type": "event"
    },
    {
      "anonymous": false,
      "inputs": [
        {
          "indexed": false,
          "internalType": "address",
          "name": "campaigner",
          "type": "address"
        },
        {
          "indexed": false,
          "internalType": "uint256",
          "name": "amount",
          "type": "uint256"
        }
      ],
      "name": "FungibleTokenDeposited",
      "type": "event"
    },
    {
      "anonymous": false,
      "inputs": [
        {
          "indexed": false,
          "internalType": "address",
          "name": "interactor",
          "type": "address"
        },
        {
          "indexed": false,
          "internalType": "address",
          "name": "campaigner",
          "type": "address"
        },
        {
          "indexed": false,
          "internalType": "uint256",
          "name": "amount",
          "type": "uint256"
        }
      ],
      "name": "InteractorPaid",
      "type": "event"
    },
    {
      "anonymous": false,
      "inputs": [
        {
          "indexed": false,
          "internalType": "string",
          "name": "campaignAddress",
          "type": "string"
        },
        {
          "indexed": false,
          "internalType": "uint256",
          "name": "amount",
          "type": "uint256"
        }
      ],
      "name": "InteractorPaidDeferred",
      "type": "event"
    },
    {
      "anonymous": false,
      "inputs": [
        {
          "indexed": false,
          "internalType": "string",
          "name": "campaignAdddress",
          "type": "string"
        },
        {
          "indexed": false,
          "internalType": "uint256",
          "name": "amount",
          "type": "uint256"
        },
        {
          "indexed": false,
          "internalType": "uint32",
          "name": "campaignType",
          "type": "uint32"
        }
      ],
      "name": "NewCampaignIsAdded",
      "type": "event"
    },
    {
      "anonymous": false,
      "inputs": [
        {
          "indexed": false,
          "internalType": "address",
          "name": "owner",
          "type": "address"
        }
      ],
      "name": "OwnerSet",
      "type": "event"
    },
    {
      "anonymous": false,
      "inputs": [
        {
          "indexed": false,
          "internalType": "int256",
          "name": "responseCode",
          "type": "int256"
        }
      ],
      "name": "ResponseCode",
      "type": "event"
    },
    {
      "anonymous": false,
      "inputs": [
        {
          "indexed": false,
          "internalType": "string",
          "name": "campaignAddress",
          "type": "string"
        },
        {
          "indexed": false,
          "internalType": "uint256",
          "name": "totalAmount",
          "type": "uint256"
        },
        {
          "indexed": false,
          "internalType": "uint256",
          "name": "remainingBalance",
          "type": "uint256"
        }
      ],
      "name": "RewardsDistributed",
      "type": "event"
    },
    {
      "anonymous": false,
      "inputs": [
        {
          "indexed": false,
          "internalType": "string",
          "name": "campaignAddress",
          "type": "string"
        },
        {
          "indexed": false,
          "internalType": "uint32",
          "name": "campaignType",
          "type": "uint32"
        }
      ],
      "name": "campaignClosed",
      "type": "event"
    },
    {
      "anonymous": false,
      "inputs": [
        {
          "indexed": false,
          "internalType": "string",
          "name": "campaignAddress",
          "type": "string"
        },
        {
          "indexed": false,
          "internalType": "uint32",
          "name": "campaignType",
          "type": "uint32"
        }
      ],
      "name": "campaignExpired",
      "type": "event"
    },
    {
      "inputs": [],
      "name": "FUNGIBLE",
      "outputs": [
        {
          "internalType": "uint32",
          "name": "",
          "type": "uint32"
        }
      ],
      "stateMutability": "view",
      "type": "function"
    },
    {
      "inputs": [],
      "name": "HBAR",
      "outputs": [
        {
          "internalType": "uint32",
          "name": "",
          "type": "uint32"
        }
      ],
      "stateMutability": "view",
      "type": "function"
    },
    {
      "inputs": [],
      "name": "NFT",
      "outputs": [
        {
          "internalType": "uint32",
          "name": "",
          "type": "uint32"
        }
      ],
      "stateMutability": "view",
      "type": "function"
    },
    {
      "inputs": [
        {
          "internalType": "address",
          "name": "",
          "type": "address"
        }
      ],
      "name": "balances",
      "outputs": [
        {
          "internalType": "uint256",
          "name": "",
          "type": "uint256"
        }
      ],
      "stateMutability": "view",
      "type": "function"
    },
    {
      "inputs": [
        {
          "internalType": "string",
          "name": "",
          "type": "string"
        }
      ],
      "name": "campaignBalances",
      "outputs": [
        {
          "internalType": "uint256",
          "name": "",
          "type": "uint256"
        }
      ],
      "stateMutability": "view",
      "type": "function"
    },
    {
      "inputs": [
        {
          "internalType": "string",
          "name": "",
          "type": "string"
        }
      ],
      "name": "campaignRandomNumber",
      "outputs": [
        {
          "internalType": "uint32",
          "name": "",
          "type": "uint32"
        }
      ],
      "stateMutability": "view",
      "type": "function"
    },
    {
      "inputs": [
        {
          "internalType": "address",
          "name": "",
          "type": "address"
        }
      ],
      "name": "campaigners",
      "outputs": [
        {
          "internalType": "bool",
          "name": "",
          "type": "bool"
        }
      ],
      "stateMutability": "view",
      "type": "function"
    },
    {
      "inputs": [
        {
          "internalType": "address",
          "name": "",
          "type": "address"
        }
      ],
      "name": "nftCampaigner",
      "outputs": [
        {
          "internalType": "uint32",
          "name": "",
          "type": "uint32"
        }
      ],
      "stateMutability": "view",
      "type": "function"
    },
    {
      "inputs": [],
      "name": "owner",
      "outputs": [
        {
          "internalType": "address",
          "name": "",
          "type": "address"
        }
      ],
      "stateMutability": "view",
      "type": "function"
    },
    {
      "inputs": [
        {
          "internalType": "address",
          "name": "",
          "type": "address"
        },
        {
          "internalType": "address",
          "name": "",
          "type": "address"
        },
        {
          "internalType": "uint32",
          "name": "",
          "type": "uint32"
        }
      ],
      "name": "tokenBalances",
      "outputs": [
        {
          "internalType": "uint256",
          "name": "",
          "type": "uint256"
        }
      ],
      "stateMutability": "view",
      "type": "function"
    },
    {
      "inputs": [
        {
          "internalType": "string",
          "name": "",
          "type": "string"
        },
        {
          "internalType": "address",
          "name": "",
          "type": "address"
        },
        {
          "internalType": "uint32",
          "name": "",
          "type": "uint32"
        }
      ],
      "name": "tokenCampaignBalances",
      "outputs": [
        {
          "internalType": "uint256",
          "name": "",
          "type": "uint256"
        }
      ],
      "stateMutability": "view",
      "type": "function"
    },
    {
      "inputs": [
        {
          "internalType": "uint32",
          "name": "",
          "type": "uint32"
        },
        {
          "internalType": "address",
          "name": "",
          "type": "address"
        }
      ],
      "name": "whitelistedToken",
      "outputs": [
        {
          "internalType": "bool",
          "name": "",
          "type": "bool"
        }
      ],
      "stateMutability": "view",
      "type": "function"
    },
    {
      "inputs": [
        {
          "internalType": "address",
          "name": "tokenAddress",
          "type": "address"
        },
        {
          "internalType": "bool",
          "name": "isWhitelisted",
          "type": "bool"
        }
      ],
      "name": "associateToken",
      "outputs": [],
      "stateMutability": "nonpayable",
      "type": "function"
    },
    {
      "inputs": [],
      "name": "getAllWhitelistedTokens",
      "outputs": [
        {
          "internalType": "address[]",
          "name": "",
          "type": "address[]"
        }
      ],
      "stateMutability": "view",
      "type": "function"
    },
    {
      "inputs": [
        {
          "internalType": "address",
          "name": "tokenAddress",
          "type": "address"
        }
      ],
      "name": "isTokenWhitelisted",
      "outputs": [
        {
          "internalType": "bool",
          "name": "",
          "type": "bool"
        }
      ],
      "stateMutability": "view",
      "type": "function"
    },
    {
      "inputs": [
        {
          "internalType": "address",
          "name": "newCampaigner",
          "type": "address"
        }
      ],
      "name": "addCampaigner",
      "outputs": [],
      "stateMutability": "nonpayable",
      "type": "function"
    },
    {
      "inputs": [
        {
          "internalType": "address",
          "name": "campaigner",
          "type": "address"
        },
        {
          "internalType": "address",
          "name": "tokenId",
          "type": "address"
        }
      ],
      "name": "getFungibleTokenBalance",
      "outputs": [
        {
          "internalType": "uint256",
          "name": "res",
          "type": "uint256"
        }
      ],
      "stateMutability": "view",
      "type": "function"
    },
    {
      "inputs": [
        {
          "internalType": "address",
          "name": "campaigner",
          "type": "address"
        }
      ],
      "name": "getHbarBalance",
      "outputs": [
        {
          "internalType": "uint256",
          "name": "res",
          "type": "uint256"
        }
      ],
      "stateMutability": "view",
      "type": "function"
    },
    {
      "inputs": [
        {
          "internalType": "string",
          "name": "campaignAddress",
          "type": "string"
        }
      ],
      "name": "getCampaignBalance",
      "outputs": [
        {
          "internalType": "uint256",
          "name": "",
          "type": "uint256"
        }
      ],
      "stateMutability": "view",
      "type": "function"
    },
    {
      "inputs": [
        {
          "internalType": "string",
          "name": "campaignAddress",
          "type": "string"
        },
        {
          "internalType": "address",
          "name": "tokenId",
          "type": "address"
        }
      ],
      "name": "getFungibleCampaignBalance",
      "outputs": [
        {
          "internalType": "uint256",
          "name": "res",
          "type": "uint256"
        }
      ],
      "stateMutability": "view",
      "type": "function"
    }
  ],
  "bytecode": "0x608060405234801561001057600080fd5b50610fb6806100206000396000f3fe608060405234801561001057600080fd5b506004361061012c5760003560e01c8063694be7e0116100ad5780639a5f0da6116100715780639a5f0da614610305578063b5af090f14610346578063bc3ef1e914610359578063bff319961461037f578063cfe3f9a81461039257600080fd5b8063694be7e014610284578063774256c7146102b55780637c0b8de2146102bd5780638da5cb5b146102c55780639991033c146102f057600080fd5b8063362e34b9116100f4578063362e34b9146101e85780634377e3ff1461021657806343cf9459146102335780634a3b1152146102465780634f18230d1461025957600080fd5b80631102934514610131578063160f9c881461016957806316d343e01461018a5780631b0f32a3146101b357806327e235e3146101c8575b600080fd5b61015461013f366004610b47565b60016020526000908152604090205460ff1681565b60405190151581526020015b60405180910390f35b61017c610177366004610b69565b6103c3565b604051908152602001610160565b61017c610198366004610b47565b6001600160a01b031660009081526002602052604090205490565b6101c66101c1366004610b9c565b6104cf565b005b61017c6101d6366004610b47565b60026020526000908152604090205481565b6101546101f6366004610bec565b600360209081526000928352604080842090915290825290205460ff1681565b61021e600181565b60405163ffffffff9091168152602001610160565b61017c610241366004610cab565b6107e3565b61017c610254366004610cf0565b6108f6565b61017c610267366004610cf0565b805160208183018101805160068252928201919093012091525481565b61017c610292366004610d2d565b600560209081526000938452604080852082529284528284209052825290205481565b61021e600081565b61021e600281565b6000546102d8906001600160a01b031681565b6040516001600160a01b039091168152602001610160565b6102f861095e565b6040516101609190610d70565b61017c610313366004610dbd565b82516020818501810180516007825292820195820195909520919094528352600091825260408083209093528152205481565b610154610354366004610b47565b6109d6565b61021e610367366004610b47565b60096020526000908152604090205463ffffffff1681565b6101c661038d366004610b47565b610a01565b61021e6103a0366004610cf0565b8051602081830181018051600b8252928201919093012091525463ffffffff1681565b6040805180820190915260048152634530303160e01b60208201526000906001600160a01b0383166104115760405162461bcd60e51b81526004016104089190610e28565b60405180910390fd5b506040805180820190915260048152632298181960e11b60208201526001600160a01b0384166104545760405162461bcd60e51b81526004016104089190610e28565b5061045e826109d6565b604051806040016040528060048152602001634530303560e01b815250906104995760405162461bcd60e51b81526004016104089190610e28565b50506001600160a01b03918216600090815260056020908152604080832093909416825291825282812060018252909152205490565b6000546001600160a01b031633146104f95760405162461bcd60e51b815260040161040890610e5b565b6040805180820190915260048152634530303160e01b60208201526001600160a01b03831661053b5760405162461bcd60e51b81526004016104089190610e28565b5080801561056f57506001600160a01b0382166000908152600080516020610f61833981519152602052604090205460ff16155b156105fc57506001600160a01b03166000818152600080516020610f61833981519152602090815260408220805460ff191660019081179091556004909152600080516020610f41833981519152805491820181559091527f210afe6ebef982fa193bb4e17f9f236cdf09af7788627b5d54d9e3e4b100021b0180546001600160a01b0319169091179055565b8015801561062f57506001600160a01b0382166000908152600080516020610f61833981519152602052604090205460ff165b156107df576001600160a01b0382166000908152600080516020610f61833981519152602090815260408220805460ff191690556001825260049052600080516020610f4183398151915254905b818110156107dc5760016000526004602052600080516020610f4183398151915280546001600160a01b0386169190839081106106bc576106bc610eb0565b6000918252602090912001546001600160a01b0316036107ca57600160008190526004602052600080516020610f41833981519152906106fc9084610edc565b8154811061070c5761070c610eb0565b6000918252602080832090910154600190925260049052600080516020610f4183398151915280546001600160a01b03909216918390811061075057610750610eb0565b600091825260208083209190910180546001600160a01b0319166001600160a01b0394909416939093179092556001905260049052600080516020610f418339815191528054806107a3576107a3610ef5565b600082815260209020810160001990810180546001600160a01b03191690550190556107dc565b806107d481610f0b565b91505061067d565b50505b5050565b600080835111604051806040016040528060048152602001632298181960e11b815250906108245760405162461bcd60e51b81526004016104089190610e28565b506040805180820190915260048152634530303160e01b60208201526001600160a01b0383166108675760405162461bcd60e51b81526004016104089190610e28565b50610871826109d6565b604051806040016040528060048152602001634530303560e01b815250906108ac5760405162461bcd60e51b81526004016104089190610e28565b506007836040516108bd9190610f24565b90815260408051602092819003830190206001600160a01b03949094166000908152938252808420600185529091529091205492915050565b600080825111604051806040016040528060048152602001632298181960e11b815250906109375760405162461bcd60e51b81526004016104089190610e28565b506006826040516109489190610f24565b9081526020016040518091039020549050919050565b600160005260046020908152600080516020610f4183398151915280546040805182850281018501909152818152606093909291908301828280156109cc57602002820191906000526020600020905b81546001600160a01b031681526001909101906020018083116109ae575b5050505050905090565b6001600160a01b03166000908152600080516020610f61833981519152602052604090205460ff1690565b6000546001600160a01b03163314610a2b5760405162461bcd60e51b815260040161040890610e5b565b6040805180820190915260048152632298181960e11b60208201526001600160a01b038216610a6d5760405162461bcd60e51b81526004016104089190610e28565b506001600160a01b03811660009081526001602052604090205460ff1615604051806040016040528060048152602001632298181b60e11b81525090610ac65760405162461bcd60e51b81526004016104089190610e28565b506001600160a01b0381166000818152600160208181526040808420805460ff19169093179092556002815281832092909255519182527f3d04fb94919fdfa7708320cdebdf093992d88d792b3d5f4144c364cda00129c6910160405180910390a150565b80356001600160a01b0381168114610b4257600080fd5b919050565b600060208284031215610b5957600080fd5b610b6282610b2b565b9392505050565b60008060408385031215610b7c57600080fd5b610b8583610b2b565b9150610b9360208401610b2b565b90509250929050565b60008060408385031215610baf57600080fd5b610bb883610b2b565b915060208301358015158114610bcd57600080fd5b809150509250929050565b803563ffffffff81168114610b4257600080fd5b60008060408385031215610bff57600080fd5b610b8583610bd8565b634e487b7160e01b600052604160045260246000fd5b600082601f830112610c2f57600080fd5b813567ffffffffffffffff80821115610c4a57610c4a610c08565b604051601f8301601f19908116603f01168101908282118183101715610c7257610c72610c08565b81604052838152866020858801011115610c8b57600080fd5b836020870160208301376000602085830101528094505050505092915050565b60008060408385031215610cbe57600080fd5b823567ffffffffffffffff811115610cd557600080fd5b610ce185828601610c1e565b925050610b9360208401610b2b565b600060208284031215610d0257600080fd5b813567ffffffffffffffff811115610d1957600080fd5b610d2584828501610c1e565b949350505050565b600080600060608486031215610d4257600080fd5b610d4b84610b2b565b9250610d5960208501610b2b565b9150610d6760408501610bd8565b90509250925092565b6020808252825182820181905260009190848201906040850190845b81811015610db15783516001600160a01b031683529284019291840191600101610d8c565b50909695505050505050565b600080600060608486031215610dd257600080fd5b833567ffffffffffffffff811115610de957600080fd5b610df586828701610c1e565b935050610d5960208501610b2b565b60005b83811015610e1f578181015183820152602001610e07565b50506000910152565b6020815260008251806020840152610e47816040850160208701610e04565b601f01601f19169190910160400192915050565b60208082526035908201527f556e617574686f72697a6520416363657373207265717565737465642c204361604082015274363632b91034b9903737ba103a34329037bbb732b960591b606082015260800190565b634e487b7160e01b600052603260045260246000fd5b634e487b7160e01b600052601160045260246000fd5b81810381811115610eef57610eef610ec6565b92915050565b634e487b7160e01b600052603160045260246000fd5b600060018201610f1d57610f1d610ec6565b5060010190565b60008251610f36818460208701610e04565b919091019291505056feabd6e7cb50984ff9c2f3e18a2660c3353dadf4e3291deeb275dae2cd1e44fe05a15bc60c955c405d20d9149c709e2460f1c2d9a497496a7f46004d1772c3054ca26469706673582212202b563f4c6ae90a4948a44016acabf1237ad2f5718e2d29d5c82b5db50ed60eda64736f6c63430008110033",
  "immutableReferences": {},
  "source": "// SPDX-License-Identifier: Apache-2.0\npragma solidity ^0.8.17;\n\nimport \"./HashbuzzStates.sol\";\n/**\n * @dev This contract is used to store the state of the Hashbuzz contract\n * @title Utils\n * @author Om Prakash\n * @notice Deals with operations related to transactions.\n */\n\ncontract Utils is HashbuzzStates {\n    /**\n     * @dev Adds or removes a token from the whitelist.\n     * @param tokenAddress The address of the token.\n     * @param isWhitelisted Boolean flag to mark the token as whitelisted or not.\n     */\n    function associateToken(\n        address tokenAddress,\n        bool isWhitelisted\n    ) public onlyOwner {\n        require(tokenAddress != address(0), ERR_INVALID_TOKEN_ADDRESS);\n        if (isWhitelisted && !whitelistedToken[FUNGIBLE][tokenAddress]) {\n            // Add to whitelist if not already whitelisted\n            whitelistedToken[FUNGIBLE][tokenAddress] = true;\n            whitelistedTokenAddresses[FUNGIBLE].push(tokenAddress);\n        } else if (!isWhitelisted && whitelistedToken[FUNGIBLE][tokenAddress]) {\n            // Remove from whitelist if currently whitelisted\n            whitelistedToken[FUNGIBLE][tokenAddress] = false;\n\n            // Remove address from whitelistedAddresses array\n            uint256 length = whitelistedTokenAddresses[FUNGIBLE].length;\n            for (uint256 i = 0; i < length; i++) {\n                if (whitelistedTokenAddresses[FUNGIBLE][i] == tokenAddress) {\n                    whitelistedTokenAddresses[FUNGIBLE][\n                        i\n                    ] = whitelistedTokenAddresses[FUNGIBLE][length - 1];\n                    whitelistedTokenAddresses[FUNGIBLE].pop();\n                    break;\n                }\n            }\n        }\n    }\n\n    /**\n     * @dev Retrieves all whitelisted addresses for a given token type.\n     * @return An array of addresses that are whitelisted for the given token type.\n     */\n    function getAllWhitelistedTokens() public view returns (address[] memory) {\n        return whitelistedTokenAddresses[FUNGIBLE];\n    }\n\n    /**\n     * @dev Checks if a specific token address is whitelisted for a given token type.\n     * @param tokenAddress The address of the token to check.\n     * @return Boolean flag indicating if the token is whitelisted.\n     */\n    function isTokenWhitelisted(\n        address tokenAddress\n    ) public view returns (bool) {\n        return whitelistedToken[FUNGIBLE][tokenAddress];\n    }\n\n    /**\n     * @dev Whitelist cmapigner to the user.\n     * @param newCampaigner Address of the user having campaigner role to be used here\n     */\n    function addCampaigner(address newCampaigner) public onlyOwner {\n        require(newCampaigner != address(0), ERR_INVALID_CAMPAIGN_ADDRESS);\n        require(!isCampaigner(newCampaigner), ERR_CAMPAIGN_ALREADY_EXISTS);\n        campaigners[newCampaigner] = true;\n        balances[newCampaigner] = 0;\n        emit CampaignerAdded(newCampaigner);\n    }\n\n    /**\n     * @dev Retrieves the balance of a fungible token for a specific campaigner.\n     * @param campaigner Address of the campaigner's solidity address.\n     * @param tokenId Solidity address used for the account.\n     * @return res The balance of the fungible token.\n     */\n    function getFungibleTokenBalance(\n        address campaigner,\n        address tokenId\n    ) public view returns (uint256 res) {\n        require(tokenId != address(0), ERR_INVALID_TOKEN_ADDRESS);\n        require(campaigner != address(0), ERR_INVALID_CAMPAIGN_ADDRESS);\n        require(isTokenWhitelisted(tokenId), ERR_TOKEN_NOT_WHITELISTED);\n        res = tokenBalances[campaigner][tokenId][FUNGIBLE];\n    }\n\n    /**\n     * @dev Balance holded by the user to see.\n     * @param campaigner Solidity address of the campaigner.\n     */\n    function getHbarBalance(\n        address campaigner\n    ) public view returns (uint256 res) {\n        res = balances[campaigner];\n    }\n\n    /** Campaign Specific balance for the campaigners */\n    /**\n     * @dev Balance alloted to the camppaign to see.\n     * @param campaignAddress campaign string id.\n     */\n    function getCampaignBalance(\n        string memory campaignAddress\n    ) public view returns (uint256) {\n        require(\n            bytes(campaignAddress).length > 0,\n            ERR_INVALID_CAMPAIGN_ADDRESS\n        );\n        return campaignBalances[campaignAddress];\n    }\n\n    /** Campaign Specific balance for the campaigners */\n    /**\n     * @dev Token balance held by the campaign.\n     * @param campaignAddress Campaign string ID.\n     * @param tokenId Solidity address of the token.\n     * @return res The balance of the fungible token for the campaign.\n     */\n    function getFungibleCampaignBalance(\n        string memory campaignAddress,\n        address tokenId\n    ) public view returns (uint256 res) {\n        require(\n            bytes(campaignAddress).length > 0,\n            ERR_INVALID_CAMPAIGN_ADDRESS\n        );\n        require(tokenId != address(0), ERR_INVALID_TOKEN_ADDRESS);\n        require(isTokenWhitelisted(tokenId), ERR_TOKEN_NOT_WHITELISTED);\n\n        res = tokenCampaignBalances[campaignAddress][tokenId][FUNGIBLE];\n    }\n}\n",
  "sourcePath": "/Users/ahmed/Desktop/hashbuzz_code/smv201/contracts/HashbuzzModules/Utils.sol",
  "compiler": {
    "name": "solc",
    "version": "0.8.17+commit.8df45f5f.Emscripten.clang"
  },
  "schemaVersion": "3.4.16",
  "updatedAt": "2024-12-05T13:53:54.881Z",
  "devdoc": {
    "author": "Om Prakash",
    "details": "This contract is used to store the state of the Hashbuzz contract",
    "kind": "dev",
    "methods": {
      "addCampaigner(address)": {
        "details": "Whitelist cmapigner to the user.",
        "params": {
          "newCampaigner": "Address of the user having campaigner role to be used here"
        }
      },
      "associateToken(address,bool)": {
        "details": "Adds or removes a token from the whitelist.",
        "params": {
          "isWhitelisted": "Boolean flag to mark the token as whitelisted or not.",
          "tokenAddress": "The address of the token."
        }
      },
      "getAllWhitelistedTokens()": {
        "details": "Retrieves all whitelisted addresses for a given token type.",
        "returns": {
          "_0": "An array of addresses that are whitelisted for the given token type."
        }
      },
      "getCampaignBalance(string)": {
        "details": "Balance alloted to the camppaign to see.",
        "params": {
          "campaignAddress": "campaign string id."
        }
      },
      "getFungibleCampaignBalance(string,address)": {
        "details": "Token balance held by the campaign.",
        "params": {
          "campaignAddress": "Campaign string ID.",
          "tokenId": "Solidity address of the token."
        },
        "returns": {
          "res": "The balance of the fungible token for the campaign."
        }
      },
      "getFungibleTokenBalance(address,address)": {
        "details": "Retrieves the balance of a fungible token for a specific campaigner.",
        "params": {
          "campaigner": "Address of the campaigner's solidity address.",
          "tokenId": "Solidity address used for the account."
        },
        "returns": {
          "res": "The balance of the fungible token."
        }
      },
      "getHbarBalance(address)": {
        "details": "Balance holded by the user to see.",
        "params": {
          "campaigner": "Solidity address of the campaigner."
        }
      },
      "isTokenWhitelisted(address)": {
        "details": "Checks if a specific token address is whitelisted for a given token type.",
        "params": {
          "tokenAddress": "The address of the token to check."
        },
        "returns": {
          "_0": "Boolean flag indicating if the token is whitelisted."
        }
      }
    },
    "title": "Utils",
    "version": 1
  },
  "userdoc": {
    "kind": "user",
    "methods": {},
    "notice": "Deals with operations related to transactions.",
    "version": 1
  }
}