{
  "contractName": "Lifecycle",
  "abi": [
    {
      "anonymous": false,
      "inputs": [
        {
          "indexed": false,
          "internalType": "address",
          "name": "campaigner",
          "type": "address"
        },
        {
          "indexed": false,
          "internalType": "uint256",
          "name": "updatedBalance",
          "type": "uint256"
        }
      ],
      "name": "BalanceUpdated",
      "type": "event"
    },
    {
      "anonymous": false,
      "inputs": [
        {
          "indexed": false,
          "internalType": "string",
          "name": "campaignAddress",
          "type": "string"
        },
        {
          "indexed": false,
          "internalType": "uint256",
          "name": "amount",
          "type": "uint256"
        },
        {
          "indexed": false,
          "internalType": "uint32",
          "name": "tokenType",
          "type": "uint32"
        }
      ],
      "name": "CampaignToppedUp",
      "type": "event"
    },
    {
      "anonymous": false,
      "inputs": [
        {
          "indexed": false,
          "internalType": "address",
          "name": "campaigner",
          "type": "address"
        }
      ],
      "name": "CampaignerAdded",
      "type": "event"
    },
    {
      "anonymous": false,
      "inputs": [
        {
          "indexed": false,
          "internalType": "address",
          "name": "campaigner",
          "type": "address"
        }
      ],
      "name": "CampaignerDeleted",
      "type": "event"
    },
    {
      "anonymous": false,
      "inputs": [
        {
          "indexed": false,
          "internalType": "address",
          "name": "tokenAddress",
          "type": "address"
        }
      ],
      "name": "CreatedToken",
      "type": "event"
    },
    {
      "anonymous": false,
      "inputs": [
        {
          "indexed": false,
          "internalType": "address",
          "name": "campaigner",
          "type": "address"
        },
        {
          "indexed": false,
          "internalType": "uint256",
          "name": "amount",
          "type": "uint256"
        }
      ],
      "name": "FundsDeposited",
      "type": "event"
    },
    {
      "anonymous": false,
      "inputs": [
        {
          "indexed": false,
          "internalType": "address",
          "name": "campaigner",
          "type": "address"
        },
        {
          "indexed": false,
          "internalType": "uint256",
          "name": "amount",
          "type": "uint256"
        }
      ],
      "name": "FundsWithdrawn",
      "type": "event"
    },
    {
      "anonymous": false,
      "inputs": [
        {
          "indexed": false,
          "internalType": "address",
          "name": "campaigner",
          "type": "address"
        },
        {
          "indexed": false,
          "internalType": "address",
          "name": "tokenId",
          "type": "address"
        },
        {
          "indexed": false,
          "internalType": "uint256",
          "name": "updatedBalance",
          "type": "uint256"
        }
      ],
      "name": "FungibleTokenBalanceUpdated",
      "type": "event"
    },
    {
      "anonymous": false,
      "inputs": [
        {
          "indexed": false,
          "internalType": "address",
          "name": "campaigner",
          "type": "address"
        },
        {
          "indexed": false,
          "internalType": "uint256",
          "name": "amount",
          "type": "uint256"
        }
      ],
      "name": "FungibleTokenDeposited",
      "type": "event"
    },
    {
      "anonymous": false,
      "inputs": [
        {
          "indexed": false,
          "internalType": "address",
          "name": "interactor",
          "type": "address"
        },
        {
          "indexed": false,
          "internalType": "address",
          "name": "campaigner",
          "type": "address"
        },
        {
          "indexed": false,
          "internalType": "uint256",
          "name": "amount",
          "type": "uint256"
        }
      ],
      "name": "InteractorPaid",
      "type": "event"
    },
    {
      "anonymous": false,
      "inputs": [
        {
          "indexed": false,
          "internalType": "string",
          "name": "campaignAddress",
          "type": "string"
        },
        {
          "indexed": false,
          "internalType": "uint256",
          "name": "amount",
          "type": "uint256"
        }
      ],
      "name": "InteractorPaidDeferred",
      "type": "event"
    },
    {
      "anonymous": false,
      "inputs": [
        {
          "indexed": false,
          "internalType": "string",
          "name": "campaignAdddress",
          "type": "string"
        },
        {
          "indexed": false,
          "internalType": "uint256",
          "name": "amount",
          "type": "uint256"
        },
        {
          "indexed": false,
          "internalType": "uint32",
          "name": "campaignType",
          "type": "uint32"
        }
      ],
      "name": "NewCampaignIsAdded",
      "type": "event"
    },
    {
      "anonymous": false,
      "inputs": [
        {
          "indexed": false,
          "internalType": "address",
          "name": "owner",
          "type": "address"
        }
      ],
      "name": "OwnerSet",
      "type": "event"
    },
    {
      "anonymous": false,
      "inputs": [
        {
          "indexed": false,
          "internalType": "int256",
          "name": "responseCode",
          "type": "int256"
        }
      ],
      "name": "ResponseCode",
      "type": "event"
    },
    {
      "anonymous": false,
      "inputs": [
        {
          "indexed": false,
          "internalType": "string",
          "name": "campaignAddress",
          "type": "string"
        },
        {
          "indexed": false,
          "internalType": "uint256",
          "name": "totalAmount",
          "type": "uint256"
        },
        {
          "indexed": false,
          "internalType": "uint256",
          "name": "remainingBalance",
          "type": "uint256"
        }
      ],
      "name": "RewardsDistributed",
      "type": "event"
    },
    {
      "anonymous": false,
      "inputs": [
        {
          "indexed": false,
          "internalType": "string",
          "name": "campaignAddress",
          "type": "string"
        },
        {
          "indexed": false,
          "internalType": "uint32",
          "name": "campaignType",
          "type": "uint32"
        }
      ],
      "name": "campaignClosed",
      "type": "event"
    },
    {
      "anonymous": false,
      "inputs": [
        {
          "indexed": false,
          "internalType": "string",
          "name": "campaignAddress",
          "type": "string"
        },
        {
          "indexed": false,
          "internalType": "uint32",
          "name": "campaignType",
          "type": "uint32"
        }
      ],
      "name": "campaignExpired",
      "type": "event"
    },
    {
      "inputs": [],
      "name": "FUNGIBLE",
      "outputs": [
        {
          "internalType": "uint32",
          "name": "",
          "type": "uint32"
        }
      ],
      "stateMutability": "view",
      "type": "function"
    },
    {
      "inputs": [],
      "name": "HBAR",
      "outputs": [
        {
          "internalType": "uint32",
          "name": "",
          "type": "uint32"
        }
      ],
      "stateMutability": "view",
      "type": "function"
    },
    {
      "inputs": [],
      "name": "NFT",
      "outputs": [
        {
          "internalType": "uint32",
          "name": "",
          "type": "uint32"
        }
      ],
      "stateMutability": "view",
      "type": "function"
    },
    {
      "inputs": [
        {
          "internalType": "address",
          "name": "newCampaigner",
          "type": "address"
        }
      ],
      "name": "addCampaigner",
      "outputs": [],
      "stateMutability": "nonpayable",
      "type": "function"
    },
    {
      "inputs": [
        {
          "internalType": "address",
          "name": "tokenAddress",
          "type": "address"
        },
        {
          "internalType": "bool",
          "name": "isWhitelisted",
          "type": "bool"
        }
      ],
      "name": "associateToken",
      "outputs": [],
      "stateMutability": "nonpayable",
      "type": "function"
    },
    {
      "inputs": [
        {
          "internalType": "address",
          "name": "",
          "type": "address"
        }
      ],
      "name": "balances",
      "outputs": [
        {
          "internalType": "uint256",
          "name": "",
          "type": "uint256"
        }
      ],
      "stateMutability": "view",
      "type": "function"
    },
    {
      "inputs": [
        {
          "internalType": "string",
          "name": "",
          "type": "string"
        }
      ],
      "name": "campaignBalances",
      "outputs": [
        {
          "internalType": "uint256",
          "name": "",
          "type": "uint256"
        }
      ],
      "stateMutability": "view",
      "type": "function"
    },
    {
      "inputs": [
        {
          "internalType": "string",
          "name": "",
          "type": "string"
        }
      ],
      "name": "campaignRandomNumber",
      "outputs": [
        {
          "internalType": "uint32",
          "name": "",
          "type": "uint32"
        }
      ],
      "stateMutability": "view",
      "type": "function"
    },
    {
      "inputs": [
        {
          "internalType": "address",
          "name": "",
          "type": "address"
        }
      ],
      "name": "campaigners",
      "outputs": [
        {
          "internalType": "bool",
          "name": "",
          "type": "bool"
        }
      ],
      "stateMutability": "view",
      "type": "function"
    },
    {
      "inputs": [],
      "name": "getAllWhitelistedTokens",
      "outputs": [
        {
          "internalType": "address[]",
          "name": "",
          "type": "address[]"
        }
      ],
      "stateMutability": "view",
      "type": "function"
    },
    {
      "inputs": [
        {
          "internalType": "string",
          "name": "campaignAddress",
          "type": "string"
        }
      ],
      "name": "getCampaignBalance",
      "outputs": [
        {
          "internalType": "uint256",
          "name": "",
          "type": "uint256"
        }
      ],
      "stateMutability": "view",
      "type": "function"
    },
    {
      "inputs": [
        {
          "internalType": "string",
          "name": "campaignAddress",
          "type": "string"
        },
        {
          "internalType": "address",
          "name": "tokenId",
          "type": "address"
        }
      ],
      "name": "getFungibleCampaignBalance",
      "outputs": [
        {
          "internalType": "uint256",
          "name": "res",
          "type": "uint256"
        }
      ],
      "stateMutability": "view",
      "type": "function"
    },
    {
      "inputs": [
        {
          "internalType": "address",
          "name": "campaigner",
          "type": "address"
        },
        {
          "internalType": "address",
          "name": "tokenId",
          "type": "address"
        }
      ],
      "name": "getFungibleTokenBalance",
      "outputs": [
        {
          "internalType": "uint256",
          "name": "res",
          "type": "uint256"
        }
      ],
      "stateMutability": "view",
      "type": "function"
    },
    {
      "inputs": [
        {
          "internalType": "address",
          "name": "campaigner",
          "type": "address"
        }
      ],
      "name": "getHbarBalance",
      "outputs": [
        {
          "internalType": "uint256",
          "name": "res",
          "type": "uint256"
        }
      ],
      "stateMutability": "view",
      "type": "function"
    },
    {
      "inputs": [
        {
          "internalType": "address",
          "name": "tokenAddress",
          "type": "address"
        }
      ],
      "name": "isTokenWhitelisted",
      "outputs": [
        {
          "internalType": "bool",
          "name": "",
          "type": "bool"
        }
      ],
      "stateMutability": "view",
      "type": "function"
    },
    {
      "inputs": [
        {
          "internalType": "address",
          "name": "",
          "type": "address"
        }
      ],
      "name": "nftCampaigner",
      "outputs": [
        {
          "internalType": "uint32",
          "name": "",
          "type": "uint32"
        }
      ],
      "stateMutability": "view",
      "type": "function"
    },
    {
      "inputs": [],
      "name": "owner",
      "outputs": [
        {
          "internalType": "address",
          "name": "",
          "type": "address"
        }
      ],
      "stateMutability": "view",
      "type": "function"
    },
    {
      "inputs": [
        {
          "internalType": "address",
          "name": "",
          "type": "address"
        },
        {
          "internalType": "address",
          "name": "",
          "type": "address"
        },
        {
          "internalType": "uint32",
          "name": "",
          "type": "uint32"
        }
      ],
      "name": "tokenBalances",
      "outputs": [
        {
          "internalType": "uint256",
          "name": "",
          "type": "uint256"
        }
      ],
      "stateMutability": "view",
      "type": "function"
    },
    {
      "inputs": [
        {
          "internalType": "string",
          "name": "",
          "type": "string"
        },
        {
          "internalType": "address",
          "name": "",
          "type": "address"
        },
        {
          "internalType": "uint32",
          "name": "",
          "type": "uint32"
        }
      ],
      "name": "tokenCampaignBalances",
      "outputs": [
        {
          "internalType": "uint256",
          "name": "",
          "type": "uint256"
        }
      ],
      "stateMutability": "view",
      "type": "function"
    },
    {
      "inputs": [
        {
          "internalType": "uint32",
          "name": "",
          "type": "uint32"
        },
        {
          "internalType": "address",
          "name": "",
          "type": "address"
        }
      ],
      "name": "whitelistedToken",
      "outputs": [
        {
          "internalType": "bool",
          "name": "",
          "type": "bool"
        }
      ],
      "stateMutability": "view",
      "type": "function"
    },
    {
      "inputs": [
        {
          "internalType": "string",
          "name": "campaignAddress",
          "type": "string"
        },
        {
          "internalType": "address",
          "name": "campaigner",
          "type": "address"
        },
        {
          "internalType": "uint256",
          "name": "amount",
          "type": "uint256"
        }
      ],
      "name": "addCampaignOrTopUp",
      "outputs": [
        {
          "internalType": "uint256",
          "name": "",
          "type": "uint256"
        }
      ],
      "stateMutability": "nonpayable",
      "type": "function"
    },
    {
      "inputs": [
        {
          "internalType": "address",
          "name": "tokenId",
          "type": "address"
        },
        {
          "internalType": "string",
          "name": "campaignAddress",
          "type": "string"
        },
        {
          "internalType": "address",
          "name": "campaigner",
          "type": "address"
        },
        {
          "internalType": "uint256",
          "name": "tokenAmount",
          "type": "uint256"
        }
      ],
      "name": "addFungibleCampaign",
      "outputs": [
        {
          "internalType": "uint256",
          "name": "",
          "type": "uint256"
        }
      ],
      "stateMutability": "nonpayable",
      "type": "function"
    },
    {
      "inputs": [
        {
          "internalType": "string",
          "name": "campaignAddress",
          "type": "string"
        },
        {
          "internalType": "uint256",
          "name": "campaignExpiryTime",
          "type": "uint256"
        }
      ],
      "name": "closeCampaign",
      "outputs": [],
      "stateMutability": "nonpayable",
      "type": "function"
    },
    {
      "inputs": [
        {
          "internalType": "string",
          "name": "campaignAddress",
          "type": "string"
        },
        {
          "internalType": "uint256",
          "name": "campaignExpiryTime",
          "type": "uint256"
        }
      ],
      "name": "closeFungibleCampaign",
      "outputs": [],
      "stateMutability": "nonpayable",
      "type": "function"
    },
    {
      "inputs": [
        {
          "internalType": "address",
          "name": "campaigner",
          "type": "address"
        },
        {
          "internalType": "string",
          "name": "campaignAddress",
          "type": "string"
        },
        {
          "internalType": "uint256",
          "name": "totalAmount",
          "type": "uint256"
        }
      ],
      "name": "adjustTotalReward",
      "outputs": [
        {
          "internalType": "uint256",
          "name": "",
          "type": "uint256"
        }
      ],
      "stateMutability": "nonpayable",
      "type": "function"
    },
    {
      "inputs": [
        {
          "internalType": "address",
          "name": "tokenId",
          "type": "address"
        },
        {
          "internalType": "address",
          "name": "campaigner",
          "type": "address"
        },
        {
          "internalType": "string",
          "name": "campaignAddress",
          "type": "string"
        },
        {
          "internalType": "uint256",
          "name": "tokenTotalAmount",
          "type": "uint256"
        }
      ],
      "name": "adjustTotalFungibleReward",
      "outputs": [
        {
          "internalType": "uint256",
          "name": "",
          "type": "uint256"
        }
      ],
      "stateMutability": "nonpayable",
      "type": "function"
    },
    {
      "inputs": [
        {
          "internalType": "address",
          "name": "tokenId",
          "type": "address"
        },
        {
          "internalType": "string",
          "name": "campaignAddress",
          "type": "string"
        },
        {
          "internalType": "address",
          "name": "campaigner",
          "type": "address"
        }
      ],
      "name": "expiryFungibleCampaign",
      "outputs": [
        {
          "internalType": "uint256",
          "name": "",
          "type": "uint256"
        }
      ],
      "stateMutability": "nonpayable",
      "type": "function"
    },
    {
      "inputs": [
        {
          "internalType": "string",
          "name": "campaignAddress",
          "type": "string"
        },
        {
          "internalType": "address",
          "name": "campaigner",
          "type": "address"
        }
      ],
      "name": "expiryCampaign",
      "outputs": [
        {
          "internalType": "uint256",
          "name": "",
          "type": "uint256"
        }
      ],
      "stateMutability": "nonpayable",
      "type": "function"
    }
  ],
  "bytecode": "0x608060405234801561001057600080fd5b50612765806100206000396000f3fe608060405234801561001057600080fd5b50600436106101c45760003560e01c80637b7fc677116100f9578063b466613011610097578063bc3ef1e911610071578063bc3ef1e914610476578063bc4627001461049c578063bff31996146104af578063cfe3f9a8146104c257600080fd5b8063b46661301461043d578063b5af090f14610450578063b99425241461046357600080fd5b80639991033c116100d35780639991033c146103c15780639a5f0da6146103d65780639de3d8ba14610417578063a7c7b1821461042a57600080fd5b80637b7fc6771461037b5780637c0b8de21461038e5780638da5cb5b1461039657600080fd5b80634377e3ff116101665780634a3b1152116101405780634a3b1152146103045780634f18230d14610317578063694be7e014610342578063774256c71461037357600080fd5b80634377e3ff146102c157806343cf9459146102de57806344131d2f146102f157600080fd5b80631b0f32a3116101a25780631b0f32a31461024b57806327e235e314610260578063325c901914610280578063362e34b91461029357600080fd5b806311029345146101c9578063160f9c881461020157806316d343e014610222575b600080fd5b6101ec6101d7366004612055565b60016020526000908152604090205460ff1681565b60405190151581526020015b60405180910390f35b61021461020f366004612077565b6104f3565b6040519081526020016101f8565b610214610230366004612055565b6001600160a01b031660009081526002602052604090205490565b61025e6102593660046120aa565b6105ff565b005b61021461026e366004612055565b60026020526000908152604090205481565b61021461028e366004612189565b610913565b6101ec6102a1366004612203565b600360209081526000928352604080842090915290825290205460ff1681565b6102c9600181565b60405163ffffffff90911681526020016101f8565b6102146102ec36600461221f565b610b87565b6102146102ff366004612264565b610c9a565b6102146103123660046122ca565b611055565b6102146103253660046122ca565b805160208183018101805160068252928201919093012091525481565b6102146103503660046122ff565b600560209081526000938452604080852082529284528284209052825290205481565b6102c9600081565b610214610389366004612342565b6110bd565b6102c9600281565b6000546103a9906001600160a01b031681565b6040516001600160a01b0390911681526020016101f8565b6103c9611316565b6040516101f89190612399565b6102146103e43660046123e6565b82516020818501810180516007825292820195820195909520919094528352600091825260408083209093528152205481565b61021461042536600461242d565b61138e565b61021461043836600461221f565b61169f565b61025e61044b366004612482565b6118f1565b6101ec61045e366004612055565b611aa9565b6102146104713660046124c7565b611ad4565b6102c9610484366004612055565b60096020526000908152604090205463ffffffff1681565b61025e6104aa366004612482565b611d44565b61025e6104bd366004612055565b611f04565b6102c96104d03660046122ca565b8051602081830181018051600b8252928201919093012091525463ffffffff1681565b6040805180820190915260048152634530303160e01b60208201526000906001600160a01b0383166105415760405162461bcd60e51b8152600401610538919061256e565b60405180910390fd5b506040805180820190915260048152632298181960e11b60208201526001600160a01b0384166105845760405162461bcd60e51b8152600401610538919061256e565b5061058e82611aa9565b604051806040016040528060048152602001634530303560e01b815250906105c95760405162461bcd60e51b8152600401610538919061256e565b50506001600160a01b03918216600090815260056020908152604080832093909416825291825282812060018252909152205490565b6000546001600160a01b031633146106295760405162461bcd60e51b815260040161053890612581565b6040805180820190915260048152634530303160e01b60208201526001600160a01b03831661066b5760405162461bcd60e51b8152600401610538919061256e565b5080801561069f57506001600160a01b0382166000908152600080516020612710833981519152602052604090205460ff16155b1561072c57506001600160a01b03166000818152600080516020612710833981519152602090815260408220805460ff1916600190811790915560049091526000805160206126f0833981519152805491820181559091527f210afe6ebef982fa193bb4e17f9f236cdf09af7788627b5d54d9e3e4b100021b0180546001600160a01b0319169091179055565b8015801561075f57506001600160a01b0382166000908152600080516020612710833981519152602052604090205460ff165b1561090f576001600160a01b0382166000908152600080516020612710833981519152602090815260408220805460ff1916905560018252600490526000805160206126f083398151915254905b8181101561090c57600160005260046020526000805160206126f083398151915280546001600160a01b0386169190839081106107ec576107ec6125d6565b6000918252602090912001546001600160a01b0316036108fa576001600081905260046020526000805160206126f08339815191529061082c9084612602565b8154811061083c5761083c6125d6565b60009182526020808320909101546001909252600490526000805160206126f083398151915280546001600160a01b039092169183908110610880576108806125d6565b600091825260208083209190910180546001600160a01b0319166001600160a01b03949094169390931790925560019052600490526000805160206126f08339815191528054806108d3576108d3612615565b600082815260209020810160001990810180546001600160a01b031916905501905561090c565b806109048161262b565b9150506107ad565b50505b5050565b600080546001600160a01b0316331461093e5760405162461bcd60e51b815260040161053890612581565b61094785611aa9565b604051806040016040528060048152602001634530303560e01b815250906109825760405162461bcd60e51b8152600401610538919061256e565b5061098c8461201b565b604051806040016040528060048152602001634530303360e01b815250906109c75760405162461bcd60e51b8152600401610538919061256e565b506000835111604051806040016040528060048152602001632298181960e11b81525090610a085760405162461bcd60e51b8152600401610538919061256e565b506040805180820190915260048152634530313160e01b602082015282610a425760405162461bcd60e51b8152600401610538919061256e565b50600a83604051610a539190612644565b90815260408051918290036020908101832060016000908152908252829020548383019092526004835263114c0c0d60e21b9083015260ff16610aa95760405162461bcd60e51b8152600401610538919061256e565b5081600784604051610abb9190612644565b90815260408051602092819003830190206001600160a01b03891660009081529083528181206001825290925281208054909190610afa908490612602565b925050819055506000600784604051610b139190612644565b9081526040805191829003602090810183206001600160a01b038a16600090815290825282812060018252909152205491507f037378c439105dd07d1db6d59a47347ea8f734a0835509a3820255c8be11cea090610b7690869086908590612660565b60405180910390a195945050505050565b600080835111604051806040016040528060048152602001632298181960e11b81525090610bc85760405162461bcd60e51b8152600401610538919061256e565b506040805180820190915260048152634530303160e01b60208201526001600160a01b038316610c0b5760405162461bcd60e51b8152600401610538919061256e565b50610c1582611aa9565b604051806040016040528060048152602001634530303560e01b81525090610c505760405162461bcd60e51b8152600401610538919061256e565b50600783604051610c619190612644565b90815260408051602092819003830190206001600160a01b03949094166000908152938252808420600185529091529091205492915050565b600080546001600160a01b03163314610cc55760405162461bcd60e51b815260040161053890612581565b6040805180820190915260048152634530303160e01b60208201526001600160a01b038616610d075760405162461bcd60e51b8152600401610538919061256e565b50610d1185611aa9565b604051806040016040528060048152602001634530303560e01b81525090610d4c5760405162461bcd60e51b8152600401610538919061256e565b506000845111604051806040016040528060048152602001632298181960e11b81525090610d8d5760405162461bcd60e51b8152600401610538919061256e565b50610d978361201b565b604051806040016040528060048152602001634530303360e01b81525090610dd25760405162461bcd60e51b8152600401610538919061256e565b506040805180820190915260048152634530313160e01b602082015282610e0c5760405162461bcd60e51b8152600401610538919061256e565b506001600160a01b038084166000908152600560209081526040808320938916835292815282822060018352815290829020548251808401909352600483526308a6060760e31b91830191909152831115610e7a5760405162461bcd60e51b8152600401610538919061256e565b506001600160a01b03808416600090815260056020908152604080832093891683529281528282206001835290529081208054849290610ebb908490612602565b9250508190555081600785604051610ed39190612644565b90815260408051602092819003830190206001600160a01b03891660009081529083528181206001825290925281208054909190610f12908490612685565b90915550506001600160a01b03808416600090815260056020908152604080832093891683529281528282206001835290528190205490518390600790610f5a908890612644565b90815260408051602092819003830190206001600160a01b038a1660009081529083528181206001825290925290205403610fd0577f0674090a69c67762650abcd64d1bc896d06756b85c925a9f28e97a30487db3ae85846001604051610fc393929190612698565b60405180910390a161100d565b7f64ef3840fadd155a2d8cb45b5f007ed1273c96ca6026ee12008d0809aa77eef78584600160405161100493929190612698565b60405180910390a15b604080516001600160a01b038087168252881660208201529081018290527f8fe0e0da907ac8f437ef47e4203196ea7ddf12675b81ad2e6553bb69314e1e2390606001610b76565b600080825111604051806040016040528060048152602001632298181960e11b815250906110965760405162461bcd60e51b8152600401610538919061256e565b506006826040516110a79190612644565b9081526020016040518091039020549050919050565b600080546001600160a01b031633146110e85760405162461bcd60e51b815260040161053890612581565b6110f18461201b565b604051806040016040528060048152602001634530303360e01b8152509061112c5760405162461bcd60e51b8152600401610538919061256e565b506000835111604051806040016040528060048152602001632298181960e11b8152509061116d5760405162461bcd60e51b8152600401610538919061256e565b506040805180820190915260048152634530313160e01b6020820152826111a75760405162461bcd60e51b8152600401610538919061256e565b50600a836040516111b89190612644565b9081526040805191829003602090810183206000808052908252829020548383019092526004835263114c0c0d60e21b9083015260ff1661120c5760405162461bcd60e51b8152600401610538919061256e565b508160068460405161121e9190612644565b908152602001604051809103902054101561127b5760405162461bcd60e51b815260206004820152601d60248201527f496e73756666696369656e742063616d706169676e2062616c616e63650000006044820152606401610538565b8160068460405161128c9190612644565b908152602001604051809103902060008282546112a99190612602565b9250508190555060006006846040516112c29190612644565b90815260200160405180910390205490507f037378c439105dd07d1db6d59a47347ea8f734a0835509a3820255c8be11cea084848360405161130693929190612660565b60405180910390a1949350505050565b6001600052600460209081526000805160206126f0833981519152805460408051828502810185019091528181526060939092919083018282801561138457602002820191906000526020600020905b81546001600160a01b03168152600190910190602001808311611366575b5050505050905090565b600080546001600160a01b031633146113b95760405162461bcd60e51b815260040161053890612581565b6040805180820190915260048152634530303160e01b60208201526001600160a01b0385166113fb5760405162461bcd60e51b8152600401610538919061256e565b5061140584611aa9565b604051806040016040528060048152602001634530303560e01b815250906114405760405162461bcd60e51b8152600401610538919061256e565b506000835111604051806040016040528060048152602001632298181960e11b815250906114815760405162461bcd60e51b8152600401610538919061256e565b5061148b8261201b565b604051806040016040528060048152602001634530303360e01b815250906114c65760405162461bcd60e51b8152600401610538919061256e565b50600a836040516114d79190612644565b90815260408051918290036020908101832060016000908152908252829020548383019092526004835263114c0c0d60e21b9083015260ff1661152d5760405162461bcd60e51b8152600401610538919061256e565b5060088360405161153e9190612644565b908152604080519182900360209081018320600160009081529082528290205483830190925260048352634530313760e01b9083015242116115935760405162461bcd60e51b8152600401610538919061256e565b506007836040516115a49190612644565b90815260408051602092819003830190206001600160a01b0387811660008181529285528383206001808552908652848420549288168452600586528484209184529085528383209083529093529081208054909190611605908490612685565b92505081905550600060078460405161161e9190612644565b9081526040805191829003602090810183206001600160a01b03808a16600081815292845284832060018085529085528584209790975590881682526005835283822090825282528281208582529091522054917f2a4a396795b36662ffe9a398a57fd654cf6ea95e79cf6d96d6f0267685687c39916113069187916126c7565b600080546001600160a01b031633146116ca5760405162461bcd60e51b815260040161053890612581565b6000835111604051806040016040528060048152602001632298181960e11b8152509061170a5760405162461bcd60e51b8152600401610538919061256e565b506117148261201b565b604051806040016040528060048152602001634530303360e01b8152509061174f5760405162461bcd60e51b8152600401610538919061256e565b50600a836040516117609190612644565b9081526040805191829003602090810183206000808052908252829020548383019092526004835263114c0c0d60e21b9083015260ff166117b45760405162461bcd60e51b8152600401610538919061256e565b506008836040516117c59190612644565b90815260408051918290036020908101832060008080529082528290205483830190925260048352634530313760e01b9083015242116118185760405162461bcd60e51b8152600401610538919061256e565b506006836040516118299190612644565b90815260200160405180910390205460026000846001600160a01b03166001600160a01b03168152602001908152602001600020600082825461186c9190612685565b9250508190555060006006846040516118859190612644565b908152604080519182900360209081018320939093556001600160a01b03851660009081526002909352822054917f2a4a396795b36662ffe9a398a57fd654cf6ea95e79cf6d96d6f0267685687c39916118e09187916126c7565b60405180910390a190505b92915050565b6000546001600160a01b0316331461191b5760405162461bcd60e51b815260040161053890612581565b6000825111604051806040016040528060048152602001632298181960e11b8152509061195b5760405162461bcd60e51b8152600401610538919061256e565b506040805180820190915260048152630453031360e41b6020820152816119955760405162461bcd60e51b8152600401610538919061256e565b50600a826040516119a69190612644565b9081526040805191829003602090810183206000808052908252829020548383019092526004835263114c0c4d60e21b9083015260ff16156119fb5760405162461bcd60e51b8152600401610538919061256e565b506001600a83604051611a0e9190612644565b9081526040805160209281900383019020600080805292529020805460ff1916911515919091179055611a418142612685565b600883604051611a519190612644565b908152604080516020928190038301812060008080529352908220929092557ffda0e6502dae3d85195083e39efa0c8bdccc7d5741b53cf5c57de0c33dc9aaa491611a9d9185916126c7565b60405180910390a15050565b6001600160a01b03166000908152600080516020612710833981519152602052604090205460ff1690565b600080546001600160a01b03163314611aff5760405162461bcd60e51b815260040161053890612581565b6040805180820190915260048152634530313160e01b602082015282611b385760405162461bcd60e51b8152600401610538919061256e565b506000845111604051806040016040528060048152602001632298181960e11b81525090611b795760405162461bcd60e51b8152600401610538919061256e565b50611b838361201b565b604051806040016040528060048152602001634530303360e01b81525090611bbe5760405162461bcd60e51b8152600401610538919061256e565b508160026000856001600160a01b03166001600160a01b031681526020019081526020016000205410156040518060400160405280600481526020016308a6060760e31b81525090611c235760405162461bcd60e51b8152600401610538919061256e565b506001600160a01b03831660009081526002602052604081208054849290611c4c908490612602565b9250508190555081600685604051611c649190612644565b90815260200160405180910390206000828254611c819190612685565b90915550506001600160a01b038316600090815260026020526040908190205490518390600690611cb3908890612644565b90815260200160405180910390205403611d08577f0674090a69c67762650abcd64d1bc896d06756b85c925a9f28e97a30487db3ae85846000604051611cfb93929190612698565b60405180910390a1611d3c565b7f64ef3840fadd155a2d8cb45b5f007ed1273c96ca6026ee12008d0809aa77eef78584600060405161130693929190612698565b949350505050565b6000546001600160a01b03163314611d6e5760405162461bcd60e51b815260040161053890612581565b6000825111604051806040016040528060048152602001632298181960e11b81525090611dae5760405162461bcd60e51b8152600401610538919061256e565b506040805180820190915260048152630453031360e41b602082015281611de85760405162461bcd60e51b8152600401610538919061256e565b50600a82604051611df99190612644565b90815260408051918290036020908101832060016000908152908252829020548383019092526004835263114c0c4d60e21b9083015260ff1615611e505760405162461bcd60e51b8152600401610538919061256e565b506001600a83604051611e639190612644565b90815260408051602092819003830190206001600090815292529020805460ff1916911515919091179055611e988142612685565b600883604051611ea89190612644565b90815260200160405180910390206000600163ffffffff168152602001908152602001600020819055507ffda0e6502dae3d85195083e39efa0c8bdccc7d5741b53cf5c57de0c33dc9aaa4826001604051611a9d9291906126c7565b6000546001600160a01b03163314611f2e5760405162461bcd60e51b815260040161053890612581565b6040805180820190915260048152632298181960e11b60208201526001600160a01b038216611f705760405162461bcd60e51b8152600401610538919061256e565b50611f7a8161201b565b15604051806040016040528060048152602001632298181b60e11b81525090611fb65760405162461bcd60e51b8152600401610538919061256e565b506001600160a01b0381166000818152600160208181526040808420805460ff19169093179092556002815281832092909255519182527f3d04fb94919fdfa7708320cdebdf093992d88d792b3d5f4144c364cda00129c6910160405180910390a150565b6001600160a01b031660009081526001602052604090205460ff1690565b80356001600160a01b038116811461205057600080fd5b919050565b60006020828403121561206757600080fd5b61207082612039565b9392505050565b6000806040838503121561208a57600080fd5b61209383612039565b91506120a160208401612039565b90509250929050565b600080604083850312156120bd57600080fd5b6120c683612039565b9150602083013580151581146120db57600080fd5b809150509250929050565b634e487b7160e01b600052604160045260246000fd5b600082601f83011261210d57600080fd5b813567ffffffffffffffff80821115612128576121286120e6565b604051601f8301601f19908116603f01168101908282118183101715612150576121506120e6565b8160405283815286602085880101111561216957600080fd5b836020870160208301376000602085830101528094505050505092915050565b6000806000806080858703121561219f57600080fd5b6121a885612039565b93506121b660208601612039565b9250604085013567ffffffffffffffff8111156121d257600080fd5b6121de878288016120fc565b949793965093946060013593505050565b803563ffffffff8116811461205057600080fd5b6000806040838503121561221657600080fd5b612093836121ef565b6000806040838503121561223257600080fd5b823567ffffffffffffffff81111561224957600080fd5b612255858286016120fc565b9250506120a160208401612039565b6000806000806080858703121561227a57600080fd5b61228385612039565b9350602085013567ffffffffffffffff81111561229f57600080fd5b6122ab878288016120fc565b9350506122ba60408601612039565b9396929550929360600135925050565b6000602082840312156122dc57600080fd5b813567ffffffffffffffff8111156122f357600080fd5b611d3c848285016120fc565b60008060006060848603121561231457600080fd5b61231d84612039565b925061232b60208501612039565b9150612339604085016121ef565b90509250925092565b60008060006060848603121561235757600080fd5b61236084612039565b9250602084013567ffffffffffffffff81111561237c57600080fd5b612388868287016120fc565b925050604084013590509250925092565b6020808252825182820181905260009190848201906040850190845b818110156123da5783516001600160a01b0316835292840192918401916001016123b5565b50909695505050505050565b6000806000606084860312156123fb57600080fd5b833567ffffffffffffffff81111561241257600080fd5b61241e868287016120fc565b93505061232b60208501612039565b60008060006060848603121561244257600080fd5b61244b84612039565b9250602084013567ffffffffffffffff81111561246757600080fd5b612473868287016120fc565b92505061233960408501612039565b6000806040838503121561249557600080fd5b823567ffffffffffffffff8111156124ac57600080fd5b6124b8858286016120fc565b95602094909401359450505050565b6000806000606084860312156124dc57600080fd5b833567ffffffffffffffff8111156124f357600080fd5b6124ff868287016120fc565b93505061250e60208501612039565b9150604084013590509250925092565b60005b83811015612539578181015183820152602001612521565b50506000910152565b6000815180845261255a81602086016020860161251e565b601f01601f19169290920160200192915050565b6020815260006120706020830184612542565b60208082526035908201527f556e617574686f72697a6520416363657373207265717565737465642c204361604082015274363632b91034b9903737ba103a34329037bbb732b960591b606082015260800190565b634e487b7160e01b600052603260045260246000fd5b634e487b7160e01b600052601160045260246000fd5b818103818111156118eb576118eb6125ec565b634e487b7160e01b600052603160045260246000fd5b60006001820161263d5761263d6125ec565b5060010190565b6000825161265681846020870161251e565b9190910192915050565b6060815260006126736060830186612542565b60208301949094525060400152919050565b808201808211156118eb576118eb6125ec565b6060815260006126ab6060830186612542565b905083602083015263ffffffff83166040830152949350505050565b6040815260006126da6040830185612542565b905063ffffffff83166020830152939250505056feabd6e7cb50984ff9c2f3e18a2660c3353dadf4e3291deeb275dae2cd1e44fe05a15bc60c955c405d20d9149c709e2460f1c2d9a497496a7f46004d1772c3054ca2646970667358221220ef6c85ecd46e36fa185bd7494de5188e85958ae1a690823156dcd2a33854936164736f6c63430008110033",
  "immutableReferences": {},
  "source": "// SPDX-License-Identifier: Apache-2.0\npragma solidity ^0.8.17;\n\nimport \"./HashbuzzStates.sol\";\nimport \"./Utils.sol\";\n\n/**\n * @title CampaignLifecycle\n * @dev This contract manages the campaign's lifecycle calls and state changes.\n */\ncontract Lifecycle is HashbuzzStates, Utils {\n    /**\n     * @dev Add a new campaign or top up an existing campaign\n     * @param campaignAddress The db address of the campaign\n     * @param campaigner The solidity address of the campaigner or wallet address\n     * @param amount The amount to be allocated to the campaign from the campaigner's balance.\n     */\n    function addCampaignOrTopUp(\n        string memory campaignAddress,\n        address campaigner,\n        uint256 amount\n    ) public onlyOwner returns (uint256) {\n        require(amount > 0, ERR_TOTAL_AMOUNT_MUST_BE_GREATER_THAN_ZERO);\n        require(\n            bytes(campaignAddress).length > 0,\n            ERR_INVALID_CAMPAIGN_ADDRESS\n        );\n        require(isCampaigner(campaigner), ERR_CAMPAIGNER_NOT_ALLOWED);\n        require(balances[campaigner] >= amount, ERR_INSUFFICIENT_BALANCE);\n\n        balances[campaigner] -= amount;\n        campaignBalances[campaignAddress] += amount;\n\n        uint256 updatedBalance = balances[campaigner];\n\n        if (campaignBalances[campaignAddress] == amount) {\n            emit NewCampaignIsAdded(campaignAddress, amount, HBAR);\n        } else {\n            emit CampaignToppedUp(campaignAddress, amount, HBAR);\n        }\n\n        return updatedBalance;\n    }\n\n    /**\n     * @dev Add a new campaign for fungible tokens or top up an existing campaign\n     * @param tokenId The address of the token in solidity format\n     * @param campaignAddress The db address of the campaign\n     * @param campaigner The solidity address of the campaigner or wallet address\n     * @param tokenAmount The amount of tokens to be allocated to the campaign\n     */\n    function addFungibleCampaign(\n        address tokenId,\n        string memory campaignAddress,\n        address campaigner,\n        uint256 tokenAmount\n    ) public onlyOwner returns (uint256) {\n        require(tokenId != address(0), ERR_INVALID_TOKEN_ADDRESS);\n        require(isTokenWhitelisted(tokenId), ERR_TOKEN_NOT_WHITELISTED);\n        require(\n            bytes(campaignAddress).length > 0,\n            ERR_INVALID_CAMPAIGN_ADDRESS\n        );\n        require(isCampaigner(campaigner), ERR_CAMPAIGNER_NOT_ALLOWED);\n        require(tokenAmount > 0, ERR_TOTAL_AMOUNT_MUST_BE_GREATER_THAN_ZERO);\n        require(\n            tokenBalances[campaigner][tokenId][FUNGIBLE] >= tokenAmount,\n            ERR_INSUFFICIENT_BALANCE\n        );\n\n        tokenBalances[campaigner][tokenId][FUNGIBLE] -= tokenAmount;\n        tokenCampaignBalances[campaignAddress][tokenId][\n            FUNGIBLE\n        ] += tokenAmount;\n\n        uint256 updatedBalance = tokenBalances[campaigner][tokenId][FUNGIBLE];\n\n        if (\n            tokenCampaignBalances[campaignAddress][tokenId][FUNGIBLE] ==\n            tokenAmount\n        ) {\n            emit NewCampaignIsAdded(campaignAddress, tokenAmount, FUNGIBLE);\n        } else {\n            emit CampaignToppedUp(campaignAddress, tokenAmount, FUNGIBLE);\n        }\n\n        emit FungibleTokenBalanceUpdated(campaigner, tokenId, updatedBalance);\n        return updatedBalance;\n    }\n\n    /**\n     * @dev Close a campaign with HBAR\n     * @param campaignAddress The db address of the campaign\n     * @param campaignExpiryTime The expiry time of the campaign in seconds\n     */\n    function closeCampaign(\n        string memory campaignAddress,\n        uint256 campaignExpiryTime\n    ) public onlyOwner {\n        require(\n            bytes(campaignAddress).length > 0,\n            ERR_INVALID_CAMPAIGN_ADDRESS\n        );\n        require(campaignExpiryTime > 0, ERR_INVALID_EXPIRY_TIME);\n        require(\n            !isCampaignClosed[campaignAddress][HBAR],\n            ERR_TCAMPAIGN_ALREADY_CLOSED\n        );\n\n        isCampaignClosed[campaignAddress][HBAR] = true;\n        campaignEndTime[campaignAddress][HBAR] =\n            block.timestamp +\n            campaignExpiryTime;\n        emit campaignClosed(campaignAddress, HBAR);\n    }\n\n    /**\n     * @dev Close a campaign with fungible tokens\n     * @param campaignAddress The db address of the campaign\n     * @param campaignExpiryTime The expiry time of the campaign in seconds\n     */\n    function closeFungibleCampaign(\n        string memory campaignAddress,\n        uint256 campaignExpiryTime\n    ) public onlyOwner {\n        require(\n            bytes(campaignAddress).length > 0,\n            ERR_INVALID_CAMPAIGN_ADDRESS\n        );\n        require(campaignExpiryTime > 0, ERR_INVALID_EXPIRY_TIME);\n        require(\n            !isCampaignClosed[campaignAddress][FUNGIBLE],\n            ERR_TCAMPAIGN_ALREADY_CLOSED\n        );\n\n        isCampaignClosed[campaignAddress][FUNGIBLE] = true;\n        campaignEndTime[campaignAddress][FUNGIBLE] =\n            block.timestamp +\n            campaignExpiryTime;\n\n        emit campaignClosed(campaignAddress, FUNGIBLE);\n    }\n\n    /**\n     * @dev Distribute HBAR tokens to the campaigner\n     * @param campaigner The solidity address of the campaigner or wallet address\n     * @param campaignAddress The db address of the campaign\n     * @param totalAmount The total amount of tokens to be distributed\n     */\n    function adjustTotalReward(\n        address campaigner,\n        string memory campaignAddress,\n        uint256 totalAmount\n    ) external onlyOwner returns (uint256) {\n        require(isCampaigner(campaigner), ERR_CAMPAIGNER_NOT_ALLOWED);\n        require(\n            bytes(campaignAddress).length > 0,\n            ERR_INVALID_CAMPAIGN_ADDRESS\n        );\n        require(totalAmount > 0, ERR_TOTAL_AMOUNT_MUST_BE_GREATER_THAN_ZERO);\n        require(\n            isCampaignClosed[campaignAddress][HBAR],\n            ERR_CAMPAIGN_NOT_CLOSED\n        );\n        require(\n            campaignBalances[campaignAddress] >= totalAmount,\n            \"Insufficient campaign balance\"\n        );\n\n        // Deduct the distributed amount from the campaign's balance\n        campaignBalances[campaignAddress] -= totalAmount;\n        uint256 remainingBalance = campaignBalances[campaignAddress];\n\n        emit RewardsDistributed(campaignAddress, totalAmount, remainingBalance);\n        return remainingBalance;\n    }\n    /**\n     * @dev Distribute fungible tokens to the campaigner\n     * @param tokenId The address of the token in solidity format\n     * @param campaigner The solidity address of the campaigner or wallet address\n     * @param campaignAddress The db address of the campaign\n     * @param tokenTotalAmount The total amount of tokens to be distributed\n     */\n    function adjustTotalFungibleReward(\n        address tokenId,\n        address campaigner,\n        string memory campaignAddress,\n        uint256 tokenTotalAmount\n    ) external onlyOwner returns (uint256) {\n        require(isTokenWhitelisted(tokenId), ERR_TOKEN_NOT_WHITELISTED);\n        require(isCampaigner(campaigner), ERR_CAMPAIGNER_NOT_ALLOWED);\n        require(\n            bytes(campaignAddress).length > 0,\n            ERR_INVALID_CAMPAIGN_ADDRESS\n        );\n        require(\n            tokenTotalAmount > 0,\n            ERR_TOTAL_AMOUNT_MUST_BE_GREATER_THAN_ZERO\n        );\n        require(\n            isCampaignClosed[campaignAddress][FUNGIBLE],\n            ERR_CAMPAIGN_NOT_CLOSED\n        );\n\n        // Deduct the distributed amount from the campaign's balance\n        tokenCampaignBalances[campaignAddress][tokenId][\n            FUNGIBLE\n        ] -= tokenTotalAmount;\n        uint256 remainingBalance = tokenCampaignBalances[campaignAddress][\n            tokenId\n        ][FUNGIBLE];\n\n        emit RewardsDistributed(\n            campaignAddress,\n            uint256(tokenTotalAmount),\n            remainingBalance\n        );\n\n        return uint256(remainingBalance);\n    }\n\n    /**\n     * @dev Expiry a campaign with fungible tokens campaigns only\n     * @param campaignAddress The db address of the campaign\n     * @param tokenId The address of the token in solidity format\n     * @param campaigner The solidity address of the campaigner or wallet address\n     */\n    function expiryFungibleCampaign(\n        address tokenId,\n        string memory campaignAddress,\n        address campaigner\n    ) public onlyOwner returns (uint256) {\n        require(tokenId != address(0), ERR_INVALID_TOKEN_ADDRESS);\n        require(isTokenWhitelisted(tokenId), ERR_TOKEN_NOT_WHITELISTED);\n        require(\n            bytes(campaignAddress).length > 0,\n            ERR_INVALID_CAMPAIGN_ADDRESS\n        );\n        require(isCampaigner(campaigner), ERR_CAMPAIGNER_NOT_ALLOWED);\n        require(\n            isCampaignClosed[campaignAddress][FUNGIBLE],\n            ERR_CAMPAIGN_NOT_CLOSED\n        );\n        require(\n            block.timestamp > campaignEndTime[campaignAddress][FUNGIBLE],\n            ERR_CAMPAIGN_EXPIRY_TIME_NOT_PASSED\n        );\n\n        tokenBalances[campaigner][tokenId][FUNGIBLE] += tokenCampaignBalances[\n            campaignAddress\n        ][tokenId][FUNGIBLE];\n        tokenCampaignBalances[campaignAddress][tokenId][FUNGIBLE] = 0;\n\n        uint256 updatedBalance = tokenBalances[campaigner][tokenId][FUNGIBLE];\n        emit campaignExpired(campaignAddress, FUNGIBLE);\n\n        return updatedBalance;\n    }\n\n    /**\n     * @dev Expiry a campaign with HBAR\n     * @param campaignAddress The db address of the campaign\n     * @param campaigner The solidity address of the campaigner or wallet address\n     */\n    function expiryCampaign(\n        string memory campaignAddress,\n        address campaigner\n    ) public onlyOwner returns (uint256) {\n        require(\n            bytes(campaignAddress).length > 0,\n            ERR_INVALID_CAMPAIGN_ADDRESS\n        );\n        require(isCampaigner(campaigner), ERR_CAMPAIGNER_NOT_ALLOWED);\n\n        require(\n            isCampaignClosed[campaignAddress][HBAR],\n            ERR_CAMPAIGN_NOT_CLOSED\n        );\n        require(\n            block.timestamp > campaignEndTime[campaignAddress][HBAR],\n            ERR_CAMPAIGN_EXPIRY_TIME_NOT_PASSED\n        );\n\n        balances[campaigner] += campaignBalances[campaignAddress];\n        campaignBalances[campaignAddress] = 0;\n        uint256 updatedBalance = balances[campaigner];\n\n        emit campaignExpired(campaignAddress, HBAR);\n\n        return updatedBalance;\n    }\n}\n",
  "sourcePath": "/Users/ahmed/Desktop/hashbuzz_code/smv201/contracts/HashbuzzModules/CampaignLifecycle.sol",
  "compiler": {
    "name": "solc",
    "version": "0.8.17+commit.8df45f5f.Emscripten.clang"
  },
  "schemaVersion": "3.4.16",
  "updatedAt": "2024-12-05T13:53:54.873Z",
  "devdoc": {
    "details": "This contract manages the campaign's lifecycle calls and state changes.",
    "kind": "dev",
    "methods": {
      "addCampaignOrTopUp(string,address,uint256)": {
        "details": "Add a new campaign or top up an existing campaign",
        "params": {
          "amount": "The amount to be allocated to the campaign from the campaigner's balance.",
          "campaignAddress": "The db address of the campaign",
          "campaigner": "The solidity address of the campaigner or wallet address"
        }
      },
      "addCampaigner(address)": {
        "details": "Whitelist cmapigner to the user.",
        "params": {
          "newCampaigner": "Address of the user having campaigner role to be used here"
        }
      },
      "addFungibleCampaign(address,string,address,uint256)": {
        "details": "Add a new campaign for fungible tokens or top up an existing campaign",
        "params": {
          "campaignAddress": "The db address of the campaign",
          "campaigner": "The solidity address of the campaigner or wallet address",
          "tokenAmount": "The amount of tokens to be allocated to the campaign",
          "tokenId": "The address of the token in solidity format"
        }
      },
      "adjustTotalFungibleReward(address,address,string,uint256)": {
        "details": "Distribute fungible tokens to the campaigner",
        "params": {
          "campaignAddress": "The db address of the campaign",
          "campaigner": "The solidity address of the campaigner or wallet address",
          "tokenId": "The address of the token in solidity format",
          "tokenTotalAmount": "The total amount of tokens to be distributed"
        }
      },
      "adjustTotalReward(address,string,uint256)": {
        "details": "Distribute HBAR tokens to the campaigner",
        "params": {
          "campaignAddress": "The db address of the campaign",
          "campaigner": "The solidity address of the campaigner or wallet address",
          "totalAmount": "The total amount of tokens to be distributed"
        }
      },
      "associateToken(address,bool)": {
        "details": "Adds or removes a token from the whitelist.",
        "params": {
          "isWhitelisted": "Boolean flag to mark the token as whitelisted or not.",
          "tokenAddress": "The address of the token."
        }
      },
      "closeCampaign(string,uint256)": {
        "details": "Close a campaign with HBAR",
        "params": {
          "campaignAddress": "The db address of the campaign",
          "campaignExpiryTime": "The expiry time of the campaign in seconds"
        }
      },
      "closeFungibleCampaign(string,uint256)": {
        "details": "Close a campaign with fungible tokens",
        "params": {
          "campaignAddress": "The db address of the campaign",
          "campaignExpiryTime": "The expiry time of the campaign in seconds"
        }
      },
      "expiryCampaign(string,address)": {
        "details": "Expiry a campaign with HBAR",
        "params": {
          "campaignAddress": "The db address of the campaign",
          "campaigner": "The solidity address of the campaigner or wallet address"
        }
      },
      "expiryFungibleCampaign(address,string,address)": {
        "details": "Expiry a campaign with fungible tokens campaigns only",
        "params": {
          "campaignAddress": "The db address of the campaign",
          "campaigner": "The solidity address of the campaigner or wallet address",
          "tokenId": "The address of the token in solidity format"
        }
      },
      "getAllWhitelistedTokens()": {
        "details": "Retrieves all whitelisted addresses for a given token type.",
        "returns": {
          "_0": "An array of addresses that are whitelisted for the given token type."
        }
      },
      "getCampaignBalance(string)": {
        "details": "Balance alloted to the camppaign to see.",
        "params": {
          "campaignAddress": "campaign string id."
        }
      },
      "getFungibleCampaignBalance(string,address)": {
        "details": "Token balance held by the campaign.",
        "params": {
          "campaignAddress": "Campaign string ID.",
          "tokenId": "Solidity address of the token."
        },
        "returns": {
          "res": "The balance of the fungible token for the campaign."
        }
      },
      "getFungibleTokenBalance(address,address)": {
        "details": "Retrieves the balance of a fungible token for a specific campaigner.",
        "params": {
          "campaigner": "Address of the campaigner's solidity address.",
          "tokenId": "Solidity address used for the account."
        },
        "returns": {
          "res": "The balance of the fungible token."
        }
      },
      "getHbarBalance(address)": {
        "details": "Balance holded by the user to see.",
        "params": {
          "campaigner": "Solidity address of the campaigner."
        }
      },
      "isTokenWhitelisted(address)": {
        "details": "Checks if a specific token address is whitelisted for a given token type.",
        "params": {
          "tokenAddress": "The address of the token to check."
        },
        "returns": {
          "_0": "Boolean flag indicating if the token is whitelisted."
        }
      }
    },
    "title": "CampaignLifecycle",
    "version": 1
  },
  "userdoc": {
    "kind": "user",
    "methods": {},
    "version": 1
  }
}